{
  "contractName": "Marketplace",
  "abi": [
    {
      "anonymous": false,
      "inputs": [
        {
          "indexed": false,
          "internalType": "address",
          "name": "previousAdmin",
          "type": "address"
        },
        {
          "indexed": false,
          "internalType": "address",
          "name": "newAdmin",
          "type": "address"
        }
      ],
      "name": "AdminChanged",
      "type": "event"
    },
    {
      "anonymous": false,
      "inputs": [
        {
          "indexed": true,
          "internalType": "address",
          "name": "beacon",
          "type": "address"
        }
      ],
      "name": "BeaconUpgraded",
      "type": "event"
    },
    {
      "anonymous": false,
      "inputs": [
        {
          "indexed": false,
          "internalType": "uint256",
          "name": "ownerCutPerMillion",
          "type": "uint256"
        }
      ],
      "name": "ChangedOwnerCutPerMillion",
      "type": "event"
    },
    {
      "anonymous": false,
      "inputs": [
        {
          "indexed": false,
          "internalType": "uint256",
          "name": "publicationFee",
          "type": "uint256"
        }
      ],
      "name": "ChangedPublicationFee",
      "type": "event"
    },
    {
      "anonymous": false,
      "inputs": [
        {
          "indexed": false,
          "internalType": "bytes32",
          "name": "id",
          "type": "bytes32"
        },
        {
          "indexed": true,
          "internalType": "uint256",
          "name": "assetId",
          "type": "uint256"
        },
        {
          "indexed": true,
          "internalType": "address",
          "name": "seller",
          "type": "address"
        },
        {
          "indexed": false,
          "internalType": "contract IERC721",
          "name": "nftAddress",
          "type": "address"
        }
      ],
      "name": "OrderCancelled",
      "type": "event"
    },
    {
      "anonymous": false,
      "inputs": [
        {
          "indexed": false,
          "internalType": "bytes32",
          "name": "id",
          "type": "bytes32"
        },
        {
          "indexed": true,
          "internalType": "uint256",
          "name": "assetId",
          "type": "uint256"
        },
        {
          "indexed": true,
          "internalType": "address",
          "name": "seller",
          "type": "address"
        },
        {
          "indexed": false,
          "internalType": "contract IERC721",
          "name": "nftAddress",
          "type": "address"
        },
        {
          "indexed": false,
          "internalType": "uint256",
          "name": "priceInWei",
          "type": "uint256"
        },
        {
          "indexed": false,
          "internalType": "uint256",
          "name": "expiresAt",
          "type": "uint256"
        }
      ],
      "name": "OrderCreated",
      "type": "event"
    },
    {
      "anonymous": false,
      "inputs": [
        {
          "indexed": false,
          "internalType": "bytes32",
          "name": "id",
          "type": "bytes32"
        },
        {
          "indexed": true,
          "internalType": "uint256",
          "name": "assetId",
          "type": "uint256"
        },
        {
          "indexed": true,
          "internalType": "address",
          "name": "seller",
          "type": "address"
        },
        {
          "indexed": false,
          "internalType": "contract IERC721",
          "name": "nftAddress",
          "type": "address"
        },
        {
          "indexed": false,
          "internalType": "uint256",
          "name": "totalPrice",
          "type": "uint256"
        },
        {
          "indexed": true,
          "internalType": "address",
          "name": "buyer",
          "type": "address"
        }
      ],
      "name": "OrderSuccessful",
      "type": "event"
    },
    {
      "anonymous": false,
      "inputs": [
        {
          "indexed": false,
          "internalType": "address",
          "name": "account",
          "type": "address"
        }
      ],
      "name": "Paused",
      "type": "event"
    },
    {
      "anonymous": false,
      "inputs": [
        {
          "indexed": true,
          "internalType": "bytes32",
          "name": "role",
          "type": "bytes32"
        },
        {
          "indexed": true,
          "internalType": "bytes32",
          "name": "previousAdminRole",
          "type": "bytes32"
        },
        {
          "indexed": true,
          "internalType": "bytes32",
          "name": "newAdminRole",
          "type": "bytes32"
        }
      ],
      "name": "RoleAdminChanged",
      "type": "event"
    },
    {
      "anonymous": false,
      "inputs": [
        {
          "indexed": true,
          "internalType": "bytes32",
          "name": "role",
          "type": "bytes32"
        },
        {
          "indexed": true,
          "internalType": "address",
          "name": "account",
          "type": "address"
        },
        {
          "indexed": true,
          "internalType": "address",
          "name": "sender",
          "type": "address"
        }
      ],
      "name": "RoleGranted",
      "type": "event"
    },
    {
      "anonymous": false,
      "inputs": [
        {
          "indexed": true,
          "internalType": "bytes32",
          "name": "role",
          "type": "bytes32"
        },
        {
          "indexed": true,
          "internalType": "address",
          "name": "account",
          "type": "address"
        },
        {
          "indexed": true,
          "internalType": "address",
          "name": "sender",
          "type": "address"
        }
      ],
      "name": "RoleRevoked",
      "type": "event"
    },
    {
      "anonymous": false,
      "inputs": [
        {
          "indexed": false,
          "internalType": "address",
          "name": "account",
          "type": "address"
        }
      ],
      "name": "Unpaused",
      "type": "event"
    },
    {
      "anonymous": false,
      "inputs": [
        {
          "indexed": true,
          "internalType": "address",
          "name": "implementation",
          "type": "address"
        }
      ],
      "name": "Upgraded",
      "type": "event"
    },
    {
      "inputs": [],
      "name": "DEFAULT_ADMIN_ROLE",
      "outputs": [
        {
          "internalType": "bytes32",
          "name": "",
          "type": "bytes32"
        }
      ],
      "stateMutability": "view",
      "type": "function"
    },
    {
      "inputs": [],
      "name": "GM_ROLE",
      "outputs": [
        {
          "internalType": "bytes32",
          "name": "",
          "type": "bytes32"
        }
      ],
      "stateMutability": "view",
      "type": "function"
    },
    {
      "inputs": [],
      "name": "UPGRADER_ROLE",
      "outputs": [
        {
          "internalType": "bytes32",
          "name": "",
          "type": "bytes32"
        }
      ],
      "stateMutability": "view",
      "type": "function"
    },
    {
      "inputs": [],
      "name": "acceptedToken",
      "outputs": [
        {
          "internalType": "contract IERC20MELD",
          "name": "",
          "type": "address"
        }
      ],
      "stateMutability": "view",
      "type": "function"
    },
    {
      "inputs": [],
      "name": "foundationWallet",
      "outputs": [
        {
          "internalType": "address",
          "name": "",
          "type": "address"
        }
      ],
      "stateMutability": "view",
      "type": "function"
    },
    {
      "inputs": [
        {
          "internalType": "bytes32",
          "name": "role",
          "type": "bytes32"
        }
      ],
      "name": "getRoleAdmin",
      "outputs": [
        {
          "internalType": "bytes32",
          "name": "",
          "type": "bytes32"
        }
      ],
      "stateMutability": "view",
      "type": "function"
    },
    {
      "inputs": [
        {
          "internalType": "bytes32",
          "name": "role",
          "type": "bytes32"
        },
        {
          "internalType": "address",
          "name": "account",
          "type": "address"
        }
      ],
      "name": "grantRole",
      "outputs": [],
      "stateMutability": "nonpayable",
      "type": "function"
    },
    {
      "inputs": [
        {
          "internalType": "bytes32",
          "name": "role",
          "type": "bytes32"
        },
        {
          "internalType": "address",
          "name": "account",
          "type": "address"
        }
      ],
      "name": "hasRole",
      "outputs": [
        {
          "internalType": "bool",
          "name": "",
          "type": "bool"
        }
      ],
      "stateMutability": "view",
      "type": "function"
    },
    {
      "inputs": [],
      "name": "officialWallet",
      "outputs": [
        {
          "internalType": "address",
          "name": "",
          "type": "address"
        }
      ],
      "stateMutability": "view",
      "type": "function"
    },
    {
      "inputs": [
        {
          "internalType": "contract IERC721",
          "name": "",
          "type": "address"
        },
        {
          "internalType": "uint256",
          "name": "",
          "type": "uint256"
        }
      ],
      "name": "orderByAssetId",
      "outputs": [
        {
          "internalType": "bytes32",
          "name": "id",
          "type": "bytes32"
        },
        {
          "internalType": "address",
          "name": "seller",
          "type": "address"
        },
        {
          "internalType": "uint256",
          "name": "assetId",
          "type": "uint256"
        },
        {
          "internalType": "contract IERC721",
          "name": "nftAddress",
          "type": "address"
        },
        {
          "internalType": "uint256",
          "name": "price",
          "type": "uint256"
        },
        {
          "internalType": "uint256",
          "name": "expiresAt",
          "type": "uint256"
        }
      ],
      "stateMutability": "view",
      "type": "function"
    },
    {
      "inputs": [],
      "name": "ownerCutPerMillion",
      "outputs": [
        {
          "internalType": "uint256",
          "name": "",
          "type": "uint256"
        }
      ],
      "stateMutability": "view",
      "type": "function"
    },
    {
      "inputs": [],
      "name": "paused",
      "outputs": [
        {
          "internalType": "bool",
          "name": "",
          "type": "bool"
        }
      ],
      "stateMutability": "view",
      "type": "function"
    },
    {
      "inputs": [],
      "name": "publicationFeeInWei",
      "outputs": [
        {
          "internalType": "uint256",
          "name": "",
          "type": "uint256"
        }
      ],
      "stateMutability": "view",
      "type": "function"
    },
    {
      "inputs": [
        {
          "internalType": "bytes32",
          "name": "role",
          "type": "bytes32"
        },
        {
          "internalType": "address",
          "name": "account",
          "type": "address"
        }
      ],
      "name": "renounceRole",
      "outputs": [],
      "stateMutability": "nonpayable",
      "type": "function"
    },
    {
      "inputs": [
        {
          "internalType": "bytes32",
          "name": "role",
          "type": "bytes32"
        },
        {
          "internalType": "address",
          "name": "account",
          "type": "address"
        }
      ],
      "name": "revokeRole",
      "outputs": [],
      "stateMutability": "nonpayable",
      "type": "function"
    },
    {
      "inputs": [
        {
          "internalType": "bytes4",
          "name": "interfaceId",
          "type": "bytes4"
        }
      ],
      "name": "supportsInterface",
      "outputs": [
        {
          "internalType": "bool",
          "name": "",
          "type": "bool"
        }
      ],
      "stateMutability": "view",
      "type": "function"
    },
    {
      "inputs": [
        {
          "internalType": "address",
          "name": "newImplementation",
          "type": "address"
        }
      ],
      "name": "upgradeTo",
      "outputs": [],
      "stateMutability": "nonpayable",
      "type": "function"
    },
    {
      "inputs": [
        {
          "internalType": "address",
          "name": "newImplementation",
          "type": "address"
        },
        {
          "internalType": "bytes",
          "name": "data",
          "type": "bytes"
        }
      ],
      "name": "upgradeToAndCall",
      "outputs": [],
      "stateMutability": "payable",
      "type": "function"
    },
    {
      "inputs": [
        {
          "internalType": "contract IERC20MELD",
          "name": "_acceptedToken",
          "type": "address"
        },
        {
          "internalType": "address",
          "name": "_officialWallet",
          "type": "address"
        },
        {
          "internalType": "address",
          "name": "_foundationWallet",
          "type": "address"
        },
        {
          "internalType": "uint256",
          "name": "_ownerCutPerMillion",
          "type": "uint256"
        }
      ],
      "name": "initialize",
      "outputs": [],
      "stateMutability": "nonpayable",
      "type": "function"
    },
    {
      "inputs": [
        {
          "internalType": "uint256",
          "name": "_publicationFee",
          "type": "uint256"
        }
      ],
      "name": "setPublicationFee",
      "outputs": [],
      "stateMutability": "nonpayable",
      "type": "function"
    },
    {
      "inputs": [
        {
          "internalType": "uint256",
          "name": "_ownerCutPerMillion",
          "type": "uint256"
        }
      ],
      "name": "setOwnerCutPerMillion",
      "outputs": [],
      "stateMutability": "nonpayable",
      "type": "function"
    },
    {
      "inputs": [
        {
          "internalType": "contract IERC721",
          "name": "nftAddress",
          "type": "address"
        },
        {
          "internalType": "uint256",
          "name": "assetId",
          "type": "uint256"
        },
        {
          "internalType": "uint256",
          "name": "priceInWei",
          "type": "uint256"
        },
        {
          "internalType": "uint256",
          "name": "expiresAt",
          "type": "uint256"
        }
      ],
      "name": "createOrder",
      "outputs": [],
      "stateMutability": "nonpayable",
      "type": "function"
    },
    {
      "inputs": [
        {
          "internalType": "contract IERC721",
          "name": "nftAddress",
          "type": "address"
        },
        {
          "internalType": "uint256",
          "name": "assetId",
          "type": "uint256"
        }
      ],
      "name": "cancelOrder",
      "outputs": [],
      "stateMutability": "nonpayable",
      "type": "function"
    },
    {
      "inputs": [
        {
          "internalType": "contract IERC721",
          "name": "nftAddress",
          "type": "address"
        },
        {
          "internalType": "uint256",
          "name": "assetId",
          "type": "uint256"
        },
        {
          "internalType": "uint256",
          "name": "price",
          "type": "uint256"
        }
      ],
      "name": "safeExecuteOrder",
      "outputs": [],
      "stateMutability": "nonpayable",
      "type": "function"
    },
    {
      "inputs": [
        {
          "internalType": "contract IERC721",
          "name": "nftAddress",
          "type": "address"
        },
        {
          "internalType": "uint256",
          "name": "assetId",
          "type": "uint256"
        },
        {
          "internalType": "uint256",
          "name": "price",
          "type": "uint256"
        }
      ],
      "name": "executeOrder",
      "outputs": [],
      "stateMutability": "nonpayable",
      "type": "function"
    }
  ],
  "bytecode": "0x608060405234801561001057600080fd5b50614bbd806100206000396000f3fe6080604052600436106101665760003560e01c80636a206137116100d1578063ae4f11981161008a578063cf756fdf11610064578063cf756fdf14610507578063d547741f14610530578063e61f385114610559578063f72c0d8b1461059b57610166565b8063ae4f11981461048a578063ae7b0333146104b5578063af8996f1146104de57610166565b80636a2061371461037a5780636b7ae8dc146103a35780636f652e1a146103ce57806391d14854146103f7578063a01f79d414610434578063a217fddf1461045f57610166565b806336568abe1161012357806336568abe1461028d5780633659cfe6146102b657806338940b5b146102df578063451c3d80146103085780634f1ef286146103335780635c975abb1461034f57610166565b806301ffc9a71461016b578063088025d3146101a857806319dad16d146101d3578063248a9ca3146101fc5780632f2ff15d1461023957806330c7be2c14610262575b600080fd5b34801561017757600080fd5b50610192600480360381019061018d91906132b3565b6105c6565b60405161019f91906132fb565b60405180910390f35b3480156101b457600080fd5b506101bd610640565b6040516101ca9190613357565b60405180910390f35b3480156101df57600080fd5b506101fa60048036038101906101f591906133a8565b610667565b005b34801561020857600080fd5b50610223600480360381019061021e919061340b565b610724565b6040516102309190613447565b60405180910390f35b34801561024557600080fd5b50610260600480360381019061025b919061348e565b610744565b005b34801561026e57600080fd5b5061027761076d565b6040516102849190613447565b60405180910390f35b34801561029957600080fd5b506102b460048036038101906102af919061348e565b610791565b005b3480156102c257600080fd5b506102dd60048036038101906102d891906134ce565b610814565b005b3480156102eb57600080fd5b5061030660048036038101906103019190613539565b61083b565b005b34801561031457600080fd5b5061031d610894565b60405161032a91906135eb565b60405180910390f35b61034d6004803603810190610348919061374c565b6108bb565b005b34801561035b57600080fd5b506103646108d4565b60405161037191906132fb565b60405180910390f35b34801561038657600080fd5b506103a1600480360381019061039c91906137a8565b6108eb565b005b3480156103af57600080fd5b506103b8610942565b6040516103c59190613357565b60405180910390f35b3480156103da57600080fd5b506103f560048036038101906103f091906137e8565b610969565b005b34801561040357600080fd5b5061041e6004803603810190610419919061348e565b6109c3565b60405161042b91906132fb565b60405180910390f35b34801561044057600080fd5b50610449610a2e565b604051610456919061385e565b60405180910390f35b34801561046b57600080fd5b50610474610a35565b6040516104819190613447565b60405180910390f35b34801561049657600080fd5b5061049f610a3c565b6040516104ac919061385e565b60405180910390f35b3480156104c157600080fd5b506104dc60048036038101906104d79190613539565b610a43565b005b3480156104ea57600080fd5b50610505600480360381019061050091906133a8565b610a9c565b005b34801561051357600080fd5b5061052e600480360381019061052991906138b7565b610b14565b005b34801561053c57600080fd5b506105576004803603810190610552919061348e565b610d3b565b005b34801561056557600080fd5b50610580600480360381019061057b91906137a8565b610d64565b6040516105929695949392919061393f565b60405180910390f35b3480156105a757600080fd5b506105b0610dee565b6040516105bd9190613447565b60405180910390f35b60007f7965db0b000000000000000000000000000000000000000000000000000000007bffffffffffffffffffffffffffffffffffffffffffffffffffffffff1916827bffffffffffffffffffffffffffffffffffffffffffffffffffffffff19161480610639575061063882610e12565b5b9050919050565b61012f60009054906101000a900473ffffffffffffffffffffffffffffffffffffffff1681565b7ff5eb84615c2a00ecaf817d13794ebd6299c9e01c395bf4018453f13f577f544961069981610694610e7c565b610e84565b620f424082106106de576040517f08c379a00000000000000000000000000000000000000000000000000000000081526004016106d590613a23565b60405180910390fd5b81610131819055507ffa406a120a9e7f2b332bfb7a43d3bf1c3f079262202907a6b69c94b2821a02c661013154604051610718919061385e565b60405180910390a15050565b600060656000838152602001908152602001600020600101549050919050565b61074d82610724565b61075e81610759610e7c565b610e84565b6107688383610f21565b505050565b7ff5eb84615c2a00ecaf817d13794ebd6299c9e01c395bf4018453f13f577f544981565b610799610e7c565b73ffffffffffffffffffffffffffffffffffffffff168173ffffffffffffffffffffffffffffffffffffffff1614610806576040517f08c379a00000000000000000000000000000000000000000000000000000000081526004016107fd90613ab5565b60405180910390fd5b6108108282611002565b5050565b61081d816110e4565b6108388160405180602001604052806000815250600061111a565b50565b6108436108d4565b15610883576040517f08c379a000000000000000000000000000000000000000000000000000000000815260040161087a90613b21565b60405180910390fd5b61088e8383836112eb565b50505050565b61012d60009054906101000a900473ffffffffffffffffffffffffffffffffffffffff1681565b6108c4826110e4565b6108d08282600161111a565b5050565b6000609760009054906101000a900460ff16905090565b6108f36108d4565b15610933576040517f08c379a000000000000000000000000000000000000000000000000000000000815260040161092a90613b21565b60405180910390fd5b61093d8282611cde565b505050565b61012e60009054906101000a900473ffffffffffffffffffffffffffffffffffffffff1681565b6109716108d4565b156109b1576040517f08c379a00000000000000000000000000000000000000000000000000000000081526004016109a890613b21565b60405180910390fd5b6109bd8484848461204f565b50505050565b60006065600084815260200190815260200160002060000160008373ffffffffffffffffffffffffffffffffffffffff1673ffffffffffffffffffffffffffffffffffffffff16815260200190815260200160002060009054906101000a900460ff16905092915050565b6101315481565b6000801b81565b6101325481565b610a4b6108d4565b15610a8b576040517f08c379a0000000000000000000000000000000000000000000000000000000008152600401610a8290613b21565b60405180910390fd5b610a968383836112eb565b50505050565b7ff5eb84615c2a00ecaf817d13794ebd6299c9e01c395bf4018453f13f577f5449610ace81610ac9610e7c565b610e84565b81610132819055507fe7fa8737293f41b5dfa0d5c3e552860a06275bed7015581b083c7be7003308ba61013254604051610b08919061385e565b60405180910390a15050565b600060019054906101000a900460ff1680610b3a575060008054906101000a900460ff16155b610b79576040517f08c379a0000000000000000000000000000000000000000000000000000000008152600401610b7090613bb3565b60405180910390fd5b60008060019054906101000a900460ff161590508015610bc9576001600060016101000a81548160ff02191690831515021790555060016000806101000a81548160ff0219169083151502179055505b610bd1612658565b610bd9612741565b610be66000801b33612832565b610c107f189ab7a9244df0848122154315af71fe140f3db0fe014031783b0946b8c9d2e333612832565b610c3a7ff5eb84615c2a00ecaf817d13794ebd6299c9e01c395bf4018453f13f577f544933612832565b610c4382610667565b610c4d6000610a9c565b8461012d60006101000a81548173ffffffffffffffffffffffffffffffffffffffff021916908373ffffffffffffffffffffffffffffffffffffffff1602179055508361012f60006101000a81548173ffffffffffffffffffffffffffffffffffffffff021916908373ffffffffffffffffffffffffffffffffffffffff1602179055508261012e60006101000a81548173ffffffffffffffffffffffffffffffffffffffff021916908373ffffffffffffffffffffffffffffffffffffffff1602179055508015610d345760008060016101000a81548160ff0219169083151502179055505b5050505050565b610d4482610724565b610d5581610d50610e7c565b610e84565b610d5f8383611002565b505050565b610130602052816000526040600020602052806000526040600020600091509150508060000154908060010160009054906101000a900473ffffffffffffffffffffffffffffffffffffffff16908060020154908060030160009054906101000a900473ffffffffffffffffffffffffffffffffffffffff16908060040154908060050154905086565b7f189ab7a9244df0848122154315af71fe140f3db0fe014031783b0946b8c9d2e381565b60007f01ffc9a7000000000000000000000000000000000000000000000000000000007bffffffffffffffffffffffffffffffffffffffffffffffffffffffff1916827bffffffffffffffffffffffffffffffffffffffffffffffffffffffff1916149050919050565b600033905090565b610e8e82826109c3565b610f1d57610eb38173ffffffffffffffffffffffffffffffffffffffff166014612840565b610ec18360001c6020612840565b604051602001610ed2929190613ce5565b6040516020818303038152906040526040517f08c379a0000000000000000000000000000000000000000000000000000000008152600401610f149190613d58565b60405180910390fd5b5050565b610f2b82826109c3565b610ffe5760016065600084815260200190815260200160002060000160008373ffffffffffffffffffffffffffffffffffffffff1673ffffffffffffffffffffffffffffffffffffffff16815260200190815260200160002060006101000a81548160ff021916908315150217905550610fa3610e7c565b73ffffffffffffffffffffffffffffffffffffffff168173ffffffffffffffffffffffffffffffffffffffff16837f2f8788117e7eff1d82e926ec794901d17c78024a50270940304540a733656f0d60405160405180910390a45b5050565b61100c82826109c3565b156110e05760006065600084815260200190815260200160002060000160008373ffffffffffffffffffffffffffffffffffffffff1673ffffffffffffffffffffffffffffffffffffffff16815260200190815260200160002060006101000a81548160ff021916908315150217905550611085610e7c565b73ffffffffffffffffffffffffffffffffffffffff168173ffffffffffffffffffffffffffffffffffffffff16837ff6391f5c32d9c69d2a47ea670b442974b53935d1edc7fd64eb21e047a839171b60405160405180910390a45b5050565b7f189ab7a9244df0848122154315af71fe140f3db0fe014031783b0946b8c9d2e361111681611111610e7c565b610e84565b5050565b6000611124612a7c565b905061112f84612ad3565b60008351118061113c5750815b1561114d5761114b8484612b8c565b505b600061117b7f4910fdfa16fed3260ed0e7147f7cc6da11a60208b5b9406d12a635614ffd914360001b612c70565b90508060000160009054906101000a900460ff166112e45760018160000160006101000a81548160ff02191690831515021790555061124785836040516024016111c59190613357565b6040516020818303038152906040527f3659cfe6000000000000000000000000000000000000000000000000000000007bffffffffffffffffffffffffffffffffffffffffffffffffffffffff19166020820180517bffffffffffffffffffffffffffffffffffffffffffffffffffffffff8381831617835250505050612b8c565b5060008160000160006101000a81548160ff02191690831515021790555061126d612a7c565b73ffffffffffffffffffffffffffffffffffffffff168273ffffffffffffffffffffffffffffffffffffffff16146112da576040517f08c379a00000000000000000000000000000000000000000000000000000000081526004016112d190613dec565b60405180910390fd5b6112e385612c7a565b5b5050505050565b6112f36131e2565b60006112fd610e7c565b90506000859050600061013060008873ffffffffffffffffffffffffffffffffffffffff1673ffffffffffffffffffffffffffffffffffffffff16815260200190815260200160002060008781526020019081526020016000206040518060c0016040529081600082015481526020016001820160009054906101000a900473ffffffffffffffffffffffffffffffffffffffff1673ffffffffffffffffffffffffffffffffffffffff1673ffffffffffffffffffffffffffffffffffffffff168152602001600282015481526020016003820160009054906101000a900473ffffffffffffffffffffffffffffffffffffffff1673ffffffffffffffffffffffffffffffffffffffff1673ffffffffffffffffffffffffffffffffffffffff1681526020016004820154815260200160058201548152505090506000801b81600001511415611482576040517f08c379a000000000000000000000000000000000000000000000000000000000815260040161147990613e58565b60405180910390fd5b600081602001519050600073ffffffffffffffffffffffffffffffffffffffff168173ffffffffffffffffffffffffffffffffffffffff1614156114fb576040517f08c379a00000000000000000000000000000000000000000000000000000000081526004016114f290613ec4565b60405180910390fd5b8373ffffffffffffffffffffffffffffffffffffffff168173ffffffffffffffffffffffffffffffffffffffff16141561156a576040517f08c379a000000000000000000000000000000000000000000000000000000000815260040161156190613f30565b60405180910390fd5b858260800151146115b0576040517f08c379a00000000000000000000000000000000000000000000000000000000081526004016115a790613f9c565b60405180910390fd5b8160a0015142106115f6576040517f08c379a00000000000000000000000000000000000000000000000000000000081526004016115ed90614008565b60405180910390fd5b8273ffffffffffffffffffffffffffffffffffffffff16636352211e886040518263ffffffff1660e01b815260040161162f919061385e565b602060405180830381865afa15801561164c573d6000803e3d6000fd5b505050506040513d601f19601f82011682018060405250810190611670919061403d565b73ffffffffffffffffffffffffffffffffffffffff168173ffffffffffffffffffffffffffffffffffffffff16146116dd576040517f08c379a00000000000000000000000000000000000000000000000000000000081526004016116d4906140dc565b60405180910390fd5b6000808360000151905061013060008b73ffffffffffffffffffffffffffffffffffffffff1673ffffffffffffffffffffffffffffffffffffffff16815260200190815260200160002060008a81526020019081526020016000206000808201600090556001820160006101000a81549073ffffffffffffffffffffffffffffffffffffffff021916905560028201600090556003820160006101000a81549073ffffffffffffffffffffffffffffffffffffffff02191690556004820160009055600582016000905550506000610131541115611b01576117e0620f42406117d2610131548b612cc990919063ffffffff16565b612cdf90919063ffffffff16565b9150600061180b60646117fd602886612cc990919063ffffffff16565b612cdf90919063ffffffff16565b905060006118366064611828602887612cc990919063ffffffff16565b612cdf90919063ffffffff16565b905060006118616064611853601488612cc990919063ffffffff16565b612cdf90919063ffffffff16565b905061012d60009054906101000a900473ffffffffffffffffffffffffffffffffffffffff1673ffffffffffffffffffffffffffffffffffffffff166379cc67908a856040518363ffffffff1660e01b81526004016118c19291906140fc565b600060405180830381600087803b1580156118db57600080fd5b505af11580156118ef573d6000803e3d6000fd5b5050505061012d60009054906101000a900473ffffffffffffffffffffffffffffffffffffffff1673ffffffffffffffffffffffffffffffffffffffff166323b872dd8a61012e60009054906101000a900473ffffffffffffffffffffffffffffffffffffffff16856040518463ffffffff1660e01b815260040161197693929190614125565b6020604051808303816000875af1158015611995573d6000803e3d6000fd5b505050506040513d601f19601f820116820180604052508101906119b99190614188565b6119f8576040517f08c379a00000000000000000000000000000000000000000000000000000000081526004016119ef90614227565b60405180910390fd5b61012d60009054906101000a900473ffffffffffffffffffffffffffffffffffffffff1673ffffffffffffffffffffffffffffffffffffffff166323b872dd8a61012f60009054906101000a900473ffffffffffffffffffffffffffffffffffffffff16846040518463ffffffff1660e01b8152600401611a7b93929190614125565b6020604051808303816000875af1158015611a9a573d6000803e3d6000fd5b505050506040513d601f19601f82011682018060405250810190611abe9190614188565b611afd576040517f08c379a0000000000000000000000000000000000000000000000000000000008152600401611af4906142b9565b60405180910390fd5b5050505b61012d60009054906101000a900473ffffffffffffffffffffffffffffffffffffffff1673ffffffffffffffffffffffffffffffffffffffff166323b872dd8785611b55868d612cf590919063ffffffff16565b6040518463ffffffff1660e01b8152600401611b7393929190614125565b6020604051808303816000875af1158015611b92573d6000803e3d6000fd5b505050506040513d601f19601f82011682018060405250810190611bb69190614188565b611bf5576040517f08c379a0000000000000000000000000000000000000000000000000000000008152600401611bec9061434b565b60405180910390fd5b8473ffffffffffffffffffffffffffffffffffffffff166342842e0e84888c6040518463ffffffff1660e01b8152600401611c3293929190614125565b600060405180830381600087803b158015611c4c57600080fd5b505af1158015611c60573d6000803e3d6000fd5b505050508573ffffffffffffffffffffffffffffffffffffffff168373ffffffffffffffffffffffffffffffffffffffff168a7f695ec315e8a642a74d450a4505eeea53df699b47a7378c7d752e97d5b16eb9bb848e8d604051611cc69392919061436b565b60405180910390a48396505050505050509392505050565b611ce66131e2565b6000611cf0610e7c565b9050600061013060008673ffffffffffffffffffffffffffffffffffffffff1673ffffffffffffffffffffffffffffffffffffffff16815260200190815260200160002060008581526020019081526020016000206040518060c0016040529081600082015481526020016001820160009054906101000a900473ffffffffffffffffffffffffffffffffffffffff1673ffffffffffffffffffffffffffffffffffffffff1673ffffffffffffffffffffffffffffffffffffffff168152602001600282015481526020016003820160009054906101000a900473ffffffffffffffffffffffffffffffffffffffff1673ffffffffffffffffffffffffffffffffffffffff1673ffffffffffffffffffffffffffffffffffffffff1681526020016004820154815260200160058201548152505090506000801b81600001511415611e70576040517f08c379a0000000000000000000000000000000000000000000000000000000008152600401611e6790613e58565b60405180910390fd5b8173ffffffffffffffffffffffffffffffffffffffff16816020015173ffffffffffffffffffffffffffffffffffffffff161480611ed45750611ed37ff5eb84615c2a00ecaf817d13794ebd6299c9e01c395bf4018453f13f577f5449836109c3565b5b611f13576040517f08c379a0000000000000000000000000000000000000000000000000000000008152600401611f0a90613f30565b60405180910390fd5b60008160000151905060008260200151905060008360600151905061013060008973ffffffffffffffffffffffffffffffffffffffff1673ffffffffffffffffffffffffffffffffffffffff16815260200190815260200160002060008881526020019081526020016000206000808201600090556001820160006101000a81549073ffffffffffffffffffffffffffffffffffffffff021916905560028201600090556003820160006101000a81549073ffffffffffffffffffffffffffffffffffffffff02191690556004820160009055600582016000905550508173ffffffffffffffffffffffffffffffffffffffff16877f0325426328de5b91ae4ad8462ad4076de4bcaf4551e81556185cacde5a425c6b85846040516120399291906143a2565b60405180910390a3839550505050505092915050565b6000612059610e7c565b9050600085905060008173ffffffffffffffffffffffffffffffffffffffff16636352211e876040518263ffffffff1660e01b815260040161209b919061385e565b602060405180830381865afa1580156120b8573d6000803e3d6000fd5b505050506040513d601f19601f820116820180604052508101906120dc919061403d565b90508073ffffffffffffffffffffffffffffffffffffffff168373ffffffffffffffffffffffffffffffffffffffff161461214c576040517f08c379a000000000000000000000000000000000000000000000000000000000815260040161214390614417565b60405180910390fd5b3073ffffffffffffffffffffffffffffffffffffffff168273ffffffffffffffffffffffffffffffffffffffff1663081812fc886040518263ffffffff1660e01b815260040161219c919061385e565b602060405180830381865afa1580156121b9573d6000803e3d6000fd5b505050506040513d601f19601f820116820180604052508101906121dd919061403d565b73ffffffffffffffffffffffffffffffffffffffff16148061227757508173ffffffffffffffffffffffffffffffffffffffff1663e985e9c582306040518363ffffffff1660e01b8152600401612235929190614437565b602060405180830381865afa158015612252573d6000803e3d6000fd5b505050506040513d601f19601f820116820180604052508101906122769190614188565b5b6122b6576040517f08c379a00000000000000000000000000000000000000000000000000000000081526004016122ad906144d2565b60405180910390fd5b600085116122f9576040517f08c379a00000000000000000000000000000000000000000000000000000000081526004016122f09061453e565b60405180910390fd5b61230d603c42612d0b90919063ffffffff16565b841161234e576040517f08c379a0000000000000000000000000000000000000000000000000000000008152600401612345906145d0565b60405180910390fd5b60004282888a89604051602001612369959493929190614670565b6040516020818303038152906040528051906020012090506040518060c001604052808281526020018373ffffffffffffffffffffffffffffffffffffffff1681526020018881526020018973ffffffffffffffffffffffffffffffffffffffff1681526020018781526020018681525061013060008a73ffffffffffffffffffffffffffffffffffffffff1673ffffffffffffffffffffffffffffffffffffffff16815260200190815260200160002060008981526020019081526020016000206000820151816000015560208201518160010160006101000a81548173ffffffffffffffffffffffffffffffffffffffff021916908373ffffffffffffffffffffffffffffffffffffffff1602179055506040820151816002015560608201518160030160006101000a81548173ffffffffffffffffffffffffffffffffffffffff021916908373ffffffffffffffffffffffffffffffffffffffff1602179055506080820151816004015560a0820151816005015590505060006101325411156125f95761012d60009054906101000a900473ffffffffffffffffffffffffffffffffffffffff1673ffffffffffffffffffffffffffffffffffffffff166323b872dd8561012f60009054906101000a900473ffffffffffffffffffffffffffffffffffffffff16610132546040518463ffffffff1660e01b815260040161257693929190614125565b6020604051808303816000875af1158015612595573d6000803e3d6000fd5b505050506040513d601f19601f820116820180604052508101906125b99190614188565b6125f8576040517f08c379a00000000000000000000000000000000000000000000000000000000081526004016125ef90614741565b60405180910390fd5b5b8173ffffffffffffffffffffffffffffffffffffffff16877f84c66c3f7ba4b390e20e8e8233e2a516f3ce34a72749e4f12bd010dfba238039838b8a8a6040516126469493929190614761565b60405180910390a35050505050505050565b600060019054906101000a900460ff168061267e575060008054906101000a900460ff16155b6126bd576040517f08c379a00000000000000000000000000000000000000000000000000000000081526004016126b490613bb3565b60405180910390fd5b60008060019054906101000a900460ff16159050801561270d576001600060016101000a81548160ff02191690831515021790555060016000806101000a81548160ff0219169083151502179055505b612715612d21565b61271d612dfa565b801561273e5760008060016101000a81548160ff0219169083151502179055505b50565b600060019054906101000a900460ff1680612767575060008054906101000a900460ff16155b6127a6576040517f08c379a000000000000000000000000000000000000000000000000000000000815260040161279d90613bb3565b60405180910390fd5b60008060019054906101000a900460ff1615905080156127f6576001600060016101000a81548160ff02191690831515021790555060016000806101000a81548160ff0219169083151502179055505b6127fe612ed3565b612806612fac565b61280e613085565b801561282f5760008060016101000a81548160ff0219169083151502179055505b50565b61283c8282610f21565b5050565b60606000600283600261285391906147d5565b61285d919061482f565b67ffffffffffffffff81111561287657612875613621565b5b6040519080825280601f01601f1916602001820160405280156128a85781602001600182028036833780820191505090505b5090507f3000000000000000000000000000000000000000000000000000000000000000816000815181106128e0576128df614885565b5b60200101907effffffffffffffffffffffffffffffffffffffffffffffffffffffffffffff1916908160001a9053507f78000000000000000000000000000000000000000000000000000000000000008160018151811061294457612943614885565b5b60200101907effffffffffffffffffffffffffffffffffffffffffffffffffffffffffffff1916908160001a9053506000600184600261298491906147d5565b61298e919061482f565b90505b6001811115612a2e577f3031323334353637383961626364656600000000000000000000000000000000600f8616601081106129d0576129cf614885565b5b1a60f81b8282815181106129e7576129e6614885565b5b60200101907effffffffffffffffffffffffffffffffffffffffffffffffffffffffffffff1916908160001a905350600485901c945080612a27906148b4565b9050612991565b5060008414612a72576040517f08c379a0000000000000000000000000000000000000000000000000000000008152600401612a699061492a565b60405180910390fd5b8091505092915050565b6000612aaa7f360894a13ba1a3210667c828492db98dca3e2076cc3735a920a3ca505d382bbc60001b61315e565b60000160009054906101000a900473ffffffffffffffffffffffffffffffffffffffff16905090565b612adc81613168565b612b1b576040517f08c379a0000000000000000000000000000000000000000000000000000000008152600401612b12906149bc565b60405180910390fd5b80612b487f360894a13ba1a3210667c828492db98dca3e2076cc3735a920a3ca505d382bbc60001b61315e565b60000160006101000a81548173ffffffffffffffffffffffffffffffffffffffff021916908373ffffffffffffffffffffffffffffffffffffffff16021790555050565b6060612b9783613168565b612bd6576040517f08c379a0000000000000000000000000000000000000000000000000000000008152600401612bcd90614a4e565b60405180910390fd5b6000808473ffffffffffffffffffffffffffffffffffffffff1684604051612bfe9190614ab5565b600060405180830381855af49150503d8060008114612c39576040519150601f19603f3d011682016040523d82523d6000602084013e612c3e565b606091505b5091509150612c668282604051806060016040528060278152602001614b616027913961317b565b9250505092915050565b6000819050919050565b612c8381612ad3565b8073ffffffffffffffffffffffffffffffffffffffff167fbc7cd75a20ee27fd9adebab32041f755214dbc6bffa90cc0225b39da2e5c2d3b60405160405180910390a250565b60008183612cd791906147d5565b905092915050565b60008183612ced9190614afb565b905092915050565b60008183612d039190614b2c565b905092915050565b60008183612d19919061482f565b905092915050565b600060019054906101000a900460ff1680612d47575060008054906101000a900460ff16155b612d86576040517f08c379a0000000000000000000000000000000000000000000000000000000008152600401612d7d90613bb3565b60405180910390fd5b60008060019054906101000a900460ff161590508015612dd6576001600060016101000a81548160ff02191690831515021790555060016000806101000a81548160ff0219169083151502179055505b8015612df75760008060016101000a81548160ff0219169083151502179055505b50565b600060019054906101000a900460ff1680612e20575060008054906101000a900460ff16155b612e5f576040517f08c379a0000000000000000000000000000000000000000000000000000000008152600401612e5690613bb3565b60405180910390fd5b60008060019054906101000a900460ff161590508015612eaf576001600060016101000a81548160ff02191690831515021790555060016000806101000a81548160ff0219169083151502179055505b8015612ed05760008060016101000a81548160ff0219169083151502179055505b50565b600060019054906101000a900460ff1680612ef9575060008054906101000a900460ff16155b612f38576040517f08c379a0000000000000000000000000000000000000000000000000000000008152600401612f2f90613bb3565b60405180910390fd5b60008060019054906101000a900460ff161590508015612f88576001600060016101000a81548160ff02191690831515021790555060016000806101000a81548160ff0219169083151502179055505b8015612fa95760008060016101000a81548160ff0219169083151502179055505b50565b600060019054906101000a900460ff1680612fd2575060008054906101000a900460ff16155b613011576040517f08c379a000000000000000000000000000000000000000000000000000000000815260040161300890613bb3565b60405180910390fd5b60008060019054906101000a900460ff161590508015613061576001600060016101000a81548160ff02191690831515021790555060016000806101000a81548160ff0219169083151502179055505b80156130825760008060016101000a81548160ff0219169083151502179055505b50565b600060019054906101000a900460ff16806130ab575060008054906101000a900460ff16155b6130ea576040517f08c379a00000000000000000000000000000000000000000000000000000000081526004016130e190613bb3565b60405180910390fd5b60008060019054906101000a900460ff16159050801561313a576001600060016101000a81548160ff02191690831515021790555060016000806101000a81548160ff0219169083151502179055505b801561315b5760008060016101000a81548160ff0219169083151502179055505b50565b6000819050919050565b600080823b905060008111915050919050565b6060831561318b578290506131db565b60008351111561319e5782518084602001fd5b816040517f08c379a00000000000000000000000000000000000000000000000000000000081526004016131d29190613d58565b60405180910390fd5b9392505050565b6040518060c0016040528060008019168152602001600073ffffffffffffffffffffffffffffffffffffffff16815260200160008152602001600073ffffffffffffffffffffffffffffffffffffffff16815260200160008152602001600081525090565b6000604051905090565b600080fd5b600080fd5b60007fffffffff0000000000000000000000000000000000000000000000000000000082169050919050565b6132908161325b565b811461329b57600080fd5b50565b6000813590506132ad81613287565b92915050565b6000602082840312156132c9576132c8613251565b5b60006132d78482850161329e565b91505092915050565b60008115159050919050565b6132f5816132e0565b82525050565b600060208201905061331060008301846132ec565b92915050565b600073ffffffffffffffffffffffffffffffffffffffff82169050919050565b600061334182613316565b9050919050565b61335181613336565b82525050565b600060208201905061336c6000830184613348565b92915050565b6000819050919050565b61338581613372565b811461339057600080fd5b50565b6000813590506133a28161337c565b92915050565b6000602082840312156133be576133bd613251565b5b60006133cc84828501613393565b91505092915050565b6000819050919050565b6133e8816133d5565b81146133f357600080fd5b50565b600081359050613405816133df565b92915050565b60006020828403121561342157613420613251565b5b600061342f848285016133f6565b91505092915050565b613441816133d5565b82525050565b600060208201905061345c6000830184613438565b92915050565b61346b81613336565b811461347657600080fd5b50565b60008135905061348881613462565b92915050565b600080604083850312156134a5576134a4613251565b5b60006134b3858286016133f6565b92505060206134c485828601613479565b9150509250929050565b6000602082840312156134e4576134e3613251565b5b60006134f284828501613479565b91505092915050565b600061350682613336565b9050919050565b613516816134fb565b811461352157600080fd5b50565b6000813590506135338161350d565b92915050565b60008060006060848603121561355257613551613251565b5b600061356086828701613524565b935050602061357186828701613393565b925050604061358286828701613393565b9150509250925092565b6000819050919050565b60006135b16135ac6135a784613316565b61358c565b613316565b9050919050565b60006135c382613596565b9050919050565b60006135d5826135b8565b9050919050565b6135e5816135ca565b82525050565b600060208201905061360060008301846135dc565b92915050565b600080fd5b600080fd5b6000601f19601f8301169050919050565b7f4e487b7100000000000000000000000000000000000000000000000000000000600052604160045260246000fd5b61365982613610565b810181811067ffffffffffffffff8211171561367857613677613621565b5b80604052505050565b600061368b613247565b90506136978282613650565b919050565b600067ffffffffffffffff8211156136b7576136b6613621565b5b6136c082613610565b9050602081019050919050565b82818337600083830152505050565b60006136ef6136ea8461369c565b613681565b90508281526020810184848401111561370b5761370a61360b565b5b6137168482856136cd565b509392505050565b600082601f83011261373357613732613606565b5b81356137438482602086016136dc565b91505092915050565b6000806040838503121561376357613762613251565b5b600061377185828601613479565b925050602083013567ffffffffffffffff81111561379257613791613256565b5b61379e8582860161371e565b9150509250929050565b600080604083850312156137bf576137be613251565b5b60006137cd85828601613524565b92505060206137de85828601613393565b9150509250929050565b6000806000806080858703121561380257613801613251565b5b600061381087828801613524565b945050602061382187828801613393565b935050604061383287828801613393565b925050606061384387828801613393565b91505092959194509250565b61385881613372565b82525050565b6000602082019050613873600083018461384f565b92915050565b600061388482613336565b9050919050565b61389481613879565b811461389f57600080fd5b50565b6000813590506138b18161388b565b92915050565b600080600080608085870312156138d1576138d0613251565b5b60006138df878288016138a2565b94505060206138f087828801613479565b935050604061390187828801613479565b925050606061391287828801613393565b91505092959194509250565b6000613929826135b8565b9050919050565b6139398161391e565b82525050565b600060c0820190506139546000830189613438565b6139616020830188613348565b61396e604083018761384f565b61397b6060830186613930565b613988608083018561384f565b61399560a083018461384f565b979650505050505050565b600082825260208201905092915050565b7f546865206f776e6572206375742073686f756c64206265206265747765656e2060008201527f3020616e64203939392c39393900000000000000000000000000000000000000602082015250565b6000613a0d602d836139a0565b9150613a18826139b1565b604082019050919050565b60006020820190508181036000830152613a3c81613a00565b9050919050565b7f416363657373436f6e74726f6c3a2063616e206f6e6c792072656e6f756e636560008201527f20726f6c657320666f722073656c660000000000000000000000000000000000602082015250565b6000613a9f602f836139a0565b9150613aaa82613a43565b604082019050919050565b60006020820190508181036000830152613ace81613a92565b9050919050565b7f5061757361626c653a2070617573656400000000000000000000000000000000600082015250565b6000613b0b6010836139a0565b9150613b1682613ad5565b602082019050919050565b60006020820190508181036000830152613b3a81613afe565b9050919050565b7f496e697469616c697a61626c653a20636f6e747261637420697320616c72656160008201527f647920696e697469616c697a6564000000000000000000000000000000000000602082015250565b6000613b9d602e836139a0565b9150613ba882613b41565b604082019050919050565b60006020820190508181036000830152613bcc81613b90565b9050919050565b600081905092915050565b7f416363657373436f6e74726f6c3a206163636f756e7420000000000000000000600082015250565b6000613c14601783613bd3565b9150613c1f82613bde565b601782019050919050565b600081519050919050565b60005b83811015613c53578082015181840152602081019050613c38565b83811115613c62576000848401525b50505050565b6000613c7382613c2a565b613c7d8185613bd3565b9350613c8d818560208601613c35565b80840191505092915050565b7f206973206d697373696e6720726f6c6520000000000000000000000000000000600082015250565b6000613ccf601183613bd3565b9150613cda82613c99565b601182019050919050565b6000613cf082613c07565b9150613cfc8285613c68565b9150613d0782613cc2565b9150613d138284613c68565b91508190509392505050565b6000613d2a82613c2a565b613d3481856139a0565b9350613d44818560208601613c35565b613d4d81613610565b840191505092915050565b60006020820190508181036000830152613d728184613d1f565b905092915050565b7f45524331393637557067726164653a207570677261646520627265616b73206660008201527f7572746865722075706772616465730000000000000000000000000000000000602082015250565b6000613dd6602f836139a0565b9150613de182613d7a565b604082019050919050565b60006020820190508181036000830152613e0581613dc9565b9050919050565b7f4173736574206e6f74207075626c697368656400000000000000000000000000600082015250565b6000613e426013836139a0565b9150613e4d82613e0c565b602082019050919050565b60006020820190508181036000830152613e7181613e35565b9050919050565b7f496e76616c696420616464726573730000000000000000000000000000000000600082015250565b6000613eae600f836139a0565b9150613eb982613e78565b602082019050919050565b60006020820190508181036000830152613edd81613ea1565b9050919050565b7f556e617574686f72697a65642075736572000000000000000000000000000000600082015250565b6000613f1a6011836139a0565b9150613f2582613ee4565b602082019050919050565b60006020820190508181036000830152613f4981613f0d565b9050919050565b7f546865207072696365206973206e6f7420636f72726563740000000000000000600082015250565b6000613f866018836139a0565b9150613f9182613f50565b602082019050919050565b60006020820190508181036000830152613fb581613f79565b9050919050565b7f546865206f726465722065787069726564000000000000000000000000000000600082015250565b6000613ff26011836139a0565b9150613ffd82613fbc565b602082019050919050565b6000602082019050818103600083015261402181613fe5565b9050919050565b60008151905061403781613462565b92915050565b60006020828403121561405357614052613251565b5b600061406184828501614028565b91505092915050565b7f5468652073656c6c6572206973206e6f206c6f6e67657220746865206f776e6560008201527f7200000000000000000000000000000000000000000000000000000000000000602082015250565b60006140c66021836139a0565b91506140d18261406a565b604082019050919050565b600060208201905081810360008301526140f5816140b9565b9050919050565b60006040820190506141116000830185613348565b61411e602083018461384f565b9392505050565b600060608201905061413a6000830186613348565b6141476020830185613348565b614154604083018461384f565b949350505050565b614165816132e0565b811461417057600080fd5b50565b6000815190506141828161415c565b92915050565b60006020828403121561419e5761419d613251565b5b60006141ac84828501614173565b91505092915050565b7f48616e646c696e6720666565207472616e7366657220746f20666f756e64617460008201527f696f6e57616c6c6574206661696c757265000000000000000000000000000000602082015250565b60006142116031836139a0565b915061421c826141b5565b604082019050919050565b6000602082019050818103600083015261424081614204565b9050919050565b7f48616e646c696e6720666565207472616e7366657220746f206f66666963696160008201527f6c57616c6c657420746f206f6666206661696c75726500000000000000000000602082015250565b60006142a36036836139a0565b91506142ae82614247565b604082019050919050565b600060208201905081810360008301526142d281614296565b9050919050565b7f5472616e73666572696e67207468652073616c6520616d6f756e7420746f207460008201527f68652073656c6c6572206661696c656400000000000000000000000000000000602082015250565b60006143356030836139a0565b9150614340826142d9565b604082019050919050565b6000602082019050818103600083015261436481614328565b9050919050565b60006060820190506143806000830186613438565b61438d6020830185613930565b61439a604083018461384f565b949350505050565b60006040820190506143b76000830185613438565b6143c46020830184613930565b9392505050565b7f4f6e6c7920746865206f776e65722063616e20637265617465206f7264657273600082015250565b60006144016020836139a0565b915061440c826143cb565b602082019050919050565b60006020820190508181036000830152614430816143f4565b9050919050565b600060408201905061444c6000830185613348565b6144596020830184613348565b9392505050565b7f54686520636f6e7472616374206973206e6f7420617574686f72697a6564207460008201527f6f206d616e616765207468652061737365740000000000000000000000000000602082015250565b60006144bc6032836139a0565b91506144c782614460565b604082019050919050565b600060208201905081810360008301526144eb816144af565b9050919050565b7f50726963652073686f756c6420626520626967676572207468616e2030000000600082015250565b6000614528601d836139a0565b9150614533826144f2565b602082019050919050565b600060208201905081810360008301526145578161451b565b9050919050565b7f5075626c69636174696f6e2073686f756c64206265206d6f7265207468616e2060008201527f31206d696e75746520696e207468652066757475726500000000000000000000602082015250565b60006145ba6036836139a0565b91506145c58261455e565b604082019050919050565b600060208201905081810360008301526145e9816145ad565b9050919050565b6000819050919050565b61460b61460682613372565b6145f0565b82525050565b60008160601b9050919050565b600061462982614611565b9050919050565b600061463b8261461e565b9050919050565b61465361464e82613336565b614630565b82525050565b61466a6146658261391e565b614630565b82525050565b600061467c82886145fa565b60208201915061468c8287614642565b60148201915061469c82866145fa565b6020820191506146ac8285614659565b6014820191506146bc82846145fa565b6020820191508190509695505050505050565b7f5472616e73666572696e6720746865207075626c69636174696f6e206665652060008201527f746f20746865204d61726b6574706c616365206f776e6572206661696c656400602082015250565b600061472b603f836139a0565b9150614736826146cf565b604082019050919050565b6000602082019050818103600083015261475a8161471e565b9050919050565b60006080820190506147766000830187613438565b6147836020830186613930565b614790604083018561384f565b61479d606083018461384f565b95945050505050565b7f4e487b7100000000000000000000000000000000000000000000000000000000600052601160045260246000fd5b60006147e082613372565b91506147eb83613372565b9250817fffffffffffffffffffffffffffffffffffffffffffffffffffffffffffffffff0483118215151615614824576148236147a6565b5b828202905092915050565b600061483a82613372565b915061484583613372565b9250827fffffffffffffffffffffffffffffffffffffffffffffffffffffffffffffffff0382111561487a576148796147a6565b5b828201905092915050565b7f4e487b7100000000000000000000000000000000000000000000000000000000600052603260045260246000fd5b60006148bf82613372565b915060008214156148d3576148d26147a6565b5b600182039050919050565b7f537472696e67733a20686578206c656e67746820696e73756666696369656e74600082015250565b60006149146020836139a0565b915061491f826148de565b602082019050919050565b6000602082019050818103600083015261494381614907565b9050919050565b7f455243313936373a206e657720696d706c656d656e746174696f6e206973206e60008201527f6f74206120636f6e747261637400000000000000000000000000000000000000602082015250565b60006149a6602d836139a0565b91506149b18261494a565b604082019050919050565b600060208201905081810360008301526149d581614999565b9050919050565b7f416464726573733a2064656c65676174652063616c6c20746f206e6f6e2d636f60008201527f6e74726163740000000000000000000000000000000000000000000000000000602082015250565b6000614a386026836139a0565b9150614a43826149dc565b604082019050919050565b60006020820190508181036000830152614a6781614a2b565b9050919050565b600081519050919050565b600081905092915050565b6000614a8f82614a6e565b614a998185614a79565b9350614aa9818560208601613c35565b80840191505092915050565b6000614ac18284614a84565b915081905092915050565b7f4e487b7100000000000000000000000000000000000000000000000000000000600052601260045260246000fd5b6000614b0682613372565b9150614b1183613372565b925082614b2157614b20614acc565b5b828204905092915050565b6000614b3782613372565b9150614b4283613372565b925082821015614b5557614b546147a6565b5b82820390509291505056fe416464726573733a206c6f772d6c6576656c2064656c65676174652063616c6c206661696c6564a264697066735822122025d0f726fb2fd0edae8ddb8a21afe4fcb9b95720c57aeba719904fb54b168a7064736f6c634300080a0033",
  "immutableReferences": {},
  "source": "// SPDX-License-Identifier: MIT\npragma solidity ^0.8.9;\n\n/// .\n\nimport \"@openzeppelin/contracts/token/ERC721/IERC721.sol\";\nimport \"@openzeppelin/contracts-upgradeable/access/AccessControlUpgradeable.sol\";\nimport \"@openzeppelin/contracts-upgradeable/proxy/utils/Initializable.sol\";\nimport \"@openzeppelin/contracts-upgradeable/proxy/utils/UUPSUpgradeable.sol\";\nimport \"@openzeppelin/contracts-upgradeable/security/PausableUpgradeable.sol\";\nimport \"@openzeppelin/contracts-upgradeable/utils/CountersUpgradeable.sol\";\nimport \"@openzeppelin/contracts-upgradeable/utils/math/SafeMathUpgradeable.sol\";\nimport \"@openzeppelin/contracts-upgradeable/utils/AddressUpgradeable.sol\";\nimport \"./MarketplaceStorage.sol\";\nimport \"./IMELD.sol\";\n\ncontract Marketplace is\n    Initializable,\n    AccessControlUpgradeable,\n    PausableUpgradeable,\n    UUPSUpgradeable,\n    MarketplaceStorage\n{\n    using AddressUpgradeable for address;\n    using SafeMathUpgradeable for uint256;\n\n    function initialize(\n        // MELD \n        IERC20MELD _acceptedToken,\n        address _officialWallet,\n        address _foundationWallet,\n        // \n        uint256 _ownerCutPerMillion\n    ) public initializer {\n        __UUPSUpgradeable_init();\n        __AccessControl_init();\n        _setupRole(DEFAULT_ADMIN_ROLE, msg.sender);\n        _setupRole(UPGRADER_ROLE, msg.sender);\n        _setupRole(GM_ROLE, msg.sender);\n\n        // Fee init\n        setOwnerCutPerMillion(_ownerCutPerMillion);\n        setPublicationFee(0);\n        acceptedToken = _acceptedToken;\n        officialWallet = _officialWallet;\n        foundationWallet = _foundationWallet;\n    }\n\n    function _authorizeUpgrade(address newImplementation)\n        internal\n        override\n        onlyRole(UPGRADER_ROLE)\n    {}\n\n    // \n    function setPublicationFee(uint256 _publicationFee) public onlyRole(GM_ROLE) {\n        publicationFeeInWei = _publicationFee;\n        emit ChangedPublicationFee(publicationFeeInWei);\n    }\n\n    // \n    // 50000 = 5%\n    // 500000 = 50%\n    function setOwnerCutPerMillion(uint256 _ownerCutPerMillion)\n        public\n        onlyRole(GM_ROLE)\n    {\n        require(\n            _ownerCutPerMillion < 1000000,\n            \"The owner cut should be between 0 and 999,999\"\n        );\n\n        ownerCutPerMillion = _ownerCutPerMillion;\n        emit ChangedOwnerCutPerMillion(ownerCutPerMillion);\n    }\n\n    // \n    function createOrder(\n        IERC721 nftAddress,\n        uint256 assetId,\n        uint256 priceInWei,\n        uint256 expiresAt\n    ) public whenNotPaused {\n        _createOrder(nftAddress, assetId, priceInWei, expiresAt);\n    }\n\n    // \n    function cancelOrder(IERC721 nftAddress, uint256 assetId)\n        public\n        whenNotPaused\n    {\n        _cancelOrder(nftAddress, assetId);\n    }\n\n    // \n    function safeExecuteOrder(\n        IERC721 nftAddress,\n        uint256 assetId,\n        uint256 price\n    ) public whenNotPaused {\n        _executeOrder(nftAddress, assetId, price);\n    }\n\n    // \n    function executeOrder(\n        IERC721 nftAddress,\n        uint256 assetId,\n        uint256 price\n    ) public whenNotPaused {\n        _executeOrder(nftAddress, assetId, price);\n    }\n\n    // \n    function _createOrder(\n        IERC721 nftAddress,\n        uint256 assetId,\n        uint256 priceInWei,\n        uint256 expiresAt\n    ) internal {\n        address sender = _msgSender();\n\n        IERC721 nftRegistry = nftAddress;\n        address assetOwner = nftRegistry.ownerOf(assetId);\n\n        require(sender == assetOwner, \"Only the owner can create orders\");\n        require(\n            nftRegistry.getApproved(assetId) == address(this) ||\n                nftRegistry.isApprovedForAll(assetOwner, address(this)),\n            \"The contract is not authorized to manage the asset\"\n        );\n        require(priceInWei > 0, \"Price should be bigger than 0\");\n        require(\n            expiresAt > block.timestamp.add(1 minutes),\n            \"Publication should be more than 1 minute in the future\"\n        );\n\n        bytes32 orderId = keccak256(\n            abi.encodePacked(\n                block.timestamp,\n                assetOwner,\n                assetId,\n                nftAddress,\n                priceInWei\n            )\n        );\n\n        orderByAssetId[nftAddress][assetId] = Order({\n            id: orderId,\n            seller: assetOwner,\n            assetId: assetId,\n            nftAddress: nftAddress,\n            price: priceInWei,\n            expiresAt: expiresAt\n        });\n\n        // Check if there's a publication fee and\n        // transfer the amount to marketplace owner\n        if (publicationFeeInWei > 0) {\n            require(\n                acceptedToken.transferFrom(\n                    sender,\n                    officialWallet,\n                    publicationFeeInWei\n                ),\n                \"Transfering the publication fee to the Marketplace owner failed\"\n            );\n        }\n\n        emit OrderCreated(\n            orderId,\n            assetId,\n            assetOwner,\n            nftAddress,\n            priceInWei,\n            expiresAt\n        );\n    }\n\n    // \n    function _cancelOrder(IERC721 nftAddress, uint256 assetId)\n        internal\n        returns (Order memory)\n    {\n        address sender = _msgSender();\n        Order memory order = orderByAssetId[nftAddress][assetId];\n\n        require(order.id != 0, \"Asset not published\");\n\n        // \n        // GM\n        require(\n            order.seller == sender || hasRole(GM_ROLE, sender),\n            \"Unauthorized user\"\n        );\n\n        bytes32 orderId = order.id;\n        address orderSeller = order.seller;\n        IERC721 orderNftAddress = order.nftAddress;\n        delete orderByAssetId[nftAddress][assetId];\n\n        emit OrderCancelled(orderId, assetId, orderSeller, orderNftAddress);\n\n        return order;\n    }\n\n    // \n    function _executeOrder(\n        IERC721 nftAddress,\n        uint256 assetId,\n        uint256 price\n    ) internal returns (Order memory) {\n        address sender = _msgSender();\n\n        IERC721 nftRegistry = nftAddress;\n\n        Order memory order = orderByAssetId[nftAddress][assetId];\n\n        require(order.id != 0, \"Asset not published\");\n\n        address seller = order.seller;\n\n        require(seller != address(0), \"Invalid address\");\n        require(seller != sender, \"Unauthorized user\");\n        require(order.price == price, \"The price is not correct\");\n        require(block.timestamp < order.expiresAt, \"The order expired\");\n        require(\n            seller == nftRegistry.ownerOf(assetId),\n            \"The seller is no longer the owner\"\n        );\n\n        uint256 saleShareAmount = 0;\n\n        bytes32 orderId = order.id;\n        delete orderByAssetId[nftAddress][assetId];\n\n        if (ownerCutPerMillion > 0) {\n            // Calculate sale share\n            saleShareAmount = price.mul(ownerCutPerMillion).div(1000000);\n\n            // 40% burn in handling fee \n            uint256 burnAmount = saleShareAmount.mul(40).div(100);\n\n            // The other 40% is held by the Foundation\n            uint256 foundationAmount = saleShareAmount.mul(40).div(100);\n\n            // The last 20% are official earnings\n            uint256 officialAmount = saleShareAmount.mul(20).div(100);\n\n            acceptedToken.burnFrom(sender, burnAmount);\n            require(\n                acceptedToken.transferFrom(sender, foundationWallet, foundationAmount),\n                \"Handling fee transfer to foundationWallet failure\"\n            );\n            require(\n                acceptedToken.transferFrom(sender, officialWallet, officialAmount),\n                \"Handling fee transfer to officialWallet to off failure\"\n            );\n        }\n\n        // Transfer sale amount to seller\n        require(\n            acceptedToken.transferFrom(\n                sender,\n                seller,\n                price.sub(saleShareAmount)\n            ),\n            \"Transfering the sale amount to the seller failed\"\n        );\n\n        // Transfer asset owner\n        nftRegistry.safeTransferFrom(seller, sender, assetId);\n\n        emit OrderSuccessful(\n            orderId,\n            assetId,\n            seller,\n            nftAddress,\n            price,\n            sender\n        );\n\n        return order;\n    }\n}\n",
  "sourcePath": "/Users/alberthuang/code/icw/meland/contracts/Marketplace.sol",
  "compiler": {
    "name": "solc",
    "version": "0.8.10+commit.fc410830.Emscripten.clang"
  },
  "schemaVersion": "3.4.3",
  "updatedAt": "2021-11-15T06:02:32.294Z",
  "devdoc": {
    "kind": "dev",
    "methods": {
      "getRoleAdmin(bytes32)": {
        "details": "Returns the admin role that controls `role`. See {grantRole} and {revokeRole}. To change a role's admin, use {_setRoleAdmin}."
      },
      "grantRole(bytes32,address)": {
        "details": "Grants `role` to `account`. If `account` had not been already granted `role`, emits a {RoleGranted} event. Requirements: - the caller must have ``role``'s admin role."
      },
      "hasRole(bytes32,address)": {
        "details": "Returns `true` if `account` has been granted `role`."
      },
      "paused()": {
        "details": "Returns true if the contract is paused, and false otherwise."
      },
      "renounceRole(bytes32,address)": {
        "details": "Revokes `role` from the calling account. Roles are often managed via {grantRole} and {revokeRole}: this function's purpose is to provide a mechanism for accounts to lose their privileges if they are compromised (such as when a trusted device is misplaced). If the calling account had been granted `role`, emits a {RoleRevoked} event. Requirements: - the caller must be `account`."
      },
      "revokeRole(bytes32,address)": {
        "details": "Revokes `role` from `account`. If `account` had been granted `role`, emits a {RoleRevoked} event. Requirements: - the caller must have ``role``'s admin role."
      },
      "supportsInterface(bytes4)": {
        "details": "See {IERC165-supportsInterface}."
      },
      "upgradeTo(address)": {
        "details": "Upgrade the implementation of the proxy to `newImplementation`. Calls {_authorizeUpgrade}. Emits an {Upgraded} event."
      },
      "upgradeToAndCall(address,bytes)": {
        "details": "Upgrade the implementation of the proxy to `newImplementation`, and subsequently execute the function call encoded in `data`. Calls {_authorizeUpgrade}. Emits an {Upgraded} event."
      }
    },
    "version": 1
  },
  "userdoc": {
    "kind": "user",
    "methods": {},
    "version": 1
  }
}