{
  "contractName": "Meland1155MELDFuture",
  "abi": [
    {
      "anonymous": false,
      "inputs": [
        {
          "indexed": false,
          "internalType": "address",
          "name": "previousAdmin",
          "type": "address"
        },
        {
          "indexed": false,
          "internalType": "address",
          "name": "newAdmin",
          "type": "address"
        }
      ],
      "name": "AdminChanged",
      "type": "event"
    },
    {
      "anonymous": false,
      "inputs": [
        {
          "indexed": true,
          "internalType": "address",
          "name": "account",
          "type": "address"
        },
        {
          "indexed": true,
          "internalType": "address",
          "name": "operator",
          "type": "address"
        },
        {
          "indexed": false,
          "internalType": "bool",
          "name": "approved",
          "type": "bool"
        }
      ],
      "name": "ApprovalForAll",
      "type": "event"
    },
    {
      "anonymous": false,
      "inputs": [
        {
          "indexed": true,
          "internalType": "address",
          "name": "beacon",
          "type": "address"
        }
      ],
      "name": "BeaconUpgraded",
      "type": "event"
    },
    {
      "anonymous": false,
      "inputs": [
        {
          "indexed": true,
          "internalType": "uint256",
          "name": "id",
          "type": "uint256"
        },
        {
          "indexed": true,
          "internalType": "address",
          "name": "beneficiary",
          "type": "address"
        },
        {
          "indexed": false,
          "internalType": "uint256",
          "name": "amount",
          "type": "uint256"
        }
      ],
      "name": "Claim",
      "type": "event"
    },
    {
      "anonymous": false,
      "inputs": [
        {
          "indexed": true,
          "internalType": "bytes32",
          "name": "role",
          "type": "bytes32"
        },
        {
          "indexed": true,
          "internalType": "bytes32",
          "name": "previousAdminRole",
          "type": "bytes32"
        },
        {
          "indexed": true,
          "internalType": "bytes32",
          "name": "newAdminRole",
          "type": "bytes32"
        }
      ],
      "name": "RoleAdminChanged",
      "type": "event"
    },
    {
      "anonymous": false,
      "inputs": [
        {
          "indexed": true,
          "internalType": "bytes32",
          "name": "role",
          "type": "bytes32"
        },
        {
          "indexed": true,
          "internalType": "address",
          "name": "account",
          "type": "address"
        },
        {
          "indexed": true,
          "internalType": "address",
          "name": "sender",
          "type": "address"
        }
      ],
      "name": "RoleGranted",
      "type": "event"
    },
    {
      "anonymous": false,
      "inputs": [
        {
          "indexed": true,
          "internalType": "bytes32",
          "name": "role",
          "type": "bytes32"
        },
        {
          "indexed": true,
          "internalType": "address",
          "name": "account",
          "type": "address"
        },
        {
          "indexed": true,
          "internalType": "address",
          "name": "sender",
          "type": "address"
        }
      ],
      "name": "RoleRevoked",
      "type": "event"
    },
    {
      "anonymous": false,
      "inputs": [
        {
          "indexed": true,
          "internalType": "address",
          "name": "operator",
          "type": "address"
        },
        {
          "indexed": true,
          "internalType": "address",
          "name": "from",
          "type": "address"
        },
        {
          "indexed": true,
          "internalType": "address",
          "name": "to",
          "type": "address"
        },
        {
          "indexed": false,
          "internalType": "uint256[]",
          "name": "ids",
          "type": "uint256[]"
        },
        {
          "indexed": false,
          "internalType": "uint256[]",
          "name": "values",
          "type": "uint256[]"
        }
      ],
      "name": "TransferBatch",
      "type": "event"
    },
    {
      "anonymous": false,
      "inputs": [
        {
          "indexed": true,
          "internalType": "address",
          "name": "operator",
          "type": "address"
        },
        {
          "indexed": true,
          "internalType": "address",
          "name": "from",
          "type": "address"
        },
        {
          "indexed": true,
          "internalType": "address",
          "name": "to",
          "type": "address"
        },
        {
          "indexed": false,
          "internalType": "uint256",
          "name": "id",
          "type": "uint256"
        },
        {
          "indexed": false,
          "internalType": "uint256",
          "name": "value",
          "type": "uint256"
        }
      ],
      "name": "TransferSingle",
      "type": "event"
    },
    {
      "anonymous": false,
      "inputs": [
        {
          "indexed": false,
          "internalType": "string",
          "name": "value",
          "type": "string"
        },
        {
          "indexed": true,
          "internalType": "uint256",
          "name": "id",
          "type": "uint256"
        }
      ],
      "name": "URI",
      "type": "event"
    },
    {
      "anonymous": false,
      "inputs": [
        {
          "indexed": true,
          "internalType": "address",
          "name": "implementation",
          "type": "address"
        }
      ],
      "name": "Upgraded",
      "type": "event"
    },
    {
      "inputs": [],
      "name": "DEFAULT_ADMIN_ROLE",
      "outputs": [
        {
          "internalType": "bytes32",
          "name": "",
          "type": "bytes32"
        }
      ],
      "stateMutability": "view",
      "type": "function"
    },
    {
      "inputs": [],
      "name": "GM_ROLE",
      "outputs": [
        {
          "internalType": "bytes32",
          "name": "",
          "type": "bytes32"
        }
      ],
      "stateMutability": "view",
      "type": "function"
    },
    {
      "inputs": [],
      "name": "MINTER_ROLE",
      "outputs": [
        {
          "internalType": "bytes32",
          "name": "",
          "type": "bytes32"
        }
      ],
      "stateMutability": "view",
      "type": "function"
    },
    {
      "inputs": [],
      "name": "UPGRADER_ROLE",
      "outputs": [
        {
          "internalType": "bytes32",
          "name": "",
          "type": "bytes32"
        }
      ],
      "stateMutability": "view",
      "type": "function"
    },
    {
      "inputs": [
        {
          "internalType": "address",
          "name": "account",
          "type": "address"
        },
        {
          "internalType": "uint256",
          "name": "id",
          "type": "uint256"
        }
      ],
      "name": "balanceOf",
      "outputs": [
        {
          "internalType": "uint256",
          "name": "",
          "type": "uint256"
        }
      ],
      "stateMutability": "view",
      "type": "function"
    },
    {
      "inputs": [
        {
          "internalType": "address[]",
          "name": "accounts",
          "type": "address[]"
        },
        {
          "internalType": "uint256[]",
          "name": "ids",
          "type": "uint256[]"
        }
      ],
      "name": "balanceOfBatch",
      "outputs": [
        {
          "internalType": "uint256[]",
          "name": "",
          "type": "uint256[]"
        }
      ],
      "stateMutability": "view",
      "type": "function"
    },
    {
      "inputs": [
        {
          "internalType": "address",
          "name": "account",
          "type": "address"
        },
        {
          "internalType": "uint256",
          "name": "id",
          "type": "uint256"
        },
        {
          "internalType": "uint256",
          "name": "value",
          "type": "uint256"
        }
      ],
      "name": "burn",
      "outputs": [],
      "stateMutability": "nonpayable",
      "type": "function"
    },
    {
      "inputs": [
        {
          "internalType": "address",
          "name": "account",
          "type": "address"
        },
        {
          "internalType": "uint256[]",
          "name": "ids",
          "type": "uint256[]"
        },
        {
          "internalType": "uint256[]",
          "name": "values",
          "type": "uint256[]"
        }
      ],
      "name": "burnBatch",
      "outputs": [],
      "stateMutability": "nonpayable",
      "type": "function"
    },
    {
      "inputs": [
        {
          "internalType": "uint256",
          "name": "",
          "type": "uint256"
        }
      ],
      "name": "futureById",
      "outputs": [
        {
          "internalType": "contract IERC20Upgradeable",
          "name": "token",
          "type": "address"
        },
        {
          "internalType": "uint256",
          "name": "unlockAt",
          "type": "uint256"
        },
        {
          "internalType": "uint256",
          "name": "amount",
          "type": "uint256"
        }
      ],
      "stateMutability": "view",
      "type": "function"
    },
    {
      "inputs": [
        {
          "internalType": "bytes32",
          "name": "role",
          "type": "bytes32"
        }
      ],
      "name": "getRoleAdmin",
      "outputs": [
        {
          "internalType": "bytes32",
          "name": "",
          "type": "bytes32"
        }
      ],
      "stateMutability": "view",
      "type": "function"
    },
    {
      "inputs": [
        {
          "internalType": "bytes32",
          "name": "role",
          "type": "bytes32"
        },
        {
          "internalType": "address",
          "name": "account",
          "type": "address"
        }
      ],
      "name": "grantRole",
      "outputs": [],
      "stateMutability": "nonpayable",
      "type": "function"
    },
    {
      "inputs": [
        {
          "internalType": "bytes32",
          "name": "role",
          "type": "bytes32"
        },
        {
          "internalType": "address",
          "name": "account",
          "type": "address"
        }
      ],
      "name": "hasRole",
      "outputs": [
        {
          "internalType": "bool",
          "name": "",
          "type": "bool"
        }
      ],
      "stateMutability": "view",
      "type": "function"
    },
    {
      "inputs": [
        {
          "internalType": "bytes32",
          "name": "role",
          "type": "bytes32"
        },
        {
          "internalType": "address",
          "name": "account",
          "type": "address"
        }
      ],
      "name": "renounceRole",
      "outputs": [],
      "stateMutability": "nonpayable",
      "type": "function"
    },
    {
      "inputs": [
        {
          "internalType": "bytes32",
          "name": "role",
          "type": "bytes32"
        },
        {
          "internalType": "address",
          "name": "account",
          "type": "address"
        }
      ],
      "name": "revokeRole",
      "outputs": [],
      "stateMutability": "nonpayable",
      "type": "function"
    },
    {
      "inputs": [
        {
          "internalType": "address",
          "name": "from",
          "type": "address"
        },
        {
          "internalType": "address",
          "name": "to",
          "type": "address"
        },
        {
          "internalType": "uint256[]",
          "name": "ids",
          "type": "uint256[]"
        },
        {
          "internalType": "uint256[]",
          "name": "amounts",
          "type": "uint256[]"
        },
        {
          "internalType": "bytes",
          "name": "data",
          "type": "bytes"
        }
      ],
      "name": "safeBatchTransferFrom",
      "outputs": [],
      "stateMutability": "nonpayable",
      "type": "function"
    },
    {
      "inputs": [
        {
          "internalType": "address",
          "name": "from",
          "type": "address"
        },
        {
          "internalType": "address",
          "name": "to",
          "type": "address"
        },
        {
          "internalType": "uint256",
          "name": "id",
          "type": "uint256"
        },
        {
          "internalType": "uint256",
          "name": "amount",
          "type": "uint256"
        },
        {
          "internalType": "bytes",
          "name": "data",
          "type": "bytes"
        }
      ],
      "name": "safeTransferFrom",
      "outputs": [],
      "stateMutability": "nonpayable",
      "type": "function"
    },
    {
      "inputs": [
        {
          "internalType": "address",
          "name": "operator",
          "type": "address"
        },
        {
          "internalType": "bool",
          "name": "approved",
          "type": "bool"
        }
      ],
      "name": "setApprovalForAll",
      "outputs": [],
      "stateMutability": "nonpayable",
      "type": "function"
    },
    {
      "inputs": [
        {
          "internalType": "contract IERC20Upgradeable",
          "name": "",
          "type": "address"
        }
      ],
      "name": "totalSupplyByERC20",
      "outputs": [
        {
          "internalType": "uint256",
          "name": "",
          "type": "uint256"
        }
      ],
      "stateMutability": "view",
      "type": "function"
    },
    {
      "inputs": [
        {
          "internalType": "address",
          "name": "newImplementation",
          "type": "address"
        }
      ],
      "name": "upgradeTo",
      "outputs": [],
      "stateMutability": "nonpayable",
      "type": "function"
    },
    {
      "inputs": [
        {
          "internalType": "address",
          "name": "newImplementation",
          "type": "address"
        },
        {
          "internalType": "bytes",
          "name": "data",
          "type": "bytes"
        }
      ],
      "name": "upgradeToAndCall",
      "outputs": [],
      "stateMutability": "payable",
      "type": "function"
    },
    {
      "inputs": [
        {
          "internalType": "uint256",
          "name": "",
          "type": "uint256"
        }
      ],
      "name": "uri",
      "outputs": [
        {
          "internalType": "string",
          "name": "",
          "type": "string"
        }
      ],
      "stateMutability": "view",
      "type": "function"
    },
    {
      "inputs": [
        {
          "internalType": "string",
          "name": "uri",
          "type": "string"
        }
      ],
      "name": "initialize",
      "outputs": [],
      "stateMutability": "nonpayable",
      "type": "function"
    },
    {
      "inputs": [
        {
          "internalType": "address",
          "name": "_owner",
          "type": "address"
        },
        {
          "internalType": "address",
          "name": "_operator",
          "type": "address"
        }
      ],
      "name": "isApprovedForAll",
      "outputs": [
        {
          "internalType": "bool",
          "name": "isOperator",
          "type": "bool"
        }
      ],
      "stateMutability": "view",
      "type": "function"
    },
    {
      "inputs": [
        {
          "internalType": "string",
          "name": "newuri",
          "type": "string"
        }
      ],
      "name": "setURI",
      "outputs": [],
      "stateMutability": "nonpayable",
      "type": "function"
    },
    {
      "inputs": [
        {
          "internalType": "contract IERC20Upgradeable",
          "name": "token",
          "type": "address"
        },
        {
          "internalType": "address",
          "name": "to",
          "type": "address"
        },
        {
          "internalType": "uint256",
          "name": "amount",
          "type": "uint256"
        },
        {
          "internalType": "uint8",
          "name": "count",
          "type": "uint8"
        },
        {
          "internalType": "uint256",
          "name": "lockseconds",
          "type": "uint256"
        }
      ],
      "name": "mintBatch",
      "outputs": [],
      "stateMutability": "nonpayable",
      "type": "function"
    },
    {
      "inputs": [
        {
          "internalType": "contract MelandTier",
          "name": "_tierAddress",
          "type": "address"
        }
      ],
      "name": "setMelandTier",
      "outputs": [],
      "stateMutability": "nonpayable",
      "type": "function"
    },
    {
      "inputs": [
        {
          "internalType": "uint256",
          "name": "id",
          "type": "uint256"
        }
      ],
      "name": "claim",
      "outputs": [],
      "stateMutability": "nonpayable",
      "type": "function"
    },
    {
      "inputs": [
        {
          "internalType": "bytes4",
          "name": "interfaceId",
          "type": "bytes4"
        }
      ],
      "name": "supportsInterface",
      "outputs": [
        {
          "internalType": "bool",
          "name": "",
          "type": "bool"
        }
      ],
      "stateMutability": "view",
      "type": "function"
    }
  ],
  "bytecode": "0x60a06040523060805234801561001457600080fd5b506080516136d06100456000396000818161089e015281816108de01528181610c6a0152610caa01526136d06000f3fe6080604052600436106101b65760003560e01c80636b20c454116100ec578063d547741f1161008a578063f5298aca11610064578063f5298aca14610562578063f62d188814610582578063f70e9a47146105a2578063f72c0d8b146105c257600080fd5b8063d547741f14610502578063e985e9c514610522578063f242432a1461054257600080fd5b8063a085f193116100c6578063a085f19314610479578063a217fddf14610499578063a22cb465146104ae578063d5391393146104ce57600080fd5b80636b20c4541461040b57806390b7d8b11461042b57806391d148541461045957600080fd5b80632f2ff15d116101595780633659cfe6116101335780633659cfe61461038b578063379607f5146103ab5780634e1273f4146103cb5780634f1ef286146103f857600080fd5b80632f2ff15d1461032957806330c7be2c1461034957806336568abe1461036b57600080fd5b80630d62f77f116101955780630d62f77f146102405780630e89341c146102ac578063248a9ca3146102d95780632eb2c2d61461030957600080fd5b8062fdd58e146101bb57806301ffc9a7146101ee57806302fe53051461021e575b600080fd5b3480156101c757600080fd5b506101db6101d6366004612969565b6105f6565b6040519081526020015b60405180910390f35b3480156101fa57600080fd5b5061020e6102093660046129ab565b610692565b60405190151581526020016101e5565b34801561022a57600080fd5b5061023e610239366004612a67565b61069d565b005b34801561024c57600080fd5b5061028761025b366004612ab7565b610162602052600090815260409020805460018201546002909201546001600160a01b03909116919083565b604080516001600160a01b0390941684526020840192909252908201526060016101e5565b3480156102b857600080fd5b506102cc6102c7366004612ab7565b6106c3565b6040516101e59190612b2c565b3480156102e557600080fd5b506101db6102f4366004612ab7565b60009081526065602052604090206001015490565b34801561031557600080fd5b5061023e610324366004612bf3565b610757565b34801561033557600080fd5b5061023e610344366004612ca0565b6107ee565b34801561035557600080fd5b506101db60008051602061367b83398151915281565b34801561037757600080fd5b5061023e610386366004612ca0565b610819565b34801561039757600080fd5b5061023e6103a6366004612cd0565b610893565b3480156103b757600080fd5b5061023e6103c6366004612ab7565b61095c565b3480156103d757600080fd5b506103eb6103e6366004612ced565b610b36565b6040516101e59190612df4565b61023e610406366004612e07565b610c5f565b34801561041757600080fd5b5061023e610426366004612e4c565b610d15565b34801561043757600080fd5b506101db610446366004612cd0565b6101616020526000908152604090205481565b34801561046557600080fd5b5061020e610474366004612ca0565b610d58565b34801561048557600080fd5b5061023e610494366004612ec1565b610d83565b3480156104a557600080fd5b506101db600081565b3480156104ba57600080fd5b5061023e6104c9366004612f30565b61113c565b3480156104da57600080fd5b506101db7f9f2df0fed2c77648de5860a4cc508cd0818c85b8b8a1ab4ceeef8d981c8956a681565b34801561050e57600080fd5b5061023e61051d366004612ca0565b611147565b34801561052e57600080fd5b5061020e61053d366004612f5e565b61116d565b34801561054e57600080fd5b5061023e61055d366004612f8c565b611180565b34801561056e57600080fd5b5061023e61057d366004612ff4565b6111c5565b34801561058e57600080fd5b5061023e61059d366004612a67565b611208565b3480156105ae57600080fd5b5061023e6105bd366004612cd0565b6112e2565b3480156105ce57600080fd5b506101db7f189ab7a9244df0848122154315af71fe140f3db0fe014031783b0946b8c9d2e381565b60006001600160a01b0383166106675760405162461bcd60e51b815260206004820152602b60248201527f455243313135353a2062616c616e636520717565727920666f7220746865207a60448201526a65726f206164647265737360a81b60648201526084015b60405180910390fd5b5060008181526097602090815260408083206001600160a01b03861684529091529020545b92915050565b600061068c8261131a565b60008051602061367b8339815191526106b6813361135a565b6106bf826113be565b5050565b6060609980546106d290613029565b80601f01602080910402602001604051908101604052809291908181526020018280546106fe90613029565b801561074b5780601f106107205761010080835404028352916020019161074b565b820191906000526020600020905b81548152906001019060200180831161072e57829003601f168201915b50505050509050919050565b6001600160a01b0385163314806107735750610773853361116d565b6107da5760405162461bcd60e51b815260206004820152603260248201527f455243313135353a207472616e736665722063616c6c6572206973206e6f74206044820152711bdddb995c881b9bdc88185c1c1c9bdd995960721b606482015260840161065e565b6107e785858585856113d1565b5050505050565b60008281526065602052604090206001015461080a813361135a565b610814838361157e565b505050565b6001600160a01b03811633146108895760405162461bcd60e51b815260206004820152602f60248201527f416363657373436f6e74726f6c3a2063616e206f6e6c792072656e6f756e636560448201526e103937b632b9903337b91039b2b63360891b606482015260840161065e565b6106bf8282611604565b306001600160a01b037f00000000000000000000000000000000000000000000000000000000000000001614156108dc5760405162461bcd60e51b815260040161065e90613064565b7f00000000000000000000000000000000000000000000000000000000000000006001600160a01b031661090e61166b565b6001600160a01b0316146109345760405162461bcd60e51b815260040161065e906130b0565b61093d81611699565b60408051600080825260208201909252610959918391906116c4565b50565b3361096981836001611808565b60008281526101626020908152604091829020825160608101845281546001600160a01b0316808252600183015493820193909352600290910154928101929092526109ea5760405162461bcd60e51b815260206004820152601060248201526f199d5d1d5c99481b9bdd08199bdd5b9960821b604482015260640161065e565b42816020015110610a335760405162461bcd60e51b8152602060048201526013602482015272199d5d1d5c99481b9bdd081d5b9b1bd8dad959606a1b604482015260640161065e565b8051604080830151905163a9059cbb60e01b81526001600160a01b038581166004830152602482019290925291169063a9059cbb90604401602060405180830381600087803b158015610a8557600080fd5b505af1158015610a99573d6000803e3d6000fd5b505050506040513d601f19601f82011682018060405250810190610abd91906130fc565b5060408082015182516001600160a01b031660009081526101616020529190912054610ae89161190d565b50816001600160a01b0316837f3ed1528b0fdc7c5207c1bf935e34a667e13656b9ed165260c522be0bc544f3038360400151604051610b2991815260200190565b60405180910390a3505050565b60608151835114610b9b5760405162461bcd60e51b815260206004820152602960248201527f455243313135353a206163636f756e747320616e6420696473206c656e677468604482015268040dad2e6dac2e8c6d60bb1b606482015260840161065e565b600083516001600160401b03811115610bb657610bb66129c8565b604051908082528060200260200182016040528015610bdf578160200160208202803683370190505b50905060005b8451811015610c5757610c2a858281518110610c0357610c03613119565b6020026020010151858381518110610c1d57610c1d613119565b60200260200101516105f6565b828281518110610c3c57610c3c613119565b6020908102919091010152610c5081613145565b9050610be5565b509392505050565b306001600160a01b037f0000000000000000000000000000000000000000000000000000000000000000161415610ca85760405162461bcd60e51b815260040161065e90613064565b7f00000000000000000000000000000000000000000000000000000000000000006001600160a01b0316610cda61166b565b6001600160a01b031614610d005760405162461bcd60e51b815260040161065e906130b0565b610d0982611699565b6106bf828260016116c4565b6001600160a01b038316331480610d315750610d31833361116d565b610d4d5760405162461bcd60e51b815260040161065e90613160565b610814838383611919565b60009182526065602090815260408084206001600160a01b0393909316845291905290205460ff1690565b600033604051636eb1769f60e11b81526001600160a01b03808316600483015260006024830181905292935088169063dd62ed3e9060440160206040518083038186803b158015610dd357600080fd5b505afa158015610de7573d6000803e3d6000fd5b505050506040513d601f19601f82011682018060405250810190610e0b91906131a9565b90506000610e1c8660ff8716611aaa565b9050808211610e8a5760405162461bcd60e51b815260206004820152603460248201527f54686520617070726f76656420616d6f756e74206973206c657373207468616e604482015273081d1a19481c995c5d5a5c995908185b5bdd5b9d60621b606482015260840161065e565b60008560ff1611610edd5760405162461bcd60e51b815260206004820152601f60248201527f5175616e74697479206d7573742062652067726561746572207468616e203000604482015260640161065e565b6040516323b872dd60e01b81526001600160a01b038481166004830152306024830152604482018390528916906323b872dd90606401602060405180830381600087803b158015610f2d57600080fd5b505af1158015610f41573d6000803e3d6000fd5b505050506040513d601f19601f82011682018060405250810190610f6591906130fc565b5060008560ff166001600160401b03811115610f8357610f836129c8565b604051908082528060200260200182016040528015610fac578160200160208202803683370190505b50905060008660ff166001600160401b03811115610fcc57610fcc6129c8565b604051908082528060200260200182016040528015610ff5578160200160208202803683370190505b50905060005b8760ff168160ff1610156110ef5760006110156101605490565b905061102661016080546001019055565b60408051606081019091526001600160a01b038d1681526020810161104b428b611ab6565b815260209081018c905260008381526101628252604090819020835181546001600160a01b0319166001600160a01b03909116178155918301516001830155919091015160029091015583518190859060ff85169081106110ae576110ae613119565b6020026020010181815250506001838360ff16815181106110d1576110d1613119565b602090810291909101015250806110e7816131c2565b915050610ffb565b506001600160a01b038a16600090815261016160205260409020546111149084611ab6565b5061113089838360405180602001604052806000815250611ac2565b50505050505050505050565b6106bf338383611c57565b600082815260656020526040902060010154611163813361135a565b6108148383611604565b60006111798383611d30565b9392505050565b6001600160a01b03851633148061119c575061119c853361116d565b6111b85760405162461bcd60e51b815260040161065e90613160565b6107e78585858585611dab565b6001600160a01b0383163314806111e157506111e1833361116d565b6111fd5760405162461bcd60e51b815260040161065e90613160565b610814838383611808565b600054610100900460ff166112235760005460ff1615611227565b303b155b61128a5760405162461bcd60e51b815260206004820152602e60248201527f496e697469616c697a61626c653a20636f6e747261637420697320616c72656160448201526d191e481a5b9a5d1a585b1a5e995960921b606482015260840161065e565b600054610100900460ff161580156112ac576000805461ffff19166101011790555b6112b582611edb565b6112bd611f1b565b6112c5611f5c565b6112cd611f83565b80156106bf576000805461ff00191690555050565b60008051602061367b8339815191526112fb813361135a565b60c980546001600160a01b0319166001600160a01b0384161790555050565b60006001600160e01b03198216636cdb3d1360e11b148061134b57506001600160e01b031982166303a24d0760e21b145b8061068c575061068c82612002565b6113648282610d58565b6106bf5761137c816001600160a01b03166014612037565b611387836020612037565b6040516020016113989291906131e2565b60408051601f198184030181529082905262461bcd60e51b825261065e91600401612b2c565b80516106bf9060999060208401906128bb565b81518351146113f25760405162461bcd60e51b815260040161065e90613257565b6001600160a01b0384166114185760405162461bcd60e51b815260040161065e9061329f565b336114278187878787876121d2565b60005b845181101561151057600085828151811061144757611447613119565b60200260200101519050600085838151811061146557611465613119565b60209081029190910181015160008481526097835260408082206001600160a01b038e1683529093529190912054909150818110156114b65760405162461bcd60e51b815260040161065e906132e4565b60008381526097602090815260408083206001600160a01b038e8116855292528083208585039055908b168252812080548492906114f590849061332e565b925050819055505050508061150990613145565b905061142a565b50846001600160a01b0316866001600160a01b0316826001600160a01b03167f4a39dc06d4c0dbc64b70af90fd698a233a518aa5d07e595d983b8c0526c8f7fb8787604051611560929190613346565b60405180910390a46115768187878787876123db565b505050505050565b6115888282610d58565b6106bf5760008281526065602090815260408083206001600160a01b03851684529091529020805460ff191660011790556115c03390565b6001600160a01b0316816001600160a01b0316837f2f8788117e7eff1d82e926ec794901d17c78024a50270940304540a733656f0d60405160405180910390a45050565b61160e8282610d58565b156106bf5760008281526065602090815260408083206001600160a01b0385168085529252808320805460ff1916905551339285917ff6391f5c32d9c69d2a47ea670b442974b53935d1edc7fd64eb21e047a839171b9190a45050565b7f360894a13ba1a3210667c828492db98dca3e2076cc3735a920a3ca505d382bbc546001600160a01b031690565b7f189ab7a9244df0848122154315af71fe140f3db0fe014031783b0946b8c9d2e36106bf813361135a565b60006116ce61166b565b90506116d984612546565b6000835111806116e65750815b156116f7576116f584846125eb565b505b7f4910fdfa16fed3260ed0e7147f7cc6da11a60208b5b9406d12a635614ffd9143805460ff166107e757805460ff191660011781556040516001600160a01b038316602482015261177690869060440160408051601f198184030181529190526020810180516001600160e01b0316631b2ce7f360e11b1790526125eb565b50805460ff1916815561178761166b565b6001600160a01b0316826001600160a01b0316146117ff5760405162461bcd60e51b815260206004820152602f60248201527f45524331393637557067726164653a207570677261646520627265616b73206660448201526e75727468657220757067726164657360881b606482015260840161065e565b6107e7856126d6565b6001600160a01b03831661182e5760405162461bcd60e51b815260040161065e9061336b565b3361185d8185600061183f87612716565b61184887612716565b604051806020016040528060008152506121d2565b60008381526097602090815260408083206001600160a01b0388168452909152902054828110156118a05760405162461bcd60e51b815260040161065e906133ae565b60008481526097602090815260408083206001600160a01b03898116808652918452828520888703905582518981529384018890529092908616917fc3d58168c5ae7397731d063d5bbf3d657854427343f4c083240f7aacaa2d0f62910160405180910390a45050505050565b600061117982846133f2565b6001600160a01b03831661193f5760405162461bcd60e51b815260040161065e9061336b565b80518251146119605760405162461bcd60e51b815260040161065e90613257565b6000339050611983818560008686604051806020016040528060008152506121d2565b60005b8351811015611a4b5760008482815181106119a3576119a3613119565b6020026020010151905060008483815181106119c1576119c1613119565b60209081029190910181015160008481526097835260408082206001600160a01b038c168352909352919091205490915081811015611a125760405162461bcd60e51b815260040161065e906133ae565b60009283526097602090815260408085206001600160a01b038b1686529091529092209103905580611a4381613145565b915050611986565b5060006001600160a01b0316846001600160a01b0316826001600160a01b03167f4a39dc06d4c0dbc64b70af90fd698a233a518aa5d07e595d983b8c0526c8f7fb8686604051611a9c929190613346565b60405180910390a450505050565b60006111798284613409565b6000611179828461332e565b6001600160a01b038416611b225760405162461bcd60e51b815260206004820152602160248201527f455243313135353a206d696e7420746f20746865207a65726f206164647265736044820152607360f81b606482015260840161065e565b8151835114611b435760405162461bcd60e51b815260040161065e90613257565b33611b53816000878787876121d2565b60005b8451811015611bef57838181518110611b7157611b71613119565b602002602001015160976000878481518110611b8f57611b8f613119565b602002602001015181526020019081526020016000206000886001600160a01b03166001600160a01b031681526020019081526020016000206000828254611bd7919061332e565b90915550819050611be781613145565b915050611b56565b50846001600160a01b031660006001600160a01b0316826001600160a01b03167f4a39dc06d4c0dbc64b70af90fd698a233a518aa5d07e595d983b8c0526c8f7fb8787604051611c40929190613346565b60405180910390a46107e7816000878787876123db565b816001600160a01b0316836001600160a01b03161415611ccb5760405162461bcd60e51b815260206004820152602960248201527f455243313135353a2073657474696e6720617070726f76616c20737461747573604482015268103337b91039b2b63360b91b606482015260840161065e565b6001600160a01b03838116600081815260986020908152604080832094871680845294825291829020805460ff191686151590811790915591519182527f17307eab39ab6107e8899845ad3d59bd9653f200f220920489ca2b5937696c319101610b29565b60006001600160a01b03821673207fa8df3a17d96ca7ea4f2893fcdcb78a3041011415611d5f5750600161068c565b60c9546001600160a01b0383811691161415611d7d5750600161068c565b6001600160a01b0380841660009081526098602090815260408083209386168352929052205460ff16611179565b6001600160a01b038416611dd15760405162461bcd60e51b815260040161065e9061329f565b33611df0818787611de188612716565b611dea88612716565b876121d2565b60008481526097602090815260408083206001600160a01b038a16845290915290205483811015611e335760405162461bcd60e51b815260040161065e906132e4565b60008581526097602090815260408083206001600160a01b038b8116855292528083208785039055908816825281208054869290611e7290849061332e565b909155505060408051868152602081018690526001600160a01b03808916928a821692918616917fc3d58168c5ae7397731d063d5bbf3d657854427343f4c083240f7aacaa2d0f62910160405180910390a4611ed2828888888888612761565b50505050505050565b600054610100900460ff16611f025760405162461bcd60e51b815260040161065e90613428565b611f0a61282b565b611f1261282b565b61095981612852565b600054610100900460ff16611f425760405162461bcd60e51b815260040161065e90613428565b611f4a61282b565b611f5261282b565b611f5a61282b565b565b600054610100900460ff16611f4a5760405162461bcd60e51b815260040161065e90613428565b611f8b611f1b565b611f9660003361157e565b611fae60008051602061367b8339815191523361157e565b611fd87f9f2df0fed2c77648de5860a4cc508cd0818c85b8b8a1ab4ceeef8d981c8956a63361157e565b611f5a7f189ab7a9244df0848122154315af71fe140f3db0fe014031783b0946b8c9d2e33361157e565b60006001600160e01b03198216637965db0b60e01b148061068c57506301ffc9a760e01b6001600160e01b031983161461068c565b60606000612046836002613409565b61205190600261332e565b6001600160401b03811115612068576120686129c8565b6040519080825280601f01601f191660200182016040528015612092576020820181803683370190505b509050600360fc1b816000815181106120ad576120ad613119565b60200101906001600160f81b031916908160001a905350600f60fb1b816001815181106120dc576120dc613119565b60200101906001600160f81b031916908160001a9053506000612100846002613409565b61210b90600161332e565b90505b6001811115612183576f181899199a1a9b1b9c1cb0b131b232b360811b85600f166010811061213f5761213f613119565b1a60f81b82828151811061215557612155613119565b60200101906001600160f81b031916908160001a90535060049490941c9361217c81613473565b905061210e565b5083156111795760405162461bcd60e51b815260206004820181905260248201527f537472696e67733a20686578206c656e67746820696e73756666696369656e74604482015260640161065e565b60005b825181101561227f578281815181106121f0576121f0613119565b602002602001015160011461226d5760405162461bcd60e51b815260206004820152603e60248201527f45616368206675747572657320697320756e697175652c20536f20746865726560448201527f206973206e6f207472616e736665722067726561746572207468616e20310000606482015260840161065e565b8061227781613145565b9150506121d5565b5060005b83518110156123d55760008482815181106122a0576122a0613119565b60209081029190910181015160008181526101628352604090819020815160608101835281546001600160a01b039081168252600183015495820195909552600290910154918101919091529092509087166123585760008281526101626020908152604080832080546001600160a01b0319168155600181018490556002018390558381015184516001600160a01b03168452610161909252822080549192909161234d9084906133f2565b909155506123c29050565b428160200151116123c25760405162461bcd60e51b815260206004820152602e60248201527f5472616e736665727320617265206e6f7420616c6c6f77656420666f7220756e60448201526d6c6f636b6564206675747572657360901b606482015260840161065e565b5050806123ce90613145565b9050612283565b50611576565b6001600160a01b0384163b156115765760405163bc197c8160e01b81526001600160a01b0385169063bc197c819061241f908990899088908890889060040161348a565b602060405180830381600087803b15801561243957600080fd5b505af1925050508015612469575060408051601f3d908101601f19168201909252612466918101906134e8565b60015b61251657612475613505565b806308c379a014156124af575061248a613521565b8061249557506124b1565b8060405162461bcd60e51b815260040161065e9190612b2c565b505b60405162461bcd60e51b815260206004820152603460248201527f455243313135353a207472616e7366657220746f206e6f6e20455243313135356044820152732932b1b2b4bb32b91034b6b83632b6b2b73a32b960611b606482015260840161065e565b6001600160e01b0319811663bc197c8160e01b14611ed25760405162461bcd60e51b815260040161065e906135aa565b803b6125aa5760405162461bcd60e51b815260206004820152602d60248201527f455243313936373a206e657720696d706c656d656e746174696f6e206973206e60448201526c1bdd08184818dbdb9d1c9858dd609a1b606482015260840161065e565b7f360894a13ba1a3210667c828492db98dca3e2076cc3735a920a3ca505d382bbc80546001600160a01b0319166001600160a01b0392909216919091179055565b6060823b61264a5760405162461bcd60e51b815260206004820152602660248201527f416464726573733a2064656c65676174652063616c6c20746f206e6f6e2d636f6044820152651b9d1c9858dd60d21b606482015260840161065e565b600080846001600160a01b03168460405161266591906135f2565b600060405180830381855af49150503d80600081146126a0576040519150601f19603f3d011682016040523d82523d6000602084013e6126a5565b606091505b50915091506126cd828260405180606001604052806027815260200161365460279139612882565b95945050505050565b6126df81612546565b6040516001600160a01b038216907fbc7cd75a20ee27fd9adebab32041f755214dbc6bffa90cc0225b39da2e5c2d3b90600090a250565b6040805160018082528183019092526060916000919060208083019080368337019050509050828160008151811061275057612750613119565b602090810291909101015292915050565b6001600160a01b0384163b156115765760405163f23a6e6160e01b81526001600160a01b0385169063f23a6e61906127a5908990899088908890889060040161360e565b602060405180830381600087803b1580156127bf57600080fd5b505af19250505080156127ef575060408051601f3d908101601f191682019092526127ec918101906134e8565b60015b6127fb57612475613505565b6001600160e01b0319811663f23a6e6160e01b14611ed25760405162461bcd60e51b815260040161065e906135aa565b600054610100900460ff16611f5a5760405162461bcd60e51b815260040161065e90613428565b600054610100900460ff166128795760405162461bcd60e51b815260040161065e90613428565b610959816113be565b60608315612891575081611179565b8251156128a15782518084602001fd5b8160405162461bcd60e51b815260040161065e9190612b2c565b8280546128c790613029565b90600052602060002090601f0160209004810192826128e9576000855561292f565b82601f1061290257805160ff191683800117855561292f565b8280016001018555821561292f579182015b8281111561292f578251825591602001919060010190612914565b5061293b92915061293f565b5090565b5b8082111561293b5760008155600101612940565b6001600160a01b038116811461095957600080fd5b6000806040838503121561297c57600080fd5b823561298781612954565b946020939093013593505050565b6001600160e01b03198116811461095957600080fd5b6000602082840312156129bd57600080fd5b813561117981612995565b634e487b7160e01b600052604160045260246000fd5b601f8201601f191681016001600160401b0381118282101715612a0357612a036129c8565b6040525050565b60006001600160401b03831115612a2357612a236129c8565b604051612a3a601f8501601f1916602001826129de565b809150838152848484011115612a4f57600080fd5b83836020830137600060208583010152509392505050565b600060208284031215612a7957600080fd5b81356001600160401b03811115612a8f57600080fd5b8201601f81018413612aa057600080fd5b612aaf84823560208401612a0a565b949350505050565b600060208284031215612ac957600080fd5b5035919050565b60005b83811015612aeb578181015183820152602001612ad3565b83811115612afa576000848401525b50505050565b60008151808452612b18816020860160208601612ad0565b601f01601f19169290920160200192915050565b6020815260006111796020830184612b00565b60006001600160401b03821115612b5857612b586129c8565b5060051b60200190565b600082601f830112612b7357600080fd5b81356020612b8082612b3f565b604051612b8d82826129de565b83815260059390931b8501820192828101915086841115612bad57600080fd5b8286015b84811015612bc85780358352918301918301612bb1565b509695505050505050565b600082601f830112612be457600080fd5b61117983833560208501612a0a565b600080600080600060a08688031215612c0b57600080fd5b8535612c1681612954565b94506020860135612c2681612954565b935060408601356001600160401b0380821115612c4257600080fd5b612c4e89838a01612b62565b94506060880135915080821115612c6457600080fd5b612c7089838a01612b62565b93506080880135915080821115612c8657600080fd5b50612c9388828901612bd3565b9150509295509295909350565b60008060408385031215612cb357600080fd5b823591506020830135612cc581612954565b809150509250929050565b600060208284031215612ce257600080fd5b813561117981612954565b60008060408385031215612d0057600080fd5b82356001600160401b0380821115612d1757600080fd5b818501915085601f830112612d2b57600080fd5b81356020612d3882612b3f565b604051612d4582826129de565b83815260059390931b8501820192828101915089841115612d6557600080fd5b948201945b83861015612d8c578535612d7d81612954565b82529482019490820190612d6a565b96505086013592505080821115612da257600080fd5b50612daf85828601612b62565b9150509250929050565b600081518084526020808501945080840160005b83811015612de957815187529582019590820190600101612dcd565b509495945050505050565b6020815260006111796020830184612db9565b60008060408385031215612e1a57600080fd5b8235612e2581612954565b915060208301356001600160401b03811115612e4057600080fd5b612daf85828601612bd3565b600080600060608486031215612e6157600080fd5b8335612e6c81612954565b925060208401356001600160401b0380821115612e8857600080fd5b612e9487838801612b62565b93506040860135915080821115612eaa57600080fd5b50612eb786828701612b62565b9150509250925092565b600080600080600060a08688031215612ed957600080fd5b8535612ee481612954565b94506020860135612ef481612954565b935060408601359250606086013560ff81168114612f1157600080fd5b949793965091946080013592915050565b801515811461095957600080fd5b60008060408385031215612f4357600080fd5b8235612f4e81612954565b91506020830135612cc581612f22565b60008060408385031215612f7157600080fd5b8235612f7c81612954565b91506020830135612cc581612954565b600080600080600060a08688031215612fa457600080fd5b8535612faf81612954565b94506020860135612fbf81612954565b9350604086013592506060860135915060808601356001600160401b03811115612fe857600080fd5b612c9388828901612bd3565b60008060006060848603121561300957600080fd5b833561301481612954565b95602085013595506040909401359392505050565b600181811c9082168061303d57607f821691505b6020821081141561305e57634e487b7160e01b600052602260045260246000fd5b50919050565b6020808252602c908201527f46756e6374696f6e206d7573742062652063616c6c6564207468726f7567682060408201526b19195b1959d85d1958d85b1b60a21b606082015260800190565b6020808252602c908201527f46756e6374696f6e206d7573742062652063616c6c6564207468726f7567682060408201526b6163746976652070726f787960a01b606082015260800190565b60006020828403121561310e57600080fd5b815161117981612f22565b634e487b7160e01b600052603260045260246000fd5b634e487b7160e01b600052601160045260246000fd5b60006000198214156131595761315961312f565b5060010190565b60208082526029908201527f455243313135353a2063616c6c6572206973206e6f74206f776e6572206e6f7260408201526808185c1c1c9bdd995960ba1b606082015260800190565b6000602082840312156131bb57600080fd5b5051919050565b600060ff821660ff8114156131d9576131d961312f565b60010192915050565b7f416363657373436f6e74726f6c3a206163636f756e742000000000000000000081526000835161321a816017850160208801612ad0565b7001034b99036b4b9b9b4b733903937b6329607d1b601791840191820152835161324b816028840160208801612ad0565b01602801949350505050565b60208082526028908201527f455243313135353a2069647320616e6420616d6f756e7473206c656e677468206040820152670dad2e6dac2e8c6d60c31b606082015260800190565b60208082526025908201527f455243313135353a207472616e7366657220746f20746865207a65726f206164604082015264647265737360d81b606082015260800190565b6020808252602a908201527f455243313135353a20696e73756666696369656e742062616c616e636520666f60408201526939103a3930b739b332b960b11b606082015260800190565b600082198211156133415761334161312f565b500190565b6040815260006133596040830185612db9565b82810360208401526126cd8185612db9565b60208082526023908201527f455243313135353a206275726e2066726f6d20746865207a65726f206164647260408201526265737360e81b606082015260800190565b60208082526024908201527f455243313135353a206275726e20616d6f756e7420657863656564732062616c604082015263616e636560e01b606082015260800190565b6000828210156134045761340461312f565b500390565b60008160001904831182151516156134235761342361312f565b500290565b6020808252602b908201527f496e697469616c697a61626c653a20636f6e7472616374206973206e6f74206960408201526a6e697469616c697a696e6760a81b606082015260800190565b6000816134825761348261312f565b506000190190565b6001600160a01b0386811682528516602082015260a0604082018190526000906134b690830186612db9565b82810360608401526134c88186612db9565b905082810360808401526134dc8185612b00565b98975050505050505050565b6000602082840312156134fa57600080fd5b815161117981612995565b600060033d111561351e5760046000803e5060005160e01c5b90565b600060443d101561352f5790565b6040516003193d81016004833e81513d6001600160401b03816024840111818411171561355e57505050505090565b82850191508151818111156135765750505050505090565b843d87010160208285010111156135905750505050505090565b61359f602082860101876129de565b509095945050505050565b60208082526028908201527f455243313135353a204552433131353552656365697665722072656a656374656040820152676420746f6b656e7360c01b606082015260800190565b60008251613604818460208701612ad0565b9190910192915050565b6001600160a01b03868116825285166020820152604081018490526060810183905260a06080820181905260009061364890830184612b00565b97965050505050505056fe416464726573733a206c6f772d6c6576656c2064656c65676174652063616c6c206661696c6564f5eb84615c2a00ecaf817d13794ebd6299c9e01c395bf4018453f13f577f5449a26469706673582212200a54810e34a2e730e9a2624050d4cd179435d51ee1d0efab19b8be24b34c28ed64736f6c63430008090033",
  "immutableReferences": {
    "1051": [
      {
        "length": 32,
        "start": 2206
      },
      {
        "length": 32,
        "start": 2270
      },
      {
        "length": 32,
        "start": 3178
      },
      {
        "length": 32,
        "start": 3242
      }
    ]
  },
  "source": "// SPDX-License-Identifier: MIT\npragma solidity 0.8.9;\n\nimport \"@openzeppelin/contracts-upgradeable/token/ERC1155/ERC1155Upgradeable.sol\";\nimport \"@openzeppelin/contracts-upgradeable/token/ERC20/IERC20Upgradeable.sol\";\nimport \"@openzeppelin/contracts-upgradeable/access/AccessControlUpgradeable.sol\";\nimport \"@openzeppelin/contracts-upgradeable/token/ERC1155/extensions/ERC1155BurnableUpgradeable.sol\";\nimport \"@openzeppelin/contracts-upgradeable/proxy/utils/Initializable.sol\";\nimport \"@openzeppelin/contracts-upgradeable/proxy/utils/UUPSUpgradeable.sol\";\nimport \"@openzeppelin/contracts-upgradeable/utils/math/SafeMathUpgradeable.sol\";\nimport \"@openzeppelin/contracts-upgradeable/utils/CountersUpgradeable.sol\";\nimport \"./MelandTierAddressStore.sol\";\nimport \"./MelandAccessRoles.sol\";\nimport \"./MelandTier.sol\";\n\n// Support arbitrary erc20 token packaging\n// MELD Futures\n\ncontract Meland1155MELDFuture is\n    Initializable,\n    ERC1155Upgradeable,\n    MelandAccessRoles,\n    MelandTierAddressStore,\n    ERC1155BurnableUpgradeable,\n    UUPSUpgradeable\n{\n    using SafeMathUpgradeable for uint256;\n    using CountersUpgradeable for CountersUpgradeable.Counter;\n\n    CountersUpgradeable.Counter private _tokenIdCounter;\n\n    struct ERC20Future {\n        IERC20Upgradeable token;\n        uint256 unlockAt;\n        uint256 amount;\n    }\n\n    event Claim(uint256 indexed id, address indexed beneficiary, uint256 amount);\n\n    // Records the current number of tokens left for each type of token\n    mapping(IERC20Upgradeable => uint256) public totalSupplyByERC20;\n    mapping(uint256 => ERC20Future) public futureById;\n\n    function initialize(string memory uri) public initializer {\n        __ERC1155_init(uri);\n        __ERC1155Burnable_init();\n        __UUPSUpgradeable_init();\n        __MelandAccessRoles_init();\n    }\n\n    function isApprovedForAll(address _owner, address _operator)\n        public\n        view\n        override(ERC1155Upgradeable, MelandTierAddressStore)\n        returns (bool isOperator)\n    {\n        return super.isApprovedForAll(_owner, _operator);\n    }\n\n    function setURI(string memory newuri) public onlyRole(GM_ROLE) {\n        _setURI(newuri);\n    }\n\n    // Anyone can mint futures as long as they have money.\n    function mintBatch(\n        IERC20Upgradeable token,\n        address to,\n        uint256 amount,\n        uint8 count,\n        uint256 lockseconds\n    ) public {\n        address sender = _msgSender();\n\n        uint256 allowanceAmount = token.allowance(sender, address(0));\n\n        uint256 totalAmount = amount.mul(count);\n        require(\n            allowanceAmount > totalAmount,\n            \"The approved amount is less than the required amount\"\n        );\n        require(count > 0, \"Quantity must be greater than 0\");\n\n        token.transferFrom(sender, address(this), totalAmount);\n\n        uint256[] memory ids = new uint256[](count);\n        uint256[] memory amounts = new uint256[](count);\n\n        for (uint8 i = 0; i < count; i++) {\n            uint256 tokenId = _tokenIdCounter.current();\n            _tokenIdCounter.increment();\n\n            futureById[tokenId] = ERC20Future(\n                token,\n                block.timestamp.add(lockseconds),\n                amount\n            );\n\n            ids[i] = tokenId;\n            amounts[i] = 1;\n        }\n\n        totalSupplyByERC20[token].add(totalAmount);\n        _mintBatch(to, ids, amounts, \"\");\n    }\n\n    function setMelandTier(MelandTier _tierAddress) public onlyRole(GM_ROLE) {\n        _setMelandTier(_tierAddress);\n    }\n\n    // Converting futures into corresponding token\n    function claim(uint256 id) public {\n        address sender = _msgSender();\n        _burn(sender, id, 1);\n        ERC20Future memory future = futureById[id];\n        require(address(future.token) != address(0), \"future not found\");\n        require(future.unlockAt < block.timestamp, \"future not unlocked\");\n        future.token.transfer(sender, future.amount);\n        totalSupplyByERC20[future.token].sub(future.amount);\n\n        emit Claim(id, sender, future.amount);\n    }\n\n    function totalSupply(uint256 id) internal view returns (uint256) {\n        ERC20Future memory future = futureById[id];\n        if (address(future.token) == address(0)) {\n            return 0;\n        }\n        return totalSupplyByERC20[future.token];\n    }\n\n    function _authorizeUpgrade(address newImplementation)\n        internal\n        override\n        onlyRole(UPGRADER_ROLE)\n    {}\n\n    // The following functions are overrides required by Solidity.\n\n    function supportsInterface(bytes4 interfaceId)\n        public\n        view\n        override(ERC1155Upgradeable, AccessControlUpgradeable)\n        returns (bool)\n    {\n        return super.supportsInterface(interfaceId);\n    }\n\n    // The following functions are overrides required by Solidity.\n    function _beforeTokenTransfer(\n        address operator,\n        address from,\n        address to,\n        uint256[] memory ids,\n        uint256[] memory amounts,\n        bytes memory landtype\n    ) internal override(ERC1155Upgradeable) {\n        for (uint256 i = 0; i < amounts.length; i++) {\n            require(\n                amounts[i] == 1,\n                \"Each futures is unique, So there is no transfer greater than 1\"\n            );\n        }\n\n        for (uint256 i = 0; i < ids.length; ++i) {\n            uint256 id = ids[i];\n            ERC20Future memory future = futureById[id];\n\n            // sub totalSupply when burn token\n            if (to == address(0)) {\n                // clear when burn\n                delete futureById[id];\n                totalSupplyByERC20[future.token] -= future.amount;\n            } else {\n                require(future.unlockAt > block.timestamp, \"Transfers are not allowed for unlocked futures\");\n            }\n        }\n\n        super._beforeTokenTransfer(operator, from, to, ids, amounts, landtype);\n    }\n}\n",
  "sourcePath": "/Users/alberthuang/code/icw/meland/contracts/Meland1155MELDFuture.sol",
  "compiler": {
    "name": "solc",
    "version": "0.8.9+commit.e5eed63a.Emscripten.clang"
  },
  "schemaVersion": "3.4.3",
  "updatedAt": "2022-01-04T08:21:00.954Z",
  "devdoc": {
    "kind": "dev",
    "methods": {
      "balanceOf(address,uint256)": {
        "details": "See {IERC1155-balanceOf}. Requirements: - `account` cannot be the zero address."
      },
      "balanceOfBatch(address[],uint256[])": {
        "details": "See {IERC1155-balanceOfBatch}. Requirements: - `accounts` and `ids` must have the same length."
      },
      "getRoleAdmin(bytes32)": {
        "details": "Returns the admin role that controls `role`. See {grantRole} and {revokeRole}. To change a role's admin, use {_setRoleAdmin}."
      },
      "grantRole(bytes32,address)": {
        "details": "Grants `role` to `account`. If `account` had not been already granted `role`, emits a {RoleGranted} event. Requirements: - the caller must have ``role``'s admin role."
      },
      "hasRole(bytes32,address)": {
        "details": "Returns `true` if `account` has been granted `role`."
      },
      "renounceRole(bytes32,address)": {
        "details": "Revokes `role` from the calling account. Roles are often managed via {grantRole} and {revokeRole}: this function's purpose is to provide a mechanism for accounts to lose their privileges if they are compromised (such as when a trusted device is misplaced). If the calling account had been revoked `role`, emits a {RoleRevoked} event. Requirements: - the caller must be `account`."
      },
      "revokeRole(bytes32,address)": {
        "details": "Revokes `role` from `account`. If `account` had been granted `role`, emits a {RoleRevoked} event. Requirements: - the caller must have ``role``'s admin role."
      },
      "safeBatchTransferFrom(address,address,uint256[],uint256[],bytes)": {
        "details": "See {IERC1155-safeBatchTransferFrom}."
      },
      "safeTransferFrom(address,address,uint256,uint256,bytes)": {
        "details": "See {IERC1155-safeTransferFrom}."
      },
      "setApprovalForAll(address,bool)": {
        "details": "See {IERC1155-setApprovalForAll}."
      },
      "upgradeTo(address)": {
        "details": "Upgrade the implementation of the proxy to `newImplementation`. Calls {_authorizeUpgrade}. Emits an {Upgraded} event."
      },
      "upgradeToAndCall(address,bytes)": {
        "details": "Upgrade the implementation of the proxy to `newImplementation`, and subsequently execute the function call encoded in `data`. Calls {_authorizeUpgrade}. Emits an {Upgraded} event."
      },
      "uri(uint256)": {
        "details": "See {IERC1155MetadataURI-uri}. This implementation returns the same URI for *all* token types. It relies on the token type ID substitution mechanism https://eips.ethereum.org/EIPS/eip-1155#metadata[defined in the EIP]. Clients calling this function must replace the `\\{id\\}` substring with the actual token type ID."
      }
    },
    "version": 1
  },
  "userdoc": {
    "kind": "user",
    "methods": {},
    "version": 1
  }
}