{
  "contractName": "MelandExchange",
  "abi": [
    {
      "anonymous": false,
      "inputs": [
        {
          "indexed": false,
          "internalType": "address",
          "name": "previousAdmin",
          "type": "address"
        },
        {
          "indexed": false,
          "internalType": "address",
          "name": "newAdmin",
          "type": "address"
        }
      ],
      "name": "AdminChanged",
      "type": "event"
    },
    {
      "anonymous": false,
      "inputs": [
        {
          "indexed": true,
          "internalType": "address",
          "name": "beacon",
          "type": "address"
        }
      ],
      "name": "BeaconUpgraded",
      "type": "event"
    },
    {
      "anonymous": false,
      "inputs": [
        {
          "indexed": false,
          "internalType": "uint256",
          "name": "depositId",
          "type": "uint256"
        }
      ],
      "name": "Deposit",
      "type": "event"
    },
    {
      "anonymous": false,
      "inputs": [
        {
          "indexed": true,
          "internalType": "uint256",
          "name": "depositId",
          "type": "uint256"
        },
        {
          "indexed": false,
          "internalType": "string",
          "name": "message",
          "type": "string"
        }
      ],
      "name": "DepositPaymentFail",
      "type": "event"
    },
    {
      "anonymous": false,
      "inputs": [
        {
          "indexed": false,
          "internalType": "uint256",
          "name": "depositId",
          "type": "uint256"
        }
      ],
      "name": "DepositPaymentSuccess",
      "type": "event"
    },
    {
      "anonymous": false,
      "inputs": [
        {
          "indexed": false,
          "internalType": "uint256",
          "name": "exchangeId",
          "type": "uint256"
        }
      ],
      "name": "Exchange",
      "type": "event"
    },
    {
      "anonymous": false,
      "inputs": [
        {
          "indexed": true,
          "internalType": "uint256",
          "name": "exchangeId",
          "type": "uint256"
        },
        {
          "indexed": false,
          "internalType": "string",
          "name": "message",
          "type": "string"
        }
      ],
      "name": "ExchangePaymentFail",
      "type": "event"
    },
    {
      "anonymous": false,
      "inputs": [
        {
          "indexed": false,
          "internalType": "uint256",
          "name": "exchangeId",
          "type": "uint256"
        }
      ],
      "name": "ExchangePaymentSuccess",
      "type": "event"
    },
    {
      "anonymous": false,
      "inputs": [
        {
          "indexed": false,
          "internalType": "uint256",
          "name": "newLimit",
          "type": "uint256"
        }
      ],
      "name": "MELDLimitUpdate",
      "type": "event"
    },
    {
      "anonymous": false,
      "inputs": [
        {
          "indexed": true,
          "internalType": "bytes32",
          "name": "role",
          "type": "bytes32"
        },
        {
          "indexed": true,
          "internalType": "bytes32",
          "name": "previousAdminRole",
          "type": "bytes32"
        },
        {
          "indexed": true,
          "internalType": "bytes32",
          "name": "newAdminRole",
          "type": "bytes32"
        }
      ],
      "name": "RoleAdminChanged",
      "type": "event"
    },
    {
      "anonymous": false,
      "inputs": [
        {
          "indexed": true,
          "internalType": "bytes32",
          "name": "role",
          "type": "bytes32"
        },
        {
          "indexed": true,
          "internalType": "address",
          "name": "account",
          "type": "address"
        },
        {
          "indexed": true,
          "internalType": "address",
          "name": "sender",
          "type": "address"
        }
      ],
      "name": "RoleGranted",
      "type": "event"
    },
    {
      "anonymous": false,
      "inputs": [
        {
          "indexed": true,
          "internalType": "bytes32",
          "name": "role",
          "type": "bytes32"
        },
        {
          "indexed": true,
          "internalType": "address",
          "name": "account",
          "type": "address"
        },
        {
          "indexed": true,
          "internalType": "address",
          "name": "sender",
          "type": "address"
        }
      ],
      "name": "RoleRevoked",
      "type": "event"
    },
    {
      "anonymous": false,
      "inputs": [
        {
          "indexed": true,
          "internalType": "address",
          "name": "implementation",
          "type": "address"
        }
      ],
      "name": "Upgraded",
      "type": "event"
    },
    {
      "inputs": [],
      "name": "DEFAULT_ADMIN_ROLE",
      "outputs": [
        {
          "internalType": "bytes32",
          "name": "",
          "type": "bytes32"
        }
      ],
      "stateMutability": "view",
      "type": "function"
    },
    {
      "inputs": [],
      "name": "GM_ROLE",
      "outputs": [
        {
          "internalType": "bytes32",
          "name": "",
          "type": "bytes32"
        }
      ],
      "stateMutability": "view",
      "type": "function"
    },
    {
      "inputs": [],
      "name": "MINTER_ROLE",
      "outputs": [
        {
          "internalType": "bytes32",
          "name": "",
          "type": "bytes32"
        }
      ],
      "stateMutability": "view",
      "type": "function"
    },
    {
      "inputs": [],
      "name": "PAYMENT_ROLE",
      "outputs": [
        {
          "internalType": "bytes32",
          "name": "",
          "type": "bytes32"
        }
      ],
      "stateMutability": "view",
      "type": "function"
    },
    {
      "inputs": [],
      "name": "UPGRADER_ROLE",
      "outputs": [
        {
          "internalType": "bytes32",
          "name": "",
          "type": "bytes32"
        }
      ],
      "stateMutability": "view",
      "type": "function"
    },
    {
      "inputs": [],
      "name": "acceptedToken",
      "outputs": [
        {
          "internalType": "contract IERC20Upgradeable",
          "name": "",
          "type": "address"
        }
      ],
      "stateMutability": "view",
      "type": "function"
    },
    {
      "inputs": [],
      "name": "bidbackWallet",
      "outputs": [
        {
          "internalType": "address",
          "name": "",
          "type": "address"
        }
      ],
      "stateMutability": "view",
      "type": "function"
    },
    {
      "inputs": [],
      "name": "foundationWallet",
      "outputs": [
        {
          "internalType": "address",
          "name": "",
          "type": "address"
        }
      ],
      "stateMutability": "view",
      "type": "function"
    },
    {
      "inputs": [
        {
          "internalType": "uint256",
          "name": "",
          "type": "uint256"
        }
      ],
      "name": "getDepositDitaminById",
      "outputs": [
        {
          "internalType": "uint256",
          "name": "depositedAt",
          "type": "uint256"
        },
        {
          "internalType": "uint256",
          "name": "amountOfMELD",
          "type": "uint256"
        },
        {
          "internalType": "address",
          "name": "beneficiary",
          "type": "address"
        },
        {
          "internalType": "uint256",
          "name": "paymentDitamin",
          "type": "uint256"
        },
        {
          "internalType": "uint256",
          "name": "paymentAt",
          "type": "uint256"
        },
        {
          "internalType": "uint256",
          "name": "failedAt",
          "type": "uint256"
        },
        {
          "internalType": "string",
          "name": "failedMessage",
          "type": "string"
        }
      ],
      "stateMutability": "view",
      "type": "function"
    },
    {
      "inputs": [
        {
          "internalType": "uint256",
          "name": "",
          "type": "uint256"
        }
      ],
      "name": "getExchangeMELDById",
      "outputs": [
        {
          "internalType": "uint256",
          "name": "exchangedAt",
          "type": "uint256"
        },
        {
          "internalType": "uint256",
          "name": "amountOfMELD",
          "type": "uint256"
        },
        {
          "internalType": "address",
          "name": "beneficiary",
          "type": "address"
        },
        {
          "internalType": "uint256",
          "name": "paymentDitamin",
          "type": "uint256"
        },
        {
          "internalType": "uint256",
          "name": "paymentAt",
          "type": "uint256"
        },
        {
          "internalType": "uint256",
          "name": "failedAt",
          "type": "uint256"
        },
        {
          "internalType": "string",
          "name": "failedMessage",
          "type": "string"
        }
      ],
      "stateMutability": "view",
      "type": "function"
    },
    {
      "inputs": [
        {
          "internalType": "address",
          "name": "",
          "type": "address"
        },
        {
          "internalType": "uint256",
          "name": "",
          "type": "uint256"
        },
        {
          "internalType": "uint256",
          "name": "",
          "type": "uint256"
        }
      ],
      "name": "getExchangeMELDIdsByUserAndDay",
      "outputs": [
        {
          "internalType": "uint256",
          "name": "",
          "type": "uint256"
        }
      ],
      "stateMutability": "view",
      "type": "function"
    },
    {
      "inputs": [
        {
          "internalType": "bytes32",
          "name": "role",
          "type": "bytes32"
        }
      ],
      "name": "getRoleAdmin",
      "outputs": [
        {
          "internalType": "bytes32",
          "name": "",
          "type": "bytes32"
        }
      ],
      "stateMutability": "view",
      "type": "function"
    },
    {
      "inputs": [
        {
          "internalType": "bytes32",
          "name": "role",
          "type": "bytes32"
        },
        {
          "internalType": "address",
          "name": "account",
          "type": "address"
        }
      ],
      "name": "grantRole",
      "outputs": [],
      "stateMutability": "nonpayable",
      "type": "function"
    },
    {
      "inputs": [
        {
          "internalType": "bytes32",
          "name": "role",
          "type": "bytes32"
        },
        {
          "internalType": "address",
          "name": "account",
          "type": "address"
        }
      ],
      "name": "hasRole",
      "outputs": [
        {
          "internalType": "bool",
          "name": "",
          "type": "bool"
        }
      ],
      "stateMutability": "view",
      "type": "function"
    },
    {
      "inputs": [],
      "name": "limitEveryDayMELD",
      "outputs": [
        {
          "internalType": "uint256",
          "name": "",
          "type": "uint256"
        }
      ],
      "stateMutability": "view",
      "type": "function"
    },
    {
      "inputs": [
        {
          "internalType": "address",
          "name": "",
          "type": "address"
        }
      ],
      "name": "lockedByUser",
      "outputs": [
        {
          "internalType": "bool",
          "name": "",
          "type": "bool"
        }
      ],
      "stateMutability": "view",
      "type": "function"
    },
    {
      "inputs": [],
      "name": "melandMELDFuture",
      "outputs": [
        {
          "internalType": "contract Meland1155MELDFuture",
          "name": "",
          "type": "address"
        }
      ],
      "stateMutability": "view",
      "type": "function"
    },
    {
      "inputs": [],
      "name": "officialWallet",
      "outputs": [
        {
          "internalType": "address",
          "name": "",
          "type": "address"
        }
      ],
      "stateMutability": "view",
      "type": "function"
    },
    {
      "inputs": [],
      "name": "ownerCutPerMillion",
      "outputs": [
        {
          "internalType": "uint256",
          "name": "",
          "type": "uint256"
        }
      ],
      "stateMutability": "view",
      "type": "function"
    },
    {
      "inputs": [
        {
          "internalType": "uint256",
          "name": "",
          "type": "uint256"
        }
      ],
      "name": "pendingDepositIds",
      "outputs": [
        {
          "internalType": "uint256",
          "name": "",
          "type": "uint256"
        }
      ],
      "stateMutability": "view",
      "type": "function"
    },
    {
      "inputs": [
        {
          "internalType": "uint256",
          "name": "",
          "type": "uint256"
        }
      ],
      "name": "pendingExchangeIds",
      "outputs": [
        {
          "internalType": "uint256",
          "name": "",
          "type": "uint256"
        }
      ],
      "stateMutability": "view",
      "type": "function"
    },
    {
      "inputs": [
        {
          "internalType": "bytes32",
          "name": "role",
          "type": "bytes32"
        },
        {
          "internalType": "address",
          "name": "account",
          "type": "address"
        }
      ],
      "name": "renounceRole",
      "outputs": [],
      "stateMutability": "nonpayable",
      "type": "function"
    },
    {
      "inputs": [
        {
          "internalType": "bytes32",
          "name": "role",
          "type": "bytes32"
        },
        {
          "internalType": "address",
          "name": "account",
          "type": "address"
        }
      ],
      "name": "revokeRole",
      "outputs": [],
      "stateMutability": "nonpayable",
      "type": "function"
    },
    {
      "inputs": [
        {
          "internalType": "bytes4",
          "name": "interfaceId",
          "type": "bytes4"
        }
      ],
      "name": "supportsInterface",
      "outputs": [
        {
          "internalType": "bool",
          "name": "",
          "type": "bool"
        }
      ],
      "stateMutability": "view",
      "type": "function"
    },
    {
      "inputs": [
        {
          "internalType": "address",
          "name": "newImplementation",
          "type": "address"
        }
      ],
      "name": "upgradeTo",
      "outputs": [],
      "stateMutability": "nonpayable",
      "type": "function"
    },
    {
      "inputs": [
        {
          "internalType": "address",
          "name": "newImplementation",
          "type": "address"
        },
        {
          "internalType": "bytes",
          "name": "data",
          "type": "bytes"
        }
      ],
      "name": "upgradeToAndCall",
      "outputs": [],
      "stateMutability": "payable",
      "type": "function"
    },
    {
      "inputs": [
        {
          "internalType": "contract IERC20Upgradeable",
          "name": "_token",
          "type": "address"
        },
        {
          "internalType": "contract Meland1155MELDFuture",
          "name": "_melandMELDFuture",
          "type": "address"
        },
        {
          "internalType": "address",
          "name": "_officialWallet",
          "type": "address"
        },
        {
          "internalType": "address",
          "name": "_foundationWallet",
          "type": "address"
        },
        {
          "internalType": "address",
          "name": "_bidbackWallet",
          "type": "address"
        },
        {
          "internalType": "uint256",
          "name": "_ownerCutPerMillion",
          "type": "uint256"
        }
      ],
      "name": "initialize",
      "outputs": [],
      "stateMutability": "nonpayable",
      "type": "function"
    },
    {
      "inputs": [],
      "name": "getPendingExchangeId",
      "outputs": [
        {
          "internalType": "uint256",
          "name": "",
          "type": "uint256"
        }
      ],
      "stateMutability": "view",
      "type": "function"
    },
    {
      "inputs": [],
      "name": "getPendingDepositId",
      "outputs": [
        {
          "internalType": "uint256",
          "name": "",
          "type": "uint256"
        }
      ],
      "stateMutability": "view",
      "type": "function"
    },
    {
      "inputs": [
        {
          "internalType": "uint256",
          "name": "amountMELD",
          "type": "uint256"
        }
      ],
      "name": "exchange",
      "outputs": [],
      "stateMutability": "nonpayable",
      "type": "function"
    },
    {
      "inputs": [
        {
          "internalType": "uint256",
          "name": "exchangeId",
          "type": "uint256"
        },
        {
          "internalType": "uint256",
          "name": "ditaminAmount",
          "type": "uint256"
        }
      ],
      "name": "exchangePay",
      "outputs": [],
      "stateMutability": "nonpayable",
      "type": "function"
    },
    {
      "inputs": [
        {
          "internalType": "uint256",
          "name": "exchangeId",
          "type": "uint256"
        },
        {
          "internalType": "string",
          "name": "message",
          "type": "string"
        }
      ],
      "name": "exchangeFailed",
      "outputs": [],
      "stateMutability": "nonpayable",
      "type": "function"
    },
    {
      "inputs": [
        {
          "internalType": "uint256",
          "name": "amountMELD",
          "type": "uint256"
        }
      ],
      "name": "deposit",
      "outputs": [],
      "stateMutability": "nonpayable",
      "type": "function"
    },
    {
      "inputs": [
        {
          "internalType": "uint256",
          "name": "depositId",
          "type": "uint256"
        },
        {
          "internalType": "uint256",
          "name": "ditaminAmount",
          "type": "uint256"
        }
      ],
      "name": "depositPay",
      "outputs": [],
      "stateMutability": "nonpayable",
      "type": "function"
    },
    {
      "inputs": [
        {
          "internalType": "uint256",
          "name": "depositId",
          "type": "uint256"
        },
        {
          "internalType": "string",
          "name": "message",
          "type": "string"
        }
      ],
      "name": "depositFailed",
      "outputs": [],
      "stateMutability": "nonpayable",
      "type": "function"
    },
    {
      "inputs": [
        {
          "internalType": "uint256",
          "name": "_limit",
          "type": "uint256"
        }
      ],
      "name": "updateMELDLimit",
      "outputs": [],
      "stateMutability": "nonpayable",
      "type": "function"
    }
  ],
  "bytecode": "0x60a06040523060805234801561001457600080fd5b5060805161370261004560003960008181610f2201528181610f62015281816115e8015261162801526137026000f3fe60806040526004361061020f5760003560e01c80637b818a6911610118578063aabbd117116100a0578063d547741f1161006f578063d547741f14610658578063f25d07e314610678578063f69bac6214610698578063f72c0d8b146106ad578063fc3b624e146106e157600080fd5b8063aabbd117146105ce578063b6b55f25146105ee578063d4c273501461060e578063d53913931461062457600080fd5b806391d14854116100e757806391d148541461054357806395b6ef0c14610563578063983e887c14610583578063a01f79d4146105a3578063a217fddf146105b957600080fd5b80637b818a69146104bc5780637e33e930146104ed5780638100c96a14610502578063918377561461052357600080fd5b80633659cfe61161019b5780634f1ef2861161016a5780634f1ef28614610429578063535565591461043c5780636b7ae8dc1461045c5780636d6b1fbd1461047c57806376d1f1ab1461049c57600080fd5b80633659cfe61461039557806336e4f60f146103b5578063451c3d80146103e85780634e4fdde81461040957600080fd5b806316160018116101e257806316160018146102d1578063248a9ca3146102f15780632f2ff15d1461032157806330c7be2c1461034157806336568abe1461037557600080fd5b806301ffc9a7146102145780630809d1d414610249578063088025d314610277578063096593ee146102af575b600080fd5b34801561022057600080fd5b5061023461022f366004612fdf565b610703565b60405190151581526020015b60405180910390f35b34801561025557600080fd5b50610269610264366004613009565b61073a565b604051908152602001610240565b34801561028357600080fd5b5060fc54610297906001600160a01b031681565b6040516001600160a01b039091168152602001610240565b3480156102bb57600080fd5b506102cf6102ca3660046130ae565b61075c565b005b3480156102dd57600080fd5b506102cf6102ec366004613109565b610aa9565b3480156102fd57600080fd5b5061026961030c366004613009565b60009081526065602052604090206001015490565b34801561032d57600080fd5b506102cf61033c366004613140565b610e6e565b34801561034d57600080fd5b506102697ff5eb84615c2a00ecaf817d13794ebd6299c9e01c395bf4018453f13f577f544981565b34801561038157600080fd5b506102cf610390366004613140565b610e99565b3480156103a157600080fd5b506102cf6103b0366004613170565b610f17565b3480156103c157600080fd5b506103d56103d0366004613009565b610fe0565b60405161024097969594939291906131e9565b3480156103f457600080fd5b5061010254610297906001600160a01b031681565b34801561041557600080fd5b506102cf610424366004613109565b6110b2565b6102cf610437366004613235565b6115dd565b34801561044857600080fd5b506102cf610457366004613009565b611693565b34801561046857600080fd5b5060fb54610297906001600160a01b031681565b34801561048857600080fd5b5061026961049736600461326f565b611c8e565b3480156104a857600080fd5b506102cf6104b73660046130ae565b611ccd565b3480156104c857600080fd5b506102346104d7366004613170565b6101076020526000908152604090205460ff1681565b3480156104f957600080fd5b50610269611fce565b34801561050e57600080fd5b5061010354610297906001600160a01b031681565b34801561052f57600080fd5b5061026961053e366004613009565b611ff5565b34801561054f57600080fd5b5061023461055e366004613140565b612006565b34801561056f57600080fd5b506102cf61057e3660046132a4565b612031565b34801561058f57600080fd5b506102cf61059e366004613009565b612168565b3480156105af57600080fd5b5061026960fe5481565b3480156105c557600080fd5b50610269600081565b3480156105da57600080fd5b5060fd54610297906001600160a01b031681565b3480156105fa57600080fd5b506102cf610609366004613009565b61219c565b34801561061a57600080fd5b5061026960ff5481565b34801561063057600080fd5b506102697f9f2df0fed2c77648de5860a4cc508cd0818c85b8b8a1ab4ceeef8d981c8956a681565b34801561066457600080fd5b506102cf610673366004613140565b6124b6565b34801561068457600080fd5b506103d5610693366004613009565b6124dc565b3480156106a457600080fd5b5061026961252b565b3480156106b957600080fd5b506102697f189ab7a9244df0848122154315af71fe140f3db0fe014031783b0946b8c9d2e381565b3480156106ed57600080fd5b5061026960008051602061368683398151915281565b60006001600160e01b03198216637965db0b60e01b148061073457506301ffc9a760e01b6001600160e01b03198316145b92915050565b610108818154811061074b57600080fd5b600091825260209091200154905081565b6000805160206136868339815191526107758133612542565b600083815261010560209081526040808320815160e0810183528154815260018201549381019390935260028101546001600160a01b0316918301919091526003810154606083015260048101546080830152600581015460a083015260068101805460c0840191906107e79061331d565b80601f01602080910402602001604051908101604052809291908181526020018280546108139061331d565b80156108605780601f1061083557610100808354040283529160200191610860565b820191906000526020600020905b81548152906001019060200180831161084357829003601f168201915b505050505081525050905080608001516000146108985760405162461bcd60e51b815260040161088f90613358565b60405180910390fd5b60a0810151156108dc5760405162461bcd60e51b815260206004820152600f60248201526e115e18da185b99d94819985a5b1959608a1b604482015260640161088f565b80516108fa5760405162461bcd60e51b815260040161088f90613384565b604081810180516001600160a01b0390811660009081526101076020908152848220805460ff1916905560c086018881524260a088019081528a84526101058352959092208651815581870151600182015593516002850180546001600160a01b0319169190941617909255606085015160038401556080850151600484015592516005830155915180518493610998926006850192910190612f46565b505061010854600091506109ae906001906133d1565b9050600061010882815481106109c6576109c66133e8565b906000526020600020015490506000805b61010854811015610a1e578761010882815481106109f7576109f76133e8565b90600052602060002001541415610a0c578091505b80610a16816133fe565b9150506109d7565b50816101088281548110610a3457610a346133e8565b600091825260209091200155610108805480610a5257610a52613419565b60019003818190600052602060002001600090559055505050837fcdd57e6cab08472a05c6cc7904e84a5aa1a42bfdf81a02ae5f9470672db5c1a684604051610a9b919061342f565b60405180910390a250505050565b600080516020613686833981519152610ac28133612542565b600083815261010660209081526040808320815160e0810183528154815260018201549381019390935260028101546001600160a01b0316918301919091526003810154606083015260048101546080830152600581015460a083015260068101805460c084019190610b349061331d565b80601f0160208091040260200160405190810160405280929190818152602001828054610b609061331d565b8015610bad5780601f10610b8257610100808354040283529160200191610bad565b820191906000526020600020905b815481529060010190602001808311610b9057829003601f168201915b50505050508152505090508060800151600014610bdc5760405162461bcd60e51b815260040161088f90613358565b60a081015115610c1f5760405162461bcd60e51b815260206004820152600e60248201526d11195c1bdcda5d0819985a5b195960921b604482015260640161088f565b8051610c3d5760405162461bcd60e51b815260040161088f90613384565b4260808201908152606082018481526000868152610106602090815260409182902085518155818601516001820155918501516002830180546001600160a01b0319166001600160a01b03909216919091179055915160038201559151600483015560a0830151600583015560c08301518051849392610cc4926006850192910190612f46565b5050610102546001600160a01b0316905063a9059cbb3360208401516040516001600160e01b031960e085901b1681526001600160a01b0390921660048301526024820152604401602060405180830381600087803b158015610d2657600080fd5b505af1158015610d3a573d6000803e3d6000fd5b505050506040513d601f19601f82011682018060405250810190610d5e9190613442565b5061010954600090610d72906001906133d1565b905060006101098281548110610d8a57610d8a6133e8565b906000526020600020015490506000805b61010954811015610de257876101098281548110610dbb57610dbb6133e8565b90600052602060002001541415610dd0578091505b80610dda816133fe565b915050610d9b565b50816101098281548110610df857610df86133e8565b600091825260209091200155610109805480610e1657610e16613419565b600190038181906000526020600020016000905590555050507f0d2cdd19f94f06ba428588d10abaf80425f5507245d9b94c98c93cf484ef463284604051610e6091815260200190565b60405180910390a150505050565b600082815260656020526040902060010154610e8a8133612542565b610e9483836125a6565b505050565b6001600160a01b0381163314610f095760405162461bcd60e51b815260206004820152602f60248201527f416363657373436f6e74726f6c3a2063616e206f6e6c792072656e6f756e636560448201526e103937b632b9903337b91039b2b63360891b606482015260840161088f565b610f13828261262c565b5050565b306001600160a01b037f0000000000000000000000000000000000000000000000000000000000000000161415610f605760405162461bcd60e51b815260040161088f90613464565b7f00000000000000000000000000000000000000000000000000000000000000006001600160a01b0316610f92612693565b6001600160a01b031614610fb85760405162461bcd60e51b815260040161088f906134b0565b610fc1816126c1565b60408051600080825260208201909252610fdd918391906126ec565b50565b610105602052600090815260409020805460018201546002830154600384015460048501546005860154600687018054969795966001600160a01b039095169593949293919261102f9061331d565b80601f016020809104026020016040519081016040528092919081815260200182805461105b9061331d565b80156110a85780601f1061107d576101008083540402835291602001916110a8565b820191906000526020600020905b81548152906001019060200180831161108b57829003601f168201915b5050505050905087565b6000805160206136868339815191526110cb8133612542565b600083815261010560209081526040808320815160e0810183528154815260018201549381019390935260028101546001600160a01b0316918301919091526003810154606083015260048101546080830152600581015460a083015260068101805460c08401919061113d9061331d565b80601f01602080910402602001604051908101604052809291908181526020018280546111699061331d565b80156111b65780601f1061118b576101008083540402835291602001916111b6565b820191906000526020600020905b81548152906001019060200180831161119957829003601f168201915b505050505081525050905080608001516000146111e55760405162461bcd60e51b815260040161088f90613358565b60a0810151156112295760405162461bcd60e51b815260206004820152600f60248201526e115e18da185b99d94819985a5b1959608a1b604482015260640161088f565b80516112475760405162461bcd60e51b815260040161088f90613384565b6020810151610102546001600160a01b03166370a08231336040516001600160e01b031960e084901b1681526001600160a01b03909116600482015260240160206040518083038186803b15801561129e57600080fd5b505afa1580156112b2573d6000803e3d6000fd5b505050506040513d601f19601f820116820180604052508101906112d691906134fc565b116113235760405162461bcd60e51b815260206004820152601c60248201527f496e73756666696369656e74207061796d656e742062616c616e636500000000604482015260640161088f565b604081810180516001600160a01b0390811660009081526101076020908152848220805460ff191690556060860188815242608088019081528a84526101058352959092208651815581870151600182015593516002850180546001600160a01b03191691909416179092555160038301559151600482015560a0830151600582015560c0830151805184936113c0926006850192910190612f46565b50506101025460208301516040516323b872dd60e01b81526001600160a01b0390921692506323b872dd916113fc913391309190600401613515565b602060405180830381600087803b15801561141657600080fd5b505af115801561142a573d6000803e3d6000fd5b505050506040513d601f19601f8201168201806040525081019061144e9190613442565b5061010354610102546040838101516020850151915163a085f19360e01b81526001600160a01b039384166004820152908316602482015260448101919091526001606482015262127500608482015291169063a085f1939060a401600060405180830381600087803b1580156114c457600080fd5b505af11580156114d8573d6000803e3d6000fd5b505061010854600092506114ef91506001906133d1565b905060006101088281548110611507576115076133e8565b906000526020600020015490506000805b6101085481101561155f57876101088281548110611538576115386133e8565b9060005260206000200154141561154d578091505b80611557816133fe565b915050611518565b50816101088281548110611575576115756133e8565b60009182526020909120015561010880548061159357611593613419565b600190038181906000526020600020016000905590555050507f2dfb5377a4c384f220c62ce7d7caefab0ad3a944dacb1aa7ff6619a92ea473c384604051610e6091815260200190565b306001600160a01b037f00000000000000000000000000000000000000000000000000000000000000001614156116265760405162461bcd60e51b815260040161088f90613464565b7f00000000000000000000000000000000000000000000000000000000000000006001600160a01b0316611658612693565b6001600160a01b03161461167e5760405162461bcd60e51b815260040161088f906134b0565b611687826126c1565b610f13828260016126ec565b68056bc75e2d6310000081116116eb5760405162461bcd60e51b815260206004820152601f60248201527f4d696e696d756d2031303020706965636573207065722065786368616e676500604482015260640161088f565b60006116f5612837565b905060ff54670de0b6b3a764000061170d9190613539565b82611718338461284b565b6117229190613558565b11156117825760405162461bcd60e51b815260206004820152602960248201527f416c726561647920657863656564656420746f64617927732072656465656d61604482015268189b19481b1a5b5a5d60ba1b606482015260840161088f565b336000908152610107602052604090205460ff16156117e35760405162461bcd60e51b815260206004820152601e60248201527f596f75206861766520612065786368616e676520696e2070656e64696e670000604482015260640161088f565b33600090815261010760205260409020805460ff1916600117905560fe5415611af557600061182a620f424061182460fe5486612a2790919063ffffffff16565b90612a3a565b9050600061183e6064611824846028612a27565b905060006118526064611824856028612a27565b905060006118666064611824866014612a27565b6101025460fd546040516323b872dd60e01b81529293506001600160a01b03918216926323b872dd926118a29233929116908890600401613515565b602060405180830381600087803b1580156118bc57600080fd5b505af11580156118d0573d6000803e3d6000fd5b505050506040513d601f19601f820116820180604052508101906118f49190613442565b50610102546001600160a01b03166323b872dd3360fb546040516001600160e01b031960e085901b16815261193892916001600160a01b0316908790600401613515565b602060405180830381600087803b15801561195257600080fd5b505af1158015611966573d6000803e3d6000fd5b505050506040513d601f19601f8201168201806040525081019061198a9190613442565b6119f05760405162461bcd60e51b815260206004820152603160248201527f48616e646c696e6720666565207472616e7366657220746f20666f756e646174604482015270696f6e57616c6c6574206661696c75726560781b606482015260840161088f565b610102546001600160a01b03166323b872dd3360fc546040516001600160e01b031960e085901b168152611a3392916001600160a01b0316908690600401613515565b602060405180830381600087803b158015611a4d57600080fd5b505af1158015611a61573d6000803e3d6000fd5b505050506040513d601f19601f82011682018060405250810190611a859190613442565b611af05760405162461bcd60e51b815260206004820152603660248201527f48616e646c696e6720666565207472616e7366657220746f206f6666696369616044820152756c57616c6c657420746f206f6666206661696c75726560501b606482015260840161088f565b505050505b60006040518060e00160405280428152602001848152602001611b153390565b6001600160a01b03168152602001600081526020016000815260200160008152602001604051806020016040528060008152508152509050611b5c61010080546001019055565b6000611b686101005490565b6000818152610105602090815260409182902085518155858201516001820155918501516002830180546001600160a01b0319166001600160a01b03909216919091179055606085015160038301556080850151600483015560a0850151600583015560c085015180519394508593611be79260068501920190612f46565b509050506101046000611bf73390565b6001600160a01b0316815260208082019290925260409081016000908120868252835281812080546001808201835591835284832001859055610108805491820181559091527f8543e9adbfbe1f62b7411fdf032fcfea758a7d6b332f64d971a1334c2ff364dd01839055518281527f11d92a0857878af15713bca494b98c6a4b566d1abbb0db6de15370430d4b4ebd9101610e60565b6101046020528260005260406000206020528160005260406000208181548110611cb757600080fd5b9060005260206000200160009250925050505481565b600080516020613686833981519152611ce68133612542565b600083815261010660209081526040808320815160e0810183528154815260018201549381019390935260028101546001600160a01b0316918301919091526003810154606083015260048101546080830152600581015460a083015260068101805460c084019190611d589061331d565b80601f0160208091040260200160405190810160405280929190818152602001828054611d849061331d565b8015611dd15780601f10611da657610100808354040283529160200191611dd1565b820191906000526020600020905b815481529060010190602001808311611db457829003601f168201915b50505050508152505090508060800151600014611e275760405162461bcd60e51b815260206004820152601460248201527311195c1bdcda5d08185b1c9958591e481c185a5960621b604482015260640161088f565b8051611e455760405162461bcd60e51b815260040161088f90613384565b4260a0820190815260c082018481526000868152610106602090815260409182902085518155818601516001820155918501516002830180546001600160a01b0319166001600160a01b03909216919091179055606085015160038301556080850151600483015592516005820155905180518493611ecb926006850192910190612f46565b50506101095460009150611ee1906001906133d1565b905060006101098281548110611ef957611ef96133e8565b906000526020600020015490506000805b61010954811015611f5157876101098281548110611f2a57611f2a6133e8565b90600052602060002001541415611f3f578091505b80611f49816133fe565b915050611f0a565b50816101098281548110611f6757611f676133e8565b600091825260209091200155610109805480611f8557611f85613419565b60019003818190600052602060002001600090559055505050837feb6842f8c41d6de1b391a69b098391511693a0fece5ce81eebdc52828ca41dd784604051610a9b919061342f565b6000610109600081548110611fe557611fe56133e8565b9060005260206000200154905090565b610109818154811061074b57600080fd5b60009182526065602090815260408084206001600160a01b0393909316845291905290205460ff1690565b600054610100900460ff1661204c5760005460ff1615612050565b303b155b6120b35760405162461bcd60e51b815260206004820152602e60248201527f496e697469616c697a61626c653a20636f6e747261637420697320616c72656160448201526d191e481a5b9a5d1a585b1a5e995960921b606482015260840161088f565b600054610100900460ff161580156120d5576000805461ffff19166101011790555b61010280546001600160a01b03199081166001600160a01b038a8116919091179092556101038054821689841617905560fe84905560fd8054821686841617905560fb8054821687841617905560fc805490911691871691909117905561213d612710612a46565b612145612a81565b61214d612aba565b801561215f576000805461ff00191690555b50505050505050565b7ff5eb84615c2a00ecaf817d13794ebd6299c9e01c395bf4018453f13f577f54496121938133612542565b610f1382612a46565b68056bc75e2d6310000081116121f45760405162461bcd60e51b815260206004820152601f60248201527f4d696e696d756d2031303020706965636573207065722065786368616e676500604482015260640161088f565b6101025481906001600160a01b03166370a08231336040516001600160e01b031960e084901b1681526001600160a01b03909116600482015260240160206040518083038186803b15801561224857600080fd5b505afa15801561225c573d6000803e3d6000fd5b505050506040513d601f19601f8201168201806040525081019061228091906134fc565b116122cd5760405162461bcd60e51b815260206004820152601c60248201527f496e73756666696369656e74207061796d656e742062616c616e636500000000604482015260640161088f565b610102546001600160a01b03166323b872dd3330846040518463ffffffff1660e01b815260040161230093929190613515565b602060405180830381600087803b15801561231a57600080fd5b505af115801561232e573d6000803e3d6000fd5b505050506040513d601f19601f820116820180604052508101906123529190613442565b5060006040518060e001604052804281526020018381526020016123733390565b6001600160a01b031681526020016000815260200160008152602001600081526020016040518060200160405280600081525081525090506123ba61010180546001019055565b60006123c66101015490565b6000818152610106602090815260409182902085518155858201516001820155918501516002830180546001600160a01b0319166001600160a01b03909216919091179055606085015160038301556080850151600483015560a0850151600583015560c0850151805193945085936124459260068501920190612f46565b505061010980546001810182556000919091527fd7f48d1c2d4fdcceabee32a4fd1437f382c65f0f9af09a878c95c20147dc06a801829055506040518181527f4d6ce1e535dbade1c23defba91e23b8f791ce5edc0cc320257a2b364e4e384269060200160405180910390a1505050565b6000828152606560205260409020600101546124d28133612542565b610e94838361262c565b610106602052600090815260409020805460018201546002830154600384015460048501546005860154600687018054969795966001600160a01b039095169593949293919261102f9061331d565b6000610108600081548110611fe557611fe56133e8565b61254c8282612006565b610f1357612564816001600160a01b03166014612b4b565b61256f836020612b4b565b604051602001612580929190613570565b60408051601f198184030181529082905262461bcd60e51b825261088f9160040161342f565b6125b08282612006565b610f135760008281526065602090815260408083206001600160a01b03851684529091529020805460ff191660011790556125e83390565b6001600160a01b0316816001600160a01b0316837f2f8788117e7eff1d82e926ec794901d17c78024a50270940304540a733656f0d60405160405180910390a45050565b6126368282612006565b15610f135760008281526065602090815260408083206001600160a01b0385168085529252808320805460ff1916905551339285917ff6391f5c32d9c69d2a47ea670b442974b53935d1edc7fd64eb21e047a839171b9190a45050565b7f360894a13ba1a3210667c828492db98dca3e2076cc3735a920a3ca505d382bbc546001600160a01b031690565b7f189ab7a9244df0848122154315af71fe140f3db0fe014031783b0946b8c9d2e3610f138133612542565b60006126f6612693565b905061270184612ce7565b60008351118061270e5750815b1561271f5761271d8484612d8c565b505b7f4910fdfa16fed3260ed0e7147f7cc6da11a60208b5b9406d12a635614ffd9143805460ff1661283057805460ff191660011781556040516001600160a01b038316602482015261279e90869060440160408051601f198184030181529190526020810180516001600160e01b0316631b2ce7f360e11b179052612d8c565b50805460ff191681556127af612693565b6001600160a01b0316826001600160a01b0316146128275760405162461bcd60e51b815260206004820152602f60248201527f45524331393637557067726164653a207570677261646520627265616b73206660448201526e75727468657220757067726164657360881b606482015260840161088f565b61283085612e77565b5050505050565b600061284662015180426135e5565b905090565b6001600160a01b0382166000908152610104602090815260408083208484528252808320805482518185028101850190935280835284938301828280156128b157602002820191906000526020600020905b81548152602001906001019080831161289d575b50505050509050600080600090505b8251811015612a1e57600061010560008584815181106128e2576128e26133e8565b602002602001015181526020019081526020016000206040518060e001604052908160008201548152602001600182015481526020016002820160009054906101000a90046001600160a01b03166001600160a01b03166001600160a01b031681526020016003820154815260200160048201548152602001600582015481526020016006820180546129749061331d565b80601f01602080910402602001604051908101604052809291908181526020018280546129a09061331d565b80156129ed5780601f106129c2576101008083540402835291602001916129ed565b820191906000526020600020905b8154815290600101906020018083116129d057829003601f168201915b5050505050815250509050806020015183612a089190613558565b9250508080612a16906133fe565b9150506128c0565b50949350505050565b6000612a338284613539565b9392505050565b6000612a3382846135e5565b60ff8190556040518181527f3b24ade2863d68d94bc0ef455c5abf3f240b69d4728d269b1a33c0141224609b9060200160405180910390a150565b600054610100900460ff16612aa85760405162461bcd60e51b815260040161088f90613607565b612ab0612eb7565b612ab8612eb7565b565b612ac2612ede565b612acd6000336125a6565b612af77ff5eb84615c2a00ecaf817d13794ebd6299c9e01c395bf4018453f13f577f5449336125a6565b612b217f9f2df0fed2c77648de5860a4cc508cd0818c85b8b8a1ab4ceeef8d981c8956a6336125a6565b612ab87f189ab7a9244df0848122154315af71fe140f3db0fe014031783b0946b8c9d2e3336125a6565b60606000612b5a836002613539565b612b65906002613558565b67ffffffffffffffff811115612b7d57612b7d613022565b6040519080825280601f01601f191660200182016040528015612ba7576020820181803683370190505b509050600360fc1b81600081518110612bc257612bc26133e8565b60200101906001600160f81b031916908160001a905350600f60fb1b81600181518110612bf157612bf16133e8565b60200101906001600160f81b031916908160001a9053506000612c15846002613539565b612c20906001613558565b90505b6001811115612c98576f181899199a1a9b1b9c1cb0b131b232b360811b85600f1660108110612c5457612c546133e8565b1a60f81b828281518110612c6a57612c6a6133e8565b60200101906001600160f81b031916908160001a90535060049490941c93612c9181613652565b9050612c23565b508315612a335760405162461bcd60e51b815260206004820181905260248201527f537472696e67733a20686578206c656e67746820696e73756666696369656e74604482015260640161088f565b803b612d4b5760405162461bcd60e51b815260206004820152602d60248201527f455243313936373a206e657720696d706c656d656e746174696f6e206973206e60448201526c1bdd08184818dbdb9d1c9858dd609a1b606482015260840161088f565b7f360894a13ba1a3210667c828492db98dca3e2076cc3735a920a3ca505d382bbc80546001600160a01b0319166001600160a01b0392909216919091179055565b6060823b612deb5760405162461bcd60e51b815260206004820152602660248201527f416464726573733a2064656c65676174652063616c6c20746f206e6f6e2d636f6044820152651b9d1c9858dd60d21b606482015260840161088f565b600080846001600160a01b031684604051612e069190613669565b600060405180830381855af49150503d8060008114612e41576040519150601f19603f3d011682016040523d82523d6000602084013e612e46565b606091505b5091509150612e6e82826040518060600160405280602781526020016136a660279139612f0d565b95945050505050565b612e8081612ce7565b6040516001600160a01b038216907fbc7cd75a20ee27fd9adebab32041f755214dbc6bffa90cc0225b39da2e5c2d3b90600090a250565b600054610100900460ff16612ab85760405162461bcd60e51b815260040161088f90613607565b600054610100900460ff16612f055760405162461bcd60e51b815260040161088f90613607565b612aa8612eb7565b60608315612f1c575081612a33565b825115612f2c5782518084602001fd5b8160405162461bcd60e51b815260040161088f919061342f565b828054612f529061331d565b90600052602060002090601f016020900481019282612f745760008555612fba565b82601f10612f8d57805160ff1916838001178555612fba565b82800160010185558215612fba579182015b82811115612fba578251825591602001919060010190612f9f565b50612fc6929150612fca565b5090565b5b80821115612fc65760008155600101612fcb565b600060208284031215612ff157600080fd5b81356001600160e01b031981168114612a3357600080fd5b60006020828403121561301b57600080fd5b5035919050565b634e487b7160e01b600052604160045260246000fd5b600067ffffffffffffffff8084111561305357613053613022565b604051601f8501601f19908116603f0116810190828211818310171561307b5761307b613022565b8160405280935085815286868601111561309457600080fd5b858560208301376000602087830101525050509392505050565b600080604083850312156130c157600080fd5b82359150602083013567ffffffffffffffff8111156130df57600080fd5b8301601f810185136130f057600080fd5b6130ff85823560208401613038565b9150509250929050565b6000806040838503121561311c57600080fd5b50508035926020909101359150565b6001600160a01b0381168114610fdd57600080fd5b6000806040838503121561315357600080fd5b8235915060208301356131658161312b565b809150509250929050565b60006020828403121561318257600080fd5b8135612a338161312b565b60005b838110156131a8578181015183820152602001613190565b838111156131b7576000848401525b50505050565b600081518084526131d581602086016020860161318d565b601f01601f19169290920160200192915050565b87815286602082015260018060a01b03861660408201528460608201528360808201528260a082015260e060c0820152600061322860e08301846131bd565b9998505050505050505050565b6000806040838503121561324857600080fd5b82356132538161312b565b9150602083013567ffffffffffffffff8111156130df57600080fd5b60008060006060848603121561328457600080fd5b833561328f8161312b565b95602085013595506040909401359392505050565b60008060008060008060c087890312156132bd57600080fd5b86356132c88161312b565b955060208701356132d88161312b565b945060408701356132e88161312b565b935060608701356132f88161312b565b925060808701356133088161312b565b8092505060a087013590509295509295509295565b600181811c9082168061333157607f821691505b6020821081141561335257634e487b7160e01b600052602260045260246000fd5b50919050565b6020808252601290820152714475706c6963617465207061796d656e747360701b604082015260600190565b6020808252601a908201527f4e6f7420666f756e642065786368616e6765207265636f726473000000000000604082015260600190565b634e487b7160e01b600052601160045260246000fd5b6000828210156133e3576133e36133bb565b500390565b634e487b7160e01b600052603260045260246000fd5b6000600019821415613412576134126133bb565b5060010190565b634e487b7160e01b600052603160045260246000fd5b602081526000612a3360208301846131bd565b60006020828403121561345457600080fd5b81518015158114612a3357600080fd5b6020808252602c908201527f46756e6374696f6e206d7573742062652063616c6c6564207468726f7567682060408201526b19195b1959d85d1958d85b1b60a21b606082015260800190565b6020808252602c908201527f46756e6374696f6e206d7573742062652063616c6c6564207468726f7567682060408201526b6163746976652070726f787960a01b606082015260800190565b60006020828403121561350e57600080fd5b5051919050565b6001600160a01b039384168152919092166020820152604081019190915260600190565b6000816000190483118215151615613553576135536133bb565b500290565b6000821982111561356b5761356b6133bb565b500190565b7f416363657373436f6e74726f6c3a206163636f756e74200000000000000000008152600083516135a881601785016020880161318d565b7001034b99036b4b9b9b4b733903937b6329607d1b60179184019182015283516135d981602884016020880161318d565b01602801949350505050565b60008261360257634e487b7160e01b600052601260045260246000fd5b500490565b6020808252602b908201527f496e697469616c697a61626c653a20636f6e7472616374206973206e6f74206960408201526a6e697469616c697a696e6760a81b606082015260800190565b600081613661576136616133bb565b506000190190565b6000825161367b81846020870161318d565b919091019291505056fe19d1bb95aa4278ba8d6282dbd4743df4dfa774d51ae7edcf81e834cba5d6803c416464726573733a206c6f772d6c6576656c2064656c65676174652063616c6c206661696c6564a2646970667358221220430e2480a2ada3818926cbbc34660dd6e75d1e9fc668d7cbbb9ad52ecd769ced64736f6c63430008090033",
  "immutableReferences": {
    "1051": [
      {
        "length": 32,
        "start": 3874
      },
      {
        "length": 32,
        "start": 3938
      },
      {
        "length": 32,
        "start": 5608
      },
      {
        "length": 32,
        "start": 5672
      }
    ]
  },
  "source": "// SPDX-License-Identifier: MIT\npragma solidity 0.8.9;\n\nimport \"@openzeppelin/contracts-upgradeable/token/ERC1155/ERC1155Upgradeable.sol\";\nimport \"@openzeppelin/contracts-upgradeable/token/ERC20/IERC20Upgradeable.sol\";\nimport \"@openzeppelin/contracts-upgradeable/access/AccessControlUpgradeable.sol\";\nimport \"@openzeppelin/contracts-upgradeable/token/ERC1155/extensions/ERC1155BurnableUpgradeable.sol\";\nimport \"@openzeppelin/contracts-upgradeable/proxy/utils/Initializable.sol\";\nimport \"@openzeppelin/contracts-upgradeable/proxy/utils/UUPSUpgradeable.sol\";\nimport \"@openzeppelin/contracts-upgradeable/utils/math/SafeMathUpgradeable.sol\";\nimport \"@openzeppelin/contracts-upgradeable/utils/CountersUpgradeable.sol\";\nimport \"./MelandTierAddressStore.sol\";\nimport \"./MelandAccessRoles.sol\";\nimport \"./MelandTier.sol\";\nimport \"./Meland1155MELDFuture.sol\";\n\n// MELD Exchange\n// MELD -> ditamin\n// ditamin -> MELD\n\ncontract MelandExchange is Initializable, MelandAccessRoles, UUPSUpgradeable {\n    using SafeMathUpgradeable for uint256;\n    using CountersUpgradeable for CountersUpgradeable.Counter;\n\n    // 40% ownerCutPerMillion\n    address public foundationWallet;\n\n    // 20% ownerCutPerMillion\n    address public officialWallet;\n\n    // If the acceptedToken is a MELD, We will burn 40% of it,\n    // Else it is another token,\n    // We will credit it to the bidback account, and then periodically buy back and burn it.\n    address public bidbackWallet;\n\n    uint256 public ownerCutPerMillion;\n\n    bytes32 public constant PAYMENT_ROLE = keccak256(\"PAYMENT_ROLE\");\n\n    uint256 public limitEveryDayMELD;\n\n    CountersUpgradeable.Counter private _exchangeMELDCounter;\n    CountersUpgradeable.Counter private _depositDitaminCounter;\n\n    IERC20Upgradeable public acceptedToken;\n\n    Meland1155MELDFuture public melandMELDFuture;\n\n    event MELDLimitUpdate(uint256 newLimit);\n\n    event Deposit(uint256 depositId);\n\n    event DepositPaymentSuccess(uint256 depositId);\n\n    event DepositPaymentFail(uint256 indexed depositId, string message);\n\n    event Exchange(uint256 exchangeId);\n\n    event ExchangePaymentSuccess(uint256 exchangeId);\n\n    event ExchangePaymentFail(uint256 indexed exchangeId, string message);\n\n    // Used to limit the number of redemptions per user per day.\n    mapping(address => mapping(uint256 => uint256[]))\n        public getExchangeMELDIdsByUserAndDay;\n\n    mapping(uint256 => ExchangeMELD) public getExchangeMELDById;\n    mapping(uint256 => DepositDitamin) public getDepositDitaminById;\n\n    //\n    mapping(address => bool) public lockedByUser;\n\n    // Exchange ids awaiting payment\n    uint256[] public pendingExchangeIds;\n\n    // Deposit ids awaiting payment\n    uint256[] public pendingDepositIds;\n\n    struct ExchangeMELD {\n        uint256 exchangedAt;\n        uint256 amountOfMELD;\n        address beneficiary;\n        uint256 paymentDitamin;\n        uint256 paymentAt;\n        uint256 failedAt;\n        string failedMessage;\n    }\n\n    struct DepositDitamin {\n        uint256 depositedAt;\n        uint256 amountOfMELD;\n        address beneficiary;\n        uint256 paymentDitamin;\n        uint256 paymentAt;\n        uint256 failedAt;\n        string failedMessage;\n    }\n\n    function initialize(\n        IERC20Upgradeable _token,\n        Meland1155MELDFuture _melandMELDFuture,\n        address _officialWallet,\n        address _foundationWallet,\n        address _bidbackWallet,\n        uint256 _ownerCutPerMillion\n    ) public initializer {\n        acceptedToken = _token;\n        melandMELDFuture = _melandMELDFuture;\n        ownerCutPerMillion = _ownerCutPerMillion;\n        bidbackWallet = _bidbackWallet;\n        foundationWallet = _foundationWallet;\n        officialWallet = _officialWallet;\n        _updateMELDLimit(10000);\n        __UUPSUpgradeable_init();\n        __MelandAccessRoles_init();\n    }\n\n    function getPendingExchangeId() public view returns(uint256) {\n        return pendingExchangeIds[0];\n    }\n\n    function getPendingDepositId() public view returns(uint256) {\n        return pendingDepositIds[0];\n    }\n\n    function getCurrentDay() private view returns (uint256) {\n        return block.timestamp / 86400;\n    }\n\n    function _updateMELDLimit(uint256 _limit) internal {\n        limitEveryDayMELD = _limit;\n        emit MELDLimitUpdate(_limit);\n    }\n\n    function _getTotalAmountByDay(address u, uint256 day)\n        internal\n        view\n        returns (uint256)\n    {\n        uint256[] memory exchangeMELDIds = getExchangeMELDIdsByUserAndDay[u][\n            day\n        ];\n        uint256 totalAmount;\n        for (uint256 i = 0; i < exchangeMELDIds.length; i++) {\n            ExchangeMELD memory exchangeMELD = getExchangeMELDById[\n                exchangeMELDIds[i]\n            ];\n            totalAmount += exchangeMELD.amountOfMELD;\n        }\n        return totalAmount;\n    }\n\n    function exchange(uint256 amountMELD) public {\n        require(amountMELD > 100 * 10**18, \"Minimum 100 pieces per exchange\");\n        uint256 day = getCurrentDay();\n        require(\n            _getTotalAmountByDay(_msgSender(), day) + amountMELD <=\n                limitEveryDayMELD * 10**18,\n            \"Already exceeded today's redeemable limit\"\n        );\n\n        // Prevent runs caused by excessive exchange\n        require(!lockedByUser[_msgSender()], \"You have a exchange in pending\");\n        lockedByUser[_msgSender()] = true;\n\n        // The fee is charged first to prevent malicious exchange attacks\n        // Because the balance of the user's ditamin cannot be verified here,\n        // Malicious redemptions may occur when the user initiates a redemption with only a small amount of gas to pay.\n        // Causes payment congestion\n        {\n            if (ownerCutPerMillion > 0) {\n                // Calculate sale share\n                uint256 saleShareAmount = amountMELD\n                    .mul(ownerCutPerMillion)\n                    .div(1000000);\n\n                // 40% burn in handling fee\n                uint256 burnAmount = saleShareAmount.mul(40).div(100);\n\n                // The other 40% is held by the Foundation\n                uint256 foundationAmount = saleShareAmount.mul(40).div(100);\n\n                // The last 20% are official earnings\n                uint256 officialAmount = saleShareAmount.mul(20).div(100);\n\n                // transfer to bidback wallet when burn failed.\n                acceptedToken.transferFrom(\n                    _msgSender(),\n                    bidbackWallet,\n                    burnAmount\n                );\n\n                require(\n                    acceptedToken.transferFrom(\n                        _msgSender(),\n                        foundationWallet,\n                        foundationAmount\n                    ),\n                    \"Handling fee transfer to foundationWallet failure\"\n                );\n                require(\n                    acceptedToken.transferFrom(\n                        _msgSender(),\n                        officialWallet,\n                        officialAmount\n                    ),\n                    \"Handling fee transfer to officialWallet to off failure\"\n                );\n            }\n        }\n\n        ExchangeMELD memory exchangeMELD = ExchangeMELD(\n            block.timestamp,\n            amountMELD,\n            _msgSender(),\n            0,\n            0,\n            0,\n            \"\"\n        );\n        _exchangeMELDCounter.increment();\n        uint256 exchId = _exchangeMELDCounter.current();\n        getExchangeMELDById[exchId] = exchangeMELD;\n        getExchangeMELDIdsByUserAndDay[_msgSender()][day].push(exchId);\n        pendingExchangeIds.push(exchId);\n        emit Exchange(exchId);\n    }\n\n    // Make MELD payment, here you can not need to restrict the permission.\n    // Because the caller needs to pay the MELD fee for this.\n    function exchangePay(uint256 exchangeId, uint256 ditaminAmount) public onlyRole(PAYMENT_ROLE) {\n        ExchangeMELD memory exchangeMELD = getExchangeMELDById[exchangeId];\n        require(exchangeMELD.paymentAt == 0, \"Duplicate payments\");\n        require(exchangeMELD.failedAt == 0, \"Exchange failed\");\n        require(exchangeMELD.exchangedAt > 0, \"Not found exchange records\");\n        require(\n            acceptedToken.balanceOf(_msgSender()) > exchangeMELD.amountOfMELD,\n            \"Insufficient payment balance\"\n        );\n        lockedByUser[exchangeMELD.beneficiary] = false;\n        exchangeMELD.paymentDitamin = ditaminAmount;\n        exchangeMELD.paymentAt = block.timestamp;\n        getExchangeMELDById[exchangeId] = exchangeMELD;\n        acceptedToken.transferFrom(\n            _msgSender(),\n            address(this),\n            exchangeMELD.amountOfMELD\n        );\n        melandMELDFuture.mintBatch(\n            acceptedToken,\n            exchangeMELD.beneficiary,\n            exchangeMELD.amountOfMELD,\n            1,\n            14 days\n        );\n\n        // remove pending\n        {\n            uint256 lastIndex = pendingExchangeIds.length - 1;\n            uint256 lastId = pendingExchangeIds[lastIndex];\n            uint256 index = 0;\n\n            for (uint256 i = 0; i < pendingExchangeIds.length; i ++ ) {\n                if (pendingExchangeIds[i] == exchangeId) {\n                    index = i;\n                }\n            }\n            pendingExchangeIds[index] = lastId;\n            pendingExchangeIds.pop();\n        }\n\n        emit ExchangePaymentSuccess(exchangeId);\n    }\n\n    function exchangeFailed(uint256 exchangeId, string memory message) public onlyRole(PAYMENT_ROLE) {\n        ExchangeMELD memory exchangeMELD = getExchangeMELDById[exchangeId];\n        require(exchangeMELD.paymentAt == 0, \"Duplicate payments\");\n        require(exchangeMELD.failedAt == 0, \"Exchange failed\");\n        require(exchangeMELD.exchangedAt > 0, \"Not found exchange records\");\n\n        lockedByUser[exchangeMELD.beneficiary] = false;\n        exchangeMELD.failedMessage = message;\n        exchangeMELD.failedAt = block.timestamp;\n        getExchangeMELDById[exchangeId] = exchangeMELD;\n\n        // remove pending\n        {\n            uint256 lastIndex = pendingExchangeIds.length - 1;\n            uint256 lastId = pendingExchangeIds[lastIndex];\n            uint256 index = 0;\n\n            for (uint256 i = 0; i < pendingExchangeIds.length; i ++ ) {\n                if (pendingExchangeIds[i] == exchangeId) {\n                    index = i;\n                }\n            }\n            pendingExchangeIds[index] = lastId;\n            pendingExchangeIds.pop();\n        }\n\n        emit ExchangePaymentFail(exchangeId, message);\n    }\n\n    function deposit(uint256 amountMELD) public {\n        require(amountMELD > 100 * 10**18, \"Minimum 100 pieces per exchange\");\n        require(\n            acceptedToken.balanceOf(_msgSender()) > amountMELD,\n            \"Insufficient payment balance\"\n        );\n        acceptedToken.transferFrom(_msgSender(), address(this), amountMELD);\n        DepositDitamin memory depositDitamin = DepositDitamin(\n            block.timestamp,\n            amountMELD,\n            _msgSender(),\n            0,\n            0,\n            0,\n            \"\"\n        );\n        _depositDitaminCounter.increment();\n        uint256 depositId = _depositDitaminCounter.current();\n        getDepositDitaminById[depositId] = depositDitamin;\n        pendingDepositIds.push(depositId);\n        emit Deposit(depositId);\n    }\n\n    // Make a ditamin payment, called by the game server\n    function depositPay(uint256 depositId, uint256 ditaminAmount)\n        public\n        onlyRole(PAYMENT_ROLE)\n    {\n        DepositDitamin memory depositDitamin = getDepositDitaminById[depositId];\n        require(depositDitamin.paymentAt == 0, \"Duplicate payments\");\n        require(depositDitamin.failedAt == 0, \"Deposit failed\");\n        require(depositDitamin.depositedAt > 0, \"Not found exchange records\");\n        depositDitamin.paymentAt = block.timestamp;\n        depositDitamin.paymentDitamin = ditaminAmount;\n        getDepositDitaminById[depositId] = depositDitamin;\n        acceptedToken.transfer(_msgSender(), depositDitamin.amountOfMELD);\n\n        // remove pending\n        {\n            uint256 lastIndex = pendingDepositIds.length - 1;\n            uint256 lastId = pendingDepositIds[lastIndex];\n            uint256 index = 0;\n            for (uint256 i = 0; i < pendingDepositIds.length; i ++ ) {\n                if (pendingDepositIds[i] == depositId) {\n                    index = i;\n                }\n            }\n            pendingDepositIds[index] = lastId;\n            pendingDepositIds.pop();\n        }\n\n        emit DepositPaymentSuccess(depositId);\n    }\n\n    function depositFailed(uint256 depositId, string memory message) public onlyRole(PAYMENT_ROLE) {\n        DepositDitamin memory depositDitamin = getDepositDitaminById[depositId];\n        require(depositDitamin.paymentAt == 0, \"Deposit already paid\");\n        require(depositDitamin.depositedAt > 0, \"Not found exchange records\");\n        depositDitamin.failedAt = block.timestamp;\n        depositDitamin.failedMessage = message;\n        getDepositDitaminById[depositId] = depositDitamin;\n        // remove pending\n        {\n            uint256 lastIndex = pendingDepositIds.length - 1;\n            uint256 lastId = pendingDepositIds[lastIndex];\n            uint256 index = 0;\n\n            for (uint256 i = 0; i < pendingDepositIds.length; i ++ ) {\n                if (pendingDepositIds[i] == depositId) {\n                    index = i;\n                }\n            }\n            pendingDepositIds[index] = lastId;\n            pendingDepositIds.pop();\n        }\n\n        emit DepositPaymentFail(depositId, message);\n    }\n\n    function updateMELDLimit(uint256 _limit) public onlyRole(GM_ROLE) {\n        _updateMELDLimit(_limit);\n    }\n\n    function _authorizeUpgrade(address newImplementation)\n        internal\n        override\n        onlyRole(UPGRADER_ROLE)\n    {}\n}\n",
  "sourcePath": "/Users/alberthuang/code/icw/meland/contracts/MelandExchange.sol",
  "compiler": {
    "name": "solc",
    "version": "0.8.9+commit.e5eed63a.Emscripten.clang"
  },
  "schemaVersion": "3.4.3",
  "updatedAt": "2022-01-05T11:59:38.572Z",
  "devdoc": {
    "kind": "dev",
    "methods": {
      "getRoleAdmin(bytes32)": {
        "details": "Returns the admin role that controls `role`. See {grantRole} and {revokeRole}. To change a role's admin, use {_setRoleAdmin}."
      },
      "grantRole(bytes32,address)": {
        "details": "Grants `role` to `account`. If `account` had not been already granted `role`, emits a {RoleGranted} event. Requirements: - the caller must have ``role``'s admin role."
      },
      "hasRole(bytes32,address)": {
        "details": "Returns `true` if `account` has been granted `role`."
      },
      "renounceRole(bytes32,address)": {
        "details": "Revokes `role` from the calling account. Roles are often managed via {grantRole} and {revokeRole}: this function's purpose is to provide a mechanism for accounts to lose their privileges if they are compromised (such as when a trusted device is misplaced). If the calling account had been revoked `role`, emits a {RoleRevoked} event. Requirements: - the caller must be `account`."
      },
      "revokeRole(bytes32,address)": {
        "details": "Revokes `role` from `account`. If `account` had been granted `role`, emits a {RoleRevoked} event. Requirements: - the caller must have ``role``'s admin role."
      },
      "supportsInterface(bytes4)": {
        "details": "See {IERC165-supportsInterface}."
      },
      "upgradeTo(address)": {
        "details": "Upgrade the implementation of the proxy to `newImplementation`. Calls {_authorizeUpgrade}. Emits an {Upgraded} event."
      },
      "upgradeToAndCall(address,bytes)": {
        "details": "Upgrade the implementation of the proxy to `newImplementation`, and subsequently execute the function call encoded in `data`. Calls {_authorizeUpgrade}. Emits an {Upgraded} event."
      }
    },
    "version": 1
  },
  "userdoc": {
    "kind": "user",
    "methods": {},
    "version": 1
  }
}