{
  "contractName": "Meland1155LandFuture",
  "abi": [
    {
      "anonymous": false,
      "inputs": [
        {
          "indexed": false,
          "internalType": "address",
          "name": "previousAdmin",
          "type": "address"
        },
        {
          "indexed": false,
          "internalType": "address",
          "name": "newAdmin",
          "type": "address"
        }
      ],
      "name": "AdminChanged",
      "type": "event"
    },
    {
      "anonymous": false,
      "inputs": [
        {
          "indexed": true,
          "internalType": "address",
          "name": "account",
          "type": "address"
        },
        {
          "indexed": true,
          "internalType": "address",
          "name": "operator",
          "type": "address"
        },
        {
          "indexed": false,
          "internalType": "bool",
          "name": "approved",
          "type": "bool"
        }
      ],
      "name": "ApprovalForAll",
      "type": "event"
    },
    {
      "anonymous": false,
      "inputs": [
        {
          "indexed": true,
          "internalType": "address",
          "name": "beacon",
          "type": "address"
        }
      ],
      "name": "BeaconUpgraded",
      "type": "event"
    },
    {
      "anonymous": false,
      "inputs": [
        {
          "indexed": false,
          "internalType": "bool",
          "name": "_freezeEnabled",
          "type": "bool"
        }
      ],
      "name": "FreezeEnabledUpdate",
      "type": "event"
    },
    {
      "anonymous": false,
      "inputs": [
        {
          "indexed": true,
          "internalType": "address",
          "name": "_address",
          "type": "address"
        },
        {
          "indexed": false,
          "internalType": "bool",
          "name": "_bool",
          "type": "bool"
        }
      ],
      "name": "FreezeWhiteListUpdate",
      "type": "event"
    },
    {
      "anonymous": false,
      "inputs": [
        {
          "indexed": true,
          "internalType": "bytes32",
          "name": "role",
          "type": "bytes32"
        },
        {
          "indexed": true,
          "internalType": "bytes32",
          "name": "previousAdminRole",
          "type": "bytes32"
        },
        {
          "indexed": true,
          "internalType": "bytes32",
          "name": "newAdminRole",
          "type": "bytes32"
        }
      ],
      "name": "RoleAdminChanged",
      "type": "event"
    },
    {
      "anonymous": false,
      "inputs": [
        {
          "indexed": true,
          "internalType": "bytes32",
          "name": "role",
          "type": "bytes32"
        },
        {
          "indexed": true,
          "internalType": "address",
          "name": "account",
          "type": "address"
        },
        {
          "indexed": true,
          "internalType": "address",
          "name": "sender",
          "type": "address"
        }
      ],
      "name": "RoleGranted",
      "type": "event"
    },
    {
      "anonymous": false,
      "inputs": [
        {
          "indexed": true,
          "internalType": "bytes32",
          "name": "role",
          "type": "bytes32"
        },
        {
          "indexed": true,
          "internalType": "address",
          "name": "account",
          "type": "address"
        },
        {
          "indexed": true,
          "internalType": "address",
          "name": "sender",
          "type": "address"
        }
      ],
      "name": "RoleRevoked",
      "type": "event"
    },
    {
      "anonymous": false,
      "inputs": [
        {
          "indexed": true,
          "internalType": "address",
          "name": "operator",
          "type": "address"
        },
        {
          "indexed": true,
          "internalType": "address",
          "name": "from",
          "type": "address"
        },
        {
          "indexed": true,
          "internalType": "address",
          "name": "to",
          "type": "address"
        },
        {
          "indexed": false,
          "internalType": "uint256[]",
          "name": "ids",
          "type": "uint256[]"
        },
        {
          "indexed": false,
          "internalType": "uint256[]",
          "name": "values",
          "type": "uint256[]"
        }
      ],
      "name": "TransferBatch",
      "type": "event"
    },
    {
      "anonymous": false,
      "inputs": [
        {
          "indexed": true,
          "internalType": "address",
          "name": "operator",
          "type": "address"
        },
        {
          "indexed": true,
          "internalType": "address",
          "name": "from",
          "type": "address"
        },
        {
          "indexed": true,
          "internalType": "address",
          "name": "to",
          "type": "address"
        },
        {
          "indexed": false,
          "internalType": "uint256",
          "name": "id",
          "type": "uint256"
        },
        {
          "indexed": false,
          "internalType": "uint256",
          "name": "value",
          "type": "uint256"
        }
      ],
      "name": "TransferSingle",
      "type": "event"
    },
    {
      "anonymous": false,
      "inputs": [
        {
          "indexed": false,
          "internalType": "string",
          "name": "value",
          "type": "string"
        },
        {
          "indexed": true,
          "internalType": "uint256",
          "name": "id",
          "type": "uint256"
        }
      ],
      "name": "URI",
      "type": "event"
    },
    {
      "anonymous": false,
      "inputs": [
        {
          "indexed": true,
          "internalType": "address",
          "name": "implementation",
          "type": "address"
        }
      ],
      "name": "Upgraded",
      "type": "event"
    },
    {
      "inputs": [],
      "name": "DEFAULT_ADMIN_ROLE",
      "outputs": [
        {
          "internalType": "bytes32",
          "name": "",
          "type": "bytes32"
        }
      ],
      "stateMutability": "view",
      "type": "function",
      "constant": true
    },
    {
      "inputs": [],
      "name": "GM_ROLE",
      "outputs": [
        {
          "internalType": "bytes32",
          "name": "",
          "type": "bytes32"
        }
      ],
      "stateMutability": "view",
      "type": "function",
      "constant": true
    },
    {
      "inputs": [],
      "name": "MINTER_ROLE",
      "outputs": [
        {
          "internalType": "bytes32",
          "name": "",
          "type": "bytes32"
        }
      ],
      "stateMutability": "view",
      "type": "function",
      "constant": true
    },
    {
      "inputs": [],
      "name": "UPGRADER_ROLE",
      "outputs": [
        {
          "internalType": "bytes32",
          "name": "",
          "type": "bytes32"
        }
      ],
      "stateMutability": "view",
      "type": "function",
      "constant": true
    },
    {
      "inputs": [
        {
          "internalType": "string",
          "name": "",
          "type": "string"
        }
      ],
      "name": "acceptedToken",
      "outputs": [
        {
          "internalType": "contract IERC20Upgradeable",
          "name": "",
          "type": "address"
        }
      ],
      "stateMutability": "view",
      "type": "function",
      "constant": true
    },
    {
      "inputs": [
        {
          "internalType": "address",
          "name": "account",
          "type": "address"
        },
        {
          "internalType": "uint256",
          "name": "id",
          "type": "uint256"
        }
      ],
      "name": "balanceOf",
      "outputs": [
        {
          "internalType": "uint256",
          "name": "",
          "type": "uint256"
        }
      ],
      "stateMutability": "view",
      "type": "function",
      "constant": true
    },
    {
      "inputs": [
        {
          "internalType": "address[]",
          "name": "accounts",
          "type": "address[]"
        },
        {
          "internalType": "uint256[]",
          "name": "ids",
          "type": "uint256[]"
        }
      ],
      "name": "balanceOfBatch",
      "outputs": [
        {
          "internalType": "uint256[]",
          "name": "",
          "type": "uint256[]"
        }
      ],
      "stateMutability": "view",
      "type": "function",
      "constant": true
    },
    {
      "inputs": [
        {
          "internalType": "address",
          "name": "account",
          "type": "address"
        },
        {
          "internalType": "uint256",
          "name": "id",
          "type": "uint256"
        },
        {
          "internalType": "uint256",
          "name": "value",
          "type": "uint256"
        }
      ],
      "name": "burn",
      "outputs": [],
      "stateMutability": "nonpayable",
      "type": "function"
    },
    {
      "inputs": [
        {
          "internalType": "address",
          "name": "account",
          "type": "address"
        },
        {
          "internalType": "uint256[]",
          "name": "ids",
          "type": "uint256[]"
        },
        {
          "internalType": "uint256[]",
          "name": "values",
          "type": "uint256[]"
        }
      ],
      "name": "burnBatch",
      "outputs": [],
      "stateMutability": "nonpayable",
      "type": "function"
    },
    {
      "inputs": [
        {
          "internalType": "address",
          "name": "",
          "type": "address"
        }
      ],
      "name": "canBuyListByAddress",
      "outputs": [
        {
          "internalType": "bool",
          "name": "",
          "type": "bool"
        }
      ],
      "stateMutability": "view",
      "type": "function",
      "constant": true
    },
    {
      "inputs": [
        {
          "internalType": "uint256",
          "name": "",
          "type": "uint256"
        }
      ],
      "name": "ereezeExpiredAtMapById",
      "outputs": [
        {
          "internalType": "uint256",
          "name": "",
          "type": "uint256"
        }
      ],
      "stateMutability": "view",
      "type": "function",
      "constant": true
    },
    {
      "inputs": [
        {
          "internalType": "bytes32",
          "name": "role",
          "type": "bytes32"
        }
      ],
      "name": "getRoleAdmin",
      "outputs": [
        {
          "internalType": "bytes32",
          "name": "",
          "type": "bytes32"
        }
      ],
      "stateMutability": "view",
      "type": "function",
      "constant": true
    },
    {
      "inputs": [
        {
          "internalType": "bytes32",
          "name": "role",
          "type": "bytes32"
        },
        {
          "internalType": "address",
          "name": "account",
          "type": "address"
        }
      ],
      "name": "grantRole",
      "outputs": [],
      "stateMutability": "nonpayable",
      "type": "function"
    },
    {
      "inputs": [
        {
          "internalType": "bytes32",
          "name": "role",
          "type": "bytes32"
        },
        {
          "internalType": "address",
          "name": "account",
          "type": "address"
        }
      ],
      "name": "hasRole",
      "outputs": [
        {
          "internalType": "bool",
          "name": "",
          "type": "bool"
        }
      ],
      "stateMutability": "view",
      "type": "function",
      "constant": true
    },
    {
      "inputs": [
        {
          "internalType": "uint256",
          "name": "",
          "type": "uint256"
        }
      ],
      "name": "landtypeById",
      "outputs": [
        {
          "internalType": "string",
          "name": "",
          "type": "string"
        }
      ],
      "stateMutability": "view",
      "type": "function",
      "constant": true
    },
    {
      "inputs": [],
      "name": "melandStoreItems",
      "outputs": [
        {
          "internalType": "string[]",
          "name": "",
          "type": "string[]"
        },
        {
          "internalType": "uint256[]",
          "name": "",
          "type": "uint256[]"
        }
      ],
      "stateMutability": "view",
      "type": "function",
      "constant": true
    },
    {
      "inputs": [
        {
          "internalType": "string",
          "name": "",
          "type": "string"
        }
      ],
      "name": "melandStoreReceipt",
      "outputs": [
        {
          "internalType": "address",
          "name": "receipt",
          "type": "address"
        }
      ],
      "stateMutability": "pure",
      "type": "function",
      "constant": true
    },
    {
      "inputs": [
        {
          "internalType": "string",
          "name": "_a",
          "type": "string"
        }
      ],
      "name": "parseInt",
      "outputs": [
        {
          "internalType": "uint256",
          "name": "_parsedInt",
          "type": "uint256"
        }
      ],
      "stateMutability": "pure",
      "type": "function",
      "constant": true
    },
    {
      "inputs": [
        {
          "internalType": "string",
          "name": "_a",
          "type": "string"
        },
        {
          "internalType": "uint256",
          "name": "_b",
          "type": "uint256"
        }
      ],
      "name": "parseInt",
      "outputs": [
        {
          "internalType": "uint256",
          "name": "_parsedInt",
          "type": "uint256"
        }
      ],
      "stateMutability": "pure",
      "type": "function",
      "constant": true
    },
    {
      "inputs": [
        {
          "internalType": "bytes32",
          "name": "role",
          "type": "bytes32"
        },
        {
          "internalType": "address",
          "name": "account",
          "type": "address"
        }
      ],
      "name": "renounceRole",
      "outputs": [],
      "stateMutability": "nonpayable",
      "type": "function"
    },
    {
      "inputs": [
        {
          "internalType": "bytes32",
          "name": "role",
          "type": "bytes32"
        },
        {
          "internalType": "address",
          "name": "account",
          "type": "address"
        }
      ],
      "name": "revokeRole",
      "outputs": [],
      "stateMutability": "nonpayable",
      "type": "function"
    },
    {
      "inputs": [
        {
          "internalType": "address",
          "name": "from",
          "type": "address"
        },
        {
          "internalType": "address",
          "name": "to",
          "type": "address"
        },
        {
          "internalType": "uint256[]",
          "name": "ids",
          "type": "uint256[]"
        },
        {
          "internalType": "uint256[]",
          "name": "amounts",
          "type": "uint256[]"
        },
        {
          "internalType": "bytes",
          "name": "data",
          "type": "bytes"
        }
      ],
      "name": "safeBatchTransferFrom",
      "outputs": [],
      "stateMutability": "nonpayable",
      "type": "function"
    },
    {
      "inputs": [
        {
          "internalType": "string",
          "name": "_a",
          "type": "string"
        }
      ],
      "name": "safeParseInt",
      "outputs": [
        {
          "internalType": "uint256",
          "name": "_parsedInt",
          "type": "uint256"
        }
      ],
      "stateMutability": "pure",
      "type": "function",
      "constant": true
    },
    {
      "inputs": [
        {
          "internalType": "string",
          "name": "_a",
          "type": "string"
        },
        {
          "internalType": "uint256",
          "name": "_b",
          "type": "uint256"
        }
      ],
      "name": "safeParseInt",
      "outputs": [
        {
          "internalType": "uint256",
          "name": "_parsedInt",
          "type": "uint256"
        }
      ],
      "stateMutability": "pure",
      "type": "function",
      "constant": true
    },
    {
      "inputs": [
        {
          "internalType": "address",
          "name": "from",
          "type": "address"
        },
        {
          "internalType": "address",
          "name": "to",
          "type": "address"
        },
        {
          "internalType": "uint256",
          "name": "id",
          "type": "uint256"
        },
        {
          "internalType": "uint256",
          "name": "amount",
          "type": "uint256"
        },
        {
          "internalType": "bytes",
          "name": "data",
          "type": "bytes"
        }
      ],
      "name": "safeTransferFrom",
      "outputs": [],
      "stateMutability": "nonpayable",
      "type": "function"
    },
    {
      "inputs": [
        {
          "internalType": "address",
          "name": "operator",
          "type": "address"
        },
        {
          "internalType": "bool",
          "name": "approved",
          "type": "bool"
        }
      ],
      "name": "setApprovalForAll",
      "outputs": [],
      "stateMutability": "nonpayable",
      "type": "function"
    },
    {
      "inputs": [
        {
          "internalType": "bytes",
          "name": "",
          "type": "bytes"
        }
      ],
      "name": "supportLandtypes",
      "outputs": [
        {
          "internalType": "bool",
          "name": "",
          "type": "bool"
        }
      ],
      "stateMutability": "view",
      "type": "function",
      "constant": true
    },
    {
      "inputs": [
        {
          "internalType": "bytes32",
          "name": "",
          "type": "bytes32"
        }
      ],
      "name": "totalSupplyByLandtype",
      "outputs": [
        {
          "internalType": "uint256",
          "name": "",
          "type": "uint256"
        }
      ],
      "stateMutability": "view",
      "type": "function",
      "constant": true
    },
    {
      "inputs": [
        {
          "internalType": "address",
          "name": "newImplementation",
          "type": "address"
        }
      ],
      "name": "upgradeTo",
      "outputs": [],
      "stateMutability": "nonpayable",
      "type": "function"
    },
    {
      "inputs": [
        {
          "internalType": "address",
          "name": "newImplementation",
          "type": "address"
        },
        {
          "internalType": "bytes",
          "name": "data",
          "type": "bytes"
        }
      ],
      "name": "upgradeToAndCall",
      "outputs": [],
      "stateMutability": "payable",
      "type": "function",
      "payable": true
    },
    {
      "inputs": [],
      "name": "vipland1x1",
      "outputs": [
        {
          "internalType": "bytes",
          "name": "",
          "type": "bytes"
        }
      ],
      "stateMutability": "view",
      "type": "function",
      "constant": true
    },
    {
      "inputs": [],
      "name": "vipland2x2",
      "outputs": [
        {
          "internalType": "bytes",
          "name": "",
          "type": "bytes"
        }
      ],
      "stateMutability": "view",
      "type": "function",
      "constant": true
    },
    {
      "inputs": [],
      "name": "vipland4x4",
      "outputs": [
        {
          "internalType": "bytes",
          "name": "",
          "type": "bytes"
        }
      ],
      "stateMutability": "view",
      "type": "function",
      "constant": true
    },
    {
      "inputs": [
        {
          "internalType": "string",
          "name": "_uri",
          "type": "string"
        }
      ],
      "name": "initialize",
      "outputs": [],
      "stateMutability": "nonpayable",
      "type": "function"
    },
    {
      "inputs": [
        {
          "internalType": "string",
          "name": "newuri",
          "type": "string"
        }
      ],
      "name": "setURI",
      "outputs": [],
      "stateMutability": "nonpayable",
      "type": "function"
    },
    {
      "inputs": [
        {
          "internalType": "uint256",
          "name": "id",
          "type": "uint256"
        }
      ],
      "name": "uri",
      "outputs": [
        {
          "internalType": "string",
          "name": "",
          "type": "string"
        }
      ],
      "stateMutability": "view",
      "type": "function",
      "constant": true
    },
    {
      "inputs": [
        {
          "internalType": "address",
          "name": "_address",
          "type": "address"
        },
        {
          "internalType": "bool",
          "name": "_b",
          "type": "bool"
        }
      ],
      "name": "setCanBuyListByAddress",
      "outputs": [],
      "stateMutability": "nonpayable",
      "type": "function"
    },
    {
      "inputs": [
        {
          "internalType": "string",
          "name": "symbol",
          "type": "string"
        }
      ],
      "name": "melandStoreItemURI",
      "outputs": [
        {
          "internalType": "string",
          "name": "",
          "type": "string"
        }
      ],
      "stateMutability": "view",
      "type": "function",
      "constant": true
    },
    {
      "inputs": [
        {
          "internalType": "address",
          "name": "_owner",
          "type": "address"
        },
        {
          "internalType": "address",
          "name": "_operator",
          "type": "address"
        }
      ],
      "name": "isApprovedForAll",
      "outputs": [
        {
          "internalType": "bool",
          "name": "isOperator",
          "type": "bool"
        }
      ],
      "stateMutability": "view",
      "type": "function",
      "constant": true
    },
    {
      "inputs": [
        {
          "internalType": "address",
          "name": "account",
          "type": "address"
        },
        {
          "internalType": "uint256",
          "name": "amount",
          "type": "uint256"
        },
        {
          "internalType": "bytes",
          "name": "landtype",
          "type": "bytes"
        }
      ],
      "name": "mint",
      "outputs": [],
      "stateMutability": "nonpayable",
      "type": "function"
    },
    {
      "inputs": [
        {
          "internalType": "address",
          "name": "_account",
          "type": "address"
        },
        {
          "internalType": "bool",
          "name": "_bool",
          "type": "bool"
        }
      ],
      "name": "setFreezeWhiteList",
      "outputs": [],
      "stateMutability": "nonpayable",
      "type": "function"
    },
    {
      "inputs": [
        {
          "internalType": "contract MelandTier",
          "name": "_tierAddress",
          "type": "address"
        }
      ],
      "name": "setMelandTier",
      "outputs": [],
      "stateMutability": "nonpayable",
      "type": "function"
    },
    {
      "inputs": [
        {
          "internalType": "bool",
          "name": "_bool",
          "type": "bool"
        }
      ],
      "name": "setFreezeEnabled",
      "outputs": [],
      "stateMutability": "nonpayable",
      "type": "function"
    },
    {
      "inputs": [
        {
          "internalType": "bytes4",
          "name": "interfaceId",
          "type": "bytes4"
        }
      ],
      "name": "supportsInterface",
      "outputs": [
        {
          "internalType": "bool",
          "name": "",
          "type": "bool"
        }
      ],
      "stateMutability": "view",
      "type": "function",
      "constant": true
    },
    {
      "inputs": [
        {
          "internalType": "contract IERC20Upgradeable",
          "name": "token",
          "type": "address"
        }
      ],
      "name": "setAcceptedToken",
      "outputs": [],
      "stateMutability": "nonpayable",
      "type": "function"
    },
    {
      "inputs": [
        {
          "internalType": "contract NFTStore",
          "name": "s",
          "type": "address"
        }
      ],
      "name": "setStore",
      "outputs": [],
      "stateMutability": "nonpayable",
      "type": "function"
    },
    {
      "inputs": [
        {
          "internalType": "string",
          "name": "symbol",
          "type": "string"
        },
        {
          "internalType": "uint256",
          "name": "p",
          "type": "uint256"
        }
      ],
      "name": "setStoreItem",
      "outputs": [],
      "stateMutability": "nonpayable",
      "type": "function"
    },
    {
      "inputs": [
        {
          "internalType": "string",
          "name": "symbol",
          "type": "string"
        }
      ],
      "name": "delStoreItem",
      "outputs": [],
      "stateMutability": "nonpayable",
      "type": "function"
    },
    {
      "inputs": [
        {
          "internalType": "string",
          "name": "",
          "type": "string"
        }
      ],
      "name": "melandStoreItemsRestrictPurchaseNFTIds",
      "outputs": [
        {
          "internalType": "bool",
          "name": "",
          "type": "bool"
        },
        {
          "internalType": "uint256[]",
          "name": "",
          "type": "uint256[]"
        }
      ],
      "stateMutability": "pure",
      "type": "function",
      "constant": true
    },
    {
      "inputs": [
        {
          "internalType": "string",
          "name": "symbol",
          "type": "string"
        },
        {
          "internalType": "uint256",
          "name": "id",
          "type": "uint256"
        },
        {
          "internalType": "address",
          "name": "to",
          "type": "address"
        }
      ],
      "name": "melandStoreItemsMint",
      "outputs": [
        {
          "internalType": "uint256",
          "name": "",
          "type": "uint256"
        }
      ],
      "stateMutability": "nonpayable",
      "type": "function"
    },
    {
      "inputs": [
        {
          "internalType": "string",
          "name": "",
          "type": "string"
        }
      ],
      "name": "melandStoreSellStatus",
      "outputs": [
        {
          "internalType": "bool",
          "name": "",
          "type": "bool"
        }
      ],
      "stateMutability": "pure",
      "type": "function",
      "constant": true
    },
    {
      "inputs": [
        {
          "internalType": "string",
          "name": "",
          "type": "string"
        }
      ],
      "name": "melandStoreItemsRestrictedPurchase",
      "outputs": [
        {
          "internalType": "bool",
          "name": "restricted",
          "type": "bool"
        },
        {
          "internalType": "uint256",
          "name": "restrictLimit",
          "type": "uint256"
        }
      ],
      "stateMutability": "pure",
      "type": "function",
      "constant": true
    }
  ],
  "bytecode": "0x60a06040523060805234801561001457600080fd5b50608051614b4f61004560003960008181610e5001528181610e900152818161104f015261108f0152614b4f6000f3fe6080604052600436106102fe5760003560e01c806371d42be511610190578063bdb7b5dd116100dc578063f242432a11610095578063f62d18881161006f578063f62d188814610a36578063f70e9a4714610a56578063f72c0d8b14610a76578063fcc6dd5714610aaa57600080fd5b8063f242432a146109d6578063f405a584146109f6578063f5298aca14610a1657600080fd5b8063bdb7b5dd14610902578063bf4d89b514610922578063d539139314610942578063d547741f14610976578063e985e9c514610996578063ed9be432146109b657600080fd5b806394d008ef11610149578063a22cb46511610123578063a22cb46514610871578063afd600f314610891578063b0c208bc146108b1578063b74f13a2146108d157600080fd5b806394d008ef1461080a5780639f89e7691461082a578063a217fddf1461085c57600080fd5b806371d42be5146107315780637487f5281461075157806383c6c37d1461077157806386e7f544146107915780638b31e62d146107c757806391d14854146107ea57600080fd5b80632eb2c2d61161024f5780634e1273f4116102085780635eccb30c116101e25780635eccb30c1461066f578063664033d51461068f578063686d3d1f146106db5780636b20c4541461071157600080fd5b80634e1273f4146106015780634f1ef2861461062e57806352121f091461064157600080fd5b80632eb2c2d61461053f5780632f2ff15d1461055f57806330c7be2c1461057f57806336568abe146105a15780633659cfe6146105c157806342346c5e146105e157600080fd5b80630e89341c116102bc5780631a8c2e80116102965780631a8c2e80146104a15780631a98cef2146104c15780631ba43d2b146104ee578063248a9ca31461050f57600080fd5b80630e89341c1461041e5780630f380ce21461044b57806315a54cf51461048157600080fd5b8062fdd58e1461030357806301ffc9a71461033657806302fe5305146103665780630820c90d14610388578063087cbd40146103c25780630b5a6d86146103e2575b600080fd5b34801561030f57600080fd5b5061032361031e366004613abb565b610ad6565b6040519081526020015b60405180910390f35b34801561034257600080fd5b50610356610351366004613afd565b610b72565b604051901515815260200161032d565b34801561037257600080fd5b50610386610381366004613bcf565b610b7d565b005b34801561039457600080fd5b506103ab6103a3366004613bcf565b506001908190565b60408051921515835260208301919091520161032d565b3480156103ce57600080fd5b506103866103dd366004613c0b565b610ba3565b3480156103ee57600080fd5b506103566103fd366004613bcf565b80516020818301810180516101698252928201919093012091525460ff1681565b34801561042a57600080fd5b5061043e610439366004613c28565b610bc5565b60405161032d9190613c99565b34801561045757600080fd5b5061043e6040518060400160405280600a8152602001693b34b83630b732193c1960b11b81525081565b34801561048d57600080fd5b5061038661049c366004613cc1565b610c98565b3480156104ad57600080fd5b506103236104bc366004613cf6565b610cde565b3480156104cd57600080fd5b506103236104dc366004613c28565b60ff6020526000908152604090205481565b3480156104fa57600080fd5b50610356610509366004613bcf565b50600190565b34801561051b57600080fd5b5061032361052a366004613c28565b60009081526098602052604090206001015490565b34801561054b57600080fd5b5061038661055a366004613de4565b610d09565b34801561056b57600080fd5b5061038661057a366004613e91565b610da0565b34801561058b57600080fd5b50610323600080516020614afa83398151915281565b3480156105ad57600080fd5b506103866105bc366004613e91565b610dcb565b3480156105cd57600080fd5b506103866105dc366004613c0b565b610e45565b3480156105ed57600080fd5b506103236105fc366004613bcf565b610f0e565b34801561060d57600080fd5b5061062161061c366004613ec1565b610f1b565b60405161032d9190613fc8565b61038661063c366004613fdb565b611044565b34801561064d57600080fd5b5061032361065c366004613c28565b61016b6020526000908152604090205481565b34801561067b57600080fd5b5061032361068a366004613bcf565b6110fa565b34801561069b57600080fd5b506106c36106aa366004613bcf565b5073fced262e4949b7b5c4177b4e0ad8e974cc7493bf90565b6040516001600160a01b03909116815260200161032d565b3480156106e757600080fd5b5061043e6040518060400160405280600a8152602001691d9a5c1b185b990d1e0d60b21b81525081565b34801561071d57600080fd5b5061038661072c366004614020565b611107565b34801561073d57600080fd5b5061038661074c366004614095565b61114a565b34801561075d57600080fd5b5061038661076c366004613c0b565b61116c565b34801561077d57600080fd5b5061038661078c366004613cc1565b61118e565b34801561079d57600080fd5b5061043e6040518060400160405280600a8152602001697669706c616e6431783160b01b81525081565b3480156107d357600080fd5b506107dc6111b1565b60405161032d9291906140b0565b3480156107f657600080fd5b50610356610805366004613e91565b6112e7565b34801561081657600080fd5b5061038661082536600461411d565b611312565b34801561083657600080fd5b5061084e610845366004613bcf565b50600090606090565b60405161032d92919061416b565b34801561086857600080fd5b50610323600081565b34801561087d57600080fd5b5061038661088c366004613cc1565b6113c5565b34801561089d57600080fd5b5061043e6108ac366004613c28565b6113d0565b3480156108bd57600080fd5b506103866108cc366004613bcf565b61146b565b3480156108dd57600080fd5b506103566108ec366004613c0b565b61016c6020526000908152604090205460ff1681565b34801561090e57600080fd5b5061038661091d366004614186565b61148d565b34801561092e57600080fd5b5061032361093d366004614186565b6114b0565b34801561094e57600080fd5b506103237f9f2df0fed2c77648de5860a4cc508cd0818c85b8b8a1ab4ceeef8d981c8956a681565b34801561098257600080fd5b50610386610991366004613e91565b6115cd565b3480156109a257600080fd5b506103566109b13660046141ca565b6115f3565b3480156109c257600080fd5b506103236109d1366004614186565b6115ff565b3480156109e257600080fd5b506103866109f13660046141f8565b6117b8565b348015610a0257600080fd5b5061043e610a11366004613bcf565b6117fd565b348015610a2257600080fd5b50610386610a31366004614260565b611831565b348015610a4257600080fd5b50610386610a51366004613bcf565b611874565b348015610a6257600080fd5b50610386610a71366004613c0b565b611a12565b348015610a8257600080fd5b506103237f189ab7a9244df0848122154315af71fe140f3db0fe014031783b0946b8c9d2e381565b348015610ab657600080fd5b506106c3610ac5366004613bcf565b50610101546001600160a01b031690565b60006001600160a01b038316610b475760405162461bcd60e51b815260206004820152602b60248201527f455243313135353a2062616c616e636520717565727920666f7220746865207a60448201526a65726f206164647265737360a81b60648201526084015b60405180910390fd5b5060008181526065602090815260408083206001600160a01b03861684529091529020545b92915050565b6000610b6c82611a4a565b600080516020614afa833981519152610b968133611a6f565b610b9f82611ad3565b5050565b600080516020614afa833981519152610bbc8133611a6f565b610b9f82611ae6565b600081815261016a6020526040812080546060929190610be490614295565b80601f0160208091040260200160405190810160405280929190818152602001828054610c1090614295565b8015610c5d5780601f10610c3257610100808354040283529160200191610c5d565b820191906000526020600020905b815481529060010190602001808311610c4057829003601f168201915b50505050509050610c6d83611b0a565b8184604051602001610c81939291906142d0565b604051602081830303815290604052915050919050565b600080516020614afa833981519152610cb18133611a6f565b506001600160a01b0391909116600090815261016c60205260409020805460ff1916911515919091179055565b6000610ceb848484611b9e565b610cf782600186611312565b610cff611c02565b50815b9392505050565b6001600160a01b038516331480610d255750610d2585336115f3565b610d8c5760405162461bcd60e51b815260206004820152603260248201527f455243313135353a207472616e736665722063616c6c6572206973206e6f74206044820152711bdddb995c881b9bdc88185c1c1c9bdd995960721b6064820152608401610b3e565b610d998585858585611c75565b5050505050565b600082815260986020526040902060010154610dbc8133611a6f565b610dc68383611e22565b505050565b6001600160a01b0381163314610e3b5760405162461bcd60e51b815260206004820152602f60248201527f416363657373436f6e74726f6c3a2063616e206f6e6c792072656e6f756e636560448201526e103937b632b9903337b91039b2b63360891b6064820152608401610b3e565b610b9f8282611ea8565b306001600160a01b037f0000000000000000000000000000000000000000000000000000000000000000161415610e8e5760405162461bcd60e51b8152600401610b3e9061431d565b7f00000000000000000000000000000000000000000000000000000000000000006001600160a01b0316610ec0611f0f565b6001600160a01b031614610ee65760405162461bcd60e51b8152600401610b3e90614369565b610eef81611f3d565b60408051600080825260208201909252610f0b91839190611f68565b50565b6000610b6c8260006114b0565b60608151835114610f805760405162461bcd60e51b815260206004820152602960248201527f455243313135353a206163636f756e747320616e6420696473206c656e677468604482015268040dad2e6dac2e8c6d60bb1b6064820152608401610b3e565b600083516001600160401b03811115610f9b57610f9b613b1a565b604051908082528060200260200182016040528015610fc4578160200160208202803683370190505b50905060005b845181101561103c5761100f858281518110610fe857610fe86143b5565b6020026020010151858381518110611002576110026143b5565b6020026020010151610ad6565b828281518110611021576110216143b5565b6020908102919091010152611035816143e1565b9050610fca565b509392505050565b306001600160a01b037f000000000000000000000000000000000000000000000000000000000000000016141561108d5760405162461bcd60e51b8152600401610b3e9061431d565b7f00000000000000000000000000000000000000000000000000000000000000006001600160a01b03166110bf611f0f565b6001600160a01b0316146110e55760405162461bcd60e51b8152600401610b3e90614369565b6110ee82611f3d565b610b9f82826001611f68565b6000610b6c8260006115ff565b6001600160a01b038316331480611123575061112383336115f3565b61113f5760405162461bcd60e51b8152600401610b3e906143fc565b610dc68383836120ac565b600080516020614afa8339815191526111638133611a6f565b610b9f8261223d565b600080516020614afa8339815191526111858133611a6f565b610b9f82612284565b600080516020614afa8339815191526111a78133611a6f565b610dc683836122a8565b60608061010261010381805480602002602001604051908101604052809291908181526020016000905b828210156112875783829060005260206000200180546111fa90614295565b80601f016020809104026020016040519081016040528092919081815260200182805461122690614295565b80156112735780601f1061124857610100808354040283529160200191611273565b820191906000526020600020905b81548152906001019060200180831161125657829003601f168201915b5050505050815260200190600101906111db565b505050509150808054806020026020016040519081016040528092919081815260200182805480156112d857602002820191906000526020600020905b8154815260200190600101908083116112c4575b50505050509050915091509091565b60009182526098602090815260408084206001600160a01b0393909316845291905290205460ff1690565b7f9f2df0fed2c77648de5860a4cc508cd0818c85b8b8a1ab4ceeef8d981c8956a661133d8133611a6f565b6001600160a01b038416600090815261016c602052604090205460ff1661139c5760405162461bcd60e51b81526020600482015260136024820152724e6f7420656c696769626c6520746f2062757960681b6044820152606401610b3e565b6113ab61016880546001019055565b60006113b76101685490565b9050610d9985828686612307565b610b9f338383612419565b61016a60205260009081526040902080546113ea90614295565b80601f016020809104026020016040519081016040528092919081815260200182805461141690614295565b80156114635780601f1061143857610100808354040283529160200191611463565b820191906000526020600020905b81548152906001019060200180831161144657829003601f168201915b505050505081565b600080516020614afa8339815191526114848133611a6f565b610b9f826124fa565b600080516020614afa8339815191526114a68133611a6f565b610dc68383612671565b6000828180805b83518110156115a55760308482815181106114d4576114d46143b5565b016020015160f81c10801590611504575060398482815181106114f9576114f96143b5565b016020015160f81c11155b1561156b5781156115275785611519576115a5565b8561152381614445565b9650505b611532600a8461445c565b92506030848281518110611548576115486143b5565b016020015161155a919060f81c61447b565b6115649084614492565b9250611593565b83818151811061157d5761157d6143b5565b60209101015160f81c602e141561159357600191505b8061159d816143e1565b9150506114b7565b5084156115c4576115b785600a61458e565b6115c1908361445c565b91505b50949350505050565b6000828152609860205260409020600101546115e98133611a6f565b610dc68383611ea8565b6000610d0283836127ee565b6000828180805b83518110156115a5576030848281518110611623576116236143b5565b016020015160f81c1080159061165357506039848281518110611648576116486143b5565b016020015160f81c11155b156116ba5781156116765785611668576115a5565b8561167281614445565b9650505b611681600a8461445c565b92506030848281518110611697576116976143b5565b01602001516116a9919060f81c61447b565b6116b39084614492565b92506117a6565b8381815181106116cc576116cc6143b5565b60209101015160f81c602e14156117495781156117405760405162461bcd60e51b815260206004820152602c60248201527f4d6f7265207468616e206f6e6520646563696d616c20656e636f756e7465726560448201526b6420696e20737472696e672160a01b6064820152608401610b3e565b600191506117a6565b60405162461bcd60e51b815260206004820152602c60248201527f4e6f6e2d6e756d6572616c2063686172616374657220656e636f756e7465726560448201526b6420696e20737472696e672160a01b6064820152608401610b3e565b806117b0816143e1565b915050611606565b6001600160a01b0385163314806117d457506117d485336115f3565b6117f05760405162461bcd60e51b8152600401610b3e906143fc565b610d998585858585612869565b60606118096000611b0a565b8260405160200161181b92919061459a565b6040516020818303038152906040529050919050565b6001600160a01b03831633148061184d575061184d83336115f3565b6118695760405162461bcd60e51b8152600401610b3e906143fc565b610dc683838361298a565b600054610100900460ff168061188d575060005460ff16155b6118a95760405162461bcd60e51b8152600401610b3e906145df565b600054610100900460ff161580156118cb576000805461ffff19166101011790555b6118d482612a8f565b6118dc612b14565b6118e4612b97565b6118ec612bf5565b6118f4612c2b565b60016101696040518060400160405280600a8152602001697669706c616e6431783160b01b815250604051611929919061462d565b908152602001604051809103902060006101000a81548160ff02191690831515021790555060016101696040518060400160405280600a8152602001693b34b83630b732193c1960b11b815250604051611983919061462d565b908152602001604051809103902060006101000a81548160ff02191690831515021790555060016101696040518060400160405280600a8152602001691d9a5c1b185b990d1e0d60b21b8152506040516119dd919061462d565b908152604051908190036020019020805491151560ff199092169190911790558015610b9f576000805461ff00191690555050565b600080516020614afa833981519152611a2b8133611a6f565b609780546001600160a01b0319166001600160a01b0384161790555050565b60006001600160e01b03198216637965db0b60e01b1480610b6c5750610b6c82612caa565b611a7982826112e7565b610b9f57611a91816001600160a01b03166014612cfa565b611a9c836020612cfa565b604051602001611aad929190614649565b60408051601f198184030181529082905262461bcd60e51b8252610b3e91600401613c99565b8051610b9f90606790602084019061395c565b61010080546001600160a01b0319166001600160a01b038316179055610f0b611c02565b606060678054611b1990614295565b80601f0160208091040260200160405190810160405280929190818152602001828054611b4590614295565b8015611b925780601f10611b6757610100808354040283529160200191611b92565b820191906000526020600020905b815481529060010190602001808311611b7557829003601f168201915b50505050509050919050565b610100546001600160a01b0316336001600160a01b031614610dc65760405162461bcd60e51b815260206004820152601f60248201527f416c6c6f77206f6e6c79204d656c616e642e6169206d616c6c2063616c6c73006044820152606401610b3e565b610100546001600160a01b031615611c73576101005460405163fa21a11d60e01b81523060048201526001600160a01b039091169063fa21a11d90602401600060405180830381600087803b158015611c5a57600080fd5b505af1158015611c6e573d6000803e3d6000fd5b505050505b565b8151835114611c965760405162461bcd60e51b8152600401610b3e906146be565b6001600160a01b038416611cbc5760405162461bcd60e51b8152600401610b3e90614706565b33611ccb818787878787612e95565b60005b8451811015611db4576000858281518110611ceb57611ceb6143b5565b602002602001015190506000858381518110611d0957611d096143b5565b60209081029190910181015160008481526065835260408082206001600160a01b038e168352909352919091205490915081811015611d5a5760405162461bcd60e51b8152600401610b3e9061474b565b60008381526065602090815260408083206001600160a01b038e8116855292528083208585039055908b16825281208054849290611d99908490614492565b9250508190555050505080611dad906143e1565b9050611cce565b50846001600160a01b0316866001600160a01b0316826001600160a01b03167f4a39dc06d4c0dbc64b70af90fd698a233a518aa5d07e595d983b8c0526c8f7fb8787604051611e04929190614795565b60405180910390a4611e1a8187878787876132d8565b505050505050565b611e2c82826112e7565b610b9f5760008281526098602090815260408083206001600160a01b03851684529091529020805460ff19166001179055611e643390565b6001600160a01b0316816001600160a01b0316837f2f8788117e7eff1d82e926ec794901d17c78024a50270940304540a733656f0d60405160405180910390a45050565b611eb282826112e7565b15610b9f5760008281526098602090815260408083206001600160a01b0385168085529252808320805460ff1916905551339285917ff6391f5c32d9c69d2a47ea670b442974b53935d1edc7fd64eb21e047a839171b9190a45050565b7f360894a13ba1a3210667c828492db98dca3e2076cc3735a920a3ca505d382bbc546001600160a01b031690565b7f189ab7a9244df0848122154315af71fe140f3db0fe014031783b0946b8c9d2e3610b9f8133611a6f565b6000611f72611f0f565b9050611f7d84613443565b600083511180611f8a5750815b15611f9b57611f9984846134e8565b505b7f4910fdfa16fed3260ed0e7147f7cc6da11a60208b5b9406d12a635614ffd9143805460ff16610d9957805460ff191660011781556040516001600160a01b038316602482015261201a90869060440160408051601f198184030181529190526020810180516001600160e01b0316631b2ce7f360e11b1790526134e8565b50805460ff1916815561202b611f0f565b6001600160a01b0316826001600160a01b0316146120a35760405162461bcd60e51b815260206004820152602f60248201527f45524331393637557067726164653a207570677261646520627265616b73206660448201526e75727468657220757067726164657360881b6064820152608401610b3e565b610d99856135d3565b6001600160a01b0383166120d25760405162461bcd60e51b8152600401610b3e906147ba565b80518251146120f35760405162461bcd60e51b8152600401610b3e906146be565b600033905061211681856000868660405180602001604052806000815250612e95565b60005b83518110156121de576000848281518110612136576121366143b5565b602002602001015190506000848381518110612154576121546143b5565b60209081029190910181015160008481526065835260408082206001600160a01b038c1683529093529190912054909150818110156121a55760405162461bcd60e51b8152600401610b3e906147fd565b60009283526065602090815260408085206001600160a01b038b16865290915290922091039055806121d6816143e1565b915050612119565b5060006001600160a01b0316846001600160a01b0316826001600160a01b03167f4a39dc06d4c0dbc64b70af90fd698a233a518aa5d07e595d983b8c0526c8f7fb868660405161222f929190614795565b60405180910390a450505050565b60fc805460ff19168215159081179091556040519081527ffe201e4b4f6868843d95c43911ae6440969ce8f267814256f138983f77b444399060200160405180910390a150565b61010180546001600160a01b0319166001600160a01b038316179055610f0b611c02565b6001600160a01b038216600081815260fe6020908152604091829020805460ff191685151590811790915591519182527f8b0795ef2ee415d4d22faae6db2f220e804a2ece30b9ef73c9135823d5326e4a910160405180910390a25050565b6001600160a01b0384166123675760405162461bcd60e51b815260206004820152602160248201527f455243313135353a206d696e7420746f20746865207a65726f206164647265736044820152607360f81b6064820152608401610b3e565b336123878160008761237888613613565b61238188613613565b87612e95565b60008481526065602090815260408083206001600160a01b0389168452909152812080548592906123b9908490614492565b909155505060408051858152602081018590526001600160a01b0380881692600092918516917fc3d58168c5ae7397731d063d5bbf3d657854427343f4c083240f7aacaa2d0f62910160405180910390a4610d998160008787878761365e565b816001600160a01b0316836001600160a01b0316141561248d5760405162461bcd60e51b815260206004820152602960248201527f455243313135353a2073657474696e6720617070726f76616c20737461747573604482015268103337b91039b2b63360b91b6064820152608401610b3e565b6001600160a01b03838116600081815260666020908152604080832094871680845294825291829020805460ff191686151590811790915591519182527f17307eab39ab6107e8899845ad3d59bd9653f200f220920489ca2b5937696c31910160405180910390a3505050565b6000805b610102548110156125605782805190602001206101028281548110612525576125256143b5565b9060005260206000200160405161253c9190614841565b6040518091039020141561254e578091505b80612558816143e1565b9150506124fe565b5061010280546125729060019061447b565b81548110612582576125826143b5565b9060005260206000200161010282815481106125a0576125a06143b5565b906000526020600020019080546125b690614295565b6125c19291906139e0565b506101028054806125d4576125d46148dd565b6001900381819060005260206000200160006125f09190613a5b565b905561010254610103906126069060019061447b565b81548110612616576126166143b5565b90600052602060002001546101038281548110612635576126356143b5565b600091825260209091200155610103805480612653576126536148dd565b60019003818190600052602060002001600090559055610b9f611c02565b6000805b610102548110156126d7576101028181548110612694576126946143b5565b906000526020600020016040516126ab9190614841565b6040518091039020848051906020012014156126c5578091505b806126cf816143e1565b915050612675565b508015612704578161010382815481106126f3576126f36143b5565b6000918252602090912001556127e6565b610102541580159061274f5750828051906020012061010260008154811061272e5761272e6143b5565b906000526020600020016040516127459190614841565b6040518091039020145b1561276a57816101036000815481106126f3576126f36143b5565b610102805460018101825560009190915283516127ae917f93bdaa6a4190909b7c3fbe8d42169ffe1cab19f51dfc8db24c71abf849eced4a0190602086019061395c565b5061010380546001810182556000919091527f02c297ab74aad0aede3a1895c857b1f2c71e6a203feb727bec95ac752998cb78018290555b610dc6611c02565b60006001600160a01b03821673207fa8df3a17d96ca7ea4f2893fcdcb78a304101141561281d57506001610b6c565b6097546001600160a01b038381169116141561283b57506001610b6c565b6001600160a01b0380841660009081526066602090815260408083209386168352929052205460ff16610d02565b6001600160a01b03841661288f5760405162461bcd60e51b8152600401610b3e90614706565b3361289f81878761237888613613565b60008481526065602090815260408083206001600160a01b038a168452909152902054838110156128e25760405162461bcd60e51b8152600401610b3e9061474b565b60008581526065602090815260408083206001600160a01b038b8116855292528083208785039055908816825281208054869290612921908490614492565b909155505060408051868152602081018690526001600160a01b03808916928a821692918616917fc3d58168c5ae7397731d063d5bbf3d657854427343f4c083240f7aacaa2d0f62910160405180910390a461298182888888888861365e565b50505050505050565b6001600160a01b0383166129b05760405162461bcd60e51b8152600401610b3e906147ba565b336129df818560006129c187613613565b6129ca87613613565b60405180602001604052806000815250612e95565b60008381526065602090815260408083206001600160a01b038816845290915290205482811015612a225760405162461bcd60e51b8152600401610b3e906147fd565b60008481526065602090815260408083206001600160a01b03898116808652918452828520888703905582518981529384018890529092908616917fc3d58168c5ae7397731d063d5bbf3d657854427343f4c083240f7aacaa2d0f62910160405180910390a45050505050565b600054610100900460ff1680612aa8575060005460ff16155b612ac45760405162461bcd60e51b8152600401610b3e906145df565b600054610100900460ff16158015612ae6576000805461ffff19166101011790555b612aee613728565b612af6613728565b612aff82613792565b8015610b9f576000805461ff00191690555050565b600054610100900460ff1680612b2d575060005460ff16155b612b495760405162461bcd60e51b8152600401610b3e906145df565b600054610100900460ff16158015612b6b576000805461ffff19166101011790555b612b73613728565b612b7b613728565b612b83613728565b8015610f0b576000805461ff001916905550565b600054610100900460ff1680612bb0575060005460ff16155b612bcc5760405162461bcd60e51b8152600401610b3e906145df565b600054610100900460ff16158015612b73576000805461ffff1916610101179055612b7b613728565b60fc805460ff1916600190811790915562093a8060fd55611c739073714df076992f95e452a345cd8289882cec6ab82f906122a8565b612c33612b14565b612c3e600033611e22565b612c56600080516020614afa83398151915233611e22565b612c807f9f2df0fed2c77648de5860a4cc508cd0818c85b8b8a1ab4ceeef8d981c8956a633611e22565b611c737f189ab7a9244df0848122154315af71fe140f3db0fe014031783b0946b8c9d2e333611e22565b60006001600160e01b03198216636cdb3d1360e11b1480612cdb57506001600160e01b031982166303a24d0760e21b145b80610b6c57506301ffc9a760e01b6001600160e01b0319831614610b6c565b60606000612d0983600261445c565b612d14906002614492565b6001600160401b03811115612d2b57612d2b613b1a565b6040519080825280601f01601f191660200182016040528015612d55576020820181803683370190505b509050600360fc1b81600081518110612d7057612d706143b5565b60200101906001600160f81b031916908160001a905350600f60fb1b81600181518110612d9f57612d9f6143b5565b60200101906001600160f81b031916908160001a9053506000612dc384600261445c565b612dce906001614492565b90505b6001811115612e46576f181899199a1a9b1b9c1cb0b131b232b360811b85600f1660108110612e0257612e026143b5565b1a60f81b828281518110612e1857612e186143b5565b60200101906001600160f81b031916908160001a90535060049490941c93612e3f81614445565b9050612dd1565b508315610d025760405162461bcd60e51b815260206004820181905260248201527f537472696e67733a20686578206c656e67746820696e73756666696369656e746044820152606401610b3e565b60005b8251811015612f4257828181518110612eb357612eb36143b5565b6020026020010151600114612f305760405162461bcd60e51b815260206004820152603b60248201527f45616368206c616e6420697320756e697175652c20536f20746865726520697360448201527f206e6f207472616e736665722067726561746572207468616e203100000000006064820152608401610b3e565b80612f3a816143e1565b915050612e98565b5060005b83518110156130b5576000848281518110612f6357612f636143b5565b60200260200101519050600061016a60008381526020019081526020016000208054612f8e90614295565b80601f0160208091040260200160405190810160405280929190818152602001828054612fba90614295565b80156130075780601f10612fdc57610100808354040283529160200191613007565b820191906000526020600020905b815481529060010190602001808311612fea57829003601f168201915b505050505090507f1cb6cb558a2b0eaf4f7c8fe6b68ffffce2f021379f9fa31ee9cbee72ba079f0381805190602001201415613048576130488888846137f2565b6001600160a01b0387166130a057600082815261016a6020526040812061306e91613a5b565b600161016b600083805190602001208152602001908152602001600020600082825461309a919061447b565b90915550505b505080806130ad906143e1565b915050612f46565b506001600160a01b0385166132d357610169816040516130d5919061462d565b908152604051602091819003820181205460ff16916130f6918491016148f3565b604051602081830303815290604052906131235760405162461bcd60e51b8152600401610b3e9190613c99565b5060005b83518110156132a057612711848281518110613145576131456143b5565b60200260200101511015801561317957506402540be7e884828151811061316e5761316e6143b5565b602002602001015111155b6131c55760405162461bcd60e51b815260206004820152601960248201527f436f6f7264696e6174657320617265206e6f74206c6567616c000000000000006044820152606401610b3e565b61016a60008583815181106131dc576131dc6143b5565b6020026020010151815260200190815260200160002080546131fd90614295565b15905061324c5760405162461bcd60e51b815260206004820152601d60248201527f4d616b6520737572652065616368206c616e6420697320756e697175650000006044820152606401610b3e565b8161016a6000868481518110613264576132646143b5565b60200260200101518152602001908152602001600020908051906020019061328d92919061395c565b5080613298816143e1565b915050613127565b50825161016b60008380519060200120815260200190815260200160002060008282546132cd9190614492565b90915550505b611e1a565b6001600160a01b0384163b15611e1a5760405163bc197c8160e01b81526001600160a01b0385169063bc197c819061331c9089908990889088908890600401614925565b602060405180830381600087803b15801561333657600080fd5b505af1925050508015613366575060408051601f3d908101601f1916820190925261336391810190614983565b60015b613413576133726149a0565b806308c379a014156133ac57506133876149bc565b8061339257506133ae565b8060405162461bcd60e51b8152600401610b3e9190613c99565b505b60405162461bcd60e51b815260206004820152603460248201527f455243313135353a207472616e7366657220746f206e6f6e20455243313135356044820152732932b1b2b4bb32b91034b6b83632b6b2b73a32b960611b6064820152608401610b3e565b6001600160e01b0319811663bc197c8160e01b146129815760405162461bcd60e51b8152600401610b3e90614a45565b803b6134a75760405162461bcd60e51b815260206004820152602d60248201527f455243313936373a206e657720696d706c656d656e746174696f6e206973206e60448201526c1bdd08184818dbdb9d1c9858dd609a1b6064820152608401610b3e565b7f360894a13ba1a3210667c828492db98dca3e2076cc3735a920a3ca505d382bbc80546001600160a01b0319166001600160a01b0392909216919091179055565b6060823b6135475760405162461bcd60e51b815260206004820152602660248201527f416464726573733a2064656c65676174652063616c6c20746f206e6f6e2d636f6044820152651b9d1c9858dd60d21b6064820152608401610b3e565b600080846001600160a01b031684604051613562919061462d565b600060405180830381855af49150503d806000811461359d576040519150601f19603f3d011682016040523d82523d6000602084013e6135a2565b606091505b50915091506135ca8282604051806060016040528060278152602001614ad360279139613917565b95945050505050565b6135dc81613443565b6040516001600160a01b038216907fbc7cd75a20ee27fd9adebab32041f755214dbc6bffa90cc0225b39da2e5c2d3b90600090a250565b6040805160018082528183019092526060916000919060208083019080368337019050509050828160008151811061364d5761364d6143b5565b602090810291909101015292915050565b6001600160a01b0384163b15611e1a5760405163f23a6e6160e01b81526001600160a01b0385169063f23a6e61906136a29089908990889088908890600401614a8d565b602060405180830381600087803b1580156136bc57600080fd5b505af19250505080156136ec575060408051601f3d908101601f191682019092526136e991810190614983565b60015b6136f8576133726149a0565b6001600160e01b0319811663f23a6e6160e01b146129815760405162461bcd60e51b8152600401610b3e90614a45565b600054610100900460ff1680613741575060005460ff16155b61375d5760405162461bcd60e51b8152600401610b3e906145df565b600054610100900460ff16158015612b83576000805461ffff19166101011790558015610f0b576000805461ff001916905550565b600054610100900460ff16806137ab575060005460ff16155b6137c75760405162461bcd60e51b8152600401610b3e906145df565b600054610100900460ff161580156137e9576000805461ffff19166101011790555b612aff82611ad3565b60fc5460ff1661380157505050565b6001600160a01b0382163b1561381657505050565b6001600160a01b038216600090815260fe602052604090205460ff161561383c57505050565b600081815260ff6020908152604091829020549151428310926138c7929091017f5468652063757272656e74204e465420697320696e207468652074726164696e81527f672070726f74656374696f6e20706572696f6420616e642063616e206265207460208201526a3930b232b21030b33a32b960a91b6040820152604b810191909152606b0190565b604051602081830303815290604052906138f45760405162461bcd60e51b8152600401610b3e9190613c99565b5060fd54613903904290613950565b600091825260ff6020526040909120555050565b60608315613926575081610d02565b8251156139365782518084602001fd5b8160405162461bcd60e51b8152600401610b3e9190613c99565b6000610d028284614492565b82805461396890614295565b90600052602060002090601f01602090048101928261398a57600085556139d0565b82601f106139a357805160ff19168380011785556139d0565b828001600101855582156139d0579182015b828111156139d05782518255916020019190600101906139b5565b506139dc929150613a91565b5090565b8280546139ec90614295565b90600052602060002090601f016020900481019282613a0e57600085556139d0565b82601f10613a1f57805485556139d0565b828001600101855582156139d057600052602060002091601f016020900482015b828111156139d0578254825591600101919060010190613a40565b508054613a6790614295565b6000825580601f10613a77575050565b601f016020900490600052602060002090810190610f0b91905b5b808211156139dc5760008155600101613a92565b6001600160a01b0381168114610f0b57600080fd5b60008060408385031215613ace57600080fd5b8235613ad981613aa6565b946020939093013593505050565b6001600160e01b031981168114610f0b57600080fd5b600060208284031215613b0f57600080fd5b8135610d0281613ae7565b634e487b7160e01b600052604160045260246000fd5b601f8201601f191681016001600160401b0381118282101715613b5557613b55613b1a565b6040525050565b600082601f830112613b6d57600080fd5b81356001600160401b03811115613b8657613b86613b1a565b604051613b9d601f8301601f191660200182613b30565b818152846020838601011115613bb257600080fd5b816020850160208301376000918101602001919091529392505050565b600060208284031215613be157600080fd5b81356001600160401b03811115613bf757600080fd5b613c0384828501613b5c565b949350505050565b600060208284031215613c1d57600080fd5b8135610d0281613aa6565b600060208284031215613c3a57600080fd5b5035919050565b60005b83811015613c5c578181015183820152602001613c44565b83811115611c6e5750506000910152565b60008151808452613c85816020860160208601613c41565b601f01601f19169290920160200192915050565b602081526000610d026020830184613c6d565b80358015158114613cbc57600080fd5b919050565b60008060408385031215613cd457600080fd5b8235613cdf81613aa6565b9150613ced60208401613cac565b90509250929050565b600080600060608486031215613d0b57600080fd5b83356001600160401b03811115613d2157600080fd5b613d2d86828701613b5c565b935050602084013591506040840135613d4581613aa6565b809150509250925092565b60006001600160401b03821115613d6957613d69613b1a565b5060051b60200190565b600082601f830112613d8457600080fd5b81356020613d9182613d50565b604051613d9e8282613b30565b83815260059390931b8501820192828101915086841115613dbe57600080fd5b8286015b84811015613dd95780358352918301918301613dc2565b509695505050505050565b600080600080600060a08688031215613dfc57600080fd5b8535613e0781613aa6565b94506020860135613e1781613aa6565b935060408601356001600160401b0380821115613e3357600080fd5b613e3f89838a01613d73565b94506060880135915080821115613e5557600080fd5b613e6189838a01613d73565b93506080880135915080821115613e7757600080fd5b50613e8488828901613b5c565b9150509295509295909350565b60008060408385031215613ea457600080fd5b823591506020830135613eb681613aa6565b809150509250929050565b60008060408385031215613ed457600080fd5b82356001600160401b0380821115613eeb57600080fd5b818501915085601f830112613eff57600080fd5b81356020613f0c82613d50565b604051613f198282613b30565b83815260059390931b8501820192828101915089841115613f3957600080fd5b948201945b83861015613f60578535613f5181613aa6565b82529482019490820190613f3e565b96505086013592505080821115613f7657600080fd5b50613f8385828601613d73565b9150509250929050565b600081518084526020808501945080840160005b83811015613fbd57815187529582019590820190600101613fa1565b509495945050505050565b602081526000610d026020830184613f8d565b60008060408385031215613fee57600080fd5b8235613ff981613aa6565b915060208301356001600160401b0381111561401457600080fd5b613f8385828601613b5c565b60008060006060848603121561403557600080fd5b833561404081613aa6565b925060208401356001600160401b038082111561405c57600080fd5b61406887838801613d73565b9350604086013591508082111561407e57600080fd5b5061408b86828701613d73565b9150509250925092565b6000602082840312156140a757600080fd5b610d0282613cac565b6000604082016040835280855180835260608501915060608160051b8601019250602080880160005b8381101561410757605f198887030185526140f5868351613c6d565b955093820193908201906001016140d9565b5050858403818701525050506135ca8185613f8d565b60008060006060848603121561413257600080fd5b833561413d81613aa6565b92506020840135915060408401356001600160401b0381111561415f57600080fd5b61408b86828701613b5c565b8215158152604060208201526000613c036040830184613f8d565b6000806040838503121561419957600080fd5b82356001600160401b038111156141af57600080fd5b6141bb85828601613b5c565b95602094909401359450505050565b600080604083850312156141dd57600080fd5b82356141e881613aa6565b91506020830135613eb681613aa6565b600080600080600060a0868803121561421057600080fd5b853561421b81613aa6565b9450602086013561422b81613aa6565b9350604086013592506060860135915060808601356001600160401b0381111561425457600080fd5b613e8488828901613b5c565b60008060006060848603121561427557600080fd5b833561428081613aa6565b95602085013595506040909401359392505050565b600181811c908216806142a957607f821691505b602082108114156142ca57634e487b7160e01b600052602260045260246000fd5b50919050565b600084516142e2818460208901613c41565b8083019050602f60f81b8082528551614302816001850160208a01613c41565b60019201918201526002810193909352505060220192915050565b6020808252602c908201527f46756e6374696f6e206d7573742062652063616c6c6564207468726f7567682060408201526b19195b1959d85d1958d85b1b60a21b606082015260800190565b6020808252602c908201527f46756e6374696f6e206d7573742062652063616c6c6564207468726f7567682060408201526b6163746976652070726f787960a01b606082015260800190565b634e487b7160e01b600052603260045260246000fd5b634e487b7160e01b600052601160045260246000fd5b60006000198214156143f5576143f56143cb565b5060010190565b60208082526029908201527f455243313135353a2063616c6c6572206973206e6f74206f776e6572206e6f7260408201526808185c1c1c9bdd995960ba1b606082015260800190565b600081614454576144546143cb565b506000190190565b6000816000190483118215151615614476576144766143cb565b500290565b60008282101561448d5761448d6143cb565b500390565b600082198211156144a5576144a56143cb565b500190565b600181815b808511156144e55781600019048211156144cb576144cb6143cb565b808516156144d857918102915b93841c93908002906144af565b509250929050565b6000826144fc57506001610b6c565b8161450957506000610b6c565b816001811461451f576002811461452957614545565b6001915050610b6c565b60ff84111561453a5761453a6143cb565b50506001821b610b6c565b5060208310610133831016604e8410600b8410161715614568575081810a610b6c565b61457283836144aa565b8060001904821115614586576145866143cb565b029392505050565b6000610d0283836144ed565b600083516145ac818460208801613c41565b8083019050602f60f81b80825284516145cc816001850160208901613c41565b6001920191820152600201949350505050565b6020808252602e908201527f496e697469616c697a61626c653a20636f6e747261637420697320616c72656160408201526d191e481a5b9a5d1a585b1a5e995960921b606082015260800190565b6000825161463f818460208701613c41565b9190910192915050565b7f416363657373436f6e74726f6c3a206163636f756e7420000000000000000000815260008351614681816017850160208801613c41565b7001034b99036b4b9b9b4b733903937b6329607d1b60179184019182015283516146b2816028840160208801613c41565b01602801949350505050565b60208082526028908201527f455243313135353a2069647320616e6420616d6f756e7473206c656e677468206040820152670dad2e6dac2e8c6d60c31b606082015260800190565b60208082526025908201527f455243313135353a207472616e7366657220746f20746865207a65726f206164604082015264647265737360d81b606082015260800190565b6020808252602a908201527f455243313135353a20696e73756666696369656e742062616c616e636520666f60408201526939103a3930b739b332b960b11b606082015260800190565b6040815260006147a86040830185613f8d565b82810360208401526135ca8185613f8d565b60208082526023908201527f455243313135353a206275726e2066726f6d20746865207a65726f206164647260408201526265737360e81b606082015260800190565b60208082526024908201527f455243313135353a206275726e20616d6f756e7420657863656564732062616c604082015263616e636560e01b606082015260800190565b600080835481600182811c91508083168061485d57607f831692505b602080841082141561487d57634e487b7160e01b86526022600452602486fd5b81801561489157600181146148a2576148cf565b60ff198616895284890196506148cf565b60008a81526020902060005b868110156148c75781548b8201529085019083016148ae565b505084890196505b509498975050505050505050565b634e487b7160e01b600052603160045260246000fd5b60008251614905818460208701613c41565b6d1a5cc81b9bdd081cdd5c1c1bdc9d60921b920191825250600e01919050565b6001600160a01b0386811682528516602082015260a06040820181905260009061495190830186613f8d565b82810360608401526149638186613f8d565b905082810360808401526149778185613c6d565b98975050505050505050565b60006020828403121561499557600080fd5b8151610d0281613ae7565b600060033d11156149b95760046000803e5060005160e01c5b90565b600060443d10156149ca5790565b6040516003193d81016004833e81513d6001600160401b0381602484011181841117156149f957505050505090565b8285019150815181811115614a115750505050505090565b843d8701016020828501011115614a2b5750505050505090565b614a3a60208286010187613b30565b509095945050505050565b60208082526028908201527f455243313135353a204552433131353552656365697665722072656a656374656040820152676420746f6b656e7360c01b606082015260800190565b6001600160a01b03868116825285166020820152604081018490526060810183905260a060808201819052600090614ac790830184613c6d565b97965050505050505056fe416464726573733a206c6f772d6c6576656c2064656c65676174652063616c6c206661696c6564f5eb84615c2a00ecaf817d13794ebd6299c9e01c395bf4018453f13f577f5449a2646970667358221220720836025e2594e20e3e5eb1d705b7b11cdd23096cc46ba721f0fec7051b6a6464736f6c63430008090033",
  "immutableReferences": {
    "1023": [
      {
        "length": 32,
        "start": 3664
      },
      {
        "length": 32,
        "start": 3728
      },
      {
        "length": 32,
        "start": 4175
      },
      {
        "length": 32,
        "start": 4239
      }
    ]
  },
  "source": "// SPDX-License-Identifier: MIT\npragma solidity 0.8.9;\n\nimport \"@openzeppelin/contracts-upgradeable/token/ERC1155/ERC1155Upgradeable.sol\";\nimport \"@openzeppelin/contracts-upgradeable/access/AccessControlUpgradeable.sol\";\nimport \"@openzeppelin/contracts-upgradeable/token/ERC1155/extensions/ERC1155BurnableUpgradeable.sol\";\nimport \"@openzeppelin/contracts-upgradeable/proxy/utils/Initializable.sol\";\nimport \"@openzeppelin/contracts-upgradeable/proxy/utils/UUPSUpgradeable.sol\";\nimport \"@openzeppelin/contracts-upgradeable/utils/CountersUpgradeable.sol\";\nimport \"./MelandNFTFreeze.sol\";\nimport \"./MelandTierAddressStore.sol\";\nimport \"./MelandAccessRoles.sol\";\nimport \"./MelandTier.sol\";\nimport \"./Meland1155StoreItem.sol\";\n\ncontract Meland1155LandFuture is\n    Initializable,\n    MelandTierAddressStore,\n    MelandAccessRoles,\n    ERC1155BurnableUpgradeable,\n    MelandNFTFreeze,\n    Meland1155StoreItem,\n    UUPSUpgradeable\n{\n    using CountersUpgradeable for CountersUpgradeable.Counter;\n\n    CountersUpgradeable.Counter private _tokenIdCounter;\n    bytes public constant vipland1x1 = \"vipland1x1\";\n    bytes public constant vipland2x2 = \"vipland2x2\";\n    bytes public constant vipland4x4 = \"vipland4x4\";\n    mapping(bytes => bool) public supportLandtypes;\n    mapping(uint256 => string) public landtypeById;\n    mapping(bytes32 => uint256) public totalSupplyByLandtype;\n    mapping(address => bool) public canBuyListByAddress;\n\n    function initialize(string memory _uri) public initializer {\n        __ERC1155_init(_uri);\n        __ERC1155Burnable_init();\n        __UUPSUpgradeable_init();\n        __MelandNFTFreeze_init();\n        __MelandAccessRoles_init();\n\n        supportLandtypes[vipland1x1] = true;\n        supportLandtypes[vipland2x2] = true;\n        supportLandtypes[vipland4x4] = true;\n    }\n\n    function setURI(string memory newuri) public onlyRole(GM_ROLE) {\n        _setURI(newuri);\n    }\n\n    function uri(uint256 id)\n        public\n        view\n        virtual\n        override\n        returns (string memory)\n    {\n        string memory landtype = landtypeById[id];\n        return string(abi.encodePacked(super.uri(id), \"/\", landtype, \"/\", id));\n    }\n\n    function setCanBuyListByAddress(address _address, bool _b) public onlyRole(GM_ROLE) {\n        canBuyListByAddress[_address] = _b;\n    }\n\n    function melandStoreItemURI(string memory symbol)\n        external\n        view\n        returns (string memory)\n    {\n        return string(abi.encodePacked(ERC1155Upgradeable.uri(0), \"/\", symbol, \"/\"));\n    }\n\n    function isApprovedForAll(address _owner, address _operator)\n        public\n        view\n        override(MelandTierAddressStore, ERC1155Upgradeable)\n        returns (bool isOperator)\n    {\n        return super.isApprovedForAll(_owner, _operator);\n    }\n\n    function mint(\n        address account,\n        uint256 amount,\n        bytes memory landtype\n    ) public onlyRole(MINTER_ROLE) {\n        require(canBuyListByAddress[account], \"Not eligible to buy\");\n        _tokenIdCounter.increment();\n        uint256 id = _tokenIdCounter.current();\n        _mint(account, id, amount, landtype);\n    }\n\n    // Add or cancel freeze white list\n    function setFreezeWhiteList(address _account, bool _bool)\n        public\n        onlyRole(GM_ROLE)\n    {\n        _setFreezeWhite(_account, _bool);\n    }\n\n    function setMelandTier(MelandTier _tierAddress) public onlyRole(GM_ROLE) {\n        _setMelandTier(_tierAddress);\n    }\n\n    // Enable or Disable Freeze feature.\n    function setFreezeEnabled(bool _bool) public onlyRole(GM_ROLE) {\n        _setFreezeEnabled(_bool);\n    }\n\n    function _authorizeUpgrade(address newImplementation)\n        internal\n        override\n        onlyRole(UPGRADER_ROLE)\n    {}\n\n    function totalSupply(uint256 id) internal view returns (uint256) {\n        string memory lantype = landtypeById[id];\n        return totalSupplyByLandtype[keccak256(bytes(lantype))];\n    }\n\n    // The following functions are overrides required by Solidity.\n\n    function supportsInterface(bytes4 interfaceId)\n        public\n        view\n        override(ERC1155Upgradeable, AccessControlUpgradeable)\n        returns (bool)\n    {\n        return super.supportsInterface(interfaceId);\n    }\n\n    // The following functions are overrides required by Solidity.\n    function _beforeTokenTransfer(\n        address operator,\n        address from,\n        address to,\n        uint256[] memory ids,\n        uint256[] memory amounts,\n        bytes memory maybelandtype\n    ) internal override(ERC1155Upgradeable) {\n        for (uint256 i = 0; i < amounts.length; i++) {\n            require(\n                amounts[i] == 1,\n                \"Each land is unique, So there is no transfer greater than 1\"\n            );\n        }\n\n        for (uint256 i = 0; i < ids.length; i++) {\n            uint256 id = ids[i];\n\n            // check freeze\n            string memory landtype = landtypeById[id];\n\n            if (keccak256(bytes(landtype)) == keccak256(\"ticketland\")) {\n                _freezeProtect(from, to, id);\n            }\n\n            // sub totalSupply when burn token\n            if (to == address(0)) {\n                // clear lantyoe when burn\n                delete landtypeById[id];\n                totalSupplyByLandtype[keccak256(bytes(landtype))] -= 1;\n            }\n        }\n\n        // if is mint\n        // check land type is support\n        if (from == address(0)) {\n            require(\n                supportLandtypes[maybelandtype],\n                string(abi.encodePacked(maybelandtype, \"is not support\"))\n            );\n\n            for (uint256 i = 0; i < ids.length; i++) {\n                require(\n                    ids[i] >= 10001 && ids[i] <= 10000001000,\n                    \"Coordinates are not legal\"\n                );\n                require(\n                    bytes(landtypeById[ids[i]]).length == 0,\n                    \"Make sure each land is unique\"\n                );\n                landtypeById[ids[i]] = string(maybelandtype);\n            }\n\n            totalSupplyByLandtype[keccak256(maybelandtype)] += ids.length;\n        }\n\n        super._beforeTokenTransfer(\n            operator,\n            from,\n            to,\n            ids,\n            amounts,\n            maybelandtype\n        );\n    }\n\n    // store item impl ----\n    function setAcceptedToken(IERC20Upgradeable token)\n        external\n        onlyRole(GM_ROLE)\n    {\n        _setAcceptedToken(token);\n    }\n\n    function setStore(NFTStore s) external onlyRole(GM_ROLE) {\n        _setStore(s);\n    }\n\n    function setStoreItem(string memory symbol, uint256 p)\n        external\n        onlyRole(GM_ROLE)\n    {\n        _setStoreItem(symbol, p);\n    }\n\n    function delStoreItem(string memory symbol) external onlyRole(GM_ROLE) {\n        _delStoreItem(symbol);\n    }\n\n    // If return ture, means that the mall will only have the specified id\n    // Else otherwise it will be linear mint\n    // The ids Must ensure that you can mint\n    // If multi-channel sales or mint, you need to filter out the ids that have been minted\n    // To prevent errors in the sales process\n    function melandStoreItemsRestrictPurchaseNFTIds(string memory)\n        external\n        pure\n        returns (bool, uint256[] memory)\n    {\n        uint256[] memory ids;\n        return (false, ids);\n    }\n\n    // Store to pay NFT to the selling user by calling this function,\n    // For security reasons, be sure to control the permissions to allow only MelandStore contracts to call\n    // If melandStoreItemsRestrictPurchaseNFTIds return false, the id as zero.\n    function melandStoreItemsMint(\n        string memory symbol,\n        uint256 id,\n        address to\n    ) external override returns(uint256) {\n        super.checkMelandStoreItemsMint(symbol, id, to);\n        mint(to, 1, bytes(symbol));\n        _dispatchItemInfoUpdate();\n        return id;\n    }\n\n    // If return false, Stores will suspend sales.\n    function melandStoreSellStatus(string memory)\n        external\n        pure\n        returns (bool)\n    {\n        return true;\n    }\n\n    // If return true, it means that each person can only buy a certain amount\n    function melandStoreItemsRestrictedPurchase(string memory)\n        external\n        pure\n        returns (bool restricted, uint256 restrictLimit)\n    {\n        restricted = true;\n        restrictLimit = 1;\n    }\n}\n",
  "sourcePath": "/Users/alberthuang/code/icw/meland/contracts/Meland1155LandFuture.sol",
  "compiler": {
    "name": "solc",
    "version": "0.8.9+commit.e5eed63a.Emscripten.clang"
  },
  "schemaVersion": "3.4.3",
  "updatedAt": "2021-12-27T03:05:35.272Z",
  "networkType": "ethereum",
  "devdoc": {
    "kind": "dev",
    "methods": {
      "balanceOf(address,uint256)": {
        "details": "See {IERC1155-balanceOf}. Requirements: - `account` cannot be the zero address."
      },
      "balanceOfBatch(address[],uint256[])": {
        "details": "See {IERC1155-balanceOfBatch}. Requirements: - `accounts` and `ids` must have the same length."
      },
      "getRoleAdmin(bytes32)": {
        "details": "Returns the admin role that controls `role`. See {grantRole} and {revokeRole}. To change a role's admin, use {_setRoleAdmin}."
      },
      "grantRole(bytes32,address)": {
        "details": "Grants `role` to `account`. If `account` had not been already granted `role`, emits a {RoleGranted} event. Requirements: - the caller must have ``role``'s admin role."
      },
      "hasRole(bytes32,address)": {
        "details": "Returns `true` if `account` has been granted `role`."
      },
      "renounceRole(bytes32,address)": {
        "details": "Revokes `role` from the calling account. Roles are often managed via {grantRole} and {revokeRole}: this function's purpose is to provide a mechanism for accounts to lose their privileges if they are compromised (such as when a trusted device is misplaced). If the calling account had been revoked `role`, emits a {RoleRevoked} event. Requirements: - the caller must be `account`."
      },
      "revokeRole(bytes32,address)": {
        "details": "Revokes `role` from `account`. If `account` had been granted `role`, emits a {RoleRevoked} event. Requirements: - the caller must have ``role``'s admin role."
      },
      "safeBatchTransferFrom(address,address,uint256[],uint256[],bytes)": {
        "details": "See {IERC1155-safeBatchTransferFrom}."
      },
      "safeTransferFrom(address,address,uint256,uint256,bytes)": {
        "details": "See {IERC1155-safeTransferFrom}."
      },
      "setApprovalForAll(address,bool)": {
        "details": "See {IERC1155-setApprovalForAll}."
      },
      "upgradeTo(address)": {
        "details": "Upgrade the implementation of the proxy to `newImplementation`. Calls {_authorizeUpgrade}. Emits an {Upgraded} event."
      },
      "upgradeToAndCall(address,bytes)": {
        "details": "Upgrade the implementation of the proxy to `newImplementation`, and subsequently execute the function call encoded in `data`. Calls {_authorizeUpgrade}. Emits an {Upgraded} event."
      }
    },
    "version": 1
  },
  "userdoc": {
    "kind": "user",
    "methods": {},
    "version": 1
  }
}