{
  "contractName": "Meland1155LandFuture",
  "abi": [
    {
      "anonymous": false,
      "inputs": [
        {
          "indexed": false,
          "internalType": "address",
          "name": "previousAdmin",
          "type": "address"
        },
        {
          "indexed": false,
          "internalType": "address",
          "name": "newAdmin",
          "type": "address"
        }
      ],
      "name": "AdminChanged",
      "type": "event"
    },
    {
      "anonymous": false,
      "inputs": [
        {
          "indexed": true,
          "internalType": "address",
          "name": "account",
          "type": "address"
        },
        {
          "indexed": true,
          "internalType": "address",
          "name": "operator",
          "type": "address"
        },
        {
          "indexed": false,
          "internalType": "bool",
          "name": "approved",
          "type": "bool"
        }
      ],
      "name": "ApprovalForAll",
      "type": "event"
    },
    {
      "anonymous": false,
      "inputs": [
        {
          "indexed": true,
          "internalType": "address",
          "name": "beacon",
          "type": "address"
        }
      ],
      "name": "BeaconUpgraded",
      "type": "event"
    },
    {
      "anonymous": false,
      "inputs": [
        {
          "indexed": false,
          "internalType": "bool",
          "name": "_freezeEnabled",
          "type": "bool"
        }
      ],
      "name": "FreezeEnabledUpdate",
      "type": "event"
    },
    {
      "anonymous": false,
      "inputs": [
        {
          "indexed": true,
          "internalType": "address",
          "name": "_address",
          "type": "address"
        },
        {
          "indexed": false,
          "internalType": "bool",
          "name": "_bool",
          "type": "bool"
        }
      ],
      "name": "FreezeWhiteListUpdate",
      "type": "event"
    },
    {
      "anonymous": false,
      "inputs": [
        {
          "indexed": false,
          "internalType": "uint256[]",
          "name": "landIds",
          "type": "uint256[]"
        }
      ],
      "name": "LandFuturesClaimUpdate",
      "type": "event"
    },
    {
      "anonymous": false,
      "inputs": [
        {
          "indexed": true,
          "internalType": "bytes32",
          "name": "role",
          "type": "bytes32"
        },
        {
          "indexed": true,
          "internalType": "bytes32",
          "name": "previousAdminRole",
          "type": "bytes32"
        },
        {
          "indexed": true,
          "internalType": "bytes32",
          "name": "newAdminRole",
          "type": "bytes32"
        }
      ],
      "name": "RoleAdminChanged",
      "type": "event"
    },
    {
      "anonymous": false,
      "inputs": [
        {
          "indexed": true,
          "internalType": "bytes32",
          "name": "role",
          "type": "bytes32"
        },
        {
          "indexed": true,
          "internalType": "address",
          "name": "account",
          "type": "address"
        },
        {
          "indexed": true,
          "internalType": "address",
          "name": "sender",
          "type": "address"
        }
      ],
      "name": "RoleGranted",
      "type": "event"
    },
    {
      "anonymous": false,
      "inputs": [
        {
          "indexed": true,
          "internalType": "bytes32",
          "name": "role",
          "type": "bytes32"
        },
        {
          "indexed": true,
          "internalType": "address",
          "name": "account",
          "type": "address"
        },
        {
          "indexed": true,
          "internalType": "address",
          "name": "sender",
          "type": "address"
        }
      ],
      "name": "RoleRevoked",
      "type": "event"
    },
    {
      "anonymous": false,
      "inputs": [
        {
          "indexed": true,
          "internalType": "address",
          "name": "operator",
          "type": "address"
        },
        {
          "indexed": true,
          "internalType": "address",
          "name": "from",
          "type": "address"
        },
        {
          "indexed": true,
          "internalType": "address",
          "name": "to",
          "type": "address"
        },
        {
          "indexed": false,
          "internalType": "uint256[]",
          "name": "ids",
          "type": "uint256[]"
        },
        {
          "indexed": false,
          "internalType": "uint256[]",
          "name": "values",
          "type": "uint256[]"
        }
      ],
      "name": "TransferBatch",
      "type": "event"
    },
    {
      "anonymous": false,
      "inputs": [
        {
          "indexed": true,
          "internalType": "address",
          "name": "operator",
          "type": "address"
        },
        {
          "indexed": true,
          "internalType": "address",
          "name": "from",
          "type": "address"
        },
        {
          "indexed": true,
          "internalType": "address",
          "name": "to",
          "type": "address"
        },
        {
          "indexed": false,
          "internalType": "uint256",
          "name": "id",
          "type": "uint256"
        },
        {
          "indexed": false,
          "internalType": "uint256",
          "name": "value",
          "type": "uint256"
        }
      ],
      "name": "TransferSingle",
      "type": "event"
    },
    {
      "anonymous": false,
      "inputs": [
        {
          "indexed": false,
          "internalType": "string",
          "name": "value",
          "type": "string"
        },
        {
          "indexed": true,
          "internalType": "uint256",
          "name": "id",
          "type": "uint256"
        }
      ],
      "name": "URI",
      "type": "event"
    },
    {
      "anonymous": false,
      "inputs": [
        {
          "indexed": true,
          "internalType": "address",
          "name": "implementation",
          "type": "address"
        }
      ],
      "name": "Upgraded",
      "type": "event"
    },
    {
      "inputs": [],
      "name": "DEFAULT_ADMIN_ROLE",
      "outputs": [
        {
          "internalType": "bytes32",
          "name": "",
          "type": "bytes32"
        }
      ],
      "stateMutability": "view",
      "type": "function",
      "constant": true
    },
    {
      "inputs": [],
      "name": "GM_ROLE",
      "outputs": [
        {
          "internalType": "bytes32",
          "name": "",
          "type": "bytes32"
        }
      ],
      "stateMutability": "view",
      "type": "function",
      "constant": true
    },
    {
      "inputs": [],
      "name": "MINTER_ROLE",
      "outputs": [
        {
          "internalType": "bytes32",
          "name": "",
          "type": "bytes32"
        }
      ],
      "stateMutability": "view",
      "type": "function",
      "constant": true
    },
    {
      "inputs": [],
      "name": "UPGRADER_ROLE",
      "outputs": [
        {
          "internalType": "bytes32",
          "name": "",
          "type": "bytes32"
        }
      ],
      "stateMutability": "view",
      "type": "function",
      "constant": true
    },
    {
      "inputs": [
        {
          "internalType": "string",
          "name": "",
          "type": "string"
        }
      ],
      "name": "acceptedToken",
      "outputs": [
        {
          "internalType": "contract IERC20Upgradeable",
          "name": "",
          "type": "address"
        }
      ],
      "stateMutability": "view",
      "type": "function",
      "constant": true
    },
    {
      "inputs": [
        {
          "internalType": "address",
          "name": "account",
          "type": "address"
        },
        {
          "internalType": "uint256",
          "name": "id",
          "type": "uint256"
        }
      ],
      "name": "balanceOf",
      "outputs": [
        {
          "internalType": "uint256",
          "name": "",
          "type": "uint256"
        }
      ],
      "stateMutability": "view",
      "type": "function",
      "constant": true
    },
    {
      "inputs": [
        {
          "internalType": "address[]",
          "name": "accounts",
          "type": "address[]"
        },
        {
          "internalType": "uint256[]",
          "name": "ids",
          "type": "uint256[]"
        }
      ],
      "name": "balanceOfBatch",
      "outputs": [
        {
          "internalType": "uint256[]",
          "name": "",
          "type": "uint256[]"
        }
      ],
      "stateMutability": "view",
      "type": "function",
      "constant": true
    },
    {
      "inputs": [
        {
          "internalType": "address",
          "name": "account",
          "type": "address"
        },
        {
          "internalType": "uint256",
          "name": "id",
          "type": "uint256"
        },
        {
          "internalType": "uint256",
          "name": "value",
          "type": "uint256"
        }
      ],
      "name": "burn",
      "outputs": [],
      "stateMutability": "nonpayable",
      "type": "function"
    },
    {
      "inputs": [
        {
          "internalType": "address",
          "name": "account",
          "type": "address"
        },
        {
          "internalType": "uint256[]",
          "name": "ids",
          "type": "uint256[]"
        },
        {
          "internalType": "uint256[]",
          "name": "values",
          "type": "uint256[]"
        }
      ],
      "name": "burnBatch",
      "outputs": [],
      "stateMutability": "nonpayable",
      "type": "function"
    },
    {
      "inputs": [
        {
          "internalType": "address",
          "name": "",
          "type": "address"
        }
      ],
      "name": "canBuyListByAddress",
      "outputs": [
        {
          "internalType": "bool",
          "name": "",
          "type": "bool"
        }
      ],
      "stateMutability": "view",
      "type": "function",
      "constant": true
    },
    {
      "inputs": [
        {
          "internalType": "uint256",
          "name": "",
          "type": "uint256"
        }
      ],
      "name": "claimedById",
      "outputs": [
        {
          "internalType": "bool",
          "name": "",
          "type": "bool"
        }
      ],
      "stateMutability": "view",
      "type": "function",
      "constant": true
    },
    {
      "inputs": [
        {
          "internalType": "uint256",
          "name": "",
          "type": "uint256"
        }
      ],
      "name": "ereezeExpiredAtMapById",
      "outputs": [
        {
          "internalType": "uint256",
          "name": "",
          "type": "uint256"
        }
      ],
      "stateMutability": "view",
      "type": "function",
      "constant": true
    },
    {
      "inputs": [
        {
          "internalType": "bytes32",
          "name": "role",
          "type": "bytes32"
        }
      ],
      "name": "getRoleAdmin",
      "outputs": [
        {
          "internalType": "bytes32",
          "name": "",
          "type": "bytes32"
        }
      ],
      "stateMutability": "view",
      "type": "function",
      "constant": true
    },
    {
      "inputs": [
        {
          "internalType": "bytes32",
          "name": "role",
          "type": "bytes32"
        },
        {
          "internalType": "address",
          "name": "account",
          "type": "address"
        }
      ],
      "name": "grantRole",
      "outputs": [],
      "stateMutability": "nonpayable",
      "type": "function"
    },
    {
      "inputs": [
        {
          "internalType": "bytes32",
          "name": "role",
          "type": "bytes32"
        },
        {
          "internalType": "address",
          "name": "account",
          "type": "address"
        }
      ],
      "name": "hasRole",
      "outputs": [
        {
          "internalType": "bool",
          "name": "",
          "type": "bool"
        }
      ],
      "stateMutability": "view",
      "type": "function",
      "constant": true
    },
    {
      "inputs": [
        {
          "internalType": "uint256",
          "name": "",
          "type": "uint256"
        }
      ],
      "name": "landtypeById",
      "outputs": [
        {
          "internalType": "string",
          "name": "",
          "type": "string"
        }
      ],
      "stateMutability": "view",
      "type": "function",
      "constant": true
    },
    {
      "inputs": [],
      "name": "melandStoreItems",
      "outputs": [
        {
          "internalType": "string[]",
          "name": "",
          "type": "string[]"
        },
        {
          "internalType": "uint256[]",
          "name": "",
          "type": "uint256[]"
        }
      ],
      "stateMutability": "view",
      "type": "function",
      "constant": true
    },
    {
      "inputs": [
        {
          "internalType": "string",
          "name": "",
          "type": "string"
        }
      ],
      "name": "melandStoreReceipt",
      "outputs": [
        {
          "internalType": "address",
          "name": "receipt",
          "type": "address"
        }
      ],
      "stateMutability": "pure",
      "type": "function",
      "constant": true
    },
    {
      "inputs": [
        {
          "internalType": "string",
          "name": "_a",
          "type": "string"
        }
      ],
      "name": "parseInt",
      "outputs": [
        {
          "internalType": "uint256",
          "name": "_parsedInt",
          "type": "uint256"
        }
      ],
      "stateMutability": "pure",
      "type": "function",
      "constant": true
    },
    {
      "inputs": [
        {
          "internalType": "string",
          "name": "_a",
          "type": "string"
        },
        {
          "internalType": "uint256",
          "name": "_b",
          "type": "uint256"
        }
      ],
      "name": "parseInt",
      "outputs": [
        {
          "internalType": "uint256",
          "name": "_parsedInt",
          "type": "uint256"
        }
      ],
      "stateMutability": "pure",
      "type": "function",
      "constant": true
    },
    {
      "inputs": [
        {
          "internalType": "bytes32",
          "name": "role",
          "type": "bytes32"
        },
        {
          "internalType": "address",
          "name": "account",
          "type": "address"
        }
      ],
      "name": "renounceRole",
      "outputs": [],
      "stateMutability": "nonpayable",
      "type": "function"
    },
    {
      "inputs": [
        {
          "internalType": "bytes32",
          "name": "role",
          "type": "bytes32"
        },
        {
          "internalType": "address",
          "name": "account",
          "type": "address"
        }
      ],
      "name": "revokeRole",
      "outputs": [],
      "stateMutability": "nonpayable",
      "type": "function"
    },
    {
      "inputs": [
        {
          "internalType": "address",
          "name": "from",
          "type": "address"
        },
        {
          "internalType": "address",
          "name": "to",
          "type": "address"
        },
        {
          "internalType": "uint256[]",
          "name": "ids",
          "type": "uint256[]"
        },
        {
          "internalType": "uint256[]",
          "name": "amounts",
          "type": "uint256[]"
        },
        {
          "internalType": "bytes",
          "name": "data",
          "type": "bytes"
        }
      ],
      "name": "safeBatchTransferFrom",
      "outputs": [],
      "stateMutability": "nonpayable",
      "type": "function"
    },
    {
      "inputs": [
        {
          "internalType": "string",
          "name": "_a",
          "type": "string"
        }
      ],
      "name": "safeParseInt",
      "outputs": [
        {
          "internalType": "uint256",
          "name": "_parsedInt",
          "type": "uint256"
        }
      ],
      "stateMutability": "pure",
      "type": "function",
      "constant": true
    },
    {
      "inputs": [
        {
          "internalType": "string",
          "name": "_a",
          "type": "string"
        },
        {
          "internalType": "uint256",
          "name": "_b",
          "type": "uint256"
        }
      ],
      "name": "safeParseInt",
      "outputs": [
        {
          "internalType": "uint256",
          "name": "_parsedInt",
          "type": "uint256"
        }
      ],
      "stateMutability": "pure",
      "type": "function",
      "constant": true
    },
    {
      "inputs": [
        {
          "internalType": "address",
          "name": "from",
          "type": "address"
        },
        {
          "internalType": "address",
          "name": "to",
          "type": "address"
        },
        {
          "internalType": "uint256",
          "name": "id",
          "type": "uint256"
        },
        {
          "internalType": "uint256",
          "name": "amount",
          "type": "uint256"
        },
        {
          "internalType": "bytes",
          "name": "data",
          "type": "bytes"
        }
      ],
      "name": "safeTransferFrom",
      "outputs": [],
      "stateMutability": "nonpayable",
      "type": "function"
    },
    {
      "inputs": [
        {
          "internalType": "address",
          "name": "operator",
          "type": "address"
        },
        {
          "internalType": "bool",
          "name": "approved",
          "type": "bool"
        }
      ],
      "name": "setApprovalForAll",
      "outputs": [],
      "stateMutability": "nonpayable",
      "type": "function"
    },
    {
      "inputs": [
        {
          "internalType": "bytes",
          "name": "",
          "type": "bytes"
        }
      ],
      "name": "supportLandtypes",
      "outputs": [
        {
          "internalType": "bool",
          "name": "",
          "type": "bool"
        }
      ],
      "stateMutability": "view",
      "type": "function",
      "constant": true
    },
    {
      "inputs": [
        {
          "internalType": "bytes32",
          "name": "",
          "type": "bytes32"
        }
      ],
      "name": "totalSupplyByLandtype",
      "outputs": [
        {
          "internalType": "uint256",
          "name": "",
          "type": "uint256"
        }
      ],
      "stateMutability": "view",
      "type": "function",
      "constant": true
    },
    {
      "inputs": [
        {
          "internalType": "address",
          "name": "newImplementation",
          "type": "address"
        }
      ],
      "name": "upgradeTo",
      "outputs": [],
      "stateMutability": "nonpayable",
      "type": "function"
    },
    {
      "inputs": [
        {
          "internalType": "address",
          "name": "newImplementation",
          "type": "address"
        },
        {
          "internalType": "bytes",
          "name": "data",
          "type": "bytes"
        }
      ],
      "name": "upgradeToAndCall",
      "outputs": [],
      "stateMutability": "payable",
      "type": "function",
      "payable": true
    },
    {
      "inputs": [],
      "name": "vipland1x1",
      "outputs": [
        {
          "internalType": "bytes",
          "name": "",
          "type": "bytes"
        }
      ],
      "stateMutability": "view",
      "type": "function",
      "constant": true
    },
    {
      "inputs": [],
      "name": "vipland2x2",
      "outputs": [
        {
          "internalType": "bytes",
          "name": "",
          "type": "bytes"
        }
      ],
      "stateMutability": "view",
      "type": "function",
      "constant": true
    },
    {
      "inputs": [],
      "name": "vipland4x4",
      "outputs": [
        {
          "internalType": "bytes",
          "name": "",
          "type": "bytes"
        }
      ],
      "stateMutability": "view",
      "type": "function",
      "constant": true
    },
    {
      "inputs": [],
      "name": "vipland4x4fixed",
      "outputs": [
        {
          "internalType": "bytes",
          "name": "",
          "type": "bytes"
        }
      ],
      "stateMutability": "view",
      "type": "function",
      "constant": true
    },
    {
      "inputs": [
        {
          "internalType": "string",
          "name": "_uri",
          "type": "string"
        }
      ],
      "name": "initialize",
      "outputs": [],
      "stateMutability": "nonpayable",
      "type": "function"
    },
    {
      "inputs": [
        {
          "internalType": "string",
          "name": "newuri",
          "type": "string"
        }
      ],
      "name": "setURI",
      "outputs": [],
      "stateMutability": "nonpayable",
      "type": "function"
    },
    {
      "inputs": [],
      "name": "fixedtype",
      "outputs": [],
      "stateMutability": "nonpayable",
      "type": "function"
    },
    {
      "inputs": [
        {
          "internalType": "uint256",
          "name": "id",
          "type": "uint256"
        }
      ],
      "name": "uri",
      "outputs": [
        {
          "internalType": "string",
          "name": "",
          "type": "string"
        }
      ],
      "stateMutability": "view",
      "type": "function",
      "constant": true
    },
    {
      "inputs": [
        {
          "internalType": "address",
          "name": "_address",
          "type": "address"
        },
        {
          "internalType": "bool",
          "name": "_b",
          "type": "bool"
        }
      ],
      "name": "setCanBuyListByAddress",
      "outputs": [],
      "stateMutability": "nonpayable",
      "type": "function"
    },
    {
      "inputs": [
        {
          "internalType": "uint256[]",
          "name": "_ids",
          "type": "uint256[]"
        },
        {
          "internalType": "bool",
          "name": "_b",
          "type": "bool"
        }
      ],
      "name": "setClaimed",
      "outputs": [],
      "stateMutability": "nonpayable",
      "type": "function"
    },
    {
      "inputs": [
        {
          "internalType": "string",
          "name": "symbol",
          "type": "string"
        }
      ],
      "name": "melandStoreItemURI",
      "outputs": [
        {
          "internalType": "string",
          "name": "",
          "type": "string"
        }
      ],
      "stateMutability": "view",
      "type": "function",
      "constant": true
    },
    {
      "inputs": [
        {
          "internalType": "address",
          "name": "_owner",
          "type": "address"
        },
        {
          "internalType": "address",
          "name": "_operator",
          "type": "address"
        }
      ],
      "name": "isApprovedForAll",
      "outputs": [
        {
          "internalType": "bool",
          "name": "isOperator",
          "type": "bool"
        }
      ],
      "stateMutability": "view",
      "type": "function",
      "constant": true
    },
    {
      "inputs": [
        {
          "internalType": "address",
          "name": "account",
          "type": "address"
        },
        {
          "internalType": "uint256",
          "name": "amount",
          "type": "uint256"
        },
        {
          "internalType": "bytes",
          "name": "landtype",
          "type": "bytes"
        }
      ],
      "name": "mint",
      "outputs": [],
      "stateMutability": "nonpayable",
      "type": "function"
    },
    {
      "inputs": [
        {
          "internalType": "address",
          "name": "_account",
          "type": "address"
        },
        {
          "internalType": "bool",
          "name": "_bool",
          "type": "bool"
        }
      ],
      "name": "setFreezeWhiteList",
      "outputs": [],
      "stateMutability": "nonpayable",
      "type": "function"
    },
    {
      "inputs": [
        {
          "internalType": "contract MelandTier",
          "name": "_tierAddress",
          "type": "address"
        }
      ],
      "name": "setMelandTier",
      "outputs": [],
      "stateMutability": "nonpayable",
      "type": "function"
    },
    {
      "inputs": [
        {
          "internalType": "bool",
          "name": "_bool",
          "type": "bool"
        }
      ],
      "name": "setFreezeEnabled",
      "outputs": [],
      "stateMutability": "nonpayable",
      "type": "function"
    },
    {
      "inputs": [
        {
          "internalType": "bytes4",
          "name": "interfaceId",
          "type": "bytes4"
        }
      ],
      "name": "supportsInterface",
      "outputs": [
        {
          "internalType": "bool",
          "name": "",
          "type": "bool"
        }
      ],
      "stateMutability": "view",
      "type": "function",
      "constant": true
    },
    {
      "inputs": [
        {
          "internalType": "contract IERC20Upgradeable",
          "name": "token",
          "type": "address"
        }
      ],
      "name": "setAcceptedToken",
      "outputs": [],
      "stateMutability": "nonpayable",
      "type": "function"
    },
    {
      "inputs": [
        {
          "internalType": "contract NFTStore",
          "name": "s",
          "type": "address"
        }
      ],
      "name": "setStore",
      "outputs": [],
      "stateMutability": "nonpayable",
      "type": "function"
    },
    {
      "inputs": [
        {
          "internalType": "string",
          "name": "symbol",
          "type": "string"
        },
        {
          "internalType": "uint256",
          "name": "p",
          "type": "uint256"
        }
      ],
      "name": "setStoreItem",
      "outputs": [],
      "stateMutability": "nonpayable",
      "type": "function"
    },
    {
      "inputs": [
        {
          "internalType": "string",
          "name": "symbol",
          "type": "string"
        }
      ],
      "name": "delStoreItem",
      "outputs": [],
      "stateMutability": "nonpayable",
      "type": "function"
    },
    {
      "inputs": [
        {
          "internalType": "string",
          "name": "",
          "type": "string"
        }
      ],
      "name": "melandStoreItemsRestrictPurchaseNFTIds",
      "outputs": [
        {
          "internalType": "bool",
          "name": "",
          "type": "bool"
        },
        {
          "internalType": "uint256[]",
          "name": "",
          "type": "uint256[]"
        }
      ],
      "stateMutability": "pure",
      "type": "function",
      "constant": true
    },
    {
      "inputs": [
        {
          "internalType": "string",
          "name": "symbol",
          "type": "string"
        },
        {
          "internalType": "uint256",
          "name": "id",
          "type": "uint256"
        },
        {
          "internalType": "address",
          "name": "to",
          "type": "address"
        }
      ],
      "name": "melandStoreItemsMint",
      "outputs": [
        {
          "internalType": "uint256",
          "name": "",
          "type": "uint256"
        }
      ],
      "stateMutability": "nonpayable",
      "type": "function"
    },
    {
      "inputs": [
        {
          "internalType": "string",
          "name": "",
          "type": "string"
        }
      ],
      "name": "melandStoreSellStatus",
      "outputs": [
        {
          "internalType": "bool",
          "name": "",
          "type": "bool"
        }
      ],
      "stateMutability": "pure",
      "type": "function",
      "constant": true
    },
    {
      "inputs": [
        {
          "internalType": "string",
          "name": "",
          "type": "string"
        }
      ],
      "name": "melandStoreItemsRestrictedPurchase",
      "outputs": [
        {
          "internalType": "bool",
          "name": "restricted",
          "type": "bool"
        },
        {
          "internalType": "uint256",
          "name": "restrictLimit",
          "type": "uint256"
        }
      ],
      "stateMutability": "pure",
      "type": "function",
      "constant": true
    }
  ],
  "bytecode": "0x60a06040523060805234801561001457600080fd5b50608051614f2161004560003960008181611051015281816110910152818161125001526112900152614f216000f3fe60806040526004361061036a5760003560e01c80636b20c454116101c6578063bdb7b5dd116100f7578063f242432a11610095578063f62d18881161006f578063f62d188814610b45578063f70e9a4714610b65578063f72c0d8b14610b85578063fcc6dd5714610bb957600080fd5b8063f242432a14610ae5578063f405a58414610b05578063f5298aca14610b2557600080fd5b8063d547741f116100d1578063d547741f14610a65578063e17bfa5c14610a85578063e985e9c514610aa5578063ed9be43214610ac557600080fd5b8063bdb7b5dd146109f1578063bf4d89b514610a11578063d539139314610a3157600080fd5b806394d008ef11610164578063a22cb4651161013e578063a22cb46514610960578063afd600f314610980578063b0c208bc146109a0578063b74f13a2146109c057600080fd5b806394d008ef146108f95780639f89e76914610919578063a217fddf1461094b57600080fd5b806383c6c37d116101a057806383c6c37d1461086057806386e7f544146108805780638b31e62d146108b657806391d14854146108d957600080fd5b80636b20c4541461080057806371d42be5146108205780637487f5281461084057600080fd5b80632eb2c2d6116102a05780634c80ee121161023e57806352121f091161021857806352121f09146107305780635eccb30c1461075e578063664033d51461077e578063686d3d1f146107ca57600080fd5b80634c80ee12146106bf5780634e1273f4146106f05780634f1ef2861461071d57600080fd5b806333ac1f011161027a57806333ac1f011461062357806336568abe1461065f5780633659cfe61461067f57806342346c5e1461069f57600080fd5b80632eb2c2d6146105c15780632f2ff15d146105e157806330c7be2c1461060157600080fd5b80630f380ce21161030d5780631a98cef2116102e75780631a98cef21461052e5780631ba43d2b1461055b578063248a9ca31461057c5780632eb0fa00146105ac57600080fd5b80630f380ce2146104b857806315a54cf5146104ee5780631a8c2e801461050e57600080fd5b80630820c90d116103495780630820c90d146103f4578063087cbd401461042f5780630b5a6d861461044f5780630e89341c1461048b57600080fd5b8062fdd58e1461036f57806301ffc9a7146103a257806302fe5305146103d2575b600080fd5b34801561037b57600080fd5b5061038f61038a366004613d79565b610be5565b6040519081526020015b60405180910390f35b3480156103ae57600080fd5b506103c26103bd366004613dbb565b610c81565b6040519015158152602001610399565b3480156103de57600080fd5b506103f26103ed366004613e8d565b610c8c565b005b34801561040057600080fd5b5061041861040f366004613e8d565b50600090600190565b604080519215158352602083019190915201610399565b34801561043b57600080fd5b506103f261044a366004613ec9565b610cb2565b34801561045b57600080fd5b506103c261046a366004613e8d565b80516020818301810180516101698252928201919093012091525460ff1681565b34801561049757600080fd5b506104ab6104a6366004613ee6565b610cd4565b6040516103999190613f57565b3480156104c457600080fd5b506104ab6040518060400160405280600a8152602001693b34b83630b732193c1960b11b81525081565b3480156104fa57600080fd5b506103f2610509366004613f7f565b610daf565b34801561051a57600080fd5b5061038f610529366004613fb4565b610df5565b34801561053a57600080fd5b5061038f610549366004613ee6565b60ff6020526000908152604090205481565b34801561056757600080fd5b506103c2610576366004613e8d565b50600190565b34801561058857600080fd5b5061038f610597366004613ee6565b60009081526098602052604090206001015490565b3480156105b857600080fd5b506103f2610e93565b3480156105cd57600080fd5b506103f26105dc3660046140a2565b610f0a565b3480156105ed57600080fd5b506103f26105fc36600461414f565b610fa1565b34801561060d57600080fd5b5061038f600080516020614ecc83398151915281565b34801561062f57600080fd5b506104ab6040518060400160405280601081526020016f1d9a5c1b185b990d1e0d0b599a5e195960821b81525081565b34801561066b57600080fd5b506103f261067a36600461414f565b610fcc565b34801561068b57600080fd5b506103f261069a366004613ec9565b611046565b3480156106ab57600080fd5b5061038f6106ba366004613e8d565b61110f565b3480156106cb57600080fd5b506103c26106da366004613ee6565b61016d6020526000908152604090205460ff1681565b3480156106fc57600080fd5b5061071061070b36600461417f565b61111c565b6040516103999190614286565b6103f261072b366004614299565b611245565b34801561073c57600080fd5b5061038f61074b366004613ee6565b61016b6020526000908152604090205481565b34801561076a57600080fd5b5061038f610779366004613e8d565b6112fb565b34801561078a57600080fd5b506107b2610799366004613e8d565b5073fced262e4949b7b5c4177b4e0ad8e974cc7493bf90565b6040516001600160a01b039091168152602001610399565b3480156107d657600080fd5b506104ab6040518060400160405280600a8152602001691d9a5c1b185b990d1e0d60b21b81525081565b34801561080c57600080fd5b506103f261081b3660046142de565b611308565b34801561082c57600080fd5b506103f261083b366004614353565b61134b565b34801561084c57600080fd5b506103f261085b366004613ec9565b61136d565b34801561086c57600080fd5b506103f261087b366004613f7f565b61138f565b34801561088c57600080fd5b506104ab6040518060400160405280600a8152602001697669706c616e6431783160b01b81525081565b3480156108c257600080fd5b506108cb6113b2565b60405161039992919061436e565b3480156108e557600080fd5b506103c26108f436600461414f565b6114e8565b34801561090557600080fd5b506103f26109143660046143db565b611513565b34801561092557600080fd5b5061093d610934366004613e8d565b50600090606090565b604051610399929190614429565b34801561095757600080fd5b5061038f600081565b34801561096c57600080fd5b506103f261097b366004613f7f565b6115c6565b34801561098c57600080fd5b506104ab61099b366004613ee6565b6115d1565b3480156109ac57600080fd5b506103f26109bb366004613e8d565b61166c565b3480156109cc57600080fd5b506103c26109db366004613ec9565b61016c6020526000908152604090205460ff1681565b3480156109fd57600080fd5b506103f2610a0c366004614444565b61168e565b348015610a1d57600080fd5b5061038f610a2c366004614444565b6116b1565b348015610a3d57600080fd5b5061038f7f9f2df0fed2c77648de5860a4cc508cd0818c85b8b8a1ab4ceeef8d981c8956a681565b348015610a7157600080fd5b506103f2610a8036600461414f565b6117ce565b348015610a9157600080fd5b506103f2610aa0366004614488565b6117f4565b348015610ab157600080fd5b506103c2610ac03660046144cc565b6118ae565b348015610ad157600080fd5b5061038f610ae0366004614444565b6118ba565b348015610af157600080fd5b506103f2610b003660046144fa565b611a73565b348015610b1157600080fd5b506104ab610b20366004613e8d565b611ab8565b348015610b3157600080fd5b506103f2610b40366004614562565b611aec565b348015610b5157600080fd5b506103f2610b60366004613e8d565b611b2f565b348015610b7157600080fd5b506103f2610b80366004613ec9565b611d1a565b348015610b9157600080fd5b5061038f7f189ab7a9244df0848122154315af71fe140f3db0fe014031783b0946b8c9d2e381565b348015610bc557600080fd5b506107b2610bd4366004613e8d565b50610101546001600160a01b031690565b60006001600160a01b038316610c565760405162461bcd60e51b815260206004820152602b60248201527f455243313135353a2062616c616e636520717565727920666f7220746865207a60448201526a65726f206164647265737360a81b60648201526084015b60405180910390fd5b5060008181526065602090815260408083206001600160a01b03861684529091529020545b92915050565b6000610c7b82611d52565b600080516020614ecc833981519152610ca58133611d77565b610cae82611ddb565b5050565b600080516020614ecc833981519152610ccb8133611d77565b610cae82611dee565b600081815261016a6020526040812080546060929190610cf390614597565b80601f0160208091040260200160405190810160405280929190818152602001828054610d1f90614597565b8015610d6c5780601f10610d4157610100808354040283529160200191610d6c565b820191906000526020600020905b815481529060010190602001808311610d4f57829003601f168201915b50505050509050610d7c83611e12565b81610d8685611ea6565b604051602001610d98939291906145d2565b604051602081830303815290604052915050919050565b600080516020614ecc833981519152610dc88133611d77565b506001600160a01b0391909116600090815261016c60205260409020805460ff1916911515919091179055565b6001600160a01b038116600090815261016c602052604081205460ff16610e545760405162461bcd60e51b81526020600482015260136024820152724e6f7420656c696769626c6520746f2062757960681b6044820152606401610c4d565b610e5f848484611fc5565b610e6e61016880546001019055565b610168549250610e818284600187612029565b610e8961213b565b50815b9392505050565b600080516020614ecc833981519152610eac8133611d77565b60016101696040518060400160405280601081526020016f1d9a5c1b185b990d1e0d0b599a5e195960821b815250604051610ee7919061462c565b908152604051908190036020019020805491151560ff1990921691909117905550565b6001600160a01b038516331480610f265750610f2685336118ae565b610f8d5760405162461bcd60e51b815260206004820152603260248201527f455243313135353a207472616e736665722063616c6c6572206973206e6f74206044820152711bdddb995c881b9bdc88185c1c1c9bdd995960721b6064820152608401610c4d565b610f9a85858585856121ae565b5050505050565b600082815260986020526040902060010154610fbd8133611d77565b610fc7838361235b565b505050565b6001600160a01b038116331461103c5760405162461bcd60e51b815260206004820152602f60248201527f416363657373436f6e74726f6c3a2063616e206f6e6c792072656e6f756e636560448201526e103937b632b9903337b91039b2b63360891b6064820152608401610c4d565b610cae82826123e1565b306001600160a01b037f000000000000000000000000000000000000000000000000000000000000000016141561108f5760405162461bcd60e51b8152600401610c4d90614648565b7f00000000000000000000000000000000000000000000000000000000000000006001600160a01b03166110c1612448565b6001600160a01b0316146110e75760405162461bcd60e51b8152600401610c4d90614694565b6110f081612476565b6040805160008082526020820190925261110c918391906124a1565b50565b6000610c7b8260006116b1565b606081518351146111815760405162461bcd60e51b815260206004820152602960248201527f455243313135353a206163636f756e747320616e6420696473206c656e677468604482015268040dad2e6dac2e8c6d60bb1b6064820152608401610c4d565b600083516001600160401b0381111561119c5761119c613dd8565b6040519080825280602002602001820160405280156111c5578160200160208202803683370190505b50905060005b845181101561123d576112108582815181106111e9576111e96146e0565b6020026020010151858381518110611203576112036146e0565b6020026020010151610be5565b828281518110611222576112226146e0565b60209081029190910101526112368161470c565b90506111cb565b509392505050565b306001600160a01b037f000000000000000000000000000000000000000000000000000000000000000016141561128e5760405162461bcd60e51b8152600401610c4d90614648565b7f00000000000000000000000000000000000000000000000000000000000000006001600160a01b03166112c0612448565b6001600160a01b0316146112e65760405162461bcd60e51b8152600401610c4d90614694565b6112ef82612476565b610cae828260016124a1565b6000610c7b8260006118ba565b6001600160a01b038316331480611324575061132483336118ae565b6113405760405162461bcd60e51b8152600401610c4d90614727565b610fc78383836125e5565b600080516020614ecc8339815191526113648133611d77565b610cae82612776565b600080516020614ecc8339815191526113868133611d77565b610cae826127bd565b600080516020614ecc8339815191526113a88133611d77565b610fc783836127e1565b60608061010261010381805480602002602001604051908101604052809291908181526020016000905b828210156114885783829060005260206000200180546113fb90614597565b80601f016020809104026020016040519081016040528092919081815260200182805461142790614597565b80156114745780601f1061144957610100808354040283529160200191611474565b820191906000526020600020905b81548152906001019060200180831161145757829003601f168201915b5050505050815260200190600101906113dc565b505050509150808054806020026020016040519081016040528092919081815260200182805480156114d957602002820191906000526020600020905b8154815260200190600101908083116114c5575b50505050509050915091509091565b60009182526098602090815260408084206001600160a01b0393909316845291905290205460ff1690565b7f9f2df0fed2c77648de5860a4cc508cd0818c85b8b8a1ab4ceeef8d981c8956a661153e8133611d77565b6001600160a01b038416600090815261016c602052604090205460ff1661159d5760405162461bcd60e51b81526020600482015260136024820152724e6f7420656c696769626c6520746f2062757960681b6044820152606401610c4d565b6115ac61016880546001019055565b60006115b86101685490565b9050610f9a85828686612029565b610cae338383612840565b61016a60205260009081526040902080546115eb90614597565b80601f016020809104026020016040519081016040528092919081815260200182805461161790614597565b80156116645780601f1061163957610100808354040283529160200191611664565b820191906000526020600020905b81548152906001019060200180831161164757829003601f168201915b505050505081565b600080516020614ecc8339815191526116858133611d77565b610cae82612921565b600080516020614ecc8339815191526116a78133611d77565b610fc78383612b2b565b6000828180805b83518110156117a65760308482815181106116d5576116d56146e0565b016020015160f81c10801590611705575060398482815181106116fa576116fa6146e0565b016020015160f81c11155b1561176c578115611728578561171a576117a6565b8561172481614770565b9650505b611733600a84614787565b92506030848281518110611749576117496146e0565b016020015161175b919060f81c6147a6565b61176590846147bd565b9250611794565b83818151811061177e5761177e6146e0565b60209101015160f81c602e141561179457600191505b8061179e8161470c565b9150506116b8565b5084156117c5576117b885600a6148b9565b6117c29083614787565b91505b50949350505050565b6000828152609860205260409020600101546117ea8133611d77565b610fc783836123e1565b600080516020614ecc83398151915261180d8133611d77565b60005b8351811015611871578261016d6000868481518110611831576118316146e0565b6020026020010151815260200190815260200160002060006101000a81548160ff02191690831515021790555080806118699061470c565b915050611810565b507fb32938baed12bb26adb414ae6ece5f7fc571dce621bb326a2f3e9032310de610836040516118a19190614286565b60405180910390a1505050565b6000610e8c8383612ca8565b6000828180805b83518110156117a65760308482815181106118de576118de6146e0565b016020015160f81c1080159061190e57506039848281518110611903576119036146e0565b016020015160f81c11155b156119755781156119315785611923576117a6565b8561192d81614770565b9650505b61193c600a84614787565b92506030848281518110611952576119526146e0565b0160200151611964919060f81c6147a6565b61196e90846147bd565b9250611a61565b838181518110611987576119876146e0565b60209101015160f81c602e1415611a045781156119fb5760405162461bcd60e51b815260206004820152602c60248201527f4d6f7265207468616e206f6e6520646563696d616c20656e636f756e7465726560448201526b6420696e20737472696e672160a01b6064820152608401610c4d565b60019150611a61565b60405162461bcd60e51b815260206004820152602c60248201527f4e6f6e2d6e756d6572616c2063686172616374657220656e636f756e7465726560448201526b6420696e20737472696e672160a01b6064820152608401610c4d565b80611a6b8161470c565b9150506118c1565b6001600160a01b038516331480611a8f5750611a8f85336118ae565b611aab5760405162461bcd60e51b8152600401610c4d90614727565b610f9a8585858585612d23565b6060611ac46000611e12565b82604051602001611ad69291906148c5565b6040516020818303038152906040529050919050565b6001600160a01b038316331480611b085750611b0883336118ae565b611b245760405162461bcd60e51b8152600401610c4d90614727565b610fc7838383612e44565b600054610100900460ff16611b4a5760005460ff1615611b4e565b303b155b611bb15760405162461bcd60e51b815260206004820152602e60248201527f496e697469616c697a61626c653a20636f6e747261637420697320616c72656160448201526d191e481a5b9a5d1a585b1a5e995960921b6064820152608401610c4d565b600054610100900460ff16158015611bd3576000805461ffff19166101011790555b611bdc82612f49565b611be4612f89565b611bec612fc8565b611bf4612fef565b611bfc613025565b60016101696040518060400160405280600a8152602001697669706c616e6431783160b01b815250604051611c31919061462c565b908152602001604051809103902060006101000a81548160ff02191690831515021790555060016101696040518060400160405280600a8152602001693b34b83630b732193c1960b11b815250604051611c8b919061462c565b908152602001604051809103902060006101000a81548160ff02191690831515021790555060016101696040518060400160405280600a8152602001691d9a5c1b185b990d1e0d60b21b815250604051611ce5919061462c565b908152604051908190036020019020805491151560ff199092169190911790558015610cae576000805461ff00191690555050565b600080516020614ecc833981519152611d338133611d77565b609780546001600160a01b0319166001600160a01b0384161790555050565b60006001600160e01b03198216637965db0b60e01b1480610c7b5750610c7b826130a4565b611d8182826114e8565b610cae57611d99816001600160a01b031660146130f4565b611da48360206130f4565b604051602001611db592919061490a565b60408051601f198184030181529082905262461bcd60e51b8252610c4d91600401613f57565b8051610cae906067906020840190613c95565b61010080546001600160a01b0319166001600160a01b03831617905561110c61213b565b606060678054611e2190614597565b80601f0160208091040260200160405190810160405280929190818152602001828054611e4d90614597565b8015611e9a5780601f10611e6f57610100808354040283529160200191611e9a565b820191906000526020600020905b815481529060010190602001808311611e7d57829003601f168201915b50505050509050919050565b606081611eca5750506040805180820190915260018152600360fc1b602082015290565b8160005b8115611ef45780611ede8161470c565b9150611eed9050600a8361497f565b9150611ece565b6000816001600160401b03811115611f0e57611f0e613dd8565b6040519080825280601f01601f191660200182016040528015611f38576020820181803683370190505b509050815b85156117c557611f4e6001826147a6565b90506000611f5d600a8861497f565b611f6890600a614787565b611f7290886147a6565b611f7d9060306149a1565b905060008160f81b905080848481518110611f9a57611f9a6146e0565b60200101906001600160f81b031916908160001a905350611fbc600a8961497f565b97505050611f3d565b610100546001600160a01b0316336001600160a01b031614610fc75760405162461bcd60e51b815260206004820152601f60248201527f416c6c6f77206f6e6c79204d656c616e642e6169206d616c6c2063616c6c73006044820152606401610c4d565b6001600160a01b0384166120895760405162461bcd60e51b815260206004820152602160248201527f455243313135353a206d696e7420746f20746865207a65726f206164647265736044820152607360f81b6064820152608401610c4d565b336120a98160008761209a8861328f565b6120a38861328f565b876132da565b60008481526065602090815260408083206001600160a01b0389168452909152812080548592906120db9084906147bd565b909155505060408051858152602081018590526001600160a01b0380881692600092918516917fc3d58168c5ae7397731d063d5bbf3d657854427343f4c083240f7aacaa2d0f62910160405180910390a4610f9a8160008787878761372e565b610100546001600160a01b0316156121ac576101005460405163fa21a11d60e01b81523060048201526001600160a01b039091169063fa21a11d90602401600060405180830381600087803b15801561219357600080fd5b505af11580156121a7573d6000803e3d6000fd5b505050505b565b81518351146121cf5760405162461bcd60e51b8152600401610c4d906149c6565b6001600160a01b0384166121f55760405162461bcd60e51b8152600401610c4d90614a0e565b336122048187878787876132da565b60005b84518110156122ed576000858281518110612224576122246146e0565b602002602001015190506000858381518110612242576122426146e0565b60209081029190910181015160008481526065835260408082206001600160a01b038e1683529093529190912054909150818110156122935760405162461bcd60e51b8152600401610c4d90614a53565b60008381526065602090815260408083206001600160a01b038e8116855292528083208585039055908b168252812080548492906122d29084906147bd565b92505081905550505050806122e69061470c565b9050612207565b50846001600160a01b0316866001600160a01b0316826001600160a01b03167f4a39dc06d4c0dbc64b70af90fd698a233a518aa5d07e595d983b8c0526c8f7fb878760405161233d929190614a9d565b60405180910390a4612353818787878787613899565b505050505050565b61236582826114e8565b610cae5760008281526098602090815260408083206001600160a01b03851684529091529020805460ff1916600117905561239d3390565b6001600160a01b0316816001600160a01b0316837f2f8788117e7eff1d82e926ec794901d17c78024a50270940304540a733656f0d60405160405180910390a45050565b6123eb82826114e8565b15610cae5760008281526098602090815260408083206001600160a01b0385168085529252808320805460ff1916905551339285917ff6391f5c32d9c69d2a47ea670b442974b53935d1edc7fd64eb21e047a839171b9190a45050565b7f360894a13ba1a3210667c828492db98dca3e2076cc3735a920a3ca505d382bbc546001600160a01b031690565b7f189ab7a9244df0848122154315af71fe140f3db0fe014031783b0946b8c9d2e3610cae8133611d77565b60006124ab612448565b90506124b684613963565b6000835111806124c35750815b156124d4576124d28484613a08565b505b7f4910fdfa16fed3260ed0e7147f7cc6da11a60208b5b9406d12a635614ffd9143805460ff16610f9a57805460ff191660011781556040516001600160a01b038316602482015261255390869060440160408051601f198184030181529190526020810180516001600160e01b0316631b2ce7f360e11b179052613a08565b50805460ff19168155612564612448565b6001600160a01b0316826001600160a01b0316146125dc5760405162461bcd60e51b815260206004820152602f60248201527f45524331393637557067726164653a207570677261646520627265616b73206660448201526e75727468657220757067726164657360881b6064820152608401610c4d565b610f9a85613af3565b6001600160a01b03831661260b5760405162461bcd60e51b8152600401610c4d90614ac2565b805182511461262c5760405162461bcd60e51b8152600401610c4d906149c6565b600033905061264f818560008686604051806020016040528060008152506132da565b60005b835181101561271757600084828151811061266f5761266f6146e0565b60200260200101519050600084838151811061268d5761268d6146e0565b60209081029190910181015160008481526065835260408082206001600160a01b038c1683529093529190912054909150818110156126de5760405162461bcd60e51b8152600401610c4d90614b05565b60009283526065602090815260408085206001600160a01b038b168652909152909220910390558061270f8161470c565b915050612652565b5060006001600160a01b0316846001600160a01b0316826001600160a01b03167f4a39dc06d4c0dbc64b70af90fd698a233a518aa5d07e595d983b8c0526c8f7fb8686604051612768929190614a9d565b60405180910390a450505050565b60fc805460ff19168215159081179091556040519081527ffe201e4b4f6868843d95c43911ae6440969ce8f267814256f138983f77b444399060200160405180910390a150565b61010180546001600160a01b0319166001600160a01b03831617905561110c61213b565b6001600160a01b038216600081815260fe6020908152604091829020805460ff191685151590811790915591519182527f8b0795ef2ee415d4d22faae6db2f220e804a2ece30b9ef73c9135823d5326e4a910160405180910390a25050565b816001600160a01b0316836001600160a01b031614156128b45760405162461bcd60e51b815260206004820152602960248201527f455243313135353a2073657474696e6720617070726f76616c20737461747573604482015268103337b91039b2b63360b91b6064820152608401610c4d565b6001600160a01b03838116600081815260666020908152604080832094871680845294825291829020805460ff191686151590811790915591519182527f17307eab39ab6107e8899845ad3d59bd9653f200f220920489ca2b5937696c31910160405180910390a3505050565b6000805b61010254811015612987578280519060200120610102828154811061294c5761294c6146e0565b906000526020600020016040516129639190614b49565b60405180910390201415612975578091505b8061297f8161470c565b915050612925565b5061010280546000919061299d906001906147a6565b815481106129ad576129ad6146e0565b9060005260206000200180546129c290614597565b80601f01602080910402602001604051908101604052809291908181526020018280546129ee90614597565b8015612a3b5780601f10612a1057610100808354040283529160200191612a3b565b820191906000526020600020905b815481529060010190602001808311612a1e57829003601f168201915b505050505090506000610103600161010280549050612a5a91906147a6565b81548110612a6a57612a6a6146e0565b90600052602060002001549050816101028481548110612a8c57612a8c6146e0565b906000526020600020019080519060200190612aa9929190613c95565b50610102805480612abc57612abc614be5565b600190038181906000526020600020016000612ad89190613d19565b9055806101038481548110612aef57612aef6146e0565b600091825260209091200155610103805480612b0d57612b0d614be5565b600190038181906000526020600020016000905590556121a761213b565b6000805b61010254811015612b91576101028181548110612b4e57612b4e6146e0565b90600052602060002001604051612b659190614b49565b604051809103902084805190602001201415612b7f578091505b80612b898161470c565b915050612b2f565b508015612bbe57816101038281548110612bad57612bad6146e0565b600091825260209091200155612ca0565b6101025415801590612c0957508280519060200120610102600081548110612be857612be86146e0565b90600052602060002001604051612bff9190614b49565b6040518091039020145b15612c245781610103600081548110612bad57612bad6146e0565b61010280546001810182556000919091528351612c68917f93bdaa6a4190909b7c3fbe8d42169ffe1cab19f51dfc8db24c71abf849eced4a01906020860190613c95565b5061010380546001810182556000919091527f02c297ab74aad0aede3a1895c857b1f2c71e6a203feb727bec95ac752998cb78018290555b610fc761213b565b60006001600160a01b03821673207fa8df3a17d96ca7ea4f2893fcdcb78a3041011415612cd757506001610c7b565b6097546001600160a01b0383811691161415612cf557506001610c7b565b6001600160a01b0380841660009081526066602090815260408083209386168352929052205460ff16610e8c565b6001600160a01b038416612d495760405162461bcd60e51b8152600401610c4d90614a0e565b33612d5981878761209a8861328f565b60008481526065602090815260408083206001600160a01b038a16845290915290205483811015612d9c5760405162461bcd60e51b8152600401610c4d90614a53565b60008581526065602090815260408083206001600160a01b038b8116855292528083208785039055908816825281208054869290612ddb9084906147bd565b909155505060408051868152602081018690526001600160a01b03808916928a821692918616917fc3d58168c5ae7397731d063d5bbf3d657854427343f4c083240f7aacaa2d0f62910160405180910390a4612e3b82888888888861372e565b50505050505050565b6001600160a01b038316612e6a5760405162461bcd60e51b8152600401610c4d90614ac2565b33612e9981856000612e7b8761328f565b612e848761328f565b604051806020016040528060008152506132da565b60008381526065602090815260408083206001600160a01b038816845290915290205482811015612edc5760405162461bcd60e51b8152600401610c4d90614b05565b60008481526065602090815260408083206001600160a01b03898116808652918452828520888703905582518981529384018890529092908616917fc3d58168c5ae7397731d063d5bbf3d657854427343f4c083240f7aacaa2d0f62910160405180910390a45050505050565b600054610100900460ff16612f705760405162461bcd60e51b8152600401610c4d90614bfb565b612f78613b33565b612f80613b33565b61110c81613b5a565b600054610100900460ff16612fb05760405162461bcd60e51b8152600401610c4d90614bfb565b612fb8613b33565b612fc0613b33565b6121ac613b33565b600054610100900460ff16612fb85760405162461bcd60e51b8152600401610c4d90614bfb565b60fc805460ff1916600190811790915562093a8060fd556121ac9073714df076992f95e452a345cd8289882cec6ab82f906127e1565b61302d612f89565b61303860003361235b565b613050600080516020614ecc8339815191523361235b565b61307a7f9f2df0fed2c77648de5860a4cc508cd0818c85b8b8a1ab4ceeef8d981c8956a63361235b565b6121ac7f189ab7a9244df0848122154315af71fe140f3db0fe014031783b0946b8c9d2e33361235b565b60006001600160e01b03198216636cdb3d1360e11b14806130d557506001600160e01b031982166303a24d0760e21b145b80610c7b57506301ffc9a760e01b6001600160e01b0319831614610c7b565b60606000613103836002614787565b61310e9060026147bd565b6001600160401b0381111561312557613125613dd8565b6040519080825280601f01601f19166020018201604052801561314f576020820181803683370190505b509050600360fc1b8160008151811061316a5761316a6146e0565b60200101906001600160f81b031916908160001a905350600f60fb1b81600181518110613199576131996146e0565b60200101906001600160f81b031916908160001a90535060006131bd846002614787565b6131c89060016147bd565b90505b6001811115613240576f181899199a1a9b1b9c1cb0b131b232b360811b85600f16601081106131fc576131fc6146e0565b1a60f81b828281518110613212576132126146e0565b60200101906001600160f81b031916908160001a90535060049490941c9361323981614770565b90506131cb565b508315610e8c5760405162461bcd60e51b815260206004820181905260248201527f537472696e67733a20686578206c656e67746820696e73756666696369656e746044820152606401610c4d565b604080516001808252818301909252606091600091906020808301908036833701905050905082816000815181106132c9576132c96146e0565b602090810291909101015292915050565b60005b8251811015613387578281815181106132f8576132f86146e0565b60200260200101516001146133755760405162461bcd60e51b815260206004820152603b60248201527f45616368206c616e6420697320756e697175652c20536f20746865726520697360448201527f206e6f207472616e736665722067726561746572207468616e203100000000006064820152608401610c4d565b8061337f8161470c565b9150506132dd565b5060005b83518110156134fa5760008482815181106133a8576133a86146e0565b60200260200101519050600061016a600083815260200190815260200160002080546133d390614597565b80601f01602080910402602001604051908101604052809291908181526020018280546133ff90614597565b801561344c5780601f106134215761010080835404028352916020019161344c565b820191906000526020600020905b81548152906001019060200180831161342f57829003601f168201915b505050505090507f1cb6cb558a2b0eaf4f7c8fe6b68ffffce2f021379f9fa31ee9cbee72ba079f038180519060200120141561348d5761348d888884613b8a565b6001600160a01b0387166134e557600082815261016a602052604081206134b391613d19565b600161016b60008380519060200120815260200190815260200160002060008282546134df91906147a6565b90915550505b505080806134f29061470c565b91505061338b565b506001600160a01b038516613683576101698160405161351a919061462c565b908152604051602091819003820181205460ff169161353b91849101614c46565b604051602081830303815290604052906135685760405162461bcd60e51b8152600401610c4d9190613f57565b5060005b83518110156136505761016a600085838151811061358c5761358c6146e0565b6020026020010151815260200190815260200160002080546135ad90614597565b1590506135fc5760405162461bcd60e51b815260206004820152601d60248201527f4d616b6520737572652065616368206c616e6420697320756e697175650000006044820152606401610c4d565b8161016a6000868481518110613614576136146146e0565b60200260200101518152602001908152602001600020908051906020019061363d929190613c95565b50806136488161470c565b91505061356c565b50825161016b600083805190602001208152602001908152602001600020600082825461367d91906147bd565b90915550505b6001600160a01b038516156137295760005b83518110156137275761016d60008583815181106136b5576136b56146e0565b60209081029190910181015182528101919091526040016000205460ff16156137155760405162461bcd60e51b8152602060048201526012602482015271151a1948189bde081a5cc818db185a5b595960721b6044820152606401610c4d565b8061371f8161470c565b915050613695565b505b612353565b6001600160a01b0384163b156123535760405163f23a6e6160e01b81526001600160a01b0385169063f23a6e61906137729089908990889088908890600401614c78565b602060405180830381600087803b15801561378c57600080fd5b505af19250505080156137bc575060408051601f3d908101601f191682019092526137b991810190614cbd565b60015b613869576137c8614cda565b806308c379a0141561380257506137dd614cf6565b806137e85750613804565b8060405162461bcd60e51b8152600401610c4d9190613f57565b505b60405162461bcd60e51b815260206004820152603460248201527f455243313135353a207472616e7366657220746f206e6f6e20455243313135356044820152732932b1b2b4bb32b91034b6b83632b6b2b73a32b960611b6064820152608401610c4d565b6001600160e01b0319811663f23a6e6160e01b14612e3b5760405162461bcd60e51b8152600401610c4d90614d7f565b6001600160a01b0384163b156123535760405163bc197c8160e01b81526001600160a01b0385169063bc197c81906138dd9089908990889088908890600401614dc7565b602060405180830381600087803b1580156138f757600080fd5b505af1925050508015613927575060408051601f3d908101601f1916820190925261392491810190614cbd565b60015b613933576137c8614cda565b6001600160e01b0319811663bc197c8160e01b14612e3b5760405162461bcd60e51b8152600401610c4d90614d7f565b803b6139c75760405162461bcd60e51b815260206004820152602d60248201527f455243313936373a206e657720696d706c656d656e746174696f6e206973206e60448201526c1bdd08184818dbdb9d1c9858dd609a1b6064820152608401610c4d565b7f360894a13ba1a3210667c828492db98dca3e2076cc3735a920a3ca505d382bbc80546001600160a01b0319166001600160a01b0392909216919091179055565b6060823b613a675760405162461bcd60e51b815260206004820152602660248201527f416464726573733a2064656c65676174652063616c6c20746f206e6f6e2d636f6044820152651b9d1c9858dd60d21b6064820152608401610c4d565b600080846001600160a01b031684604051613a82919061462c565b600060405180830381855af49150503d8060008114613abd576040519150601f19603f3d011682016040523d82523d6000602084013e613ac2565b606091505b5091509150613aea8282604051806060016040528060278152602001614ea560279139613c50565b95945050505050565b613afc81613963565b6040516001600160a01b038216907fbc7cd75a20ee27fd9adebab32041f755214dbc6bffa90cc0225b39da2e5c2d3b90600090a250565b600054610100900460ff166121ac5760405162461bcd60e51b8152600401610c4d90614bfb565b600054610100900460ff16613b815760405162461bcd60e51b8152600401610c4d90614bfb565b61110c81611ddb565b60fc5460ff16613b9957505050565b6001600160a01b0382163b15613bae57505050565b6001600160a01b038216600090815260fe602052604090205460ff1615613bd457505050565b600081815260ff602052604090205442811090613bf090611ea6565b604051602001613c009190614e25565b60405160208183030381529060405290613c2d5760405162461bcd60e51b8152600401610c4d9190613f57565b5060fd54613c3c904290613c89565b600091825260ff6020526040909120555050565b60608315613c5f575081610e8c565b825115613c6f5782518084602001fd5b8160405162461bcd60e51b8152600401610c4d9190613f57565b6000610e8c82846147bd565b828054613ca190614597565b90600052602060002090601f016020900481019282613cc35760008555613d09565b82601f10613cdc57805160ff1916838001178555613d09565b82800160010185558215613d09579182015b82811115613d09578251825591602001919060010190613cee565b50613d15929150613d4f565b5090565b508054613d2590614597565b6000825580601f10613d35575050565b601f01602090049060005260206000209081019061110c91905b5b80821115613d155760008155600101613d50565b6001600160a01b038116811461110c57600080fd5b60008060408385031215613d8c57600080fd5b8235613d9781613d64565b946020939093013593505050565b6001600160e01b03198116811461110c57600080fd5b600060208284031215613dcd57600080fd5b8135610e8c81613da5565b634e487b7160e01b600052604160045260246000fd5b601f8201601f191681016001600160401b0381118282101715613e1357613e13613dd8565b6040525050565b600082601f830112613e2b57600080fd5b81356001600160401b03811115613e4457613e44613dd8565b604051613e5b601f8301601f191660200182613dee565b818152846020838601011115613e7057600080fd5b816020850160208301376000918101602001919091529392505050565b600060208284031215613e9f57600080fd5b81356001600160401b03811115613eb557600080fd5b613ec184828501613e1a565b949350505050565b600060208284031215613edb57600080fd5b8135610e8c81613d64565b600060208284031215613ef857600080fd5b5035919050565b60005b83811015613f1a578181015183820152602001613f02565b838111156121a75750506000910152565b60008151808452613f43816020860160208601613eff565b601f01601f19169290920160200192915050565b602081526000610e8c6020830184613f2b565b80358015158114613f7a57600080fd5b919050565b60008060408385031215613f9257600080fd5b8235613f9d81613d64565b9150613fab60208401613f6a565b90509250929050565b600080600060608486031215613fc957600080fd5b83356001600160401b03811115613fdf57600080fd5b613feb86828701613e1a565b93505060208401359150604084013561400381613d64565b809150509250925092565b60006001600160401b0382111561402757614027613dd8565b5060051b60200190565b600082601f83011261404257600080fd5b8135602061404f8261400e565b60405161405c8282613dee565b83815260059390931b850182019282810191508684111561407c57600080fd5b8286015b848110156140975780358352918301918301614080565b509695505050505050565b600080600080600060a086880312156140ba57600080fd5b85356140c581613d64565b945060208601356140d581613d64565b935060408601356001600160401b03808211156140f157600080fd5b6140fd89838a01614031565b9450606088013591508082111561411357600080fd5b61411f89838a01614031565b9350608088013591508082111561413557600080fd5b5061414288828901613e1a565b9150509295509295909350565b6000806040838503121561416257600080fd5b82359150602083013561417481613d64565b809150509250929050565b6000806040838503121561419257600080fd5b82356001600160401b03808211156141a957600080fd5b818501915085601f8301126141bd57600080fd5b813560206141ca8261400e565b6040516141d78282613dee565b83815260059390931b85018201928281019150898411156141f757600080fd5b948201945b8386101561421e57853561420f81613d64565b825294820194908201906141fc565b9650508601359250508082111561423457600080fd5b5061424185828601614031565b9150509250929050565b600081518084526020808501945080840160005b8381101561427b5781518752958201959082019060010161425f565b509495945050505050565b602081526000610e8c602083018461424b565b600080604083850312156142ac57600080fd5b82356142b781613d64565b915060208301356001600160401b038111156142d257600080fd5b61424185828601613e1a565b6000806000606084860312156142f357600080fd5b83356142fe81613d64565b925060208401356001600160401b038082111561431a57600080fd5b61432687838801614031565b9350604086013591508082111561433c57600080fd5b5061434986828701614031565b9150509250925092565b60006020828403121561436557600080fd5b610e8c82613f6a565b6000604082016040835280855180835260608501915060608160051b8601019250602080880160005b838110156143c557605f198887030185526143b3868351613f2b565b95509382019390820190600101614397565b505085840381870152505050613aea818561424b565b6000806000606084860312156143f057600080fd5b83356143fb81613d64565b92506020840135915060408401356001600160401b0381111561441d57600080fd5b61434986828701613e1a565b8215158152604060208201526000613ec1604083018461424b565b6000806040838503121561445757600080fd5b82356001600160401b0381111561446d57600080fd5b61447985828601613e1a565b95602094909401359450505050565b6000806040838503121561449b57600080fd5b82356001600160401b038111156144b157600080fd5b6144bd85828601614031565b925050613fab60208401613f6a565b600080604083850312156144df57600080fd5b82356144ea81613d64565b9150602083013561417481613d64565b600080600080600060a0868803121561451257600080fd5b853561451d81613d64565b9450602086013561452d81613d64565b9350604086013592506060860135915060808601356001600160401b0381111561455657600080fd5b61414288828901613e1a565b60008060006060848603121561457757600080fd5b833561458281613d64565b95602085013595506040909401359392505050565b600181811c908216806145ab57607f821691505b602082108114156145cc57634e487b7160e01b600052602260045260246000fd5b50919050565b600084516145e4818460208901613eff565b8083019050602f60f81b8082528551614604816001850160208a01613eff565b6001920191820152835161461f816002840160208801613eff565b0160020195945050505050565b6000825161463e818460208701613eff565b9190910192915050565b6020808252602c908201527f46756e6374696f6e206d7573742062652063616c6c6564207468726f7567682060408201526b19195b1959d85d1958d85b1b60a21b606082015260800190565b6020808252602c908201527f46756e6374696f6e206d7573742062652063616c6c6564207468726f7567682060408201526b6163746976652070726f787960a01b606082015260800190565b634e487b7160e01b600052603260045260246000fd5b634e487b7160e01b600052601160045260246000fd5b6000600019821415614720576147206146f6565b5060010190565b60208082526029908201527f455243313135353a2063616c6c6572206973206e6f74206f776e6572206e6f7260408201526808185c1c1c9bdd995960ba1b606082015260800190565b60008161477f5761477f6146f6565b506000190190565b60008160001904831182151516156147a1576147a16146f6565b500290565b6000828210156147b8576147b86146f6565b500390565b600082198211156147d0576147d06146f6565b500190565b600181815b808511156148105781600019048211156147f6576147f66146f6565b8085161561480357918102915b93841c93908002906147da565b509250929050565b60008261482757506001610c7b565b8161483457506000610c7b565b816001811461484a576002811461485457614870565b6001915050610c7b565b60ff841115614865576148656146f6565b50506001821b610c7b565b5060208310610133831016604e8410600b8410161715614893575081810a610c7b565b61489d83836147d5565b80600019048211156148b1576148b16146f6565b029392505050565b6000610e8c8383614818565b600083516148d7818460208801613eff565b8083019050602f60f81b80825284516148f7816001850160208901613eff565b6001920191820152600201949350505050565b7f416363657373436f6e74726f6c3a206163636f756e7420000000000000000000815260008351614942816017850160208801613eff565b7001034b99036b4b9b9b4b733903937b6329607d1b6017918401918201528351614973816028840160208801613eff565b01602801949350505050565b60008261499c57634e487b7160e01b600052601260045260246000fd5b500490565b600060ff821660ff84168060ff038211156149be576149be6146f6565b019392505050565b60208082526028908201527f455243313135353a2069647320616e6420616d6f756e7473206c656e677468206040820152670dad2e6dac2e8c6d60c31b606082015260800190565b60208082526025908201527f455243313135353a207472616e7366657220746f20746865207a65726f206164604082015264647265737360d81b606082015260800190565b6020808252602a908201527f455243313135353a20696e73756666696369656e742062616c616e636520666f60408201526939103a3930b739b332b960b11b606082015260800190565b604081526000614ab0604083018561424b565b8281036020840152613aea818561424b565b60208082526023908201527f455243313135353a206275726e2066726f6d20746865207a65726f206164647260408201526265737360e81b606082015260800190565b60208082526024908201527f455243313135353a206275726e20616d6f756e7420657863656564732062616c604082015263616e636560e01b606082015260800190565b600080835481600182811c915080831680614b6557607f831692505b6020808410821415614b8557634e487b7160e01b86526022600452602486fd5b818015614b995760018114614baa57614bd7565b60ff19861689528489019650614bd7565b60008a81526020902060005b86811015614bcf5781548b820152908501908301614bb6565b505084890196505b509498975050505050505050565b634e487b7160e01b600052603160045260246000fd5b6020808252602b908201527f496e697469616c697a61626c653a20636f6e7472616374206973206e6f74206960408201526a6e697469616c697a696e6760a81b606082015260800190565b60008251614c58818460208701613eff565b6d1a5cc81b9bdd081cdd5c1c1bdc9d60921b920191825250600e01919050565b6001600160a01b03868116825285166020820152604081018490526060810183905260a060808201819052600090614cb290830184613f2b565b979650505050505050565b600060208284031215614ccf57600080fd5b8151610e8c81613da5565b600060033d1115614cf35760046000803e5060005160e01c5b90565b600060443d1015614d045790565b6040516003193d81016004833e81513d6001600160401b038160248401118184111715614d3357505050505090565b8285019150815181811115614d4b5750505050505090565b843d8701016020828501011115614d655750505050505090565b614d7460208286010187613dee565b509095945050505050565b60208082526028908201527f455243313135353a204552433131353552656365697665722072656a656374656040820152676420746f6b656e7360c01b606082015260800190565b6001600160a01b0386811682528516602082015260a060408201819052600090614df39083018661424b565b8281036060840152614e05818661424b565b90508281036080840152614e198185613f2b565b98975050505050505050565b7f5468652063757272656e74204e465420697320696e207468652074726164696e81527f672070726f74656374696f6e20706572696f6420616e642063616e206265207460208201526a3930b232b21030b33a32b960a91b604082015260008251614e9781604b850160208701613eff565b91909101604b019291505056fe416464726573733a206c6f772d6c6576656c2064656c65676174652063616c6c206661696c6564f5eb84615c2a00ecaf817d13794ebd6299c9e01c395bf4018453f13f577f5449a264697066735822122055be64f4b767dfce603137db9546e977ae6ae972289ee69e2e568302f930e47b64736f6c63430008090033",
  "immutableReferences": {
    "1051": [
      {
        "length": 32,
        "start": 4177
      },
      {
        "length": 32,
        "start": 4241
      },
      {
        "length": 32,
        "start": 4688
      },
      {
        "length": 32,
        "start": 4752
      }
    ]
  },
  "source": "// SPDX-License-Identifier: MIT\npragma solidity 0.8.9;\n\nimport \"@openzeppelin/contracts-upgradeable/token/ERC1155/ERC1155Upgradeable.sol\";\nimport \"@openzeppelin/contracts-upgradeable/access/AccessControlUpgradeable.sol\";\nimport \"@openzeppelin/contracts-upgradeable/token/ERC1155/extensions/ERC1155BurnableUpgradeable.sol\";\nimport \"@openzeppelin/contracts-upgradeable/proxy/utils/Initializable.sol\";\nimport \"@openzeppelin/contracts-upgradeable/proxy/utils/UUPSUpgradeable.sol\";\nimport \"@openzeppelin/contracts-upgradeable/utils/CountersUpgradeable.sol\";\nimport \"./MelandNFTFreeze.sol\";\nimport \"./MelandTierAddressStore.sol\";\nimport \"./MelandAccessRoles.sol\";\nimport \"./MelandTier.sol\";\nimport \"./Meland1155StoreItem.sol\";\n\ncontract Meland1155LandFuture is\n    Initializable,\n    MelandTierAddressStore,\n    MelandAccessRoles,\n    ERC1155BurnableUpgradeable,\n    MelandNFTFreeze,\n    Meland1155StoreItem,\n    UUPSUpgradeable\n{\n    using CountersUpgradeable for CountersUpgradeable.Counter;\n\n    CountersUpgradeable.Counter private _tokenIdCounter;\n    bytes public constant vipland1x1 = \"vipland1x1\";\n    bytes public constant vipland2x2 = \"vipland2x2\";\n    bytes public constant vipland4x4 = \"vipland4x4\";\n    bytes public constant vipland4x4fixed = \"vipland4x4-fixed\";\n    mapping(bytes => bool) public supportLandtypes;\n    mapping(uint256 => string) public landtypeById;\n    mapping(bytes32 => uint256) public totalSupplyByLandtype;\n    mapping(address => bool) public canBuyListByAddress;\n    mapping(uint256 => bool) public claimedById;\n\n    event LandFuturesClaimUpdate(\n        uint256[] landIds\n    );\n\n    function initialize(string memory _uri) public initializer {\n        __ERC1155_init(_uri);\n        __ERC1155Burnable_init();\n        __UUPSUpgradeable_init();\n        __MelandNFTFreeze_init();\n        __MelandAccessRoles_init();\n\n        supportLandtypes[vipland1x1] = true;\n        supportLandtypes[vipland2x2] = true;\n        supportLandtypes[vipland4x4] = true;\n    }\n\n    function setURI(string memory newuri) public onlyRole(GM_ROLE) {\n        _setURI(newuri);\n    }\n\n    function fixedtype() public onlyRole(GM_ROLE) {\n        supportLandtypes[vipland4x4fixed] = true;\n    }\n\n    function uri(uint256 id)\n        public\n        view\n        virtual\n        override\n        returns (string memory)\n    {\n        string memory landtype = landtypeById[id];\n        return string(abi.encodePacked(super.uri(id), \"/\", landtype, \"/\", uint2str(id)));\n    }\n\n    function setCanBuyListByAddress(address _address, bool _b) public onlyRole(GM_ROLE) {\n        canBuyListByAddress[_address] = _b;\n    }\n\n    function setClaimed(uint256[] memory _ids, bool _b) public onlyRole(GM_ROLE) {\n        for (uint i = 0; i < _ids.length; i++) {\n            claimedById[_ids[i]] = _b;\n        }\n        \n        emit LandFuturesClaimUpdate(_ids);\n    }\n\n    function melandStoreItemURI(string memory symbol)\n        external\n        view\n        returns (string memory)\n    {\n        return string(abi.encodePacked(ERC1155Upgradeable.uri(0), \"/\", symbol, \"/\"));\n    }\n\n    function isApprovedForAll(address _owner, address _operator)\n        public\n        view\n        override(MelandTierAddressStore, ERC1155Upgradeable)\n        returns (bool isOperator)\n    {\n        return super.isApprovedForAll(_owner, _operator);\n    }\n\n    function mint(\n        address account,\n        uint256 amount,\n        bytes memory landtype\n    ) public onlyRole(MINTER_ROLE) {\n        require(canBuyListByAddress[account], \"Not eligible to buy\");\n        _tokenIdCounter.increment();\n        uint256 id = _tokenIdCounter.current();\n        _mint(account, id, amount, landtype);\n    }\n\n    // Add or cancel freeze white list\n    function setFreezeWhiteList(address _account, bool _bool)\n        public\n        onlyRole(GM_ROLE)\n    {\n        _setFreezeWhite(_account, _bool);\n    }\n\n    function setMelandTier(MelandTier _tierAddress) public onlyRole(GM_ROLE) {\n        _setMelandTier(_tierAddress);\n    }\n\n    // Enable or Disable Freeze feature.\n    function setFreezeEnabled(bool _bool) public onlyRole(GM_ROLE) {\n        _setFreezeEnabled(_bool);\n    }\n\n    function _authorizeUpgrade(address newImplementation)\n        internal\n        override\n        onlyRole(UPGRADER_ROLE)\n    {}\n\n    function totalSupply(uint256 id) internal view returns (uint256) {\n        string memory lantype = landtypeById[id];\n        return totalSupplyByLandtype[keccak256(bytes(lantype))];\n    }\n\n    // The following functions are overrides required by Solidity.\n\n    function supportsInterface(bytes4 interfaceId)\n        public\n        view\n        override(ERC1155Upgradeable, AccessControlUpgradeable)\n        returns (bool)\n    {\n        return super.supportsInterface(interfaceId);\n    }\n\n    // The following functions are overrides required by Solidity.\n    function _beforeTokenTransfer(\n        address operator,\n        address from,\n        address to,\n        uint256[] memory ids,\n        uint256[] memory amounts,\n        bytes memory maybelandtype\n    ) internal override(ERC1155Upgradeable) {\n        for (uint256 i = 0; i < amounts.length; i++) {\n            require(\n                amounts[i] == 1,\n                \"Each land is unique, So there is no transfer greater than 1\"\n            );\n        }\n\n        for (uint256 i = 0; i < ids.length; i++) {\n            uint256 id = ids[i];\n\n            // check freeze\n            string memory landtype = landtypeById[id];\n\n            if (keccak256(bytes(landtype)) == keccak256(\"ticketland\")) {\n                _freezeProtect(from, to, id);\n            }\n\n            // sub totalSupply when burn token\n            if (to == address(0)) {\n                // clear lantyoe when burn\n                delete landtypeById[id];\n                totalSupplyByLandtype[keccak256(bytes(landtype))] -= 1;\n            }\n        }\n\n        // if is mint\n        // check land type is support\n        if (from == address(0)) {\n            require(\n                supportLandtypes[maybelandtype],\n                string(abi.encodePacked(maybelandtype, \"is not support\"))\n            );\n\n            for (uint256 i = 0; i < ids.length; i++) {\n                require(\n                    bytes(landtypeById[ids[i]]).length == 0,\n                    \"Make sure each land is unique\"\n                );\n                landtypeById[ids[i]] = string(maybelandtype);\n            }\n\n            totalSupplyByLandtype[keccak256(maybelandtype)] += ids.length;\n        }\n\n        if (from != address(0)) {\n            for (uint256 i = 0; i < ids.length; i++) {\n                require(claimedById[ids[i]] == false, \"The box is claimed\");\n            }\n        }\n\n        super._beforeTokenTransfer(\n            operator,\n            from,\n            to,\n            ids,\n            amounts,\n            maybelandtype\n        );\n    }\n\n    // store item impl ----\n    function setAcceptedToken(IERC20Upgradeable token)\n        external\n        onlyRole(GM_ROLE)\n    {\n        _setAcceptedToken(token);\n    }\n\n    function setStore(NFTStore s) external onlyRole(GM_ROLE) {\n        _setStore(s);\n    }\n\n    function setStoreItem(string memory symbol, uint256 p)\n        external\n        onlyRole(GM_ROLE)\n    {\n        _setStoreItem(symbol, p);\n    }\n\n    function delStoreItem(string memory symbol) external onlyRole(GM_ROLE) {\n        _delStoreItem(symbol);\n    }\n\n    // If return ture, means that the mall will only have the specified id\n    // Else otherwise it will be linear mint\n    // The ids Must ensure that you can mint\n    // If multi-channel sales or mint, you need to filter out the ids that have been minted\n    // To prevent errors in the sales process\n    function melandStoreItemsRestrictPurchaseNFTIds(string memory)\n        external\n        pure\n        returns (bool, uint256[] memory)\n    {\n        uint256[] memory ids;\n        return (false, ids);\n    }\n\n    // Store to pay NFT to the selling user by calling this function,\n    // For security reasons, be sure to control the permissions to allow only MelandStore contracts to call\n    // If melandStoreItemsRestrictPurchaseNFTIds return false, the id as zero.\n    function melandStoreItemsMint(\n        string memory symbol,\n        uint256 id,\n        address to\n    ) external override returns(uint256) {\n        require(canBuyListByAddress[to], \"Not eligible to buy\");\n        super.checkMelandStoreItemsMint(symbol, id, to);\n        _tokenIdCounter.increment();\n        id = _tokenIdCounter.current();\n        _mint(to, id, 1, bytes(symbol));\n        _dispatchItemInfoUpdate();\n        return id;\n    }\n\n    // If return false, Stores will suspend sales.\n    function melandStoreSellStatus(string memory)\n        external\n        pure\n        returns (bool)\n    {\n        return true;\n    }\n\n    // If return true, it means that each person can only buy a certain amount\n    function melandStoreItemsRestrictedPurchase(string memory)\n        external\n        pure\n        returns (bool restricted, uint256 restrictLimit)\n    {\n        restricted = false;\n        restrictLimit = 1;\n    }\n}\n",
  "sourcePath": "/Users/alberthuang/code/contracts/contracts/Meland1155LandFuture.sol",
  "compiler": {
    "name": "solc",
    "version": "0.8.9+commit.e5eed63a.Emscripten.clang"
  },
  "schemaVersion": "3.4.3",
  "updatedAt": "2022-02-25T16:12:30.877Z",
  "networkType": "ethereum",
  "devdoc": {
    "kind": "dev",
    "methods": {
      "balanceOf(address,uint256)": {
        "details": "See {IERC1155-balanceOf}. Requirements: - `account` cannot be the zero address."
      },
      "balanceOfBatch(address[],uint256[])": {
        "details": "See {IERC1155-balanceOfBatch}. Requirements: - `accounts` and `ids` must have the same length."
      },
      "getRoleAdmin(bytes32)": {
        "details": "Returns the admin role that controls `role`. See {grantRole} and {revokeRole}. To change a role's admin, use {_setRoleAdmin}."
      },
      "grantRole(bytes32,address)": {
        "details": "Grants `role` to `account`. If `account` had not been already granted `role`, emits a {RoleGranted} event. Requirements: - the caller must have ``role``'s admin role."
      },
      "hasRole(bytes32,address)": {
        "details": "Returns `true` if `account` has been granted `role`."
      },
      "renounceRole(bytes32,address)": {
        "details": "Revokes `role` from the calling account. Roles are often managed via {grantRole} and {revokeRole}: this function's purpose is to provide a mechanism for accounts to lose their privileges if they are compromised (such as when a trusted device is misplaced). If the calling account had been revoked `role`, emits a {RoleRevoked} event. Requirements: - the caller must be `account`."
      },
      "revokeRole(bytes32,address)": {
        "details": "Revokes `role` from `account`. If `account` had been granted `role`, emits a {RoleRevoked} event. Requirements: - the caller must have ``role``'s admin role."
      },
      "safeBatchTransferFrom(address,address,uint256[],uint256[],bytes)": {
        "details": "See {IERC1155-safeBatchTransferFrom}."
      },
      "safeTransferFrom(address,address,uint256,uint256,bytes)": {
        "details": "See {IERC1155-safeTransferFrom}."
      },
      "setApprovalForAll(address,bool)": {
        "details": "See {IERC1155-setApprovalForAll}."
      },
      "upgradeTo(address)": {
        "details": "Upgrade the implementation of the proxy to `newImplementation`. Calls {_authorizeUpgrade}. Emits an {Upgraded} event."
      },
      "upgradeToAndCall(address,bytes)": {
        "details": "Upgrade the implementation of the proxy to `newImplementation`, and subsequently execute the function call encoded in `data`. Calls {_authorizeUpgrade}. Emits an {Upgraded} event."
      }
    },
    "version": 1
  },
  "userdoc": {
    "kind": "user",
    "methods": {},
    "version": 1
  }
}