{
  "contractName": "MelandExchange",
  "abi": [
    {
      "anonymous": false,
      "inputs": [
        {
          "indexed": false,
          "internalType": "address",
          "name": "previousAdmin",
          "type": "address"
        },
        {
          "indexed": false,
          "internalType": "address",
          "name": "newAdmin",
          "type": "address"
        }
      ],
      "name": "AdminChanged",
      "type": "event"
    },
    {
      "anonymous": false,
      "inputs": [
        {
          "indexed": true,
          "internalType": "address",
          "name": "beacon",
          "type": "address"
        }
      ],
      "name": "BeaconUpgraded",
      "type": "event"
    },
    {
      "anonymous": false,
      "inputs": [
        {
          "indexed": false,
          "internalType": "uint256",
          "name": "depositId",
          "type": "uint256"
        }
      ],
      "name": "Deposit",
      "type": "event"
    },
    {
      "anonymous": false,
      "inputs": [
        {
          "indexed": false,
          "internalType": "uint256",
          "name": "depositId",
          "type": "uint256"
        }
      ],
      "name": "DepositPaymentSuccess",
      "type": "event"
    },
    {
      "anonymous": false,
      "inputs": [
        {
          "indexed": false,
          "internalType": "uint256",
          "name": "exchangeId",
          "type": "uint256"
        }
      ],
      "name": "Exchange",
      "type": "event"
    },
    {
      "anonymous": false,
      "inputs": [
        {
          "indexed": false,
          "internalType": "uint256",
          "name": "exchangeId",
          "type": "uint256"
        }
      ],
      "name": "ExchangePaymentSuccess",
      "type": "event"
    },
    {
      "anonymous": false,
      "inputs": [
        {
          "indexed": false,
          "internalType": "uint256",
          "name": "newLimit",
          "type": "uint256"
        }
      ],
      "name": "MELDLimitUpdate",
      "type": "event"
    },
    {
      "anonymous": false,
      "inputs": [
        {
          "indexed": true,
          "internalType": "bytes32",
          "name": "role",
          "type": "bytes32"
        },
        {
          "indexed": true,
          "internalType": "bytes32",
          "name": "previousAdminRole",
          "type": "bytes32"
        },
        {
          "indexed": true,
          "internalType": "bytes32",
          "name": "newAdminRole",
          "type": "bytes32"
        }
      ],
      "name": "RoleAdminChanged",
      "type": "event"
    },
    {
      "anonymous": false,
      "inputs": [
        {
          "indexed": true,
          "internalType": "bytes32",
          "name": "role",
          "type": "bytes32"
        },
        {
          "indexed": true,
          "internalType": "address",
          "name": "account",
          "type": "address"
        },
        {
          "indexed": true,
          "internalType": "address",
          "name": "sender",
          "type": "address"
        }
      ],
      "name": "RoleGranted",
      "type": "event"
    },
    {
      "anonymous": false,
      "inputs": [
        {
          "indexed": true,
          "internalType": "bytes32",
          "name": "role",
          "type": "bytes32"
        },
        {
          "indexed": true,
          "internalType": "address",
          "name": "account",
          "type": "address"
        },
        {
          "indexed": true,
          "internalType": "address",
          "name": "sender",
          "type": "address"
        }
      ],
      "name": "RoleRevoked",
      "type": "event"
    },
    {
      "anonymous": false,
      "inputs": [
        {
          "indexed": true,
          "internalType": "address",
          "name": "implementation",
          "type": "address"
        }
      ],
      "name": "Upgraded",
      "type": "event"
    },
    {
      "inputs": [],
      "name": "DEFAULT_ADMIN_ROLE",
      "outputs": [
        {
          "internalType": "bytes32",
          "name": "",
          "type": "bytes32"
        }
      ],
      "stateMutability": "view",
      "type": "function"
    },
    {
      "inputs": [],
      "name": "GM_ROLE",
      "outputs": [
        {
          "internalType": "bytes32",
          "name": "",
          "type": "bytes32"
        }
      ],
      "stateMutability": "view",
      "type": "function"
    },
    {
      "inputs": [],
      "name": "MINTER_ROLE",
      "outputs": [
        {
          "internalType": "bytes32",
          "name": "",
          "type": "bytes32"
        }
      ],
      "stateMutability": "view",
      "type": "function"
    },
    {
      "inputs": [],
      "name": "PAYMENT_ROLE",
      "outputs": [
        {
          "internalType": "bytes32",
          "name": "",
          "type": "bytes32"
        }
      ],
      "stateMutability": "view",
      "type": "function"
    },
    {
      "inputs": [],
      "name": "UPGRADER_ROLE",
      "outputs": [
        {
          "internalType": "bytes32",
          "name": "",
          "type": "bytes32"
        }
      ],
      "stateMutability": "view",
      "type": "function"
    },
    {
      "inputs": [],
      "name": "acceptedToken",
      "outputs": [
        {
          "internalType": "contract IERC20Upgradeable",
          "name": "",
          "type": "address"
        }
      ],
      "stateMutability": "view",
      "type": "function"
    },
    {
      "inputs": [],
      "name": "bidbackWallet",
      "outputs": [
        {
          "internalType": "address",
          "name": "",
          "type": "address"
        }
      ],
      "stateMutability": "view",
      "type": "function"
    },
    {
      "inputs": [],
      "name": "foundationWallet",
      "outputs": [
        {
          "internalType": "address",
          "name": "",
          "type": "address"
        }
      ],
      "stateMutability": "view",
      "type": "function"
    },
    {
      "inputs": [
        {
          "internalType": "uint256",
          "name": "",
          "type": "uint256"
        }
      ],
      "name": "getDepositDitaminById",
      "outputs": [
        {
          "internalType": "uint256",
          "name": "depositedAt",
          "type": "uint256"
        },
        {
          "internalType": "uint256",
          "name": "amountOfMELD",
          "type": "uint256"
        },
        {
          "internalType": "address",
          "name": "beneficiary",
          "type": "address"
        },
        {
          "internalType": "uint256",
          "name": "paymentDitamin",
          "type": "uint256"
        },
        {
          "internalType": "uint256",
          "name": "paymentAt",
          "type": "uint256"
        }
      ],
      "stateMutability": "view",
      "type": "function"
    },
    {
      "inputs": [
        {
          "internalType": "uint256",
          "name": "",
          "type": "uint256"
        }
      ],
      "name": "getExchangeMELDById",
      "outputs": [
        {
          "internalType": "uint256",
          "name": "exchangedAt",
          "type": "uint256"
        },
        {
          "internalType": "uint256",
          "name": "amountOfMELD",
          "type": "uint256"
        },
        {
          "internalType": "address",
          "name": "beneficiary",
          "type": "address"
        },
        {
          "internalType": "uint256",
          "name": "paymentDitamin",
          "type": "uint256"
        },
        {
          "internalType": "uint256",
          "name": "paymentAt",
          "type": "uint256"
        }
      ],
      "stateMutability": "view",
      "type": "function"
    },
    {
      "inputs": [
        {
          "internalType": "address",
          "name": "",
          "type": "address"
        },
        {
          "internalType": "uint256",
          "name": "",
          "type": "uint256"
        },
        {
          "internalType": "uint256",
          "name": "",
          "type": "uint256"
        }
      ],
      "name": "getExchangeMELDIdsByUserAndDay",
      "outputs": [
        {
          "internalType": "uint256",
          "name": "",
          "type": "uint256"
        }
      ],
      "stateMutability": "view",
      "type": "function"
    },
    {
      "inputs": [
        {
          "internalType": "bytes32",
          "name": "role",
          "type": "bytes32"
        }
      ],
      "name": "getRoleAdmin",
      "outputs": [
        {
          "internalType": "bytes32",
          "name": "",
          "type": "bytes32"
        }
      ],
      "stateMutability": "view",
      "type": "function"
    },
    {
      "inputs": [
        {
          "internalType": "bytes32",
          "name": "role",
          "type": "bytes32"
        },
        {
          "internalType": "address",
          "name": "account",
          "type": "address"
        }
      ],
      "name": "grantRole",
      "outputs": [],
      "stateMutability": "nonpayable",
      "type": "function"
    },
    {
      "inputs": [
        {
          "internalType": "bytes32",
          "name": "role",
          "type": "bytes32"
        },
        {
          "internalType": "address",
          "name": "account",
          "type": "address"
        }
      ],
      "name": "hasRole",
      "outputs": [
        {
          "internalType": "bool",
          "name": "",
          "type": "bool"
        }
      ],
      "stateMutability": "view",
      "type": "function"
    },
    {
      "inputs": [],
      "name": "limitEveryDayMELD",
      "outputs": [
        {
          "internalType": "uint256",
          "name": "",
          "type": "uint256"
        }
      ],
      "stateMutability": "view",
      "type": "function"
    },
    {
      "inputs": [],
      "name": "melandMELDFuture",
      "outputs": [
        {
          "internalType": "contract Meland1155MELDFuture",
          "name": "",
          "type": "address"
        }
      ],
      "stateMutability": "view",
      "type": "function"
    },
    {
      "inputs": [],
      "name": "officialWallet",
      "outputs": [
        {
          "internalType": "address",
          "name": "",
          "type": "address"
        }
      ],
      "stateMutability": "view",
      "type": "function"
    },
    {
      "inputs": [],
      "name": "ownerCutPerMillion",
      "outputs": [
        {
          "internalType": "uint256",
          "name": "",
          "type": "uint256"
        }
      ],
      "stateMutability": "view",
      "type": "function"
    },
    {
      "inputs": [
        {
          "internalType": "bytes32",
          "name": "role",
          "type": "bytes32"
        },
        {
          "internalType": "address",
          "name": "account",
          "type": "address"
        }
      ],
      "name": "renounceRole",
      "outputs": [],
      "stateMutability": "nonpayable",
      "type": "function"
    },
    {
      "inputs": [
        {
          "internalType": "bytes32",
          "name": "role",
          "type": "bytes32"
        },
        {
          "internalType": "address",
          "name": "account",
          "type": "address"
        }
      ],
      "name": "revokeRole",
      "outputs": [],
      "stateMutability": "nonpayable",
      "type": "function"
    },
    {
      "inputs": [
        {
          "internalType": "bytes4",
          "name": "interfaceId",
          "type": "bytes4"
        }
      ],
      "name": "supportsInterface",
      "outputs": [
        {
          "internalType": "bool",
          "name": "",
          "type": "bool"
        }
      ],
      "stateMutability": "view",
      "type": "function"
    },
    {
      "inputs": [
        {
          "internalType": "address",
          "name": "newImplementation",
          "type": "address"
        }
      ],
      "name": "upgradeTo",
      "outputs": [],
      "stateMutability": "nonpayable",
      "type": "function"
    },
    {
      "inputs": [
        {
          "internalType": "address",
          "name": "newImplementation",
          "type": "address"
        },
        {
          "internalType": "bytes",
          "name": "data",
          "type": "bytes"
        }
      ],
      "name": "upgradeToAndCall",
      "outputs": [],
      "stateMutability": "payable",
      "type": "function"
    },
    {
      "inputs": [
        {
          "internalType": "contract IERC20Upgradeable",
          "name": "_token",
          "type": "address"
        },
        {
          "internalType": "contract Meland1155MELDFuture",
          "name": "_melandMELDFuture",
          "type": "address"
        },
        {
          "internalType": "address",
          "name": "_officialWallet",
          "type": "address"
        },
        {
          "internalType": "address",
          "name": "_foundationWallet",
          "type": "address"
        },
        {
          "internalType": "address",
          "name": "_bidbackWallet",
          "type": "address"
        },
        {
          "internalType": "uint256",
          "name": "_ownerCutPerMillion",
          "type": "uint256"
        }
      ],
      "name": "initialize",
      "outputs": [],
      "stateMutability": "nonpayable",
      "type": "function"
    },
    {
      "inputs": [
        {
          "internalType": "uint256",
          "name": "amountMELD",
          "type": "uint256"
        }
      ],
      "name": "exchange",
      "outputs": [],
      "stateMutability": "nonpayable",
      "type": "function"
    },
    {
      "inputs": [
        {
          "internalType": "uint256",
          "name": "exchangeId",
          "type": "uint256"
        },
        {
          "internalType": "uint256",
          "name": "ditaminAmount",
          "type": "uint256"
        }
      ],
      "name": "exchangePay",
      "outputs": [],
      "stateMutability": "nonpayable",
      "type": "function"
    },
    {
      "inputs": [
        {
          "internalType": "uint256",
          "name": "amountMELD",
          "type": "uint256"
        }
      ],
      "name": "deposit",
      "outputs": [],
      "stateMutability": "nonpayable",
      "type": "function"
    },
    {
      "inputs": [
        {
          "internalType": "uint256",
          "name": "depositId",
          "type": "uint256"
        },
        {
          "internalType": "uint256",
          "name": "ditaminAmount",
          "type": "uint256"
        }
      ],
      "name": "depositPay",
      "outputs": [],
      "stateMutability": "nonpayable",
      "type": "function"
    },
    {
      "inputs": [
        {
          "internalType": "uint256",
          "name": "_limit",
          "type": "uint256"
        }
      ],
      "name": "updateMELDLimit",
      "outputs": [],
      "stateMutability": "nonpayable",
      "type": "function"
    }
  ],
  "bytecode": "0x60a06040523060805234801561001457600080fd5b506080516126e4610045600039600081816109a8015281816109e801528181610de10152610e2101526126e46000f3fe6080604052600436106101c25760003560e01c80636d6b1fbd116100f7578063aabbd11711610095578063d547741f11610064578063d547741f1461059d578063f25d07e3146105bd578063f72c0d8b14610612578063fc3b624e1461064657600080fd5b8063aabbd11714610513578063b6b55f2514610533578063d4c2735014610553578063d53913931461056957600080fd5b806395b6ef0c116100d157806395b6ef0c146104a8578063983e887c146104c8578063a01f79d4146104e8578063a217fddf146104fe57600080fd5b80636d6b1fbd146104475780638100c96a1461046757806391d148541461048857600080fd5b80633659cfe6116101645780634e4fdde81161013e5780634e4fdde8146103d45780634f1ef286146103f457806353556559146104075780636b7ae8dc1461042757600080fd5b80633659cfe61461030857806336e4f60f14610328578063451c3d80146103b357600080fd5b8063248a9ca3116101a0578063248a9ca3146102565780632f2ff15d1461029457806330c7be2c146102b457806336568abe146102e857600080fd5b806301ffc9a7146101c7578063088025d3146101fc5780631616001814610234575b600080fd5b3480156101d357600080fd5b506101e76101e236600461214b565b61067a565b60405190151581526020015b60405180910390f35b34801561020857600080fd5b5060fc5461021c906001600160a01b031681565b6040516001600160a01b0390911681526020016101f3565b34801561024057600080fd5b5061025461024f366004612175565b6106b1565b005b34801561026257600080fd5b50610286610271366004612197565b60009081526065602052604090206001015490565b6040519081526020016101f3565b3480156102a057600080fd5b506102546102af3660046121c5565b6108f4565b3480156102c057600080fd5b506102867ff5eb84615c2a00ecaf817d13794ebd6299c9e01c395bf4018453f13f577f544981565b3480156102f457600080fd5b506102546103033660046121c5565b61091f565b34801561031457600080fd5b506102546103233660046121f5565b61099d565b34801561033457600080fd5b5061037d610343366004612197565b6101056020526000908152604090208054600182015460028301546003840154600490940154929391926001600160a01b03909116919085565b6040805195865260208601949094526001600160a01b03909216928401929092526060830191909152608082015260a0016101f3565b3480156103bf57600080fd5b506101025461021c906001600160a01b031681565b3480156103e057600080fd5b506102546103ef366004612175565b610a66565b610254610402366004612228565b610dd6565b34801561041357600080fd5b50610254610422366004612197565b610e8c565b34801561043357600080fd5b5060fb5461021c906001600160a01b031681565b34801561045357600080fd5b506102866104623660046122ec565b611372565b34801561047357600080fd5b506101035461021c906001600160a01b031681565b34801561049457600080fd5b506101e76104a33660046121c5565b6113b1565b3480156104b457600080fd5b506102546104c3366004612321565b6113dc565b3480156104d457600080fd5b506102546104e3366004612197565b611513565b3480156104f457600080fd5b5061028660fe5481565b34801561050a57600080fd5b50610286600081565b34801561051f57600080fd5b5060fd5461021c906001600160a01b031681565b34801561053f57600080fd5b5061025461054e366004612197565b611547565b34801561055f57600080fd5b5061028660ff5481565b34801561057557600080fd5b506102867f9f2df0fed2c77648de5860a4cc508cd0818c85b8b8a1ab4ceeef8d981c8956a681565b3480156105a957600080fd5b506102546105b83660046121c5565b6117df565b3480156105c957600080fd5b5061037d6105d8366004612197565b6101066020526000908152604090208054600182015460028301546003840154600490940154929391926001600160a01b03909116919085565b34801561061e57600080fd5b506102867f189ab7a9244df0848122154315af71fe140f3db0fe014031783b0946b8c9d2e381565b34801561065257600080fd5b506102867f19d1bb95aa4278ba8d6282dbd4743df4dfa774d51ae7edcf81e834cba5d6803c81565b60006001600160e01b03198216637965db0b60e01b14806106ab57506301ffc9a760e01b6001600160e01b03198316145b92915050565b7f19d1bb95aa4278ba8d6282dbd4743df4dfa774d51ae7edcf81e834cba5d6803c6106dc8133611805565b60008381526101066020908152604091829020825160a0810184528154815260018201549281019290925260028101546001600160a01b03169282019290925260038201546060820152600490910154608082018190521561077a5760405162461bcd60e51b81526020600482015260126024820152714475706c6963617465207061796d656e747360701b60448201526064015b60405180910390fd5b80516107c85760405162461bcd60e51b815260206004820152601a60248201527f4e6f7420666f756e642065786368616e6765207265636f7264730000000000006044820152606401610771565b4260808201908152606082018481526000868152610106602090815260409182902085518155908501516001820155908401516002820180546001600160a01b0319166001600160a01b03928316179055915160038201559151600490920191909155610102541663a9059cbb3360208401516040516001600160e01b031960e085901b1681526001600160a01b0390921660048301526024820152604401602060405180830381600087803b15801561088157600080fd5b505af1158015610895573d6000803e3d6000fd5b505050506040513d601f19601f820116820180604052508101906108b9919061239a565b506040518481527f0d2cdd19f94f06ba428588d10abaf80425f5507245d9b94c98c93cf484ef4632906020015b60405180910390a150505050565b6000828152606560205260409020600101546109108133611805565b61091a8383611869565b505050565b6001600160a01b038116331461098f5760405162461bcd60e51b815260206004820152602f60248201527f416363657373436f6e74726f6c3a2063616e206f6e6c792072656e6f756e636560448201526e103937b632b9903337b91039b2b63360891b6064820152608401610771565b61099982826118ef565b5050565b306001600160a01b037f00000000000000000000000000000000000000000000000000000000000000001614156109e65760405162461bcd60e51b8152600401610771906123bc565b7f00000000000000000000000000000000000000000000000000000000000000006001600160a01b0316610a18611956565b6001600160a01b031614610a3e5760405162461bcd60e51b815260040161077190612408565b610a4781611984565b60408051600080825260208201909252610a63918391906119af565b50565b60008281526101056020908152604091829020825160a0810184528154815260018201549281019290925260028101546001600160a01b031692820192909252600382015460608201526004909101546080820181905215610aff5760405162461bcd60e51b81526020600482015260126024820152714475706c6963617465207061796d656e747360701b6044820152606401610771565b8051610b4d5760405162461bcd60e51b815260206004820152601a60248201527f4e6f7420666f756e642065786368616e6765207265636f7264730000000000006044820152606401610771565b6020810151610102546001600160a01b03166370a08231336040516001600160e01b031960e084901b1681526001600160a01b03909116600482015260240160206040518083038186803b158015610ba457600080fd5b505afa158015610bb8573d6000803e3d6000fd5b505050506040513d601f19601f82011682018060405250810190610bdc9190612454565b11610c295760405162461bcd60e51b815260206004820152601c60248201527f496e73756666696369656e74207061796d656e742062616c616e6365000000006044820152606401610771565b6060810182815242608083019081526000858152610105602090815260409182902085518155908501516001820155908401516002820180546001600160a01b0319166001600160a01b0392831617905592516003820155905160049091015561010254166323b872dd333084602001516040518463ffffffff1660e01b8152600401610cb89392919061246d565b602060405180830381600087803b158015610cd257600080fd5b505af1158015610ce6573d6000803e3d6000fd5b505050506040513d601f19601f82011682018060405250810190610d0a919061239a565b5061010354610102546040838101516020850151915163a085f19360e01b81526001600160a01b039384166004820152908316602482015260448101919091526001606482015262127500608482015291169063a085f1939060a401600060405180830381600087803b158015610d8057600080fd5b505af1158015610d94573d6000803e3d6000fd5b505050507f2dfb5377a4c384f220c62ce7d7caefab0ad3a944dacb1aa7ff6619a92ea473c383604051610dc991815260200190565b60405180910390a1505050565b306001600160a01b037f0000000000000000000000000000000000000000000000000000000000000000161415610e1f5760405162461bcd60e51b8152600401610771906123bc565b7f00000000000000000000000000000000000000000000000000000000000000006001600160a01b0316610e51611956565b6001600160a01b031614610e775760405162461bcd60e51b815260040161077190612408565b610e8082611984565b610999828260016119af565b68056bc75e2d631000008111610ee45760405162461bcd60e51b815260206004820152601f60248201527f4d696e696d756d2031303020706965636573207065722065786368616e6765006044820152606401610771565b6000610eee611afa565b905060ff5482610f04610efe3390565b84611b0e565b610f0e91906124a7565b1115610f6e5760405162461bcd60e51b815260206004820152602960248201527f416c726561647920657863656564656420746f64617927732072656465656d61604482015268189b19481b1a5b5a5d60ba1b6064820152608401610771565b60fe5415611265576000610f9a620f4240610f9460fe5486611c2c90919063ffffffff16565b90611c3f565b90506000610fae6064610f94846028611c2c565b90506000610fc26064610f94856028611c2c565b90506000610fd66064610f94866014611c2c565b6101025460fd546040516323b872dd60e01b81529293506001600160a01b03918216926323b872dd92611012923392911690889060040161246d565b602060405180830381600087803b15801561102c57600080fd5b505af1158015611040573d6000803e3d6000fd5b505050506040513d601f19601f82011682018060405250810190611064919061239a565b50610102546001600160a01b03166323b872dd3360fb546040516001600160e01b031960e085901b1681526110a892916001600160a01b031690879060040161246d565b602060405180830381600087803b1580156110c257600080fd5b505af11580156110d6573d6000803e3d6000fd5b505050506040513d601f19601f820116820180604052508101906110fa919061239a565b6111605760405162461bcd60e51b815260206004820152603160248201527f48616e646c696e6720666565207472616e7366657220746f20666f756e646174604482015270696f6e57616c6c6574206661696c75726560781b6064820152608401610771565b610102546001600160a01b03166323b872dd3360fc546040516001600160e01b031960e085901b1681526111a392916001600160a01b031690869060040161246d565b602060405180830381600087803b1580156111bd57600080fd5b505af11580156111d1573d6000803e3d6000fd5b505050506040513d601f19601f820116820180604052508101906111f5919061239a565b6112605760405162461bcd60e51b815260206004820152603660248201527f48616e646c696e6720666565207472616e7366657220746f206f6666696369616044820152756c57616c6c657420746f206f6666206661696c75726560501b6064820152608401610771565b505050505b60006040518060a001604052804281526020018481526020016112853390565b6001600160a01b0316815260200160008152602001600081525090506112b061010080546001019055565b60006112bc6101005490565b6000818152610105602090815260408083208651815586830151600180830191909155878301516002830180546001600160a01b0319166001600160a01b03909216919091179055606088015160038301556080880151600490920191909155338452610104835281842088855283528184208054918201815584529282902090920183905590518281529192507f11d92a0857878af15713bca494b98c6a4b566d1abbb0db6de15370430d4b4ebd91016108e6565b610104602052826000526040600020602052816000526040600020818154811061139b57600080fd5b9060005260206000200160009250925050505481565b60009182526065602090815260408084206001600160a01b0393909316845291905290205460ff1690565b600054610100900460ff166113f75760005460ff16156113fb565b303b155b61145e5760405162461bcd60e51b815260206004820152602e60248201527f496e697469616c697a61626c653a20636f6e747261637420697320616c72656160448201526d191e481a5b9a5d1a585b1a5e995960921b6064820152608401610771565b600054610100900460ff16158015611480576000805461ffff19166101011790555b61010280546001600160a01b03199081166001600160a01b038a8116919091179092556101038054821689841617905560fe84905560fd8054821686841617905560fb8054821687841617905560fc80549091169187169190911790556114e8612710611c4b565b6114f0611c86565b6114f8611cbf565b801561150a576000805461ff00191690555b50505050505050565b7ff5eb84615c2a00ecaf817d13794ebd6299c9e01c395bf4018453f13f577f544961153e8133611805565b61099982611c4b565b68056bc75e2d63100000811161159f5760405162461bcd60e51b815260206004820152601f60248201527f4d696e696d756d2031303020706965636573207065722065786368616e6765006044820152606401610771565b6101025481906001600160a01b03166370a08231336040516001600160e01b031960e084901b1681526001600160a01b03909116600482015260240160206040518083038186803b1580156115f357600080fd5b505afa158015611607573d6000803e3d6000fd5b505050506040513d601f19601f8201168201806040525081019061162b9190612454565b116116785760405162461bcd60e51b815260206004820152601c60248201527f496e73756666696369656e74207061796d656e742062616c616e6365000000006044820152606401610771565b610102546001600160a01b03166323b872dd3330846040518463ffffffff1660e01b81526004016116ab9392919061246d565b602060405180830381600087803b1580156116c557600080fd5b505af11580156116d9573d6000803e3d6000fd5b505050506040513d601f19601f820116820180604052508101906116fd919061239a565b5060006040518060a0016040528042815260200183815260200161171e3390565b6001600160a01b03168152602001600081526020016000815250905061174961010180546001019055565b60006117556101015490565b6000818152610106602090815260409182902085518155858201516001820155858301516002820180546001600160a01b0319166001600160a01b0390921691909117905560608601516003820155608086015160049091015590518281529192507f4d6ce1e535dbade1c23defba91e23b8f791ce5edc0cc320257a2b364e4e384269101610dc9565b6000828152606560205260409020600101546117fb8133611805565b61091a83836118ef565b61180f82826113b1565b61099957611827816001600160a01b03166014611d50565b611832836020611d50565b6040516020016118439291906124ef565b60408051601f198184030181529082905262461bcd60e51b825261077191600401612564565b61187382826113b1565b6109995760008281526065602090815260408083206001600160a01b03851684529091529020805460ff191660011790556118ab3390565b6001600160a01b0316816001600160a01b0316837f2f8788117e7eff1d82e926ec794901d17c78024a50270940304540a733656f0d60405160405180910390a45050565b6118f982826113b1565b156109995760008281526065602090815260408083206001600160a01b0385168085529252808320805460ff1916905551339285917ff6391f5c32d9c69d2a47ea670b442974b53935d1edc7fd64eb21e047a839171b9190a45050565b7f360894a13ba1a3210667c828492db98dca3e2076cc3735a920a3ca505d382bbc546001600160a01b031690565b7f189ab7a9244df0848122154315af71fe140f3db0fe014031783b0946b8c9d2e36109998133611805565b60006119b9611956565b90506119c484611eec565b6000835111806119d15750815b156119e2576119e08484611f91565b505b7f4910fdfa16fed3260ed0e7147f7cc6da11a60208b5b9406d12a635614ffd9143805460ff16611af357805460ff191660011781556040516001600160a01b0383166024820152611a6190869060440160408051601f198184030181529190526020810180516001600160e01b0316631b2ce7f360e11b179052611f91565b50805460ff19168155611a72611956565b6001600160a01b0316826001600160a01b031614611aea5760405162461bcd60e51b815260206004820152602f60248201527f45524331393637557067726164653a207570677261646520627265616b73206660448201526e75727468657220757067726164657360881b6064820152608401610771565b611af38561207c565b5050505050565b6000611b096201518042612597565b905090565b6001600160a01b038216600090815261010460209081526040808320848452825280832080548251818502810185019093528083528493830182828015611b7457602002820191906000526020600020905b815481526020019060010190808311611b60575b50505050509050600080600090505b8251811015611c235760006101056000858481518110611ba557611ba56125b9565b6020908102919091018101518252818101929092526040908101600020815160a08101835281548152600182015493810184905260028201546001600160a01b031692810192909252600381015460608301526004015460808201529150611c0d90846124a7565b9250508080611c1b906125cf565b915050611b83565b50949350505050565b6000611c3882846125ea565b9392505050565b6000611c388284612597565b60ff8190556040518181527f3b24ade2863d68d94bc0ef455c5abf3f240b69d4728d269b1a33c0141224609b9060200160405180910390a150565b600054610100900460ff16611cad5760405162461bcd60e51b815260040161077190612609565b611cb56120bc565b611cbd6120bc565b565b611cc76120e3565b611cd2600033611869565b611cfc7ff5eb84615c2a00ecaf817d13794ebd6299c9e01c395bf4018453f13f577f544933611869565b611d267f9f2df0fed2c77648de5860a4cc508cd0818c85b8b8a1ab4ceeef8d981c8956a633611869565b611cbd7f189ab7a9244df0848122154315af71fe140f3db0fe014031783b0946b8c9d2e333611869565b60606000611d5f8360026125ea565b611d6a9060026124a7565b67ffffffffffffffff811115611d8257611d82612212565b6040519080825280601f01601f191660200182016040528015611dac576020820181803683370190505b509050600360fc1b81600081518110611dc757611dc76125b9565b60200101906001600160f81b031916908160001a905350600f60fb1b81600181518110611df657611df66125b9565b60200101906001600160f81b031916908160001a9053506000611e1a8460026125ea565b611e259060016124a7565b90505b6001811115611e9d576f181899199a1a9b1b9c1cb0b131b232b360811b85600f1660108110611e5957611e596125b9565b1a60f81b828281518110611e6f57611e6f6125b9565b60200101906001600160f81b031916908160001a90535060049490941c93611e9681612654565b9050611e28565b508315611c385760405162461bcd60e51b815260206004820181905260248201527f537472696e67733a20686578206c656e67746820696e73756666696369656e746044820152606401610771565b803b611f505760405162461bcd60e51b815260206004820152602d60248201527f455243313936373a206e657720696d706c656d656e746174696f6e206973206e60448201526c1bdd08184818dbdb9d1c9858dd609a1b6064820152608401610771565b7f360894a13ba1a3210667c828492db98dca3e2076cc3735a920a3ca505d382bbc80546001600160a01b0319166001600160a01b0392909216919091179055565b6060823b611ff05760405162461bcd60e51b815260206004820152602660248201527f416464726573733a2064656c65676174652063616c6c20746f206e6f6e2d636f6044820152651b9d1c9858dd60d21b6064820152608401610771565b600080846001600160a01b03168460405161200b919061266b565b600060405180830381855af49150503d8060008114612046576040519150601f19603f3d011682016040523d82523d6000602084013e61204b565b606091505b5091509150612073828260405180606001604052806027815260200161268860279139612112565b95945050505050565b61208581611eec565b6040516001600160a01b038216907fbc7cd75a20ee27fd9adebab32041f755214dbc6bffa90cc0225b39da2e5c2d3b90600090a250565b600054610100900460ff16611cbd5760405162461bcd60e51b815260040161077190612609565b600054610100900460ff1661210a5760405162461bcd60e51b815260040161077190612609565b611cad6120bc565b60608315612121575081611c38565b8251156121315782518084602001fd5b8160405162461bcd60e51b81526004016107719190612564565b60006020828403121561215d57600080fd5b81356001600160e01b031981168114611c3857600080fd5b6000806040838503121561218857600080fd5b50508035926020909101359150565b6000602082840312156121a957600080fd5b5035919050565b6001600160a01b0381168114610a6357600080fd5b600080604083850312156121d857600080fd5b8235915060208301356121ea816121b0565b809150509250929050565b60006020828403121561220757600080fd5b8135611c38816121b0565b634e487b7160e01b600052604160045260246000fd5b6000806040838503121561223b57600080fd5b8235612246816121b0565b9150602083013567ffffffffffffffff8082111561226357600080fd5b818501915085601f83011261227757600080fd5b81358181111561228957612289612212565b604051601f8201601f19908116603f011681019083821181831017156122b1576122b1612212565b816040528281528860208487010111156122ca57600080fd5b8260208601602083013760006020848301015280955050505050509250929050565b60008060006060848603121561230157600080fd5b833561230c816121b0565b95602085013595506040909401359392505050565b60008060008060008060c0878903121561233a57600080fd5b8635612345816121b0565b95506020870135612355816121b0565b94506040870135612365816121b0565b93506060870135612375816121b0565b92506080870135612385816121b0565b8092505060a087013590509295509295509295565b6000602082840312156123ac57600080fd5b81518015158114611c3857600080fd5b6020808252602c908201527f46756e6374696f6e206d7573742062652063616c6c6564207468726f7567682060408201526b19195b1959d85d1958d85b1b60a21b606082015260800190565b6020808252602c908201527f46756e6374696f6e206d7573742062652063616c6c6564207468726f7567682060408201526b6163746976652070726f787960a01b606082015260800190565b60006020828403121561246657600080fd5b5051919050565b6001600160a01b039384168152919092166020820152604081019190915260600190565b634e487b7160e01b600052601160045260246000fd5b600082198211156124ba576124ba612491565b500190565b60005b838110156124da5781810151838201526020016124c2565b838111156124e9576000848401525b50505050565b7f416363657373436f6e74726f6c3a206163636f756e74200000000000000000008152600083516125278160178501602088016124bf565b7001034b99036b4b9b9b4b733903937b6329607d1b60179184019182015283516125588160288401602088016124bf565b01602801949350505050565b60208152600082518060208401526125838160408501602087016124bf565b601f01601f19169190910160400192915050565b6000826125b457634e487b7160e01b600052601260045260246000fd5b500490565b634e487b7160e01b600052603260045260246000fd5b60006000198214156125e3576125e3612491565b5060010190565b600081600019048311821515161561260457612604612491565b500290565b6020808252602b908201527f496e697469616c697a61626c653a20636f6e7472616374206973206e6f74206960408201526a6e697469616c697a696e6760a81b606082015260800190565b60008161266357612663612491565b506000190190565b6000825161267d8184602087016124bf565b919091019291505056fe416464726573733a206c6f772d6c6576656c2064656c65676174652063616c6c206661696c6564a2646970667358221220000580c73d97e6fbddbc9e2d4e323cf2c4a2f47c01e93adac734229f4db68c6464736f6c63430008090033",
  "immutableReferences": {
    "1051": [
      {
        "length": 32,
        "start": 2472
      },
      {
        "length": 32,
        "start": 2536
      },
      {
        "length": 32,
        "start": 3553
      },
      {
        "length": 32,
        "start": 3617
      }
    ]
  },
  "source": "// SPDX-License-Identifier: MIT\npragma solidity 0.8.9;\n\nimport \"@openzeppelin/contracts-upgradeable/token/ERC1155/ERC1155Upgradeable.sol\";\nimport \"@openzeppelin/contracts-upgradeable/token/ERC20/IERC20Upgradeable.sol\";\nimport \"@openzeppelin/contracts-upgradeable/access/AccessControlUpgradeable.sol\";\nimport \"@openzeppelin/contracts-upgradeable/token/ERC1155/extensions/ERC1155BurnableUpgradeable.sol\";\nimport \"@openzeppelin/contracts-upgradeable/proxy/utils/Initializable.sol\";\nimport \"@openzeppelin/contracts-upgradeable/proxy/utils/UUPSUpgradeable.sol\";\nimport \"@openzeppelin/contracts-upgradeable/utils/math/SafeMathUpgradeable.sol\";\nimport \"@openzeppelin/contracts-upgradeable/utils/CountersUpgradeable.sol\";\nimport \"./MelandTierAddressStore.sol\";\nimport \"./MelandAccessRoles.sol\";\nimport \"./MelandTier.sol\";\nimport \"./Meland1155MELDFuture.sol\";\n\n// MELD Exchange\n// MELD -> ditamin\n// ditamin -> MELD\n\ncontract MelandExchange is Initializable, MelandAccessRoles, UUPSUpgradeable {\n    using SafeMathUpgradeable for uint256;\n    using CountersUpgradeable for CountersUpgradeable.Counter;\n\n    // 40% ownerCutPerMillion\n    address public foundationWallet;\n\n    // 20% ownerCutPerMillion\n    address public officialWallet;\n\n    // If the acceptedToken is a MELD, We will burn 40% of it,\n    // Else it is another token,\n    // We will credit it to the bidback account, and then periodically buy back and burn it.\n    address public bidbackWallet;\n\n    uint256 public ownerCutPerMillion;\n\n    bytes32 public constant PAYMENT_ROLE = keccak256(\"PAYMENT_ROLE\");\n\n    uint256 public limitEveryDayMELD;\n\n    CountersUpgradeable.Counter private _exchangeMELDCounter;\n    CountersUpgradeable.Counter private _depositDitaminCounter;\n\n    IERC20Upgradeable public acceptedToken;\n\n    Meland1155MELDFuture public melandMELDFuture;\n\n    event MELDLimitUpdate(uint256 newLimit);\n\n    event Deposit(uint256 depositId);\n\n    event DepositPaymentSuccess(uint256 depositId);\n\n    event Exchange(uint256 exchangeId);\n\n    event ExchangePaymentSuccess(uint256 exchangeId);\n\n    // Used to limit the number of redemptions per user per day.\n    mapping(address => mapping(uint256 => uint256[])) public getExchangeMELDIdsByUserAndDay;\n\n    mapping(uint256 => ExchangeMELD) public getExchangeMELDById;\n    mapping(uint256 => DepositDitamin) public getDepositDitaminById;\n\n    struct ExchangeMELD {\n        uint256 exchangedAt;\n        uint256 amountOfMELD;\n        address beneficiary;\n        uint256 paymentDitamin;\n        uint256 paymentAt;\n    }\n\n    struct DepositDitamin {\n        uint256 depositedAt;\n        uint256 amountOfMELD;\n        address beneficiary;\n        uint256 paymentDitamin;\n        uint256 paymentAt;\n    }\n\n    function initialize(\n        IERC20Upgradeable _token,\n        Meland1155MELDFuture _melandMELDFuture,\n        address _officialWallet,\n        address _foundationWallet,\n        address _bidbackWallet,\n        uint256 _ownerCutPerMillion\n    ) public initializer {\n        acceptedToken = _token;\n        melandMELDFuture = _melandMELDFuture;\n        ownerCutPerMillion = _ownerCutPerMillion;\n        bidbackWallet = _bidbackWallet;\n        foundationWallet = _foundationWallet;\n        officialWallet = _officialWallet;\n        _updateMELDLimit(10000);\n        __UUPSUpgradeable_init();\n        __MelandAccessRoles_init();\n    }\n\n    function getCurrentDay() private view returns (uint256) {\n        return block.timestamp / 86400;\n    }\n\n    function _updateMELDLimit(uint256 _limit) internal {\n        limitEveryDayMELD = _limit;\n        emit MELDLimitUpdate(_limit);\n    }\n\n    function _getTotalAmountByDay(address u, uint256 day)\n        internal\n        view\n        returns (uint256)\n    {\n        uint256[] memory exchangeMELDIds = getExchangeMELDIdsByUserAndDay[u][\n            day\n        ];\n        uint256 totalAmount;\n        for (uint256 i = 0; i < exchangeMELDIds.length; i++) {\n            ExchangeMELD memory exchangeMELD = getExchangeMELDById[\n                exchangeMELDIds[i]\n            ];\n            totalAmount += exchangeMELD.amountOfMELD;\n        }\n        return totalAmount;\n    }\n\n    function exchange(uint256 amountMELD) public {\n        require(amountMELD > 100 * 10**18, \"Minimum 100 pieces per exchange\");\n        uint256 day = getCurrentDay();\n        require(\n            _getTotalAmountByDay(_msgSender(), day) + amountMELD <=\n                limitEveryDayMELD,\n            \"Already exceeded today's redeemable limit\"\n        );\n\n\n        // The fee is charged first to prevent malicious exchange attacks\n        // Because the balance of the user's ditamin cannot be verified here,\n        // Malicious redemptions may occur when the user initiates a redemption with only a small amount of gas to pay. \n        // Causes payment congestion \n        {\n            if (ownerCutPerMillion > 0) {\n                // Calculate sale share\n                uint256 saleShareAmount = amountMELD.mul(ownerCutPerMillion).div(\n                    1000000\n                );\n\n                // 40% burn in handling fee\n                uint256 burnAmount = saleShareAmount.mul(40).div(100);\n\n                // The other 40% is held by the Foundation\n                uint256 foundationAmount = saleShareAmount.mul(40).div(100);\n\n                // The last 20% are official earnings\n                uint256 officialAmount = saleShareAmount.mul(20).div(100);\n\n                // transfer to bidback wallet when burn failed.\n                acceptedToken.transferFrom(_msgSender(), bidbackWallet, burnAmount);\n\n                require(\n                    acceptedToken.transferFrom(\n                        _msgSender(),\n                        foundationWallet,\n                        foundationAmount\n                    ),\n                    \"Handling fee transfer to foundationWallet failure\"\n                );\n                require(\n                    acceptedToken.transferFrom(\n                        _msgSender(),\n                        officialWallet,\n                        officialAmount\n                    ),\n                    \"Handling fee transfer to officialWallet to off failure\"\n                );\n            }\n        }\n\n        ExchangeMELD memory exchangeMELD = ExchangeMELD(\n            block.timestamp,\n            amountMELD,\n            _msgSender(),\n            0,\n            0\n        );\n        _exchangeMELDCounter.increment();\n        uint256 exchId = _exchangeMELDCounter.current();\n        getExchangeMELDById[exchId] = exchangeMELD;\n        getExchangeMELDIdsByUserAndDay[_msgSender()][day].push(exchId);\n        emit Exchange(exchId);\n    }\n\n    // Make MELD payment, here you can not need to restrict the permission.\n    // Because the caller needs to pay the MELD fee for this.\n    function exchangePay(uint256 exchangeId, uint256 ditaminAmount) public {\n        ExchangeMELD memory exchangeMELD = getExchangeMELDById[exchangeId];\n        require(exchangeMELD.paymentAt == 0, \"Duplicate payments\");\n        require(exchangeMELD.exchangedAt > 0, \"Not found exchange records\");\n        require(acceptedToken.balanceOf(_msgSender()) > exchangeMELD.amountOfMELD, \"Insufficient payment balance\");\n        exchangeMELD.paymentDitamin = ditaminAmount;\n        exchangeMELD.paymentAt = block.timestamp;\n        getExchangeMELDById[exchangeId] = exchangeMELD;\n        acceptedToken.transferFrom(_msgSender(), address(this), exchangeMELD.amountOfMELD);\n        melandMELDFuture.mintBatch(acceptedToken, exchangeMELD.beneficiary, exchangeMELD.amountOfMELD, 1, 14 days);\n        emit ExchangePaymentSuccess(exchangeId);\n    }\n\n    function deposit(uint256 amountMELD) public {\n        require(amountMELD > 100 * 10**18, \"Minimum 100 pieces per exchange\");\n        require(acceptedToken.balanceOf(_msgSender()) > amountMELD, \"Insufficient payment balance\");\n        acceptedToken.transferFrom(_msgSender(), address(this), amountMELD);\n        DepositDitamin memory depositDitamin = DepositDitamin(\n            block.timestamp,\n            amountMELD,\n            _msgSender(),\n            0,\n            0\n        );\n        _depositDitaminCounter.increment();\n        uint256 depositId = _depositDitaminCounter.current();\n        getDepositDitaminById[depositId] = depositDitamin;\n        emit Deposit(depositId);\n    }\n\n    // Make a ditamin payment, called by the game server\n    function depositPay(uint256 depositId, uint256 ditaminAmount) public onlyRole(PAYMENT_ROLE) {\n        DepositDitamin memory depositDitamin = getDepositDitaminById[depositId];\n        require(depositDitamin.paymentAt == 0, \"Duplicate payments\");\n        require(depositDitamin.depositedAt > 0, \"Not found exchange records\");\n        depositDitamin.paymentAt = block.timestamp;\n        depositDitamin.paymentDitamin = ditaminAmount;\n        getDepositDitaminById[depositId] = depositDitamin;\n        acceptedToken.transfer(_msgSender(), depositDitamin.amountOfMELD);\n        emit DepositPaymentSuccess(depositId);\n    }\n\n    function updateMELDLimit(uint256 _limit) public onlyRole(GM_ROLE) {\n        _updateMELDLimit(_limit);\n    }\n\n    function _authorizeUpgrade(address newImplementation)\n        internal\n        override\n        onlyRole(UPGRADER_ROLE)\n    {}\n}\n",
  "sourcePath": "/Users/alberthuang/code/icw/meland/contracts/MelandExchange.sol",
  "compiler": {
    "name": "solc",
    "version": "0.8.9+commit.e5eed63a.Emscripten.clang"
  },
  "schemaVersion": "3.4.3",
  "updatedAt": "2022-01-04T08:21:01.020Z",
  "devdoc": {
    "kind": "dev",
    "methods": {
      "getRoleAdmin(bytes32)": {
        "details": "Returns the admin role that controls `role`. See {grantRole} and {revokeRole}. To change a role's admin, use {_setRoleAdmin}."
      },
      "grantRole(bytes32,address)": {
        "details": "Grants `role` to `account`. If `account` had not been already granted `role`, emits a {RoleGranted} event. Requirements: - the caller must have ``role``'s admin role."
      },
      "hasRole(bytes32,address)": {
        "details": "Returns `true` if `account` has been granted `role`."
      },
      "renounceRole(bytes32,address)": {
        "details": "Revokes `role` from the calling account. Roles are often managed via {grantRole} and {revokeRole}: this function's purpose is to provide a mechanism for accounts to lose their privileges if they are compromised (such as when a trusted device is misplaced). If the calling account had been revoked `role`, emits a {RoleRevoked} event. Requirements: - the caller must be `account`."
      },
      "revokeRole(bytes32,address)": {
        "details": "Revokes `role` from `account`. If `account` had been granted `role`, emits a {RoleRevoked} event. Requirements: - the caller must have ``role``'s admin role."
      },
      "supportsInterface(bytes4)": {
        "details": "See {IERC165-supportsInterface}."
      },
      "upgradeTo(address)": {
        "details": "Upgrade the implementation of the proxy to `newImplementation`. Calls {_authorizeUpgrade}. Emits an {Upgraded} event."
      },
      "upgradeToAndCall(address,bytes)": {
        "details": "Upgrade the implementation of the proxy to `newImplementation`, and subsequently execute the function call encoded in `data`. Calls {_authorizeUpgrade}. Emits an {Upgraded} event."
      }
    },
    "version": 1
  },
  "userdoc": {
    "kind": "user",
    "methods": {},
    "version": 1
  }
}