{
  "contractName": "Meland1155MELDFutures",
  "abi": [
    {
      "anonymous": false,
      "inputs": [
        {
          "indexed": false,
          "internalType": "address",
          "name": "previousAdmin",
          "type": "address"
        },
        {
          "indexed": false,
          "internalType": "address",
          "name": "newAdmin",
          "type": "address"
        }
      ],
      "name": "AdminChanged",
      "type": "event"
    },
    {
      "anonymous": false,
      "inputs": [
        {
          "indexed": true,
          "internalType": "address",
          "name": "account",
          "type": "address"
        },
        {
          "indexed": true,
          "internalType": "address",
          "name": "operator",
          "type": "address"
        },
        {
          "indexed": false,
          "internalType": "bool",
          "name": "approved",
          "type": "bool"
        }
      ],
      "name": "ApprovalForAll",
      "type": "event"
    },
    {
      "anonymous": false,
      "inputs": [
        {
          "indexed": true,
          "internalType": "address",
          "name": "beacon",
          "type": "address"
        }
      ],
      "name": "BeaconUpgraded",
      "type": "event"
    },
    {
      "anonymous": false,
      "inputs": [
        {
          "indexed": true,
          "internalType": "bytes32",
          "name": "role",
          "type": "bytes32"
        },
        {
          "indexed": true,
          "internalType": "bytes32",
          "name": "previousAdminRole",
          "type": "bytes32"
        },
        {
          "indexed": true,
          "internalType": "bytes32",
          "name": "newAdminRole",
          "type": "bytes32"
        }
      ],
      "name": "RoleAdminChanged",
      "type": "event"
    },
    {
      "anonymous": false,
      "inputs": [
        {
          "indexed": true,
          "internalType": "bytes32",
          "name": "role",
          "type": "bytes32"
        },
        {
          "indexed": true,
          "internalType": "address",
          "name": "account",
          "type": "address"
        },
        {
          "indexed": true,
          "internalType": "address",
          "name": "sender",
          "type": "address"
        }
      ],
      "name": "RoleGranted",
      "type": "event"
    },
    {
      "anonymous": false,
      "inputs": [
        {
          "indexed": true,
          "internalType": "bytes32",
          "name": "role",
          "type": "bytes32"
        },
        {
          "indexed": true,
          "internalType": "address",
          "name": "account",
          "type": "address"
        },
        {
          "indexed": true,
          "internalType": "address",
          "name": "sender",
          "type": "address"
        }
      ],
      "name": "RoleRevoked",
      "type": "event"
    },
    {
      "anonymous": false,
      "inputs": [
        {
          "indexed": true,
          "internalType": "address",
          "name": "operator",
          "type": "address"
        },
        {
          "indexed": true,
          "internalType": "address",
          "name": "from",
          "type": "address"
        },
        {
          "indexed": true,
          "internalType": "address",
          "name": "to",
          "type": "address"
        },
        {
          "indexed": false,
          "internalType": "uint256[]",
          "name": "ids",
          "type": "uint256[]"
        },
        {
          "indexed": false,
          "internalType": "uint256[]",
          "name": "values",
          "type": "uint256[]"
        }
      ],
      "name": "TransferBatch",
      "type": "event"
    },
    {
      "anonymous": false,
      "inputs": [
        {
          "indexed": true,
          "internalType": "address",
          "name": "operator",
          "type": "address"
        },
        {
          "indexed": true,
          "internalType": "address",
          "name": "from",
          "type": "address"
        },
        {
          "indexed": true,
          "internalType": "address",
          "name": "to",
          "type": "address"
        },
        {
          "indexed": false,
          "internalType": "uint256",
          "name": "id",
          "type": "uint256"
        },
        {
          "indexed": false,
          "internalType": "uint256",
          "name": "value",
          "type": "uint256"
        }
      ],
      "name": "TransferSingle",
      "type": "event"
    },
    {
      "anonymous": false,
      "inputs": [
        {
          "indexed": false,
          "internalType": "string",
          "name": "value",
          "type": "string"
        },
        {
          "indexed": true,
          "internalType": "uint256",
          "name": "id",
          "type": "uint256"
        }
      ],
      "name": "URI",
      "type": "event"
    },
    {
      "anonymous": false,
      "inputs": [
        {
          "indexed": true,
          "internalType": "address",
          "name": "implementation",
          "type": "address"
        }
      ],
      "name": "Upgraded",
      "type": "event"
    },
    {
      "inputs": [],
      "name": "DEFAULT_ADMIN_ROLE",
      "outputs": [
        {
          "internalType": "bytes32",
          "name": "",
          "type": "bytes32"
        }
      ],
      "stateMutability": "view",
      "type": "function"
    },
    {
      "inputs": [],
      "name": "GM_ROLE",
      "outputs": [
        {
          "internalType": "bytes32",
          "name": "",
          "type": "bytes32"
        }
      ],
      "stateMutability": "view",
      "type": "function"
    },
    {
      "inputs": [],
      "name": "MINTER_ROLE",
      "outputs": [
        {
          "internalType": "bytes32",
          "name": "",
          "type": "bytes32"
        }
      ],
      "stateMutability": "view",
      "type": "function"
    },
    {
      "inputs": [],
      "name": "UPGRADER_ROLE",
      "outputs": [
        {
          "internalType": "bytes32",
          "name": "",
          "type": "bytes32"
        }
      ],
      "stateMutability": "view",
      "type": "function"
    },
    {
      "inputs": [
        {
          "internalType": "address",
          "name": "account",
          "type": "address"
        },
        {
          "internalType": "uint256",
          "name": "id",
          "type": "uint256"
        }
      ],
      "name": "balanceOf",
      "outputs": [
        {
          "internalType": "uint256",
          "name": "",
          "type": "uint256"
        }
      ],
      "stateMutability": "view",
      "type": "function"
    },
    {
      "inputs": [
        {
          "internalType": "address[]",
          "name": "accounts",
          "type": "address[]"
        },
        {
          "internalType": "uint256[]",
          "name": "ids",
          "type": "uint256[]"
        }
      ],
      "name": "balanceOfBatch",
      "outputs": [
        {
          "internalType": "uint256[]",
          "name": "",
          "type": "uint256[]"
        }
      ],
      "stateMutability": "view",
      "type": "function"
    },
    {
      "inputs": [
        {
          "internalType": "address",
          "name": "account",
          "type": "address"
        },
        {
          "internalType": "uint256",
          "name": "id",
          "type": "uint256"
        },
        {
          "internalType": "uint256",
          "name": "value",
          "type": "uint256"
        }
      ],
      "name": "burn",
      "outputs": [],
      "stateMutability": "nonpayable",
      "type": "function"
    },
    {
      "inputs": [
        {
          "internalType": "address",
          "name": "account",
          "type": "address"
        },
        {
          "internalType": "uint256[]",
          "name": "ids",
          "type": "uint256[]"
        },
        {
          "internalType": "uint256[]",
          "name": "values",
          "type": "uint256[]"
        }
      ],
      "name": "burnBatch",
      "outputs": [],
      "stateMutability": "nonpayable",
      "type": "function"
    },
    {
      "inputs": [
        {
          "internalType": "uint256",
          "name": "",
          "type": "uint256"
        }
      ],
      "name": "futureById",
      "outputs": [
        {
          "internalType": "contract IERC20Upgradeable",
          "name": "token",
          "type": "address"
        },
        {
          "internalType": "uint256",
          "name": "unlockAt",
          "type": "uint256"
        },
        {
          "internalType": "uint256",
          "name": "amount",
          "type": "uint256"
        }
      ],
      "stateMutability": "view",
      "type": "function"
    },
    {
      "inputs": [
        {
          "internalType": "bytes32",
          "name": "role",
          "type": "bytes32"
        }
      ],
      "name": "getRoleAdmin",
      "outputs": [
        {
          "internalType": "bytes32",
          "name": "",
          "type": "bytes32"
        }
      ],
      "stateMutability": "view",
      "type": "function"
    },
    {
      "inputs": [
        {
          "internalType": "bytes32",
          "name": "role",
          "type": "bytes32"
        },
        {
          "internalType": "address",
          "name": "account",
          "type": "address"
        }
      ],
      "name": "grantRole",
      "outputs": [],
      "stateMutability": "nonpayable",
      "type": "function"
    },
    {
      "inputs": [
        {
          "internalType": "bytes32",
          "name": "role",
          "type": "bytes32"
        },
        {
          "internalType": "address",
          "name": "account",
          "type": "address"
        }
      ],
      "name": "hasRole",
      "outputs": [
        {
          "internalType": "bool",
          "name": "",
          "type": "bool"
        }
      ],
      "stateMutability": "view",
      "type": "function"
    },
    {
      "inputs": [
        {
          "internalType": "bytes32",
          "name": "role",
          "type": "bytes32"
        },
        {
          "internalType": "address",
          "name": "account",
          "type": "address"
        }
      ],
      "name": "renounceRole",
      "outputs": [],
      "stateMutability": "nonpayable",
      "type": "function"
    },
    {
      "inputs": [
        {
          "internalType": "bytes32",
          "name": "role",
          "type": "bytes32"
        },
        {
          "internalType": "address",
          "name": "account",
          "type": "address"
        }
      ],
      "name": "revokeRole",
      "outputs": [],
      "stateMutability": "nonpayable",
      "type": "function"
    },
    {
      "inputs": [
        {
          "internalType": "address",
          "name": "from",
          "type": "address"
        },
        {
          "internalType": "address",
          "name": "to",
          "type": "address"
        },
        {
          "internalType": "uint256[]",
          "name": "ids",
          "type": "uint256[]"
        },
        {
          "internalType": "uint256[]",
          "name": "amounts",
          "type": "uint256[]"
        },
        {
          "internalType": "bytes",
          "name": "data",
          "type": "bytes"
        }
      ],
      "name": "safeBatchTransferFrom",
      "outputs": [],
      "stateMutability": "nonpayable",
      "type": "function"
    },
    {
      "inputs": [
        {
          "internalType": "address",
          "name": "from",
          "type": "address"
        },
        {
          "internalType": "address",
          "name": "to",
          "type": "address"
        },
        {
          "internalType": "uint256",
          "name": "id",
          "type": "uint256"
        },
        {
          "internalType": "uint256",
          "name": "amount",
          "type": "uint256"
        },
        {
          "internalType": "bytes",
          "name": "data",
          "type": "bytes"
        }
      ],
      "name": "safeTransferFrom",
      "outputs": [],
      "stateMutability": "nonpayable",
      "type": "function"
    },
    {
      "inputs": [
        {
          "internalType": "address",
          "name": "operator",
          "type": "address"
        },
        {
          "internalType": "bool",
          "name": "approved",
          "type": "bool"
        }
      ],
      "name": "setApprovalForAll",
      "outputs": [],
      "stateMutability": "nonpayable",
      "type": "function"
    },
    {
      "inputs": [
        {
          "internalType": "contract IERC20Upgradeable",
          "name": "",
          "type": "address"
        }
      ],
      "name": "totalSupplyByERC20",
      "outputs": [
        {
          "internalType": "uint256",
          "name": "",
          "type": "uint256"
        }
      ],
      "stateMutability": "view",
      "type": "function"
    },
    {
      "inputs": [
        {
          "internalType": "address",
          "name": "newImplementation",
          "type": "address"
        }
      ],
      "name": "upgradeTo",
      "outputs": [],
      "stateMutability": "nonpayable",
      "type": "function"
    },
    {
      "inputs": [
        {
          "internalType": "address",
          "name": "newImplementation",
          "type": "address"
        },
        {
          "internalType": "bytes",
          "name": "data",
          "type": "bytes"
        }
      ],
      "name": "upgradeToAndCall",
      "outputs": [],
      "stateMutability": "payable",
      "type": "function"
    },
    {
      "inputs": [
        {
          "internalType": "uint256",
          "name": "",
          "type": "uint256"
        }
      ],
      "name": "uri",
      "outputs": [
        {
          "internalType": "string",
          "name": "",
          "type": "string"
        }
      ],
      "stateMutability": "view",
      "type": "function"
    },
    {
      "inputs": [
        {
          "internalType": "string",
          "name": "uri",
          "type": "string"
        }
      ],
      "name": "initialize",
      "outputs": [],
      "stateMutability": "nonpayable",
      "type": "function"
    },
    {
      "inputs": [
        {
          "internalType": "address",
          "name": "_owner",
          "type": "address"
        },
        {
          "internalType": "address",
          "name": "_operator",
          "type": "address"
        }
      ],
      "name": "isApprovedForAll",
      "outputs": [
        {
          "internalType": "bool",
          "name": "isOperator",
          "type": "bool"
        }
      ],
      "stateMutability": "view",
      "type": "function"
    },
    {
      "inputs": [
        {
          "internalType": "string",
          "name": "newuri",
          "type": "string"
        }
      ],
      "name": "setURI",
      "outputs": [],
      "stateMutability": "nonpayable",
      "type": "function"
    },
    {
      "inputs": [
        {
          "internalType": "contract IERC20Upgradeable",
          "name": "token",
          "type": "address"
        },
        {
          "internalType": "uint256",
          "name": "amount",
          "type": "uint256"
        },
        {
          "internalType": "uint8",
          "name": "count",
          "type": "uint8"
        },
        {
          "internalType": "uint256",
          "name": "lockseconds",
          "type": "uint256"
        }
      ],
      "name": "mintBatch",
      "outputs": [],
      "stateMutability": "nonpayable",
      "type": "function"
    },
    {
      "inputs": [
        {
          "internalType": "contract MelandTier",
          "name": "_tierAddress",
          "type": "address"
        }
      ],
      "name": "setMelandTier",
      "outputs": [],
      "stateMutability": "nonpayable",
      "type": "function"
    },
    {
      "inputs": [
        {
          "internalType": "uint256",
          "name": "id",
          "type": "uint256"
        }
      ],
      "name": "exchange",
      "outputs": [],
      "stateMutability": "nonpayable",
      "type": "function"
    },
    {
      "inputs": [
        {
          "internalType": "bytes4",
          "name": "interfaceId",
          "type": "bytes4"
        }
      ],
      "name": "supportsInterface",
      "outputs": [
        {
          "internalType": "bool",
          "name": "",
          "type": "bool"
        }
      ],
      "stateMutability": "view",
      "type": "function"
    }
  ],
  "bytecode": "0x60a06040523060805234801561001457600080fd5b50608051613bed6100456000396000818161089e015281816108de01528181610a900152610ad00152613bed6000f3fe6080604052600436106101b65760003560e01c80636b20c454116100ec578063e985e9c51161008a578063f62d188811610064578063f62d188814610562578063f70e9a4714610582578063f72c0d8b146105a2578063f98adcba146105d657600080fd5b8063e985e9c514610502578063f242432a14610522578063f5298aca1461054257600080fd5b8063a217fddf116100c6578063a217fddf14610479578063a22cb4651461048e578063d5391393146104ae578063d547741f146104e257600080fd5b80636b20c4541461040b57806390b7d8b11461042b57806391d148541461045957600080fd5b80632f2ff15d116101595780633659cfe6116101335780633659cfe61461038b5780634e1273f4146103ab5780634f1ef286146103d857806353556559146103eb57600080fd5b80632f2ff15d1461032957806330c7be2c1461034957806336568abe1461036b57600080fd5b80630d62f77f116101955780630d62f77f146102405780630e89341c146102ac578063248a9ca3146102d95780632eb2c2d61461030957600080fd5b8062fdd58e146101bb57806301ffc9a7146101ee57806302fe53051461021e575b600080fd5b3480156101c757600080fd5b506101db6101d6366004612c6e565b6105f6565b6040519081526020015b60405180910390f35b3480156101fa57600080fd5b5061020e610209366004612cb0565b610692565b60405190151581526020016101e5565b34801561022a57600080fd5b5061023e610239366004612d6c565b61069d565b005b34801561024c57600080fd5b5061028761025b366004612dbc565b610162602052600090815260409020805460018201546002909201546001600160a01b03909116919083565b604080516001600160a01b0390941684526020840192909252908201526060016101e5565b3480156102b857600080fd5b506102cc6102c7366004612dbc565b6106c3565b6040516101e59190612e2d565b3480156102e557600080fd5b506101db6102f4366004612dbc565b60009081526065602052604090206001015490565b34801561031557600080fd5b5061023e610324366004612ef4565b610757565b34801561033557600080fd5b5061023e610344366004612fa1565b6107ee565b34801561035557600080fd5b506101db600080516020613b9883398151915281565b34801561037757600080fd5b5061023e610386366004612fa1565b610819565b34801561039757600080fd5b5061023e6103a6366004612fd1565b610893565b3480156103b757600080fd5b506103cb6103c6366004612fee565b61095c565b6040516101e591906130f5565b61023e6103e6366004613108565b610a85565b3480156103f757600080fd5b5061023e610406366004612dbc565b610b3b565b34801561041757600080fd5b5061023e61042636600461314d565b610ca2565b34801561043757600080fd5b506101db610446366004612fd1565b6101616020526000908152604090205481565b34801561046557600080fd5b5061020e610474366004612fa1565b610ce5565b34801561048557600080fd5b506101db600081565b34801561049a57600080fd5b5061023e6104a93660046131d0565b610d10565b3480156104ba57600080fd5b506101db7f9f2df0fed2c77648de5860a4cc508cd0818c85b8b8a1ab4ceeef8d981c8956a681565b3480156104ee57600080fd5b5061023e6104fd366004612fa1565b610d1b565b34801561050e57600080fd5b5061020e61051d3660046131fe565b610d41565b34801561052e57600080fd5b5061023e61053d36600461322c565b610d54565b34801561054e57600080fd5b5061023e61055d366004613294565b610d99565b34801561056e57600080fd5b5061023e61057d366004612d6c565b610ddc565b34801561058e57600080fd5b5061023e61059d366004612fd1565b610e69565b3480156105ae57600080fd5b506101db7f189ab7a9244df0848122154315af71fe140f3db0fe014031783b0946b8c9d2e381565b3480156105e257600080fd5b5061023e6105f13660046132c9565b610ea1565b60006001600160a01b0383166106675760405162461bcd60e51b815260206004820152602b60248201527f455243313135353a2062616c616e636520717565727920666f7220746865207a60448201526a65726f206164647265737360a81b60648201526084015b60405180910390fd5b5060008181526097602090815260408083206001600160a01b03861684529091529020545b92915050565b600061068c826111ca565b600080516020613b988339815191526106b6813361120a565b6106bf8261126e565b5050565b6060609980546106d290613317565b80601f01602080910402602001604051908101604052809291908181526020018280546106fe90613317565b801561074b5780601f106107205761010080835404028352916020019161074b565b820191906000526020600020905b81548152906001019060200180831161072e57829003601f168201915b50505050509050919050565b6001600160a01b03851633148061077357506107738533610d41565b6107da5760405162461bcd60e51b815260206004820152603260248201527f455243313135353a207472616e736665722063616c6c6572206973206e6f74206044820152711bdddb995c881b9bdc88185c1c1c9bdd995960721b606482015260840161065e565b6107e78585858585611281565b5050505050565b60008281526065602052604090206001015461080a813361120a565b6108148383611481565b505050565b6001600160a01b03811633146108895760405162461bcd60e51b815260206004820152602f60248201527f416363657373436f6e74726f6c3a2063616e206f6e6c792072656e6f756e636560448201526e103937b632b9903337b91039b2b63360891b606482015260840161065e565b6106bf8282611507565b306001600160a01b037f00000000000000000000000000000000000000000000000000000000000000001614156108dc5760405162461bcd60e51b815260040161065e90613352565b7f00000000000000000000000000000000000000000000000000000000000000006001600160a01b031661090e61156e565b6001600160a01b0316146109345760405162461bcd60e51b815260040161065e9061339e565b61093d8161159c565b60408051600080825260208201909252610959918391906115c7565b50565b606081518351146109c15760405162461bcd60e51b815260206004820152602960248201527f455243313135353a206163636f756e747320616e6420696473206c656e677468604482015268040dad2e6dac2e8c6d60bb1b606482015260840161065e565b600083516001600160401b038111156109dc576109dc612ccd565b604051908082528060200260200182016040528015610a05578160200160208202803683370190505b50905060005b8451811015610a7d57610a50858281518110610a2957610a296133ea565b6020026020010151858381518110610a4357610a436133ea565b60200260200101516105f6565b828281518110610a6257610a626133ea565b6020908102919091010152610a7681613416565b9050610a0b565b509392505050565b306001600160a01b037f0000000000000000000000000000000000000000000000000000000000000000161415610ace5760405162461bcd60e51b815260040161065e90613352565b7f00000000000000000000000000000000000000000000000000000000000000006001600160a01b0316610b0061156e565b6001600160a01b031614610b265760405162461bcd60e51b815260040161065e9061339e565b610b2f8261159c565b6106bf828260016115c7565b33610b488183600161170b565b60008281526101626020908152604091829020825160608101845281546001600160a01b031680825260018301549382019390935260029091015492810192909252610bc95760405162461bcd60e51b815260206004820152601060248201526f199d5d1d5c99481b9bdd08199bdd5b9960821b604482015260640161065e565b42816020015110610c125760405162461bcd60e51b8152602060048201526013602482015272199d5d1d5c99481b9bdd081d5b9b1bd8dad959606a1b604482015260640161065e565b8051604080830151905163a9059cbb60e01b81526001600160a01b038581166004830152602482019290925291169063a9059cbb90604401602060405180830381600087803b158015610c6457600080fd5b505af1158015610c78573d6000803e3d6000fd5b505050506040513d601f19601f82011682018060405250810190610c9c9190613431565b50505050565b6001600160a01b038316331480610cbe5750610cbe8333610d41565b610cda5760405162461bcd60e51b815260040161065e9061344e565b610814838383611810565b60009182526065602090815260408084206001600160a01b0393909316845291905290205460ff1690565b6106bf3383836119a1565b600082815260656020526040902060010154610d37813361120a565b6108148383611507565b6000610d4d8383611a82565b9392505050565b6001600160a01b038516331480610d705750610d708533610d41565b610d8c5760405162461bcd60e51b815260040161065e9061344e565b6107e78585858585611afd565b6001600160a01b038316331480610db55750610db58333610d41565b610dd15760405162461bcd60e51b815260040161065e9061344e565b61081483838361170b565b600054610100900460ff1680610df5575060005460ff16155b610e115760405162461bcd60e51b815260040161065e90613497565b600054610100900460ff16158015610e33576000805461ffff19166101011790555b610e3c82611c70565b610e44611ce0565b610e4c611d63565b610e54611dc1565b80156106bf576000805461ff00191690555050565b600080516020613b98833981519152610e82813361120a565b60c980546001600160a01b0319166001600160a01b0384161790555050565b600033604051636eb1769f60e11b81526001600160a01b03808316600483015260006024830181905292935087169063dd62ed3e9060440160206040518083038186803b158015610ef157600080fd5b505afa158015610f05573d6000803e3d6000fd5b505050506040513d601f19601f82011682018060405250810190610f2991906134e5565b90506000610f3a8660ff8716611e42565b9050808211610fa85760405162461bcd60e51b815260206004820152603460248201527f54686520617070726f76656420616d6f756e74206973206c657373207468616e604482015273081d1a19481c995c5d5a5c995908185b5bdd5b9d60621b606482015260840161065e565b60008560ff1611610ffb5760405162461bcd60e51b815260206004820152601f60248201527f5175616e74697479206d7573742062652067726561746572207468616e203000604482015260640161065e565b6040516323b872dd60e01b81526001600160a01b038481166004830152306024830152604482018390528816906323b872dd90606401602060405180830381600087803b15801561104b57600080fd5b505af115801561105f573d6000803e3d6000fd5b505050506040513d601f19601f820116820180604052508101906110839190613431565b5060608060005b8760ff168160ff16101561117e5760006110a46101605490565b90506110b561016080546001019055565b60408051606081019091526001600160a01b038c168152602081016110da428b611e4e565b815260209081018c905260008381526101628252604090819020835181546001600160a01b0319166001600160a01b03909116178155918301516001830155919091015160029091015583518190859060ff851690811061113d5761113d6133ea565b6020026020010181815250506001838360ff1681518110611160576111606133ea565b60209081029190910101525080611176816134fe565b91505061108a565b506001600160a01b038916600090815261016160205260409020546111a39084611e4e565b506111bf85838360405180602001604052806000815250611e5a565b505050505050505050565b60006001600160e01b03198216636cdb3d1360e11b14806111fb57506001600160e01b031982166303a24d0760e21b145b8061068c575061068c82611fef565b6112148282610ce5565b6106bf5761122c816001600160a01b03166014612024565b611237836020612024565b60405160200161124892919061351e565b60408051601f198184030181529082905262461bcd60e51b825261065e91600401612e2d565b80516106bf906099906020840190612bc0565b81518351146112a25760405162461bcd60e51b815260040161065e90613593565b6001600160a01b0384166112c85760405162461bcd60e51b815260040161065e906135db565b336112d78187878787876121bf565b60005b84518110156114135760008582815181106112f7576112f76133ea565b602002602001015190506000858381518110611315576113156133ea565b60209081029190910181015160008481526097835260408082206001600160a01b038e168352909352919091205490915081811015611353826123c8565b61135c846123c8565b6113658d6124f0565b61136e8d6124f0565b611377306124f0565b60405160200161138b959493929190613620565b604051602081830303815290604052906113b85760405162461bcd60e51b815260040161065e9190612e2d565b5060008381526097602090815260408083206001600160a01b038e8116855292528083208585039055908b168252812080548492906113f89084906136f1565b925050819055505050508061140c90613416565b90506112da565b50846001600160a01b0316866001600160a01b0316826001600160a01b03167f4a39dc06d4c0dbc64b70af90fd698a233a518aa5d07e595d983b8c0526c8f7fb8787604051611463929190613709565b60405180910390a4611479818787878787612637565b505050505050565b61148b8282610ce5565b6106bf5760008281526065602090815260408083206001600160a01b03851684529091529020805460ff191660011790556114c33390565b6001600160a01b0316816001600160a01b0316837f2f8788117e7eff1d82e926ec794901d17c78024a50270940304540a733656f0d60405160405180910390a45050565b6115118282610ce5565b156106bf5760008281526065602090815260408083206001600160a01b0385168085529252808320805460ff1916905551339285917ff6391f5c32d9c69d2a47ea670b442974b53935d1edc7fd64eb21e047a839171b9190a45050565b7f360894a13ba1a3210667c828492db98dca3e2076cc3735a920a3ca505d382bbc546001600160a01b031690565b7f189ab7a9244df0848122154315af71fe140f3db0fe014031783b0946b8c9d2e36106bf813361120a565b60006115d161156e565b90506115dc846127a2565b6000835111806115e95750815b156115fa576115f88484612847565b505b7f4910fdfa16fed3260ed0e7147f7cc6da11a60208b5b9406d12a635614ffd9143805460ff166107e757805460ff191660011781556040516001600160a01b038316602482015261167990869060440160408051601f198184030181529190526020810180516001600160e01b0316631b2ce7f360e11b179052612847565b50805460ff1916815561168a61156e565b6001600160a01b0316826001600160a01b0316146117025760405162461bcd60e51b815260206004820152602f60248201527f45524331393637557067726164653a207570677261646520627265616b73206660448201526e75727468657220757067726164657360881b606482015260840161065e565b6107e785612932565b6001600160a01b0383166117315760405162461bcd60e51b815260040161065e9061372e565b336117608185600061174287612972565b61174b87612972565b604051806020016040528060008152506121bf565b60008381526097602090815260408083206001600160a01b0388168452909152902054828110156117a35760405162461bcd60e51b815260040161065e90613771565b60008481526097602090815260408083206001600160a01b03898116808652918452828520888703905582518981529384018890529092908616917fc3d58168c5ae7397731d063d5bbf3d657854427343f4c083240f7aacaa2d0f62910160405180910390a45050505050565b6001600160a01b0383166118365760405162461bcd60e51b815260040161065e9061372e565b80518251146118575760405162461bcd60e51b815260040161065e90613593565b600033905061187a818560008686604051806020016040528060008152506121bf565b60005b835181101561194257600084828151811061189a5761189a6133ea565b6020026020010151905060008483815181106118b8576118b86133ea565b60209081029190910181015160008481526097835260408082206001600160a01b038c1683529093529190912054909150818110156119095760405162461bcd60e51b815260040161065e90613771565b60009283526097602090815260408085206001600160a01b038b168652909152909220910390558061193a81613416565b91505061187d565b5060006001600160a01b0316846001600160a01b0316826001600160a01b03167f4a39dc06d4c0dbc64b70af90fd698a233a518aa5d07e595d983b8c0526c8f7fb8686604051611993929190613709565b60405180910390a450505050565b816001600160a01b0316836001600160a01b03161415611a155760405162461bcd60e51b815260206004820152602960248201527f455243313135353a2073657474696e6720617070726f76616c20737461747573604482015268103337b91039b2b63360b91b606482015260840161065e565b6001600160a01b03838116600081815260986020908152604080832094871680845294825291829020805460ff191686151590811790915591519182527f17307eab39ab6107e8899845ad3d59bd9653f200f220920489ca2b5937696c31910160405180910390a3505050565b60006001600160a01b03821673207fa8df3a17d96ca7ea4f2893fcdcb78a3041011415611ab15750600161068c565b60c9546001600160a01b0383811691161415611acf5750600161068c565b6001600160a01b0380841660009081526098602090815260408083209386168352929052205460ff16610d4d565b6001600160a01b038416611b235760405162461bcd60e51b815260040161065e906135db565b33611b42818787611b3388612972565b611b3c88612972565b876121bf565b60008481526097602090815260408083206001600160a01b038a16845290915290205483811015611bc85760405162461bcd60e51b815260206004820152602a60248201527f455243313135353a20696e73756666696369656e742062616c616e636520666f60448201526939103a3930b739b332b960b11b606482015260840161065e565b60008581526097602090815260408083206001600160a01b038b8116855292528083208785039055908816825281208054869290611c079084906136f1565b909155505060408051868152602081018690526001600160a01b03808916928a821692918616917fc3d58168c5ae7397731d063d5bbf3d657854427343f4c083240f7aacaa2d0f62910160405180910390a4611c678288888888886129bd565b50505050505050565b600054610100900460ff1680611c89575060005460ff16155b611ca55760405162461bcd60e51b815260040161065e90613497565b600054610100900460ff16158015611cc7576000805461ffff19166101011790555b611ccf612a87565b611cd7612a87565b610e5482612af1565b600054610100900460ff1680611cf9575060005460ff16155b611d155760405162461bcd60e51b815260040161065e90613497565b600054610100900460ff16158015611d37576000805461ffff19166101011790555b611d3f612a87565b611d47612a87565b611d4f612a87565b8015610959576000805461ff001916905550565b600054610100900460ff1680611d7c575060005460ff16155b611d985760405162461bcd60e51b815260040161065e90613497565b600054610100900460ff16158015611d3f576000805461ffff1916610101179055611d47612a87565b611dc9611ce0565b611dd4600033611481565b611dec600080516020613b9883398151915233611481565b611e167f9f2df0fed2c77648de5860a4cc508cd0818c85b8b8a1ab4ceeef8d981c8956a633611481565b611e407f189ab7a9244df0848122154315af71fe140f3db0fe014031783b0946b8c9d2e333611481565b565b6000610d4d82846137b5565b6000610d4d82846136f1565b6001600160a01b038416611eba5760405162461bcd60e51b815260206004820152602160248201527f455243313135353a206d696e7420746f20746865207a65726f206164647265736044820152607360f81b606482015260840161065e565b8151835114611edb5760405162461bcd60e51b815260040161065e90613593565b33611eeb816000878787876121bf565b60005b8451811015611f8757838181518110611f0957611f096133ea565b602002602001015160976000878481518110611f2757611f276133ea565b602002602001015181526020019081526020016000206000886001600160a01b03166001600160a01b031681526020019081526020016000206000828254611f6f91906136f1565b90915550819050611f7f81613416565b915050611eee565b50846001600160a01b031660006001600160a01b0316826001600160a01b03167f4a39dc06d4c0dbc64b70af90fd698a233a518aa5d07e595d983b8c0526c8f7fb8787604051611fd8929190613709565b60405180910390a46107e781600087878787612637565b60006001600160e01b03198216637965db0b60e01b148061068c57506301ffc9a760e01b6001600160e01b031983161461068c565b606060006120338360026137b5565b61203e9060026136f1565b6001600160401b0381111561205557612055612ccd565b6040519080825280601f01601f19166020018201604052801561207f576020820181803683370190505b509050600360fc1b8160008151811061209a5761209a6133ea565b60200101906001600160f81b031916908160001a905350600f60fb1b816001815181106120c9576120c96133ea565b60200101906001600160f81b031916908160001a90535060006120ed8460026137b5565b6120f89060016136f1565b90505b6001811115612170576f181899199a1a9b1b9c1cb0b131b232b360811b85600f166010811061212c5761212c6133ea565b1a60f81b828281518110612142576121426133ea565b60200101906001600160f81b031916908160001a90535060049490941c93612169816137d4565b90506120fb565b508315610d4d5760405162461bcd60e51b815260206004820181905260248201527f537472696e67733a20686578206c656e67746820696e73756666696369656e74604482015260640161065e565b60005b825181101561226c578281815181106121dd576121dd6133ea565b602002602001015160011461225a5760405162461bcd60e51b815260206004820152603e60248201527f45616368206675747572657320697320756e697175652c20536f20746865726560448201527f206973206e6f207472616e736665722067726561746572207468616e20310000606482015260840161065e565b8061226481613416565b9150506121c2565b5060005b83518110156123c257600084828151811061228d5761228d6133ea565b60209081029190910181015160008181526101628352604090819020815160608101835281546001600160a01b039081168252600183015495820195909552600290910154918101919091529092509087166123455760008281526101626020908152604080832080546001600160a01b0319168155600181018490556002018390558381015184516001600160a01b03168452610161909252822080549192909161233a9084906137eb565b909155506123af9050565b428160200151116123af5760405162461bcd60e51b815260206004820152602e60248201527f5472616e736665727320617265206e6f7420616c6c6f77656420666f7220756e60448201526d6c6f636b6564206675747572657360901b606482015260840161065e565b5050806123bb90613416565b9050612270565b50611479565b6060816123ec5750506040805180820190915260018152600360fc1b602082015290565b8160005b8115612416578061240081613416565b915061240f9050600a83613818565b91506123f0565b6000816001600160401b0381111561243057612430612ccd565b6040519080825280601f01601f19166020018201604052801561245a576020820181803683370190505b509050815b85156124e7576124706001826137eb565b9050600061247f600a88613818565b61248a90600a6137b5565b61249490886137eb565b61249f90603061382c565b905060008160f81b9050808484815181106124bc576124bc6133ea565b60200101906001600160f81b031916908160001a9053506124de600a89613818565b9750505061245f565b50949350505050565b60408051602880825260608281019093526000919060208201818036833701905050905060005b601481101561263057600061252d8260136137eb565b6125389060086137b5565b612543906002613935565b612556906001600160a01b038716613818565b60f81b9050600060108260f81c61256d9190613941565b60f81b905060008160f81c60106125849190613963565b8360f81c6125929190613984565b60f81b90506125a082612b51565b856125ac8660026137b5565b815181106125bc576125bc6133ea565b60200101906001600160f81b031916908160001a9053506125dc81612b51565b856125e88660026137b5565b6125f39060016136f1565b81518110612603576126036133ea565b60200101906001600160f81b031916908160001a905350505050808061262890613416565b915050612517565b5092915050565b6001600160a01b0384163b156114795760405163bc197c8160e01b81526001600160a01b0385169063bc197c819061267b90899089908890889088906004016139a7565b602060405180830381600087803b15801561269557600080fd5b505af19250505080156126c5575060408051601f3d908101601f191682019092526126c291810190613a05565b60015b612772576126d1613a22565b806308c379a0141561270b57506126e6613a3e565b806126f1575061270d565b8060405162461bcd60e51b815260040161065e9190612e2d565b505b60405162461bcd60e51b815260206004820152603460248201527f455243313135353a207472616e7366657220746f206e6f6e20455243313135356044820152732932b1b2b4bb32b91034b6b83632b6b2b73a32b960611b606482015260840161065e565b6001600160e01b0319811663bc197c8160e01b14611c675760405162461bcd60e51b815260040161065e90613ac7565b803b6128065760405162461bcd60e51b815260206004820152602d60248201527f455243313936373a206e657720696d706c656d656e746174696f6e206973206e60448201526c1bdd08184818dbdb9d1c9858dd609a1b606482015260840161065e565b7f360894a13ba1a3210667c828492db98dca3e2076cc3735a920a3ca505d382bbc80546001600160a01b0319166001600160a01b0392909216919091179055565b6060823b6128a65760405162461bcd60e51b815260206004820152602660248201527f416464726573733a2064656c65676174652063616c6c20746f206e6f6e2d636f6044820152651b9d1c9858dd60d21b606482015260840161065e565b600080846001600160a01b0316846040516128c19190613b0f565b600060405180830381855af49150503d80600081146128fc576040519150601f19603f3d011682016040523d82523d6000602084013e612901565b606091505b50915091506129298282604051806060016040528060278152602001613b7160279139612b87565b95945050505050565b61293b816127a2565b6040516001600160a01b038216907fbc7cd75a20ee27fd9adebab32041f755214dbc6bffa90cc0225b39da2e5c2d3b90600090a250565b604080516001808252818301909252606091600091906020808301908036833701905050905082816000815181106129ac576129ac6133ea565b602090810291909101015292915050565b6001600160a01b0384163b156114795760405163f23a6e6160e01b81526001600160a01b0385169063f23a6e6190612a019089908990889088908890600401613b2b565b602060405180830381600087803b158015612a1b57600080fd5b505af1925050508015612a4b575060408051601f3d908101601f19168201909252612a4891810190613a05565b60015b612a57576126d1613a22565b6001600160e01b0319811663f23a6e6160e01b14611c675760405162461bcd60e51b815260040161065e90613ac7565b600054610100900460ff1680612aa0575060005460ff16155b612abc5760405162461bcd60e51b815260040161065e90613497565b600054610100900460ff16158015611d4f576000805461ffff19166101011790558015610959576000805461ff001916905550565b600054610100900460ff1680612b0a575060005460ff16155b612b265760405162461bcd60e51b815260040161065e90613497565b600054610100900460ff16158015612b48576000805461ffff19166101011790555b610e548261126e565b6000600a60f883901c1015612b7857612b6f60f883901c603061382c565b60f81b92915050565b612b6f60f883901c605761382c565b60608315612b96575081610d4d565b825115612ba65782518084602001fd5b8160405162461bcd60e51b815260040161065e9190612e2d565b828054612bcc90613317565b90600052602060002090601f016020900481019282612bee5760008555612c34565b82601f10612c0757805160ff1916838001178555612c34565b82800160010185558215612c34579182015b82811115612c34578251825591602001919060010190612c19565b50612c40929150612c44565b5090565b5b80821115612c405760008155600101612c45565b6001600160a01b038116811461095957600080fd5b60008060408385031215612c8157600080fd5b8235612c8c81612c59565b946020939093013593505050565b6001600160e01b03198116811461095957600080fd5b600060208284031215612cc257600080fd5b8135610d4d81612c9a565b634e487b7160e01b600052604160045260246000fd5b601f8201601f191681016001600160401b0381118282101715612d0857612d08612ccd565b6040525050565b60006001600160401b03831115612d2857612d28612ccd565b604051612d3f601f8501601f191660200182612ce3565b809150838152848484011115612d5457600080fd5b83836020830137600060208583010152509392505050565b600060208284031215612d7e57600080fd5b81356001600160401b03811115612d9457600080fd5b8201601f81018413612da557600080fd5b612db484823560208401612d0f565b949350505050565b600060208284031215612dce57600080fd5b5035919050565b60005b83811015612df0578181015183820152602001612dd8565b83811115610c9c5750506000910152565b60008151808452612e19816020860160208601612dd5565b601f01601f19169290920160200192915050565b602081526000610d4d6020830184612e01565b60006001600160401b03821115612e5957612e59612ccd565b5060051b60200190565b600082601f830112612e7457600080fd5b81356020612e8182612e40565b604051612e8e8282612ce3565b83815260059390931b8501820192828101915086841115612eae57600080fd5b8286015b84811015612ec95780358352918301918301612eb2565b509695505050505050565b600082601f830112612ee557600080fd5b610d4d83833560208501612d0f565b600080600080600060a08688031215612f0c57600080fd5b8535612f1781612c59565b94506020860135612f2781612c59565b935060408601356001600160401b0380821115612f4357600080fd5b612f4f89838a01612e63565b94506060880135915080821115612f6557600080fd5b612f7189838a01612e63565b93506080880135915080821115612f8757600080fd5b50612f9488828901612ed4565b9150509295509295909350565b60008060408385031215612fb457600080fd5b823591506020830135612fc681612c59565b809150509250929050565b600060208284031215612fe357600080fd5b8135610d4d81612c59565b6000806040838503121561300157600080fd5b82356001600160401b038082111561301857600080fd5b818501915085601f83011261302c57600080fd5b8135602061303982612e40565b6040516130468282612ce3565b83815260059390931b850182019282810191508984111561306657600080fd5b948201945b8386101561308d57853561307e81612c59565b8252948201949082019061306b565b965050860135925050808211156130a357600080fd5b506130b085828601612e63565b9150509250929050565b600081518084526020808501945080840160005b838110156130ea578151875295820195908201906001016130ce565b509495945050505050565b602081526000610d4d60208301846130ba565b6000806040838503121561311b57600080fd5b823561312681612c59565b915060208301356001600160401b0381111561314157600080fd5b6130b085828601612ed4565b60008060006060848603121561316257600080fd5b833561316d81612c59565b925060208401356001600160401b038082111561318957600080fd5b61319587838801612e63565b935060408601359150808211156131ab57600080fd5b506131b886828701612e63565b9150509250925092565b801515811461095957600080fd5b600080604083850312156131e357600080fd5b82356131ee81612c59565b91506020830135612fc6816131c2565b6000806040838503121561321157600080fd5b823561321c81612c59565b91506020830135612fc681612c59565b600080600080600060a0868803121561324457600080fd5b853561324f81612c59565b9450602086013561325f81612c59565b9350604086013592506060860135915060808601356001600160401b0381111561328857600080fd5b612f9488828901612ed4565b6000806000606084860312156132a957600080fd5b83356132b481612c59565b95602085013595506040909401359392505050565b600080600080608085870312156132df57600080fd5b84356132ea81612c59565b935060208501359250604085013560ff8116811461330757600080fd5b9396929550929360600135925050565b600181811c9082168061332b57607f821691505b6020821081141561334c57634e487b7160e01b600052602260045260246000fd5b50919050565b6020808252602c908201527f46756e6374696f6e206d7573742062652063616c6c6564207468726f7567682060408201526b19195b1959d85d1958d85b1b60a21b606082015260800190565b6020808252602c908201527f46756e6374696f6e206d7573742062652063616c6c6564207468726f7567682060408201526b6163746976652070726f787960a01b606082015260800190565b634e487b7160e01b600052603260045260246000fd5b634e487b7160e01b600052601160045260246000fd5b600060001982141561342a5761342a613400565b5060010190565b60006020828403121561344357600080fd5b8151610d4d816131c2565b60208082526029908201527f455243313135353a2063616c6c6572206973206e6f74206f776e6572206e6f7260408201526808185c1c1c9bdd995960ba1b606082015260800190565b6020808252602e908201527f496e697469616c697a61626c653a20636f6e747261637420697320616c72656160408201526d191e481a5b9a5d1a585b1a5e995960921b606082015260800190565b6000602082840312156134f757600080fd5b5051919050565b600060ff821660ff81141561351557613515613400565b60010192915050565b7f416363657373436f6e74726f6c3a206163636f756e7420000000000000000000815260008351613556816017850160208801612dd5565b7001034b99036b4b9b9b4b733903937b6329607d1b6017918401918201528351613587816028840160208801612dd5565b01602801949350505050565b60208082526028908201527f455243313135353a2069647320616e6420616d6f756e7473206c656e677468206040820152670dad2e6dac2e8c6d60c31b606082015260800190565b60208082526025908201527f455243313135353a207472616e7366657220746f20746865207a65726f206164604082015264647265737360d81b606082015260800190565b7f455243313135353a20696e73756666696369656e742062616c616e636520666f8152600060206b0e440e8e4c2dce6cccae440560a31b81840152875161366d81602c8601848c01612dd5565b8084019050601d60f91b80602c830152885161368f81602d8501868d01612dd5565b602d920191820181905287516136ab81602e8501868c01612dd5565b602e920191820181905286516136c781602f8501868b01612dd5565b602f92019182015284516136e18160308401858901612dd5565b0160300198975050505050505050565b6000821982111561370457613704613400565b500190565b60408152600061371c60408301856130ba565b828103602084015261292981856130ba565b60208082526023908201527f455243313135353a206275726e2066726f6d20746865207a65726f206164647260408201526265737360e81b606082015260800190565b60208082526024908201527f455243313135353a206275726e20616d6f756e7420657863656564732062616c604082015263616e636560e01b606082015260800190565b60008160001904831182151516156137cf576137cf613400565b500290565b6000816137e3576137e3613400565b506000190190565b6000828210156137fd576137fd613400565b500390565b634e487b7160e01b600052601260045260246000fd5b60008261382757613827613802565b500490565b600060ff821660ff84168060ff0382111561384957613849613400565b019392505050565b600181815b8085111561388c57816000190482111561387257613872613400565b8085161561387f57918102915b93841c9390800290613856565b509250929050565b6000826138a35750600161068c565b816138b05750600061068c565b81600181146138c657600281146138d0576138ec565b600191505061068c565b60ff8411156138e1576138e1613400565b50506001821b61068c565b5060208310610133831016604e8410600b841016171561390f575081810a61068c565b6139198383613851565b806000190482111561392d5761392d613400565b029392505050565b6000610d4d8383613894565b600060ff83168061395457613954613802565b8060ff84160491505092915050565b600060ff821660ff84168160ff048111821515161561392d5761392d613400565b600060ff821660ff84168082101561399e5761399e613400565b90039392505050565b6001600160a01b0386811682528516602082015260a0604082018190526000906139d3908301866130ba565b82810360608401526139e581866130ba565b905082810360808401526139f98185612e01565b98975050505050505050565b600060208284031215613a1757600080fd5b8151610d4d81612c9a565b600060033d1115613a3b5760046000803e5060005160e01c5b90565b600060443d1015613a4c5790565b6040516003193d81016004833e81513d6001600160401b038160248401118184111715613a7b57505050505090565b8285019150815181811115613a935750505050505090565b843d8701016020828501011115613aad5750505050505090565b613abc60208286010187612ce3565b509095945050505050565b60208082526028908201527f455243313135353a204552433131353552656365697665722072656a656374656040820152676420746f6b656e7360c01b606082015260800190565b60008251613b21818460208701612dd5565b9190910192915050565b6001600160a01b03868116825285166020820152604081018490526060810183905260a060808201819052600090613b6590830184612e01565b97965050505050505056fe416464726573733a206c6f772d6c6576656c2064656c65676174652063616c6c206661696c6564f5eb84615c2a00ecaf817d13794ebd6299c9e01c395bf4018453f13f577f5449a26469706673582212208d9884f98fc33e30d8dfb9b76d12e3207cc0424e885349fb2f2721632f82ed8764736f6c63430008090033",
  "immutableReferences": {
    "1023": [
      {
        "length": 32,
        "start": 2206
      },
      {
        "length": 32,
        "start": 2270
      },
      {
        "length": 32,
        "start": 2704
      },
      {
        "length": 32,
        "start": 2768
      }
    ]
  },
  "source": "// SPDX-License-Identifier: MIT\npragma solidity 0.8.9;\n\nimport \"@openzeppelin/contracts-upgradeable/token/ERC1155/ERC1155Upgradeable.sol\";\nimport \"@openzeppelin/contracts-upgradeable/token/ERC20/IERC20Upgradeable.sol\";\nimport \"@openzeppelin/contracts-upgradeable/access/AccessControlUpgradeable.sol\";\nimport \"@openzeppelin/contracts-upgradeable/token/ERC1155/extensions/ERC1155BurnableUpgradeable.sol\";\nimport \"@openzeppelin/contracts-upgradeable/proxy/utils/Initializable.sol\";\nimport \"@openzeppelin/contracts-upgradeable/proxy/utils/UUPSUpgradeable.sol\";\nimport \"@openzeppelin/contracts-upgradeable/utils/math/SafeMathUpgradeable.sol\";\nimport \"@openzeppelin/contracts-upgradeable/utils/CountersUpgradeable.sol\";\nimport \"./MelandTierAddressStore.sol\";\nimport \"./MelandAccessRoles.sol\";\nimport \"./MelandTier.sol\";\n\n// Support arbitrary erc20 token packaging\n// MELD Futures\n\ncontract Meland1155MELDFutures is\n    Initializable,\n    ERC1155Upgradeable,\n    MelandAccessRoles,\n    MelandTierAddressStore,\n    ERC1155BurnableUpgradeable,\n    UUPSUpgradeable\n{\n    using SafeMathUpgradeable for uint256;\n    using CountersUpgradeable for CountersUpgradeable.Counter;\n\n    CountersUpgradeable.Counter private _tokenIdCounter;\n\n    struct ERC20Future {\n        IERC20Upgradeable token;\n        uint256 unlockAt;\n        uint256 amount;\n    }\n\n    // Records the current number of tokens left for each type of token\n    mapping(IERC20Upgradeable => uint256) public totalSupplyByERC20;\n    mapping(uint256 => ERC20Future) public futureById;\n\n    function initialize(string memory uri) public initializer {\n        __ERC1155_init(uri);\n        __ERC1155Burnable_init();\n        __UUPSUpgradeable_init();\n        __MelandAccessRoles_init();\n    }\n\n    function isApprovedForAll(address _owner, address _operator)\n        public\n        view\n        override(ERC1155Upgradeable, MelandTierAddressStore)\n        returns (bool isOperator)\n    {\n        return super.isApprovedForAll(_owner, _operator);\n    }\n\n    function setURI(string memory newuri) public onlyRole(GM_ROLE) {\n        _setURI(newuri);\n    }\n\n    // Anyone can mint futures as long as they have money.\n    function mintBatch(\n        IERC20Upgradeable token,\n        uint256 amount,\n        uint8 count,\n        uint256 lockseconds\n    ) public {\n        address sender = _msgSender();\n\n        uint256 allowanceAmount = token.allowance(sender, address(0));\n\n        uint256 totalAmount = amount.mul(count);\n        require(\n            allowanceAmount > totalAmount,\n            \"The approved amount is less than the required amount\"\n        );\n        require(count > 0, \"Quantity must be greater than 0\");\n\n        token.transferFrom(sender, address(this), totalAmount);\n\n        uint256[] memory ids;\n        uint256[] memory amounts;\n\n        for (uint8 i = 0; i < count; i++) {\n            uint256 tokenId = _tokenIdCounter.current();\n            _tokenIdCounter.increment();\n\n            futureById[tokenId] = ERC20Future(\n                token,\n                block.timestamp.add(lockseconds),\n                amount\n            );\n\n            ids[i] = tokenId;\n            amounts[i] = 1;\n        }\n\n        totalSupplyByERC20[token].add(totalAmount);\n        _mintBatch(sender, ids, amounts, \"\");\n    }\n\n    function setMelandTier(MelandTier _tierAddress) public onlyRole(GM_ROLE) {\n        _setMelandTier(_tierAddress);\n    }\n\n    // Converting futures into corresponding token\n    function exchange(uint256 id) public {\n        address sender = _msgSender();\n        _burn(sender, id, 1);\n        ERC20Future memory future = futureById[id];\n        require(address(future.token) != address(0), \"future not found\");\n        require(future.unlockAt < block.timestamp, \"future not unlocked\");\n        future.token.transfer(sender, future.amount);\n    }\n\n    function totalSupply(uint256 id) internal view returns (uint256) {\n        ERC20Future memory future = futureById[id];\n        if (address(future.token) == address(0)) {\n            return 0;\n        }\n        return totalSupplyByERC20[future.token];\n    }\n\n    function _authorizeUpgrade(address newImplementation)\n        internal\n        override\n        onlyRole(UPGRADER_ROLE)\n    {}\n\n    // The following functions are overrides required by Solidity.\n\n    function supportsInterface(bytes4 interfaceId)\n        public\n        view\n        override(ERC1155Upgradeable, AccessControlUpgradeable)\n        returns (bool)\n    {\n        return super.supportsInterface(interfaceId);\n    }\n\n    // The following functions are overrides required by Solidity.\n    function _beforeTokenTransfer(\n        address operator,\n        address from,\n        address to,\n        uint256[] memory ids,\n        uint256[] memory amounts,\n        bytes memory landtype\n    ) internal override(ERC1155Upgradeable) {\n        for (uint256 i = 0; i < amounts.length; i++) {\n            require(\n                amounts[i] == 1,\n                \"Each futures is unique, So there is no transfer greater than 1\"\n            );\n        }\n\n        for (uint256 i = 0; i < ids.length; ++i) {\n            uint256 id = ids[i];\n            ERC20Future memory future = futureById[id];\n\n            // sub totalSupply when burn token\n            if (to == address(0)) {\n                // clear when burn\n                delete futureById[id];\n                totalSupplyByERC20[future.token] -= future.amount;\n            } else {\n                require(future.unlockAt > block.timestamp, \"Transfers are not allowed for unlocked futures\");\n            }\n        }\n\n        super._beforeTokenTransfer(operator, from, to, ids, amounts, landtype);\n    }\n}\n",
  "sourcePath": "/Users/alberthuang/code/icw/meland/contracts/Meland1155MELDFutures.sol",
  "compiler": {
    "name": "solc",
    "version": "0.8.9+commit.e5eed63a.Emscripten.clang"
  },
  "schemaVersion": "3.4.3",
  "updatedAt": "2021-12-25T00:35:31.836Z",
  "devdoc": {
    "kind": "dev",
    "methods": {
      "balanceOf(address,uint256)": {
        "details": "See {IERC1155-balanceOf}. Requirements: - `account` cannot be the zero address."
      },
      "balanceOfBatch(address[],uint256[])": {
        "details": "See {IERC1155-balanceOfBatch}. Requirements: - `accounts` and `ids` must have the same length."
      },
      "getRoleAdmin(bytes32)": {
        "details": "Returns the admin role that controls `role`. See {grantRole} and {revokeRole}. To change a role's admin, use {_setRoleAdmin}."
      },
      "grantRole(bytes32,address)": {
        "details": "Grants `role` to `account`. If `account` had not been already granted `role`, emits a {RoleGranted} event. Requirements: - the caller must have ``role``'s admin role."
      },
      "hasRole(bytes32,address)": {
        "details": "Returns `true` if `account` has been granted `role`."
      },
      "renounceRole(bytes32,address)": {
        "details": "Revokes `role` from the calling account. Roles are often managed via {grantRole} and {revokeRole}: this function's purpose is to provide a mechanism for accounts to lose their privileges if they are compromised (such as when a trusted device is misplaced). If the calling account had been revoked `role`, emits a {RoleRevoked} event. Requirements: - the caller must be `account`."
      },
      "revokeRole(bytes32,address)": {
        "details": "Revokes `role` from `account`. If `account` had been granted `role`, emits a {RoleRevoked} event. Requirements: - the caller must have ``role``'s admin role."
      },
      "safeBatchTransferFrom(address,address,uint256[],uint256[],bytes)": {
        "details": "See {IERC1155-safeBatchTransferFrom}."
      },
      "safeTransferFrom(address,address,uint256,uint256,bytes)": {
        "details": "See {IERC1155-safeTransferFrom}."
      },
      "setApprovalForAll(address,bool)": {
        "details": "See {IERC1155-setApprovalForAll}."
      },
      "upgradeTo(address)": {
        "details": "Upgrade the implementation of the proxy to `newImplementation`. Calls {_authorizeUpgrade}. Emits an {Upgraded} event."
      },
      "upgradeToAndCall(address,bytes)": {
        "details": "Upgrade the implementation of the proxy to `newImplementation`, and subsequently execute the function call encoded in `data`. Calls {_authorizeUpgrade}. Emits an {Upgraded} event."
      },
      "uri(uint256)": {
        "details": "See {IERC1155MetadataURI-uri}. This implementation returns the same URI for *all* token types. It relies on the token type ID substitution mechanism https://eips.ethereum.org/EIPS/eip-1155#metadata[defined in the EIP]. Clients calling this function must replace the `\\{id\\}` substring with the actual token type ID."
      }
    },
    "version": 1
  },
  "userdoc": {
    "kind": "user",
    "methods": {},
    "version": 1
  }
}