{
  "contractName": "Meland1155Placeable",
  "abi": [
    {
      "anonymous": false,
      "inputs": [
        {
          "indexed": false,
          "internalType": "address",
          "name": "previousAdmin",
          "type": "address"
        },
        {
          "indexed": false,
          "internalType": "address",
          "name": "newAdmin",
          "type": "address"
        }
      ],
      "name": "AdminChanged",
      "type": "event"
    },
    {
      "anonymous": false,
      "inputs": [
        {
          "indexed": true,
          "internalType": "address",
          "name": "account",
          "type": "address"
        },
        {
          "indexed": true,
          "internalType": "address",
          "name": "operator",
          "type": "address"
        },
        {
          "indexed": false,
          "internalType": "bool",
          "name": "approved",
          "type": "bool"
        }
      ],
      "name": "ApprovalForAll",
      "type": "event"
    },
    {
      "anonymous": false,
      "inputs": [
        {
          "indexed": true,
          "internalType": "address",
          "name": "beacon",
          "type": "address"
        }
      ],
      "name": "BeaconUpgraded",
      "type": "event"
    },
    {
      "anonymous": false,
      "inputs": [
        {
          "indexed": false,
          "internalType": "bool",
          "name": "_freezeEnabled",
          "type": "bool"
        }
      ],
      "name": "FreezeEnabledUpdate",
      "type": "event"
    },
    {
      "anonymous": false,
      "inputs": [
        {
          "indexed": true,
          "internalType": "bytes",
          "name": "rarity",
          "type": "bytes"
        },
        {
          "indexed": false,
          "internalType": "uint256",
          "name": "mintMax",
          "type": "uint256"
        }
      ],
      "name": "RarityUpdate",
      "type": "event"
    },
    {
      "anonymous": false,
      "inputs": [
        {
          "indexed": true,
          "internalType": "bytes32",
          "name": "role",
          "type": "bytes32"
        },
        {
          "indexed": true,
          "internalType": "bytes32",
          "name": "previousAdminRole",
          "type": "bytes32"
        },
        {
          "indexed": true,
          "internalType": "bytes32",
          "name": "newAdminRole",
          "type": "bytes32"
        }
      ],
      "name": "RoleAdminChanged",
      "type": "event"
    },
    {
      "anonymous": false,
      "inputs": [
        {
          "indexed": true,
          "internalType": "bytes32",
          "name": "role",
          "type": "bytes32"
        },
        {
          "indexed": true,
          "internalType": "address",
          "name": "account",
          "type": "address"
        },
        {
          "indexed": true,
          "internalType": "address",
          "name": "sender",
          "type": "address"
        }
      ],
      "name": "RoleGranted",
      "type": "event"
    },
    {
      "anonymous": false,
      "inputs": [
        {
          "indexed": true,
          "internalType": "bytes32",
          "name": "role",
          "type": "bytes32"
        },
        {
          "indexed": true,
          "internalType": "address",
          "name": "account",
          "type": "address"
        },
        {
          "indexed": true,
          "internalType": "address",
          "name": "sender",
          "type": "address"
        }
      ],
      "name": "RoleRevoked",
      "type": "event"
    },
    {
      "anonymous": false,
      "inputs": [
        {
          "indexed": true,
          "internalType": "address",
          "name": "operator",
          "type": "address"
        },
        {
          "indexed": true,
          "internalType": "address",
          "name": "from",
          "type": "address"
        },
        {
          "indexed": true,
          "internalType": "address",
          "name": "to",
          "type": "address"
        },
        {
          "indexed": false,
          "internalType": "uint256[]",
          "name": "ids",
          "type": "uint256[]"
        },
        {
          "indexed": false,
          "internalType": "uint256[]",
          "name": "values",
          "type": "uint256[]"
        }
      ],
      "name": "TransferBatch",
      "type": "event"
    },
    {
      "anonymous": false,
      "inputs": [
        {
          "indexed": true,
          "internalType": "address",
          "name": "operator",
          "type": "address"
        },
        {
          "indexed": true,
          "internalType": "address",
          "name": "from",
          "type": "address"
        },
        {
          "indexed": true,
          "internalType": "address",
          "name": "to",
          "type": "address"
        },
        {
          "indexed": false,
          "internalType": "uint256",
          "name": "id",
          "type": "uint256"
        },
        {
          "indexed": false,
          "internalType": "uint256",
          "name": "value",
          "type": "uint256"
        }
      ],
      "name": "TransferSingle",
      "type": "event"
    },
    {
      "anonymous": false,
      "inputs": [
        {
          "indexed": false,
          "internalType": "string",
          "name": "value",
          "type": "string"
        },
        {
          "indexed": true,
          "internalType": "uint256",
          "name": "id",
          "type": "uint256"
        }
      ],
      "name": "URI",
      "type": "event"
    },
    {
      "anonymous": false,
      "inputs": [
        {
          "indexed": true,
          "internalType": "address",
          "name": "implementation",
          "type": "address"
        }
      ],
      "name": "Upgraded",
      "type": "event"
    },
    {
      "inputs": [],
      "name": "DEFAULT_ADMIN_ROLE",
      "outputs": [
        {
          "internalType": "bytes32",
          "name": "",
          "type": "bytes32"
        }
      ],
      "stateMutability": "view",
      "type": "function"
    },
    {
      "inputs": [],
      "name": "GM_ROLE",
      "outputs": [
        {
          "internalType": "bytes32",
          "name": "",
          "type": "bytes32"
        }
      ],
      "stateMutability": "view",
      "type": "function"
    },
    {
      "inputs": [],
      "name": "MINTER_ROLE",
      "outputs": [
        {
          "internalType": "bytes32",
          "name": "",
          "type": "bytes32"
        }
      ],
      "stateMutability": "view",
      "type": "function"
    },
    {
      "inputs": [],
      "name": "UPGRADER_ROLE",
      "outputs": [
        {
          "internalType": "bytes32",
          "name": "",
          "type": "bytes32"
        }
      ],
      "stateMutability": "view",
      "type": "function"
    },
    {
      "inputs": [
        {
          "internalType": "string",
          "name": "",
          "type": "string"
        }
      ],
      "name": "acceptedToken",
      "outputs": [
        {
          "internalType": "contract IERC20Upgradeable",
          "name": "",
          "type": "address"
        }
      ],
      "stateMutability": "view",
      "type": "function"
    },
    {
      "inputs": [
        {
          "internalType": "address",
          "name": "account",
          "type": "address"
        },
        {
          "internalType": "uint256",
          "name": "id",
          "type": "uint256"
        }
      ],
      "name": "balanceOf",
      "outputs": [
        {
          "internalType": "uint256",
          "name": "",
          "type": "uint256"
        }
      ],
      "stateMutability": "view",
      "type": "function"
    },
    {
      "inputs": [
        {
          "internalType": "address[]",
          "name": "accounts",
          "type": "address[]"
        },
        {
          "internalType": "uint256[]",
          "name": "ids",
          "type": "uint256[]"
        }
      ],
      "name": "balanceOfBatch",
      "outputs": [
        {
          "internalType": "uint256[]",
          "name": "",
          "type": "uint256[]"
        }
      ],
      "stateMutability": "view",
      "type": "function"
    },
    {
      "inputs": [
        {
          "internalType": "address",
          "name": "account",
          "type": "address"
        },
        {
          "internalType": "uint256",
          "name": "id",
          "type": "uint256"
        },
        {
          "internalType": "uint256",
          "name": "value",
          "type": "uint256"
        }
      ],
      "name": "burn",
      "outputs": [],
      "stateMutability": "nonpayable",
      "type": "function"
    },
    {
      "inputs": [
        {
          "internalType": "address",
          "name": "account",
          "type": "address"
        },
        {
          "internalType": "uint256[]",
          "name": "ids",
          "type": "uint256[]"
        },
        {
          "internalType": "uint256[]",
          "name": "values",
          "type": "uint256[]"
        }
      ],
      "name": "burnBatch",
      "outputs": [],
      "stateMutability": "nonpayable",
      "type": "function"
    },
    {
      "inputs": [
        {
          "internalType": "uint256",
          "name": "id",
          "type": "uint256"
        }
      ],
      "name": "getCidByTokenId",
      "outputs": [
        {
          "internalType": "uint256",
          "name": "",
          "type": "uint256"
        }
      ],
      "stateMutability": "view",
      "type": "function"
    },
    {
      "inputs": [
        {
          "internalType": "uint256",
          "name": "cid",
          "type": "uint256"
        }
      ],
      "name": "getRarityByCId",
      "outputs": [
        {
          "internalType": "string",
          "name": "",
          "type": "string"
        }
      ],
      "stateMutability": "view",
      "type": "function"
    },
    {
      "inputs": [
        {
          "internalType": "uint256",
          "name": "id",
          "type": "uint256"
        }
      ],
      "name": "getRarityById",
      "outputs": [
        {
          "internalType": "string",
          "name": "",
          "type": "string"
        }
      ],
      "stateMutability": "view",
      "type": "function"
    },
    {
      "inputs": [
        {
          "internalType": "bytes32",
          "name": "role",
          "type": "bytes32"
        }
      ],
      "name": "getRoleAdmin",
      "outputs": [
        {
          "internalType": "bytes32",
          "name": "",
          "type": "bytes32"
        }
      ],
      "stateMutability": "view",
      "type": "function"
    },
    {
      "inputs": [
        {
          "internalType": "bytes32",
          "name": "role",
          "type": "bytes32"
        },
        {
          "internalType": "address",
          "name": "account",
          "type": "address"
        }
      ],
      "name": "grantRole",
      "outputs": [],
      "stateMutability": "nonpayable",
      "type": "function"
    },
    {
      "inputs": [
        {
          "internalType": "bytes32",
          "name": "role",
          "type": "bytes32"
        },
        {
          "internalType": "address",
          "name": "account",
          "type": "address"
        }
      ],
      "name": "hasRole",
      "outputs": [
        {
          "internalType": "bool",
          "name": "",
          "type": "bool"
        }
      ],
      "stateMutability": "view",
      "type": "function"
    },
    {
      "inputs": [
        {
          "internalType": "address",
          "name": "_owner",
          "type": "address"
        },
        {
          "internalType": "address",
          "name": "_operator",
          "type": "address"
        }
      ],
      "name": "isApprovedForAll",
      "outputs": [
        {
          "internalType": "bool",
          "name": "isOperator",
          "type": "bool"
        }
      ],
      "stateMutability": "view",
      "type": "function"
    },
    {
      "inputs": [],
      "name": "melandStoreItems",
      "outputs": [
        {
          "internalType": "string[]",
          "name": "",
          "type": "string[]"
        },
        {
          "internalType": "uint256[]",
          "name": "",
          "type": "uint256[]"
        }
      ],
      "stateMutability": "view",
      "type": "function"
    },
    {
      "inputs": [
        {
          "internalType": "string",
          "name": "",
          "type": "string"
        }
      ],
      "name": "melandStoreReceipt",
      "outputs": [
        {
          "internalType": "address",
          "name": "receipt",
          "type": "address"
        }
      ],
      "stateMutability": "pure",
      "type": "function"
    },
    {
      "inputs": [
        {
          "internalType": "bytes32",
          "name": "",
          "type": "bytes32"
        }
      ],
      "name": "mintMaxByRaritykeccak256",
      "outputs": [
        {
          "internalType": "uint256",
          "name": "",
          "type": "uint256"
        }
      ],
      "stateMutability": "view",
      "type": "function"
    },
    {
      "inputs": [
        {
          "internalType": "string",
          "name": "_a",
          "type": "string"
        }
      ],
      "name": "parseInt",
      "outputs": [
        {
          "internalType": "uint256",
          "name": "_parsedInt",
          "type": "uint256"
        }
      ],
      "stateMutability": "pure",
      "type": "function"
    },
    {
      "inputs": [
        {
          "internalType": "string",
          "name": "_a",
          "type": "string"
        },
        {
          "internalType": "uint256",
          "name": "_b",
          "type": "uint256"
        }
      ],
      "name": "parseInt",
      "outputs": [
        {
          "internalType": "uint256",
          "name": "_parsedInt",
          "type": "uint256"
        }
      ],
      "stateMutability": "pure",
      "type": "function"
    },
    {
      "inputs": [
        {
          "internalType": "bytes32",
          "name": "role",
          "type": "bytes32"
        },
        {
          "internalType": "address",
          "name": "account",
          "type": "address"
        }
      ],
      "name": "renounceRole",
      "outputs": [],
      "stateMutability": "nonpayable",
      "type": "function"
    },
    {
      "inputs": [
        {
          "internalType": "bytes32",
          "name": "role",
          "type": "bytes32"
        },
        {
          "internalType": "address",
          "name": "account",
          "type": "address"
        }
      ],
      "name": "revokeRole",
      "outputs": [],
      "stateMutability": "nonpayable",
      "type": "function"
    },
    {
      "inputs": [
        {
          "internalType": "address",
          "name": "from",
          "type": "address"
        },
        {
          "internalType": "address",
          "name": "to",
          "type": "address"
        },
        {
          "internalType": "uint256[]",
          "name": "ids",
          "type": "uint256[]"
        },
        {
          "internalType": "uint256[]",
          "name": "amounts",
          "type": "uint256[]"
        },
        {
          "internalType": "bytes",
          "name": "data",
          "type": "bytes"
        }
      ],
      "name": "safeBatchTransferFrom",
      "outputs": [],
      "stateMutability": "nonpayable",
      "type": "function"
    },
    {
      "inputs": [
        {
          "internalType": "string",
          "name": "_a",
          "type": "string"
        }
      ],
      "name": "safeParseInt",
      "outputs": [
        {
          "internalType": "uint256",
          "name": "_parsedInt",
          "type": "uint256"
        }
      ],
      "stateMutability": "pure",
      "type": "function"
    },
    {
      "inputs": [
        {
          "internalType": "string",
          "name": "_a",
          "type": "string"
        },
        {
          "internalType": "uint256",
          "name": "_b",
          "type": "uint256"
        }
      ],
      "name": "safeParseInt",
      "outputs": [
        {
          "internalType": "uint256",
          "name": "_parsedInt",
          "type": "uint256"
        }
      ],
      "stateMutability": "pure",
      "type": "function"
    },
    {
      "inputs": [
        {
          "internalType": "address",
          "name": "from",
          "type": "address"
        },
        {
          "internalType": "address",
          "name": "to",
          "type": "address"
        },
        {
          "internalType": "uint256",
          "name": "id",
          "type": "uint256"
        },
        {
          "internalType": "uint256",
          "name": "amount",
          "type": "uint256"
        },
        {
          "internalType": "bytes",
          "name": "data",
          "type": "bytes"
        }
      ],
      "name": "safeTransferFrom",
      "outputs": [],
      "stateMutability": "nonpayable",
      "type": "function"
    },
    {
      "inputs": [
        {
          "internalType": "address",
          "name": "operator",
          "type": "address"
        },
        {
          "internalType": "bool",
          "name": "approved",
          "type": "bool"
        }
      ],
      "name": "setApprovalForAll",
      "outputs": [],
      "stateMutability": "nonpayable",
      "type": "function"
    },
    {
      "inputs": [
        {
          "internalType": "uint256",
          "name": "id",
          "type": "uint256"
        }
      ],
      "name": "totalSupply",
      "outputs": [
        {
          "internalType": "uint256",
          "name": "",
          "type": "uint256"
        }
      ],
      "stateMutability": "view",
      "type": "function"
    },
    {
      "inputs": [
        {
          "internalType": "uint256",
          "name": "cid",
          "type": "uint256"
        }
      ],
      "name": "totalSupplyByCId",
      "outputs": [
        {
          "internalType": "uint256",
          "name": "",
          "type": "uint256"
        }
      ],
      "stateMutability": "view",
      "type": "function"
    },
    {
      "inputs": [
        {
          "internalType": "address",
          "name": "newImplementation",
          "type": "address"
        }
      ],
      "name": "upgradeTo",
      "outputs": [],
      "stateMutability": "nonpayable",
      "type": "function"
    },
    {
      "inputs": [
        {
          "internalType": "address",
          "name": "newImplementation",
          "type": "address"
        },
        {
          "internalType": "bytes",
          "name": "data",
          "type": "bytes"
        }
      ],
      "name": "upgradeToAndCall",
      "outputs": [],
      "stateMutability": "payable",
      "type": "function"
    },
    {
      "inputs": [
        {
          "internalType": "uint256",
          "name": "id",
          "type": "uint256"
        }
      ],
      "name": "uri",
      "outputs": [
        {
          "internalType": "string",
          "name": "",
          "type": "string"
        }
      ],
      "stateMutability": "view",
      "type": "function"
    },
    {
      "inputs": [
        {
          "internalType": "string",
          "name": "uri",
          "type": "string"
        }
      ],
      "name": "initialize",
      "outputs": [],
      "stateMutability": "nonpayable",
      "type": "function"
    },
    {
      "inputs": [
        {
          "internalType": "string",
          "name": "newuri",
          "type": "string"
        }
      ],
      "name": "setURI",
      "outputs": [],
      "stateMutability": "nonpayable",
      "type": "function"
    },
    {
      "inputs": [
        {
          "internalType": "contract MelandTier",
          "name": "_tierAddress",
          "type": "address"
        }
      ],
      "name": "setMelandTier",
      "outputs": [],
      "stateMutability": "nonpayable",
      "type": "function"
    },
    {
      "inputs": [
        {
          "internalType": "string",
          "name": "symbol",
          "type": "string"
        }
      ],
      "name": "melandStoreItemURI",
      "outputs": [
        {
          "internalType": "string",
          "name": "",
          "type": "string"
        }
      ],
      "stateMutability": "view",
      "type": "function"
    },
    {
      "inputs": [
        {
          "internalType": "address",
          "name": "account",
          "type": "address"
        },
        {
          "internalType": "uint256",
          "name": "cid",
          "type": "uint256"
        },
        {
          "internalType": "uint256",
          "name": "amount",
          "type": "uint256"
        },
        {
          "internalType": "bytes",
          "name": "_rarity",
          "type": "bytes"
        }
      ],
      "name": "mint",
      "outputs": [
        {
          "internalType": "uint256[]",
          "name": "",
          "type": "uint256[]"
        }
      ],
      "stateMutability": "nonpayable",
      "type": "function"
    },
    {
      "inputs": [
        {
          "internalType": "string",
          "name": "_rarity",
          "type": "string"
        },
        {
          "internalType": "uint256",
          "name": "mintMax",
          "type": "uint256"
        }
      ],
      "name": "setRarity",
      "outputs": [],
      "stateMutability": "nonpayable",
      "type": "function"
    },
    {
      "inputs": [
        {
          "internalType": "bytes4",
          "name": "interfaceId",
          "type": "bytes4"
        }
      ],
      "name": "supportsInterface",
      "outputs": [
        {
          "internalType": "bool",
          "name": "",
          "type": "bool"
        }
      ],
      "stateMutability": "view",
      "type": "function"
    },
    {
      "inputs": [
        {
          "internalType": "contract IERC20Upgradeable",
          "name": "token",
          "type": "address"
        }
      ],
      "name": "setAcceptedToken",
      "outputs": [],
      "stateMutability": "nonpayable",
      "type": "function"
    },
    {
      "inputs": [
        {
          "internalType": "contract NFTStore",
          "name": "s",
          "type": "address"
        }
      ],
      "name": "setStore",
      "outputs": [],
      "stateMutability": "nonpayable",
      "type": "function"
    },
    {
      "inputs": [
        {
          "internalType": "string",
          "name": "symbol",
          "type": "string"
        },
        {
          "internalType": "uint256",
          "name": "price",
          "type": "uint256"
        }
      ],
      "name": "setStoreItem",
      "outputs": [],
      "stateMutability": "nonpayable",
      "type": "function"
    },
    {
      "inputs": [
        {
          "internalType": "string",
          "name": "symbol",
          "type": "string"
        }
      ],
      "name": "delStoreItem",
      "outputs": [],
      "stateMutability": "nonpayable",
      "type": "function"
    },
    {
      "inputs": [
        {
          "internalType": "string",
          "name": "",
          "type": "string"
        }
      ],
      "name": "melandStoreItemsRestrictPurchaseNFTIds",
      "outputs": [
        {
          "internalType": "bool",
          "name": "",
          "type": "bool"
        },
        {
          "internalType": "uint256[]",
          "name": "",
          "type": "uint256[]"
        }
      ],
      "stateMutability": "pure",
      "type": "function"
    },
    {
      "inputs": [
        {
          "internalType": "string",
          "name": "symbol",
          "type": "string"
        },
        {
          "internalType": "uint256",
          "name": "id",
          "type": "uint256"
        },
        {
          "internalType": "address",
          "name": "to",
          "type": "address"
        }
      ],
      "name": "melandStoreItemsMint",
      "outputs": [],
      "stateMutability": "nonpayable",
      "type": "function"
    },
    {
      "inputs": [
        {
          "internalType": "string",
          "name": "symbol",
          "type": "string"
        }
      ],
      "name": "melandStoreSellStatus",
      "outputs": [
        {
          "internalType": "bool",
          "name": "isSelling",
          "type": "bool"
        }
      ],
      "stateMutability": "view",
      "type": "function"
    },
    {
      "inputs": [
        {
          "internalType": "string",
          "name": "",
          "type": "string"
        }
      ],
      "name": "melandStoreItemsRestrictedPurchase",
      "outputs": [
        {
          "internalType": "bool",
          "name": "restricted",
          "type": "bool"
        },
        {
          "internalType": "uint256",
          "name": "restrictLimit",
          "type": "uint256"
        }
      ],
      "stateMutability": "pure",
      "type": "function"
    }
  ],
  "bytecode": "0x60a06040523060805234801561001457600080fd5b506080516149c961004560003960008181610c4401528181610c8401528181610e430152610e8301526149c96000f3fe6080604052600436106102925760003560e01c80638b31e62d1161015a578063d3186324116100c1578063f405a5841161007a578063f405a584146108a6578063f5298aca146108c6578063f62d1888146108e6578063f70e9a4714610906578063f72c0d8b14610926578063fcc6dd571461095a57600080fd5b8063d3186324146107c5578063d5391393146107f2578063d547741f14610826578063e985e9c514610846578063ed9be43214610866578063f242432a1461088657600080fd5b8063a649e7a511610113578063a649e7a5146106f8578063b0c208bc14610725578063bd85b03914610745578063bdb7b5dd14610765578063be7cbe7514610785578063bf4d89b5146107a557600080fd5b80638b31e62d1461062e57806390ad941d1461065157806391d14854146106715780639f89e76914610691578063a217fddf146106c3578063a22cb465146106d857600080fd5b806336568abe116101fe5780635eccb30c116101b75780635eccb30c14610542578063664033d5146105625780636b20c454146105ae578063731133e9146105ce5780637487f528146105ee57806380e416bd1461060e57600080fd5b806336568abe146104755780633659cfe6146104955780633ef780bc146104b557806342346c5e146104e25780634e1273f4146105025780634f1ef2861461052f57600080fd5b80631a8c2e80116102505780631a8c2e80146103a35780631ba43d2b146103c3578063248a9ca3146103e35780632eb2c2d6146104135780632f2ff15d1461043357806330c7be2c1461045357600080fd5b8062fdd58e1461029757806301ffc9a7146102ca57806302fe5305146102fa5780630820c90d1461031c578063087cbd40146103565780630e89341c14610376575b600080fd5b3480156102a357600080fd5b506102b76102b23660046138a3565b610986565b6040519081526020015b60405180910390f35b3480156102d657600080fd5b506102ea6102e53660046138e5565b610a22565b60405190151581526020016102c1565b34801561030657600080fd5b5061031a6103153660046139b7565b610a2d565b005b34801561032857600080fd5b5061033f6103373660046139b7565b506000908190565b6040805192151583526020830191909152016102c1565b34801561036257600080fd5b5061031a6103713660046139f3565b610a53565b34801561038257600080fd5b50610396610391366004613a10565b610a75565b6040516102c19190613a81565b3480156103af57600080fd5b5061031a6103be366004613a94565b610a80565b3480156103cf57600080fd5b506102ea6103de3660046139b7565b610ac2565b3480156103ef57600080fd5b506102b76103fe366004613a10565b600090815260cf602052604090206001015490565b34801561041f57600080fd5b5061031a61042e366004613b82565b610afd565b34801561043f57600080fd5b5061031a61044e366004613c2f565b610b94565b34801561045f57600080fd5b506102b760008051602061497483398151915281565b34801561048157600080fd5b5061031a610490366004613c2f565b610bbf565b3480156104a157600080fd5b5061031a6104b03660046139f3565b610c39565b3480156104c157600080fd5b506102b76104d0366004613a10565b600090815260ca602052604090205490565b3480156104ee57600080fd5b506102b76104fd3660046139b7565b610d02565b34801561050e57600080fd5b5061052261051d366004613c5f565b610d0f565b6040516102c19190613d66565b61031a61053d366004613d79565b610e38565b34801561054e57600080fd5b506102b761055d3660046139b7565b610eee565b34801561056e57600080fd5b5061059661057d3660046139b7565b5073fced262e4949b7b5c4177b4e0ad8e974cc7493bf90565b6040516001600160a01b0390911681526020016102c1565b3480156105ba57600080fd5b5061031a6105c9366004613dbe565b610efb565b3480156105da57600080fd5b506105226105e9366004613e33565b610f3e565b3480156105fa57600080fd5b5061031a6106093660046139f3565b610f81565b34801561061a57600080fd5b5061031a610629366004613e95565b610fa3565b34801561063a57600080fd5b50610643610fc7565b6040516102c1929190613ed9565b34801561065d57600080fd5b5061039661066c366004613a10565b6110fd565b34801561067d57600080fd5b506102ea61068c366004613c2f565b61119f565b34801561069d57600080fd5b506106b56106ac3660046139b7565b50600090606090565b6040516102c1929190613f46565b3480156106cf57600080fd5b506102b7600081565b3480156106e457600080fd5b5061031a6106f3366004613f61565b6111ca565b34801561070457600080fd5b506102b7610713366004613a10565b60cd6020526000908152604090205481565b34801561073157600080fd5b5061031a6107403660046139b7565b6111d5565b34801561075157600080fd5b506102b7610760366004613a10565b6111f7565b34801561077157600080fd5b5061031a610780366004613e95565b611229565b34801561079157600080fd5b506103966107a0366004613a10565b61124c565b3480156107b157600080fd5b506102b76107c0366004613e95565b611302565b3480156107d157600080fd5b506102b76107e0366004613a10565b600090815260cb602052604090205490565b3480156107fe57600080fd5b506102b77f9f2df0fed2c77648de5860a4cc508cd0818c85b8b8a1ab4ceeef8d981c8956a681565b34801561083257600080fd5b5061031a610841366004613c2f565b61141f565b34801561085257600080fd5b506102ea610861366004613f94565b611445565b34801561087257600080fd5b506102b7610881366004613e95565b611458565b34801561089257600080fd5b5061031a6108a1366004613fc2565b611611565b3480156108b257600080fd5b506103966108c13660046139b7565b611656565b3480156108d257600080fd5b5061031a6108e136600461402a565b61168a565b3480156108f257600080fd5b5061031a6109013660046139b7565b6116cd565b34801561091257600080fd5b5061031a6109213660046139f3565b611752565b34801561093257600080fd5b506102b77f189ab7a9244df0848122154315af71fe140f3db0fe014031783b0946b8c9d2e381565b34801561096657600080fd5b506105966109753660046139b7565b50610102546001600160a01b031690565b60006001600160a01b0383166109f75760405162461bcd60e51b815260206004820152602b60248201527f455243313135353a2062616c616e636520717565727920666f7220746865207a60448201526a65726f206164647265737360a81b60648201526084015b60405180910390fd5b5060008181526065602090815260408083206001600160a01b03861684529091529020545b92915050565b6000610a1c8261178a565b600080516020614974833981519152610a4681336117af565b610a4f82611813565b5050565b600080516020614974833981519152610a6c81336117af565b610a4f82611826565b6060610a1c8261184a565b610a8b8383836118a0565b6000610a9684611904565b9050610ab4828260016040518060200160405280600081525061190f565b610abc61191b565b50505050565b600080610ace83611904565b90506000610adb82611989565b905080610af483600090815260cb602052604090205490565b10949350505050565b6001600160a01b038516331480610b195750610b198533611445565b610b805760405162461bcd60e51b815260206004820152603260248201527f455243313135353a207472616e736665722063616c6c6572206973206e6f74206044820152711bdddb995c881b9bdc88185c1c1c9bdd995960721b60648201526084016109ee565b610b8d8585858585611a43565b5050505050565b600082815260cf6020526040902060010154610bb081336117af565b610bba8383611bf0565b505050565b6001600160a01b0381163314610c2f5760405162461bcd60e51b815260206004820152602f60248201527f416363657373436f6e74726f6c3a2063616e206f6e6c792072656e6f756e636560448201526e103937b632b9903337b91039b2b63360891b60648201526084016109ee565b610a4f8282611c76565b306001600160a01b037f0000000000000000000000000000000000000000000000000000000000000000161415610c825760405162461bcd60e51b81526004016109ee9061405f565b7f00000000000000000000000000000000000000000000000000000000000000006001600160a01b0316610cb4611cdd565b6001600160a01b031614610cda5760405162461bcd60e51b81526004016109ee906140ab565b610ce381611d0b565b60408051600080825260208201909252610cff91839190611d36565b50565b6000610a1c826000611302565b60608151835114610d745760405162461bcd60e51b815260206004820152602960248201527f455243313135353a206163636f756e747320616e6420696473206c656e677468604482015268040dad2e6dac2e8c6d60bb1b60648201526084016109ee565b600083516001600160401b03811115610d8f57610d8f613902565b604051908082528060200260200182016040528015610db8578160200160208202803683370190505b50905060005b8451811015610e3057610e03858281518110610ddc57610ddc6140f7565b6020026020010151858381518110610df657610df66140f7565b6020026020010151610986565b828281518110610e1557610e156140f7565b6020908102919091010152610e2981614123565b9050610dbe565b509392505050565b306001600160a01b037f0000000000000000000000000000000000000000000000000000000000000000161415610e815760405162461bcd60e51b81526004016109ee9061405f565b7f00000000000000000000000000000000000000000000000000000000000000006001600160a01b0316610eb3611cdd565b6001600160a01b031614610ed95760405162461bcd60e51b81526004016109ee906140ab565b610ee282611d0b565b610a4f82826001611d36565b6000610a1c826000611458565b6001600160a01b038316331480610f175750610f178333611445565b610f335760405162461bcd60e51b81526004016109ee9061413e565b610bba838383611e7a565b60607f9f2df0fed2c77648de5860a4cc508cd0818c85b8b8a1ab4ceeef8d981c8956a6610f6b81336117af565b610f778686868661200b565b9695505050505050565b600080516020614974833981519152610f9a81336117af565b610a4f826120d3565b600080516020614974833981519152610fbc81336117af565b82610abc81846120f7565b60608061010361010481805480602002602001604051908101604052809291908181526020016000905b8282101561109d57838290600052602060002001805461101090614187565b80601f016020809104026020016040519081016040528092919081815260200182805461103c90614187565b80156110895780601f1061105e57610100808354040283529160200191611089565b820191906000526020600020905b81548152906001019060200180831161106c57829003601f168201915b505050505081526020019060010190610ff1565b505050509150808054806020026020016040519081016040528092919081815260200182805480156110ee57602002820191906000526020600020905b8154815260200190600101908083116110da575b50505050509050915091509091565b600081815260ce6020526040902080546060919061111a90614187565b80601f016020809104026020016040519081016040528092919081815260200182805461114690614187565b80156111935780601f1061116857610100808354040283529160200191611193565b820191906000526020600020905b81548152906001019060200180831161117657829003601f168201915b50505050509050919050565b600091825260cf602090815260408084206001600160a01b0393909316845291905290205460ff1690565b610a4f338383612162565b6000805160206149748339815191526111ee81336117af565b610a4f82612243565b600081815260ca6020526040812054806112145750600092915050565b600090815260cb602052604090205492915050565b60008051602061497483398151915261124281336117af565b610bba83836123ba565b600081815260ca602052604081205460609190600081815260ce6020526040902080549192509061127c90614187565b80601f01602080910402602001604051908101604052809291908181526020018280546112a890614187565b80156112f55780601f106112ca576101008083540402835291602001916112f5565b820191906000526020600020905b8154815290600101906020018083116112d857829003601f168201915b5050505050915050919050565b6000828180805b83518110156113f7576030848281518110611326576113266140f7565b016020015160f81c108015906113565750603984828151811061134b5761134b6140f7565b016020015160f81c11155b156113bd578115611379578561136b576113f7565b85611375816141c2565b9650505b611384600a846141d9565b9250603084828151811061139a5761139a6140f7565b01602001516113ac919060f81c6141f8565b6113b6908461420f565b92506113e5565b8381815181106113cf576113cf6140f7565b60209101015160f81c602e14156113e557600191505b806113ef81614123565b915050611309565b5084156114165761140985600a61430b565b61141390836141d9565b91505b50949350505050565b600082815260cf602052604090206001015461143b81336117af565b610bba8383611c76565b60006114518383612537565b9392505050565b6000828180805b83518110156113f757603084828151811061147c5761147c6140f7565b016020015160f81c108015906114ac575060398482815181106114a1576114a16140f7565b016020015160f81c11155b156115135781156114cf57856114c1576113f7565b856114cb816141c2565b9650505b6114da600a846141d9565b925060308482815181106114f0576114f06140f7565b0160200151611502919060f81c6141f8565b61150c908461420f565b92506115ff565b838181518110611525576115256140f7565b60209101015160f81c602e14156115a25781156115995760405162461bcd60e51b815260206004820152602c60248201527f4d6f7265207468616e206f6e6520646563696d616c20656e636f756e7465726560448201526b6420696e20737472696e672160a01b60648201526084016109ee565b600191506115ff565b60405162461bcd60e51b815260206004820152602c60248201527f4e6f6e2d6e756d6572616c2063686172616374657220656e636f756e7465726560448201526b6420696e20737472696e672160a01b60648201526084016109ee565b8061160981614123565b91505061145f565b6001600160a01b03851633148061162d575061162d8533611445565b6116495760405162461bcd60e51b81526004016109ee9061413e565b610b8d85858585856125b2565b60606116626000610a75565b82604051602001611674929190614317565b6040516020818303038152906040529050919050565b6001600160a01b0383163314806116a657506116a68333611445565b6116c25760405162461bcd60e51b81526004016109ee9061413e565b610bba8383836126e2565b600054610100900460ff16806116e6575060005460ff16155b6117025760405162461bcd60e51b81526004016109ee90614360565b600054610100900460ff16158015611724576000805461ffff19166101011790555b61172c6127e7565b61173582612862565b61173d612936565b8015610a4f576000805461ff00191690555050565b60008051602061497483398151915261176b81336117af565b60cc80546001600160a01b0319166001600160a01b0384161790555050565b60006001600160e01b03198216637965db0b60e01b1480610a1c5750610a1c826129b5565b6117b9828261119f565b610a4f576117d1816001600160a01b03166014612a05565b6117dc836020612a05565b6040516020016117ed9291906143ae565b60408051601f198184030181529082905262461bcd60e51b82526109ee91600401613a81565b8051610a4f906067906020840190613744565b61010180546001600160a01b0319166001600160a01b038316179055610cff61191b565b600081815260ca602052604090205460609061186583612ba0565b61186e82612baf565b61187785612baf565b60405160200161188993929190614423565b604051602081830303815290604052915050919050565b610101546001600160a01b0316336001600160a01b031614610bba5760405162461bcd60e51b815260206004820152601f60248201527f416c6c6f77206f6e6c79204d656c616e642e6169206d616c6c2063616c6c730060448201526064016109ee565b6000610a1c82610d02565b610abc84848484612cce565b610101546001600160a01b031615611987576101015460405163fa21a11d60e01b81523060048201526001600160a01b039091169063fa21a11d90602401600060405180830381600087803b15801561197357600080fd5b505af1158015610abc573d6000803e3d6000fd5b565b600081815260ce6020526040812080548291906119a590614187565b80601f01602080910402602001604051908101604052809291908181526020018280546119d190614187565b8015611a1e5780601f106119f357610100808354040283529160200191611a1e565b820191906000526020600020905b815481529060010190602001808311611a0157829003601f168201915b50505050509050611451818051602091820120600090815260cd909152604090205490565b8151835114611a645760405162461bcd60e51b81526004016109ee9061447d565b6001600160a01b038416611a8a5760405162461bcd60e51b81526004016109ee906144c5565b33611a99818787878787612d26565b60005b8451811015611b82576000858281518110611ab957611ab96140f7565b602002602001015190506000858381518110611ad757611ad76140f7565b60209081029190910181015160008481526065835260408082206001600160a01b038e168352909352919091205490915081811015611b285760405162461bcd60e51b81526004016109ee9061450a565b60008381526065602090815260408083206001600160a01b038e8116855292528083208585039055908b16825281208054849290611b6790849061420f565b9250508190555050505080611b7b90614123565b9050611a9c565b50846001600160a01b0316866001600160a01b0316826001600160a01b03167f4a39dc06d4c0dbc64b70af90fd698a233a518aa5d07e595d983b8c0526c8f7fb8787604051611bd2929190614554565b60405180910390a4611be8818787878787612e94565b505050505050565b611bfa828261119f565b610a4f57600082815260cf602090815260408083206001600160a01b03851684529091529020805460ff19166001179055611c323390565b6001600160a01b0316816001600160a01b0316837f2f8788117e7eff1d82e926ec794901d17c78024a50270940304540a733656f0d60405160405180910390a45050565b611c80828261119f565b15610a4f57600082815260cf602090815260408083206001600160a01b0385168085529252808320805460ff1916905551339285917ff6391f5c32d9c69d2a47ea670b442974b53935d1edc7fd64eb21e047a839171b9190a45050565b7f360894a13ba1a3210667c828492db98dca3e2076cc3735a920a3ca505d382bbc546001600160a01b031690565b7f189ab7a9244df0848122154315af71fe140f3db0fe014031783b0946b8c9d2e3610a4f81336117af565b6000611d40611cdd565b9050611d4b84612fff565b600083511180611d585750815b15611d6957611d6784846130a4565b505b7f4910fdfa16fed3260ed0e7147f7cc6da11a60208b5b9406d12a635614ffd9143805460ff16610b8d57805460ff191660011781556040516001600160a01b0383166024820152611de890869060440160408051601f198184030181529190526020810180516001600160e01b0316631b2ce7f360e11b1790526130a4565b50805460ff19168155611df9611cdd565b6001600160a01b0316826001600160a01b031614611e715760405162461bcd60e51b815260206004820152602f60248201527f45524331393637557067726164653a207570677261646520627265616b73206660448201526e75727468657220757067726164657360881b60648201526084016109ee565b610b8d8561318f565b6001600160a01b038316611ea05760405162461bcd60e51b81526004016109ee90614579565b8051825114611ec15760405162461bcd60e51b81526004016109ee9061447d565b6000339050611ee481856000868660405180602001604052806000815250612d26565b60005b8351811015611fac576000848281518110611f0457611f046140f7565b602002602001015190506000848381518110611f2257611f226140f7565b60209081029190910181015160008481526065835260408082206001600160a01b038c168352909352919091205490915081811015611f735760405162461bcd60e51b81526004016109ee906145bc565b60009283526065602090815260408085206001600160a01b038b1686529091529092209103905580611fa481614123565b915050611ee7565b5060006001600160a01b0316846001600160a01b0316826001600160a01b03167f4a39dc06d4c0dbc64b70af90fd698a233a518aa5d07e595d983b8c0526c8f7fb8686604051611ffd929190614554565b60405180910390a450505050565b60606000836001600160401b0381111561202757612027613902565b604051908082528060200260200182016040528015612050578160200160208202803683370190505b509050600084116120735760405162461bcd60e51b81526004016109ee90614600565b60005b848110156120c9576000612089876131cf565b90506120988882600188613201565b808383815181106120ab576120ab6140f7565b602090810291909101015250806120c181614123565b915050612076565b5095945050505050565b61010280546001600160a01b0319166001600160a01b038316179055610cff61191b565b8060cd60008480519060200120815260200190815260200160002081905550816040516121249190614641565b604051908190038120828252907fc0cc007bc58275ca70d6cec6795b70feb61df220b5c085a20bb71648ed57072c9060200160405180910390a25050565b816001600160a01b0316836001600160a01b031614156121d65760405162461bcd60e51b815260206004820152602960248201527f455243313135353a2073657474696e6720617070726f76616c20737461747573604482015268103337b91039b2b63360b91b60648201526084016109ee565b6001600160a01b03838116600081815260666020908152604080832094871680845294825291829020805460ff191686151590811790915591519182527f17307eab39ab6107e8899845ad3d59bd9653f200f220920489ca2b5937696c31910160405180910390a3505050565b6000805b610103548110156122a9578280519060200120610103828154811061226e5761226e6140f7565b90600052602060002001604051612285919061465d565b60405180910390201415612297578091505b806122a181614123565b915050612247565b5061010380546122bb906001906141f8565b815481106122cb576122cb6140f7565b9060005260206000200161010382815481106122e9576122e96140f7565b906000526020600020019080546122ff90614187565b61230a9291906137c8565b5061010380548061231d5761231d6146f9565b6001900381819060005260206000200160006123399190613843565b9055610103546101049061234f906001906141f8565b8154811061235f5761235f6140f7565b9060005260206000200154610104828154811061237e5761237e6140f7565b60009182526020909120015561010480548061239c5761239c6146f9565b60019003818190600052602060002001600090559055610a4f61191b565b6000805b610103548110156124205761010381815481106123dd576123dd6140f7565b906000526020600020016040516123f4919061465d565b60405180910390208480519060200120141561240e578091505b8061241881614123565b9150506123be565b50801561244d5781610104828154811061243c5761243c6140f7565b60009182526020909120015561252f565b610103541580159061249857508280519060200120610103600081548110612477576124776140f7565b9060005260206000200160405161248e919061465d565b6040518091039020145b156124b3578161010460008154811061243c5761243c6140f7565b610103805460018101825560009190915283516124f7917f02c297ab74aad0aede3a1895c857b1f2c71e6a203feb727bec95ac752998cb7801906020860190613744565b5061010480546001810182556000919091527f4c0be60200faa20559308cb7b5a1bb3255c16cb1cab91f525b5ae7a03d02fabe018290555b610bba61191b565b60006001600160a01b03821673207fa8df3a17d96ca7ea4f2893fcdcb78a304101141561256657506001610a1c565b60cc546001600160a01b038381169116141561258457506001610a1c565b6001600160a01b0380841660009081526066602090815260408083209386168352929052205460ff16611451565b6001600160a01b0384166125d85760405162461bcd60e51b81526004016109ee906144c5565b336125f78187876125e888613304565b6125f188613304565b87612d26565b60008481526065602090815260408083206001600160a01b038a1684529091529020548381101561263a5760405162461bcd60e51b81526004016109ee9061450a565b60008581526065602090815260408083206001600160a01b038b811685529252808320878503905590881682528120805486929061267990849061420f565b909155505060408051868152602081018690526001600160a01b03808916928a821692918616917fc3d58168c5ae7397731d063d5bbf3d657854427343f4c083240f7aacaa2d0f62910160405180910390a46126d982888888888861334f565b50505050505050565b6001600160a01b0383166127085760405162461bcd60e51b81526004016109ee90614579565b336127378185600061271987613304565b61272287613304565b60405180602001604052806000815250612d26565b60008381526065602090815260408083206001600160a01b03881684529091529020548281101561277a5760405162461bcd60e51b81526004016109ee906145bc565b60008481526065602090815260408083206001600160a01b03898116808652918452828520888703905582518981529384018890529092908616917fc3d58168c5ae7397731d063d5bbf3d657854427343f4c083240f7aacaa2d0f62910160405180910390a45050505050565b600054610100900460ff1680612800575060005460ff16155b61281c5760405162461bcd60e51b81526004016109ee90614360565b600054610100900460ff1615801561283e576000805461ffff19166101011790555b612846613419565b61284e613419565b8015610cff576000805461ff001916905550565b61288b60405180604001604052806006815260200165756e6971756560d01b81525060016120f7565b6128b4604051806040016040528060068152602001656d797468696360d01b815250600a6120f7565b6128db604051806040016040528060048152602001636570696360e01b81525060646120f7565b612903604051806040016040528060048152602001637261726560e01b8152506103e86120f7565b61292d6040518060400160405280600681526020016531b7b6b6b7b760d11b8152506127106120f7565b610cff81613483565b61293e6134e7565b612949600033611bf0565b61296160008051602061497483398151915233611bf0565b61298b7f9f2df0fed2c77648de5860a4cc508cd0818c85b8b8a1ab4ceeef8d981c8956a633611bf0565b6119877f189ab7a9244df0848122154315af71fe140f3db0fe014031783b0946b8c9d2e333611bf0565b60006001600160e01b03198216636cdb3d1360e11b14806129e657506001600160e01b031982166303a24d0760e21b145b80610a1c57506301ffc9a760e01b6001600160e01b0319831614610a1c565b60606000612a148360026141d9565b612a1f90600261420f565b6001600160401b03811115612a3657612a36613902565b6040519080825280601f01601f191660200182016040528015612a60576020820181803683370190505b509050600360fc1b81600081518110612a7b57612a7b6140f7565b60200101906001600160f81b031916908160001a905350600f60fb1b81600181518110612aaa57612aaa6140f7565b60200101906001600160f81b031916908160001a9053506000612ace8460026141d9565b612ad990600161420f565b90505b6001811115612b51576f181899199a1a9b1b9c1cb0b131b232b360811b85600f1660108110612b0d57612b0d6140f7565b1a60f81b828281518110612b2357612b236140f7565b60200101906001600160f81b031916908160001a90535060049490941c93612b4a816141c2565b9050612adc565b5083156114515760405162461bcd60e51b815260206004820181905260248201527f537472696e67733a20686578206c656e67746820696e73756666696369656e7460448201526064016109ee565b60606067805461111a90614187565b606081612bd35750506040805180820190915260018152600360fc1b602082015290565b8160005b8115612bfd5780612be781614123565b9150612bf69050600a8361470f565b9150612bd7565b6000816001600160401b03811115612c1757612c17613902565b6040519080825280601f01601f191660200182016040528015612c41576020820181803683370190505b509050815b851561141657612c576001826141f8565b90506000612c66600a8861470f565b612c7190600a6141d9565b612c7b90886141f8565b612c86906030614731565b905060008160f81b905080848481518110612ca357612ca36140f7565b60200101906001600160f81b031916908160001a905350612cc5600a8961470f565b97505050612c46565b60008211612cee5760405162461bcd60e51b81526004016109ee90614600565b60005b82811015610b8d576000612d04856131cf565b9050612d138682600186613201565b5080612d1e81614123565b915050612cf1565b6001600160a01b038516612e865760005b8351811015612e84576000848281518110612d5457612d546140f7565b602002602001015190506000612d7682600090815260ca602052604090205490565b600081815260ce6020526040812080549293509091612d9490614187565b80601f0160208091040260200160405190810160405280929190818152602001828054612dc090614187565b8015612e0d5780601f10612de257610100808354040283529160200191612e0d565b820191906000526020600020905b815481529060010190602001808311612df057829003601f168201915b505050505090506000612e1f83611989565b905080612e2b856111f7565b108282604051602001612e3f929190614756565b60405160208183030381529060405290612e6c5760405162461bcd60e51b81526004016109ee9190613a81565b50505050508080612e7c90614123565b915050612d37565b505b611be8868686868686613546565b6001600160a01b0384163b15611be85760405163bc197c8160e01b81526001600160a01b0385169063bc197c8190612ed8908990899088908890889060040161479f565b602060405180830381600087803b158015612ef257600080fd5b505af1925050508015612f22575060408051601f3d908101601f19168201909252612f1f918101906147fd565b60015b612fcf57612f2e61481a565b806308c379a01415612f685750612f43614836565b80612f4e5750612f6a565b8060405162461bcd60e51b81526004016109ee9190613a81565b505b60405162461bcd60e51b815260206004820152603460248201527f455243313135353a207472616e7366657220746f206e6f6e20455243313135356044820152732932b1b2b4bb32b91034b6b83632b6b2b73a32b960611b60648201526084016109ee565b6001600160e01b0319811663bc197c8160e01b146126d95760405162461bcd60e51b81526004016109ee906148bf565b803b6130635760405162461bcd60e51b815260206004820152602d60248201527f455243313936373a206e657720696d706c656d656e746174696f6e206973206e60448201526c1bdd08184818dbdb9d1c9858dd609a1b60648201526084016109ee565b7f360894a13ba1a3210667c828492db98dca3e2076cc3735a920a3ca505d382bbc80546001600160a01b0319166001600160a01b0392909216919091179055565b6060823b6131035760405162461bcd60e51b815260206004820152602660248201527f416464726573733a2064656c65676174652063616c6c20746f206e6f6e2d636f6044820152651b9d1c9858dd60d21b60648201526084016109ee565b600080846001600160a01b03168460405161311e9190614641565b600060405180830381855af49150503d8060008114613159576040519150601f19603f3d011682016040523d82523d6000602084013e61315e565b606091505b5091509150613186828260405180606001604052806027815260200161494d60279139613640565b95945050505050565b61319881612fff565b6040516001600160a01b038216907fbc7cd75a20ee27fd9adebab32041f755214dbc6bffa90cc0225b39da2e5c2d3b90600090a250565b6000806131db60c95490565b90506131eb60c980546001019055565b600081815260ca60205260409020929092555090565b6001600160a01b0384166132615760405162461bcd60e51b815260206004820152602160248201527f455243313135353a206d696e7420746f20746865207a65726f206164647265736044820152607360f81b60648201526084016109ee565b33613272816000876125e888613304565b60008481526065602090815260408083206001600160a01b0389168452909152812080548592906132a490849061420f565b909155505060408051858152602081018590526001600160a01b0380881692600092918516917fc3d58168c5ae7397731d063d5bbf3d657854427343f4c083240f7aacaa2d0f62910160405180910390a4610b8d8160008787878761334f565b6040805160018082528183019092526060916000919060208083019080368337019050509050828160008151811061333e5761333e6140f7565b602090810291909101015292915050565b6001600160a01b0384163b15611be85760405163f23a6e6160e01b81526001600160a01b0385169063f23a6e61906133939089908990889088908890600401614907565b602060405180830381600087803b1580156133ad57600080fd5b505af19250505080156133dd575060408051601f3d908101601f191682019092526133da918101906147fd565b60015b6133e957612f2e61481a565b6001600160e01b0319811663f23a6e6160e01b146126d95760405162461bcd60e51b81526004016109ee906148bf565b600054610100900460ff1680613432575060005460ff16155b61344e5760405162461bcd60e51b81526004016109ee90614360565b600054610100900460ff1615801561284e576000805461ffff19166101011790558015610cff576000805461ff001916905550565b600054610100900460ff168061349c575060005460ff16155b6134b85760405162461bcd60e51b81526004016109ee90614360565b600054610100900460ff161580156134da576000805461ffff19166101011790555b6134e382613679565b61173d5b600054610100900460ff1680613500575060005460ff16155b61351c5760405162461bcd60e51b81526004016109ee90614360565b600054610100900460ff1615801561353e576000805461ffff19166101011790555b61283e613419565b6001600160a01b0385166135d15760005b83518110156135cf576000613591858381518110613577576135776140f7565b6020026020010151600090815260ca602052604090205490565b9050600160cb600083815260200190815260200160002060008282546135b7919061420f565b909155506135c89150829050614123565b9050613557565b505b6001600160a01b038416611be85760005b83518110156126d9576000613602858381518110613577576135776140f7565b9050600160cb6000838152602001908152602001600020600082825461362891906141f8565b909155506136399150829050614123565b90506135e2565b6060831561364f575081611451565b82511561365f5782518084602001fd5b8160405162461bcd60e51b81526004016109ee9190613a81565b600054610100900460ff1680613692575060005460ff16155b6136ae5760405162461bcd60e51b81526004016109ee90614360565b600054610100900460ff161580156136d0576000805461ffff19166101011790555b6136d8613419565b6136e0613419565b61173d82600054610100900460ff16806136fd575060005460ff16155b6137195760405162461bcd60e51b81526004016109ee90614360565b600054610100900460ff1615801561373b576000805461ffff19166101011790555b61173d82611813565b82805461375090614187565b90600052602060002090601f01602090048101928261377257600085556137b8565b82601f1061378b57805160ff19168380011785556137b8565b828001600101855582156137b8579182015b828111156137b857825182559160200191906001019061379d565b506137c4929150613879565b5090565b8280546137d490614187565b90600052602060002090601f0160209004810192826137f657600085556137b8565b82601f1061380757805485556137b8565b828001600101855582156137b857600052602060002091601f016020900482015b828111156137b8578254825591600101919060010190613828565b50805461384f90614187565b6000825580601f1061385f575050565b601f016020900490600052602060002090810190610cff91905b5b808211156137c4576000815560010161387a565b6001600160a01b0381168114610cff57600080fd5b600080604083850312156138b657600080fd5b82356138c18161388e565b946020939093013593505050565b6001600160e01b031981168114610cff57600080fd5b6000602082840312156138f757600080fd5b8135611451816138cf565b634e487b7160e01b600052604160045260246000fd5b601f8201601f191681016001600160401b038111828210171561393d5761393d613902565b6040525050565b600082601f83011261395557600080fd5b81356001600160401b0381111561396e5761396e613902565b604051613985601f8301601f191660200182613918565b81815284602083860101111561399a57600080fd5b816020850160208301376000918101602001919091529392505050565b6000602082840312156139c957600080fd5b81356001600160401b038111156139df57600080fd5b6139eb84828501613944565b949350505050565b600060208284031215613a0557600080fd5b81356114518161388e565b600060208284031215613a2257600080fd5b5035919050565b60005b83811015613a44578181015183820152602001613a2c565b83811115610abc5750506000910152565b60008151808452613a6d816020860160208601613a29565b601f01601f19169290920160200192915050565b6020815260006114516020830184613a55565b600080600060608486031215613aa957600080fd5b83356001600160401b03811115613abf57600080fd5b613acb86828701613944565b935050602084013591506040840135613ae38161388e565b809150509250925092565b60006001600160401b03821115613b0757613b07613902565b5060051b60200190565b600082601f830112613b2257600080fd5b81356020613b2f82613aee565b604051613b3c8282613918565b83815260059390931b8501820192828101915086841115613b5c57600080fd5b8286015b84811015613b775780358352918301918301613b60565b509695505050505050565b600080600080600060a08688031215613b9a57600080fd5b8535613ba58161388e565b94506020860135613bb58161388e565b935060408601356001600160401b0380821115613bd157600080fd5b613bdd89838a01613b11565b94506060880135915080821115613bf357600080fd5b613bff89838a01613b11565b93506080880135915080821115613c1557600080fd5b50613c2288828901613944565b9150509295509295909350565b60008060408385031215613c4257600080fd5b823591506020830135613c548161388e565b809150509250929050565b60008060408385031215613c7257600080fd5b82356001600160401b0380821115613c8957600080fd5b818501915085601f830112613c9d57600080fd5b81356020613caa82613aee565b604051613cb78282613918565b83815260059390931b8501820192828101915089841115613cd757600080fd5b948201945b83861015613cfe578535613cef8161388e565b82529482019490820190613cdc565b96505086013592505080821115613d1457600080fd5b50613d2185828601613b11565b9150509250929050565b600081518084526020808501945080840160005b83811015613d5b57815187529582019590820190600101613d3f565b509495945050505050565b6020815260006114516020830184613d2b565b60008060408385031215613d8c57600080fd5b8235613d978161388e565b915060208301356001600160401b03811115613db257600080fd5b613d2185828601613944565b600080600060608486031215613dd357600080fd5b8335613dde8161388e565b925060208401356001600160401b0380821115613dfa57600080fd5b613e0687838801613b11565b93506040860135915080821115613e1c57600080fd5b50613e2986828701613b11565b9150509250925092565b60008060008060808587031215613e4957600080fd5b8435613e548161388e565b9350602085013592506040850135915060608501356001600160401b03811115613e7d57600080fd5b613e8987828801613944565b91505092959194509250565b60008060408385031215613ea857600080fd5b82356001600160401b03811115613ebe57600080fd5b613eca85828601613944565b95602094909401359450505050565b6000604082016040835280855180835260608501915060608160051b8601019250602080880160005b83811015613f3057605f19888703018552613f1e868351613a55565b95509382019390820190600101613f02565b5050858403818701525050506131868185613d2b565b82151581526040602082015260006139eb6040830184613d2b565b60008060408385031215613f7457600080fd5b8235613f7f8161388e565b915060208301358015158114613c5457600080fd5b60008060408385031215613fa757600080fd5b8235613fb28161388e565b91506020830135613c548161388e565b600080600080600060a08688031215613fda57600080fd5b8535613fe58161388e565b94506020860135613ff58161388e565b9350604086013592506060860135915060808601356001600160401b0381111561401e57600080fd5b613c2288828901613944565b60008060006060848603121561403f57600080fd5b833561404a8161388e565b95602085013595506040909401359392505050565b6020808252602c908201527f46756e6374696f6e206d7573742062652063616c6c6564207468726f7567682060408201526b19195b1959d85d1958d85b1b60a21b606082015260800190565b6020808252602c908201527f46756e6374696f6e206d7573742062652063616c6c6564207468726f7567682060408201526b6163746976652070726f787960a01b606082015260800190565b634e487b7160e01b600052603260045260246000fd5b634e487b7160e01b600052601160045260246000fd5b60006000198214156141375761413761410d565b5060010190565b60208082526029908201527f455243313135353a2063616c6c6572206973206e6f74206f776e6572206e6f7260408201526808185c1c1c9bdd995960ba1b606082015260800190565b600181811c9082168061419b57607f821691505b602082108114156141bc57634e487b7160e01b600052602260045260246000fd5b50919050565b6000816141d1576141d161410d565b506000190190565b60008160001904831182151516156141f3576141f361410d565b500290565b60008282101561420a5761420a61410d565b500390565b600082198211156142225761422261410d565b500190565b600181815b808511156142625781600019048211156142485761424861410d565b8085161561425557918102915b93841c939080029061422c565b509250929050565b60008261427957506001610a1c565b8161428657506000610a1c565b816001811461429c57600281146142a6576142c2565b6001915050610a1c565b60ff8411156142b7576142b761410d565b50506001821b610a1c565b5060208310610133831016604e8410600b84101617156142e5575081810a610a1c565b6142ef8383614227565b80600019048211156143035761430361410d565b029392505050565b6000611451838361426a565b60008351614329818460208801613a29565b630bd8da5960e21b908301908152602f60f81b60048201528351614354816005840160208801613a29565b01600501949350505050565b6020808252602e908201527f496e697469616c697a61626c653a20636f6e747261637420697320616c72656160408201526d191e481a5b9a5d1a585b1a5e995960921b606082015260800190565b7f416363657373436f6e74726f6c3a206163636f756e74200000000000000000008152600083516143e6816017850160208801613a29565b7001034b99036b4b9b9b4b733903937b6329607d1b6017918401918201528351614417816028840160208801613a29565b01602801949350505050565b60008451614435818460208901613a29565b8083019050602f60f81b8082528551614455816001850160208a01613a29565b60019201918201528351614470816002840160208801613a29565b0160020195945050505050565b60208082526028908201527f455243313135353a2069647320616e6420616d6f756e7473206c656e677468206040820152670dad2e6dac2e8c6d60c31b606082015260800190565b60208082526025908201527f455243313135353a207472616e7366657220746f20746865207a65726f206164604082015264647265737360d81b606082015260800190565b6020808252602a908201527f455243313135353a20696e73756666696369656e742062616c616e636520666f60408201526939103a3930b739b332b960b11b606082015260800190565b6040815260006145676040830185613d2b565b82810360208401526131868185613d2b565b60208082526023908201527f455243313135353a206275726e2066726f6d20746865207a65726f206164647260408201526265737360e81b606082015260800190565b60208082526024908201527f455243313135353a206275726e20616d6f756e7420657863656564732062616c604082015263616e636560e01b606082015260800190565b60208082526021908201527f54686520616d6f756e74206d7573742062652067726561746572207468616e206040820152600360fc1b606082015260800190565b60008251614653818460208701613a29565b9190910192915050565b600080835481600182811c91508083168061467957607f831692505b602080841082141561469957634e487b7160e01b86526022600452602486fd5b8180156146ad57600181146146be576146eb565b60ff198616895284890196506146eb565b60008a81526020902060005b868110156146e35781548b8201529085019083016146ca565b505084890196505b509498975050505050505050565b634e487b7160e01b600052603160045260246000fd5b60008261472c57634e487b7160e01b600052601260045260246000fd5b500490565b600060ff821660ff84168060ff0382111561474e5761474e61410d565b019392505050565b60008351614768818460208801613a29565b7f726172697479206f6e6c7920746f74616c537570706c790000000000000000009201918252506017810191909152603701919050565b6001600160a01b0386811682528516602082015260a0604082018190526000906147cb90830186613d2b565b82810360608401526147dd8186613d2b565b905082810360808401526147f18185613a55565b98975050505050505050565b60006020828403121561480f57600080fd5b8151611451816138cf565b600060033d11156148335760046000803e5060005160e01c5b90565b600060443d10156148445790565b6040516003193d81016004833e81513d6001600160401b03816024840111818411171561487357505050505090565b828501915081518181111561488b5750505050505090565b843d87010160208285010111156148a55750505050505090565b6148b460208286010187613918565b509095945050505050565b60208082526028908201527f455243313135353a204552433131353552656365697665722072656a656374656040820152676420746f6b656e7360c01b606082015260800190565b6001600160a01b03868116825285166020820152604081018490526060810183905260a06080820181905260009061494190830184613a55565b97965050505050505056fe416464726573733a206c6f772d6c6576656c2064656c65676174652063616c6c206661696c6564f5eb84615c2a00ecaf817d13794ebd6299c9e01c395bf4018453f13f577f5449a2646970667358221220c79cb51989c8ec63c173a740c5a56ce5378be2fddf0f6a22b774f9ef816df89264736f6c63430008090033",
  "immutableReferences": {
    "1023": [
      {
        "length": 32,
        "start": 3140
      },
      {
        "length": 32,
        "start": 3204
      },
      {
        "length": 32,
        "start": 3651
      },
      {
        "length": 32,
        "start": 3715
      }
    ]
  },
  "source": "// SPDX-License-Identifier: MIT\npragma solidity 0.8.9;\n\nimport \"@openzeppelin/contracts-upgradeable/token/ERC1155/ERC1155Upgradeable.sol\";\nimport \"@openzeppelin/contracts-upgradeable/access/AccessControlUpgradeable.sol\";\nimport \"@openzeppelin/contracts-upgradeable/token/ERC1155/extensions/ERC1155BurnableUpgradeable.sol\";\nimport \"@openzeppelin/contracts-upgradeable/proxy/utils/Initializable.sol\";\nimport \"@openzeppelin/contracts-upgradeable/proxy/utils/UUPSUpgradeable.sol\";\nimport \"./Meland1155Rarity.sol\";\nimport \"./MelandAccessRoles.sol\";\nimport \"./MelandTier.sol\";\nimport \"./Meland1155StoreItem.sol\";\n\ncontract Meland1155Placeable is\n    Initializable,\n    Meland1155Rarity,\n    MelandAccessRoles,\n    Meland1155StoreItem,\n    UUPSUpgradeable\n{\n    function initialize(string memory uri) public initializer {\n        __UUPSUpgradeable_init();\n        __Meland1155Rarity_init(uri);\n        __MelandAccessRoles_init();\n    }\n\n    function setURI(string memory newuri) public onlyRole(GM_ROLE) {\n        _setURI(newuri);\n    }\n\n    function setMelandTier(MelandTier _tierAddress) public onlyRole(GM_ROLE) {\n        _setMelandTier(_tierAddress);\n    }\n\n    function melandStoreItemURI(string memory symbol)\n        external\n        view\n        returns (string memory)\n    {\n        return string(abi.encodePacked(super.uri(0), \"/cid\", \"/\", symbol));\n    }\n\n    function mint(\n        address account,\n        uint256 cid,\n        uint256 amount,\n        bytes memory _rarity\n    ) public onlyRole(MINTER_ROLE) returns(uint256[] memory) {\n        return _mintReturnTokenIds(account, cid, amount, _rarity);\n    }\n\n    function setRarity(string memory _rarity, uint256 mintMax) onlyRole(GM_ROLE) public {\n        bytes memory rarity = bytes(_rarity);\n        _setRarity(rarity, mintMax);\n    }\n\n    function _authorizeUpgrade(address newImplementation)\n        internal\n        override\n        onlyRole(UPGRADER_ROLE)\n    {}\n\n    // The following functions are overrides required by Solidity.\n\n    function supportsInterface(bytes4 interfaceId)\n        public\n        view\n        override(ERC1155Upgradeable, AccessControlUpgradeable)\n        returns (bool)\n    {\n        return super.supportsInterface(interfaceId);\n    }\n\n\n    // store item impl ----\n     function setAcceptedToken(IERC20Upgradeable token)\n        external\n        onlyRole(GM_ROLE)\n    {\n        _setAcceptedToken(token);\n    }\n\n    function setStore(NFTStore s) external onlyRole(GM_ROLE) {\n        _setStore(s);\n    }\n\n    function setStoreItem(string memory symbol, uint256 price)\n        external\n        onlyRole(GM_ROLE)\n    {\n        _setStoreItem(symbol, price);\n    }\n\n    function delStoreItem(string memory symbol) external onlyRole(GM_ROLE) {\n        _delStoreItem(symbol);\n    }\n\n    // If return ture, means that the mall will only have the specified id\n    // Else otherwise it will be linear mint\n    // The ids Must ensure that you can mint,\n    // If multi-channel sales or mint, you need to filter out the ids that have been minted,\n    // To prevent errors in the sales process\n    function melandStoreItemsRestrictPurchaseNFTIds(string memory)\n        external\n        pure\n        returns (bool, uint256[] memory)\n    {\n        uint256[] memory ids;\n        return (false, ids);\n    }\n\n    // Store to pay NFT to the selling user by calling this function,\n    // For security reasons, be sure to control the permissions to allow only MelandStore contracts to call\n    // If melandStoreItemsRestrictPurchaseNFTIds return false, the id as zero.\n    function melandStoreItemsMint(\n        string memory symbol,\n        uint256 id,\n        address to\n    ) external override {\n        super.checkMelandStoreItemsMint(symbol, id, to);\n        uint256 cid = _bytestoUint256(symbol);\n        _mint(to, cid, 1, \"\");\n        _dispatchItemInfoUpdate();\n    }\n\n    // If return false, Stores will suspend sales.\n    function melandStoreSellStatus(string memory symbol)\n        external\n        view\n        returns (bool isSelling)\n    {\n        uint256 cid = _bytestoUint256(symbol);\n        uint256 mintMax = _getMintMaxByCId(cid);\n        isSelling = totalSupplyByCId(cid) < mintMax;\n    }\n\n    // If return true, it means that each person can only buy a certain amount\n    function melandStoreItemsRestrictedPurchase(string memory)\n        external\n        pure\n        returns (bool restricted, uint256 restrictLimit)\n    {\n        restricted = false;\n        restrictLimit = 0;\n    }\n}",
  "sourcePath": "/Users/alberthuang/code/icw/meland/contracts/Meland1155Placeable.sol",
  "compiler": {
    "name": "solc",
    "version": "0.8.9+commit.e5eed63a.Emscripten.clang"
  },
  "schemaVersion": "3.4.3",
  "updatedAt": "2021-12-26T08:21:15.908Z",
  "devdoc": {
    "kind": "dev",
    "methods": {
      "balanceOf(address,uint256)": {
        "details": "See {IERC1155-balanceOf}. Requirements: - `account` cannot be the zero address."
      },
      "balanceOfBatch(address[],uint256[])": {
        "details": "See {IERC1155-balanceOfBatch}. Requirements: - `accounts` and `ids` must have the same length."
      },
      "getRoleAdmin(bytes32)": {
        "details": "Returns the admin role that controls `role`. See {grantRole} and {revokeRole}. To change a role's admin, use {_setRoleAdmin}."
      },
      "grantRole(bytes32,address)": {
        "details": "Grants `role` to `account`. If `account` had not been already granted `role`, emits a {RoleGranted} event. Requirements: - the caller must have ``role``'s admin role."
      },
      "hasRole(bytes32,address)": {
        "details": "Returns `true` if `account` has been granted `role`."
      },
      "renounceRole(bytes32,address)": {
        "details": "Revokes `role` from the calling account. Roles are often managed via {grantRole} and {revokeRole}: this function's purpose is to provide a mechanism for accounts to lose their privileges if they are compromised (such as when a trusted device is misplaced). If the calling account had been revoked `role`, emits a {RoleRevoked} event. Requirements: - the caller must be `account`."
      },
      "revokeRole(bytes32,address)": {
        "details": "Revokes `role` from `account`. If `account` had been granted `role`, emits a {RoleRevoked} event. Requirements: - the caller must have ``role``'s admin role."
      },
      "safeBatchTransferFrom(address,address,uint256[],uint256[],bytes)": {
        "details": "See {IERC1155-safeBatchTransferFrom}."
      },
      "safeTransferFrom(address,address,uint256,uint256,bytes)": {
        "details": "See {IERC1155-safeTransferFrom}."
      },
      "setApprovalForAll(address,bool)": {
        "details": "See {IERC1155-setApprovalForAll}."
      },
      "upgradeTo(address)": {
        "details": "Upgrade the implementation of the proxy to `newImplementation`. Calls {_authorizeUpgrade}. Emits an {Upgraded} event."
      },
      "upgradeToAndCall(address,bytes)": {
        "details": "Upgrade the implementation of the proxy to `newImplementation`, and subsequently execute the function call encoded in `data`. Calls {_authorizeUpgrade}. Emits an {Upgraded} event."
      }
    },
    "version": 1
  },
  "userdoc": {
    "kind": "user",
    "methods": {},
    "version": 1
  }
}