{
  "contractName": "Meland1155Wearable",
  "abi": [
    {
      "anonymous": false,
      "inputs": [
        {
          "indexed": false,
          "internalType": "address",
          "name": "previousAdmin",
          "type": "address"
        },
        {
          "indexed": false,
          "internalType": "address",
          "name": "newAdmin",
          "type": "address"
        }
      ],
      "name": "AdminChanged",
      "type": "event"
    },
    {
      "anonymous": false,
      "inputs": [
        {
          "indexed": true,
          "internalType": "address",
          "name": "account",
          "type": "address"
        },
        {
          "indexed": true,
          "internalType": "address",
          "name": "operator",
          "type": "address"
        },
        {
          "indexed": false,
          "internalType": "bool",
          "name": "approved",
          "type": "bool"
        }
      ],
      "name": "ApprovalForAll",
      "type": "event"
    },
    {
      "anonymous": false,
      "inputs": [
        {
          "indexed": true,
          "internalType": "address",
          "name": "beacon",
          "type": "address"
        }
      ],
      "name": "BeaconUpgraded",
      "type": "event"
    },
    {
      "anonymous": false,
      "inputs": [
        {
          "indexed": false,
          "internalType": "bool",
          "name": "_freezeEnabled",
          "type": "bool"
        }
      ],
      "name": "FreezeEnabledUpdate",
      "type": "event"
    },
    {
      "anonymous": false,
      "inputs": [
        {
          "indexed": true,
          "internalType": "bytes",
          "name": "rarity",
          "type": "bytes"
        },
        {
          "indexed": false,
          "internalType": "uint256",
          "name": "mintMax",
          "type": "uint256"
        }
      ],
      "name": "RarityUpdate",
      "type": "event"
    },
    {
      "anonymous": false,
      "inputs": [
        {
          "indexed": true,
          "internalType": "bytes32",
          "name": "role",
          "type": "bytes32"
        },
        {
          "indexed": true,
          "internalType": "bytes32",
          "name": "previousAdminRole",
          "type": "bytes32"
        },
        {
          "indexed": true,
          "internalType": "bytes32",
          "name": "newAdminRole",
          "type": "bytes32"
        }
      ],
      "name": "RoleAdminChanged",
      "type": "event"
    },
    {
      "anonymous": false,
      "inputs": [
        {
          "indexed": true,
          "internalType": "bytes32",
          "name": "role",
          "type": "bytes32"
        },
        {
          "indexed": true,
          "internalType": "address",
          "name": "account",
          "type": "address"
        },
        {
          "indexed": true,
          "internalType": "address",
          "name": "sender",
          "type": "address"
        }
      ],
      "name": "RoleGranted",
      "type": "event"
    },
    {
      "anonymous": false,
      "inputs": [
        {
          "indexed": true,
          "internalType": "bytes32",
          "name": "role",
          "type": "bytes32"
        },
        {
          "indexed": true,
          "internalType": "address",
          "name": "account",
          "type": "address"
        },
        {
          "indexed": true,
          "internalType": "address",
          "name": "sender",
          "type": "address"
        }
      ],
      "name": "RoleRevoked",
      "type": "event"
    },
    {
      "anonymous": false,
      "inputs": [
        {
          "indexed": true,
          "internalType": "address",
          "name": "operator",
          "type": "address"
        },
        {
          "indexed": true,
          "internalType": "address",
          "name": "from",
          "type": "address"
        },
        {
          "indexed": true,
          "internalType": "address",
          "name": "to",
          "type": "address"
        },
        {
          "indexed": false,
          "internalType": "uint256[]",
          "name": "ids",
          "type": "uint256[]"
        },
        {
          "indexed": false,
          "internalType": "uint256[]",
          "name": "values",
          "type": "uint256[]"
        }
      ],
      "name": "TransferBatch",
      "type": "event"
    },
    {
      "anonymous": false,
      "inputs": [
        {
          "indexed": true,
          "internalType": "address",
          "name": "operator",
          "type": "address"
        },
        {
          "indexed": true,
          "internalType": "address",
          "name": "from",
          "type": "address"
        },
        {
          "indexed": true,
          "internalType": "address",
          "name": "to",
          "type": "address"
        },
        {
          "indexed": false,
          "internalType": "uint256",
          "name": "id",
          "type": "uint256"
        },
        {
          "indexed": false,
          "internalType": "uint256",
          "name": "value",
          "type": "uint256"
        }
      ],
      "name": "TransferSingle",
      "type": "event"
    },
    {
      "anonymous": false,
      "inputs": [
        {
          "indexed": false,
          "internalType": "string",
          "name": "value",
          "type": "string"
        },
        {
          "indexed": true,
          "internalType": "uint256",
          "name": "id",
          "type": "uint256"
        }
      ],
      "name": "URI",
      "type": "event"
    },
    {
      "anonymous": false,
      "inputs": [
        {
          "indexed": true,
          "internalType": "address",
          "name": "implementation",
          "type": "address"
        }
      ],
      "name": "Upgraded",
      "type": "event"
    },
    {
      "inputs": [],
      "name": "DEFAULT_ADMIN_ROLE",
      "outputs": [
        {
          "internalType": "bytes32",
          "name": "",
          "type": "bytes32"
        }
      ],
      "stateMutability": "view",
      "type": "function",
      "constant": true
    },
    {
      "inputs": [],
      "name": "GM_ROLE",
      "outputs": [
        {
          "internalType": "bytes32",
          "name": "",
          "type": "bytes32"
        }
      ],
      "stateMutability": "view",
      "type": "function",
      "constant": true
    },
    {
      "inputs": [],
      "name": "MINTER_ROLE",
      "outputs": [
        {
          "internalType": "bytes32",
          "name": "",
          "type": "bytes32"
        }
      ],
      "stateMutability": "view",
      "type": "function",
      "constant": true
    },
    {
      "inputs": [],
      "name": "UPGRADER_ROLE",
      "outputs": [
        {
          "internalType": "bytes32",
          "name": "",
          "type": "bytes32"
        }
      ],
      "stateMutability": "view",
      "type": "function",
      "constant": true
    },
    {
      "inputs": [
        {
          "internalType": "string",
          "name": "",
          "type": "string"
        }
      ],
      "name": "acceptedToken",
      "outputs": [
        {
          "internalType": "contract IERC20Upgradeable",
          "name": "",
          "type": "address"
        }
      ],
      "stateMutability": "view",
      "type": "function",
      "constant": true
    },
    {
      "inputs": [
        {
          "internalType": "address",
          "name": "account",
          "type": "address"
        },
        {
          "internalType": "uint256",
          "name": "id",
          "type": "uint256"
        }
      ],
      "name": "balanceOf",
      "outputs": [
        {
          "internalType": "uint256",
          "name": "",
          "type": "uint256"
        }
      ],
      "stateMutability": "view",
      "type": "function",
      "constant": true
    },
    {
      "inputs": [
        {
          "internalType": "address[]",
          "name": "accounts",
          "type": "address[]"
        },
        {
          "internalType": "uint256[]",
          "name": "ids",
          "type": "uint256[]"
        }
      ],
      "name": "balanceOfBatch",
      "outputs": [
        {
          "internalType": "uint256[]",
          "name": "",
          "type": "uint256[]"
        }
      ],
      "stateMutability": "view",
      "type": "function",
      "constant": true
    },
    {
      "inputs": [
        {
          "internalType": "address",
          "name": "account",
          "type": "address"
        },
        {
          "internalType": "uint256",
          "name": "id",
          "type": "uint256"
        },
        {
          "internalType": "uint256",
          "name": "value",
          "type": "uint256"
        }
      ],
      "name": "burn",
      "outputs": [],
      "stateMutability": "nonpayable",
      "type": "function"
    },
    {
      "inputs": [
        {
          "internalType": "address",
          "name": "account",
          "type": "address"
        },
        {
          "internalType": "uint256[]",
          "name": "ids",
          "type": "uint256[]"
        },
        {
          "internalType": "uint256[]",
          "name": "values",
          "type": "uint256[]"
        }
      ],
      "name": "burnBatch",
      "outputs": [],
      "stateMutability": "nonpayable",
      "type": "function"
    },
    {
      "inputs": [
        {
          "internalType": "uint256",
          "name": "id",
          "type": "uint256"
        }
      ],
      "name": "getCidByTokenId",
      "outputs": [
        {
          "internalType": "uint256",
          "name": "",
          "type": "uint256"
        }
      ],
      "stateMutability": "view",
      "type": "function",
      "constant": true
    },
    {
      "inputs": [
        {
          "internalType": "uint256",
          "name": "cid",
          "type": "uint256"
        }
      ],
      "name": "getRarityByCId",
      "outputs": [
        {
          "internalType": "string",
          "name": "",
          "type": "string"
        }
      ],
      "stateMutability": "view",
      "type": "function",
      "constant": true
    },
    {
      "inputs": [
        {
          "internalType": "uint256",
          "name": "id",
          "type": "uint256"
        }
      ],
      "name": "getRarityById",
      "outputs": [
        {
          "internalType": "string",
          "name": "",
          "type": "string"
        }
      ],
      "stateMutability": "view",
      "type": "function",
      "constant": true
    },
    {
      "inputs": [
        {
          "internalType": "bytes32",
          "name": "role",
          "type": "bytes32"
        }
      ],
      "name": "getRoleAdmin",
      "outputs": [
        {
          "internalType": "bytes32",
          "name": "",
          "type": "bytes32"
        }
      ],
      "stateMutability": "view",
      "type": "function",
      "constant": true
    },
    {
      "inputs": [
        {
          "internalType": "bytes32",
          "name": "role",
          "type": "bytes32"
        },
        {
          "internalType": "address",
          "name": "account",
          "type": "address"
        }
      ],
      "name": "grantRole",
      "outputs": [],
      "stateMutability": "nonpayable",
      "type": "function"
    },
    {
      "inputs": [
        {
          "internalType": "bytes32",
          "name": "role",
          "type": "bytes32"
        },
        {
          "internalType": "address",
          "name": "account",
          "type": "address"
        }
      ],
      "name": "hasRole",
      "outputs": [
        {
          "internalType": "bool",
          "name": "",
          "type": "bool"
        }
      ],
      "stateMutability": "view",
      "type": "function",
      "constant": true
    },
    {
      "inputs": [
        {
          "internalType": "address",
          "name": "_owner",
          "type": "address"
        },
        {
          "internalType": "address",
          "name": "_operator",
          "type": "address"
        }
      ],
      "name": "isApprovedForAll",
      "outputs": [
        {
          "internalType": "bool",
          "name": "isOperator",
          "type": "bool"
        }
      ],
      "stateMutability": "view",
      "type": "function",
      "constant": true
    },
    {
      "inputs": [],
      "name": "melandStoreItems",
      "outputs": [
        {
          "internalType": "string[]",
          "name": "",
          "type": "string[]"
        },
        {
          "internalType": "uint256[]",
          "name": "",
          "type": "uint256[]"
        }
      ],
      "stateMutability": "view",
      "type": "function",
      "constant": true
    },
    {
      "inputs": [
        {
          "internalType": "string",
          "name": "",
          "type": "string"
        }
      ],
      "name": "melandStoreReceipt",
      "outputs": [
        {
          "internalType": "address",
          "name": "receipt",
          "type": "address"
        }
      ],
      "stateMutability": "pure",
      "type": "function",
      "constant": true
    },
    {
      "inputs": [
        {
          "internalType": "bytes32",
          "name": "",
          "type": "bytes32"
        }
      ],
      "name": "mintMaxByRaritykeccak256",
      "outputs": [
        {
          "internalType": "uint256",
          "name": "",
          "type": "uint256"
        }
      ],
      "stateMutability": "view",
      "type": "function",
      "constant": true
    },
    {
      "inputs": [
        {
          "internalType": "string",
          "name": "_a",
          "type": "string"
        }
      ],
      "name": "parseInt",
      "outputs": [
        {
          "internalType": "uint256",
          "name": "_parsedInt",
          "type": "uint256"
        }
      ],
      "stateMutability": "pure",
      "type": "function",
      "constant": true
    },
    {
      "inputs": [
        {
          "internalType": "string",
          "name": "_a",
          "type": "string"
        },
        {
          "internalType": "uint256",
          "name": "_b",
          "type": "uint256"
        }
      ],
      "name": "parseInt",
      "outputs": [
        {
          "internalType": "uint256",
          "name": "_parsedInt",
          "type": "uint256"
        }
      ],
      "stateMutability": "pure",
      "type": "function",
      "constant": true
    },
    {
      "inputs": [
        {
          "internalType": "bytes32",
          "name": "role",
          "type": "bytes32"
        },
        {
          "internalType": "address",
          "name": "account",
          "type": "address"
        }
      ],
      "name": "renounceRole",
      "outputs": [],
      "stateMutability": "nonpayable",
      "type": "function"
    },
    {
      "inputs": [
        {
          "internalType": "bytes32",
          "name": "role",
          "type": "bytes32"
        },
        {
          "internalType": "address",
          "name": "account",
          "type": "address"
        }
      ],
      "name": "revokeRole",
      "outputs": [],
      "stateMutability": "nonpayable",
      "type": "function"
    },
    {
      "inputs": [
        {
          "internalType": "address",
          "name": "from",
          "type": "address"
        },
        {
          "internalType": "address",
          "name": "to",
          "type": "address"
        },
        {
          "internalType": "uint256[]",
          "name": "ids",
          "type": "uint256[]"
        },
        {
          "internalType": "uint256[]",
          "name": "amounts",
          "type": "uint256[]"
        },
        {
          "internalType": "bytes",
          "name": "data",
          "type": "bytes"
        }
      ],
      "name": "safeBatchTransferFrom",
      "outputs": [],
      "stateMutability": "nonpayable",
      "type": "function"
    },
    {
      "inputs": [
        {
          "internalType": "string",
          "name": "_a",
          "type": "string"
        }
      ],
      "name": "safeParseInt",
      "outputs": [
        {
          "internalType": "uint256",
          "name": "_parsedInt",
          "type": "uint256"
        }
      ],
      "stateMutability": "pure",
      "type": "function",
      "constant": true
    },
    {
      "inputs": [
        {
          "internalType": "string",
          "name": "_a",
          "type": "string"
        },
        {
          "internalType": "uint256",
          "name": "_b",
          "type": "uint256"
        }
      ],
      "name": "safeParseInt",
      "outputs": [
        {
          "internalType": "uint256",
          "name": "_parsedInt",
          "type": "uint256"
        }
      ],
      "stateMutability": "pure",
      "type": "function",
      "constant": true
    },
    {
      "inputs": [
        {
          "internalType": "address",
          "name": "from",
          "type": "address"
        },
        {
          "internalType": "address",
          "name": "to",
          "type": "address"
        },
        {
          "internalType": "uint256",
          "name": "id",
          "type": "uint256"
        },
        {
          "internalType": "uint256",
          "name": "amount",
          "type": "uint256"
        },
        {
          "internalType": "bytes",
          "name": "data",
          "type": "bytes"
        }
      ],
      "name": "safeTransferFrom",
      "outputs": [],
      "stateMutability": "nonpayable",
      "type": "function"
    },
    {
      "inputs": [
        {
          "internalType": "address",
          "name": "operator",
          "type": "address"
        },
        {
          "internalType": "bool",
          "name": "approved",
          "type": "bool"
        }
      ],
      "name": "setApprovalForAll",
      "outputs": [],
      "stateMutability": "nonpayable",
      "type": "function"
    },
    {
      "inputs": [
        {
          "internalType": "uint256",
          "name": "id",
          "type": "uint256"
        }
      ],
      "name": "totalSupply",
      "outputs": [
        {
          "internalType": "uint256",
          "name": "",
          "type": "uint256"
        }
      ],
      "stateMutability": "view",
      "type": "function",
      "constant": true
    },
    {
      "inputs": [
        {
          "internalType": "uint256",
          "name": "cid",
          "type": "uint256"
        }
      ],
      "name": "totalSupplyByCId",
      "outputs": [
        {
          "internalType": "uint256",
          "name": "",
          "type": "uint256"
        }
      ],
      "stateMutability": "view",
      "type": "function",
      "constant": true
    },
    {
      "inputs": [
        {
          "internalType": "address",
          "name": "newImplementation",
          "type": "address"
        }
      ],
      "name": "upgradeTo",
      "outputs": [],
      "stateMutability": "nonpayable",
      "type": "function"
    },
    {
      "inputs": [
        {
          "internalType": "address",
          "name": "newImplementation",
          "type": "address"
        },
        {
          "internalType": "bytes",
          "name": "data",
          "type": "bytes"
        }
      ],
      "name": "upgradeToAndCall",
      "outputs": [],
      "stateMutability": "payable",
      "type": "function",
      "payable": true
    },
    {
      "inputs": [
        {
          "internalType": "uint256",
          "name": "id",
          "type": "uint256"
        }
      ],
      "name": "uri",
      "outputs": [
        {
          "internalType": "string",
          "name": "",
          "type": "string"
        }
      ],
      "stateMutability": "view",
      "type": "function",
      "constant": true
    },
    {
      "inputs": [
        {
          "internalType": "string",
          "name": "uri",
          "type": "string"
        }
      ],
      "name": "initialize",
      "outputs": [],
      "stateMutability": "nonpayable",
      "type": "function"
    },
    {
      "inputs": [
        {
          "internalType": "string",
          "name": "newuri",
          "type": "string"
        }
      ],
      "name": "setURI",
      "outputs": [],
      "stateMutability": "nonpayable",
      "type": "function"
    },
    {
      "inputs": [
        {
          "internalType": "string",
          "name": "symbol",
          "type": "string"
        }
      ],
      "name": "melandStoreItemURI",
      "outputs": [
        {
          "internalType": "string",
          "name": "",
          "type": "string"
        }
      ],
      "stateMutability": "view",
      "type": "function",
      "constant": true
    },
    {
      "inputs": [
        {
          "internalType": "address",
          "name": "account",
          "type": "address"
        },
        {
          "internalType": "uint256",
          "name": "cid",
          "type": "uint256"
        },
        {
          "internalType": "uint256",
          "name": "amount",
          "type": "uint256"
        }
      ],
      "name": "mint",
      "outputs": [
        {
          "internalType": "uint256[]",
          "name": "",
          "type": "uint256[]"
        }
      ],
      "stateMutability": "nonpayable",
      "type": "function"
    },
    {
      "inputs": [
        {
          "internalType": "bytes",
          "name": "_rarity",
          "type": "bytes"
        },
        {
          "internalType": "uint256",
          "name": "mintMax",
          "type": "uint256"
        }
      ],
      "name": "setRarity",
      "outputs": [],
      "stateMutability": "nonpayable",
      "type": "function"
    },
    {
      "inputs": [
        {
          "internalType": "uint256",
          "name": "cid",
          "type": "uint256"
        },
        {
          "internalType": "bytes",
          "name": "_rarity",
          "type": "bytes"
        }
      ],
      "name": "setCIDRarity",
      "outputs": [],
      "stateMutability": "nonpayable",
      "type": "function"
    },
    {
      "inputs": [
        {
          "internalType": "contract MelandTier",
          "name": "_tierAddress",
          "type": "address"
        }
      ],
      "name": "setMelandTier",
      "outputs": [],
      "stateMutability": "nonpayable",
      "type": "function"
    },
    {
      "inputs": [
        {
          "internalType": "bytes4",
          "name": "interfaceId",
          "type": "bytes4"
        }
      ],
      "name": "supportsInterface",
      "outputs": [
        {
          "internalType": "bool",
          "name": "",
          "type": "bool"
        }
      ],
      "stateMutability": "view",
      "type": "function",
      "constant": true
    },
    {
      "inputs": [
        {
          "internalType": "contract IERC20Upgradeable",
          "name": "token",
          "type": "address"
        }
      ],
      "name": "setAcceptedToken",
      "outputs": [],
      "stateMutability": "nonpayable",
      "type": "function"
    },
    {
      "inputs": [
        {
          "internalType": "contract NFTStore",
          "name": "s",
          "type": "address"
        }
      ],
      "name": "setStore",
      "outputs": [],
      "stateMutability": "nonpayable",
      "type": "function"
    },
    {
      "inputs": [
        {
          "internalType": "string",
          "name": "symbol",
          "type": "string"
        },
        {
          "internalType": "uint256",
          "name": "price",
          "type": "uint256"
        }
      ],
      "name": "setStoreItem",
      "outputs": [],
      "stateMutability": "nonpayable",
      "type": "function"
    },
    {
      "inputs": [
        {
          "internalType": "string",
          "name": "symbol",
          "type": "string"
        }
      ],
      "name": "delStoreItem",
      "outputs": [],
      "stateMutability": "nonpayable",
      "type": "function"
    },
    {
      "inputs": [
        {
          "internalType": "string",
          "name": "",
          "type": "string"
        }
      ],
      "name": "melandStoreItemsRestrictPurchaseNFTIds",
      "outputs": [
        {
          "internalType": "bool",
          "name": "",
          "type": "bool"
        },
        {
          "internalType": "uint256[]",
          "name": "",
          "type": "uint256[]"
        }
      ],
      "stateMutability": "pure",
      "type": "function",
      "constant": true
    },
    {
      "inputs": [
        {
          "internalType": "string",
          "name": "symbol",
          "type": "string"
        },
        {
          "internalType": "uint256",
          "name": "id",
          "type": "uint256"
        },
        {
          "internalType": "address",
          "name": "to",
          "type": "address"
        }
      ],
      "name": "melandStoreItemsMint",
      "outputs": [],
      "stateMutability": "nonpayable",
      "type": "function"
    },
    {
      "inputs": [
        {
          "internalType": "string",
          "name": "symbol",
          "type": "string"
        }
      ],
      "name": "test",
      "outputs": [
        {
          "internalType": "uint256",
          "name": "",
          "type": "uint256"
        }
      ],
      "stateMutability": "pure",
      "type": "function",
      "constant": true
    },
    {
      "inputs": [
        {
          "internalType": "string",
          "name": "symbol",
          "type": "string"
        }
      ],
      "name": "melandStoreSellStatus",
      "outputs": [
        {
          "internalType": "bool",
          "name": "",
          "type": "bool"
        }
      ],
      "stateMutability": "view",
      "type": "function",
      "constant": true
    },
    {
      "inputs": [
        {
          "internalType": "string",
          "name": "",
          "type": "string"
        }
      ],
      "name": "melandStoreItemsRestrictedPurchase",
      "outputs": [
        {
          "internalType": "bool",
          "name": "restricted",
          "type": "bool"
        },
        {
          "internalType": "uint256",
          "name": "restrictLimit",
          "type": "uint256"
        }
      ],
      "stateMutability": "pure",
      "type": "function",
      "constant": true
    }
  ],
  "bytecode": "0x60a06040523060805234801561001457600080fd5b50608051614a5e61004560003960008181610d0401528181610d4401528181610f030152610f430152614a5e6000f3fe6080604052600436106102c85760003560e01c806390ad941d11610175578063d3186324116100dc578063f405a58411610095578063f70e9a471161006f578063f70e9a471461095c578063f72c0d8b1461097c578063f9fbd554146109b0578063fcc6dd57146109d057600080fd5b8063f405a584146108fc578063f5298aca1461091c578063f62d18881461093c57600080fd5b8063d31863241461081b578063d539139314610848578063d547741f1461087c578063e985e9c51461089c578063ed9be432146108bc578063f242432a146108dc57600080fd5b8063a649e7a51161012e578063a649e7a51461074e578063b0c208bc1461077b578063bd85b0391461079b578063bdb7b5dd146107bb578063be7cbe75146107db578063bf4d89b5146107fb57600080fd5b806390ad941d1461068757806391d14854146106a75780639294f212146106c75780639f89e769146106e7578063a217fddf14610719578063a22cb4651461072e57600080fd5b806330c7be2c116102345780634f1ef286116101ed5780636b20c454116101c75780636b20c454146106045780637487f5281461062457806377937c05146106445780638b31e62d1461066457600080fd5b80634f1ef286146105855780635eccb30c14610598578063664033d5146105b857600080fd5b806330c7be2c146104b657806336568abe146104d85780633659cfe6146104f85780633ef780bc1461051857806342346c5e146105455780634e1273f41461056557600080fd5b8063156e29f611610286578063156e29f6146103d95780631a8c2e80146104065780631ba43d2b14610426578063248a9ca3146104465780632eb2c2d6146104765780632f2ff15d1461049657600080fd5b8062fdd58e146102cd57806301ffc9a71461030057806302fe5305146103305780630820c90d14610352578063087cbd401461038c5780630e89341c146103ac575b600080fd5b3480156102d957600080fd5b506102ed6102e8366004613963565b6109fc565b6040519081526020015b60405180910390f35b34801561030c57600080fd5b5061032061031b3660046139a5565b610a98565b60405190151581526020016102f7565b34801561033c57600080fd5b5061035061034b366004613a77565b610aa3565b005b34801561035e57600080fd5b5061037561036d366004613a77565b506000908190565b6040805192151583526020830191909152016102f7565b34801561039857600080fd5b506103506103a7366004613ab3565b610ac9565b3480156103b857600080fd5b506103cc6103c7366004613ad0565b610aeb565b6040516102f79190613b41565b3480156103e557600080fd5b506103f96103f4366004613b54565b610af6565b6040516102f79190613bc4565b34801561041257600080fd5b50610350610421366004613bd7565b610b47565b34801561043257600080fd5b50610320610441366004613a77565b610b89565b34801561045257600080fd5b506102ed610461366004613ad0565b600090815260cf602052604090206001015490565b34801561048257600080fd5b50610350610491366004613cc5565b610bbd565b3480156104a257600080fd5b506103506104b1366004613d72565b610c54565b3480156104c257600080fd5b506102ed600080516020614a0983398151915281565b3480156104e457600080fd5b506103506104f3366004613d72565b610c7f565b34801561050457600080fd5b50610350610513366004613ab3565b610cf9565b34801561052457600080fd5b506102ed610533366004613ad0565b600090815260ca602052604090205490565b34801561055157600080fd5b506102ed610560366004613a77565b610dc2565b34801561057157600080fd5b506103f9610580366004613da2565b610dcf565b610350610593366004613e6e565b610ef8565b3480156105a457600080fd5b506102ed6105b3366004613a77565b610fae565b3480156105c457600080fd5b506105ec6105d3366004613a77565b5073fced262e4949b7b5c4177b4e0ad8e974cc7493bf90565b6040516001600160a01b0390911681526020016102f7565b34801561061057600080fd5b5061035061061f366004613eb3565b610fbb565b34801561063057600080fd5b5061035061063f366004613ab3565b610ffe565b34801561065057600080fd5b5061035061065f366004613f28565b611020565b34801561067057600080fd5b50610679611043565b6040516102f7929190613f58565b34801561069357600080fd5b506103cc6106a2366004613ad0565b611179565b3480156106b357600080fd5b506103206106c2366004613d72565b61121b565b3480156106d357600080fd5b506103506106e2366004613fc5565b611246565b3480156106f357600080fd5b5061070b610702366004613a77565b50600090606090565b6040516102f7929190614009565b34801561072557600080fd5b506102ed600081565b34801561073a57600080fd5b50610350610749366004614024565b611269565b34801561075a57600080fd5b506102ed610769366004613ad0565b60cd6020526000908152604090205481565b34801561078757600080fd5b50610350610796366004613a77565b611274565b3480156107a757600080fd5b506102ed6107b6366004613ad0565b611296565b3480156107c757600080fd5b506103506107d6366004613fc5565b6112c8565b3480156107e757600080fd5b506103cc6107f6366004613ad0565b6112eb565b34801561080757600080fd5b506102ed610816366004613fc5565b6113a1565b34801561082757600080fd5b506102ed610836366004613ad0565b600090815260cb602052604090205490565b34801561085457600080fd5b506102ed7f9f2df0fed2c77648de5860a4cc508cd0818c85b8b8a1ab4ceeef8d981c8956a681565b34801561088857600080fd5b50610350610897366004613d72565b6114be565b3480156108a857600080fd5b506103206108b7366004614057565b6114e4565b3480156108c857600080fd5b506102ed6108d7366004613fc5565b6114f7565b3480156108e857600080fd5b506103506108f7366004614085565b6116b0565b34801561090857600080fd5b506103cc610917366004613a77565b6116f5565b34801561092857600080fd5b50610350610937366004613b54565b611729565b34801561094857600080fd5b50610350610957366004613a77565b61176c565b34801561096857600080fd5b50610350610977366004613ab3565b6117f1565b34801561098857600080fd5b506102ed7f189ab7a9244df0848122154315af71fe140f3db0fe014031783b0946b8c9d2e381565b3480156109bc57600080fd5b506102ed6109cb366004613a77565b611829565b3480156109dc57600080fd5b506105ec6109eb366004613a77565b50610102546001600160a01b031690565b60006001600160a01b038316610a6d5760405162461bcd60e51b815260206004820152602b60248201527f455243313135353a2062616c616e636520717565727920666f7220746865207a60448201526a65726f206164647265737360a81b60648201526084015b60405180910390fd5b5060008181526065602090815260408083206001600160a01b03861684529091529020545b92915050565b6000610a9282611834565b600080516020614a09833981519152610abc8133611859565b610ac5826118bd565b5050565b600080516020614a09833981519152610ae28133611859565b610ac5826118d0565b6060610a92826118f4565b60607f9f2df0fed2c77648de5860a4cc508cd0818c85b8b8a1ab4ceeef8d981c8956a6610b238133611859565b610b3e8585856040518060200160405280600081525061194a565b95945050505050565b610b52838383611a12565b6000610b5d84611a76565b9050610b7b8282600160405180602001604052806000815250611a81565b610b83611a8d565b50505050565b600080610b9583611a76565b90506000610ba282611afb565b600092835260cb602052604090922054919091109392505050565b6001600160a01b038516331480610bd95750610bd985336114e4565b610c405760405162461bcd60e51b815260206004820152603260248201527f455243313135353a207472616e736665722063616c6c6572206973206e6f74206044820152711bdddb995c881b9bdc88185c1c1c9bdd995960721b6064820152608401610a64565b610c4d8585858585611bb5565b5050505050565b600082815260cf6020526040902060010154610c708133611859565b610c7a8383611d62565b505050565b6001600160a01b0381163314610cef5760405162461bcd60e51b815260206004820152602f60248201527f416363657373436f6e74726f6c3a2063616e206f6e6c792072656e6f756e636560448201526e103937b632b9903337b91039b2b63360891b6064820152608401610a64565b610ac58282611de8565b306001600160a01b037f0000000000000000000000000000000000000000000000000000000000000000161415610d425760405162461bcd60e51b8152600401610a64906140ed565b7f00000000000000000000000000000000000000000000000000000000000000006001600160a01b0316610d74611e4f565b6001600160a01b031614610d9a5760405162461bcd60e51b8152600401610a6490614139565b610da381611e7d565b60408051600080825260208201909252610dbf91839190611ea8565b50565b6000610a928260006113a1565b60608151835114610e345760405162461bcd60e51b815260206004820152602960248201527f455243313135353a206163636f756e747320616e6420696473206c656e677468604482015268040dad2e6dac2e8c6d60bb1b6064820152608401610a64565b600083516001600160401b03811115610e4f57610e4f6139c2565b604051908082528060200260200182016040528015610e78578160200160208202803683370190505b50905060005b8451811015610ef057610ec3858281518110610e9c57610e9c614185565b6020026020010151858381518110610eb657610eb6614185565b60200260200101516109fc565b828281518110610ed557610ed5614185565b6020908102919091010152610ee9816141b1565b9050610e7e565b509392505050565b306001600160a01b037f0000000000000000000000000000000000000000000000000000000000000000161415610f415760405162461bcd60e51b8152600401610a64906140ed565b7f00000000000000000000000000000000000000000000000000000000000000006001600160a01b0316610f73611e4f565b6001600160a01b031614610f995760405162461bcd60e51b8152600401610a6490614139565b610fa282611e7d565b610ac582826001611ea8565b6000610a928260006114f7565b6001600160a01b038316331480610fd75750610fd783336114e4565b610ff35760405162461bcd60e51b8152600401610a64906141cc565b610c7a838383611fec565b600080516020614a098339815191526110178133611859565b610ac58261217d565b600080516020614a098339815191526110398133611859565b610c7a83836121a1565b60608061010361010481805480602002602001604051908101604052809291908181526020016000905b8282101561111957838290600052602060002001805461108c90614215565b80601f01602080910402602001604051908101604052809291908181526020018280546110b890614215565b80156111055780601f106110da57610100808354040283529160200191611105565b820191906000526020600020905b8154815290600101906020018083116110e857829003601f168201915b50505050508152602001906001019061106d565b5050505091508080548060200260200160405190810160405280929190818152602001828054801561116a57602002820191906000526020600020905b815481526020019060010190808311611156575b50505050509050915091509091565b600081815260ce6020526040902080546060919061119690614215565b80601f01602080910402602001604051908101604052809291908181526020018280546111c290614215565b801561120f5780601f106111e45761010080835404028352916020019161120f565b820191906000526020600020905b8154815290600101906020018083116111f257829003601f168201915b50505050509050919050565b600091825260cf602090815260408084206001600160a01b0393909316845291905290205460ff1690565b600080516020614a0983398151915261125f8133611859565b610c7a83836121c0565b610ac533838361222b565b600080516020614a0983398151915261128d8133611859565b610ac58261230c565b600081815260ca6020526040812054806112b35750600092915050565b600090815260cb602052604090205492915050565b600080516020614a098339815191526112e18133611859565b610c7a8383612483565b600081815260ca602052604081205460609190600081815260ce6020526040902080549192509061131b90614215565b80601f016020809104026020016040519081016040528092919081815260200182805461134790614215565b80156113945780601f1061136957610100808354040283529160200191611394565b820191906000526020600020905b81548152906001019060200180831161137757829003601f168201915b5050505050915050919050565b6000828180805b83518110156114965760308482815181106113c5576113c5614185565b016020015160f81c108015906113f5575060398482815181106113ea576113ea614185565b016020015160f81c11155b1561145c578115611418578561140a57611496565b8561141481614250565b9650505b611423600a84614267565b9250603084828151811061143957611439614185565b016020015161144b919060f81c614286565b611455908461429d565b9250611484565b83818151811061146e5761146e614185565b60209101015160f81c602e141561148457600191505b8061148e816141b1565b9150506113a8565b5084156114b5576114a885600a614399565b6114b29083614267565b91505b50949350505050565b600082815260cf60205260409020600101546114da8133611859565b610c7a8383611de8565b60006114f08383612600565b9392505050565b6000828180805b835181101561149657603084828151811061151b5761151b614185565b016020015160f81c1080159061154b5750603984828151811061154057611540614185565b016020015160f81c11155b156115b257811561156e578561156057611496565b8561156a81614250565b9650505b611579600a84614267565b9250603084828151811061158f5761158f614185565b01602001516115a1919060f81c614286565b6115ab908461429d565b925061169e565b8381815181106115c4576115c4614185565b60209101015160f81c602e14156116415781156116385760405162461bcd60e51b815260206004820152602c60248201527f4d6f7265207468616e206f6e6520646563696d616c20656e636f756e7465726560448201526b6420696e20737472696e672160a01b6064820152608401610a64565b6001915061169e565b60405162461bcd60e51b815260206004820152602c60248201527f4e6f6e2d6e756d6572616c2063686172616374657220656e636f756e7465726560448201526b6420696e20737472696e672160a01b6064820152608401610a64565b806116a8816141b1565b9150506114fe565b6001600160a01b0385163314806116cc57506116cc85336114e4565b6116e85760405162461bcd60e51b8152600401610a64906141cc565b610c4d858585858561267b565b606061170160006127ab565b826040516020016117139291906143a5565b6040516020818303038152906040529050919050565b6001600160a01b038316331480611745575061174583336114e4565b6117615760405162461bcd60e51b8152600401610a64906141cc565b610c7a8383836127ba565b600054610100900460ff1680611785575060005460ff16155b6117a15760405162461bcd60e51b8152600401610a64906143f5565b600054610100900460ff161580156117c3576000805461ffff19166101011790555b6117cb6128bf565b6117d48261293a565b6117dc612a0e565b8015610ac5576000805461ff00191690555050565b600080516020614a0983398151915261180a8133611859565b60cc80546001600160a01b0319166001600160a01b0384161790555050565b6000610a9282611a76565b60006001600160e01b03198216637965db0b60e01b1480610a925750610a9282612a8d565b611863828261121b565b610ac55761187b816001600160a01b03166014612add565b611886836020612add565b604051602001611897929190614443565b60408051601f198184030181529082905262461bcd60e51b8252610a6491600401613b41565b8051610ac5906067906020840190613804565b61010180546001600160a01b0319166001600160a01b038316179055610dbf611a8d565b600081815260ca602052604090205460609061190f836127ab565b61191882612c78565b61192185612c78565b604051602001611933939291906144b8565b604051602081830303815290604052915050919050565b60606000836001600160401b03811115611966576119666139c2565b60405190808252806020026020018201604052801561198f578160200160208202803683370190505b509050600084116119b25760405162461bcd60e51b8152600401610a6490614512565b60005b84811015611a085760006119c887612d97565b90506119d78882600188612dc9565b808383815181106119ea576119ea614185565b60209081029190910101525080611a00816141b1565b9150506119b5565b5095945050505050565b610101546001600160a01b0316336001600160a01b031614610c7a5760405162461bcd60e51b815260206004820152601f60248201527f416c6c6f77206f6e6c79204d656c616e642e6169206d616c6c2063616c6c73006044820152606401610a64565b6000610a9282610dc2565b610b8384848484612ecc565b610101546001600160a01b031615611af9576101015460405163fa21a11d60e01b81523060048201526001600160a01b039091169063fa21a11d90602401600060405180830381600087803b158015611ae557600080fd5b505af1158015610b83573d6000803e3d6000fd5b565b600081815260ce602052604081208054829190611b1790614215565b80601f0160208091040260200160405190810160405280929190818152602001828054611b4390614215565b8015611b905780601f10611b6557610100808354040283529160200191611b90565b820191906000526020600020905b815481529060010190602001808311611b7357829003601f168201915b505050505090506114f0818051602091820120600090815260cd909152604090205490565b8151835114611bd65760405162461bcd60e51b8152600401610a6490614553565b6001600160a01b038416611bfc5760405162461bcd60e51b8152600401610a649061459b565b33611c0b818787878787612f24565b60005b8451811015611cf4576000858281518110611c2b57611c2b614185565b602002602001015190506000858381518110611c4957611c49614185565b60209081029190910181015160008481526065835260408082206001600160a01b038e168352909352919091205490915081811015611c9a5760405162461bcd60e51b8152600401610a64906145e0565b60008381526065602090815260408083206001600160a01b038e8116855292528083208585039055908b16825281208054849290611cd990849061429d565b9250508190555050505080611ced906141b1565b9050611c0e565b50846001600160a01b0316866001600160a01b0316826001600160a01b03167f4a39dc06d4c0dbc64b70af90fd698a233a518aa5d07e595d983b8c0526c8f7fb8787604051611d4492919061462a565b60405180910390a4611d5a818787878787613092565b505050505050565b611d6c828261121b565b610ac557600082815260cf602090815260408083206001600160a01b03851684529091529020805460ff19166001179055611da43390565b6001600160a01b0316816001600160a01b0316837f2f8788117e7eff1d82e926ec794901d17c78024a50270940304540a733656f0d60405160405180910390a45050565b611df2828261121b565b15610ac557600082815260cf602090815260408083206001600160a01b0385168085529252808320805460ff1916905551339285917ff6391f5c32d9c69d2a47ea670b442974b53935d1edc7fd64eb21e047a839171b9190a45050565b7f360894a13ba1a3210667c828492db98dca3e2076cc3735a920a3ca505d382bbc546001600160a01b031690565b7f189ab7a9244df0848122154315af71fe140f3db0fe014031783b0946b8c9d2e3610ac58133611859565b6000611eb2611e4f565b9050611ebd846131fd565b600083511180611eca5750815b15611edb57611ed984846132a2565b505b7f4910fdfa16fed3260ed0e7147f7cc6da11a60208b5b9406d12a635614ffd9143805460ff16610c4d57805460ff191660011781556040516001600160a01b0383166024820152611f5a90869060440160408051601f198184030181529190526020810180516001600160e01b0316631b2ce7f360e11b1790526132a2565b50805460ff19168155611f6b611e4f565b6001600160a01b0316826001600160a01b031614611fe35760405162461bcd60e51b815260206004820152602f60248201527f45524331393637557067726164653a207570677261646520627265616b73206660448201526e75727468657220757067726164657360881b6064820152608401610a64565b610c4d85613384565b6001600160a01b0383166120125760405162461bcd60e51b8152600401610a649061464f565b80518251146120335760405162461bcd60e51b8152600401610a6490614553565b600033905061205681856000868660405180602001604052806000815250612f24565b60005b835181101561211e57600084828151811061207657612076614185565b60200260200101519050600084838151811061209457612094614185565b60209081029190910181015160008481526065835260408082206001600160a01b038c1683529093529190912054909150818110156120e55760405162461bcd60e51b8152600401610a6490614692565b60009283526065602090815260408085206001600160a01b038b1686529091529092209103905580612116816141b1565b915050612059565b5060006001600160a01b0316846001600160a01b0316826001600160a01b03167f4a39dc06d4c0dbc64b70af90fd698a233a518aa5d07e595d983b8c0526c8f7fb868660405161216f92919061462a565b60405180910390a450505050565b61010280546001600160a01b0319166001600160a01b038316179055610dbf611a8d565b600082815260ce602090815260409091208251610c7a92840190613804565b8060cd60008480519060200120815260200190815260200160002081905550816040516121ed91906146d6565b604051908190038120828252907fc0cc007bc58275ca70d6cec6795b70feb61df220b5c085a20bb71648ed57072c9060200160405180910390a25050565b816001600160a01b0316836001600160a01b0316141561229f5760405162461bcd60e51b815260206004820152602960248201527f455243313135353a2073657474696e6720617070726f76616c20737461747573604482015268103337b91039b2b63360b91b6064820152608401610a64565b6001600160a01b03838116600081815260666020908152604080832094871680845294825291829020805460ff191686151590811790915591519182527f17307eab39ab6107e8899845ad3d59bd9653f200f220920489ca2b5937696c31910160405180910390a3505050565b6000805b61010354811015612372578280519060200120610103828154811061233757612337614185565b9060005260206000200160405161234e91906146f2565b60405180910390201415612360578091505b8061236a816141b1565b915050612310565b50610103805461238490600190614286565b8154811061239457612394614185565b9060005260206000200161010382815481106123b2576123b2614185565b906000526020600020019080546123c890614215565b6123d3929190613888565b506101038054806123e6576123e661478e565b6001900381819060005260206000200160006124029190613903565b9055610103546101049061241890600190614286565b8154811061242857612428614185565b9060005260206000200154610104828154811061244757612447614185565b6000918252602090912001556101048054806124655761246561478e565b60019003818190600052602060002001600090559055610ac5611a8d565b6000805b610103548110156124e95761010381815481106124a6576124a6614185565b906000526020600020016040516124bd91906146f2565b6040518091039020848051906020012014156124d7578091505b806124e1816141b1565b915050612487565b5080156125165781610104828154811061250557612505614185565b6000918252602090912001556125f8565b61010354158015906125615750828051906020012061010360008154811061254057612540614185565b9060005260206000200160405161255791906146f2565b6040518091039020145b1561257c578161010460008154811061250557612505614185565b610103805460018101825560009190915283516125c0917f02c297ab74aad0aede3a1895c857b1f2c71e6a203feb727bec95ac752998cb7801906020860190613804565b5061010480546001810182556000919091527f4c0be60200faa20559308cb7b5a1bb3255c16cb1cab91f525b5ae7a03d02fabe018290555b610c7a611a8d565b60006001600160a01b03821673207fa8df3a17d96ca7ea4f2893fcdcb78a304101141561262f57506001610a92565b60cc546001600160a01b038381169116141561264d57506001610a92565b6001600160a01b0380841660009081526066602090815260408083209386168352929052205460ff166114f0565b6001600160a01b0384166126a15760405162461bcd60e51b8152600401610a649061459b565b336126c08187876126b1886133c4565b6126ba886133c4565b87612f24565b60008481526065602090815260408083206001600160a01b038a168452909152902054838110156127035760405162461bcd60e51b8152600401610a64906145e0565b60008581526065602090815260408083206001600160a01b038b811685529252808320878503905590881682528120805486929061274290849061429d565b909155505060408051868152602081018690526001600160a01b03808916928a821692918616917fc3d58168c5ae7397731d063d5bbf3d657854427343f4c083240f7aacaa2d0f62910160405180910390a46127a282888888888861340f565b50505050505050565b60606067805461119690614215565b6001600160a01b0383166127e05760405162461bcd60e51b8152600401610a649061464f565b3361280f818560006127f1876133c4565b6127fa876133c4565b60405180602001604052806000815250612f24565b60008381526065602090815260408083206001600160a01b0388168452909152902054828110156128525760405162461bcd60e51b8152600401610a6490614692565b60008481526065602090815260408083206001600160a01b03898116808652918452828520888703905582518981529384018890529092908616917fc3d58168c5ae7397731d063d5bbf3d657854427343f4c083240f7aacaa2d0f62910160405180910390a45050505050565b600054610100900460ff16806128d8575060005460ff16155b6128f45760405162461bcd60e51b8152600401610a64906143f5565b600054610100900460ff16158015612916576000805461ffff19166101011790555b61291e6134d9565b6129266134d9565b8015610dbf576000805461ff001916905550565b61296360405180604001604052806006815260200165756e6971756560d01b81525060016121c0565b61298c604051806040016040528060068152602001656d797468696360d01b815250600a6121c0565b6129b3604051806040016040528060048152602001636570696360e01b81525060646121c0565b6129db604051806040016040528060048152602001637261726560e01b8152506103e86121c0565b612a056040518060400160405280600681526020016531b7b6b6b7b760d11b8152506127106121c0565b610dbf81613543565b612a166135a7565b612a21600033611d62565b612a39600080516020614a0983398151915233611d62565b612a637f9f2df0fed2c77648de5860a4cc508cd0818c85b8b8a1ab4ceeef8d981c8956a633611d62565b611af97f189ab7a9244df0848122154315af71fe140f3db0fe014031783b0946b8c9d2e333611d62565b60006001600160e01b03198216636cdb3d1360e11b1480612abe57506001600160e01b031982166303a24d0760e21b145b80610a9257506301ffc9a760e01b6001600160e01b0319831614610a92565b60606000612aec836002614267565b612af790600261429d565b6001600160401b03811115612b0e57612b0e6139c2565b6040519080825280601f01601f191660200182016040528015612b38576020820181803683370190505b509050600360fc1b81600081518110612b5357612b53614185565b60200101906001600160f81b031916908160001a905350600f60fb1b81600181518110612b8257612b82614185565b60200101906001600160f81b031916908160001a9053506000612ba6846002614267565b612bb190600161429d565b90505b6001811115612c29576f181899199a1a9b1b9c1cb0b131b232b360811b85600f1660108110612be557612be5614185565b1a60f81b828281518110612bfb57612bfb614185565b60200101906001600160f81b031916908160001a90535060049490941c93612c2281614250565b9050612bb4565b5083156114f05760405162461bcd60e51b815260206004820181905260248201527f537472696e67733a20686578206c656e67746820696e73756666696369656e746044820152606401610a64565b606081612c9c5750506040805180820190915260018152600360fc1b602082015290565b8160005b8115612cc65780612cb0816141b1565b9150612cbf9050600a836147a4565b9150612ca0565b6000816001600160401b03811115612ce057612ce06139c2565b6040519080825280601f01601f191660200182016040528015612d0a576020820181803683370190505b509050815b85156114b557612d20600182614286565b90506000612d2f600a886147a4565b612d3a90600a614267565b612d449088614286565b612d4f9060306147c6565b905060008160f81b905080848481518110612d6c57612d6c614185565b60200101906001600160f81b031916908160001a905350612d8e600a896147a4565b97505050612d0f565b600080612da360c95490565b9050612db360c980546001019055565b600081815260ca60205260409020929092555090565b6001600160a01b038416612e295760405162461bcd60e51b815260206004820152602160248201527f455243313135353a206d696e7420746f20746865207a65726f206164647265736044820152607360f81b6064820152608401610a64565b33612e3a816000876126b1886133c4565b60008481526065602090815260408083206001600160a01b038916845290915281208054859290612e6c90849061429d565b909155505060408051858152602081018590526001600160a01b0380881692600092918516917fc3d58168c5ae7397731d063d5bbf3d657854427343f4c083240f7aacaa2d0f62910160405180910390a4610c4d8160008787878761340f565b60008211612eec5760405162461bcd60e51b8152600401610a6490614512565b60005b82811015610c4d576000612f0285612d97565b9050612f118682600186612dc9565b5080612f1c816141b1565b915050612eef565b6001600160a01b0385166130845760005b8351811015613082576000848281518110612f5257612f52614185565b602002602001015190506000612f7482600090815260ca602052604090205490565b600081815260ce6020526040812080549293509091612f9290614215565b80601f0160208091040260200160405190810160405280929190818152602001828054612fbe90614215565b801561300b5780601f10612fe05761010080835404028352916020019161300b565b820191906000526020600020905b815481529060010190602001808311612fee57829003601f168201915b50505050509050600061301d83611afb565b90508061302985611296565b10828260405160200161303d9291906147eb565b6040516020818303038152906040529061306a5760405162461bcd60e51b8152600401610a649190613b41565b5050505050808061307a906141b1565b915050612f35565b505b611d5a868686868686613606565b6001600160a01b0384163b15611d5a5760405163bc197c8160e01b81526001600160a01b0385169063bc197c81906130d69089908990889088908890600401614834565b602060405180830381600087803b1580156130f057600080fd5b505af1925050508015613120575060408051601f3d908101601f1916820190925261311d91810190614892565b60015b6131cd5761312c6148af565b806308c379a0141561316657506131416148cb565b8061314c5750613168565b8060405162461bcd60e51b8152600401610a649190613b41565b505b60405162461bcd60e51b815260206004820152603460248201527f455243313135353a207472616e7366657220746f206e6f6e20455243313135356044820152732932b1b2b4bb32b91034b6b83632b6b2b73a32b960611b6064820152608401610a64565b6001600160e01b0319811663bc197c8160e01b146127a25760405162461bcd60e51b8152600401610a6490614954565b803b6132615760405162461bcd60e51b815260206004820152602d60248201527f455243313936373a206e657720696d706c656d656e746174696f6e206973206e60448201526c1bdd08184818dbdb9d1c9858dd609a1b6064820152608401610a64565b7f360894a13ba1a3210667c828492db98dca3e2076cc3735a920a3ca505d382bbc80546001600160a01b0319166001600160a01b0392909216919091179055565b6060823b6133015760405162461bcd60e51b815260206004820152602660248201527f416464726573733a2064656c65676174652063616c6c20746f206e6f6e2d636f6044820152651b9d1c9858dd60d21b6064820152608401610a64565b600080846001600160a01b03168460405161331c91906146d6565b600060405180830381855af49150503d8060008114613357576040519150601f19603f3d011682016040523d82523d6000602084013e61335c565b606091505b5091509150610b3e82826040518060600160405280602781526020016149e260279139613700565b61338d816131fd565b6040516001600160a01b038216907fbc7cd75a20ee27fd9adebab32041f755214dbc6bffa90cc0225b39da2e5c2d3b90600090a250565b604080516001808252818301909252606091600091906020808301908036833701905050905082816000815181106133fe576133fe614185565b602090810291909101015292915050565b6001600160a01b0384163b15611d5a5760405163f23a6e6160e01b81526001600160a01b0385169063f23a6e6190613453908990899088908890889060040161499c565b602060405180830381600087803b15801561346d57600080fd5b505af192505050801561349d575060408051601f3d908101601f1916820190925261349a91810190614892565b60015b6134a95761312c6148af565b6001600160e01b0319811663f23a6e6160e01b146127a25760405162461bcd60e51b8152600401610a6490614954565b600054610100900460ff16806134f2575060005460ff16155b61350e5760405162461bcd60e51b8152600401610a64906143f5565b600054610100900460ff16158015612926576000805461ffff19166101011790558015610dbf576000805461ff001916905550565b600054610100900460ff168061355c575060005460ff16155b6135785760405162461bcd60e51b8152600401610a64906143f5565b600054610100900460ff1615801561359a576000805461ffff19166101011790555b6135a382613739565b6117dc5b600054610100900460ff16806135c0575060005460ff16155b6135dc5760405162461bcd60e51b8152600401610a64906143f5565b600054610100900460ff161580156135fe576000805461ffff19166101011790555b6129166134d9565b6001600160a01b0385166136915760005b835181101561368f57600061365185838151811061363757613637614185565b6020026020010151600090815260ca602052604090205490565b9050600160cb60008381526020019081526020016000206000828254613677919061429d565b9091555061368891508290506141b1565b9050613617565b505b6001600160a01b038416611d5a5760005b83518110156127a25760006136c285838151811061363757613637614185565b9050600160cb600083815260200190815260200160002060008282546136e89190614286565b909155506136f991508290506141b1565b90506136a2565b6060831561370f5750816114f0565b82511561371f5782518084602001fd5b8160405162461bcd60e51b8152600401610a649190613b41565b600054610100900460ff1680613752575060005460ff16155b61376e5760405162461bcd60e51b8152600401610a64906143f5565b600054610100900460ff16158015613790576000805461ffff19166101011790555b6137986134d9565b6137a06134d9565b6117dc82600054610100900460ff16806137bd575060005460ff16155b6137d95760405162461bcd60e51b8152600401610a64906143f5565b600054610100900460ff161580156137fb576000805461ffff19166101011790555b6117dc826118bd565b82805461381090614215565b90600052602060002090601f0160209004810192826138325760008555613878565b82601f1061384b57805160ff1916838001178555613878565b82800160010185558215613878579182015b8281111561387857825182559160200191906001019061385d565b50613884929150613939565b5090565b82805461389490614215565b90600052602060002090601f0160209004810192826138b65760008555613878565b82601f106138c75780548555613878565b8280016001018555821561387857600052602060002091601f016020900482015b828111156138785782548255916001019190600101906138e8565b50805461390f90614215565b6000825580601f1061391f575050565b601f016020900490600052602060002090810190610dbf91905b5b80821115613884576000815560010161393a565b6001600160a01b0381168114610dbf57600080fd5b6000806040838503121561397657600080fd5b82356139818161394e565b946020939093013593505050565b6001600160e01b031981168114610dbf57600080fd5b6000602082840312156139b757600080fd5b81356114f08161398f565b634e487b7160e01b600052604160045260246000fd5b601f8201601f191681016001600160401b03811182821017156139fd576139fd6139c2565b6040525050565b600082601f830112613a1557600080fd5b81356001600160401b03811115613a2e57613a2e6139c2565b604051613a45601f8301601f1916602001826139d8565b818152846020838601011115613a5a57600080fd5b816020850160208301376000918101602001919091529392505050565b600060208284031215613a8957600080fd5b81356001600160401b03811115613a9f57600080fd5b613aab84828501613a04565b949350505050565b600060208284031215613ac557600080fd5b81356114f08161394e565b600060208284031215613ae257600080fd5b5035919050565b60005b83811015613b04578181015183820152602001613aec565b83811115610b835750506000910152565b60008151808452613b2d816020860160208601613ae9565b601f01601f19169290920160200192915050565b6020815260006114f06020830184613b15565b600080600060608486031215613b6957600080fd5b8335613b748161394e565b95602085013595506040909401359392505050565b600081518084526020808501945080840160005b83811015613bb957815187529582019590820190600101613b9d565b509495945050505050565b6020815260006114f06020830184613b89565b600080600060608486031215613bec57600080fd5b83356001600160401b03811115613c0257600080fd5b613c0e86828701613a04565b935050602084013591506040840135613c268161394e565b809150509250925092565b60006001600160401b03821115613c4a57613c4a6139c2565b5060051b60200190565b600082601f830112613c6557600080fd5b81356020613c7282613c31565b604051613c7f82826139d8565b83815260059390931b8501820192828101915086841115613c9f57600080fd5b8286015b84811015613cba5780358352918301918301613ca3565b509695505050505050565b600080600080600060a08688031215613cdd57600080fd5b8535613ce88161394e565b94506020860135613cf88161394e565b935060408601356001600160401b0380821115613d1457600080fd5b613d2089838a01613c54565b94506060880135915080821115613d3657600080fd5b613d4289838a01613c54565b93506080880135915080821115613d5857600080fd5b50613d6588828901613a04565b9150509295509295909350565b60008060408385031215613d8557600080fd5b823591506020830135613d978161394e565b809150509250929050565b60008060408385031215613db557600080fd5b82356001600160401b0380821115613dcc57600080fd5b818501915085601f830112613de057600080fd5b81356020613ded82613c31565b604051613dfa82826139d8565b83815260059390931b8501820192828101915089841115613e1a57600080fd5b948201945b83861015613e41578535613e328161394e565b82529482019490820190613e1f565b96505086013592505080821115613e5757600080fd5b50613e6485828601613c54565b9150509250929050565b60008060408385031215613e8157600080fd5b8235613e8c8161394e565b915060208301356001600160401b03811115613ea757600080fd5b613e6485828601613a04565b600080600060608486031215613ec857600080fd5b8335613ed38161394e565b925060208401356001600160401b0380821115613eef57600080fd5b613efb87838801613c54565b93506040860135915080821115613f1157600080fd5b50613f1e86828701613c54565b9150509250925092565b60008060408385031215613f3b57600080fd5b8235915060208301356001600160401b03811115613ea757600080fd5b6000604082016040835280855180835260608501915060608160051b8601019250602080880160005b83811015613faf57605f19888703018552613f9d868351613b15565b95509382019390820190600101613f81565b505085840381870152505050610b3e8185613b89565b60008060408385031215613fd857600080fd5b82356001600160401b03811115613fee57600080fd5b613ffa85828601613a04565b95602094909401359450505050565b8215158152604060208201526000613aab6040830184613b89565b6000806040838503121561403757600080fd5b82356140428161394e565b915060208301358015158114613d9757600080fd5b6000806040838503121561406a57600080fd5b82356140758161394e565b91506020830135613d978161394e565b600080600080600060a0868803121561409d57600080fd5b85356140a88161394e565b945060208601356140b88161394e565b9350604086013592506060860135915060808601356001600160401b038111156140e157600080fd5b613d6588828901613a04565b6020808252602c908201527f46756e6374696f6e206d7573742062652063616c6c6564207468726f7567682060408201526b19195b1959d85d1958d85b1b60a21b606082015260800190565b6020808252602c908201527f46756e6374696f6e206d7573742062652063616c6c6564207468726f7567682060408201526b6163746976652070726f787960a01b606082015260800190565b634e487b7160e01b600052603260045260246000fd5b634e487b7160e01b600052601160045260246000fd5b60006000198214156141c5576141c561419b565b5060010190565b60208082526029908201527f455243313135353a2063616c6c6572206973206e6f74206f776e6572206e6f7260408201526808185c1c1c9bdd995960ba1b606082015260800190565b600181811c9082168061422957607f821691505b6020821081141561424a57634e487b7160e01b600052602260045260246000fd5b50919050565b60008161425f5761425f61419b565b506000190190565b60008160001904831182151516156142815761428161419b565b500290565b6000828210156142985761429861419b565b500390565b600082198211156142b0576142b061419b565b500190565b600181815b808511156142f05781600019048211156142d6576142d661419b565b808516156142e357918102915b93841c93908002906142ba565b509250929050565b60008261430757506001610a92565b8161431457506000610a92565b816001811461432a576002811461433457614350565b6001915050610a92565b60ff8411156143455761434561419b565b50506001821b610a92565b5060208310610133831016604e8410600b8410161715614373575081810a610a92565b61437d83836142b5565b80600019048211156143915761439161419b565b029392505050565b60006114f083836142f8565b600083516143b7818460208801613ae9565b602f60f81b9083018181526218da5960ea1b6001820152600481019190915283516143e9816005840160208801613ae9565b01600501949350505050565b6020808252602e908201527f496e697469616c697a61626c653a20636f6e747261637420697320616c72656160408201526d191e481a5b9a5d1a585b1a5e995960921b606082015260800190565b7f416363657373436f6e74726f6c3a206163636f756e742000000000000000000081526000835161447b816017850160208801613ae9565b7001034b99036b4b9b9b4b733903937b6329607d1b60179184019182015283516144ac816028840160208801613ae9565b01602801949350505050565b600084516144ca818460208901613ae9565b8083019050602f60f81b80825285516144ea816001850160208a01613ae9565b60019201918201528351614505816002840160208801613ae9565b0160020195945050505050565b60208082526021908201527f54686520616d6f756e74206d7573742062652067726561746572207468616e206040820152600360fc1b606082015260800190565b60208082526028908201527f455243313135353a2069647320616e6420616d6f756e7473206c656e677468206040820152670dad2e6dac2e8c6d60c31b606082015260800190565b60208082526025908201527f455243313135353a207472616e7366657220746f20746865207a65726f206164604082015264647265737360d81b606082015260800190565b6020808252602a908201527f455243313135353a20696e73756666696369656e742062616c616e636520666f60408201526939103a3930b739b332b960b11b606082015260800190565b60408152600061463d6040830185613b89565b8281036020840152610b3e8185613b89565b60208082526023908201527f455243313135353a206275726e2066726f6d20746865207a65726f206164647260408201526265737360e81b606082015260800190565b60208082526024908201527f455243313135353a206275726e20616d6f756e7420657863656564732062616c604082015263616e636560e01b606082015260800190565b600082516146e8818460208701613ae9565b9190910192915050565b600080835481600182811c91508083168061470e57607f831692505b602080841082141561472e57634e487b7160e01b86526022600452602486fd5b818015614742576001811461475357614780565b60ff19861689528489019650614780565b60008a81526020902060005b868110156147785781548b82015290850190830161475f565b505084890196505b509498975050505050505050565b634e487b7160e01b600052603160045260246000fd5b6000826147c157634e487b7160e01b600052601260045260246000fd5b500490565b600060ff821660ff84168060ff038211156147e3576147e361419b565b019392505050565b600083516147fd818460208801613ae9565b7f726172697479206f6e6c7920746f74616c537570706c790000000000000000009201918252506017810191909152603701919050565b6001600160a01b0386811682528516602082015260a06040820181905260009061486090830186613b89565b82810360608401526148728186613b89565b905082810360808401526148868185613b15565b98975050505050505050565b6000602082840312156148a457600080fd5b81516114f08161398f565b600060033d11156148c85760046000803e5060005160e01c5b90565b600060443d10156148d95790565b6040516003193d81016004833e81513d6001600160401b03816024840111818411171561490857505050505090565b82850191508151818111156149205750505050505090565b843d870101602082850101111561493a5750505050505090565b614949602082860101876139d8565b509095945050505050565b60208082526028908201527f455243313135353a204552433131353552656365697665722072656a656374656040820152676420746f6b656e7360c01b606082015260800190565b6001600160a01b03868116825285166020820152604081018490526060810183905260a0608082018190526000906149d690830184613b15565b97965050505050505056fe416464726573733a206c6f772d6c6576656c2064656c65676174652063616c6c206661696c6564f5eb84615c2a00ecaf817d13794ebd6299c9e01c395bf4018453f13f577f5449a26469706673582212200c300eb2518f1fee24c9aa1a85cf9fdc947156f44dc95979abc0237cba80a75e64736f6c63430008090033",
  "immutableReferences": {
    "1023": [
      {
        "length": 32,
        "start": 3332
      },
      {
        "length": 32,
        "start": 3396
      },
      {
        "length": 32,
        "start": 3843
      },
      {
        "length": 32,
        "start": 3907
      }
    ]
  },
  "source": "// SPDX-License-Identifier: MIT\npragma solidity 0.8.9;\n\nimport \"@openzeppelin/contracts-upgradeable/token/ERC1155/ERC1155Upgradeable.sol\";\nimport \"@openzeppelin/contracts-upgradeable/access/AccessControlUpgradeable.sol\";\nimport \"@openzeppelin/contracts-upgradeable/token/ERC1155/extensions/ERC1155BurnableUpgradeable.sol\";\nimport \"@openzeppelin/contracts-upgradeable/proxy/utils/Initializable.sol\";\nimport \"@openzeppelin/contracts-upgradeable/proxy/utils/UUPSUpgradeable.sol\";\nimport \"./Meland1155Rarity.sol\";\nimport \"./MelandAccessRoles.sol\";\nimport \"./MelandTier.sol\";\nimport \"./Meland1155StoreItem.sol\";\n\ncontract Meland1155Wearable is\n    Initializable,\n    Meland1155Rarity,\n    MelandAccessRoles,\n    Meland1155StoreItem,\n    UUPSUpgradeable\n{\n    function initialize(string memory uri) public initializer {\n        __UUPSUpgradeable_init();\n        __Meland1155Rarity_init(uri);\n        __MelandAccessRoles_init();\n    }\n\n    function setURI(string memory newuri) public onlyRole(GM_ROLE) {\n        _setURI(newuri);\n    }\n\n    function melandStoreItemURI(string memory symbol)\n        external\n        view\n        returns (string memory)\n    {\n        return\n            string(\n                abi.encodePacked(\n                    ERC1155Upgradeable.uri(0),\n                    \"/\",\n                    \"cid\",\n                    \"/\",\n                    symbol\n                )\n            );\n    }\n\n    function mint(\n        address account,\n        uint256 cid,\n        uint256 amount\n    ) public onlyRole(MINTER_ROLE) returns (uint256[] memory) {\n        return _mintReturnTokenIds(account, cid, amount, \"\");\n    }\n\n    function setRarity(bytes memory _rarity, uint256 mintMax)\n        public\n        onlyRole(GM_ROLE)\n    {\n        _setRarity(_rarity, mintMax);\n    }\n\n    function setCIDRarity(uint256 cid, bytes memory _rarity)\n        public\n        onlyRole(GM_ROLE)\n    {\n        _setCIDRarity(cid, _rarity);\n    }\n\n    function setMelandTier(MelandTier _tierAddress) public onlyRole(GM_ROLE) {\n        _setMelandTier(_tierAddress);\n    }\n\n    function _authorizeUpgrade(address newImplementation)\n        internal\n        override\n        onlyRole(UPGRADER_ROLE)\n    {}\n\n    // The following functions are overrides required by Solidity.\n    function supportsInterface(bytes4 interfaceId)\n        public\n        view\n        override(ERC1155Upgradeable, AccessControlUpgradeable)\n        returns (bool)\n    {\n        return super.supportsInterface(interfaceId);\n    }\n\n    // store item impl ----\n    function setAcceptedToken(IERC20Upgradeable token)\n        external\n        onlyRole(GM_ROLE)\n    {\n        _setAcceptedToken(token);\n    }\n\n    function setStore(NFTStore s) external onlyRole(GM_ROLE) {\n        _setStore(s);\n    }\n\n    function setStoreItem(string memory symbol, uint256 price)\n        external\n        onlyRole(GM_ROLE)\n    {\n        _setStoreItem(symbol, price);\n    }\n\n    function delStoreItem(string memory symbol) external onlyRole(GM_ROLE) {\n        _delStoreItem(symbol);\n    }\n\n    // If return ture, means that the mall will only have the specified id\n    // Else otherwise it will be linear mint\n    // The ids Must ensure that you can mint,\n    // If multi-channel sales or mint, you need to filter out the ids that have been minted,\n    // To prevent errors in the sales process\n    function melandStoreItemsRestrictPurchaseNFTIds(string memory)\n        external\n        pure\n        returns (bool, uint256[] memory)\n    {\n        uint256[] memory ids;\n        return (false, ids);\n    }\n\n    // Store to pay NFT to the selling user by calling this function,\n    // For security reasons, be sure to control the permissions to allow only MelandStore contracts to call\n    // If melandStoreItemsRestrictPurchaseNFTIds return false, the id as zero.\n    function melandStoreItemsMint(\n        string memory symbol,\n        uint256 id,\n        address to\n    ) external override {\n        super.checkMelandStoreItemsMint(symbol, id, to);\n        uint256 cid = _bytestoUint256(symbol);\n        _mint(to, cid, 1, \"\");\n        _dispatchItemInfoUpdate();\n    }\n\n    function test(string memory symbol) public pure returns(uint256) {\n        return _bytestoUint256(symbol);\n    }\n\n    // If return false, Stores will suspend sales.\n    function melandStoreSellStatus(string memory symbol)\n        external\n        view\n        returns (bool)\n    {\n        uint256 cid = _bytestoUint256(symbol);\n        uint256 mintMax = _getMintMaxByCId(cid);\n        uint totol = totalSupplyByCId(cid);\n        return totol < mintMax;\n    }\n\n    // If return true, it means that each person can only buy a certain amount\n    function melandStoreItemsRestrictedPurchase(string memory)\n        external\n        pure\n        returns (bool restricted, uint256 restrictLimit)\n    {\n        restricted = false;\n        restrictLimit = 0;\n    }\n}\n",
  "sourcePath": "/Users/alberthuang/code/icw/meland/contracts/Meland1155Wearable.sol",
  "compiler": {
    "name": "solc",
    "version": "0.8.9+commit.e5eed63a.Emscripten.clang"
  },
  "schemaVersion": "3.4.3",
  "updatedAt": "2021-12-26T08:36:47.126Z",
  "networkType": "ethereum",
  "devdoc": {
    "kind": "dev",
    "methods": {
      "balanceOf(address,uint256)": {
        "details": "See {IERC1155-balanceOf}. Requirements: - `account` cannot be the zero address."
      },
      "balanceOfBatch(address[],uint256[])": {
        "details": "See {IERC1155-balanceOfBatch}. Requirements: - `accounts` and `ids` must have the same length."
      },
      "getRoleAdmin(bytes32)": {
        "details": "Returns the admin role that controls `role`. See {grantRole} and {revokeRole}. To change a role's admin, use {_setRoleAdmin}."
      },
      "grantRole(bytes32,address)": {
        "details": "Grants `role` to `account`. If `account` had not been already granted `role`, emits a {RoleGranted} event. Requirements: - the caller must have ``role``'s admin role."
      },
      "hasRole(bytes32,address)": {
        "details": "Returns `true` if `account` has been granted `role`."
      },
      "renounceRole(bytes32,address)": {
        "details": "Revokes `role` from the calling account. Roles are often managed via {grantRole} and {revokeRole}: this function's purpose is to provide a mechanism for accounts to lose their privileges if they are compromised (such as when a trusted device is misplaced). If the calling account had been revoked `role`, emits a {RoleRevoked} event. Requirements: - the caller must be `account`."
      },
      "revokeRole(bytes32,address)": {
        "details": "Revokes `role` from `account`. If `account` had been granted `role`, emits a {RoleRevoked} event. Requirements: - the caller must have ``role``'s admin role."
      },
      "safeBatchTransferFrom(address,address,uint256[],uint256[],bytes)": {
        "details": "See {IERC1155-safeBatchTransferFrom}."
      },
      "safeTransferFrom(address,address,uint256,uint256,bytes)": {
        "details": "See {IERC1155-safeTransferFrom}."
      },
      "setApprovalForAll(address,bool)": {
        "details": "See {IERC1155-setApprovalForAll}."
      },
      "upgradeTo(address)": {
        "details": "Upgrade the implementation of the proxy to `newImplementation`. Calls {_authorizeUpgrade}. Emits an {Upgraded} event."
      },
      "upgradeToAndCall(address,bytes)": {
        "details": "Upgrade the implementation of the proxy to `newImplementation`, and subsequently execute the function call encoded in `data`. Calls {_authorizeUpgrade}. Emits an {Upgraded} event."
      }
    },
    "version": 1
  },
  "userdoc": {
    "kind": "user",
    "methods": {},
    "version": 1
  }
}