{
  "contractName": "Meland1155Land",
  "abi": [
    {
      "anonymous": false,
      "inputs": [
        {
          "indexed": false,
          "internalType": "address",
          "name": "previousAdmin",
          "type": "address"
        },
        {
          "indexed": false,
          "internalType": "address",
          "name": "newAdmin",
          "type": "address"
        }
      ],
      "name": "AdminChanged",
      "type": "event"
    },
    {
      "anonymous": false,
      "inputs": [
        {
          "indexed": true,
          "internalType": "address",
          "name": "account",
          "type": "address"
        },
        {
          "indexed": true,
          "internalType": "address",
          "name": "operator",
          "type": "address"
        },
        {
          "indexed": false,
          "internalType": "bool",
          "name": "approved",
          "type": "bool"
        }
      ],
      "name": "ApprovalForAll",
      "type": "event"
    },
    {
      "anonymous": false,
      "inputs": [
        {
          "indexed": true,
          "internalType": "address",
          "name": "beacon",
          "type": "address"
        }
      ],
      "name": "BeaconUpgraded",
      "type": "event"
    },
    {
      "anonymous": false,
      "inputs": [
        {
          "indexed": false,
          "internalType": "bool",
          "name": "_freezeEnabled",
          "type": "bool"
        }
      ],
      "name": "FreezeEnabledUpdate",
      "type": "event"
    },
    {
      "anonymous": false,
      "inputs": [
        {
          "indexed": true,
          "internalType": "address",
          "name": "_address",
          "type": "address"
        },
        {
          "indexed": false,
          "internalType": "bool",
          "name": "_bool",
          "type": "bool"
        }
      ],
      "name": "FreezeWhiteListUpdate",
      "type": "event"
    },
    {
      "anonymous": false,
      "inputs": [
        {
          "indexed": true,
          "internalType": "bytes32",
          "name": "role",
          "type": "bytes32"
        },
        {
          "indexed": true,
          "internalType": "bytes32",
          "name": "previousAdminRole",
          "type": "bytes32"
        },
        {
          "indexed": true,
          "internalType": "bytes32",
          "name": "newAdminRole",
          "type": "bytes32"
        }
      ],
      "name": "RoleAdminChanged",
      "type": "event"
    },
    {
      "anonymous": false,
      "inputs": [
        {
          "indexed": true,
          "internalType": "bytes32",
          "name": "role",
          "type": "bytes32"
        },
        {
          "indexed": true,
          "internalType": "address",
          "name": "account",
          "type": "address"
        },
        {
          "indexed": true,
          "internalType": "address",
          "name": "sender",
          "type": "address"
        }
      ],
      "name": "RoleGranted",
      "type": "event"
    },
    {
      "anonymous": false,
      "inputs": [
        {
          "indexed": true,
          "internalType": "bytes32",
          "name": "role",
          "type": "bytes32"
        },
        {
          "indexed": true,
          "internalType": "address",
          "name": "account",
          "type": "address"
        },
        {
          "indexed": true,
          "internalType": "address",
          "name": "sender",
          "type": "address"
        }
      ],
      "name": "RoleRevoked",
      "type": "event"
    },
    {
      "anonymous": false,
      "inputs": [
        {
          "indexed": true,
          "internalType": "address",
          "name": "operator",
          "type": "address"
        },
        {
          "indexed": true,
          "internalType": "address",
          "name": "from",
          "type": "address"
        },
        {
          "indexed": true,
          "internalType": "address",
          "name": "to",
          "type": "address"
        },
        {
          "indexed": false,
          "internalType": "uint256[]",
          "name": "ids",
          "type": "uint256[]"
        },
        {
          "indexed": false,
          "internalType": "uint256[]",
          "name": "values",
          "type": "uint256[]"
        }
      ],
      "name": "TransferBatch",
      "type": "event"
    },
    {
      "anonymous": false,
      "inputs": [
        {
          "indexed": true,
          "internalType": "address",
          "name": "operator",
          "type": "address"
        },
        {
          "indexed": true,
          "internalType": "address",
          "name": "from",
          "type": "address"
        },
        {
          "indexed": true,
          "internalType": "address",
          "name": "to",
          "type": "address"
        },
        {
          "indexed": false,
          "internalType": "uint256",
          "name": "id",
          "type": "uint256"
        },
        {
          "indexed": false,
          "internalType": "uint256",
          "name": "value",
          "type": "uint256"
        }
      ],
      "name": "TransferSingle",
      "type": "event"
    },
    {
      "anonymous": false,
      "inputs": [
        {
          "indexed": false,
          "internalType": "string",
          "name": "value",
          "type": "string"
        },
        {
          "indexed": true,
          "internalType": "uint256",
          "name": "id",
          "type": "uint256"
        }
      ],
      "name": "URI",
      "type": "event"
    },
    {
      "anonymous": false,
      "inputs": [
        {
          "indexed": true,
          "internalType": "address",
          "name": "implementation",
          "type": "address"
        }
      ],
      "name": "Upgraded",
      "type": "event"
    },
    {
      "inputs": [],
      "name": "DEFAULT_ADMIN_ROLE",
      "outputs": [
        {
          "internalType": "bytes32",
          "name": "",
          "type": "bytes32"
        }
      ],
      "stateMutability": "view",
      "type": "function",
      "constant": true
    },
    {
      "inputs": [],
      "name": "GM_ROLE",
      "outputs": [
        {
          "internalType": "bytes32",
          "name": "",
          "type": "bytes32"
        }
      ],
      "stateMutability": "view",
      "type": "function",
      "constant": true
    },
    {
      "inputs": [],
      "name": "MINTER_ROLE",
      "outputs": [
        {
          "internalType": "bytes32",
          "name": "",
          "type": "bytes32"
        }
      ],
      "stateMutability": "view",
      "type": "function",
      "constant": true
    },
    {
      "inputs": [],
      "name": "UPGRADER_ROLE",
      "outputs": [
        {
          "internalType": "bytes32",
          "name": "",
          "type": "bytes32"
        }
      ],
      "stateMutability": "view",
      "type": "function",
      "constant": true
    },
    {
      "inputs": [
        {
          "internalType": "string",
          "name": "",
          "type": "string"
        }
      ],
      "name": "acceptedToken",
      "outputs": [
        {
          "internalType": "contract IERC20Upgradeable",
          "name": "",
          "type": "address"
        }
      ],
      "stateMutability": "view",
      "type": "function",
      "constant": true
    },
    {
      "inputs": [
        {
          "internalType": "address",
          "name": "account",
          "type": "address"
        },
        {
          "internalType": "uint256",
          "name": "id",
          "type": "uint256"
        }
      ],
      "name": "balanceOf",
      "outputs": [
        {
          "internalType": "uint256",
          "name": "",
          "type": "uint256"
        }
      ],
      "stateMutability": "view",
      "type": "function",
      "constant": true
    },
    {
      "inputs": [
        {
          "internalType": "address[]",
          "name": "accounts",
          "type": "address[]"
        },
        {
          "internalType": "uint256[]",
          "name": "ids",
          "type": "uint256[]"
        }
      ],
      "name": "balanceOfBatch",
      "outputs": [
        {
          "internalType": "uint256[]",
          "name": "",
          "type": "uint256[]"
        }
      ],
      "stateMutability": "view",
      "type": "function",
      "constant": true
    },
    {
      "inputs": [
        {
          "internalType": "address",
          "name": "account",
          "type": "address"
        },
        {
          "internalType": "uint256",
          "name": "id",
          "type": "uint256"
        },
        {
          "internalType": "uint256",
          "name": "value",
          "type": "uint256"
        }
      ],
      "name": "burn",
      "outputs": [],
      "stateMutability": "nonpayable",
      "type": "function"
    },
    {
      "inputs": [
        {
          "internalType": "address",
          "name": "account",
          "type": "address"
        },
        {
          "internalType": "uint256[]",
          "name": "ids",
          "type": "uint256[]"
        },
        {
          "internalType": "uint256[]",
          "name": "values",
          "type": "uint256[]"
        }
      ],
      "name": "burnBatch",
      "outputs": [],
      "stateMutability": "nonpayable",
      "type": "function"
    },
    {
      "inputs": [
        {
          "internalType": "uint256",
          "name": "",
          "type": "uint256"
        }
      ],
      "name": "ereezeExpiredAtMapById",
      "outputs": [
        {
          "internalType": "uint256",
          "name": "",
          "type": "uint256"
        }
      ],
      "stateMutability": "view",
      "type": "function",
      "constant": true
    },
    {
      "inputs": [
        {
          "internalType": "bytes32",
          "name": "role",
          "type": "bytes32"
        }
      ],
      "name": "getRoleAdmin",
      "outputs": [
        {
          "internalType": "bytes32",
          "name": "",
          "type": "bytes32"
        }
      ],
      "stateMutability": "view",
      "type": "function",
      "constant": true
    },
    {
      "inputs": [
        {
          "internalType": "bytes32",
          "name": "role",
          "type": "bytes32"
        },
        {
          "internalType": "address",
          "name": "account",
          "type": "address"
        }
      ],
      "name": "grantRole",
      "outputs": [],
      "stateMutability": "nonpayable",
      "type": "function"
    },
    {
      "inputs": [
        {
          "internalType": "bytes32",
          "name": "role",
          "type": "bytes32"
        },
        {
          "internalType": "address",
          "name": "account",
          "type": "address"
        }
      ],
      "name": "hasRole",
      "outputs": [
        {
          "internalType": "bool",
          "name": "",
          "type": "bool"
        }
      ],
      "stateMutability": "view",
      "type": "function",
      "constant": true
    },
    {
      "inputs": [
        {
          "internalType": "uint256",
          "name": "",
          "type": "uint256"
        }
      ],
      "name": "landtypeById",
      "outputs": [
        {
          "internalType": "string",
          "name": "",
          "type": "string"
        }
      ],
      "stateMutability": "view",
      "type": "function",
      "constant": true
    },
    {
      "inputs": [],
      "name": "melandStoreItems",
      "outputs": [
        {
          "internalType": "string[]",
          "name": "",
          "type": "string[]"
        },
        {
          "internalType": "uint256[]",
          "name": "",
          "type": "uint256[]"
        }
      ],
      "stateMutability": "view",
      "type": "function",
      "constant": true
    },
    {
      "inputs": [
        {
          "internalType": "string",
          "name": "",
          "type": "string"
        }
      ],
      "name": "melandStoreReceipt",
      "outputs": [
        {
          "internalType": "address",
          "name": "receipt",
          "type": "address"
        }
      ],
      "stateMutability": "pure",
      "type": "function",
      "constant": true
    },
    {
      "inputs": [
        {
          "internalType": "string",
          "name": "_a",
          "type": "string"
        }
      ],
      "name": "parseInt",
      "outputs": [
        {
          "internalType": "uint256",
          "name": "_parsedInt",
          "type": "uint256"
        }
      ],
      "stateMutability": "pure",
      "type": "function",
      "constant": true
    },
    {
      "inputs": [
        {
          "internalType": "string",
          "name": "_a",
          "type": "string"
        },
        {
          "internalType": "uint256",
          "name": "_b",
          "type": "uint256"
        }
      ],
      "name": "parseInt",
      "outputs": [
        {
          "internalType": "uint256",
          "name": "_parsedInt",
          "type": "uint256"
        }
      ],
      "stateMutability": "pure",
      "type": "function",
      "constant": true
    },
    {
      "inputs": [
        {
          "internalType": "bytes32",
          "name": "role",
          "type": "bytes32"
        },
        {
          "internalType": "address",
          "name": "account",
          "type": "address"
        }
      ],
      "name": "renounceRole",
      "outputs": [],
      "stateMutability": "nonpayable",
      "type": "function"
    },
    {
      "inputs": [
        {
          "internalType": "bytes32",
          "name": "role",
          "type": "bytes32"
        },
        {
          "internalType": "address",
          "name": "account",
          "type": "address"
        }
      ],
      "name": "revokeRole",
      "outputs": [],
      "stateMutability": "nonpayable",
      "type": "function"
    },
    {
      "inputs": [
        {
          "internalType": "address",
          "name": "from",
          "type": "address"
        },
        {
          "internalType": "address",
          "name": "to",
          "type": "address"
        },
        {
          "internalType": "uint256[]",
          "name": "ids",
          "type": "uint256[]"
        },
        {
          "internalType": "uint256[]",
          "name": "amounts",
          "type": "uint256[]"
        },
        {
          "internalType": "bytes",
          "name": "data",
          "type": "bytes"
        }
      ],
      "name": "safeBatchTransferFrom",
      "outputs": [],
      "stateMutability": "nonpayable",
      "type": "function"
    },
    {
      "inputs": [
        {
          "internalType": "string",
          "name": "_a",
          "type": "string"
        }
      ],
      "name": "safeParseInt",
      "outputs": [
        {
          "internalType": "uint256",
          "name": "_parsedInt",
          "type": "uint256"
        }
      ],
      "stateMutability": "pure",
      "type": "function",
      "constant": true
    },
    {
      "inputs": [
        {
          "internalType": "string",
          "name": "_a",
          "type": "string"
        },
        {
          "internalType": "uint256",
          "name": "_b",
          "type": "uint256"
        }
      ],
      "name": "safeParseInt",
      "outputs": [
        {
          "internalType": "uint256",
          "name": "_parsedInt",
          "type": "uint256"
        }
      ],
      "stateMutability": "pure",
      "type": "function",
      "constant": true
    },
    {
      "inputs": [
        {
          "internalType": "address",
          "name": "from",
          "type": "address"
        },
        {
          "internalType": "address",
          "name": "to",
          "type": "address"
        },
        {
          "internalType": "uint256",
          "name": "id",
          "type": "uint256"
        },
        {
          "internalType": "uint256",
          "name": "amount",
          "type": "uint256"
        },
        {
          "internalType": "bytes",
          "name": "data",
          "type": "bytes"
        }
      ],
      "name": "safeTransferFrom",
      "outputs": [],
      "stateMutability": "nonpayable",
      "type": "function"
    },
    {
      "inputs": [
        {
          "internalType": "address",
          "name": "operator",
          "type": "address"
        },
        {
          "internalType": "bool",
          "name": "approved",
          "type": "bool"
        }
      ],
      "name": "setApprovalForAll",
      "outputs": [],
      "stateMutability": "nonpayable",
      "type": "function"
    },
    {
      "inputs": [
        {
          "internalType": "bytes",
          "name": "",
          "type": "bytes"
        }
      ],
      "name": "supportLandtypes",
      "outputs": [
        {
          "internalType": "bool",
          "name": "",
          "type": "bool"
        }
      ],
      "stateMutability": "view",
      "type": "function",
      "constant": true
    },
    {
      "inputs": [],
      "name": "ticketland",
      "outputs": [
        {
          "internalType": "bytes",
          "name": "",
          "type": "bytes"
        }
      ],
      "stateMutability": "view",
      "type": "function",
      "constant": true
    },
    {
      "inputs": [
        {
          "internalType": "uint256",
          "name": "",
          "type": "uint256"
        }
      ],
      "name": "ticketlandIds",
      "outputs": [
        {
          "internalType": "uint256",
          "name": "",
          "type": "uint256"
        }
      ],
      "stateMutability": "view",
      "type": "function",
      "constant": true
    },
    {
      "inputs": [
        {
          "internalType": "bytes32",
          "name": "",
          "type": "bytes32"
        }
      ],
      "name": "totalSupplyByLandtype",
      "outputs": [
        {
          "internalType": "uint256",
          "name": "",
          "type": "uint256"
        }
      ],
      "stateMutability": "view",
      "type": "function",
      "constant": true
    },
    {
      "inputs": [
        {
          "internalType": "address",
          "name": "newImplementation",
          "type": "address"
        }
      ],
      "name": "upgradeTo",
      "outputs": [],
      "stateMutability": "nonpayable",
      "type": "function"
    },
    {
      "inputs": [
        {
          "internalType": "address",
          "name": "newImplementation",
          "type": "address"
        },
        {
          "internalType": "bytes",
          "name": "data",
          "type": "bytes"
        }
      ],
      "name": "upgradeToAndCall",
      "outputs": [],
      "stateMutability": "payable",
      "type": "function",
      "payable": true
    },
    {
      "inputs": [],
      "name": "vipland",
      "outputs": [
        {
          "internalType": "bytes",
          "name": "",
          "type": "bytes"
        }
      ],
      "stateMutability": "view",
      "type": "function",
      "constant": true
    },
    {
      "inputs": [
        {
          "internalType": "string",
          "name": "_uri",
          "type": "string"
        }
      ],
      "name": "initialize",
      "outputs": [],
      "stateMutability": "nonpayable",
      "type": "function"
    },
    {
      "inputs": [
        {
          "internalType": "string",
          "name": "newuri",
          "type": "string"
        }
      ],
      "name": "setURI",
      "outputs": [],
      "stateMutability": "nonpayable",
      "type": "function"
    },
    {
      "inputs": [
        {
          "internalType": "uint256",
          "name": "id",
          "type": "uint256"
        }
      ],
      "name": "uri",
      "outputs": [
        {
          "internalType": "string",
          "name": "",
          "type": "string"
        }
      ],
      "stateMutability": "view",
      "type": "function",
      "constant": true
    },
    {
      "inputs": [
        {
          "internalType": "string",
          "name": "symbol",
          "type": "string"
        }
      ],
      "name": "melandStoreItemURI",
      "outputs": [
        {
          "internalType": "string",
          "name": "",
          "type": "string"
        }
      ],
      "stateMutability": "view",
      "type": "function",
      "constant": true
    },
    {
      "inputs": [
        {
          "internalType": "address",
          "name": "_owner",
          "type": "address"
        },
        {
          "internalType": "address",
          "name": "_operator",
          "type": "address"
        }
      ],
      "name": "isApprovedForAll",
      "outputs": [
        {
          "internalType": "bool",
          "name": "isOperator",
          "type": "bool"
        }
      ],
      "stateMutability": "view",
      "type": "function",
      "constant": true
    },
    {
      "inputs": [
        {
          "internalType": "address",
          "name": "account",
          "type": "address"
        },
        {
          "internalType": "uint256",
          "name": "id",
          "type": "uint256"
        },
        {
          "internalType": "uint256",
          "name": "amount",
          "type": "uint256"
        },
        {
          "internalType": "bytes",
          "name": "landtype",
          "type": "bytes"
        }
      ],
      "name": "mint",
      "outputs": [],
      "stateMutability": "nonpayable",
      "type": "function"
    },
    {
      "inputs": [
        {
          "internalType": "address",
          "name": "_account",
          "type": "address"
        },
        {
          "internalType": "bool",
          "name": "_bool",
          "type": "bool"
        }
      ],
      "name": "setFreezeWhiteList",
      "outputs": [],
      "stateMutability": "nonpayable",
      "type": "function"
    },
    {
      "inputs": [
        {
          "internalType": "contract MelandTier",
          "name": "_tierAddress",
          "type": "address"
        }
      ],
      "name": "setMelandTier",
      "outputs": [],
      "stateMutability": "nonpayable",
      "type": "function"
    },
    {
      "inputs": [
        {
          "internalType": "bool",
          "name": "_bool",
          "type": "bool"
        }
      ],
      "name": "setFreezeEnabled",
      "outputs": [],
      "stateMutability": "nonpayable",
      "type": "function"
    },
    {
      "inputs": [
        {
          "internalType": "address",
          "name": "to",
          "type": "address"
        },
        {
          "internalType": "uint256[]",
          "name": "ids",
          "type": "uint256[]"
        },
        {
          "internalType": "uint256[]",
          "name": "amounts",
          "type": "uint256[]"
        },
        {
          "internalType": "bytes",
          "name": "landtype",
          "type": "bytes"
        }
      ],
      "name": "mintBatch",
      "outputs": [],
      "stateMutability": "nonpayable",
      "type": "function"
    },
    {
      "inputs": [
        {
          "internalType": "bytes4",
          "name": "interfaceId",
          "type": "bytes4"
        }
      ],
      "name": "supportsInterface",
      "outputs": [
        {
          "internalType": "bool",
          "name": "",
          "type": "bool"
        }
      ],
      "stateMutability": "view",
      "type": "function",
      "constant": true
    },
    {
      "inputs": [
        {
          "internalType": "contract IERC20Upgradeable",
          "name": "token",
          "type": "address"
        }
      ],
      "name": "setAcceptedToken",
      "outputs": [],
      "stateMutability": "nonpayable",
      "type": "function"
    },
    {
      "inputs": [
        {
          "internalType": "contract NFTStore",
          "name": "s",
          "type": "address"
        }
      ],
      "name": "setStore",
      "outputs": [],
      "stateMutability": "nonpayable",
      "type": "function"
    },
    {
      "inputs": [
        {
          "internalType": "string",
          "name": "symbol",
          "type": "string"
        },
        {
          "internalType": "uint256",
          "name": "p",
          "type": "uint256"
        }
      ],
      "name": "setStoreItem",
      "outputs": [],
      "stateMutability": "nonpayable",
      "type": "function"
    },
    {
      "inputs": [
        {
          "internalType": "string",
          "name": "symbol",
          "type": "string"
        }
      ],
      "name": "delStoreItem",
      "outputs": [],
      "stateMutability": "nonpayable",
      "type": "function"
    },
    {
      "inputs": [
        {
          "internalType": "string",
          "name": "",
          "type": "string"
        }
      ],
      "name": "melandStoreItemsRestrictPurchaseNFTIds",
      "outputs": [
        {
          "internalType": "bool",
          "name": "",
          "type": "bool"
        },
        {
          "internalType": "uint256[]",
          "name": "",
          "type": "uint256[]"
        }
      ],
      "stateMutability": "view",
      "type": "function",
      "constant": true
    },
    {
      "inputs": [
        {
          "internalType": "string",
          "name": "symbol",
          "type": "string"
        },
        {
          "internalType": "uint256",
          "name": "id",
          "type": "uint256"
        },
        {
          "internalType": "address",
          "name": "to",
          "type": "address"
        }
      ],
      "name": "melandStoreItemsMint",
      "outputs": [],
      "stateMutability": "nonpayable",
      "type": "function"
    },
    {
      "inputs": [
        {
          "internalType": "string",
          "name": "symbol",
          "type": "string"
        }
      ],
      "name": "melandStoreSellStatus",
      "outputs": [
        {
          "internalType": "bool",
          "name": "",
          "type": "bool"
        }
      ],
      "stateMutability": "view",
      "type": "function",
      "constant": true
    },
    {
      "inputs": [
        {
          "internalType": "string",
          "name": "",
          "type": "string"
        }
      ],
      "name": "melandStoreItemsRestrictedPurchase",
      "outputs": [
        {
          "internalType": "bool",
          "name": "restricted",
          "type": "bool"
        },
        {
          "internalType": "uint256",
          "name": "restrictLimit",
          "type": "uint256"
        }
      ],
      "stateMutability": "pure",
      "type": "function",
      "constant": true
    }
  ],
  "bytecode": "0x60a06040523060805234801561001457600080fd5b50608051614c1561004560003960008181610e1c01528181610e5c0152818161101b015261105b0152614c156000f3fe6080604052600436106102e35760003560e01c806371d42be511610190578063bdb7b5dd116100dc578063f242432a11610095578063f62d18881161006f578063f62d1888146109ba578063f70e9a47146109da578063f72c0d8b146109fa578063fcc6dd5714610a2e57600080fd5b8063f242432a1461095a578063f405a5841461097a578063f5298aca1461099a57600080fd5b8063bdb7b5dd14610898578063bf4d89b5146108b8578063d5391393146108d8578063d547741f146108fa578063e985e9c51461091a578063ed9be4321461093a57600080fd5b806391d1485411610149578063a22cb46511610123578063a22cb46514610802578063afd600f314610822578063b05462e614610842578063b0c208bc1461087857600080fd5b806391d148541461079f5780639f89e769146107bf578063a217fddf146107ed57600080fd5b806371d42be5146106c9578063731133e9146106e95780637487f5281461070957806383c6c37d1461072957806388beda00146107495780638b31e62d1461077c57600080fd5b80632eb2c2d61161024f57806342346c5e1161020857806352121f09116101e257806352121f091461060f5780635eccb30c1461063d578063664033d51461065d5780636b20c454146106a957600080fd5b806342346c5e146105af5780634e1273f4146105cf5780634f1ef286146105fc57600080fd5b80632eb2c2d6146104ed5780632f2ff15d1461050d57806330c7be2c1461052d57806333a383b01461054f57806336568abe1461056f5780633659cfe61461058f57600080fd5b80630e89341c116102a15780630e89341c146104035780631a8c2e80146104305780631a98cef2146104505780631ba43d2b1461047d5780631f7fdffa1461049d578063248a9ca3146104bd57600080fd5b8062fdd58e146102e857806301ffc9a71461031b57806302fe53051461034b5780630820c90d1461036d578063087cbd40146103a75780630b5a6d86146103c7575b600080fd5b3480156102f457600080fd5b50610308610303366004613a7e565b610a5a565b6040519081526020015b60405180910390f35b34801561032757600080fd5b5061033b610336366004613ac0565b610af6565b6040519015158152602001610312565b34801561035757600080fd5b5061036b610366366004613b92565b610b01565b005b34801561037957600080fd5b50610390610388366004613b92565b506001908190565b604080519215158352602083019190915201610312565b3480156103b357600080fd5b5061036b6103c2366004613bce565b610b27565b3480156103d357600080fd5b5061033b6103e2366004613b92565b80516020818301810180516101688252928201919093012091525460ff1681565b34801561040f57600080fd5b5061042361041e366004613beb565b610b49565b6040516103129190613c5c565b34801561043c57600080fd5b5061036b61044b366004613c6f565b610c1c565b34801561045c57600080fd5b5061030861046b366004613beb565b60ff6020526000908152604090205481565b34801561048957600080fd5b5061033b610498366004613b92565b610c41565b3480156104a957600080fd5b5061036b6104b8366004613d5d565b610c9d565b3480156104c957600080fd5b506103086104d8366004613beb565b60009081526098602052604090206001015490565b3480156104f957600080fd5b5061036b610508366004613df7565b610cc9565b34801561051957600080fd5b5061036b610528366004613ea4565b610d59565b34801561053957600080fd5b50610308600080516020614bc083398151915281565b34801561055b57600080fd5b5061030861056a366004613beb565b610d7f565b34801561057b57600080fd5b5061036b61058a366004613ea4565b610d97565b34801561059b57600080fd5b5061036b6105aa366004613bce565b610e11565b3480156105bb57600080fd5b506103086105ca366004613b92565b610eda565b3480156105db57600080fd5b506105ef6105ea366004613ed4565b610ee7565b6040516103129190613fdb565b61036b61060a366004613fee565b611010565b34801561061b57600080fd5b5061030861062a366004613beb565b61016a6020526000908152604090205481565b34801561064957600080fd5b50610308610658366004613b92565b6110c6565b34801561066957600080fd5b50610691610678366004613b92565b5073fced262e4949b7b5c4177b4e0ad8e974cc7493bf90565b6040516001600160a01b039091168152602001610312565b3480156106b557600080fd5b5061036b6106c4366004614033565b6110d3565b3480156106d557600080fd5b5061036b6106e43660046140bd565b611116565b3480156106f557600080fd5b5061036b6107043660046140d8565b611138565b34801561071557600080fd5b5061036b610724366004613bce565b61115d565b34801561073557600080fd5b5061036b61074436600461412e565b61117f565b34801561075557600080fd5b50610423604051806040016040528060078152602001661d9a5c1b185b9960ca1b81525081565b34801561078857600080fd5b506107916111a2565b604051610312929190614163565b3480156107ab57600080fd5b5061033b6107ba366004613ea4565b6112d8565b3480156107cb57600080fd5b506107df6107da366004613b92565b611303565b6040516103129291906141d0565b3480156107f957600080fd5b50610308600081565b34801561080e57600080fd5b5061036b61081d36600461412e565b611365565b34801561082e57600080fd5b5061042361083d366004613beb565b611370565b34801561084e57600080fd5b506104236040518060400160405280600a8152602001691d1a58dad95d1b185b9960b21b81525081565b34801561088457600080fd5b5061036b610893366004613b92565b61140b565b3480156108a457600080fd5b5061036b6108b33660046141eb565b61142d565b3480156108c457600080fd5b506103086108d33660046141eb565b611450565b3480156108e457600080fd5b50610308600080516020614ba083398151915281565b34801561090657600080fd5b5061036b610915366004613ea4565b61156d565b34801561092657600080fd5b5061033b61093536600461422f565b611593565b34801561094657600080fd5b506103086109553660046141eb565b6115a6565b34801561096657600080fd5b5061036b61097536600461425d565b61175f565b34801561098657600080fd5b50610423610995366004613b92565b6117a4565b3480156109a657600080fd5b5061036b6109b53660046142c5565b6117d8565b3480156109c657600080fd5b5061036b6109d5366004613b92565b61181b565b3480156109e657600080fd5b5061036b6109f5366004613bce565b61195c565b348015610a0657600080fd5b506103087f189ab7a9244df0848122154315af71fe140f3db0fe014031783b0946b8c9d2e381565b348015610a3a57600080fd5b50610691610a49366004613b92565b50610101546001600160a01b031690565b60006001600160a01b038316610acb5760405162461bcd60e51b815260206004820152602b60248201527f455243313135353a2062616c616e636520717565727920666f7220746865207a60448201526a65726f206164647265737360a81b60648201526084015b60405180910390fd5b5060008181526065602090815260408083206001600160a01b03861684529091529020545b92915050565b6000610af082611994565b600080516020614bc0833981519152610b1a81336119b9565b610b2382611a1d565b5050565b600080516020614bc0833981519152610b4081336119b9565b610b2382611a30565b60008181526101696020526040812080546060929190610b68906142fa565b80601f0160208091040260200160405190810160405280929190818152602001828054610b94906142fa565b8015610be15780601f10610bb657610100808354040283529160200191610be1565b820191906000526020600020905b815481529060010190602001808311610bc457829003601f168201915b50505050509050610bf183611a54565b8184604051602001610c0593929190614335565b604051602081830303815290604052915050919050565b610c27838383611ae8565b610c348183600186611b4c565b610c3c611c24565b505050565b60408051808201909152600a8152691d1a58dad95d1b185b9960b21b6020918201528151908201206000907f1cb6cb558a2b0eaf4f7c8fe6b68ffffce2f021379f9fa31ee9cbee72ba079f03148015610af05750600192915050565b600080516020614ba0833981519152610cb681336119b9565b610cc285858585611c97565b5050505050565b6001600160a01b038516331480610ce55750610ce58533611593565b610d4c5760405162461bcd60e51b815260206004820152603260248201527f455243313135353a207472616e736665722063616c6c6572206973206e6f74206044820152711bdddb995c881b9bdc88185c1c1c9bdd995960721b6064820152608401610ac2565b610cc28585858585611df2565b600082815260986020526040902060010154610d7581336119b9565b610c3c8383611f9f565b61016b8160648110610d9057600080fd5b0154905081565b6001600160a01b0381163314610e075760405162461bcd60e51b815260206004820152602f60248201527f416363657373436f6e74726f6c3a2063616e206f6e6c792072656e6f756e636560448201526e103937b632b9903337b91039b2b63360891b6064820152608401610ac2565b610b238282612025565b306001600160a01b037f0000000000000000000000000000000000000000000000000000000000000000161415610e5a5760405162461bcd60e51b8152600401610ac290614382565b7f00000000000000000000000000000000000000000000000000000000000000006001600160a01b0316610e8c61208c565b6001600160a01b031614610eb25760405162461bcd60e51b8152600401610ac2906143ce565b610ebb816120ba565b60408051600080825260208201909252610ed7918391906120e5565b50565b6000610af0826000611450565b60608151835114610f4c5760405162461bcd60e51b815260206004820152602960248201527f455243313135353a206163636f756e747320616e6420696473206c656e677468604482015268040dad2e6dac2e8c6d60bb1b6064820152608401610ac2565b600083516001600160401b03811115610f6757610f67613add565b604051908082528060200260200182016040528015610f90578160200160208202803683370190505b50905060005b845181101561100857610fdb858281518110610fb457610fb461441a565b6020026020010151858381518110610fce57610fce61441a565b6020026020010151610a5a565b828281518110610fed57610fed61441a565b602090810291909101015261100181614446565b9050610f96565b509392505050565b306001600160a01b037f00000000000000000000000000000000000000000000000000000000000000001614156110595760405162461bcd60e51b8152600401610ac290614382565b7f00000000000000000000000000000000000000000000000000000000000000006001600160a01b031661108b61208c565b6001600160a01b0316146110b15760405162461bcd60e51b8152600401610ac2906143ce565b6110ba826120ba565b610b23828260016120e5565b6000610af08260006115a6565b6001600160a01b0383163314806110ef57506110ef8333611593565b61110b5760405162461bcd60e51b8152600401610ac290614461565b610c3c838383612229565b600080516020614bc083398151915261112f81336119b9565b610b23826123ba565b600080516020614ba083398151915261115181336119b9565b610cc285858585611b4c565b600080516020614bc083398151915261117681336119b9565b610b2382612401565b600080516020614bc083398151915261119881336119b9565b610c3c8383612425565b60608061010261010381805480602002602001604051908101604052809291908181526020016000905b828210156112785783829060005260206000200180546111eb906142fa565b80601f0160208091040260200160405190810160405280929190818152602001828054611217906142fa565b80156112645780601f1061123957610100808354040283529160200191611264565b820191906000526020600020905b81548152906001019060200180831161124757829003601f168201915b5050505050815260200190600101906111cc565b505050509150808054806020026020016040519081016040528092919081815260200182805480156112c957602002820191906000526020600020905b8154815260200190600101908083116112b5575b50505050509050915091509091565b60009182526098602090815260408084206001600160a01b0393909316845291905290205460ff1690565b600060608060005b60648110156113595761016b81606481106113285761132861441a565b015482828151811061133c5761133c61441a565b60209081029190910101528061135181614446565b91505061130b565b50600094909350915050565b610b23338383612484565b610169602052600090815260409020805461138a906142fa565b80601f01602080910402602001604051908101604052809291908181526020018280546113b6906142fa565b80156114035780601f106113d857610100808354040283529160200191611403565b820191906000526020600020905b8154815290600101906020018083116113e657829003601f168201915b505050505081565b600080516020614bc083398151915261142481336119b9565b610b2382612565565b600080516020614bc083398151915261144681336119b9565b610c3c83836126dc565b6000828180805b83518110156115455760308482815181106114745761147461441a565b016020015160f81c108015906114a4575060398482815181106114995761149961441a565b016020015160f81c11155b1561150b5781156114c757856114b957611545565b856114c3816144aa565b9650505b6114d2600a846144c1565b925060308482815181106114e8576114e861441a565b01602001516114fa919060f81c6144e0565b61150490846144f7565b9250611533565b83818151811061151d5761151d61441a565b60209101015160f81c602e141561153357600191505b8061153d81614446565b915050611457565b5084156115645761155785600a6145f3565b61156190836144c1565b91505b50949350505050565b60008281526098602052604090206001015461158981336119b9565b610c3c8383612025565b600061159f8383612858565b9392505050565b6000828180805b83518110156115455760308482815181106115ca576115ca61441a565b016020015160f81c108015906115fa575060398482815181106115ef576115ef61441a565b016020015160f81c11155b1561166157811561161d578561160f57611545565b85611619816144aa565b9650505b611628600a846144c1565b9250603084828151811061163e5761163e61441a565b0160200151611650919060f81c6144e0565b61165a90846144f7565b925061174d565b8381815181106116735761167361441a565b60209101015160f81c602e14156116f05781156116e75760405162461bcd60e51b815260206004820152602c60248201527f4d6f7265207468616e206f6e6520646563696d616c20656e636f756e7465726560448201526b6420696e20737472696e672160a01b6064820152608401610ac2565b6001915061174d565b60405162461bcd60e51b815260206004820152602c60248201527f4e6f6e2d6e756d6572616c2063686172616374657220656e636f756e7465726560448201526b6420696e20737472696e672160a01b6064820152608401610ac2565b8061175781614446565b9150506115ad565b6001600160a01b03851633148061177b575061177b8533611593565b6117975760405162461bcd60e51b8152600401610ac290614461565b610cc285858585856128d3565b60606117b06000611a54565b826040516020016117c29291906145ff565b6040516020818303038152906040529050919050565b6001600160a01b0383163314806117f457506117f48333611593565b6118105760405162461bcd60e51b8152600401610ac290614461565b610c3c8383836129f4565b600054610100900460ff1680611834575060005460ff16155b6118505760405162461bcd60e51b8152600401610ac290614644565b600054610100900460ff16158015611872576000805461ffff19166101011790555b61187b82612af9565b611883612b7e565b61188b612c01565b611893612c5f565b61189b612c95565b6001610168604051806040016040528060078152602001661d9a5c1b185b9960ca1b8152506040516118cd9190614692565b908152602001604051809103902060006101000a81548160ff02191690831515021790555060016101686040518060400160405280600a8152602001691d1a58dad95d1b185b9960b21b8152506040516119279190614692565b908152604051908190036020019020805491151560ff199092169190911790558015610b23576000805461ff00191690555050565b600080516020614bc083398151915261197581336119b9565b609780546001600160a01b0319166001600160a01b0384161790555050565b60006001600160e01b03198216637965db0b60e01b1480610af05750610af082612d02565b6119c382826112d8565b610b23576119db816001600160a01b03166014612d52565b6119e6836020612d52565b6040516020016119f79291906146ae565b60408051601f198184030181529082905262461bcd60e51b8252610ac291600401613c5c565b8051610b2390606790602084019061391f565b61010080546001600160a01b0319166001600160a01b038316179055610ed7611c24565b606060678054611a63906142fa565b80601f0160208091040260200160405190810160405280929190818152602001828054611a8f906142fa565b8015611adc5780601f10611ab157610100808354040283529160200191611adc565b820191906000526020600020905b815481529060010190602001808311611abf57829003601f168201915b50505050509050919050565b610100546001600160a01b0316336001600160a01b031614610c3c5760405162461bcd60e51b815260206004820152601f60248201527f416c6c6f77206f6e6c79204d656c616e642e6169206d616c6c2063616c6c73006044820152606401610ac2565b6001600160a01b038416611b725760405162461bcd60e51b8152600401610ac290614723565b33611b9281600087611b8388612eed565b611b8c88612eed565b87612f38565b60008481526065602090815260408083206001600160a01b038916845290915281208054859290611bc49084906144f7565b909155505060408051858152602081018590526001600160a01b0380881692600092918516917fc3d58168c5ae7397731d063d5bbf3d657854427343f4c083240f7aacaa2d0f62910160405180910390a4610cc2816000878787876132e6565b610100546001600160a01b031615611c95576101005460405163fa21a11d60e01b81523060048201526001600160a01b039091169063fa21a11d90602401600060405180830381600087803b158015611c7c57600080fd5b505af1158015611c90573d6000803e3d6000fd5b505050505b565b6001600160a01b038416611cbd5760405162461bcd60e51b8152600401610ac290614723565b8151835114611cde5760405162461bcd60e51b8152600401610ac290614764565b33611cee81600087878787612f38565b60005b8451811015611d8a57838181518110611d0c57611d0c61441a565b602002602001015160656000878481518110611d2a57611d2a61441a565b602002602001015181526020019081526020016000206000886001600160a01b03166001600160a01b031681526020019081526020016000206000828254611d7291906144f7565b90915550819050611d8281614446565b915050611cf1565b50846001600160a01b031660006001600160a01b0316826001600160a01b03167f4a39dc06d4c0dbc64b70af90fd698a233a518aa5d07e595d983b8c0526c8f7fb8787604051611ddb9291906147ac565b60405180910390a4610cc281600087878787613451565b8151835114611e135760405162461bcd60e51b8152600401610ac290614764565b6001600160a01b038416611e395760405162461bcd60e51b8152600401610ac2906147d1565b33611e48818787878787612f38565b60005b8451811015611f31576000858281518110611e6857611e6861441a565b602002602001015190506000858381518110611e8657611e8661441a565b60209081029190910181015160008481526065835260408082206001600160a01b038e168352909352919091205490915081811015611ed75760405162461bcd60e51b8152600401610ac290614816565b60008381526065602090815260408083206001600160a01b038e8116855292528083208585039055908b16825281208054849290611f169084906144f7565b9250508190555050505080611f2a90614446565b9050611e4b565b50846001600160a01b0316866001600160a01b0316826001600160a01b03167f4a39dc06d4c0dbc64b70af90fd698a233a518aa5d07e595d983b8c0526c8f7fb8787604051611f819291906147ac565b60405180910390a4611f97818787878787613451565b505050505050565b611fa982826112d8565b610b235760008281526098602090815260408083206001600160a01b03851684529091529020805460ff19166001179055611fe13390565b6001600160a01b0316816001600160a01b0316837f2f8788117e7eff1d82e926ec794901d17c78024a50270940304540a733656f0d60405160405180910390a45050565b61202f82826112d8565b15610b235760008281526098602090815260408083206001600160a01b0385168085529252808320805460ff1916905551339285917ff6391f5c32d9c69d2a47ea670b442974b53935d1edc7fd64eb21e047a839171b9190a45050565b7f360894a13ba1a3210667c828492db98dca3e2076cc3735a920a3ca505d382bbc546001600160a01b031690565b7f189ab7a9244df0848122154315af71fe140f3db0fe014031783b0946b8c9d2e3610b2381336119b9565b60006120ef61208c565b90506120fa8461351b565b6000835111806121075750815b156121185761211684846135c0565b505b7f4910fdfa16fed3260ed0e7147f7cc6da11a60208b5b9406d12a635614ffd9143805460ff16610cc257805460ff191660011781556040516001600160a01b038316602482015261219790869060440160408051601f198184030181529190526020810180516001600160e01b0316631b2ce7f360e11b1790526135c0565b50805460ff191681556121a861208c565b6001600160a01b0316826001600160a01b0316146122205760405162461bcd60e51b815260206004820152602f60248201527f45524331393637557067726164653a207570677261646520627265616b73206660448201526e75727468657220757067726164657360881b6064820152608401610ac2565b610cc2856136ab565b6001600160a01b03831661224f5760405162461bcd60e51b8152600401610ac290614860565b80518251146122705760405162461bcd60e51b8152600401610ac290614764565b600033905061229381856000868660405180602001604052806000815250612f38565b60005b835181101561235b5760008482815181106122b3576122b361441a565b6020026020010151905060008483815181106122d1576122d161441a565b60209081029190910181015160008481526065835260408082206001600160a01b038c1683529093529190912054909150818110156123225760405162461bcd60e51b8152600401610ac2906148a3565b60009283526065602090815260408085206001600160a01b038b168652909152909220910390558061235381614446565b915050612296565b5060006001600160a01b0316846001600160a01b0316826001600160a01b03167f4a39dc06d4c0dbc64b70af90fd698a233a518aa5d07e595d983b8c0526c8f7fb86866040516123ac9291906147ac565b60405180910390a450505050565b60fc805460ff19168215159081179091556040519081527ffe201e4b4f6868843d95c43911ae6440969ce8f267814256f138983f77b444399060200160405180910390a150565b61010180546001600160a01b0319166001600160a01b038316179055610ed7611c24565b6001600160a01b038216600081815260fe6020908152604091829020805460ff191685151590811790915591519182527f8b0795ef2ee415d4d22faae6db2f220e804a2ece30b9ef73c9135823d5326e4a910160405180910390a25050565b816001600160a01b0316836001600160a01b031614156124f85760405162461bcd60e51b815260206004820152602960248201527f455243313135353a2073657474696e6720617070726f76616c20737461747573604482015268103337b91039b2b63360b91b6064820152608401610ac2565b6001600160a01b03838116600081815260666020908152604080832094871680845294825291829020805460ff191686151590811790915591519182527f17307eab39ab6107e8899845ad3d59bd9653f200f220920489ca2b5937696c31910160405180910390a3505050565b6000805b610102548110156125cb57828051906020012061010282815481106125905761259061441a565b906000526020600020016040516125a791906148e7565b604051809103902014156125b9578091505b806125c381614446565b915050612569565b5061010280546125dd906001906144e0565b815481106125ed576125ed61441a565b90600052602060002001610102828154811061260b5761260b61441a565b90600052602060002001908054612621906142fa565b61262c9291906139a3565b5061010280548061263f5761263f614983565b60019003818190600052602060002001600061265b9190613a1e565b90556101025461010390612671906001906144e0565b815481106126815761268161441a565b906000526020600020015461010382815481106126a0576126a061441a565b6000918252602090912001556101038054806126be576126be614983565b60019003818190600052602060002001600090559055610b23611c24565b6000805b610102548110156127425761010281815481106126ff576126ff61441a565b9060005260206000200160405161271691906148e7565b604051809103902084805190602001201415612730578091505b8061273a81614446565b9150506126e0565b50801561276f5781610103828154811061275e5761275e61441a565b600091825260209091200155610c34565b61010254158015906127ba575082805190602001206101026000815481106127995761279961441a565b906000526020600020016040516127b091906148e7565b6040518091039020145b156127d5578161010360008154811061275e5761275e61441a565b61010280546001810182556000919091528351612819917f93bdaa6a4190909b7c3fbe8d42169ffe1cab19f51dfc8db24c71abf849eced4a0190602086019061391f565b5061010380546001810182556000919091527f02c297ab74aad0aede3a1895c857b1f2c71e6a203feb727bec95ac752998cb7801829055610c3c611c24565b60006001600160a01b03821673207fa8df3a17d96ca7ea4f2893fcdcb78a304101141561288757506001610af0565b6097546001600160a01b03838116911614156128a557506001610af0565b6001600160a01b0380841660009081526066602090815260408083209386168352929052205460ff1661159f565b6001600160a01b0384166128f95760405162461bcd60e51b8152600401610ac2906147d1565b33612909818787611b8388612eed565b60008481526065602090815260408083206001600160a01b038a1684529091529020548381101561294c5760405162461bcd60e51b8152600401610ac290614816565b60008581526065602090815260408083206001600160a01b038b811685529252808320878503905590881682528120805486929061298b9084906144f7565b909155505060408051868152602081018690526001600160a01b03808916928a821692918616917fc3d58168c5ae7397731d063d5bbf3d657854427343f4c083240f7aacaa2d0f62910160405180910390a46129eb8288888888886132e6565b50505050505050565b6001600160a01b038316612a1a5760405162461bcd60e51b8152600401610ac290614860565b33612a4981856000612a2b87612eed565b612a3487612eed565b60405180602001604052806000815250612f38565b60008381526065602090815260408083206001600160a01b038816845290915290205482811015612a8c5760405162461bcd60e51b8152600401610ac2906148a3565b60008481526065602090815260408083206001600160a01b03898116808652918452828520888703905582518981529384018890529092908616917fc3d58168c5ae7397731d063d5bbf3d657854427343f4c083240f7aacaa2d0f62910160405180910390a45050505050565b600054610100900460ff1680612b12575060005460ff16155b612b2e5760405162461bcd60e51b8152600401610ac290614644565b600054610100900460ff16158015612b50576000805461ffff19166101011790555b612b586136eb565b612b606136eb565b612b6982613755565b8015610b23576000805461ff00191690555050565b600054610100900460ff1680612b97575060005460ff16155b612bb35760405162461bcd60e51b8152600401610ac290614644565b600054610100900460ff16158015612bd5576000805461ffff19166101011790555b612bdd6136eb565b612be56136eb565b612bed6136eb565b8015610ed7576000805461ff001916905550565b600054610100900460ff1680612c1a575060005460ff16155b612c365760405162461bcd60e51b8152600401610ac290614644565b600054610100900460ff16158015612bdd576000805461ffff1916610101179055612be56136eb565b60fc805460ff1916600190811790915562093a8060fd55611c959073714df076992f95e452a345cd8289882cec6ab82f90612425565b612c9d612b7e565b612ca8600033611f9f565b612cc0600080516020614bc083398151915233611f9f565b612cd8600080516020614ba083398151915233611f9f565b611c957f189ab7a9244df0848122154315af71fe140f3db0fe014031783b0946b8c9d2e333611f9f565b60006001600160e01b03198216636cdb3d1360e11b1480612d3357506001600160e01b031982166303a24d0760e21b145b80610af057506301ffc9a760e01b6001600160e01b0319831614610af0565b60606000612d618360026144c1565b612d6c9060026144f7565b6001600160401b03811115612d8357612d83613add565b6040519080825280601f01601f191660200182016040528015612dad576020820181803683370190505b509050600360fc1b81600081518110612dc857612dc861441a565b60200101906001600160f81b031916908160001a905350600f60fb1b81600181518110612df757612df761441a565b60200101906001600160f81b031916908160001a9053506000612e1b8460026144c1565b612e269060016144f7565b90505b6001811115612e9e576f181899199a1a9b1b9c1cb0b131b232b360811b85600f1660108110612e5a57612e5a61441a565b1a60f81b828281518110612e7057612e7061441a565b60200101906001600160f81b031916908160001a90535060049490941c93612e97816144aa565b9050612e29565b50831561159f5760405162461bcd60e51b815260206004820181905260248201527f537472696e67733a20686578206c656e67746820696e73756666696369656e746044820152606401610ac2565b60408051600180825281830190925260609160009190602080830190803683370190505090508281600081518110612f2757612f2761441a565b602090810291909101015292915050565b60005b8251811015612fe557828181518110612f5657612f5661441a565b6020026020010151600114612fd35760405162461bcd60e51b815260206004820152603b60248201527f45616368206c616e6420697320756e697175652c20536f20746865726520697360448201527f206e6f207472616e736665722067726561746572207468616e203100000000006064820152608401610ac2565b80612fdd81614446565b915050612f3b565b5060005b83518110156131585760008482815181106130065761300661441a565b60200260200101519050600061016960008381526020019081526020016000208054613031906142fa565b80601f016020809104026020016040519081016040528092919081815260200182805461305d906142fa565b80156130aa5780601f1061307f576101008083540402835291602001916130aa565b820191906000526020600020905b81548152906001019060200180831161308d57829003601f168201915b505050505090507f1cb6cb558a2b0eaf4f7c8fe6b68ffffce2f021379f9fa31ee9cbee72ba079f03818051906020012014156130eb576130eb8888846137b5565b6001600160a01b0387166131435760008281526101696020526040812061311191613a1e565b600161016a600083805190602001208152602001908152602001600020600082825461313d91906144e0565b90915550505b5050808061315090614446565b915050612fe9565b506001600160a01b0385166132e157610168816040516131789190614692565b908152604051602091819003820181205460ff169161319991849101614999565b604051602081830303815290604052906131c65760405162461bcd60e51b8152600401610ac29190613c5c565b5060005b83518110156132ae5761016960008583815181106131ea576131ea61441a565b60200260200101518152602001908152602001600020805461320b906142fa565b15905061325a5760405162461bcd60e51b815260206004820152601d60248201527f4d616b6520737572652065616368206c616e6420697320756e697175650000006044820152606401610ac2565b8161016960008684815181106132725761327261441a565b60200260200101518152602001908152602001600020908051906020019061329b92919061391f565b50806132a681614446565b9150506131ca565b50825161016a60008380519060200120815260200190815260200160002060008282546132db91906144f7565b90915550505b611f97565b6001600160a01b0384163b15611f975760405163f23a6e6160e01b81526001600160a01b0385169063f23a6e619061332a90899089908890889088906004016149cb565b602060405180830381600087803b15801561334457600080fd5b505af1925050508015613374575060408051601f3d908101601f1916820190925261337191810190614a10565b60015b61342157613380614a2d565b806308c379a014156133ba5750613395614a49565b806133a057506133bc565b8060405162461bcd60e51b8152600401610ac29190613c5c565b505b60405162461bcd60e51b815260206004820152603460248201527f455243313135353a207472616e7366657220746f206e6f6e20455243313135356044820152732932b1b2b4bb32b91034b6b83632b6b2b73a32b960611b6064820152608401610ac2565b6001600160e01b0319811663f23a6e6160e01b146129eb5760405162461bcd60e51b8152600401610ac290614ad2565b6001600160a01b0384163b15611f975760405163bc197c8160e01b81526001600160a01b0385169063bc197c81906134959089908990889088908890600401614b1a565b602060405180830381600087803b1580156134af57600080fd5b505af19250505080156134df575060408051601f3d908101601f191682019092526134dc91810190614a10565b60015b6134eb57613380614a2d565b6001600160e01b0319811663bc197c8160e01b146129eb5760405162461bcd60e51b8152600401610ac290614ad2565b803b61357f5760405162461bcd60e51b815260206004820152602d60248201527f455243313936373a206e657720696d706c656d656e746174696f6e206973206e60448201526c1bdd08184818dbdb9d1c9858dd609a1b6064820152608401610ac2565b7f360894a13ba1a3210667c828492db98dca3e2076cc3735a920a3ca505d382bbc80546001600160a01b0319166001600160a01b0392909216919091179055565b6060823b61361f5760405162461bcd60e51b815260206004820152602660248201527f416464726573733a2064656c65676174652063616c6c20746f206e6f6e2d636f6044820152651b9d1c9858dd60d21b6064820152608401610ac2565b600080846001600160a01b03168460405161363a9190614692565b600060405180830381855af49150503d8060008114613675576040519150601f19603f3d011682016040523d82523d6000602084013e61367a565b606091505b50915091506136a28282604051806060016040528060278152602001614b79602791396138da565b95945050505050565b6136b48161351b565b6040516001600160a01b038216907fbc7cd75a20ee27fd9adebab32041f755214dbc6bffa90cc0225b39da2e5c2d3b90600090a250565b600054610100900460ff1680613704575060005460ff16155b6137205760405162461bcd60e51b8152600401610ac290614644565b600054610100900460ff16158015612bed576000805461ffff19166101011790558015610ed7576000805461ff001916905550565b600054610100900460ff168061376e575060005460ff16155b61378a5760405162461bcd60e51b8152600401610ac290614644565b600054610100900460ff161580156137ac576000805461ffff19166101011790555b612b6982611a1d565b60fc5460ff166137c457505050565b6001600160a01b0382163b156137d957505050565b6001600160a01b038216600090815260fe602052604090205460ff16156137ff57505050565b600081815260ff60209081526040918290205491514283109261388a929091017f5468652063757272656e74204e465420697320696e207468652074726164696e81527f672070726f74656374696f6e20706572696f6420616e642063616e206265207460208201526a3930b232b21030b33a32b960a91b6040820152604b810191909152606b0190565b604051602081830303815290604052906138b75760405162461bcd60e51b8152600401610ac29190613c5c565b5060fd546138c6904290613913565b600091825260ff6020526040909120555050565b606083156138e957508161159f565b8251156138f95782518084602001fd5b8160405162461bcd60e51b8152600401610ac29190613c5c565b600061159f82846144f7565b82805461392b906142fa565b90600052602060002090601f01602090048101928261394d5760008555613993565b82601f1061396657805160ff1916838001178555613993565b82800160010185558215613993579182015b82811115613993578251825591602001919060010190613978565b5061399f929150613a54565b5090565b8280546139af906142fa565b90600052602060002090601f0160209004810192826139d15760008555613993565b82601f106139e25780548555613993565b8280016001018555821561399357600052602060002091601f016020900482015b82811115613993578254825591600101919060010190613a03565b508054613a2a906142fa565b6000825580601f10613a3a575050565b601f016020900490600052602060002090810190610ed791905b5b8082111561399f5760008155600101613a55565b6001600160a01b0381168114610ed757600080fd5b60008060408385031215613a9157600080fd5b8235613a9c81613a69565b946020939093013593505050565b6001600160e01b031981168114610ed757600080fd5b600060208284031215613ad257600080fd5b813561159f81613aaa565b634e487b7160e01b600052604160045260246000fd5b601f8201601f191681016001600160401b0381118282101715613b1857613b18613add565b6040525050565b600082601f830112613b3057600080fd5b81356001600160401b03811115613b4957613b49613add565b604051613b60601f8301601f191660200182613af3565b818152846020838601011115613b7557600080fd5b816020850160208301376000918101602001919091529392505050565b600060208284031215613ba457600080fd5b81356001600160401b03811115613bba57600080fd5b613bc684828501613b1f565b949350505050565b600060208284031215613be057600080fd5b813561159f81613a69565b600060208284031215613bfd57600080fd5b5035919050565b60005b83811015613c1f578181015183820152602001613c07565b83811115611c905750506000910152565b60008151808452613c48816020860160208601613c04565b601f01601f19169290920160200192915050565b60208152600061159f6020830184613c30565b600080600060608486031215613c8457600080fd5b83356001600160401b03811115613c9a57600080fd5b613ca686828701613b1f565b935050602084013591506040840135613cbe81613a69565b809150509250925092565b60006001600160401b03821115613ce257613ce2613add565b5060051b60200190565b600082601f830112613cfd57600080fd5b81356020613d0a82613cc9565b604051613d178282613af3565b83815260059390931b8501820192828101915086841115613d3757600080fd5b8286015b84811015613d525780358352918301918301613d3b565b509695505050505050565b60008060008060808587031215613d7357600080fd5b8435613d7e81613a69565b935060208501356001600160401b0380821115613d9a57600080fd5b613da688838901613cec565b94506040870135915080821115613dbc57600080fd5b613dc888838901613cec565b93506060870135915080821115613dde57600080fd5b50613deb87828801613b1f565b91505092959194509250565b600080600080600060a08688031215613e0f57600080fd5b8535613e1a81613a69565b94506020860135613e2a81613a69565b935060408601356001600160401b0380821115613e4657600080fd5b613e5289838a01613cec565b94506060880135915080821115613e6857600080fd5b613e7489838a01613cec565b93506080880135915080821115613e8a57600080fd5b50613e9788828901613b1f565b9150509295509295909350565b60008060408385031215613eb757600080fd5b823591506020830135613ec981613a69565b809150509250929050565b60008060408385031215613ee757600080fd5b82356001600160401b0380821115613efe57600080fd5b818501915085601f830112613f1257600080fd5b81356020613f1f82613cc9565b604051613f2c8282613af3565b83815260059390931b8501820192828101915089841115613f4c57600080fd5b948201945b83861015613f73578535613f6481613a69565b82529482019490820190613f51565b96505086013592505080821115613f8957600080fd5b50613f9685828601613cec565b9150509250929050565b600081518084526020808501945080840160005b83811015613fd057815187529582019590820190600101613fb4565b509495945050505050565b60208152600061159f6020830184613fa0565b6000806040838503121561400157600080fd5b823561400c81613a69565b915060208301356001600160401b0381111561402757600080fd5b613f9685828601613b1f565b60008060006060848603121561404857600080fd5b833561405381613a69565b925060208401356001600160401b038082111561406f57600080fd5b61407b87838801613cec565b9350604086013591508082111561409157600080fd5b5061409e86828701613cec565b9150509250925092565b803580151581146140b857600080fd5b919050565b6000602082840312156140cf57600080fd5b61159f826140a8565b600080600080608085870312156140ee57600080fd5b84356140f981613a69565b9350602085013592506040850135915060608501356001600160401b0381111561412257600080fd5b613deb87828801613b1f565b6000806040838503121561414157600080fd5b823561414c81613a69565b915061415a602084016140a8565b90509250929050565b6000604082016040835280855180835260608501915060608160051b8601019250602080880160005b838110156141ba57605f198887030185526141a8868351613c30565b9550938201939082019060010161418c565b5050858403818701525050506136a28185613fa0565b8215158152604060208201526000613bc66040830184613fa0565b600080604083850312156141fe57600080fd5b82356001600160401b0381111561421457600080fd5b61422085828601613b1f565b95602094909401359450505050565b6000806040838503121561424257600080fd5b823561424d81613a69565b91506020830135613ec981613a69565b600080600080600060a0868803121561427557600080fd5b853561428081613a69565b9450602086013561429081613a69565b9350604086013592506060860135915060808601356001600160401b038111156142b957600080fd5b613e9788828901613b1f565b6000806000606084860312156142da57600080fd5b83356142e581613a69565b95602085013595506040909401359392505050565b600181811c9082168061430e57607f821691505b6020821081141561432f57634e487b7160e01b600052602260045260246000fd5b50919050565b60008451614347818460208901613c04565b8083019050602f60f81b8082528551614367816001850160208a01613c04565b60019201918201526002810193909352505060220192915050565b6020808252602c908201527f46756e6374696f6e206d7573742062652063616c6c6564207468726f7567682060408201526b19195b1959d85d1958d85b1b60a21b606082015260800190565b6020808252602c908201527f46756e6374696f6e206d7573742062652063616c6c6564207468726f7567682060408201526b6163746976652070726f787960a01b606082015260800190565b634e487b7160e01b600052603260045260246000fd5b634e487b7160e01b600052601160045260246000fd5b600060001982141561445a5761445a614430565b5060010190565b60208082526029908201527f455243313135353a2063616c6c6572206973206e6f74206f776e6572206e6f7260408201526808185c1c1c9bdd995960ba1b606082015260800190565b6000816144b9576144b9614430565b506000190190565b60008160001904831182151516156144db576144db614430565b500290565b6000828210156144f2576144f2614430565b500390565b6000821982111561450a5761450a614430565b500190565b600181815b8085111561454a57816000190482111561453057614530614430565b8085161561453d57918102915b93841c9390800290614514565b509250929050565b60008261456157506001610af0565b8161456e57506000610af0565b8160018114614584576002811461458e576145aa565b6001915050610af0565b60ff84111561459f5761459f614430565b50506001821b610af0565b5060208310610133831016604e8410600b84101617156145cd575081810a610af0565b6145d7838361450f565b80600019048211156145eb576145eb614430565b029392505050565b600061159f8383614552565b60008351614611818460208801613c04565b8083019050602f60f81b8082528451614631816001850160208901613c04565b6001920191820152600201949350505050565b6020808252602e908201527f496e697469616c697a61626c653a20636f6e747261637420697320616c72656160408201526d191e481a5b9a5d1a585b1a5e995960921b606082015260800190565b600082516146a4818460208701613c04565b9190910192915050565b7f416363657373436f6e74726f6c3a206163636f756e74200000000000000000008152600083516146e6816017850160208801613c04565b7001034b99036b4b9b9b4b733903937b6329607d1b6017918401918201528351614717816028840160208801613c04565b01602801949350505050565b60208082526021908201527f455243313135353a206d696e7420746f20746865207a65726f206164647265736040820152607360f81b606082015260800190565b60208082526028908201527f455243313135353a2069647320616e6420616d6f756e7473206c656e677468206040820152670dad2e6dac2e8c6d60c31b606082015260800190565b6040815260006147bf6040830185613fa0565b82810360208401526136a28185613fa0565b60208082526025908201527f455243313135353a207472616e7366657220746f20746865207a65726f206164604082015264647265737360d81b606082015260800190565b6020808252602a908201527f455243313135353a20696e73756666696369656e742062616c616e636520666f60408201526939103a3930b739b332b960b11b606082015260800190565b60208082526023908201527f455243313135353a206275726e2066726f6d20746865207a65726f206164647260408201526265737360e81b606082015260800190565b60208082526024908201527f455243313135353a206275726e20616d6f756e7420657863656564732062616c604082015263616e636560e01b606082015260800190565b600080835481600182811c91508083168061490357607f831692505b602080841082141561492357634e487b7160e01b86526022600452602486fd5b818015614937576001811461494857614975565b60ff19861689528489019650614975565b60008a81526020902060005b8681101561496d5781548b820152908501908301614954565b505084890196505b509498975050505050505050565b634e487b7160e01b600052603160045260246000fd5b600082516149ab818460208701613c04565b6d1a5cc81b9bdd081cdd5c1c1bdc9d60921b920191825250600e01919050565b6001600160a01b03868116825285166020820152604081018490526060810183905260a060808201819052600090614a0590830184613c30565b979650505050505050565b600060208284031215614a2257600080fd5b815161159f81613aaa565b600060033d1115614a465760046000803e5060005160e01c5b90565b600060443d1015614a575790565b6040516003193d81016004833e81513d6001600160401b038160248401118184111715614a8657505050505090565b8285019150815181811115614a9e5750505050505090565b843d8701016020828501011115614ab85750505050505090565b614ac760208286010187613af3565b509095945050505050565b60208082526028908201527f455243313135353a204552433131353552656365697665722072656a656374656040820152676420746f6b656e7360c01b606082015260800190565b6001600160a01b0386811682528516602082015260a060408201819052600090614b4690830186613fa0565b8281036060840152614b588186613fa0565b90508281036080840152614b6c8185613c30565b9897505050505050505056fe416464726573733a206c6f772d6c6576656c2064656c65676174652063616c6c206661696c65649f2df0fed2c77648de5860a4cc508cd0818c85b8b8a1ab4ceeef8d981c8956a6f5eb84615c2a00ecaf817d13794ebd6299c9e01c395bf4018453f13f577f5449a2646970667358221220982b567a0ab500b9d3b0559465bf21f11dfe3426b1473cc2e5d3f7b5e0d294cc64736f6c63430008090033",
  "immutableReferences": {
    "1023": [
      {
        "length": 32,
        "start": 3612
      },
      {
        "length": 32,
        "start": 3676
      },
      {
        "length": 32,
        "start": 4123
      },
      {
        "length": 32,
        "start": 4187
      }
    ]
  },
  "source": "// SPDX-License-Identifier: MIT\npragma solidity 0.8.9;\n\nimport \"@openzeppelin/contracts-upgradeable/token/ERC1155/ERC1155Upgradeable.sol\";\nimport \"@openzeppelin/contracts-upgradeable/access/AccessControlUpgradeable.sol\";\nimport \"@openzeppelin/contracts-upgradeable/token/ERC1155/extensions/ERC1155BurnableUpgradeable.sol\";\nimport \"@openzeppelin/contracts-upgradeable/proxy/utils/Initializable.sol\";\nimport \"@openzeppelin/contracts-upgradeable/proxy/utils/UUPSUpgradeable.sol\";\nimport \"./MelandNFTFreeze.sol\";\nimport \"./MelandTierAddressStore.sol\";\nimport \"./MelandAccessRoles.sol\";\nimport \"./MelandTier.sol\";\nimport \"./Meland1155StoreItem.sol\";\n\ncontract Meland1155Land is\n    Initializable,\n    MelandTierAddressStore,\n    MelandAccessRoles,\n    ERC1155BurnableUpgradeable,\n    MelandNFTFreeze,\n    Meland1155StoreItem,\n    UUPSUpgradeable\n{\n    bytes public constant ticketland = \"ticketland\";\n    bytes public constant vipland = \"vipland\";\n    mapping(bytes => bool) public supportLandtypes;\n    mapping(uint256 => string) public landtypeById;\n    mapping(bytes32 => uint256) public totalSupplyByLandtype;\n\n    uint256[100] public ticketlandIds;\n\n    function initialize(string memory _uri) public initializer {\n        __ERC1155_init(_uri);\n        __ERC1155Burnable_init();\n        __UUPSUpgradeable_init();\n        __MelandNFTFreeze_init();\n        __MelandAccessRoles_init();\n\n        supportLandtypes[vipland] = true;\n        supportLandtypes[ticketland] = true;\n    }\n\n    function setURI(string memory newuri) public onlyRole(GM_ROLE) {\n        _setURI(newuri);\n    }\n\n    function uri(uint256 id)\n        public\n        view\n        virtual\n        override\n        returns (string memory)\n    {\n        string memory landtype = landtypeById[id];\n        return string(abi.encodePacked(super.uri(id), \"/\", landtype, \"/\", id));\n    }\n\n    function melandStoreItemURI(string memory symbol)\n        external\n        view\n        returns (string memory)\n    {\n        return string(abi.encodePacked(ERC1155Upgradeable.uri(0), \"/\", symbol, \"/\"));\n    }\n\n    function isApprovedForAll(address _owner, address _operator)\n        public\n        view\n        override(MelandTierAddressStore, ERC1155Upgradeable)\n        returns (bool isOperator)\n    {\n        return super.isApprovedForAll(_owner, _operator);\n    }\n\n    function mint(\n        address account,\n        uint256 id,\n        uint256 amount,\n        bytes memory landtype\n    ) public onlyRole(MINTER_ROLE) {\n        _mint(account, id, amount, landtype);\n    }\n\n    // Add or cancel freeze white list\n    function setFreezeWhiteList(address _account, bool _bool)\n        public\n        onlyRole(GM_ROLE)\n    {\n        _setFreezeWhite(_account, _bool);\n    }\n\n    function setMelandTier(MelandTier _tierAddress) public onlyRole(GM_ROLE) {\n        _setMelandTier(_tierAddress);\n    }\n\n    // Enable or Disable Freeze feature.\n    function setFreezeEnabled(bool _bool) public onlyRole(GM_ROLE) {\n        _setFreezeEnabled(_bool);\n    }\n\n    function mintBatch(\n        address to,\n        uint256[] memory ids,\n        uint256[] memory amounts,\n        bytes memory landtype\n    ) public onlyRole(MINTER_ROLE) {\n        _mintBatch(to, ids, amounts, landtype);\n    }\n\n    function _authorizeUpgrade(address newImplementation)\n        internal\n        override\n        onlyRole(UPGRADER_ROLE)\n    {}\n\n    function totalSupply(uint256 id) internal view returns (uint256) {\n        string memory lantype = landtypeById[id];\n        return totalSupplyByLandtype[keccak256(bytes(lantype))];\n    }\n\n    // The following functions are overrides required by Solidity.\n\n    function supportsInterface(bytes4 interfaceId)\n        public\n        view\n        override(ERC1155Upgradeable, AccessControlUpgradeable)\n        returns (bool)\n    {\n        return super.supportsInterface(interfaceId);\n    }\n\n    // The following functions are overrides required by Solidity.\n    function _beforeTokenTransfer(\n        address operator,\n        address from,\n        address to,\n        uint256[] memory ids,\n        uint256[] memory amounts,\n        bytes memory maybelandtype\n    ) internal override(ERC1155Upgradeable) {\n        for (uint256 i = 0; i < amounts.length; i++) {\n            require(\n                amounts[i] == 1,\n                \"Each land is unique, So there is no transfer greater than 1\"\n            );\n        }\n\n        for (uint256 i = 0; i < ids.length; i++) {\n            uint256 id = ids[i];\n\n            // check freeze\n            string memory landtype = landtypeById[id];\n\n            if (keccak256(bytes(landtype)) == keccak256(\"ticketland\")) {\n                _freezeProtect(from, to, id);\n            }\n\n            // sub totalSupply when burn token\n            if (to == address(0)) {\n                // clear lantyoe when burn\n                delete landtypeById[id];\n                totalSupplyByLandtype[keccak256(bytes(landtype))] -= 1;\n            }\n        }\n\n        // if is mint\n        // check land type is support\n        if (from == address(0)) {\n            require(\n                supportLandtypes[maybelandtype],\n                string(abi.encodePacked(maybelandtype, \"is not support\"))\n            );\n\n            for (uint256 i = 0; i < ids.length; i++) {\n                require(\n                    bytes(landtypeById[ids[i]]).length == 0,\n                    \"Make sure each land is unique\"\n                );\n                landtypeById[ids[i]] = string(maybelandtype);\n            }\n\n            totalSupplyByLandtype[keccak256(maybelandtype)] += ids.length;\n        }\n\n        super._beforeTokenTransfer(\n            operator,\n            from,\n            to,\n            ids,\n            amounts,\n            maybelandtype\n        );\n    }\n\n    // store item impl ----\n    function setAcceptedToken(IERC20Upgradeable token)\n        external\n        onlyRole(GM_ROLE)\n    {\n        _setAcceptedToken(token);\n    }\n\n    function setStore(NFTStore s) external onlyRole(GM_ROLE) {\n        _setStore(s);\n    }\n\n    function setStoreItem(string memory symbol, uint256 p)\n        external\n        onlyRole(GM_ROLE)\n    {\n        _setStoreItem(symbol, p);\n    }\n\n    function delStoreItem(string memory symbol) external onlyRole(GM_ROLE) {\n        _delStoreItem(symbol);\n    }\n\n    // If return ture, means that the mall will only have the specified id\n    // Else otherwise it will be linear mint\n    // The ids Must ensure that you can mint\n    // If multi-channel sales or mint, you need to filter out the ids that have been minted\n    // To prevent errors in the sales process\n    function melandStoreItemsRestrictPurchaseNFTIds(string memory)\n        external\n        view\n        returns (bool, uint256[] memory)\n    {\n        uint256[] memory ids;\n        for (uint256 i = 0; i < ticketlandIds.length; i++) {\n            ids[i] = ticketlandIds[i];\n        }\n        return (false, ids);\n    }\n\n    // Store to pay NFT to the selling user by calling this function,\n    // For security reasons, be sure to control the permissions to allow only MelandStore contracts to call\n    // If melandStoreItemsRestrictPurchaseNFTIds return false, the id as zero.\n    function melandStoreItemsMint(\n        string memory symbol,\n        uint256 id,\n        address to\n    ) external override {\n        super.checkMelandStoreItemsMint(symbol, id, to);\n        _mint(to, id, 1, bytes(symbol));\n        _dispatchItemInfoUpdate();\n    }\n\n    // If return false, Stores will suspend sales.\n    function melandStoreSellStatus(string memory symbol)\n        external\n        view\n        returns (bool)\n    {\n        return\n            keccak256(bytes(symbol)) == keccak256(ticketland) &&\n            ticketlandIds.length > 0;\n    }\n\n    // If return true, it means that each person can only buy a certain amount\n    function melandStoreItemsRestrictedPurchase(string memory)\n        external\n        pure\n        returns (bool restricted, uint256 restrictLimit)\n    {\n        restricted = true;\n        restrictLimit = 1;\n    }\n}\n",
  "sourcePath": "/Users/alberthuang/code/icw/meland/contracts/Meland1155Land.sol",
  "compiler": {
    "name": "solc",
    "version": "0.8.9+commit.e5eed63a.Emscripten.clang"
  },
  "schemaVersion": "3.4.3",
  "updatedAt": "2021-12-26T08:36:47.165Z",
  "networkType": "ethereum",
  "devdoc": {
    "kind": "dev",
    "methods": {
      "balanceOf(address,uint256)": {
        "details": "See {IERC1155-balanceOf}. Requirements: - `account` cannot be the zero address."
      },
      "balanceOfBatch(address[],uint256[])": {
        "details": "See {IERC1155-balanceOfBatch}. Requirements: - `accounts` and `ids` must have the same length."
      },
      "getRoleAdmin(bytes32)": {
        "details": "Returns the admin role that controls `role`. See {grantRole} and {revokeRole}. To change a role's admin, use {_setRoleAdmin}."
      },
      "grantRole(bytes32,address)": {
        "details": "Grants `role` to `account`. If `account` had not been already granted `role`, emits a {RoleGranted} event. Requirements: - the caller must have ``role``'s admin role."
      },
      "hasRole(bytes32,address)": {
        "details": "Returns `true` if `account` has been granted `role`."
      },
      "renounceRole(bytes32,address)": {
        "details": "Revokes `role` from the calling account. Roles are often managed via {grantRole} and {revokeRole}: this function's purpose is to provide a mechanism for accounts to lose their privileges if they are compromised (such as when a trusted device is misplaced). If the calling account had been revoked `role`, emits a {RoleRevoked} event. Requirements: - the caller must be `account`."
      },
      "revokeRole(bytes32,address)": {
        "details": "Revokes `role` from `account`. If `account` had been granted `role`, emits a {RoleRevoked} event. Requirements: - the caller must have ``role``'s admin role."
      },
      "safeBatchTransferFrom(address,address,uint256[],uint256[],bytes)": {
        "details": "See {IERC1155-safeBatchTransferFrom}."
      },
      "safeTransferFrom(address,address,uint256,uint256,bytes)": {
        "details": "See {IERC1155-safeTransferFrom}."
      },
      "setApprovalForAll(address,bool)": {
        "details": "See {IERC1155-setApprovalForAll}."
      },
      "upgradeTo(address)": {
        "details": "Upgrade the implementation of the proxy to `newImplementation`. Calls {_authorizeUpgrade}. Emits an {Upgraded} event."
      },
      "upgradeToAndCall(address,bytes)": {
        "details": "Upgrade the implementation of the proxy to `newImplementation`, and subsequently execute the function call encoded in `data`. Calls {_authorizeUpgrade}. Emits an {Upgraded} event."
      }
    },
    "version": 1
  },
  "userdoc": {
    "kind": "user",
    "methods": {},
    "version": 1
  }
}