{
  "contractName": "MelandTier",
  "abi": [
    {
      "anonymous": false,
      "inputs": [
        {
          "indexed": false,
          "internalType": "address",
          "name": "previousAdmin",
          "type": "address"
        },
        {
          "indexed": false,
          "internalType": "address",
          "name": "newAdmin",
          "type": "address"
        }
      ],
      "name": "AdminChanged",
      "type": "event"
    },
    {
      "anonymous": false,
      "inputs": [
        {
          "indexed": true,
          "internalType": "address",
          "name": "account",
          "type": "address"
        },
        {
          "indexed": true,
          "internalType": "address",
          "name": "operator",
          "type": "address"
        },
        {
          "indexed": false,
          "internalType": "bool",
          "name": "approved",
          "type": "bool"
        }
      ],
      "name": "ApprovalForAll",
      "type": "event"
    },
    {
      "anonymous": false,
      "inputs": [
        {
          "indexed": true,
          "internalType": "address",
          "name": "beacon",
          "type": "address"
        }
      ],
      "name": "BeaconUpgraded",
      "type": "event"
    },
    {
      "anonymous": false,
      "inputs": [
        {
          "indexed": true,
          "internalType": "uint256",
          "name": "rewardId",
          "type": "uint256"
        },
        {
          "indexed": true,
          "internalType": "uint256",
          "name": "erc1155RewardId",
          "type": "uint256"
        },
        {
          "components": [
            {
              "internalType": "contract IERC1155Upgradeable",
              "name": "erc1155",
              "type": "address"
            },
            {
              "internalType": "uint256[]",
              "name": "tokenIds",
              "type": "uint256[]"
            },
            {
              "internalType": "uint256[]",
              "name": "amounts",
              "type": "uint256[]"
            }
          ],
          "indexed": false,
          "internalType": "struct MelandTierStorage.ERC1155Reward",
          "name": "erc1155reward",
          "type": "tuple"
        }
      ],
      "name": "CreateRewardERC1155",
      "type": "event"
    },
    {
      "anonymous": false,
      "inputs": [
        {
          "indexed": true,
          "internalType": "uint256",
          "name": "rewardId",
          "type": "uint256"
        },
        {
          "indexed": true,
          "internalType": "uint256",
          "name": "erc20RewardId",
          "type": "uint256"
        },
        {
          "components": [
            {
              "internalType": "contract IERC20Upgradeable",
              "name": "erc20",
              "type": "address"
            },
            {
              "internalType": "uint256",
              "name": "amount",
              "type": "uint256"
            }
          ],
          "indexed": false,
          "internalType": "struct MelandTierStorage.ERC20Reward",
          "name": "erc20reward",
          "type": "tuple"
        }
      ],
      "name": "CreateRewardERC20",
      "type": "event"
    },
    {
      "anonymous": false,
      "inputs": [
        {
          "indexed": true,
          "internalType": "uint256",
          "name": "rewardId",
          "type": "uint256"
        },
        {
          "indexed": true,
          "internalType": "uint256",
          "name": "erc721RewardId",
          "type": "uint256"
        },
        {
          "components": [
            {
              "internalType": "contract IERC721Upgradeable",
              "name": "erc721",
              "type": "address"
            },
            {
              "internalType": "uint256",
              "name": "tokenId",
              "type": "uint256"
            }
          ],
          "indexed": false,
          "internalType": "struct MelandTierStorage.ERC721Reward",
          "name": "erc721reward",
          "type": "tuple"
        }
      ],
      "name": "CreateRewardERC721",
      "type": "event"
    },
    {
      "anonymous": false,
      "inputs": [
        {
          "indexed": false,
          "internalType": "uint256[2]",
          "name": "rewardIds",
          "type": "uint256[2]"
        }
      ],
      "name": "OpenTier",
      "type": "event"
    },
    {
      "anonymous": false,
      "inputs": [
        {
          "indexed": true,
          "internalType": "uint256",
          "name": "cid",
          "type": "uint256"
        }
      ],
      "name": "RewaardPoolUpdate",
      "type": "event"
    },
    {
      "anonymous": false,
      "inputs": [
        {
          "indexed": true,
          "internalType": "bytes32",
          "name": "role",
          "type": "bytes32"
        },
        {
          "indexed": true,
          "internalType": "bytes32",
          "name": "previousAdminRole",
          "type": "bytes32"
        },
        {
          "indexed": true,
          "internalType": "bytes32",
          "name": "newAdminRole",
          "type": "bytes32"
        }
      ],
      "name": "RoleAdminChanged",
      "type": "event"
    },
    {
      "anonymous": false,
      "inputs": [
        {
          "indexed": true,
          "internalType": "bytes32",
          "name": "role",
          "type": "bytes32"
        },
        {
          "indexed": true,
          "internalType": "address",
          "name": "account",
          "type": "address"
        },
        {
          "indexed": true,
          "internalType": "address",
          "name": "sender",
          "type": "address"
        }
      ],
      "name": "RoleGranted",
      "type": "event"
    },
    {
      "anonymous": false,
      "inputs": [
        {
          "indexed": true,
          "internalType": "bytes32",
          "name": "role",
          "type": "bytes32"
        },
        {
          "indexed": true,
          "internalType": "address",
          "name": "account",
          "type": "address"
        },
        {
          "indexed": true,
          "internalType": "address",
          "name": "sender",
          "type": "address"
        }
      ],
      "name": "RoleRevoked",
      "type": "event"
    },
    {
      "anonymous": false,
      "inputs": [
        {
          "indexed": true,
          "internalType": "uint256",
          "name": "cid",
          "type": "uint256"
        }
      ],
      "name": "TierStartSale",
      "type": "event"
    },
    {
      "anonymous": false,
      "inputs": [
        {
          "indexed": true,
          "internalType": "address",
          "name": "operator",
          "type": "address"
        },
        {
          "indexed": true,
          "internalType": "address",
          "name": "from",
          "type": "address"
        },
        {
          "indexed": true,
          "internalType": "address",
          "name": "to",
          "type": "address"
        },
        {
          "indexed": false,
          "internalType": "uint256[]",
          "name": "ids",
          "type": "uint256[]"
        },
        {
          "indexed": false,
          "internalType": "uint256[]",
          "name": "values",
          "type": "uint256[]"
        }
      ],
      "name": "TransferBatch",
      "type": "event"
    },
    {
      "anonymous": false,
      "inputs": [
        {
          "indexed": true,
          "internalType": "address",
          "name": "operator",
          "type": "address"
        },
        {
          "indexed": true,
          "internalType": "address",
          "name": "from",
          "type": "address"
        },
        {
          "indexed": true,
          "internalType": "address",
          "name": "to",
          "type": "address"
        },
        {
          "indexed": false,
          "internalType": "uint256",
          "name": "id",
          "type": "uint256"
        },
        {
          "indexed": false,
          "internalType": "uint256",
          "name": "value",
          "type": "uint256"
        }
      ],
      "name": "TransferSingle",
      "type": "event"
    },
    {
      "anonymous": false,
      "inputs": [
        {
          "indexed": false,
          "internalType": "string",
          "name": "value",
          "type": "string"
        },
        {
          "indexed": true,
          "internalType": "uint256",
          "name": "id",
          "type": "uint256"
        }
      ],
      "name": "URI",
      "type": "event"
    },
    {
      "anonymous": false,
      "inputs": [
        {
          "indexed": true,
          "internalType": "address",
          "name": "implementation",
          "type": "address"
        }
      ],
      "name": "Upgraded",
      "type": "event"
    },
    {
      "inputs": [],
      "name": "DEFAULT_ADMIN_ROLE",
      "outputs": [
        {
          "internalType": "bytes32",
          "name": "",
          "type": "bytes32"
        }
      ],
      "stateMutability": "view",
      "type": "function"
    },
    {
      "inputs": [],
      "name": "GM_ROLE",
      "outputs": [
        {
          "internalType": "bytes32",
          "name": "",
          "type": "bytes32"
        }
      ],
      "stateMutability": "view",
      "type": "function"
    },
    {
      "inputs": [],
      "name": "MINTER_ROLE",
      "outputs": [
        {
          "internalType": "bytes32",
          "name": "",
          "type": "bytes32"
        }
      ],
      "stateMutability": "view",
      "type": "function"
    },
    {
      "inputs": [],
      "name": "UPGRADER_ROLE",
      "outputs": [
        {
          "internalType": "bytes32",
          "name": "",
          "type": "bytes32"
        }
      ],
      "stateMutability": "view",
      "type": "function"
    },
    {
      "inputs": [
        {
          "internalType": "uint256",
          "name": "cid",
          "type": "uint256"
        },
        {
          "components": [
            {
              "internalType": "contract IERC1155Upgradeable",
              "name": "erc1155",
              "type": "address"
            },
            {
              "internalType": "uint256[]",
              "name": "tokenIds",
              "type": "uint256[]"
            },
            {
              "internalType": "uint256[]",
              "name": "amounts",
              "type": "uint256[]"
            }
          ],
          "internalType": "struct MelandTierStorage.ERC1155Reward[]",
          "name": "erc1155rewards",
          "type": "tuple[]"
        },
        {
          "components": [
            {
              "internalType": "contract IERC721Upgradeable",
              "name": "erc721",
              "type": "address"
            },
            {
              "internalType": "uint256",
              "name": "tokenId",
              "type": "uint256"
            }
          ],
          "internalType": "struct MelandTierStorage.ERC721Reward[]",
          "name": "erc721rewards",
          "type": "tuple[]"
        },
        {
          "components": [
            {
              "internalType": "contract IERC20Upgradeable",
              "name": "erc20",
              "type": "address"
            },
            {
              "internalType": "uint256",
              "name": "amount",
              "type": "uint256"
            }
          ],
          "internalType": "struct MelandTierStorage.ERC20Reward[]",
          "name": "erc20rewards",
          "type": "tuple[]"
        }
      ],
      "name": "add100PercentReward",
      "outputs": [],
      "stateMutability": "nonpayable",
      "type": "function"
    },
    {
      "inputs": [
        {
          "internalType": "uint256",
          "name": "cid",
          "type": "uint256"
        },
        {
          "components": [
            {
              "internalType": "contract IERC1155Upgradeable",
              "name": "erc1155",
              "type": "address"
            },
            {
              "internalType": "uint256[]",
              "name": "tokenIds",
              "type": "uint256[]"
            },
            {
              "internalType": "uint256[]",
              "name": "amounts",
              "type": "uint256[]"
            }
          ],
          "internalType": "struct MelandTierStorage.ERC1155Reward[]",
          "name": "erc1155rewards",
          "type": "tuple[]"
        },
        {
          "components": [
            {
              "internalType": "contract IERC721Upgradeable",
              "name": "erc721",
              "type": "address"
            },
            {
              "internalType": "uint256",
              "name": "tokenId",
              "type": "uint256"
            }
          ],
          "internalType": "struct MelandTierStorage.ERC721Reward[]",
          "name": "erc721rewards",
          "type": "tuple[]"
        },
        {
          "components": [
            {
              "internalType": "contract IERC20Upgradeable",
              "name": "erc20",
              "type": "address"
            },
            {
              "internalType": "uint256",
              "name": "amount",
              "type": "uint256"
            }
          ],
          "internalType": "struct MelandTierStorage.ERC20Reward[]",
          "name": "erc20rewards",
          "type": "tuple[]"
        }
      ],
      "name": "addOptionReward",
      "outputs": [],
      "stateMutability": "nonpayable",
      "type": "function"
    },
    {
      "inputs": [
        {
          "internalType": "address",
          "name": "account",
          "type": "address"
        },
        {
          "internalType": "uint256",
          "name": "id",
          "type": "uint256"
        }
      ],
      "name": "balanceOf",
      "outputs": [
        {
          "internalType": "uint256",
          "name": "",
          "type": "uint256"
        }
      ],
      "stateMutability": "view",
      "type": "function"
    },
    {
      "inputs": [
        {
          "internalType": "address[]",
          "name": "accounts",
          "type": "address[]"
        },
        {
          "internalType": "uint256[]",
          "name": "ids",
          "type": "uint256[]"
        }
      ],
      "name": "balanceOfBatch",
      "outputs": [
        {
          "internalType": "uint256[]",
          "name": "",
          "type": "uint256[]"
        }
      ],
      "stateMutability": "view",
      "type": "function"
    },
    {
      "inputs": [
        {
          "internalType": "address",
          "name": "account",
          "type": "address"
        },
        {
          "internalType": "uint256",
          "name": "id",
          "type": "uint256"
        },
        {
          "internalType": "uint256",
          "name": "value",
          "type": "uint256"
        }
      ],
      "name": "burn",
      "outputs": [],
      "stateMutability": "nonpayable",
      "type": "function"
    },
    {
      "inputs": [
        {
          "internalType": "address",
          "name": "account",
          "type": "address"
        },
        {
          "internalType": "uint256[]",
          "name": "ids",
          "type": "uint256[]"
        },
        {
          "internalType": "uint256[]",
          "name": "values",
          "type": "uint256[]"
        }
      ],
      "name": "burnBatch",
      "outputs": [],
      "stateMutability": "nonpayable",
      "type": "function"
    },
    {
      "inputs": [
        {
          "internalType": "uint256",
          "name": "",
          "type": "uint256"
        }
      ],
      "name": "erc1155RewardById",
      "outputs": [
        {
          "internalType": "contract IERC1155Upgradeable",
          "name": "erc1155",
          "type": "address"
        }
      ],
      "stateMutability": "view",
      "type": "function"
    },
    {
      "inputs": [
        {
          "internalType": "uint256",
          "name": "",
          "type": "uint256"
        }
      ],
      "name": "erc20RewardById",
      "outputs": [
        {
          "internalType": "contract IERC20Upgradeable",
          "name": "erc20",
          "type": "address"
        },
        {
          "internalType": "uint256",
          "name": "amount",
          "type": "uint256"
        }
      ],
      "stateMutability": "view",
      "type": "function"
    },
    {
      "inputs": [
        {
          "internalType": "uint256",
          "name": "",
          "type": "uint256"
        }
      ],
      "name": "erc721RewardById",
      "outputs": [
        {
          "internalType": "contract IERC721Upgradeable",
          "name": "erc721",
          "type": "address"
        },
        {
          "internalType": "uint256",
          "name": "tokenId",
          "type": "uint256"
        }
      ],
      "stateMutability": "view",
      "type": "function"
    },
    {
      "inputs": [
        {
          "internalType": "uint256",
          "name": "id",
          "type": "uint256"
        }
      ],
      "name": "getCidByTokenId",
      "outputs": [
        {
          "internalType": "uint256",
          "name": "",
          "type": "uint256"
        }
      ],
      "stateMutability": "view",
      "type": "function"
    },
    {
      "inputs": [
        {
          "internalType": "bytes32",
          "name": "role",
          "type": "bytes32"
        }
      ],
      "name": "getRoleAdmin",
      "outputs": [
        {
          "internalType": "bytes32",
          "name": "",
          "type": "bytes32"
        }
      ],
      "stateMutability": "view",
      "type": "function"
    },
    {
      "inputs": [
        {
          "internalType": "bytes32",
          "name": "role",
          "type": "bytes32"
        },
        {
          "internalType": "address",
          "name": "account",
          "type": "address"
        }
      ],
      "name": "grantRole",
      "outputs": [],
      "stateMutability": "nonpayable",
      "type": "function"
    },
    {
      "inputs": [
        {
          "internalType": "bytes32",
          "name": "role",
          "type": "bytes32"
        },
        {
          "internalType": "address",
          "name": "account",
          "type": "address"
        }
      ],
      "name": "hasRole",
      "outputs": [
        {
          "internalType": "bool",
          "name": "",
          "type": "bool"
        }
      ],
      "stateMutability": "view",
      "type": "function"
    },
    {
      "inputs": [
        {
          "internalType": "address",
          "name": "",
          "type": "address"
        },
        {
          "internalType": "address",
          "name": "",
          "type": "address"
        },
        {
          "internalType": "uint256[]",
          "name": "",
          "type": "uint256[]"
        },
        {
          "internalType": "uint256[]",
          "name": "",
          "type": "uint256[]"
        },
        {
          "internalType": "bytes",
          "name": "",
          "type": "bytes"
        }
      ],
      "name": "onERC1155BatchReceived",
      "outputs": [
        {
          "internalType": "bytes4",
          "name": "",
          "type": "bytes4"
        }
      ],
      "stateMutability": "nonpayable",
      "type": "function"
    },
    {
      "inputs": [
        {
          "internalType": "address",
          "name": "",
          "type": "address"
        },
        {
          "internalType": "address",
          "name": "",
          "type": "address"
        },
        {
          "internalType": "uint256",
          "name": "",
          "type": "uint256"
        },
        {
          "internalType": "uint256",
          "name": "",
          "type": "uint256"
        },
        {
          "internalType": "bytes",
          "name": "",
          "type": "bytes"
        }
      ],
      "name": "onERC1155Received",
      "outputs": [
        {
          "internalType": "bytes4",
          "name": "",
          "type": "bytes4"
        }
      ],
      "stateMutability": "nonpayable",
      "type": "function"
    },
    {
      "inputs": [
        {
          "internalType": "bytes32",
          "name": "role",
          "type": "bytes32"
        },
        {
          "internalType": "address",
          "name": "account",
          "type": "address"
        }
      ],
      "name": "renounceRole",
      "outputs": [],
      "stateMutability": "nonpayable",
      "type": "function"
    },
    {
      "inputs": [
        {
          "internalType": "bytes32",
          "name": "role",
          "type": "bytes32"
        },
        {
          "internalType": "address",
          "name": "account",
          "type": "address"
        }
      ],
      "name": "revokeRole",
      "outputs": [],
      "stateMutability": "nonpayable",
      "type": "function"
    },
    {
      "inputs": [
        {
          "internalType": "address",
          "name": "from",
          "type": "address"
        },
        {
          "internalType": "address",
          "name": "to",
          "type": "address"
        },
        {
          "internalType": "uint256[]",
          "name": "ids",
          "type": "uint256[]"
        },
        {
          "internalType": "uint256[]",
          "name": "amounts",
          "type": "uint256[]"
        },
        {
          "internalType": "bytes",
          "name": "data",
          "type": "bytes"
        }
      ],
      "name": "safeBatchTransferFrom",
      "outputs": [],
      "stateMutability": "nonpayable",
      "type": "function"
    },
    {
      "inputs": [
        {
          "internalType": "address",
          "name": "from",
          "type": "address"
        },
        {
          "internalType": "address",
          "name": "to",
          "type": "address"
        },
        {
          "internalType": "uint256",
          "name": "id",
          "type": "uint256"
        },
        {
          "internalType": "uint256",
          "name": "amount",
          "type": "uint256"
        },
        {
          "internalType": "bytes",
          "name": "data",
          "type": "bytes"
        }
      ],
      "name": "safeTransferFrom",
      "outputs": [],
      "stateMutability": "nonpayable",
      "type": "function"
    },
    {
      "inputs": [
        {
          "internalType": "address",
          "name": "operator",
          "type": "address"
        },
        {
          "internalType": "bool",
          "name": "approved",
          "type": "bool"
        }
      ],
      "name": "setApprovalForAll",
      "outputs": [],
      "stateMutability": "nonpayable",
      "type": "function"
    },
    {
      "inputs": [
        {
          "internalType": "uint256",
          "name": "id",
          "type": "uint256"
        }
      ],
      "name": "totalSupply",
      "outputs": [
        {
          "internalType": "uint256",
          "name": "",
          "type": "uint256"
        }
      ],
      "stateMutability": "view",
      "type": "function"
    },
    {
      "inputs": [
        {
          "internalType": "uint256",
          "name": "cid",
          "type": "uint256"
        }
      ],
      "name": "totalSupplyByCId",
      "outputs": [
        {
          "internalType": "uint256",
          "name": "",
          "type": "uint256"
        }
      ],
      "stateMutability": "view",
      "type": "function"
    },
    {
      "inputs": [
        {
          "internalType": "address",
          "name": "newImplementation",
          "type": "address"
        }
      ],
      "name": "upgradeTo",
      "outputs": [],
      "stateMutability": "nonpayable",
      "type": "function"
    },
    {
      "inputs": [
        {
          "internalType": "address",
          "name": "newImplementation",
          "type": "address"
        },
        {
          "internalType": "bytes",
          "name": "data",
          "type": "bytes"
        }
      ],
      "name": "upgradeToAndCall",
      "outputs": [],
      "stateMutability": "payable",
      "type": "function"
    },
    {
      "inputs": [
        {
          "internalType": "uint256",
          "name": "",
          "type": "uint256"
        }
      ],
      "name": "uri",
      "outputs": [
        {
          "internalType": "string",
          "name": "",
          "type": "string"
        }
      ],
      "stateMutability": "view",
      "type": "function"
    },
    {
      "inputs": [
        {
          "internalType": "string",
          "name": "uri",
          "type": "string"
        }
      ],
      "name": "initialize",
      "outputs": [],
      "stateMutability": "nonpayable",
      "type": "function"
    },
    {
      "inputs": [
        {
          "internalType": "string",
          "name": "newuri",
          "type": "string"
        }
      ],
      "name": "setURI",
      "outputs": [],
      "stateMutability": "nonpayable",
      "type": "function"
    },
    {
      "inputs": [
        {
          "internalType": "address",
          "name": "account",
          "type": "address"
        },
        {
          "internalType": "uint256",
          "name": "cid",
          "type": "uint256"
        },
        {
          "internalType": "uint256",
          "name": "amount",
          "type": "uint256"
        },
        {
          "internalType": "bytes",
          "name": "data",
          "type": "bytes"
        }
      ],
      "name": "mint",
      "outputs": [],
      "stateMutability": "nonpayable",
      "type": "function"
    },
    {
      "inputs": [
        {
          "internalType": "address",
          "name": "_owner",
          "type": "address"
        },
        {
          "internalType": "address",
          "name": "_operator",
          "type": "address"
        }
      ],
      "name": "isApprovedForAll",
      "outputs": [
        {
          "internalType": "bool",
          "name": "isOperator",
          "type": "bool"
        }
      ],
      "stateMutability": "view",
      "type": "function"
    },
    {
      "inputs": [
        {
          "internalType": "uint256",
          "name": "id",
          "type": "uint256"
        }
      ],
      "name": "getAllRewardsById",
      "outputs": [
        {
          "components": [
            {
              "internalType": "contract IERC1155Upgradeable",
              "name": "erc1155",
              "type": "address"
            },
            {
              "internalType": "uint256[]",
              "name": "tokenIds",
              "type": "uint256[]"
            },
            {
              "internalType": "uint256[]",
              "name": "amounts",
              "type": "uint256[]"
            }
          ],
          "internalType": "struct MelandTierStorage.ERC1155Reward[]",
          "name": "erc1155rewards",
          "type": "tuple[]"
        },
        {
          "components": [
            {
              "internalType": "contract IERC721Upgradeable",
              "name": "erc721",
              "type": "address"
            },
            {
              "internalType": "uint256",
              "name": "tokenId",
              "type": "uint256"
            }
          ],
          "internalType": "struct MelandTierStorage.ERC721Reward[]",
          "name": "erc721rewards",
          "type": "tuple[]"
        },
        {
          "components": [
            {
              "internalType": "contract IERC20Upgradeable",
              "name": "erc20",
              "type": "address"
            },
            {
              "internalType": "uint256",
              "name": "amount",
              "type": "uint256"
            }
          ],
          "internalType": "struct MelandTierStorage.ERC20Reward[]",
          "name": "erc20rewards",
          "type": "tuple[]"
        }
      ],
      "stateMutability": "view",
      "type": "function"
    },
    {
      "inputs": [
        {
          "internalType": "uint256",
          "name": "id",
          "type": "uint256"
        }
      ],
      "name": "openTier",
      "outputs": [
        {
          "internalType": "uint256[2]",
          "name": "returnRewardIds",
          "type": "uint256[2]"
        }
      ],
      "stateMutability": "nonpayable",
      "type": "function"
    },
    {
      "inputs": [
        {
          "internalType": "uint256",
          "name": "cid",
          "type": "uint256"
        }
      ],
      "name": "startSale",
      "outputs": [],
      "stateMutability": "nonpayable",
      "type": "function"
    },
    {
      "inputs": [
        {
          "internalType": "bytes4",
          "name": "interfaceId",
          "type": "bytes4"
        }
      ],
      "name": "supportsInterface",
      "outputs": [
        {
          "internalType": "bool",
          "name": "",
          "type": "bool"
        }
      ],
      "stateMutability": "view",
      "type": "function"
    }
  ],
  "bytecode": "0x60a06040523060805234801561001457600080fd5b5060805161545861004560003960008181610adf01528181610b1f01528181611052015261109201526154586000f3fe6080604052600436106102195760003560e01c8063731133e911610123578063d3186324116100ab578063f23a6e611161006f578063f23a6e6114610755578063f242432a14610781578063f5298aca146107a1578063f62d1888146107c1578063f72c0d8b146107e157600080fd5b8063d318632414610693578063d5391393146106c1578063d547741f146106f5578063e1e9646a14610715578063e985e9c51461073557600080fd5b8063a22cb465116100f2578063a22cb4651461056f578063bc197c811461058f578063bd85b039146105d4578063c14ee0aa146105f4578063d0a7917a1461065357600080fd5b8063731133e9146104cc5780637672f2b5146104ec57806391d148541461053a578063a217fddf1461055a57600080fd5b806336568abe116101a65780634e1273f4116101755780634e1273f41461041d5780634f1ef2861461044a57806357587f3f1461045d578063579460ca1461047d5780636b20c454146104ac57600080fd5b806336568abe146103825780633659cfe6146103a2578063384c6f89146103c25780633ef780bc146103ef57600080fd5b80630e89341c116101ed5780630e89341c146102c3578063248a9ca3146102f05780632eb2c2d6146103205780632f2ff15d1461034057806330c7be2c1461036057600080fd5b8062fdd58e1461021e57806301ffc9a71461025157806302fe5305146102815780630e3ab61d146102a3575b600080fd5b34801561022a57600080fd5b5061023e610239366004613f27565b610815565b6040519081526020015b60405180910390f35b34801561025d57600080fd5b5061027161026c366004613f69565b6108b1565b6040519015158152602001610248565b34801561028d57600080fd5b506102a161029c366004614069565b6108bc565b005b3480156102af57600080fd5b506102a16102be3660046140b9565b6108e2565b3480156102cf57600080fd5b506102e36102de3660046140b9565b610904565b604051610248919061412a565b3480156102fc57600080fd5b5061023e61030b3660046140b9565b60009081526065602052604090206001015490565b34801561032c57600080fd5b506102a161033b3660046141f1565b610998565b34801561034c57600080fd5b506102a161035b36600461429e565b610a2f565b34801561036c57600080fd5b5061023e60008051602061540383398151915281565b34801561038e57600080fd5b506102a161039d36600461429e565b610a5a565b3480156103ae57600080fd5b506102a16103bd3660046142ce565b610ad4565b3480156103ce57600080fd5b506103e26103dd3660046140b9565b610b9d565b60405161024891906142eb565b3480156103fb57600080fd5b5061023e61040a3660046140b9565b6000908152610109602052604090205490565b34801561042957600080fd5b5061043d61043836600461431c565b610f1e565b6040516102489190614423565b6102a1610458366004614436565b611047565b34801561046957600080fd5b506102a161047836600461451c565b6110fd565b34801561048957600080fd5b5061049d6104983660046140b9565b611183565b6040516102489392919061472b565b3480156104b857600080fd5b506102a16104c73660046147f6565b611537565b3480156104d857600080fd5b506102a16104e736600461486b565b61157a565b3480156104f857600080fd5b506105226105073660046140b9565b609d602052600090815260409020546001600160a01b031681565b6040516001600160a01b039091168152602001610248565b34801561054657600080fd5b5061027161055536600461429e565b6115b1565b34801561056657600080fd5b5061023e600081565b34801561057b57600080fd5b506102a161058a3660046148cf565b6115dc565b34801561059b57600080fd5b506105bb6105aa3660046141f1565b63bc197c8160e01b95945050505050565b6040516001600160e01b03199091168152602001610248565b3480156105e057600080fd5b5061023e6105ef3660046140b9565b6115e7565b34801561060057600080fd5b5061063461060f3660046140b9565b609c60205260009081526040902080546001909101546001600160a01b039091169082565b604080516001600160a01b039093168352602083019190915201610248565b34801561065f57600080fd5b5061063461066e3660046140b9565b609b60205260009081526040902080546001909101546001600160a01b039091169082565b34801561069f57600080fd5b5061023e6106ae3660046140b9565b600090815261010a602052604090205490565b3480156106cd57600080fd5b5061023e7f9f2df0fed2c77648de5860a4cc508cd0818c85b8b8a1ab4ceeef8d981c8956a681565b34801561070157600080fd5b506102a161071036600461429e565b61161b565b34801561072157600080fd5b506102a161073036600461451c565b611641565b34801561074157600080fd5b506102716107503660046148fd565b611686565b34801561076157600080fd5b506105bb61077036600461492b565b63f23a6e6160e01b95945050505050565b34801561078d57600080fd5b506102a161079c36600461492b565b6116e6565b3480156107ad57600080fd5b506102a16107bc366004614993565b61172b565b3480156107cd57600080fd5b506102a16107dc366004614069565b61176e565b3480156107ed57600080fd5b5061023e7f189ab7a9244df0848122154315af71fe140f3db0fe014031783b0946b8c9d2e381565b60006001600160a01b0383166108865760405162461bcd60e51b815260206004820152602b60248201527f455243313135353a2062616c616e636520717565727920666f7220746865207a60448201526a65726f206164647265737360a81b60648201526084015b60405180910390fd5b50600081815260a4602090815260408083206001600160a01b03861684529091529020545b92915050565b60006108ab826117f3565b6000805160206154038339815191526108d58133611818565b6108de8261187c565b5050565b6000805160206154038339815191526108fb8133611818565b6108de8261188f565b606060a68054610913906149c8565b80601f016020809104026020016040519081016040528092919081815260200182805461093f906149c8565b801561098c5780601f106109615761010080835404028352916020019161098c565b820191906000526020600020905b81548152906001019060200180831161096f57829003601f168201915b50505050509050919050565b6001600160a01b0385163314806109b457506109b48533611686565b610a1b5760405162461bcd60e51b815260206004820152603260248201527f455243313135353a207472616e736665722063616c6c6572206973206e6f74206044820152711bdddb995c881b9bdc88185c1c1c9bdd995960721b606482015260840161087d565b610a2885858585856119a3565b5050505050565b600082815260656020526040902060010154610a4b8133611818565b610a558383611ba3565b505050565b6001600160a01b0381163314610aca5760405162461bcd60e51b815260206004820152602f60248201527f416363657373436f6e74726f6c3a2063616e206f6e6c792072656e6f756e636560448201526e103937b632b9903337b91039b2b63360891b606482015260840161087d565b6108de8282611c29565b306001600160a01b037f0000000000000000000000000000000000000000000000000000000000000000161415610b1d5760405162461bcd60e51b815260040161087d90614a03565b7f00000000000000000000000000000000000000000000000000000000000000006001600160a01b0316610b4f611c90565b6001600160a01b031614610b755760405162461bcd60e51b815260040161087d90614a4f565b610b7e81611cbe565b60408051600080825260208201909252610b9a91839190611ce9565b50565b610ba5613de1565b6000610bb13384610815565b11610bf55760405162461bcd60e51b8152602060048201526014602482015273496e73756666696369656e742062616c616e636560601b604482015260640161087d565b60008281526101096020908152604080832054808452609f835281842060a190935292208154610c575760405162461bcd60e51b815260206004820152600d60248201526c1cde5cdd195b4819985a5b1959609a1b604482015260640161087d565b81546040805160208084028201810190925282815260009291610cb2919086908490830182828015610ca857602002820191906000526020600020905b815481526020019060010190808311610c94575b5050505050611e2d565b610cbc9190614ab1565b90506000838281548110610cd257610cd2614ac5565b6000918252602090912001548087529050610cee335b82611e62565b8354600090610cff90600190614af1565b90506000858281548110610d1557610d15614ac5565b9060005260206000200154905080868581548110610d3557610d35614ac5565b906000526020600020018190555085805480610d5357610d53614b08565b6001900381819060005260206000200160009055905585609f6000898152602001908152602001600020908054610d8b929190613dff565b50845415610ecf5784546040805160208084028201810190925282815260009291610dec919089908490830182828015610ca85760200282019190600052602060002090815481526020019060010190808311610c94575050505050611e2d565b610df69190614ab1565b90506000868281548110610e0c57610e0c614ac5565b6000918252602090912001549050808a60016020020152610e2c33610ce8565b8654600090610e3d90600190614af1565b90506000888281548110610e5357610e53614ac5565b9060005260206000200154905080898581548110610e7357610e73614ac5565b906000526020600020018190555088805480610e9157610e91614b08565b600190038181906000526020600020016000905590558860a160008d8152602001908152602001600020908054610ec9929190613dff565b50505050505b610edb338a600161172b565b7f498355353f371df5e52b50a07117819f49e32a0428e5b620a67001e7060cab2f88604051610f0a91906142eb565b60405180910390a150505050505050919050565b60608151835114610f835760405162461bcd60e51b815260206004820152602960248201527f455243313135353a206163636f756e747320616e6420696473206c656e677468604482015268040dad2e6dac2e8c6d60bb1b606482015260840161087d565b600083516001600160401b03811115610f9e57610f9e613f86565b604051908082528060200260200182016040528015610fc7578160200160208202803683370190505b50905060005b845181101561103f57611012858281518110610feb57610feb614ac5565b602002602001015185838151811061100557611005614ac5565b6020026020010151610815565b82828151811061102457611024614ac5565b602090810291909101015261103881614b1e565b9050610fcd565b509392505050565b306001600160a01b037f00000000000000000000000000000000000000000000000000000000000000001614156110905760405162461bcd60e51b815260040161087d90614a03565b7f00000000000000000000000000000000000000000000000000000000000000006001600160a01b03166110c2611c90565b6001600160a01b0316146110e85760405162461bcd60e51b815260040161087d90614a4f565b6110f182611cbe565b6108de82826001611ce9565b600084815260a06020526040902054156111295760405162461bcd60e51b815260040161087d90614b39565b600084815260a160205260409020611142848484612392565b8154600181018355600092835260208320015560405185917fe4b7e0bb3edd3119b8854a52d62b18a5a44ba6827d49ea293a7f44c7b43dc26191a250505050565b6000818152609e60209081526040808320815181546080948102820185019093526060818101848152909586958695919492849290918491908401828280156111eb57602002820191906000526020600020905b8154815260200190600101908083116111d7575b505050505081526020016001820180548060200260200160405190810160405280929190818152602001828054801561124357602002820191906000526020600020905b81548152602001906001019080831161122f575b505050505081526020016002820180548060200260200160405190810160405280929190818152602001828054801561129b57602002820191906000526020600020905b815481526020019060010190808311611287575b505050505081525050905060005b81515160ff821610156113e857609d600083600001518360ff16815181106112d3576112d3614ac5565b6020908102919091018101518252818101929092526040908101600020815160608101835281546001600160a01b03168152600182018054845181870281018701909552808552919492938584019390929083018282801561135457602002820191906000526020600020905b815481526020019060010190808311611340575b50505050508152602001600282018054806020026020016040519081016040528092919081815260200182805480156113ac57602002820191906000526020600020905b815481526020019060010190808311611398575b505050505081525050858260ff16815181106113ca576113ca614ac5565b602002602001018190525080806113e090614baa565b9150506112a9565b5060005b8160200151518160ff16101561148b57609b600083602001518360ff168151811061141957611419614ac5565b6020908102919091018101518252818101929092526040908101600020815180830190925280546001600160a01b0316825260010154918101919091528451859060ff841690811061146d5761146d614ac5565b6020026020010181905250808061148390614baa565b9150506113ec565b5060005b8160400151518160ff16101561152e57609c600083604001518360ff16815181106114bc576114bc614ac5565b6020908102919091018101518252818101929092526040908101600020815180830190925280546001600160a01b0316825260010154918101919091528351849060ff841690811061151057611510614ac5565b6020026020010181905250808061152690614baa565b91505061148f565b50509193909250565b6001600160a01b03831633148061155357506115538333611686565b61156f5760405162461bcd60e51b815260040161087d90614bca565b610a558383836128f3565b7f9f2df0fed2c77648de5860a4cc508cd0818c85b8b8a1ab4ceeef8d981c8956a66115a58133611818565b610a2885858585612a84565b60009182526065602090815260408084206001600160a01b0393909316845291905290205460ff1690565b6108de338383612b16565b60008181526101096020526040812054806116055750600092915050565b600090815261010a602052604090205492915050565b6000828152606560205260409020600101546116378133611818565b610a558383611c29565b600084815260a060205260409020541561166d5760405162461bcd60e51b815260040161087d90614b39565b6000848152609f60205260409020611142848484612392565b60006001600160a01b03821673207fa8df3a17d96ca7ea4f2893fcdcb78a30410114156116b5575060016108ab565b6001600160a01b03808416600090815260a5602090815260408083209386168352929052205460ff165b9392505050565b6001600160a01b03851633148061170257506117028533611686565b61171e5760405162461bcd60e51b815260040161087d90614bca565b610a288585858585612bf7565b6001600160a01b03831633148061174757506117478333611686565b6117635760405162461bcd60e51b815260040161087d90614bca565b610a55838383612d6a565b600054610100900460ff1680611787575060005460ff16155b6117a35760405162461bcd60e51b815260040161087d90614c13565b600054610100900460ff161580156117c5576000805461ffff19166101011790555b6117cd612e6f565b6117d682612eea565b6117de612f52565b80156108de576000805461ff00191690555050565b60006001600160e01b03198216630271189760e51b14806108ab57506108ab82612fd3565b61182282826115b1565b6108de5761183a816001600160a01b03166014613013565b611845836020613013565b604051602001611856929190614c61565b60408051601f198184030181529082905262461bcd60e51b825261087d9160040161412a565b80516108de9060a6906020840190613e4f565b6000818152609f60205260409020546118ba5760405162461bcd60e51b815260040161087d90614cd6565b600081815260a160205260409020546119295760405162461bcd60e51b815260206004820152602b60248201527f53616c657320646f6e2774207365656d20746f206265207265616479286f707460448201526a696f6e207265776172642960a81b606482015260840161087d565b6000818152609f6020908152604080832060a0909252909120815461194e9290613dff565b50600081815260a16020908152604080832060a290925290912081546119749290613dff565b5060405181907ff41f6e5c1ea27387c8494610493f43af7f9f1c4e57b83aaafb57193d9a28ad1490600090a250565b81518351146119c45760405162461bcd60e51b815260040161087d90614d25565b6001600160a01b0384166119ea5760405162461bcd60e51b815260040161087d90614d6d565b336119f98187878787876131ae565b60005b8451811015611b35576000858281518110611a1957611a19614ac5565b602002602001015190506000858381518110611a3757611a37614ac5565b602090810291909101810151600084815260a4835260408082206001600160a01b038e168352909352919091205490915081811015611a758261320c565b611a7e8461320c565b611a878d613334565b611a908d613334565b611a9930613334565b604051602001611aad959493929190614db2565b60405160208183030381529060405290611ada5760405162461bcd60e51b815260040161087d919061412a565b50600083815260a4602090815260408083206001600160a01b038e8116855292528083208585039055908b16825281208054849290611b1a908490614e83565b9250508190555050505080611b2e90614b1e565b90506119fc565b50846001600160a01b0316866001600160a01b0316826001600160a01b03167f4a39dc06d4c0dbc64b70af90fd698a233a518aa5d07e595d983b8c0526c8f7fb8787604051611b85929190614e9b565b60405180910390a4611b9b81878787878761347b565b505050505050565b611bad82826115b1565b6108de5760008281526065602090815260408083206001600160a01b03851684529091529020805460ff19166001179055611be53390565b6001600160a01b0316816001600160a01b0316837f2f8788117e7eff1d82e926ec794901d17c78024a50270940304540a733656f0d60405160405180910390a45050565b611c3382826115b1565b156108de5760008281526065602090815260408083206001600160a01b0385168085529252808320805460ff1916905551339285917ff6391f5c32d9c69d2a47ea670b442974b53935d1edc7fd64eb21e047a839171b9190a45050565b7f360894a13ba1a3210667c828492db98dca3e2076cc3735a920a3ca505d382bbc546001600160a01b031690565b7f189ab7a9244df0848122154315af71fe140f3db0fe014031783b0946b8c9d2e36108de8133611818565b6000611cf3611c90565b9050611cfe846135e6565b600083511180611d0b5750815b15611d1c57611d1a848461368b565b505b7f4910fdfa16fed3260ed0e7147f7cc6da11a60208b5b9406d12a635614ffd9143805460ff16610a2857805460ff191660011781556040516001600160a01b0383166024820152611d9b90869060440160408051601f198184030181529190526020810180516001600160e01b0316631b2ce7f360e11b17905261368b565b50805460ff19168155611dac611c90565b6001600160a01b0316826001600160a01b031614611e245760405162461bcd60e51b815260206004820152602f60248201527f45524331393637557067726164653a207570677261646520627265616b73206660448201526e75727468657220757067726164657360881b606482015260840161087d565b610a2885613776565b6000444283604051602001611e4493929190614ec0565b60408051601f19818403018152919052805160209091012092915050565b600081815260a3602052604090205460ff1615611ed05760405162461bcd60e51b815260206004820152602660248201527f5468652061776172642068617320616c7265616479206265656e207472616e7360448201526519995c9c995960d21b606482015260840161087d565b600081815260a360209081526040808320805460ff19166001179055609e82528083208151815460809481028201850190935260608101838152909391928492849190840182828015611f4257602002820191906000526020600020905b815481526020019060010190808311611f2e575b5050505050815260200160018201805480602002602001604051908101604052809291908181526020018280548015611f9a57602002820191906000526020600020905b815481526020019060010190808311611f86575b5050505050815260200160028201805480602002602001604051908101604052809291908181526020018280548015611ff257602002820191906000526020600020905b815481526020019060010190808311611fde575b505050919092525050815151919250501561219f5760005b81515160ff8216101561219d57600082600001518260ff168151811061203257612032614ac5565b6020908102919091018101516000818152609d83526040808220815160608101835281546001600160a01b03168152600182018054845181890281018901909552808552959750939590949193858201939290918301828280156120b557602002820191906000526020600020905b8154815260200190600101908083116120a1575b505050505081526020016002820180548060200260200160405190810160405280929190818152602001828054801561210d57602002820191906000526020600020905b8154815260200190600101908083116120f9575b505050505081525050905080600001516001600160a01b0316632eb2c2d63088846020015185604001516040518563ffffffff1660e01b81526004016121569493929190614f02565b600060405180830381600087803b15801561217057600080fd5b505af1158015612184573d6000803e3d6000fd5b505050505050808061219590614baa565b91505061200a565b505b602081015151156122865760005b8160200151518160ff16101561228457600082602001518260ff16815181106121d8576121d8614ac5565b6020908102919091018101516000818152609b83526040908190208151808301835281546001600160a01b031680825260019092015494810185905291516323b872dd60e01b8152929450909290916323b872dd9161223d9130918b91600401614f5d565b600060405180830381600087803b15801561225757600080fd5b505af115801561226b573d6000803e3d6000fd5b505050505050808061227c90614baa565b9150506121ad565b505b60408101515115610a555760005b8160400151518160ff16101561238c57600082604001518260ff16815181106122bf576122bf614ac5565b6020908102919091018101516000818152609c83526040908190208151808301835281546001600160a01b031680825260019092015494810185905291516323b872dd60e01b8152929450909290916323b872dd916123249130918b91600401614f5d565b602060405180830381600087803b15801561233e57600080fd5b505af1158015612352573d6000803e3d6000fd5b505050506040513d601f19601f820116820180604052508101906123769190614f81565b505050808061238490614baa565b915050612294565b50505050565b600061239d60975490565b90506123ad609780546001019055565b600084516001600160401b038111156123c8576123c8613f86565b6040519080825280602002602001820160405280156123f1578160200160208202803683370190505b509050600084516001600160401b0381111561240f5761240f613f86565b604051908082528060200260200182016040528015612438578160200160208202803683370190505b509050600086516001600160401b0381111561245657612456613f86565b60405190808252806020026020018201604052801561247f578160200160208202803683370190505b50905060005b87518160ff16101561260f576000888260ff16815181106124a8576124a8614ac5565b6020026020010151905060006124bd60985490565b90506124cd609880546001019055565b6000818152609d60209081526040909120835181546001600160a01b0319166001600160a01b039091161781558382015180518593612513926001850192910190613ec3565b506040820151805161252f916002840191602090910190613ec3565b5090505080868460ff168151811061254957612549614ac5565b602090810291909101015281516001600160a01b0316632eb2c2d63330856020015186604001516040518563ffffffff1660e01b815260040161258f9493929190614f02565b600060405180830381600087803b1580156125a957600080fd5b505af11580156125bd573d6000803e3d6000fd5b5050505080877f10b61b06ff573bc563e8dd478c7b5a9f163bad1ce17041c506c774e6d67627d5846040516125f29190614f9e565b60405180910390a35050808061260790614baa565b915050612485565b5060005b86518160ff16101561276b576000878260ff168151811061263657612636614ac5565b60200260200101519050600061264b60995490565b905061265b609980546001019055565b6000818152609b60209081526040909120835181546001600160a01b0319166001600160a01b039091161781559083015160019091015584518190869060ff86169081106126ab576126ab614ac5565b602090810291909101015281516001600160a01b03166323b872dd333085602001516040518463ffffffff1660e01b81526004016126eb93929190614f5d565b600060405180830381600087803b15801561270557600080fd5b505af1158015612719573d6000803e3d6000fd5b5050505080877ff7796afa4fae4049e99e7c3b826d5c94d6f1c1717d528cce17c7e284ed539ee38460405161274e9190614fb1565b60405180910390a35050808061276390614baa565b915050612613565b5060005b85518160ff1610156128e8576000868260ff168151811061279257612792614ac5565b6020026020010151905060006127a7609a5490565b90506127b7609a80546001019055565b6000818152609c60209081526040909120835181546001600160a01b0319166001600160a01b039091161781559083015160019091015583518190859060ff861690811061280757612807614ac5565b602090810291909101015281516001600160a01b03166323b872dd333085602001516040518463ffffffff1660e01b815260040161284793929190614f5d565b602060405180830381600087803b15801561286157600080fd5b505af1158015612875573d6000803e3d6000fd5b505050506040513d601f19601f820116820180604052508101906128999190614f81565b5080877f62022dd3f80bb6fbb4339aa53350292b79fceaa76793933e98b908b0a18cab8c846040516128cb9190614fb1565b60405180910390a3505080806128e090614baa565b91505061276f565b505050509392505050565b6001600160a01b0383166129195760405162461bcd60e51b815260040161087d90614fd1565b805182511461293a5760405162461bcd60e51b815260040161087d90614d25565b600033905061295d818560008686604051806020016040528060008152506131ae565b60005b8351811015612a2557600084828151811061297d5761297d614ac5565b60200260200101519050600084838151811061299b5761299b614ac5565b602090810291909101810151600084815260a4835260408082206001600160a01b038c1683529093529190912054909150818110156129ec5760405162461bcd60e51b815260040161087d90615014565b600092835260a4602090815260408085206001600160a01b038b1686529091529092209103905580612a1d81614b1e565b915050612960565b5060006001600160a01b0316846001600160a01b0316826001600160a01b03167f4a39dc06d4c0dbc64b70af90fd698a233a518aa5d07e595d983b8c0526c8f7fb8686604051612a76929190614e9b565b60405180910390a450505050565b60008211612ade5760405162461bcd60e51b815260206004820152602160248201527f54686520616d6f756e74206d7573742062652067726561746572207468616e206044820152600360fc1b606482015260840161087d565b60005b82811015610a28576000612af4856137b6565b9050612b0386826001866137eb565b5080612b0e81614b1e565b915050612ae1565b816001600160a01b0316836001600160a01b03161415612b8a5760405162461bcd60e51b815260206004820152602960248201527f455243313135353a2073657474696e6720617070726f76616c20737461747573604482015268103337b91039b2b63360b91b606482015260840161087d565b6001600160a01b03838116600081815260a56020908152604080832094871680845294825291829020805460ff191686151590811790915591519182527f17307eab39ab6107e8899845ad3d59bd9653f200f220920489ca2b5937696c31910160405180910390a3505050565b6001600160a01b038416612c1d5760405162461bcd60e51b815260040161087d90614d6d565b33612c3c818787612c2d886138ee565b612c36886138ee565b876131ae565b600084815260a4602090815260408083206001600160a01b038a16845290915290205483811015612cc25760405162461bcd60e51b815260206004820152602a60248201527f455243313135353a20696e73756666696369656e742062616c616e636520666f60448201526939103a3930b739b332b960b11b606482015260840161087d565b600085815260a4602090815260408083206001600160a01b038b8116855292528083208785039055908816825281208054869290612d01908490614e83565b909155505060408051868152602081018690526001600160a01b03808916928a821692918616917fc3d58168c5ae7397731d063d5bbf3d657854427343f4c083240f7aacaa2d0f62910160405180910390a4612d61828888888888613939565b50505050505050565b6001600160a01b038316612d905760405162461bcd60e51b815260040161087d90614fd1565b33612dbf81856000612da1876138ee565b612daa876138ee565b604051806020016040528060008152506131ae565b600083815260a4602090815260408083206001600160a01b038816845290915290205482811015612e025760405162461bcd60e51b815260040161087d90615014565b600084815260a4602090815260408083206001600160a01b03898116808652918452828520888703905582518981529384018890529092908616917fc3d58168c5ae7397731d063d5bbf3d657854427343f4c083240f7aacaa2d0f62910160405180910390a45050505050565b600054610100900460ff1680612e88575060005460ff16155b612ea45760405162461bcd60e51b815260040161087d90614c13565b600054610100900460ff16158015612ec6576000805461ffff19166101011790555b612ece613a03565b612ed6613a03565b8015610b9a576000805461ff001916905550565b600054610100900460ff1680612f03575060005460ff16155b612f1f5760405162461bcd60e51b815260040161087d90614c13565b600054610100900460ff16158015612f41576000805461ffff19166101011790555b612f4a82613a6d565b6117de613add565b612f5a613add565b612f65600033611ba3565b612f7d60008051602061540383398151915233611ba3565b612fa77f9f2df0fed2c77648de5860a4cc508cd0818c85b8b8a1ab4ceeef8d981c8956a633611ba3565b612fd17f189ab7a9244df0848122154315af71fe140f3db0fe014031783b0946b8c9d2e333611ba3565b565b60006001600160e01b03198216636cdb3d1360e11b148061300457506001600160e01b031982166303a24d0760e21b145b806108ab57506108ab82613b3c565b60606000613022836002615058565b61302d906002614e83565b6001600160401b0381111561304457613044613f86565b6040519080825280601f01601f19166020018201604052801561306e576020820181803683370190505b509050600360fc1b8160008151811061308957613089614ac5565b60200101906001600160f81b031916908160001a905350600f60fb1b816001815181106130b8576130b8614ac5565b60200101906001600160f81b031916908160001a90535060006130dc846002615058565b6130e7906001614e83565b90505b600181111561315f576f181899199a1a9b1b9c1cb0b131b232b360811b85600f166010811061311b5761311b614ac5565b1a60f81b82828151811061313157613131614ac5565b60200101906001600160f81b031916908160001a90535060049490941c9361315881615077565b90506130ea565b5083156116df5760405162461bcd60e51b815260206004820181905260248201527f537472696e67733a20686578206c656e67746820696e73756666696369656e74604482015260640161087d565b6001600160a01b0385166131fe5760005b83518110156131fc576131ea8482815181106131dd576131dd614ac5565b6020026020010151613b71565b806131f481614b1e565b9150506131bf565b505b611b9b868686868686613c15565b6060816132305750506040805180820190915260018152600360fc1b602082015290565b8160005b811561325a578061324481614b1e565b91506132539050600a8361508e565b9150613234565b6000816001600160401b0381111561327457613274613f86565b6040519080825280601f01601f19166020018201604052801561329e576020820181803683370190505b509050815b851561332b576132b4600182614af1565b905060006132c3600a8861508e565b6132ce90600a615058565b6132d89088614af1565b6132e39060306150a2565b905060008160f81b90508084848151811061330057613300614ac5565b60200101906001600160f81b031916908160001a905350613322600a8961508e565b975050506132a3565b50949350505050565b60408051602880825260608281019093526000919060208201818036833701905050905060005b6014811015613474576000613371826013614af1565b61337c906008615058565b6133879060026151ab565b61339a906001600160a01b03871661508e565b60f81b9050600060108260f81c6133b191906151b7565b60f81b905060008160f81c60106133c891906151d9565b8360f81c6133d691906151fa565b60f81b90506133e482613d12565b856133f0866002615058565b8151811061340057613400614ac5565b60200101906001600160f81b031916908160001a90535061342081613d12565b8561342c866002615058565b613437906001614e83565b8151811061344757613447614ac5565b60200101906001600160f81b031916908160001a905350505050808061346c90614b1e565b91505061335b565b5092915050565b6001600160a01b0384163b15611b9b5760405163bc197c8160e01b81526001600160a01b0385169063bc197c81906134bf908990899088908890889060040161521d565b602060405180830381600087803b1580156134d957600080fd5b505af1925050508015613509575060408051601f3d908101601f191682019092526135069181019061527b565b60015b6135b657613515615298565b806308c379a0141561354f575061352a6152b4565b806135355750613551565b8060405162461bcd60e51b815260040161087d919061412a565b505b60405162461bcd60e51b815260206004820152603460248201527f455243313135353a207472616e7366657220746f206e6f6e20455243313135356044820152732932b1b2b4bb32b91034b6b83632b6b2b73a32b960611b606482015260840161087d565b6001600160e01b0319811663bc197c8160e01b14612d615760405162461bcd60e51b815260040161087d9061533d565b803b61364a5760405162461bcd60e51b815260206004820152602d60248201527f455243313936373a206e657720696d706c656d656e746174696f6e206973206e60448201526c1bdd08184818dbdb9d1c9858dd609a1b606482015260840161087d565b7f360894a13ba1a3210667c828492db98dca3e2076cc3735a920a3ca505d382bbc80546001600160a01b0319166001600160a01b0392909216919091179055565b6060823b6136ea5760405162461bcd60e51b815260206004820152602660248201527f416464726573733a2064656c65676174652063616c6c20746f206e6f6e2d636f6044820152651b9d1c9858dd60d21b606482015260840161087d565b600080846001600160a01b0316846040516137059190615385565b600060405180830381855af49150503d8060008114613740576040519150601f19603f3d011682016040523d82523d6000602084013e613745565b606091505b509150915061376d82826040518060600160405280602781526020016153dc60279139613d48565b95945050505050565b61377f816135e6565b6040516001600160a01b038216907fbc7cd75a20ee27fd9adebab32041f755214dbc6bffa90cc0225b39da2e5c2d3b90600090a250565b6000806137c36101085490565b90506137d461010880546001019055565b600081815261010960205260409020929092555090565b6001600160a01b03841661384b5760405162461bcd60e51b815260206004820152602160248201527f455243313135353a206d696e7420746f20746865207a65726f206164647265736044820152607360f81b606482015260840161087d565b3361385c81600087612c2d886138ee565b600084815260a4602090815260408083206001600160a01b03891684529091528120805485929061388e908490614e83565b909155505060408051858152602081018590526001600160a01b0380881692600092918516917fc3d58168c5ae7397731d063d5bbf3d657854427343f4c083240f7aacaa2d0f62910160405180910390a4610a2881600087878787613939565b6040805160018082528183019092526060916000919060208083019080368337019050509050828160008151811061392857613928614ac5565b602090810291909101015292915050565b6001600160a01b0384163b15611b9b5760405163f23a6e6160e01b81526001600160a01b0385169063f23a6e619061397d90899089908890889088906004016153a1565b602060405180830381600087803b15801561399757600080fd5b505af19250505080156139c7575060408051601f3d908101601f191682019092526139c49181019061527b565b60015b6139d357613515615298565b6001600160e01b0319811663f23a6e6160e01b14612d615760405162461bcd60e51b815260040161087d9061533d565b600054610100900460ff1680613a1c575060005460ff16155b613a385760405162461bcd60e51b815260040161087d90614c13565b600054610100900460ff16158015612ed6576000805461ffff19166101011790558015610b9a576000805461ff001916905550565b600054610100900460ff1680613a86575060005460ff16155b613aa25760405162461bcd60e51b815260040161087d90614c13565b600054610100900460ff16158015613ac4576000805461ffff19166101011790555b613acc613a03565b613ad4613a03565b6117de82613d81565b600054610100900460ff1680613af6575060005460ff16155b613b125760405162461bcd60e51b815260040161087d90614c13565b600054610100900460ff16158015613b34576000805461ffff19166101011790555b612ec6613a03565b60006001600160e01b03198216637965db0b60e01b14806108ab57506301ffc9a760e01b6001600160e01b03198316146108ab565b60008181526101096020526040812054600081815260a06020526040902054909150613baf5760405162461bcd60e51b815260040161087d90614cd6565b613bb8826115e7565b600082815260a0602052604090205410156108de5760405162461bcd60e51b815260206004820152601960248201527f496e73756666696369656e7420726577617264206974656d7300000000000000604482015260640161087d565b6001600160a01b038516613ca25760005b8351811015613ca0576000613c61858381518110613c4657613c46614ac5565b60200260200101516000908152610109602052604090205490565b9050600161010a60008381526020019081526020016000206000828254613c889190614e83565b90915550613c999150829050614b1e565b9050613c26565b505b6001600160a01b038416611b9b5760005b8351811015612d61576000613cd3858381518110613c4657613c46614ac5565b9050600161010a60008381526020019081526020016000206000828254613cfa9190614af1565b90915550613d0b9150829050614b1e565b9050613cb3565b6000600a60f883901c1015613d3957613d3060f883901c60306150a2565b60f81b92915050565b613d3060f883901c60576150a2565b60608315613d575750816116df565b825115613d675782518084602001fd5b8160405162461bcd60e51b815260040161087d919061412a565b600054610100900460ff1680613d9a575060005460ff16155b613db65760405162461bcd60e51b815260040161087d90614c13565b600054610100900460ff16158015613dd8576000805461ffff19166101011790555b6117de8261187c565b60405180604001604052806002906020820280368337509192915050565b828054828255906000526020600020908101928215613e3f5760005260206000209182015b82811115613e3f578254825591600101919060010190613e24565b50613e4b929150613efd565b5090565b828054613e5b906149c8565b90600052602060002090601f016020900481019282613e7d5760008555613e3f565b82601f10613e9657805160ff1916838001178555613e3f565b82800160010185558215613e3f579182015b82811115613e3f578251825591602001919060010190613ea8565b828054828255906000526020600020908101928215613e3f5791602002820182811115613e3f578251825591602001919060010190613ea8565b5b80821115613e4b5760008155600101613efe565b6001600160a01b0381168114610b9a57600080fd5b60008060408385031215613f3a57600080fd5b8235613f4581613f12565b946020939093013593505050565b6001600160e01b031981168114610b9a57600080fd5b600060208284031215613f7b57600080fd5b81356116df81613f53565b634e487b7160e01b600052604160045260246000fd5b604081018181106001600160401b0382111715613fbb57613fbb613f86565b60405250565b606081018181106001600160401b0382111715613fbb57613fbb613f86565b601f8201601f191681016001600160401b038111828210171561400557614005613f86565b6040525050565b60006001600160401b0383111561402557614025613f86565b60405161403c601f8501601f191660200182613fe0565b80915083815284848401111561405157600080fd5b83836020830137600060208583010152509392505050565b60006020828403121561407b57600080fd5b81356001600160401b0381111561409157600080fd5b8201601f810184136140a257600080fd5b6140b18482356020840161400c565b949350505050565b6000602082840312156140cb57600080fd5b5035919050565b60005b838110156140ed5781810151838201526020016140d5565b8381111561238c5750506000910152565b600081518084526141168160208601602086016140d2565b601f01601f19169290920160200192915050565b6020815260006116df60208301846140fe565b60006001600160401b0382111561415657614156613f86565b5060051b60200190565b600082601f83011261417157600080fd5b8135602061417e8261413d565b60405161418b8282613fe0565b83815260059390931b85018201928281019150868411156141ab57600080fd5b8286015b848110156141c657803583529183019183016141af565b509695505050505050565b600082601f8301126141e257600080fd5b6116df8383356020850161400c565b600080600080600060a0868803121561420957600080fd5b853561421481613f12565b9450602086013561422481613f12565b935060408601356001600160401b038082111561424057600080fd5b61424c89838a01614160565b9450606088013591508082111561426257600080fd5b61426e89838a01614160565b9350608088013591508082111561428457600080fd5b50614291888289016141d1565b9150509295509295909350565b600080604083850312156142b157600080fd5b8235915060208301356142c381613f12565b809150509250929050565b6000602082840312156142e057600080fd5b81356116df81613f12565b60408101818360005b60028110156143135781518352602092830192909101906001016142f4565b50505092915050565b6000806040838503121561432f57600080fd5b82356001600160401b038082111561434657600080fd5b818501915085601f83011261435a57600080fd5b813560206143678261413d565b6040516143748282613fe0565b83815260059390931b850182019282810191508984111561439457600080fd5b948201945b838610156143bb5785356143ac81613f12565b82529482019490820190614399565b965050860135925050808211156143d157600080fd5b506143de85828601614160565b9150509250929050565b600081518084526020808501945080840160005b83811015614418578151875295820195908201906001016143fc565b509495945050505050565b6020815260006116df60208301846143e8565b6000806040838503121561444957600080fd5b823561445481613f12565b915060208301356001600160401b0381111561446f57600080fd5b6143de858286016141d1565b600082601f83011261448c57600080fd5b813560206144998261413d565b604080516144a78382613fe0565b84815260069490941b86018301938381019250878511156144c757600080fd5b8387015b858110156145105782818a0312156144e35760008081fd5b82516144ee81613f9c565b81356144f981613f12565b8152818601358682015284529284019282016144cb565b50979650505050505050565b6000806000806080858703121561453257600080fd5b8435935060208501356001600160401b038082111561455057600080fd5b818701915087601f83011261456457600080fd5b61456e823561413d565b60405161457b8282613fe0565b83358082526020808301935060059190911b8501018a81111561459d57600080fd5b602085015b818110156146495784813511156145b857600080fd5b803586016060818e03601f190112156145d057600080fd5b6040516145dc81613fc1565b60208201356145ea81613f12565b81526040820135878111156145fe57600080fd5b61460d8f602083860101614160565b60208301525060608201358781111561462557600080fd5b6146348f602083860101614160565b604083015250855250602093840193016145a2565b509096505050604087013591508082111561466357600080fd5b61466f8883890161447b565b9350606087013591508082111561468557600080fd5b506146928782880161447b565b91505092959194509250565b60018060a01b03815116825260006020820151606060208501526146c560608501826143e8565b90506040830151848203604086015261376d82826143e8565b600081518084526020808501945080840160005b838110156144185761471887835180516001600160a01b03168252602090810151910152565b60409690960195908201906001016146f2565b6000606082016060835280865180835260808501915060808160051b8601019250602080890160005b8381101561478257607f1988870301855261477086835161469e565b95509382019390820190600101614754565b50508584038187015287518085528882019482019350915060005b828110156147d6576147c384865180516001600160a01b03168252602090810151910152565b938101936040939093019260010161479d565b50505083810360408501526147eb81866146de565b979650505050505050565b60008060006060848603121561480b57600080fd5b833561481681613f12565b925060208401356001600160401b038082111561483257600080fd5b61483e87838801614160565b9350604086013591508082111561485457600080fd5b5061486186828701614160565b9150509250925092565b6000806000806080858703121561488157600080fd5b843561488c81613f12565b9350602085013592506040850135915060608501356001600160401b038111156148b557600080fd5b614692878288016141d1565b8015158114610b9a57600080fd5b600080604083850312156148e257600080fd5b82356148ed81613f12565b915060208301356142c3816148c1565b6000806040838503121561491057600080fd5b823561491b81613f12565b915060208301356142c381613f12565b600080600080600060a0868803121561494357600080fd5b853561494e81613f12565b9450602086013561495e81613f12565b9350604086013592506060860135915060808601356001600160401b0381111561498757600080fd5b614291888289016141d1565b6000806000606084860312156149a857600080fd5b83356149b381613f12565b95602085013595506040909401359392505050565b600181811c908216806149dc57607f821691505b602082108114156149fd57634e487b7160e01b600052602260045260246000fd5b50919050565b6020808252602c908201527f46756e6374696f6e206d7573742062652063616c6c6564207468726f7567682060408201526b19195b1959d85d1958d85b1b60a21b606082015260800190565b6020808252602c908201527f46756e6374696f6e206d7573742062652063616c6c6564207468726f7567682060408201526b6163746976652070726f787960a01b606082015260800190565b634e487b7160e01b600052601260045260246000fd5b600082614ac057614ac0614a9b565b500690565b634e487b7160e01b600052603260045260246000fd5b634e487b7160e01b600052601160045260246000fd5b600082821015614b0357614b03614adb565b500390565b634e487b7160e01b600052603160045260246000fd5b6000600019821415614b3257614b32614adb565b5060010190565b6020808252604b908201527f53616c6573206861766520616c7265616479207374617274656420616e64206360408201527f616e6e6f74206368616e67652074686520636f6e74656e74206f66207468652060608201526a1c995dd85c99081c1bdbdb60aa1b608082015260a00190565b600060ff821660ff811415614bc157614bc1614adb565b60010192915050565b60208082526029908201527f455243313135353a2063616c6c6572206973206e6f74206f776e6572206e6f7260408201526808185c1c1c9bdd995960ba1b606082015260800190565b6020808252602e908201527f496e697469616c697a61626c653a20636f6e747261637420697320616c72656160408201526d191e481a5b9a5d1a585b1a5e995960921b606082015260800190565b7f416363657373436f6e74726f6c3a206163636f756e7420000000000000000000815260008351614c998160178501602088016140d2565b7001034b99036b4b9b9b4b733903937b6329607d1b6017918401918201528351614cca8160288401602088016140d2565b01602801949350505050565b6020808252602f908201527f53616c657320646f6e2774207365656d20746f2062652072656164792831303060408201526e50657263656e74207265776172642960881b606082015260800190565b60208082526028908201527f455243313135353a2069647320616e6420616d6f756e7473206c656e677468206040820152670dad2e6dac2e8c6d60c31b606082015260800190565b60208082526025908201527f455243313135353a207472616e7366657220746f20746865207a65726f206164604082015264647265737360d81b606082015260800190565b7f455243313135353a20696e73756666696369656e742062616c616e636520666f8152600060206b0e440e8e4c2dce6cccae440560a31b818401528751614dff81602c8601848c016140d2565b8084019050601d60f91b80602c8301528851614e2181602d8501868d016140d2565b602d92019182018190528751614e3d81602e8501868c016140d2565b602e92019182018190528651614e5981602f8501868b016140d2565b602f9201918201528451614e7381603084018589016140d2565b0160300198975050505050505050565b60008219821115614e9657614e96614adb565b500190565b604081526000614eae60408301856143e8565b828103602084015261376d81856143e8565b83815260006020848184015260408301845182860160005b82811015614ef457815184529284019290840190600101614ed8565b509198975050505050505050565b6001600160a01b0385811682528416602082015260a060408201819052600090614f2e908301856143e8565b8281036060840152614f4081856143e8565b838103608090940193909352505060008152602001949350505050565b6001600160a01b039384168152919092166020820152604081019190915260600190565b600060208284031215614f9357600080fd5b81516116df816148c1565b6020815260006116df602083018461469e565b81516001600160a01b0316815260208083015190820152604081016108ab565b60208082526023908201527f455243313135353a206275726e2066726f6d20746865207a65726f206164647260408201526265737360e81b606082015260800190565b60208082526024908201527f455243313135353a206275726e20616d6f756e7420657863656564732062616c604082015263616e636560e01b606082015260800190565b600081600019048311821515161561507257615072614adb565b500290565b60008161508657615086614adb565b506000190190565b60008261509d5761509d614a9b565b500490565b600060ff821660ff84168060ff038211156150bf576150bf614adb565b019392505050565b600181815b808511156151025781600019048211156150e8576150e8614adb565b808516156150f557918102915b93841c93908002906150cc565b509250929050565b600082615119575060016108ab565b81615126575060006108ab565b816001811461513c576002811461514657615162565b60019150506108ab565b60ff84111561515757615157614adb565b50506001821b6108ab565b5060208310610133831016604e8410600b8410161715615185575081810a6108ab565b61518f83836150c7565b80600019048211156151a3576151a3614adb565b029392505050565b60006116df838361510a565b600060ff8316806151ca576151ca614a9b565b8060ff84160491505092915050565b600060ff821660ff84168160ff04811182151516156151a3576151a3614adb565b600060ff821660ff84168082101561521457615214614adb565b90039392505050565b6001600160a01b0386811682528516602082015260a060408201819052600090615249908301866143e8565b828103606084015261525b81866143e8565b9050828103608084015261526f81856140fe565b98975050505050505050565b60006020828403121561528d57600080fd5b81516116df81613f53565b600060033d11156152b15760046000803e5060005160e01c5b90565b600060443d10156152c25790565b6040516003193d81016004833e81513d6001600160401b0381602484011181841117156152f157505050505090565b82850191508151818111156153095750505050505090565b843d87010160208285010111156153235750505050505090565b61533260208286010187613fe0565b509095945050505050565b60208082526028908201527f455243313135353a204552433131353552656365697665722072656a656374656040820152676420746f6b656e7360c01b606082015260800190565b600082516153978184602087016140d2565b9190910192915050565b6001600160a01b03868116825285166020820152604081018490526060810183905260a0608082018190526000906147eb908301846140fe56fe416464726573733a206c6f772d6c6576656c2064656c65676174652063616c6c206661696c6564f5eb84615c2a00ecaf817d13794ebd6299c9e01c395bf4018453f13f577f5449a2646970667358221220164c13425d11b9ae2e36ed2268239d993f5d123965fc55ff9b62ed0d24ac50a164736f6c63430008090033",
  "immutableReferences": {
    "1023": [
      {
        "length": 32,
        "start": 2783
      },
      {
        "length": 32,
        "start": 2847
      },
      {
        "length": 32,
        "start": 4178
      },
      {
        "length": 32,
        "start": 4242
      }
    ]
  },
  "source": "// SPDX-License-Identifier: MIT\npragma solidity 0.8.9;\n\nimport \"@openzeppelin/contracts-upgradeable/token/ERC1155/utils/ERC1155HolderUpgradeable.sol\";\nimport \"@openzeppelin/contracts-upgradeable/proxy/utils/Initializable.sol\";\nimport \"@openzeppelin/contracts-upgradeable/proxy/utils/UUPSUpgradeable.sol\";\nimport \"./MelandTierStorage.sol\";\nimport \"./Meland1155CID.sol\";\nimport \"./MelandAccessRoles.sol\";\n\ncontract MelandTier is\n    Initializable,\n    MelandAccessRoles,\n    MelandTierStorage,\n    Meland1155CID,\n    ERC1155HolderUpgradeable,\n    UUPSUpgradeable\n{\n    function initialize(string memory uri) public initializer {\n        __UUPSUpgradeable_init();\n        __ERC1155MelandCID_init(uri);\n        __MelandAccessRoles_init();\n    }\n\n    function setURI(string memory newuri) public onlyRole(GM_ROLE) {\n        _setURI(newuri);\n    }\n\n    // According to the cid mint in the game\n    function mint(\n        address account,\n        uint256 cid,\n        uint256 amount,\n        bytes memory data\n    ) public onlyRole(MINTER_ROLE) {\n        _mint(account, cid, amount, data);\n    }\n\n    function _authorizeUpgrade(address newImplementation)\n        internal\n        override\n        onlyRole(UPGRADER_ROLE)\n    {\n\n    }\n\n    function isApprovedForAll(address _owner, address _operator)\n        public\n        view\n        override\n        returns (bool isOperator)\n    {\n        // if OpenSea's ERC1155 Proxy Address is detected, auto-return true\n        if (_operator == address(0x207Fa8Df3a17D96Ca7EA4f2893fcdCb78a304101)) {\n            return true;\n        }\n\n        return super.isApprovedForAll(_owner, _operator);\n    }\n\n    function random(uint256[] memory arr) private view returns (uint256) {\n        // sha3 and now have been deprecated\n        return\n            uint256(\n                keccak256(abi.encodePacked(block.difficulty, block.timestamp, arr))\n            );\n    }\n\n    function getAllRewardsById(uint256 id) public view returns(\n        ERC1155Reward[] memory erc1155rewards,\n        ERC721Reward[] memory erc721rewards,\n        ERC20Reward[] memory erc20rewards\n    ) {\n        Reward memory reward = rewardById[id];\n        for (uint8 i = 0; i < reward.erc1155RewardIds.length; i ++) {\n            erc1155rewards[i] = erc1155RewardById[reward.erc1155RewardIds[i]];\n        }\n        for (uint8 i = 0; i < reward.erc721RewardIds.length; i ++) {\n            erc721rewards[i] = erc721RewardById[reward.erc721RewardIds[i]];\n        }\n        for (uint8 i = 0; i < reward.erc20RewardIds.length; i ++) {\n            erc20rewards[i] = erc20RewardById[reward.erc20RewardIds[i]];\n        }\n    }\n\n    //\n    function openTier(uint256 id) public returns(uint256[2] memory returnRewardIds)\n    {\n        require(balanceOf(_msgSender(), id) > 0, \"Insufficient balance\");\n\n        uint256 cid = getCidByTokenId(id);\n\n        // Start lottery, random\n        uint256[] storage rewardIdsFor100Percent = currentNFTPoolFor100PercentByCId[cid];\n        uint256[] storage rewardIdsForOption = currentNFTPoolForOptionByCId[cid];\n        require(rewardIdsFor100Percent.length > 0, \"system failed\");\n\n        uint256 indexFor100Percent = random(rewardIdsFor100Percent) % rewardIdsFor100Percent.length;\n        uint256 rewardIdFor100Percent = rewardIdsFor100Percent[\n            indexFor100Percent\n        ];\n\n        returnRewardIds[0] = rewardIdFor100Percent;\n        _transferReward(_msgSender(), rewardIdFor100Percent);\n\n        // Saving gas will be rewarded by removing\n        uint256 lastIndex = rewardIdsFor100Percent.length - 1;\n        uint256 lastRewardId = rewardIdsFor100Percent[lastIndex];\n        rewardIdsFor100Percent[indexFor100Percent] = lastRewardId;\n        rewardIdsFor100Percent.pop();\n        currentNFTPoolFor100PercentByCId[cid] = rewardIdsFor100Percent;\n\n        if (rewardIdsForOption.length > 0) {\n            uint256 indexForOption = random(rewardIdsForOption) % rewardIdsForOption.length;\n            uint256 rewardIdForOption = rewardIdsForOption[indexForOption];\n            returnRewardIds[1] = rewardIdForOption;\n            _transferReward(_msgSender(), rewardIdForOption);\n\n            // Saving gas will be rewarded by removing\n            uint256 lastOpIndex = rewardIdsForOption.length - 1;\n            uint256 lastOpRewardId = rewardIdsForOption[lastOpIndex];\n            rewardIdsForOption[indexForOption] = lastOpRewardId;\n            rewardIdsForOption.pop();\n            currentNFTPoolForOptionByCId[cid] = rewardIdsForOption;\n        }\n\n        burn(_msgSender(), id, 1);\n\n        emit OpenTier(returnRewardIds);\n    }\n\n    function startSale(uint256 cid) public onlyRole(GM_ROLE) {\n        _startSale(cid);\n    }\n\n    function _checkCanSale(uint256 id) internal view {\n        uint256 cid = getCidByTokenId(id);\n        require(\n            saleNFTPoolFor100PercentByCId[cid].length > 0,\n            \"Sales don't seem to be ready(100Percent reward)\"\n        );\n        require(\n            saleNFTPoolFor100PercentByCId[cid].length >= totalSupply(id),\n            \"Insufficient reward items\"\n        );\n    }\n\n    // The following functions are overrides required by Solidity.\n    function _beforeTokenTransfer(\n        address operator,\n        address from,\n        address to,\n        uint256[] memory ids,\n        uint256[] memory amounts,\n        bytes memory data\n    ) internal override(Meland1155CID) {\n        // If is mint\n        // Check tier ready to\n        // This is to prevent players from buying a tier and not being able to open it or get a reward unfairly\n        if (from == address(0)) {\n            for (uint256 i = 0; i < ids.length; i++) {\n                _checkCanSale(ids[i]);\n            }\n        }\n\n        super._beforeTokenTransfer(operator, from, to, ids, amounts, data);\n    }\n\n    function supportsInterface(bytes4 interfaceId)\n        public\n        view\n        override(\n            ERC1155Upgradeable,\n            AccessControlUpgradeable,\n            ERC1155ReceiverUpgradeable\n        )\n        returns (bool)\n    {\n        return super.supportsInterface(interfaceId);\n    }\n}\n",
  "sourcePath": "/Users/alberthuang/code/icw/meland/contracts/MelandTier.sol",
  "compiler": {
    "name": "solc",
    "version": "0.8.9+commit.e5eed63a.Emscripten.clang"
  },
  "schemaVersion": "3.4.3",
  "updatedAt": "2021-12-25T04:04:49.590Z",
  "devdoc": {
    "kind": "dev",
    "methods": {
      "balanceOf(address,uint256)": {
        "details": "See {IERC1155-balanceOf}. Requirements: - `account` cannot be the zero address."
      },
      "balanceOfBatch(address[],uint256[])": {
        "details": "See {IERC1155-balanceOfBatch}. Requirements: - `accounts` and `ids` must have the same length."
      },
      "getRoleAdmin(bytes32)": {
        "details": "Returns the admin role that controls `role`. See {grantRole} and {revokeRole}. To change a role's admin, use {_setRoleAdmin}."
      },
      "grantRole(bytes32,address)": {
        "details": "Grants `role` to `account`. If `account` had not been already granted `role`, emits a {RoleGranted} event. Requirements: - the caller must have ``role``'s admin role."
      },
      "hasRole(bytes32,address)": {
        "details": "Returns `true` if `account` has been granted `role`."
      },
      "renounceRole(bytes32,address)": {
        "details": "Revokes `role` from the calling account. Roles are often managed via {grantRole} and {revokeRole}: this function's purpose is to provide a mechanism for accounts to lose their privileges if they are compromised (such as when a trusted device is misplaced). If the calling account had been revoked `role`, emits a {RoleRevoked} event. Requirements: - the caller must be `account`."
      },
      "revokeRole(bytes32,address)": {
        "details": "Revokes `role` from `account`. If `account` had been granted `role`, emits a {RoleRevoked} event. Requirements: - the caller must have ``role``'s admin role."
      },
      "safeBatchTransferFrom(address,address,uint256[],uint256[],bytes)": {
        "details": "See {IERC1155-safeBatchTransferFrom}."
      },
      "safeTransferFrom(address,address,uint256,uint256,bytes)": {
        "details": "See {IERC1155-safeTransferFrom}."
      },
      "setApprovalForAll(address,bool)": {
        "details": "See {IERC1155-setApprovalForAll}."
      },
      "upgradeTo(address)": {
        "details": "Upgrade the implementation of the proxy to `newImplementation`. Calls {_authorizeUpgrade}. Emits an {Upgraded} event."
      },
      "upgradeToAndCall(address,bytes)": {
        "details": "Upgrade the implementation of the proxy to `newImplementation`, and subsequently execute the function call encoded in `data`. Calls {_authorizeUpgrade}. Emits an {Upgraded} event."
      },
      "uri(uint256)": {
        "details": "See {IERC1155MetadataURI-uri}. This implementation returns the same URI for *all* token types. It relies on the token type ID substitution mechanism https://eips.ethereum.org/EIPS/eip-1155#metadata[defined in the EIP]. Clients calling this function must replace the `\\{id\\}` substring with the actual token type ID."
      }
    },
    "version": 1
  },
  "userdoc": {
    "kind": "user",
    "methods": {},
    "version": 1
  }
}