{
  "contractName": "NFTFactory",
  "abi": [
    {
      "anonymous": false,
      "inputs": [
        {
          "indexed": false,
          "internalType": "address",
          "name": "previousAdmin",
          "type": "address"
        },
        {
          "indexed": false,
          "internalType": "address",
          "name": "newAdmin",
          "type": "address"
        }
      ],
      "name": "AdminChanged",
      "type": "event"
    },
    {
      "anonymous": false,
      "inputs": [
        {
          "indexed": true,
          "internalType": "address",
          "name": "beacon",
          "type": "address"
        }
      ],
      "name": "BeaconUpgraded",
      "type": "event"
    },
    {
      "anonymous": false,
      "inputs": [
        {
          "components": [
            {
              "internalType": "contract IERC1155",
              "name": "erc1155",
              "type": "address"
            },
            {
              "internalType": "contract IERC721",
              "name": "erc721",
              "type": "address"
            }
          ],
          "indexed": false,
          "internalType": "struct NFTFactory.ERC721Or1155",
          "name": "nft",
          "type": "tuple"
        },
        {
          "indexed": false,
          "internalType": "address",
          "name": "operator",
          "type": "address"
        },
        {
          "indexed": false,
          "internalType": "uint256",
          "name": "operationTime",
          "type": "uint256"
        }
      ],
      "name": "NFTSupportCreate",
      "type": "event"
    },
    {
      "anonymous": false,
      "inputs": [
        {
          "components": [
            {
              "internalType": "contract IERC1155",
              "name": "erc1155",
              "type": "address"
            },
            {
              "internalType": "contract IERC721",
              "name": "erc721",
              "type": "address"
            }
          ],
          "indexed": false,
          "internalType": "struct NFTFactory.ERC721Or1155",
          "name": "nft",
          "type": "tuple"
        },
        {
          "indexed": false,
          "internalType": "address",
          "name": "operator",
          "type": "address"
        },
        {
          "indexed": false,
          "internalType": "uint256",
          "name": "operationTime",
          "type": "uint256"
        }
      ],
      "name": "NFTSupportRemove",
      "type": "event"
    },
    {
      "anonymous": false,
      "inputs": [
        {
          "indexed": true,
          "internalType": "address",
          "name": "nft",
          "type": "address"
        },
        {
          "components": [
            {
              "internalType": "address",
              "name": "proposer",
              "type": "address"
            },
            {
              "internalType": "uint256",
              "name": "proposalTime",
              "type": "uint256"
            },
            {
              "internalType": "bool",
              "name": "approved",
              "type": "bool"
            }
          ],
          "indexed": false,
          "internalType": "struct NFTFactory.RFC",
          "name": "rfc",
          "type": "tuple"
        }
      ],
      "name": "RFCApproved",
      "type": "event"
    },
    {
      "anonymous": false,
      "inputs": [
        {
          "indexed": true,
          "internalType": "address",
          "name": "nft",
          "type": "address"
        },
        {
          "components": [
            {
              "internalType": "address",
              "name": "proposer",
              "type": "address"
            },
            {
              "internalType": "uint256",
              "name": "proposalTime",
              "type": "uint256"
            },
            {
              "internalType": "bool",
              "name": "approved",
              "type": "bool"
            }
          ],
          "indexed": false,
          "internalType": "struct NFTFactory.RFC",
          "name": "rfc",
          "type": "tuple"
        }
      ],
      "name": "RFCCreated",
      "type": "event"
    },
    {
      "anonymous": false,
      "inputs": [
        {
          "indexed": true,
          "internalType": "bytes32",
          "name": "role",
          "type": "bytes32"
        },
        {
          "indexed": true,
          "internalType": "bytes32",
          "name": "previousAdminRole",
          "type": "bytes32"
        },
        {
          "indexed": true,
          "internalType": "bytes32",
          "name": "newAdminRole",
          "type": "bytes32"
        }
      ],
      "name": "RoleAdminChanged",
      "type": "event"
    },
    {
      "anonymous": false,
      "inputs": [
        {
          "indexed": true,
          "internalType": "bytes32",
          "name": "role",
          "type": "bytes32"
        },
        {
          "indexed": true,
          "internalType": "address",
          "name": "account",
          "type": "address"
        },
        {
          "indexed": true,
          "internalType": "address",
          "name": "sender",
          "type": "address"
        }
      ],
      "name": "RoleGranted",
      "type": "event"
    },
    {
      "anonymous": false,
      "inputs": [
        {
          "indexed": true,
          "internalType": "bytes32",
          "name": "role",
          "type": "bytes32"
        },
        {
          "indexed": true,
          "internalType": "address",
          "name": "account",
          "type": "address"
        },
        {
          "indexed": true,
          "internalType": "address",
          "name": "sender",
          "type": "address"
        }
      ],
      "name": "RoleRevoked",
      "type": "event"
    },
    {
      "anonymous": false,
      "inputs": [
        {
          "indexed": true,
          "internalType": "address",
          "name": "implementation",
          "type": "address"
        }
      ],
      "name": "Upgraded",
      "type": "event"
    },
    {
      "inputs": [],
      "name": "DEFAULT_ADMIN_ROLE",
      "outputs": [
        {
          "internalType": "bytes32",
          "name": "",
          "type": "bytes32"
        }
      ],
      "stateMutability": "view",
      "type": "function"
    },
    {
      "inputs": [],
      "name": "GM_ROLE",
      "outputs": [
        {
          "internalType": "bytes32",
          "name": "",
          "type": "bytes32"
        }
      ],
      "stateMutability": "view",
      "type": "function"
    },
    {
      "inputs": [],
      "name": "MINTER_ROLE",
      "outputs": [
        {
          "internalType": "bytes32",
          "name": "",
          "type": "bytes32"
        }
      ],
      "stateMutability": "view",
      "type": "function"
    },
    {
      "inputs": [],
      "name": "UPGRADER_ROLE",
      "outputs": [
        {
          "internalType": "bytes32",
          "name": "",
          "type": "bytes32"
        }
      ],
      "stateMutability": "view",
      "type": "function"
    },
    {
      "inputs": [
        {
          "internalType": "bytes32",
          "name": "role",
          "type": "bytes32"
        }
      ],
      "name": "getRoleAdmin",
      "outputs": [
        {
          "internalType": "bytes32",
          "name": "",
          "type": "bytes32"
        }
      ],
      "stateMutability": "view",
      "type": "function"
    },
    {
      "inputs": [
        {
          "internalType": "bytes32",
          "name": "role",
          "type": "bytes32"
        },
        {
          "internalType": "address",
          "name": "account",
          "type": "address"
        }
      ],
      "name": "grantRole",
      "outputs": [],
      "stateMutability": "nonpayable",
      "type": "function"
    },
    {
      "inputs": [
        {
          "internalType": "bytes32",
          "name": "role",
          "type": "bytes32"
        },
        {
          "internalType": "address",
          "name": "account",
          "type": "address"
        }
      ],
      "name": "hasRole",
      "outputs": [
        {
          "internalType": "bool",
          "name": "",
          "type": "bool"
        }
      ],
      "stateMutability": "view",
      "type": "function"
    },
    {
      "inputs": [
        {
          "internalType": "bytes32",
          "name": "role",
          "type": "bytes32"
        },
        {
          "internalType": "address",
          "name": "account",
          "type": "address"
        }
      ],
      "name": "renounceRole",
      "outputs": [],
      "stateMutability": "nonpayable",
      "type": "function"
    },
    {
      "inputs": [
        {
          "internalType": "bytes32",
          "name": "role",
          "type": "bytes32"
        },
        {
          "internalType": "address",
          "name": "account",
          "type": "address"
        }
      ],
      "name": "revokeRole",
      "outputs": [],
      "stateMutability": "nonpayable",
      "type": "function"
    },
    {
      "inputs": [
        {
          "internalType": "address",
          "name": "",
          "type": "address"
        }
      ],
      "name": "supportNFTs",
      "outputs": [
        {
          "components": [
            {
              "internalType": "contract IERC1155",
              "name": "erc1155",
              "type": "address"
            },
            {
              "internalType": "contract IERC721",
              "name": "erc721",
              "type": "address"
            }
          ],
          "internalType": "struct NFTFactory.ERC721Or1155",
          "name": "erc721or1155",
          "type": "tuple"
        },
        {
          "internalType": "bool",
          "name": "support",
          "type": "bool"
        }
      ],
      "stateMutability": "view",
      "type": "function"
    },
    {
      "inputs": [
        {
          "internalType": "address",
          "name": "",
          "type": "address"
        }
      ],
      "name": "supportRFCs",
      "outputs": [
        {
          "internalType": "address",
          "name": "proposer",
          "type": "address"
        },
        {
          "internalType": "uint256",
          "name": "proposalTime",
          "type": "uint256"
        },
        {
          "internalType": "bool",
          "name": "approved",
          "type": "bool"
        }
      ],
      "stateMutability": "view",
      "type": "function"
    },
    {
      "inputs": [
        {
          "internalType": "bytes4",
          "name": "interfaceId",
          "type": "bytes4"
        }
      ],
      "name": "supportsInterface",
      "outputs": [
        {
          "internalType": "bool",
          "name": "",
          "type": "bool"
        }
      ],
      "stateMutability": "view",
      "type": "function"
    },
    {
      "inputs": [
        {
          "internalType": "address",
          "name": "newImplementation",
          "type": "address"
        }
      ],
      "name": "upgradeTo",
      "outputs": [],
      "stateMutability": "nonpayable",
      "type": "function"
    },
    {
      "inputs": [
        {
          "internalType": "address",
          "name": "newImplementation",
          "type": "address"
        },
        {
          "internalType": "bytes",
          "name": "data",
          "type": "bytes"
        }
      ],
      "name": "upgradeToAndCall",
      "outputs": [],
      "stateMutability": "payable",
      "type": "function"
    },
    {
      "inputs": [],
      "name": "initialize",
      "outputs": [],
      "stateMutability": "nonpayable",
      "type": "function"
    },
    {
      "inputs": [
        {
          "internalType": "address",
          "name": "nft",
          "type": "address"
        }
      ],
      "name": "newRFC",
      "outputs": [],
      "stateMutability": "nonpayable",
      "type": "function"
    },
    {
      "inputs": [
        {
          "internalType": "address",
          "name": "nft",
          "type": "address"
        }
      ],
      "name": "approveRFC",
      "outputs": [],
      "stateMutability": "nonpayable",
      "type": "function"
    },
    {
      "inputs": [
        {
          "internalType": "address",
          "name": "nft",
          "type": "address"
        }
      ],
      "name": "newSupport",
      "outputs": [],
      "stateMutability": "nonpayable",
      "type": "function"
    }
  ],
  "bytecode": "0x60a06040523060805234801561001457600080fd5b50608051611a2361004560003960008181610525015281816105650152818161077401526107b40152611a236000f3fe6080604052600436106101095760003560e01c80637176360e11610095578063c92115e411610064578063c92115e4146102d4578063d539139314610344578063d547741f14610378578063dca2cec914610398578063f72c0d8b1461040157600080fd5b80637176360e1461026a5780638129fc1c1461028a57806391d148541461029f578063a217fddf146102bf57600080fd5b806336568abe116100dc57806336568abe146101d75780633659cfe6146101f75780633e350061146102175780634f1ef2861461023757806353366cd61461024a57600080fd5b806301ffc9a71461010e578063248a9ca3146101435780632f2ff15d1461018157806330c7be2c146101a3575b600080fd5b34801561011a57600080fd5b5061012e610129366004611561565b610435565b60405190151581526020015b60405180910390f35b34801561014f57600080fd5b5061017361015e36600461158b565b60009081526065602052604090206001015490565b60405190815260200161013a565b34801561018d57600080fd5b506101a161019c3660046115c0565b61046c565b005b3480156101af57600080fd5b506101737ff5eb84615c2a00ecaf817d13794ebd6299c9e01c395bf4018453f13f577f544981565b3480156101e357600080fd5b506101a16101f23660046115c0565b610497565b34801561020357600080fd5b506101a16102123660046115ec565b61051a565b34801561022357600080fd5b506101a16102323660046115ec565b6105e3565b6101a161024536600461161d565b610769565b34801561025657600080fd5b506101a16102653660046115ec565b61081f565b34801561027657600080fd5b506101a16102853660046115ec565b610853565b34801561029657600080fd5b506101a161099a565b3480156102ab57600080fd5b5061012e6102ba3660046115c0565b610a15565b3480156102cb57600080fd5b50610173600081565b3480156102e057600080fd5b5061031d6102ef3660046115ec565b60fc602052600090815260409020805460018201546002909201546001600160a01b03909116919060ff1683565b604080516001600160a01b039094168452602084019290925215159082015260600161013a565b34801561035057600080fd5b506101737f9f2df0fed2c77648de5860a4cc508cd0818c85b8b8a1ab4ceeef8d981c8956a681565b34801561038457600080fd5b506101a16103933660046115c0565b610a40565b3480156103a457600080fd5b506103f36103b33660046115ec565b60fb60209081526000918252604091829020825180840190935280546001600160a01b039081168452600182015416918301919091526002015460ff1682565b60405161013a9291906116df565b34801561040d57600080fd5b506101737f189ab7a9244df0848122154315af71fe140f3db0fe014031783b0946b8c9d2e381565b60006001600160e01b03198216637965db0b60e01b148061046657506301ffc9a760e01b6001600160e01b03198316145b92915050565b6000828152606560205260409020600101546104888133610a66565b6104928383610aca565b505050565b6001600160a01b038116331461050c5760405162461bcd60e51b815260206004820152602f60248201527f416363657373436f6e74726f6c3a2063616e206f6e6c792072656e6f756e636560448201526e103937b632b9903337b91039b2b63360891b60648201526084015b60405180910390fd5b6105168282610b50565b5050565b306001600160a01b037f00000000000000000000000000000000000000000000000000000000000000001614156105635760405162461bcd60e51b815260040161050390611712565b7f00000000000000000000000000000000000000000000000000000000000000006001600160a01b0316610595610bb7565b6001600160a01b0316146105bb5760405162461bcd60e51b81526004016105039061175e565b6105c481610be5565b604080516000808252602082019092526105e091839190610c10565b50565b6001600160a01b038116600090815260fc6020526040902060010154156106415760405162461bcd60e51b8152602060048201526012602482015271416c7265616479206578697374732052464360701b6044820152606401610503565b6001600160a01b038116600090815260fb602052604090206002015460ff161561069f5760405162461bcd60e51b815260206004820152600f60248201526e105b1c9958591e481cdd5c1c1bdc9d608a1b6044820152606401610503565b600060405180606001604052806106b33390565b6001600160a01b039081168252426020808401919091526000604093840181905286831680825260fc835290849020855181546001600160a01b031916941693841781558583018051600183015586860180516002909301805460ff191693151593909317909255855194855251928401929092529051151592820192909252919250907f7bf7a9f4f3afec6b1e29122e20f0cf352b7b922f5e27cfbd6d9e53b23e361ddc906060015b60405180910390a25050565b306001600160a01b037f00000000000000000000000000000000000000000000000000000000000000001614156107b25760405162461bcd60e51b815260040161050390611712565b7f00000000000000000000000000000000000000000000000000000000000000006001600160a01b03166107e4610bb7565b6001600160a01b03161461080a5760405162461bcd60e51b81526004016105039061175e565b61081382610be5565b61051682826001610c10565b7ff5eb84615c2a00ecaf817d13794ebd6299c9e01c395bf4018453f13f577f544961084a8133610a66565b61051682610d5b565b6001600160a01b03808216600090815260fc602090815260409182902082516060810184528154909416845260018101549184018290526002015460ff161515918301919091526108d65760405162461bcd60e51b815260206004820152600d60248201526c4e6f7420666f756e642052464360981b6044820152606401610503565b600160408281018281526001600160a01b03858116600090815260fc6020908152939020855181546001600160a01b0319169216919091178155918401519282019290925590516002909101805460ff191691151591909117905561093a82610d5b565b816001600160a01b03167f2c463d1afc34a83acf61a30edb12a91f5f74da98d2db86108e17e4fdb4a229918260405161075d919081516001600160a01b031681526020808301519082015260409182015115159181019190915260600190565b600054610100900460ff16806109b3575060005460ff16155b6109cf5760405162461bcd60e51b8152600401610503906117aa565b600054610100900460ff161580156109f1576000805461ffff19166101011790555b6109f9610ff2565b610a01611059565b80156105e0576000805461ff001916905550565b60009182526065602090815260408084206001600160a01b0393909316845291905290205460ff1690565b600082815260656020526040902060010154610a5c8133610a66565b6104928383610b50565b610a708282610a15565b61051657610a88816001600160a01b031660146110ec565b610a938360206110ec565b604051602001610aa4929190611828565b60408051601f198184030181529082905262461bcd60e51b82526105039160040161189d565b610ad48282610a15565b6105165760008281526065602090815260408083206001600160a01b03851684529091529020805460ff19166001179055610b0c3390565b6001600160a01b0316816001600160a01b0316837f2f8788117e7eff1d82e926ec794901d17c78024a50270940304540a733656f0d60405160405180910390a45050565b610b5a8282610a15565b156105165760008281526065602090815260408083206001600160a01b0385168085529252808320805460ff1916905551339285917ff6391f5c32d9c69d2a47ea670b442974b53935d1edc7fd64eb21e047a839171b9190a45050565b7f360894a13ba1a3210667c828492db98dca3e2076cc3735a920a3ca505d382bbc546001600160a01b031690565b7f189ab7a9244df0848122154315af71fe140f3db0fe014031783b0946b8c9d2e36105168133610a66565b6000610c1a610bb7565b9050610c258461128f565b600083511180610c325750815b15610c4357610c418484611334565b505b7f4910fdfa16fed3260ed0e7147f7cc6da11a60208b5b9406d12a635614ffd9143805460ff16610d5457805460ff191660011781556040516001600160a01b0383166024820152610cc290869060440160408051601f198184030181529190526020810180516001600160e01b0316631b2ce7f360e11b179052611334565b50805460ff19168155610cd3610bb7565b6001600160a01b0316826001600160a01b031614610d4b5760405162461bcd60e51b815260206004820152602f60248201527f45524331393637557067726164653a207570677261646520627265616b73206660448201526e75727468657220757067726164657360881b6064820152608401610503565b610d548561141f565b5050505050565b6001600160a01b038116600090815260fb602052604090206002015460ff1615610dbb5760405162461bcd60e51b8152602060048201526011602482015270105b1c9958591e481cdd5c1c1bdc9d1959607a1b6044820152606401610503565b6040805180820182526000808252602082015290516301ffc9a760e01b8152636cdb3d1360e11b60048201819052916380ac58cd60e01b916001600160a01b038516906301ffc9a79060240160206040518083038186803b158015610e1f57600080fd5b505afa158015610e33573d6000803e3d6000fd5b505050506040513d601f19601f82011682018060405250810190610e5791906118d0565b15610e6d576001600160a01b0384168152610f42565b6040516301ffc9a760e01b81526001600160e01b0319831660048201526001600160a01b038516906301ffc9a79060240160206040518083038186803b158015610eb657600080fd5b505afa158015610eca573d6000803e3d6000fd5b505050506040513d601f19601f82011682018060405250810190610eee91906118d0565b15610f07576001600160a01b0384166020820152610f42565b60405162461bcd60e51b815260206004820152601060248201526f4e6f7420737570706f7274207479706560801b6044820152606401610503565b604080518082018252828152600160208083018281526001600160a01b03898116600090815260fb84528690209451805186546001600160a01b031990811691841691909117875593015193850180549093169316929092179055516002909101805460ff1916911515919091179055517faf2ff40032acd71a6f0afb63241f5d534a66e2b815e6b2900b2d75fdd5ee982c90610fe4908390339042906118f2565b60405180910390a150505050565b600054610100900460ff168061100b575060005460ff16155b6110275760405162461bcd60e51b8152600401610503906117aa565b600054610100900460ff16158015611049576000805461ffff19166101011790555b61105161145f565b610a0161145f565b6110616114c9565b61106c600033610aca565b6110967ff5eb84615c2a00ecaf817d13794ebd6299c9e01c395bf4018453f13f577f544933610aca565b6110c07f9f2df0fed2c77648de5860a4cc508cd0818c85b8b8a1ab4ceeef8d981c8956a633610aca565b6110ea7f189ab7a9244df0848122154315af71fe140f3db0fe014031783b0946b8c9d2e333610aca565b565b606060006110fb836002611946565b611106906002611965565b67ffffffffffffffff81111561111e5761111e611607565b6040519080825280601f01601f191660200182016040528015611148576020820181803683370190505b509050600360fc1b816000815181106111635761116361197d565b60200101906001600160f81b031916908160001a905350600f60fb1b816001815181106111925761119261197d565b60200101906001600160f81b031916908160001a90535060006111b6846002611946565b6111c1906001611965565b90505b6001811115611239576f181899199a1a9b1b9c1cb0b131b232b360811b85600f16601081106111f5576111f561197d565b1a60f81b82828151811061120b5761120b61197d565b60200101906001600160f81b031916908160001a90535060049490941c9361123281611993565b90506111c4565b5083156112885760405162461bcd60e51b815260206004820181905260248201527f537472696e67733a20686578206c656e67746820696e73756666696369656e746044820152606401610503565b9392505050565b803b6112f35760405162461bcd60e51b815260206004820152602d60248201527f455243313936373a206e657720696d706c656d656e746174696f6e206973206e60448201526c1bdd08184818dbdb9d1c9858dd609a1b6064820152608401610503565b7f360894a13ba1a3210667c828492db98dca3e2076cc3735a920a3ca505d382bbc80546001600160a01b0319166001600160a01b0392909216919091179055565b6060823b6113935760405162461bcd60e51b815260206004820152602660248201527f416464726573733a2064656c65676174652063616c6c20746f206e6f6e2d636f6044820152651b9d1c9858dd60d21b6064820152608401610503565b600080846001600160a01b0316846040516113ae91906119aa565b600060405180830381855af49150503d80600081146113e9576040519150601f19603f3d011682016040523d82523d6000602084013e6113ee565b606091505b509150915061141682826040518060600160405280602781526020016119c760279139611528565b95945050505050565b6114288161128f565b6040516001600160a01b038216907fbc7cd75a20ee27fd9adebab32041f755214dbc6bffa90cc0225b39da2e5c2d3b90600090a250565b600054610100900460ff1680611478575060005460ff16155b6114945760405162461bcd60e51b8152600401610503906117aa565b600054610100900460ff16158015610a01576000805461ffff191661010117905580156105e0576000805461ff001916905550565b600054610100900460ff16806114e2575060005460ff16155b6114fe5760405162461bcd60e51b8152600401610503906117aa565b600054610100900460ff16158015611520576000805461ffff19166101011790555b61104961145f565b60608315611537575081611288565b8251156115475782518084602001fd5b8160405162461bcd60e51b8152600401610503919061189d565b60006020828403121561157357600080fd5b81356001600160e01b03198116811461128857600080fd5b60006020828403121561159d57600080fd5b5035919050565b80356001600160a01b03811681146115bb57600080fd5b919050565b600080604083850312156115d357600080fd5b823591506115e3602084016115a4565b90509250929050565b6000602082840312156115fe57600080fd5b611288826115a4565b634e487b7160e01b600052604160045260246000fd5b6000806040838503121561163057600080fd5b611639836115a4565b9150602083013567ffffffffffffffff8082111561165657600080fd5b818501915085601f83011261166a57600080fd5b81358181111561167c5761167c611607565b604051601f8201601f19908116603f011681019083821181831017156116a4576116a4611607565b816040528281528860208487010111156116bd57600080fd5b8260208601602083013760006020848301015280955050505050509250929050565b60608101611703828580516001600160a01b03908116835260209182015116910152565b82151560408301529392505050565b6020808252602c908201527f46756e6374696f6e206d7573742062652063616c6c6564207468726f7567682060408201526b19195b1959d85d1958d85b1b60a21b606082015260800190565b6020808252602c908201527f46756e6374696f6e206d7573742062652063616c6c6564207468726f7567682060408201526b6163746976652070726f787960a01b606082015260800190565b6020808252602e908201527f496e697469616c697a61626c653a20636f6e747261637420697320616c72656160408201526d191e481a5b9a5d1a585b1a5e995960921b606082015260800190565b60005b838110156118135781810151838201526020016117fb565b83811115611822576000848401525b50505050565b7f416363657373436f6e74726f6c3a206163636f756e74200000000000000000008152600083516118608160178501602088016117f8565b7001034b99036b4b9b9b4b733903937b6329607d1b60179184019182015283516118918160288401602088016117f8565b01602801949350505050565b60208152600082518060208401526118bc8160408501602087016117f8565b601f01601f19169190910160400192915050565b6000602082840312156118e257600080fd5b8151801515811461128857600080fd5b60808101611916828680516001600160a01b03908116835260209182015116910152565b6001600160a01b0393909316604082015260600152919050565b634e487b7160e01b600052601160045260246000fd5b600081600019048311821515161561196057611960611930565b500290565b6000821982111561197857611978611930565b500190565b634e487b7160e01b600052603260045260246000fd5b6000816119a2576119a2611930565b506000190190565b600082516119bc8184602087016117f8565b919091019291505056fe416464726573733a206c6f772d6c6576656c2064656c65676174652063616c6c206661696c6564a2646970667358221220e583c8492258087363450475f1332d49e0deee5b422118038d3db0d3f7b9548364736f6c63430008090033",
  "immutableReferences": {
    "1023": [
      {
        "length": 32,
        "start": 1317
      },
      {
        "length": 32,
        "start": 1381
      },
      {
        "length": 32,
        "start": 1908
      },
      {
        "length": 32,
        "start": 1972
      }
    ]
  },
  "source": "// SPDX-License-Identifier: MIT\npragma solidity 0.8.9;\n\nimport \"@openzeppelin/contracts-upgradeable/access/AccessControlUpgradeable.sol\";\nimport \"@openzeppelin/contracts-upgradeable/proxy/utils/UUPSUpgradeable.sol\";\nimport \"@openzeppelin/contracts-upgradeable/proxy/utils/Initializable.sol\";\nimport \"@openzeppelin/contracts/token/ERC721/IERC721.sol\";\nimport \"@openzeppelin/contracts/token/ERC1155/IERC1155.sol\";\nimport \"./MelandAccessRoles.sol\";\n\ncontract NFTFactory is\n    Initializable,\n    MelandAccessRoles,\n    UUPSUpgradeable\n{\n    struct ERC721Or1155 {\n        IERC1155 erc1155;\n        IERC721 erc721;\n    }\n\n    struct SupportNFT {\n        ERC721Or1155 erc721or1155;\n        bool support;\n    }\n\n    mapping(address => SupportNFT) public supportNFTs;\n\n    mapping(address => RFC) public supportRFCs;\n\n    event NFTSupportRemove(\n        ERC721Or1155 nft,\n        address operator,\n        uint256 operationTime\n    );\n\n    event NFTSupportCreate(\n        ERC721Or1155 nft,\n        address operator,\n        uint256 operationTime\n    );\n\n    event RFCCreated(address indexed nft, RFC rfc);\n    event RFCApproved(address indexed nft, RFC rfc);\n\n    struct RFC {\n        address proposer;\n        uint256 proposalTime;\n        bool approved;\n    }\n\n    function initialize() public initializer {\n        __UUPSUpgradeable_init();\n        __MelandAccessRoles_init();\n    }\n\n    function newRFC(address nft) public {\n        require(supportRFCs[nft].proposalTime == 0, \"Already exists RFC\");\n        require(!supportNFTs[nft].support, \"Already support\");\n\n        RFC memory rfc = RFC(_msgSender(), block.timestamp, false);\n\n        supportRFCs[nft] = rfc;\n\n        emit RFCCreated(nft, rfc);\n    }\n\n    function approveRFC(address nft) public {\n        RFC memory rfc = supportRFCs[nft];\n        require(rfc.proposalTime > 0, \"Not found RFC\");\n        rfc.approved = true;\n\n        supportRFCs[nft] = rfc;\n\n        _newSupport(nft);\n\n        emit RFCApproved(nft, rfc);\n    }\n\n    function _newSupport(address nft) private {\n        require(!supportNFTs[nft].support, \"Already supported\");\n\n        bytes4 erc1155Interface = type(IERC1155).interfaceId;\n        bytes4 erc721Interface = type(IERC721).interfaceId;\n\n        ERC721Or1155 memory erc721or1155;\n        if (IERC165(nft).supportsInterface(erc1155Interface)) {\n            erc721or1155.erc1155 = IERC1155(nft);\n        } else if (IERC165(nft).supportsInterface(erc721Interface)) {\n            erc721or1155.erc721 = IERC721(nft);\n        } else {\n            revert(\"Not support type\");\n        }\n        \n        supportNFTs[nft] = SupportNFT(\n            erc721or1155,\n            true\n        );\n\n        emit NFTSupportCreate(erc721or1155, msg.sender, block.timestamp);\n    }\n\n    function newSupport(address nft) public onlyRole(GM_ROLE) {\n        _newSupport(nft);\n    }\n\n    function _authorizeUpgrade(address newImplementation)\n        internal\n        override\n        onlyRole(UPGRADER_ROLE)\n    {}\n}\n",
  "sourcePath": "/Users/alberthuang/code/icw/meland/contracts/NFTFactory.sol",
  "compiler": {
    "name": "solc",
    "version": "0.8.9+commit.e5eed63a.Emscripten.clang"
  },
  "schemaVersion": "3.4.3",
  "updatedAt": "2021-12-25T00:35:31.940Z",
  "devdoc": {
    "kind": "dev",
    "methods": {
      "getRoleAdmin(bytes32)": {
        "details": "Returns the admin role that controls `role`. See {grantRole} and {revokeRole}. To change a role's admin, use {_setRoleAdmin}."
      },
      "grantRole(bytes32,address)": {
        "details": "Grants `role` to `account`. If `account` had not been already granted `role`, emits a {RoleGranted} event. Requirements: - the caller must have ``role``'s admin role."
      },
      "hasRole(bytes32,address)": {
        "details": "Returns `true` if `account` has been granted `role`."
      },
      "renounceRole(bytes32,address)": {
        "details": "Revokes `role` from the calling account. Roles are often managed via {grantRole} and {revokeRole}: this function's purpose is to provide a mechanism for accounts to lose their privileges if they are compromised (such as when a trusted device is misplaced). If the calling account had been revoked `role`, emits a {RoleRevoked} event. Requirements: - the caller must be `account`."
      },
      "revokeRole(bytes32,address)": {
        "details": "Revokes `role` from `account`. If `account` had been granted `role`, emits a {RoleRevoked} event. Requirements: - the caller must have ``role``'s admin role."
      },
      "supportsInterface(bytes4)": {
        "details": "See {IERC165-supportsInterface}."
      },
      "upgradeTo(address)": {
        "details": "Upgrade the implementation of the proxy to `newImplementation`. Calls {_authorizeUpgrade}. Emits an {Upgraded} event."
      },
      "upgradeToAndCall(address,bytes)": {
        "details": "Upgrade the implementation of the proxy to `newImplementation`, and subsequently execute the function call encoded in `data`. Calls {_authorizeUpgrade}. Emits an {Upgraded} event."
      }
    },
    "version": 1
  },
  "userdoc": {
    "kind": "user",
    "methods": {},
    "version": 1
  }
}