{
  "contractName": "NFTStore",
  "abi": [
    {
      "anonymous": false,
      "inputs": [
        {
          "indexed": false,
          "internalType": "address",
          "name": "previousAdmin",
          "type": "address"
        },
        {
          "indexed": false,
          "internalType": "address",
          "name": "newAdmin",
          "type": "address"
        }
      ],
      "name": "AdminChanged",
      "type": "event"
    },
    {
      "anonymous": false,
      "inputs": [
        {
          "indexed": true,
          "internalType": "address",
          "name": "beacon",
          "type": "address"
        }
      ],
      "name": "BeaconUpgraded",
      "type": "event"
    },
    {
      "anonymous": false,
      "inputs": [
        {
          "indexed": false,
          "internalType": "uint256",
          "name": "ownerCutPerMillion",
          "type": "uint256"
        }
      ],
      "name": "ChangedOwnerCutPerMillion",
      "type": "event"
    },
    {
      "anonymous": false,
      "inputs": [
        {
          "indexed": true,
          "internalType": "uint256",
          "name": "id",
          "type": "uint256"
        },
        {
          "indexed": true,
          "internalType": "address",
          "name": "buyer",
          "type": "address"
        },
        {
          "indexed": false,
          "internalType": "contract IERC721MelandNFT",
          "name": "nftAddress",
          "type": "address"
        },
        {
          "indexed": false,
          "internalType": "uint256",
          "name": "tokenId",
          "type": "uint256"
        },
        {
          "indexed": false,
          "internalType": "uint256",
          "name": "priceInWei",
          "type": "uint256"
        }
      ],
      "name": "NFTBuyed",
      "type": "event"
    },
    {
      "anonymous": false,
      "inputs": [
        {
          "indexed": true,
          "internalType": "uint256",
          "name": "id",
          "type": "uint256"
        },
        {
          "indexed": true,
          "internalType": "address",
          "name": "seller",
          "type": "address"
        },
        {
          "indexed": false,
          "internalType": "contract IERC721MelandNFT",
          "name": "nftAddress",
          "type": "address"
        },
        {
          "indexed": false,
          "internalType": "uint256",
          "name": "priceInWei",
          "type": "uint256"
        }
      ],
      "name": "NFTCreated",
      "type": "event"
    },
    {
      "anonymous": false,
      "inputs": [
        {
          "indexed": true,
          "internalType": "uint256",
          "name": "id",
          "type": "uint256"
        },
        {
          "indexed": true,
          "internalType": "address",
          "name": "seller",
          "type": "address"
        },
        {
          "indexed": false,
          "internalType": "contract IERC721MelandNFT",
          "name": "nftAddress",
          "type": "address"
        }
      ],
      "name": "NFTDelete",
      "type": "event"
    },
    {
      "anonymous": false,
      "inputs": [
        {
          "indexed": true,
          "internalType": "uint256",
          "name": "id",
          "type": "uint256"
        },
        {
          "indexed": true,
          "internalType": "contract IERC721MelandNFT",
          "name": "nft",
          "type": "address"
        },
        {
          "indexed": false,
          "internalType": "uint256",
          "name": "length",
          "type": "uint256"
        }
      ],
      "name": "NFTIdPoolUpdate",
      "type": "event"
    },
    {
      "anonymous": false,
      "inputs": [
        {
          "indexed": true,
          "internalType": "uint256",
          "name": "id",
          "type": "uint256"
        },
        {
          "indexed": false,
          "internalType": "contract IERC721MelandNFT",
          "name": "nftAddress",
          "type": "address"
        }
      ],
      "name": "NFTItemUpdate",
      "type": "event"
    },
    {
      "anonymous": false,
      "inputs": [
        {
          "indexed": false,
          "internalType": "address",
          "name": "account",
          "type": "address"
        }
      ],
      "name": "Paused",
      "type": "event"
    },
    {
      "anonymous": false,
      "inputs": [
        {
          "indexed": true,
          "internalType": "bytes32",
          "name": "role",
          "type": "bytes32"
        },
        {
          "indexed": true,
          "internalType": "bytes32",
          "name": "previousAdminRole",
          "type": "bytes32"
        },
        {
          "indexed": true,
          "internalType": "bytes32",
          "name": "newAdminRole",
          "type": "bytes32"
        }
      ],
      "name": "RoleAdminChanged",
      "type": "event"
    },
    {
      "anonymous": false,
      "inputs": [
        {
          "indexed": true,
          "internalType": "bytes32",
          "name": "role",
          "type": "bytes32"
        },
        {
          "indexed": true,
          "internalType": "address",
          "name": "account",
          "type": "address"
        },
        {
          "indexed": true,
          "internalType": "address",
          "name": "sender",
          "type": "address"
        }
      ],
      "name": "RoleGranted",
      "type": "event"
    },
    {
      "anonymous": false,
      "inputs": [
        {
          "indexed": true,
          "internalType": "bytes32",
          "name": "role",
          "type": "bytes32"
        },
        {
          "indexed": true,
          "internalType": "address",
          "name": "account",
          "type": "address"
        },
        {
          "indexed": true,
          "internalType": "address",
          "name": "sender",
          "type": "address"
        }
      ],
      "name": "RoleRevoked",
      "type": "event"
    },
    {
      "anonymous": false,
      "inputs": [
        {
          "indexed": false,
          "internalType": "address",
          "name": "account",
          "type": "address"
        }
      ],
      "name": "Unpaused",
      "type": "event"
    },
    {
      "anonymous": false,
      "inputs": [
        {
          "indexed": true,
          "internalType": "address",
          "name": "implementation",
          "type": "address"
        }
      ],
      "name": "Upgraded",
      "type": "event"
    },
    {
      "inputs": [],
      "name": "DEFAULT_ADMIN_ROLE",
      "outputs": [
        {
          "internalType": "bytes32",
          "name": "",
          "type": "bytes32"
        }
      ],
      "stateMutability": "view",
      "type": "function"
    },
    {
      "inputs": [],
      "name": "GM_ROLE",
      "outputs": [
        {
          "internalType": "bytes32",
          "name": "",
          "type": "bytes32"
        }
      ],
      "stateMutability": "view",
      "type": "function"
    },
    {
      "inputs": [],
      "name": "MINTER_ROLE",
      "outputs": [
        {
          "internalType": "bytes32",
          "name": "",
          "type": "bytes32"
        }
      ],
      "stateMutability": "view",
      "type": "function"
    },
    {
      "inputs": [],
      "name": "UPGRADER_ROLE",
      "outputs": [
        {
          "internalType": "bytes32",
          "name": "",
          "type": "bytes32"
        }
      ],
      "stateMutability": "view",
      "type": "function"
    },
    {
      "inputs": [],
      "name": "acceptedToken",
      "outputs": [
        {
          "internalType": "contract IERC20MELD",
          "name": "",
          "type": "address"
        }
      ],
      "stateMutability": "view",
      "type": "function"
    },
    {
      "inputs": [],
      "name": "foundationWallet",
      "outputs": [
        {
          "internalType": "address",
          "name": "",
          "type": "address"
        }
      ],
      "stateMutability": "view",
      "type": "function"
    },
    {
      "inputs": [
        {
          "internalType": "bytes32",
          "name": "role",
          "type": "bytes32"
        }
      ],
      "name": "getRoleAdmin",
      "outputs": [
        {
          "internalType": "bytes32",
          "name": "",
          "type": "bytes32"
        }
      ],
      "stateMutability": "view",
      "type": "function"
    },
    {
      "inputs": [
        {
          "internalType": "bytes32",
          "name": "role",
          "type": "bytes32"
        },
        {
          "internalType": "address",
          "name": "account",
          "type": "address"
        }
      ],
      "name": "grantRole",
      "outputs": [],
      "stateMutability": "nonpayable",
      "type": "function"
    },
    {
      "inputs": [
        {
          "internalType": "bytes32",
          "name": "role",
          "type": "bytes32"
        },
        {
          "internalType": "address",
          "name": "account",
          "type": "address"
        }
      ],
      "name": "hasRole",
      "outputs": [
        {
          "internalType": "bool",
          "name": "",
          "type": "bool"
        }
      ],
      "stateMutability": "view",
      "type": "function"
    },
    {
      "inputs": [
        {
          "internalType": "contract IERC721MelandNFT",
          "name": "",
          "type": "address"
        }
      ],
      "name": "itemByNFT",
      "outputs": [
        {
          "internalType": "uint256",
          "name": "id",
          "type": "uint256"
        },
        {
          "internalType": "address",
          "name": "seller",
          "type": "address"
        },
        {
          "internalType": "bool",
          "name": "tokenIdPool",
          "type": "bool"
        },
        {
          "internalType": "uint256",
          "name": "priceInWei",
          "type": "uint256"
        },
        {
          "internalType": "uint256",
          "name": "sellsCount",
          "type": "uint256"
        },
        {
          "internalType": "uint32",
          "name": "limit",
          "type": "uint32"
        }
      ],
      "stateMutability": "view",
      "type": "function"
    },
    {
      "inputs": [
        {
          "internalType": "contract IERC721MelandNFT",
          "name": "",
          "type": "address"
        },
        {
          "internalType": "address",
          "name": "",
          "type": "address"
        }
      ],
      "name": "limitPool",
      "outputs": [
        {
          "internalType": "uint256",
          "name": "",
          "type": "uint256"
        }
      ],
      "stateMutability": "view",
      "type": "function"
    },
    {
      "inputs": [
        {
          "internalType": "string",
          "name": "",
          "type": "string"
        }
      ],
      "name": "nftByCid",
      "outputs": [
        {
          "internalType": "address",
          "name": "",
          "type": "address"
        }
      ],
      "stateMutability": "view",
      "type": "function"
    },
    {
      "inputs": [],
      "name": "officialWallet",
      "outputs": [
        {
          "internalType": "address",
          "name": "",
          "type": "address"
        }
      ],
      "stateMutability": "view",
      "type": "function"
    },
    {
      "inputs": [],
      "name": "ownerCutPerMillion",
      "outputs": [
        {
          "internalType": "uint256",
          "name": "",
          "type": "uint256"
        }
      ],
      "stateMutability": "view",
      "type": "function"
    },
    {
      "inputs": [],
      "name": "paused",
      "outputs": [
        {
          "internalType": "bool",
          "name": "",
          "type": "bool"
        }
      ],
      "stateMutability": "view",
      "type": "function"
    },
    {
      "inputs": [
        {
          "internalType": "bytes32",
          "name": "role",
          "type": "bytes32"
        },
        {
          "internalType": "address",
          "name": "account",
          "type": "address"
        }
      ],
      "name": "renounceRole",
      "outputs": [],
      "stateMutability": "nonpayable",
      "type": "function"
    },
    {
      "inputs": [
        {
          "internalType": "bytes32",
          "name": "role",
          "type": "bytes32"
        },
        {
          "internalType": "address",
          "name": "account",
          "type": "address"
        }
      ],
      "name": "revokeRole",
      "outputs": [],
      "stateMutability": "nonpayable",
      "type": "function"
    },
    {
      "inputs": [
        {
          "internalType": "bytes4",
          "name": "interfaceId",
          "type": "bytes4"
        }
      ],
      "name": "supportsInterface",
      "outputs": [
        {
          "internalType": "bool",
          "name": "",
          "type": "bool"
        }
      ],
      "stateMutability": "view",
      "type": "function"
    },
    {
      "inputs": [
        {
          "internalType": "contract IERC721MelandNFT",
          "name": "",
          "type": "address"
        },
        {
          "internalType": "uint256",
          "name": "",
          "type": "uint256"
        }
      ],
      "name": "tokenIdsByNFT",
      "outputs": [
        {
          "internalType": "uint256",
          "name": "",
          "type": "uint256"
        }
      ],
      "stateMutability": "view",
      "type": "function"
    },
    {
      "inputs": [
        {
          "internalType": "address",
          "name": "newImplementation",
          "type": "address"
        }
      ],
      "name": "upgradeTo",
      "outputs": [],
      "stateMutability": "nonpayable",
      "type": "function"
    },
    {
      "inputs": [
        {
          "internalType": "address",
          "name": "newImplementation",
          "type": "address"
        },
        {
          "internalType": "bytes",
          "name": "data",
          "type": "bytes"
        }
      ],
      "name": "upgradeToAndCall",
      "outputs": [],
      "stateMutability": "payable",
      "type": "function"
    },
    {
      "inputs": [
        {
          "internalType": "contract IERC20MELD",
          "name": "_acceptedToken",
          "type": "address"
        },
        {
          "internalType": "address",
          "name": "_officialWallet",
          "type": "address"
        },
        {
          "internalType": "address",
          "name": "_foundationWallet",
          "type": "address"
        },
        {
          "internalType": "uint256",
          "name": "_ownerCutPerMillion",
          "type": "uint256"
        }
      ],
      "name": "initialize",
      "outputs": [],
      "stateMutability": "nonpayable",
      "type": "function"
    },
    {
      "inputs": [
        {
          "internalType": "contract IERC721MelandNFT",
          "name": "nft",
          "type": "address"
        },
        {
          "internalType": "uint256",
          "name": "priceInWei",
          "type": "uint256"
        },
        {
          "internalType": "uint32",
          "name": "limit",
          "type": "uint32"
        },
        {
          "internalType": "bool",
          "name": "tokenIdPool",
          "type": "bool"
        }
      ],
      "name": "createNFT",
      "outputs": [],
      "stateMutability": "nonpayable",
      "type": "function"
    },
    {
      "inputs": [
        {
          "internalType": "contract IERC721MelandNFT",
          "name": "nft",
          "type": "address"
        },
        {
          "internalType": "uint32",
          "name": "limit",
          "type": "uint32"
        }
      ],
      "name": "updateItemLimit",
      "outputs": [],
      "stateMutability": "nonpayable",
      "type": "function"
    },
    {
      "inputs": [
        {
          "internalType": "contract IERC721MelandNFT",
          "name": "nft",
          "type": "address"
        },
        {
          "internalType": "uint256",
          "name": "priceInWei",
          "type": "uint256"
        }
      ],
      "name": "updateItemPriceInWei",
      "outputs": [],
      "stateMutability": "nonpayable",
      "type": "function"
    },
    {
      "inputs": [
        {
          "internalType": "contract IERC721MelandNFT",
          "name": "nft",
          "type": "address"
        },
        {
          "internalType": "uint256[]",
          "name": "tokenIds",
          "type": "uint256[]"
        }
      ],
      "name": "addTokenIdPool",
      "outputs": [
        {
          "internalType": "uint8",
          "name": "addCount",
          "type": "uint8"
        }
      ],
      "stateMutability": "nonpayable",
      "type": "function"
    },
    {
      "inputs": [
        {
          "internalType": "contract IERC721MelandNFT",
          "name": "nft",
          "type": "address"
        },
        {
          "internalType": "uint256[]",
          "name": "tokenIds",
          "type": "uint256[]"
        }
      ],
      "name": "updateTokenIdPool",
      "outputs": [],
      "stateMutability": "nonpayable",
      "type": "function"
    },
    {
      "inputs": [
        {
          "internalType": "contract IERC721MelandNFT",
          "name": "nft",
          "type": "address"
        }
      ],
      "name": "deleteNFT",
      "outputs": [],
      "stateMutability": "nonpayable",
      "type": "function"
    },
    {
      "inputs": [
        {
          "internalType": "uint256",
          "name": "_ownerCutPerMillion",
          "type": "uint256"
        }
      ],
      "name": "setOwnerCutPerMillion",
      "outputs": [],
      "stateMutability": "nonpayable",
      "type": "function"
    },
    {
      "inputs": [
        {
          "internalType": "contract IERC721MelandNFT",
          "name": "nft",
          "type": "address"
        },
        {
          "internalType": "uint256",
          "name": "priceInWei",
          "type": "uint256"
        }
      ],
      "name": "buyNFT",
      "outputs": [],
      "stateMutability": "nonpayable",
      "type": "function"
    }
  ],
  "bytecode": "0x60a06040523060805234801561001457600080fd5b5060805161382a61004560003960008181610862015281816108a20152818161092b015261096b015261382a6000f3fe6080604052600436106101cd5760003560e01c806380b7613c116100f7578063ac54242d11610095578063d539139311610064578063d53913931461060c578063d547741f14610640578063d70f7c6114610660578063f72c0d8b1461068057600080fd5b8063ac54242d1461056a578063b83fe3011461058a578063b8d2a71b146105cc578063cf756fdf146105ec57600080fd5b806391d14854116100d157806391d14854146104fe578063a01f79d41461051e578063a217fddf14610535578063a82ba76f1461054a57600080fd5b806380b7613c1461047357806384799eac146104ac57806388c2b7a0146104cc57600080fd5b80633659cfe61161016f5780635c975abb1161013e5780635c975abb1461037657806366b616401461038e5780636b7ae8dc146104325780637cf012a91461045357600080fd5b80633659cfe614610302578063451c3d80146103225780634f1ef2861461034357806356f1eb481461035657600080fd5b8063248a9ca3116101ab578063248a9ca3146102625780632f2ff15d146102a057806330c7be2c146102c057806336568abe146102e257600080fd5b806301ffc9a7146101d2578063088025d31461020757806319dad16d14610240575b600080fd5b3480156101de57600080fd5b506101f26101ed366004612eaf565b6106b4565b60405190151581526020015b60405180910390f35b34801561021357600080fd5b5061012f54610228906001600160a01b031681565b6040516001600160a01b0390911681526020016101fe565b34801561024c57600080fd5b5061026061025b366004612ed9565b6106eb565b005b34801561026e57600080fd5b5061029261027d366004612ed9565b60009081526065602052604090206001015490565b6040519081526020016101fe565b3480156102ac57600080fd5b506102606102bb366004612f07565b6107ae565b3480156102cc57600080fd5b506102926000805160206137d583398151915281565b3480156102ee57600080fd5b506102606102fd366004612f07565b6107d9565b34801561030e57600080fd5b5061026061031d366004612f37565b610857565b34801561032e57600080fd5b5061012d54610228906001600160a01b031681565b610260610351366004613001565b610920565b34801561036257600080fd5b50610260610371366004613065565b6109d6565b34801561038257600080fd5b5060975460ff166101f2565b34801561039a57600080fd5b506103f16103a9366004612f37565b610130602052600090815260409020805460018201546002830154600384015460049094015492936001600160a01b03831693600160a01b90930460ff169263ffffffff1686565b604080519687526001600160a01b039095166020870152921515938501939093526060840152608083019190915263ffffffff1660a082015260c0016101fe565b34801561043e57600080fd5b5061012e54610228906001600160a01b031681565b34801561045f57600080fd5b5061026061046e366004613139565b610bbb565b34801561047f57600080fd5b5061029261048e36600461316e565b61013360209081526000928352604080842090915290825290205481565b3480156104b857600080fd5b506102606104c7366004612f37565b610d26565b3480156104d857600080fd5b506104ec6104e7366004613065565b610f6d565b60405160ff90911681526020016101fe565b34801561050a57600080fd5b506101f2610519366004612f07565b6111a0565b34801561052a57600080fd5b506102926101345481565b34801561054157600080fd5b50610292600081565b34801561055657600080fd5b5061026061056536600461319c565b6111cb565b34801561057657600080fd5b5061029261058536600461319c565b611aae565b34801561059657600080fd5b506102286105a53660046131c8565b8051602081830181018051610132825292820191909301209152546001600160a01b031681565b3480156105d857600080fd5b506102606105e7366004613227565b611ae0565b3480156105f857600080fd5b50610260610607366004613278565b611f8a565b34801561061857600080fd5b506102927f9f2df0fed2c77648de5860a4cc508cd0818c85b8b8a1ab4ceeef8d981c8956a681565b34801561064c57600080fd5b5061026061065b366004612f07565b61209d565b34801561066c57600080fd5b5061026061067b36600461319c565b6120c3565b34801561068c57600080fd5b506102927f189ab7a9244df0848122154315af71fe140f3db0fe014031783b0946b8c9d2e381565b60006001600160e01b03198216637965db0b60e01b14806106e557506301ffc9a760e01b6001600160e01b03198316145b92915050565b6000805160206137d58339815191526107048133612216565b620f424082106107715760405162461bcd60e51b815260206004820152602d60248201527f546865206f776e6572206375742073686f756c64206265206265747765656e2060448201526c3020616e64203939392c39393960981b60648201526084015b60405180910390fd5b6101348290556040518281527ffa406a120a9e7f2b332bfb7a43d3bf1c3f079262202907a6b69c94b2821a02c69060200160405180910390a15050565b6000828152606560205260409020600101546107ca8133612216565b6107d4838361227a565b505050565b6001600160a01b03811633146108495760405162461bcd60e51b815260206004820152602f60248201527f416363657373436f6e74726f6c3a2063616e206f6e6c792072656e6f756e636560448201526e103937b632b9903337b91039b2b63360891b6064820152608401610768565b6108538282612300565b5050565b306001600160a01b037f00000000000000000000000000000000000000000000000000000000000000001614156108a05760405162461bcd60e51b8152600401610768906132c9565b7f00000000000000000000000000000000000000000000000000000000000000006001600160a01b03166108d2612367565b6001600160a01b0316146108f85760405162461bcd60e51b815260040161076890613315565b61090181612395565b6040805160008082526020820190925261091d918391906123c0565b50565b306001600160a01b037f00000000000000000000000000000000000000000000000000000000000000001614156109695760405162461bcd60e51b8152600401610768906132c9565b7f00000000000000000000000000000000000000000000000000000000000000006001600160a01b031661099b612367565b6001600160a01b0316146109c15760405162461bcd60e51b815260040161076890613315565b6109ca82612395565b610853828260016123c0565b6001600160a01b0382166391d148546000336040516001600160e01b031960e085901b16815260048101929092526001600160a01b0316602482015260440160206040518083038186803b158015610a2d57600080fd5b505afa158015610a41573d6000803e3d6000fd5b505050506040513d601f19601f82011682018060405250810190610a659190613361565b80610a835750610a836000805160206137d5833981519152336111a0565b610a9f5760405162461bcd60e51b81526004016107689061337e565b6001600160a01b03821660009081526101306020526040902054610ad55760405162461bcd60e51b8152600401610768906133a9565b60005b8151811015610b39576000828281518110610af557610af56133d0565b60200260200101519050610b098482612504565b15610b265760405162461bcd60e51b8152600401610768906133e6565b5080610b3181613452565b915050610ad8565b506001600160a01b0382166000908152610131602090815260409091208251610b6492840190612e0f565b506001600160a01b038216600081815261013060209081526040918290205484519251928352917f6960ba571af043e0b18f153264f6243a10edf4f343ba923ba594b19367172e6e91015b60405180910390a35050565b6001600160a01b0382166391d148546000336040516001600160e01b031960e085901b16815260048101929092526001600160a01b0316602482015260440160206040518083038186803b158015610c1257600080fd5b505afa158015610c26573d6000803e3d6000fd5b505050506040513d601f19601f82011682018060405250810190610c4a9190613361565b80610c685750610c686000805160206137d5833981519152336111a0565b610c845760405162461bcd60e51b81526004016107689061337e565b6001600160a01b03821660009081526101306020526040902054610cba5760405162461bcd60e51b8152600401610768906133a9565b6001600160a01b0382166000818152610130602090815260409182902060048101805463ffffffff191663ffffffff871617905554915192835290917f2bfa1af525e49335093bef34253d36edbf1d8355ade7ca9658bac2856cabf5f891015b60405180910390a25050565b6001600160a01b0381166391d148546000336040516001600160e01b031960e085901b16815260048101929092526001600160a01b0316602482015260440160206040518083038186803b158015610d7d57600080fd5b505afa158015610d91573d6000803e3d6000fd5b505050506040513d601f19601f82011682018060405250810190610db59190613361565b610dd15760405162461bcd60e51b81526004016107689061337e565b6001600160a01b03811660009081526101306020526040902054610e075760405162461bcd60e51b8152600401610768906133a9565b6001600160a01b0381811660008181526101306020908152604091829020825160c08101845281548152600182015495861692810192909252600160a01b90940460ff16151581830152600284015460608201526003840154608082015260049384015463ffffffff1660a08201529051631b2b455f60e11b81527f9f2df0fed2c77648de5860a4cc508cd0818c85b8b8a1ab4ceeef8d981c8956a693810193909352306024840152916336568abe90604401600060405180830381600087803b158015610ed457600080fd5b505af1158015610ee8573d6000803e3d6000fd5b505050506001600160a01b0382166000818152610130602090815260408083208381556001810180546001600160a81b03191690556002810184905560038101939093556004909201805463ffffffff191690558351915192835233927f3a93b00f5185c98483b85cd1d6acac889a94be997ec45dec3e17088fa20e316e9101610baf565b60006001600160a01b0383166391d1485482336040516001600160e01b031960e085901b16815260048101929092526001600160a01b0316602482015260440160206040518083038186803b158015610fc557600080fd5b505afa158015610fd9573d6000803e3d6000fd5b505050506040513d601f19601f82011682018060405250810190610ffd9190613361565b8061101b575061101b6000805160206137d5833981519152336111a0565b6110375760405162461bcd60e51b81526004016107689061337e565b6001600160a01b0383166000908152610130602052604090205461106d5760405162461bcd60e51b8152600401610768906133a9565b60005b825181101561114257600083828151811061108d5761108d6133d0565b602002602001015190506110a185826125cc565b156110ac5750611130565b6110b68582612504565b156110d35760405162461bcd60e51b8152600401610768906133e6565b6110de60018461346d565b6001600160a01b03861660009081526101316020526040902085519194509085908490811061110f5761110f6133d0565b60209081029190910181015182546001810184556000938452919092200155505b8061113a81613452565b915050611070565b506001600160a01b038316600081815261013060209081526040808320546101318352928190205490519081527f6960ba571af043e0b18f153264f6243a10edf4f343ba923ba594b19367172e6e910160405180910390a392915050565b60009182526065602090815260408084206001600160a01b0393909316845291905290205460ff1690565b816001600160a01b0316631e51e4a16040518163ffffffff1660e01b815260040160206040518083038186803b15801561120457600080fd5b505afa158015611218573d6000803e3d6000fd5b505050506040513d601f19601f8201168201806040525081019061123c9190613492565b826001600160a01b03166318160ddd6040518163ffffffff1660e01b815260040160206040518083038186803b15801561127557600080fd5b505afa158015611289573d6000803e3d6000fd5b505050506040513d601f19601f820116820180604052508101906112ad9190613492565b106113085760405162461bcd60e51b815260206004820152602560248201527f457863656564696e6720746865206d6178696d756d20737570706c79207175616044820152646e7469747960d81b6064820152608401610768565b6001600160a01b0382811660009081526101306020908152604091829020825160c0810184528154808252600183015495861693820193909352600160a01b90940460ff16151592840192909252600282015460608401526003820154608084015260049091015463ffffffff1660a08301526113975760405162461bcd60e51b8152600401610768906133a9565b818160600151146113ea5760405162461bcd60e51b815260206004820152601860248201527f546865207072696365206973206e6f7420636f727265637400000000000000006044820152606401610768565b60a081015163ffffffff16156114c55760a08101516001600160a01b03841660009081526101336020908152604080832033845290915290205463ffffffff9091161161146f5760405162461bcd60e51b81526020600482015260136024820152722a3934b3b3b2b9103932b9ba3934b1ba34b7b760691b6044820152606401610768565b6001600160a01b03831660009081526101336020908152604080832033845290915290205461149f906001612686565b6001600160a01b0384166000908152610133602090815260408083203384529091529020555b6020810151604082015133919060009081908190156114f5576114e788612699565b909350915060019050611574565b876001600160a01b03166318160ddd6040518163ffffffff1660e01b815260040160206040518083038186803b15801561152e57600080fd5b505afa158015611542573d6000803e3d6000fd5b505050506040513d601f19601f820116820180604052508101906115669190613492565b6115719060016134ab565b92505b6080860151611584906001612686565b608087019081526001600160a01b03808a166000908152610130602090815260408083208b518155918b0151600183018054928d01511515600160a01b026001600160a81b0319909316919095161717909255606089015160028301559151600382015560a08801516004909101805463ffffffff90921663ffffffff1990921691909117905561013454156118d557611637620f4240611631610134548b6127ae90919063ffffffff16565b906127ba565b9050600061164b60646116318460286127ae565b9050600061165f60646116318560286127ae565b9050600061167360646116318660146127ae565b61012d5460405163079cc67960e41b81526001600160a01b038c81166004830152602482018790529293509116906379cc679090604401600060405180830381600087803b1580156116c457600080fd5b505af11580156116d8573d6000803e3d6000fd5b505061012d5461012e546040516323b872dd60e01b81526001600160a01b038e81166004830152918216602482015260448101879052911692506323b872dd9150606401602060405180830381600087803b15801561173657600080fd5b505af115801561174a573d6000803e3d6000fd5b505050506040513d601f19601f8201168201806040525081019061176e9190613361565b6117d45760405162461bcd60e51b815260206004820152603160248201527f48616e646c696e6720666565207472616e7366657220746f20666f756e646174604482015270696f6e57616c6c6574206661696c75726560781b6064820152608401610768565b61012d5461012f546040516323b872dd60e01b81526001600160a01b038c811660048301529182166024820152604481018490529116906323b872dd90606401602060405180830381600087803b15801561182e57600080fd5b505af1158015611842573d6000803e3d6000fd5b505050506040513d601f19601f820116820180604052508101906118669190613361565b6118d15760405162461bcd60e51b815260206004820152603660248201527f48616e646c696e6720666565207472616e7366657220746f206f6666696369616044820152756c57616c6c657420746f206f6666206661696c75726560501b6064820152608401610768565b5050505b61012d546001600160a01b03166323b872dd87876118f38c866127c6565b6040516001600160e01b031960e086901b1681526001600160a01b0393841660048201529290911660248301526044820152606401602060405180830381600087803b15801561194257600080fd5b505af1158015611956573d6000803e3d6000fd5b505050506040513d601f19601f8201168201806040525081019061197a9190613361565b6119df5760405162461bcd60e51b815260206004820152603060248201527f5472616e73666572696e67207468652073616c6520616d6f756e7420746f207460448201526f1a19481cd95b1b195c8819985a5b195960821b6064820152608401610768565b604051632851206560e21b81526001600160a01b038781166004830152602482018690528a169063a144819490604401600060405180830381600087803b158015611a2957600080fd5b505af1158015611a3d573d6000803e3d6000fd5b505050508115611a5157611a5189846127d2565b8651604080516001600160a01b038c81168252602082018890529181018b905290881691907ff6916feed5531d6a98e9755773c317a35efdd87d101fb2cdd063d0bea40410af9060600160405180910390a3505050505050505050565b6101316020528160005260406000208181548110611acb57600080fd5b90600052602060002001600091509150505481565b6001600160a01b0384166391d148546000336040516001600160e01b031960e085901b16815260048101929092526001600160a01b0316602482015260440160206040518083038186803b158015611b3757600080fd5b505afa158015611b4b573d6000803e3d6000fd5b505050506040513d601f19601f82011682018060405250810190611b6f9190613361565b611b8b5760405162461bcd60e51b81526004016107689061337e565b604051632474521560e21b81527f9f2df0fed2c77648de5860a4cc508cd0818c85b8b8a1ab4ceeef8d981c8956a660048201523060248201526001600160a01b038516906391d148549060440160206040518083038186803b158015611bf057600080fd5b505afa158015611c04573d6000803e3d6000fd5b505050506040513d601f19601f82011682018060405250810190611c289190613361565b611c865760405162461bcd60e51b815260206004820152602960248201527f4d75737420617574686f72697a6520636f6e7472616374206d696e7465722070604482015268726976696c6567657360b81b6064820152608401610768565b6001600160a01b0384166000908152610130602052604090205415611cde5760405162461bcd60e51b815260206004820152600e60248201526d416c72656164792065786973747360901b6044820152606401610768565b60408051600481526024810182526020810180516001600160e01b0316636500638160e11b179052905160009182916001600160a01b03881691611d21916134f3565b600060405180830381855afa9150503d8060008114611d5c576040519150601f19603f3d011682016040523d82523d6000602084013e611d61565b606091505b50915091508115611e3c57600081806020019051810190611d82919061350f565b905060006001600160a01b031661013282604051611da091906134f3565b90815260405160209181900382018120546001600160a01b03169290921491611dcb9184910161357d565b60405160208183030381529060405290611df85760405162461bcd60e51b815260040161076891906135b7565b508661013282604051611e0b91906134f3565b90815260405190819003602001902080546001600160a01b03929092166001600160a01b0319909216919091179055505b6000611e486101355490565b611e539060016134ab565b9050611e6461013580546001019055565b6040518060c00160405280828152602001611e7c3390565b6001600160a01b03908116825286151560208084019190915260408084018b90526000606080860182905263ffffffff808d166080978801528e861683526101308552918390208751815593870151600185018054948901511515600160a01b026001600160a81b0319909516919096161792909217909355840151600282015591830151600383015560a090920151600490910180549190921663ffffffff19909116179055611f2a3390565b6001600160a01b0316817f8c7e1ddd8a4fd824bd103f68294c41981a2a43c9aa90547f389b9fe2064d37098989604051611f799291906001600160a01b03929092168252602082015260400190565b60405180910390a350505050505050565b600054610100900460ff1680611fa3575060005460ff16155b611fbf5760405162461bcd60e51b8152600401610768906135ea565b600054610100900460ff16158015611fe1576000805461ffff19166101011790555b611fe96128e7565b611ff1612962565b611ffc6000336129c1565b6120267f189ab7a9244df0848122154315af71fe140f3db0fe014031783b0946b8c9d2e3336129c1565b61203e6000805160206137d5833981519152336129c1565b61012d80546001600160a01b038088166001600160a01b03199283161790925561012f805487841690831617905561012e8054928616929091169190911790556101348290558015612096576000805461ff00191690555b5050505050565b6000828152606560205260409020600101546120b98133612216565b6107d48383612300565b6001600160a01b0382166391d148546000336040516001600160e01b031960e085901b16815260048101929092526001600160a01b0316602482015260440160206040518083038186803b15801561211a57600080fd5b505afa15801561212e573d6000803e3d6000fd5b505050506040513d601f19601f820116820180604052508101906121529190613361565b8061217057506121706000805160206137d5833981519152336111a0565b61218c5760405162461bcd60e51b81526004016107689061337e565b6001600160a01b038216600090815261013060205260409020546121c25760405162461bcd60e51b8152600401610768906133a9565b6001600160a01b038216600081815261013060209081526040918290206002810185905554915192835290917f2bfa1af525e49335093bef34253d36edbf1d8355ade7ca9658bac2856cabf5f89101610d1a565b61222082826111a0565b61085357612238816001600160a01b031660146129cb565b6122438360206129cb565b604051602001612254929190613638565b60408051601f198184030181529082905262461bcd60e51b8252610768916004016135b7565b61228482826111a0565b6108535760008281526065602090815260408083206001600160a01b03851684529091529020805460ff191660011790556122bc3390565b6001600160a01b0316816001600160a01b0316837f2f8788117e7eff1d82e926ec794901d17c78024a50270940304540a733656f0d60405160405180910390a45050565b61230a82826111a0565b156108535760008281526065602090815260408083206001600160a01b0385168085529252808320805460ff1916905551339285917ff6391f5c32d9c69d2a47ea670b442974b53935d1edc7fd64eb21e047a839171b9190a45050565b7f360894a13ba1a3210667c828492db98dca3e2076cc3735a920a3ca505d382bbc546001600160a01b031690565b7f189ab7a9244df0848122154315af71fe140f3db0fe014031783b0946b8c9d2e36108538133612216565b60006123ca612367565b90506123d584612b67565b6000835111806123e25750815b156123f3576123f18484612c0c565b505b7f4910fdfa16fed3260ed0e7147f7cc6da11a60208b5b9406d12a635614ffd9143805460ff1661209657805460ff191660011781556040516001600160a01b038316602482015261247290869060440160408051601f198184030181529190526020810180516001600160e01b0316631b2ce7f360e11b179052612c0c565b50805460ff19168155612483612367565b6001600160a01b0316826001600160a01b0316146124fb5760405162461bcd60e51b815260206004820152602f60248201527f45524331393637557067726164653a207570677261646520627265616b73206660448201526e75727468657220757067726164657360881b6064820152608401610768565b61209685612cf7565b6040516331a9108f60e11b8152600481018290526000906001600160a01b03841690636352211e9060240160206040518083038186803b15801561254757600080fd5b505afa925050508015612577575060408051601f3d908101601f19168201909252612574918101906136ad565b60015b6125b1573d8080156125a5576040519150601f19603f3d011682016040523d82523d6000602084013e6125aa565b606091505b50506125c3565b6001600160a01b0316151590506106e5565b50600092915050565b6001600160a01b0382166000908152610131602090815260408083208054825181850281018501909352808352849383018282801561262a57602002820191906000526020600020905b815481526020019060010190808311612616575b5050505050905060005b815181101561267b5783828281518110612650576126506133d0565b60200260200101511415612669576001925050506106e5565b8061267381613452565b915050612634565b506000949350505050565b600061269282846134ab565b9392505050565b6001600160a01b0381166000908152610131602052604081205481906127015760405162461bcd60e51b815260206004820152601760248201527f6e667420496e73756666696369656e7420737570706c790000000000000000006044820152606401610768565b6001600160a01b0383166000908152610131602090815260408083208054825181850281018501909352808352919290919083018282801561276257602002820191906000526020600020905b81548152602001906001019080831161274e575b505050505090506000815161277683612d37565b61278091906136e0565b90506000828281518110612796576127966133d0565b60200260200101519050808294509450505050915091565b600061269282846136f4565b60006126928284613713565b60006126928284613727565b6001600160a01b03821660009081526101316020526040812080549091906127fc90600190613727565b90506000828281548110612812576128126133d0565b9060005260206000200154905080838581548110612832576128326133d0565b9060005260206000200181905550828054806128505761285061373e565b6000828152602080822083016000199081018390559092019092556001600160a01b0387168252610131905260409020835461288e91908590612e5a565b506001600160a01b038516600081815261013060209081526040918290205486549251928352917f6960ba571af043e0b18f153264f6243a10edf4f343ba923ba594b19367172e6e910160405180910390a35050505050565b600054610100900460ff1680612900575060005460ff16155b61291c5760405162461bcd60e51b8152600401610768906135ea565b600054610100900460ff1615801561293e576000805461ffff19166101011790555b612946612d6c565b61294e612d6c565b801561091d576000805461ff001916905550565b600054610100900460ff168061297b575060005460ff16155b6129975760405162461bcd60e51b8152600401610768906135ea565b600054610100900460ff161580156129b9576000805461ffff19166101011790555b61293e612d6c565b610853828261227a565b606060006129da8360026136f4565b6129e59060026134ab565b67ffffffffffffffff8111156129fd576129fd612f54565b6040519080825280601f01601f191660200182016040528015612a27576020820181803683370190505b509050600360fc1b81600081518110612a4257612a426133d0565b60200101906001600160f81b031916908160001a905350600f60fb1b81600181518110612a7157612a716133d0565b60200101906001600160f81b031916908160001a9053506000612a958460026136f4565b612aa09060016134ab565b90505b6001811115612b18576f181899199a1a9b1b9c1cb0b131b232b360811b85600f1660108110612ad457612ad46133d0565b1a60f81b828281518110612aea57612aea6133d0565b60200101906001600160f81b031916908160001a90535060049490941c93612b1181613754565b9050612aa3565b5083156126925760405162461bcd60e51b815260206004820181905260248201527f537472696e67733a20686578206c656e67746820696e73756666696369656e746044820152606401610768565b803b612bcb5760405162461bcd60e51b815260206004820152602d60248201527f455243313936373a206e657720696d706c656d656e746174696f6e206973206e60448201526c1bdd08184818dbdb9d1c9858dd609a1b6064820152608401610768565b7f360894a13ba1a3210667c828492db98dca3e2076cc3735a920a3ca505d382bbc80546001600160a01b0319166001600160a01b0392909216919091179055565b6060823b612c6b5760405162461bcd60e51b815260206004820152602660248201527f416464726573733a2064656c65676174652063616c6c20746f206e6f6e2d636f6044820152651b9d1c9858dd60d21b6064820152608401610768565b600080846001600160a01b031684604051612c8691906134f3565b600060405180830381855af49150503d8060008114612cc1576040519150601f19603f3d011682016040523d82523d6000602084013e612cc6565b606091505b5091509150612cee82826040518060600160405280602781526020016137ae60279139612dd6565b95945050505050565b612d0081612b67565b6040516001600160a01b038216907fbc7cd75a20ee27fd9adebab32041f755214dbc6bffa90cc0225b39da2e5c2d3b90600090a250565b6000444283604051602001612d4e9392919061376b565b60408051601f19818403018152919052805160209091012092915050565b600054610100900460ff1680612d85575060005460ff16155b612da15760405162461bcd60e51b8152600401610768906135ea565b600054610100900460ff1615801561294e576000805461ffff1916610101179055801561091d576000805461ff001916905550565b60608315612de5575081612692565b825115612df55782518084602001fd5b8160405162461bcd60e51b815260040161076891906135b7565b828054828255906000526020600020908101928215612e4a579160200282015b82811115612e4a578251825591602001919060010190612e2f565b50612e56929150612e9a565b5090565b828054828255906000526020600020908101928215612e4a5760005260206000209182015b82811115612e4a578254825591600101919060010190612e7f565b5b80821115612e565760008155600101612e9b565b600060208284031215612ec157600080fd5b81356001600160e01b03198116811461269257600080fd5b600060208284031215612eeb57600080fd5b5035919050565b6001600160a01b038116811461091d57600080fd5b60008060408385031215612f1a57600080fd5b823591506020830135612f2c81612ef2565b809150509250929050565b600060208284031215612f4957600080fd5b813561269281612ef2565b634e487b7160e01b600052604160045260246000fd5b604051601f8201601f1916810167ffffffffffffffff81118282101715612f9357612f93612f54565b604052919050565b600067ffffffffffffffff821115612fb557612fb5612f54565b50601f01601f191660200190565b6000612fd6612fd184612f9b565b612f6a565b9050828152838383011115612fea57600080fd5b828260208301376000602084830101529392505050565b6000806040838503121561301457600080fd5b823561301f81612ef2565b9150602083013567ffffffffffffffff81111561303b57600080fd5b8301601f8101851361304c57600080fd5b61305b85823560208401612fc3565b9150509250929050565b6000806040838503121561307857600080fd5b823561308381612ef2565b915060208381013567ffffffffffffffff808211156130a157600080fd5b818601915086601f8301126130b557600080fd5b8135818111156130c7576130c7612f54565b8060051b91506130d8848301612f6a565b81815291830184019184810190898411156130f257600080fd5b938501935b83851015613110578435825293850193908501906130f7565b8096505050505050509250929050565b803563ffffffff8116811461313457600080fd5b919050565b6000806040838503121561314c57600080fd5b823561315781612ef2565b915061316560208401613120565b90509250929050565b6000806040838503121561318157600080fd5b823561318c81612ef2565b91506020830135612f2c81612ef2565b600080604083850312156131af57600080fd5b82356131ba81612ef2565b946020939093013593505050565b6000602082840312156131da57600080fd5b813567ffffffffffffffff8111156131f157600080fd5b8201601f8101841361320257600080fd5b61321184823560208401612fc3565b949350505050565b801515811461091d57600080fd5b6000806000806080858703121561323d57600080fd5b843561324881612ef2565b93506020850135925061325d60408601613120565b9150606085013561326d81613219565b939692955090935050565b6000806000806080858703121561328e57600080fd5b843561329981612ef2565b935060208501356132a981612ef2565b925060408501356132b981612ef2565b9396929550929360600135925050565b6020808252602c908201527f46756e6374696f6e206d7573742062652063616c6c6564207468726f7567682060408201526b19195b1959d85d1958d85b1b60a21b606082015260800190565b6020808252602c908201527f46756e6374696f6e206d7573742062652063616c6c6564207468726f7567682060408201526b6163746976652070726f787960a01b606082015260800190565b60006020828403121561337357600080fd5b815161269281613219565b6020808252601190820152702ab730baba3437b934bd32b2103ab9b2b960791b604082015260600190565b6020808252600d908201526c139195081b9bdd08199bdd5b99609a1b604082015260600190565b634e487b7160e01b600052603260045260246000fd5b60208082526036908201527f54686520746f6b656e20696420706f6f6c2065786973747320666f7220696473604082015275081d1a185d081a185d99481899595b881b5a5b9d195960521b606082015260800190565b634e487b7160e01b600052601160045260246000fd5b60006000198214156134665761346661343c565b5060010190565b600060ff821660ff84168060ff0382111561348a5761348a61343c565b019392505050565b6000602082840312156134a457600080fd5b5051919050565b600082198211156134be576134be61343c565b500190565b60005b838110156134de5781810151838201526020016134c6565b838111156134ed576000848401525b50505050565b600082516135058184602087016134c3565b9190910192915050565b60006020828403121561352157600080fd5b815167ffffffffffffffff81111561353857600080fd5b8201601f8101841361354957600080fd5b8051613557612fd182612f9b565b81815285602083850101111561356c57600080fd5b612cee8260208301602086016134c3565b7163696420416c72656164792065786973747360701b8152600082516135aa8160128501602087016134c3565b9190910160120192915050565b60208152600082518060208401526135d68160408501602087016134c3565b601f01601f19169190910160400192915050565b6020808252602e908201527f496e697469616c697a61626c653a20636f6e747261637420697320616c72656160408201526d191e481a5b9a5d1a585b1a5e995960921b606082015260800190565b7f416363657373436f6e74726f6c3a206163636f756e74200000000000000000008152600083516136708160178501602088016134c3565b7001034b99036b4b9b9b4b733903937b6329607d1b60179184019182015283516136a18160288401602088016134c3565b01602801949350505050565b6000602082840312156136bf57600080fd5b815161269281612ef2565b634e487b7160e01b600052601260045260246000fd5b6000826136ef576136ef6136ca565b500690565b600081600019048311821515161561370e5761370e61343c565b500290565b600082613722576137226136ca565b500490565b6000828210156137395761373961343c565b500390565b634e487b7160e01b600052603160045260246000fd5b6000816137635761376361343c565b506000190190565b83815260006020848184015260408301845182860160005b8281101561379f57815184529284019290840190600101613783565b50919897505050505050505056fe416464726573733a206c6f772d6c6576656c2064656c65676174652063616c6c206661696c6564f5eb84615c2a00ecaf817d13794ebd6299c9e01c395bf4018453f13f577f5449a264697066735822122077528aba4a83b24624b6bc52dd961a62ee865372a70b8688e3a59f4317e4bc9e64736f6c63430008090033",
  "immutableReferences": {
    "1020": [
      {
        "length": 32,
        "start": 2146
      },
      {
        "length": 32,
        "start": 2210
      },
      {
        "length": 32,
        "start": 2347
      },
      {
        "length": 32,
        "start": 2411
      }
    ]
  },
  "source": "// SPDX-License-Identifier: MIT\npragma solidity 0.8.9;\n\nimport \"@openzeppelin/contracts-upgradeable/access/AccessControlUpgradeable.sol\";\nimport \"@openzeppelin/contracts-upgradeable/proxy/utils/Initializable.sol\";\nimport \"@openzeppelin/contracts-upgradeable/proxy/utils/UUPSUpgradeable.sol\";\nimport \"@openzeppelin/contracts-upgradeable/utils/CountersUpgradeable.sol\";\nimport \"@openzeppelin/contracts-upgradeable/security/PausableUpgradeable.sol\";\nimport \"@openzeppelin/contracts-upgradeable/utils/math/SafeMathUpgradeable.sol\";\nimport \"./NFTStoreStorage.sol\";\n\n// \n// marketplace. marketplace.\n// NFTmint.\n// NFTStore .\n// NFT.mint.\n\ncontract NFTStore is\n    Initializable,\n    AccessControlUpgradeable,\n    PausableUpgradeable,\n    UUPSUpgradeable,\n    NFTStoreStorage\n{\n    using SafeMathUpgradeable for uint256;\n    using CountersUpgradeable for CountersUpgradeable.Counter;\n    CountersUpgradeable.Counter private itemIdCounters;\n\n    function initialize(\n        // MELD \n        IERC20MELD _acceptedToken,\n        address _officialWallet,\n        address _foundationWallet,\n        uint256 _ownerCutPerMillion\n    ) public initializer {\n        __UUPSUpgradeable_init();\n        __AccessControl_init();\n        _setupRole(DEFAULT_ADMIN_ROLE, _msgSender());\n        _setupRole(UPGRADER_ROLE, _msgSender());\n        _setupRole(GM_ROLE, _msgSender());\n\n        acceptedToken = _acceptedToken;\n        officialWallet = _officialWallet;\n        foundationWallet = _foundationWallet;\n        ownerCutPerMillion = _ownerCutPerMillion;\n    }\n\n    // NFT\n    function createNFT(\n        // nft address\n        IERC721MelandNFT nft,\n        // Purchase Price\n        uint256 priceInWei,\n        // Limit the number of individual wallet purchases\n        // If 0 means no limit\n        uint32 limit,\n        // Whether to turn on restricted token id pool purchase\n        // If restricted, the purchase is randomly given to the player from the id pool\n        bool tokenIdPool\n    ) public {\n        require(\n            nft.hasRole(DEFAULT_ADMIN_ROLE, _msgSender()),\n            \"Unauthorized user\"\n        );\n        require(\n            nft.hasRole(MINTER_ROLE, address(this)),\n            \"Must authorize contract minter privileges\"\n        );\n        require(itemByNFT[nft].id == 0, \"Already exists\");\n\n        (bool success, bytes memory cid) = address(nft).staticcall(\n            abi.encodeWithSignature(\"getCid()\")\n        );\n        if (success) {\n            string memory cidstr = abi.decode(cid, (string));\n            require(\n                nftByCid[cidstr] == address(0),\n                string(abi.encodePacked(\"cid Already exists\", cidstr))\n            );\n            nftByCid[cidstr] = address(nft);\n        }\n\n        uint256 itemId = itemIdCounters.current() + 1;\n        itemIdCounters.increment();\n\n        itemByNFT[nft] = Item(\n            itemId,\n            _msgSender(),\n            tokenIdPool,\n            priceInWei,\n            0,\n            limit\n        );\n\n        emit NFTCreated(itemId, _msgSender(), nft, priceInWei);\n    }\n\n    function updateItemLimit(\n        // nft address\n        IERC721MelandNFT nft,\n        // Limit the number of individual wallet purchases\n        // If 0 means no limit\n        uint32 limit\n    ) public {\n        require(\n            nft.hasRole(DEFAULT_ADMIN_ROLE, _msgSender()) ||\n                hasRole(GM_ROLE, _msgSender()),\n            \"Unauthorized user\"\n        );\n        require(itemByNFT[nft].id > 0, \"NFT not found\");\n\n        itemByNFT[nft].limit = limit;\n\n        emit NFTItemUpdate(itemByNFT[nft].id, nft);\n    }\n\n    function updateItemPriceInWei(\n        // nft address\n        IERC721MelandNFT nft,\n        // Purchase Price\n        uint256 priceInWei\n    ) public {\n        require(\n            nft.hasRole(DEFAULT_ADMIN_ROLE, _msgSender()) ||\n                hasRole(GM_ROLE, _msgSender()),\n            \"Unauthorized user\"\n        );\n        require(itemByNFT[nft].id > 0, \"NFT not found\");\n\n        itemByNFT[nft].priceInWei = priceInWei;\n\n        emit NFTItemUpdate(itemByNFT[nft].id, nft);\n    }\n\n    function checkTokenIdMinted(IERC721MelandNFT nft, uint256 id)\n        private\n        view\n        returns (bool)\n    {\n        try nft.ownerOf(id) returns (address _addrs) {\n            return _addrs != address(0);\n        } catch (bytes memory) {}\n        return false;\n    }\n\n    function checkTokenIdExists(IERC721MelandNFT nft, uint256 id)\n        private\n        view\n        returns (bool)\n    {\n        uint256[] memory ids = tokenIdsByNFT[nft];\n        for (uint256 i = 0; i < ids.length; i++) {\n            if (ids[i] == id) {\n                return true;\n            }\n        }\n        return false;\n    }\n\n    function addTokenIdPool(IERC721MelandNFT nft, uint256[] memory tokenIds)\n        public\n        returns (uint8 addCount)\n    {\n        require(\n            nft.hasRole(DEFAULT_ADMIN_ROLE, _msgSender()) ||\n                hasRole(GM_ROLE, _msgSender()),\n            \"Unauthorized user\"\n        );\n        require(itemByNFT[nft].id > 0, \"NFT not found\");\n        for (uint256 i = 0; i < tokenIds.length; i++) {\n            uint256 tokenId = tokenIds[i];\n            if (checkTokenIdExists(nft, tokenId)) {\n                continue;\n            }\n            require(\n                !checkTokenIdMinted(nft, tokenId),\n                \"The token id pool exists for ids that have been minted\"\n            );\n            addCount += 1;\n            tokenIdsByNFT[nft].push(tokenIds[i]);\n        }\n        emit NFTIdPoolUpdate(itemByNFT[nft].id, nft, tokenIdsByNFT[nft].length);\n    }\n\n    function updateTokenIdPool(IERC721MelandNFT nft, uint256[] memory tokenIds)\n        public\n    {\n        require(\n            nft.hasRole(DEFAULT_ADMIN_ROLE, _msgSender()) ||\n                hasRole(GM_ROLE, _msgSender()),\n            \"Unauthorized user\"\n        );\n        require(itemByNFT[nft].id > 0, \"NFT not found\");\n\n        // idmintid\n        // .\n        for (uint256 i = 0; i < tokenIds.length; i++) {\n            uint256 tokenId = tokenIds[i];\n            require(\n                !checkTokenIdMinted(nft, tokenId),\n                \"The token id pool exists for ids that have been minted\"\n            );\n        }\n        tokenIdsByNFT[nft] = tokenIds;\n        emit NFTIdPoolUpdate(itemByNFT[nft].id, nft, tokenIds.length);\n    }\n\n    // NFT\n    function deleteNFT(IERC721MelandNFT nft) public {\n        require(\n            nft.hasRole(DEFAULT_ADMIN_ROLE, _msgSender()),\n            \"Unauthorized user\"\n        );\n        require(itemByNFT[nft].id > 0, \"NFT not found\");\n        Item memory item = itemByNFT[nft];\n        // \n        nft.renounceRole(MINTER_ROLE, address(this));\n        delete itemByNFT[nft];\n\n        emit NFTDelete(item.id, _msgSender(), nft);\n    }\n\n    function randomIds(uint256[] memory ids) private view returns (uint256) {\n        // sha3 and now have been deprecated\n        return\n            uint256(\n                keccak256(\n                    abi.encodePacked(block.difficulty, block.timestamp, ids)\n                )\n            );\n    }\n\n    // Get a random token id\n    function getTokenIdByIdsPool(IERC721MelandNFT nft)\n        private\n        view\n        returns (uint256, uint256)\n    {\n        require(tokenIdsByNFT[nft].length > 0, \"nft Insufficient supply\");\n        uint256[] memory ids = tokenIdsByNFT[nft];\n        uint256 tokenIdIndex = randomIds(ids) % ids.length;\n        uint256 tokenId = ids[tokenIdIndex];\n        return (tokenId, tokenIdIndex);\n    }\n\n    function popTokenIdPoolByTokenIdIndex(\n        IERC721MelandNFT nft,\n        uint256 tokenIdIndex\n    ) private {\n        uint256[] storage ids = tokenIdsByNFT[nft];\n\n        // gas feedsarray\n        // . indexlast\n        // poplast\n        // evmarray\n        uint256 lastTokenIndex = ids.length - 1;\n        uint256 lastTokenId = ids[lastTokenIndex];\n        ids[tokenIdIndex] = lastTokenId;\n        ids.pop();\n        tokenIdsByNFT[nft] = ids;\n\n        emit NFTIdPoolUpdate(itemByNFT[nft].id, nft, ids.length);\n    }\n\n    // \n    // 50000 = 5%\n    // 500000 = 50%\n    function setOwnerCutPerMillion(uint256 _ownerCutPerMillion)\n        public\n        onlyRole(GM_ROLE)\n    {\n        require(\n            _ownerCutPerMillion < 1000000,\n            \"The owner cut should be between 0 and 999,999\"\n        );\n\n        ownerCutPerMillion = _ownerCutPerMillion;\n        emit ChangedOwnerCutPerMillion(ownerCutPerMillion);\n    }\n\n    function buyNFT(IERC721MelandNFT nft, uint256 priceInWei) public {\n        require(\n            nft.totalSupply() < nft.getMintMax(),\n            \"Exceeding the maximum supply quantity\"\n        );\n        Item memory item = itemByNFT[nft];\n        require(item.id > 0, \"NFT not found\");\n        require(item.priceInWei == priceInWei, \"The price is not correct\");\n\n        // If the restriction is turned on\n        if (item.limit > 0) {\n            require(\n                limitPool[nft][_msgSender()] < item.limit,\n                \"Trigger restriction\"\n            );\n            limitPool[nft][_msgSender()] = limitPool[nft][_msgSender()].add(1);\n        }\n\n        address sender = _msgSender();\n        address seller = item.seller;\n\n        uint256 tokenId = 0;\n        uint256 tokenIdIndex = 0;\n        bool popTokenIdIndex = false;\n        // token ids pools enable\n        if (item.tokenIdPool) {\n            (tokenId, tokenIdIndex) = getTokenIdByIdsPool(nft);\n            popTokenIdIndex = true;\n        } else {\n            tokenId = nft.totalSupply() + 1;\n        }\n\n        item.sellsCount = item.sellsCount.add(1);\n        itemByNFT[nft] = item;\n\n        uint256 saleShareAmount = 0;\n\n        if (ownerCutPerMillion > 0) {\n            // Calculate sale share\n            saleShareAmount = priceInWei.mul(ownerCutPerMillion).div(1000000);\n\n            // 40% burn in handling fee\n            uint256 burnAmount = saleShareAmount.mul(40).div(100);\n\n            // The other 40% is held by the Foundation\n            uint256 foundationAmount = saleShareAmount.mul(40).div(100);\n\n            // The last 20% are official earnings\n            uint256 officialAmount = saleShareAmount.mul(20).div(100);\n\n            acceptedToken.burnFrom(sender, burnAmount);\n            require(\n                acceptedToken.transferFrom(\n                    sender,\n                    foundationWallet,\n                    foundationAmount\n                ),\n                \"Handling fee transfer to foundationWallet failure\"\n            );\n            require(\n                acceptedToken.transferFrom(\n                    sender,\n                    officialWallet,\n                    officialAmount\n                ),\n                \"Handling fee transfer to officialWallet to off failure\"\n            );\n        }\n\n        // Transfer sale amount to seller\n        require(\n            acceptedToken.transferFrom(\n                sender,\n                seller,\n                priceInWei.sub(saleShareAmount)\n            ),\n            \"Transfering the sale amount to the seller failed\"\n        );\n\n        nft.safeMint(sender, tokenId);\n\n        if (popTokenIdIndex) {\n            popTokenIdPoolByTokenIdIndex(nft, tokenIdIndex);\n        }\n\n        emit NFTBuyed(\n            item.id, \n            sender, \n            nft, \n            tokenId,\n            priceInWei\n        );\n    }\n\n    function _authorizeUpgrade(address newImplementation)\n        internal\n        override\n        onlyRole(UPGRADER_ROLE)\n    {}\n}\n",
  "sourcePath": "/Users/alberthuang/code/icw/meland/contracts/NFTStore.sol",
  "compiler": {
    "name": "solc",
    "version": "0.8.9+commit.e5eed63a.Emscripten.clang"
  },
  "schemaVersion": "3.4.3",
  "updatedAt": "2021-12-02T03:37:59.664Z",
  "devdoc": {
    "kind": "dev",
    "methods": {
      "getRoleAdmin(bytes32)": {
        "details": "Returns the admin role that controls `role`. See {grantRole} and {revokeRole}. To change a role's admin, use {_setRoleAdmin}."
      },
      "grantRole(bytes32,address)": {
        "details": "Grants `role` to `account`. If `account` had not been already granted `role`, emits a {RoleGranted} event. Requirements: - the caller must have ``role``'s admin role."
      },
      "hasRole(bytes32,address)": {
        "details": "Returns `true` if `account` has been granted `role`."
      },
      "paused()": {
        "details": "Returns true if the contract is paused, and false otherwise."
      },
      "renounceRole(bytes32,address)": {
        "details": "Revokes `role` from the calling account. Roles are often managed via {grantRole} and {revokeRole}: this function's purpose is to provide a mechanism for accounts to lose their privileges if they are compromised (such as when a trusted device is misplaced). If the calling account had been granted `role`, emits a {RoleRevoked} event. Requirements: - the caller must be `account`."
      },
      "revokeRole(bytes32,address)": {
        "details": "Revokes `role` from `account`. If `account` had been granted `role`, emits a {RoleRevoked} event. Requirements: - the caller must have ``role``'s admin role."
      },
      "supportsInterface(bytes4)": {
        "details": "See {IERC165-supportsInterface}."
      },
      "upgradeTo(address)": {
        "details": "Upgrade the implementation of the proxy to `newImplementation`. Calls {_authorizeUpgrade}. Emits an {Upgraded} event."
      },
      "upgradeToAndCall(address,bytes)": {
        "details": "Upgrade the implementation of the proxy to `newImplementation`, and subsequently execute the function call encoded in `data`. Calls {_authorizeUpgrade}. Emits an {Upgraded} event."
      }
    },
    "version": 1
  },
  "userdoc": {
    "kind": "user",
    "methods": {},
    "version": 1
  }
}