{
  "contractName": "NFTStore",
  "abi": [
    {
      "anonymous": false,
      "inputs": [
        {
          "indexed": false,
          "internalType": "address",
          "name": "previousAdmin",
          "type": "address"
        },
        {
          "indexed": false,
          "internalType": "address",
          "name": "newAdmin",
          "type": "address"
        }
      ],
      "name": "AdminChanged",
      "type": "event"
    },
    {
      "anonymous": false,
      "inputs": [
        {
          "indexed": true,
          "internalType": "address",
          "name": "beacon",
          "type": "address"
        }
      ],
      "name": "BeaconUpgraded",
      "type": "event"
    },
    {
      "anonymous": false,
      "inputs": [
        {
          "indexed": false,
          "internalType": "uint256",
          "name": "ownerCutPerMillion",
          "type": "uint256"
        }
      ],
      "name": "ChangedOwnerCutPerMillion",
      "type": "event"
    },
    {
      "anonymous": false,
      "inputs": [
        {
          "indexed": true,
          "internalType": "uint256",
          "name": "id",
          "type": "uint256"
        },
        {
          "indexed": true,
          "internalType": "address",
          "name": "buyer",
          "type": "address"
        },
        {
          "indexed": false,
          "internalType": "contract IERC721MelandNFT",
          "name": "nftAddress",
          "type": "address"
        },
        {
          "indexed": false,
          "internalType": "uint256",
          "name": "priceInWei",
          "type": "uint256"
        }
      ],
      "name": "NFTBuyed",
      "type": "event"
    },
    {
      "anonymous": false,
      "inputs": [
        {
          "indexed": true,
          "internalType": "uint256",
          "name": "id",
          "type": "uint256"
        },
        {
          "indexed": true,
          "internalType": "address",
          "name": "seller",
          "type": "address"
        },
        {
          "indexed": false,
          "internalType": "contract IERC721MelandNFT",
          "name": "nftAddress",
          "type": "address"
        },
        {
          "indexed": false,
          "internalType": "uint256",
          "name": "priceInWei",
          "type": "uint256"
        }
      ],
      "name": "NFTCreated",
      "type": "event"
    },
    {
      "anonymous": false,
      "inputs": [
        {
          "indexed": true,
          "internalType": "uint256",
          "name": "id",
          "type": "uint256"
        },
        {
          "indexed": true,
          "internalType": "address",
          "name": "seller",
          "type": "address"
        },
        {
          "indexed": false,
          "internalType": "contract IERC721MelandNFT",
          "name": "nftAddress",
          "type": "address"
        }
      ],
      "name": "NFTDelete",
      "type": "event"
    },
    {
      "anonymous": false,
      "inputs": [
        {
          "indexed": true,
          "internalType": "uint256",
          "name": "id",
          "type": "uint256"
        },
        {
          "indexed": true,
          "internalType": "contract IERC721MelandNFT",
          "name": "nft",
          "type": "address"
        },
        {
          "indexed": false,
          "internalType": "uint256",
          "name": "length",
          "type": "uint256"
        }
      ],
      "name": "NFTIdPoolUpdate",
      "type": "event"
    },
    {
      "anonymous": false,
      "inputs": [
        {
          "indexed": false,
          "internalType": "address",
          "name": "account",
          "type": "address"
        }
      ],
      "name": "Paused",
      "type": "event"
    },
    {
      "anonymous": false,
      "inputs": [
        {
          "indexed": true,
          "internalType": "bytes32",
          "name": "role",
          "type": "bytes32"
        },
        {
          "indexed": true,
          "internalType": "bytes32",
          "name": "previousAdminRole",
          "type": "bytes32"
        },
        {
          "indexed": true,
          "internalType": "bytes32",
          "name": "newAdminRole",
          "type": "bytes32"
        }
      ],
      "name": "RoleAdminChanged",
      "type": "event"
    },
    {
      "anonymous": false,
      "inputs": [
        {
          "indexed": true,
          "internalType": "bytes32",
          "name": "role",
          "type": "bytes32"
        },
        {
          "indexed": true,
          "internalType": "address",
          "name": "account",
          "type": "address"
        },
        {
          "indexed": true,
          "internalType": "address",
          "name": "sender",
          "type": "address"
        }
      ],
      "name": "RoleGranted",
      "type": "event"
    },
    {
      "anonymous": false,
      "inputs": [
        {
          "indexed": true,
          "internalType": "bytes32",
          "name": "role",
          "type": "bytes32"
        },
        {
          "indexed": true,
          "internalType": "address",
          "name": "account",
          "type": "address"
        },
        {
          "indexed": true,
          "internalType": "address",
          "name": "sender",
          "type": "address"
        }
      ],
      "name": "RoleRevoked",
      "type": "event"
    },
    {
      "anonymous": false,
      "inputs": [
        {
          "indexed": false,
          "internalType": "address",
          "name": "account",
          "type": "address"
        }
      ],
      "name": "Unpaused",
      "type": "event"
    },
    {
      "anonymous": false,
      "inputs": [
        {
          "indexed": true,
          "internalType": "address",
          "name": "implementation",
          "type": "address"
        }
      ],
      "name": "Upgraded",
      "type": "event"
    },
    {
      "inputs": [],
      "name": "DEFAULT_ADMIN_ROLE",
      "outputs": [
        {
          "internalType": "bytes32",
          "name": "",
          "type": "bytes32"
        }
      ],
      "stateMutability": "view",
      "type": "function",
      "constant": true
    },
    {
      "inputs": [],
      "name": "GM_ROLE",
      "outputs": [
        {
          "internalType": "bytes32",
          "name": "",
          "type": "bytes32"
        }
      ],
      "stateMutability": "view",
      "type": "function",
      "constant": true
    },
    {
      "inputs": [],
      "name": "MINTER_ROLE",
      "outputs": [
        {
          "internalType": "bytes32",
          "name": "",
          "type": "bytes32"
        }
      ],
      "stateMutability": "view",
      "type": "function",
      "constant": true
    },
    {
      "inputs": [],
      "name": "UPGRADER_ROLE",
      "outputs": [
        {
          "internalType": "bytes32",
          "name": "",
          "type": "bytes32"
        }
      ],
      "stateMutability": "view",
      "type": "function",
      "constant": true
    },
    {
      "inputs": [],
      "name": "acceptedToken",
      "outputs": [
        {
          "internalType": "contract IERC20MELD",
          "name": "",
          "type": "address"
        }
      ],
      "stateMutability": "view",
      "type": "function",
      "constant": true
    },
    {
      "inputs": [],
      "name": "foundationWallet",
      "outputs": [
        {
          "internalType": "address",
          "name": "",
          "type": "address"
        }
      ],
      "stateMutability": "view",
      "type": "function",
      "constant": true
    },
    {
      "inputs": [
        {
          "internalType": "bytes32",
          "name": "role",
          "type": "bytes32"
        }
      ],
      "name": "getRoleAdmin",
      "outputs": [
        {
          "internalType": "bytes32",
          "name": "",
          "type": "bytes32"
        }
      ],
      "stateMutability": "view",
      "type": "function",
      "constant": true
    },
    {
      "inputs": [
        {
          "internalType": "bytes32",
          "name": "role",
          "type": "bytes32"
        },
        {
          "internalType": "address",
          "name": "account",
          "type": "address"
        }
      ],
      "name": "grantRole",
      "outputs": [],
      "stateMutability": "nonpayable",
      "type": "function"
    },
    {
      "inputs": [
        {
          "internalType": "bytes32",
          "name": "role",
          "type": "bytes32"
        },
        {
          "internalType": "address",
          "name": "account",
          "type": "address"
        }
      ],
      "name": "hasRole",
      "outputs": [
        {
          "internalType": "bool",
          "name": "",
          "type": "bool"
        }
      ],
      "stateMutability": "view",
      "type": "function",
      "constant": true
    },
    {
      "inputs": [
        {
          "internalType": "contract IERC721MelandNFT",
          "name": "",
          "type": "address"
        }
      ],
      "name": "itemByNFT",
      "outputs": [
        {
          "internalType": "uint256",
          "name": "id",
          "type": "uint256"
        },
        {
          "internalType": "address",
          "name": "seller",
          "type": "address"
        },
        {
          "internalType": "bool",
          "name": "tokenIdPool",
          "type": "bool"
        },
        {
          "internalType": "uint256",
          "name": "priceInWei",
          "type": "uint256"
        },
        {
          "internalType": "uint256",
          "name": "sellsCount",
          "type": "uint256"
        },
        {
          "internalType": "uint32",
          "name": "limit",
          "type": "uint32"
        },
        {
          "internalType": "string",
          "name": "description",
          "type": "string"
        }
      ],
      "stateMutability": "view",
      "type": "function",
      "constant": true
    },
    {
      "inputs": [
        {
          "internalType": "contract IERC721MelandNFT",
          "name": "",
          "type": "address"
        },
        {
          "internalType": "address",
          "name": "",
          "type": "address"
        }
      ],
      "name": "limitPool",
      "outputs": [
        {
          "internalType": "uint256",
          "name": "",
          "type": "uint256"
        }
      ],
      "stateMutability": "view",
      "type": "function",
      "constant": true
    },
    {
      "inputs": [],
      "name": "officialWallet",
      "outputs": [
        {
          "internalType": "address",
          "name": "",
          "type": "address"
        }
      ],
      "stateMutability": "view",
      "type": "function",
      "constant": true
    },
    {
      "inputs": [],
      "name": "ownerCutPerMillion",
      "outputs": [
        {
          "internalType": "uint256",
          "name": "",
          "type": "uint256"
        }
      ],
      "stateMutability": "view",
      "type": "function",
      "constant": true
    },
    {
      "inputs": [],
      "name": "paused",
      "outputs": [
        {
          "internalType": "bool",
          "name": "",
          "type": "bool"
        }
      ],
      "stateMutability": "view",
      "type": "function",
      "constant": true
    },
    {
      "inputs": [
        {
          "internalType": "bytes32",
          "name": "role",
          "type": "bytes32"
        },
        {
          "internalType": "address",
          "name": "account",
          "type": "address"
        }
      ],
      "name": "renounceRole",
      "outputs": [],
      "stateMutability": "nonpayable",
      "type": "function"
    },
    {
      "inputs": [
        {
          "internalType": "bytes32",
          "name": "role",
          "type": "bytes32"
        },
        {
          "internalType": "address",
          "name": "account",
          "type": "address"
        }
      ],
      "name": "revokeRole",
      "outputs": [],
      "stateMutability": "nonpayable",
      "type": "function"
    },
    {
      "inputs": [
        {
          "internalType": "bytes4",
          "name": "interfaceId",
          "type": "bytes4"
        }
      ],
      "name": "supportsInterface",
      "outputs": [
        {
          "internalType": "bool",
          "name": "",
          "type": "bool"
        }
      ],
      "stateMutability": "view",
      "type": "function",
      "constant": true
    },
    {
      "inputs": [
        {
          "internalType": "contract IERC721MelandNFT",
          "name": "",
          "type": "address"
        },
        {
          "internalType": "uint256",
          "name": "",
          "type": "uint256"
        }
      ],
      "name": "tokenIdsByNFT",
      "outputs": [
        {
          "internalType": "uint256",
          "name": "",
          "type": "uint256"
        }
      ],
      "stateMutability": "view",
      "type": "function",
      "constant": true
    },
    {
      "inputs": [
        {
          "internalType": "address",
          "name": "newImplementation",
          "type": "address"
        }
      ],
      "name": "upgradeTo",
      "outputs": [],
      "stateMutability": "nonpayable",
      "type": "function"
    },
    {
      "inputs": [
        {
          "internalType": "address",
          "name": "newImplementation",
          "type": "address"
        },
        {
          "internalType": "bytes",
          "name": "data",
          "type": "bytes"
        }
      ],
      "name": "upgradeToAndCall",
      "outputs": [],
      "stateMutability": "payable",
      "type": "function",
      "payable": true
    },
    {
      "inputs": [
        {
          "internalType": "contract IERC20MELD",
          "name": "_acceptedToken",
          "type": "address"
        },
        {
          "internalType": "address",
          "name": "_officialWallet",
          "type": "address"
        },
        {
          "internalType": "address",
          "name": "_foundationWallet",
          "type": "address"
        },
        {
          "internalType": "uint256",
          "name": "_ownerCutPerMillion",
          "type": "uint256"
        }
      ],
      "name": "initialize",
      "outputs": [],
      "stateMutability": "nonpayable",
      "type": "function"
    },
    {
      "inputs": [
        {
          "internalType": "contract IERC721MelandNFT",
          "name": "nft",
          "type": "address"
        },
        {
          "internalType": "uint256",
          "name": "priceInWei",
          "type": "uint256"
        },
        {
          "internalType": "uint32",
          "name": "limit",
          "type": "uint32"
        },
        {
          "internalType": "bool",
          "name": "tokenIdPool",
          "type": "bool"
        },
        {
          "internalType": "string",
          "name": "description",
          "type": "string"
        }
      ],
      "name": "createNFT",
      "outputs": [],
      "stateMutability": "nonpayable",
      "type": "function"
    },
    {
      "inputs": [
        {
          "internalType": "contract IERC721MelandNFT",
          "name": "nft",
          "type": "address"
        },
        {
          "internalType": "uint256[]",
          "name": "tokenIds",
          "type": "uint256[]"
        }
      ],
      "name": "updateTokenIdPool",
      "outputs": [],
      "stateMutability": "nonpayable",
      "type": "function"
    },
    {
      "inputs": [
        {
          "internalType": "contract IERC721MelandNFT",
          "name": "nft",
          "type": "address"
        }
      ],
      "name": "deleteNFT",
      "outputs": [],
      "stateMutability": "nonpayable",
      "type": "function"
    },
    {
      "inputs": [
        {
          "internalType": "uint256",
          "name": "_ownerCutPerMillion",
          "type": "uint256"
        }
      ],
      "name": "setOwnerCutPerMillion",
      "outputs": [],
      "stateMutability": "nonpayable",
      "type": "function"
    },
    {
      "inputs": [
        {
          "internalType": "contract IERC721MelandNFT",
          "name": "nft",
          "type": "address"
        },
        {
          "internalType": "uint256",
          "name": "priceInWei",
          "type": "uint256"
        }
      ],
      "name": "buyNFT",
      "outputs": [],
      "stateMutability": "nonpayable",
      "type": "function"
    }
  ],
  "bytecode": "0x608060405234801561001057600080fd5b5061563180620000216000396000f3fe6080604052600436106101815760003560e01c806366b61640116100d1578063a217fddf1161008a578063cf756fdf11610064578063cf756fdf1461058b578063d5391393146105b4578063d547741f146105df578063f72c0d8b1461060857610181565b8063a217fddf146104fa578063a82ba76f14610525578063ac54242d1461054e57610181565b806366b61640146103be5780636b7ae8dc1461040157806380b7613c1461042c57806384799eac1461046957806391d1485414610492578063a01f79d4146104cf57610181565b806336568abe1161013e5780634e1d940e116101185780634e1d940e146103255780634f1ef2861461034e57806356f1eb481461036a5780635c975abb1461039357610181565b806336568abe146102a85780633659cfe6146102d1578063451c3d80146102fa57610181565b806301ffc9a714610186578063088025d3146101c357806319dad16d146101ee578063248a9ca3146102175780632f2ff15d1461025457806330c7be2c1461027d575b600080fd5b34801561019257600080fd5b506101ad60048036038101906101a89190613b31565b610633565b6040516101ba9190613b79565b60405180910390f35b3480156101cf57600080fd5b506101d86106ad565b6040516101e59190613bd5565b60405180910390f35b3480156101fa57600080fd5b5061021560048036038101906102109190613c26565b6106d4565b005b34801561022357600080fd5b5061023e60048036038101906102399190613c89565b610791565b60405161024b9190613cc5565b60405180910390f35b34801561026057600080fd5b5061027b60048036038101906102769190613d0c565b6107b1565b005b34801561028957600080fd5b506102926107da565b60405161029f9190613cc5565b60405180910390f35b3480156102b457600080fd5b506102cf60048036038101906102ca9190613d0c565b6107fe565b005b3480156102dd57600080fd5b506102f860048036038101906102f39190613d4c565b610881565b005b34801561030657600080fd5b5061030f6108a8565b60405161031c9190613dd8565b60405180910390f35b34801561033157600080fd5b5061034c60048036038101906103479190613fdf565b6108cf565b005b61036860048036038101906103639190614117565b610ccb565b005b34801561037657600080fd5b50610391600480360381019061038c919061423b565b610ce4565b005b34801561039f57600080fd5b506103a861100e565b6040516103b59190613b79565b60405180910390f35b3480156103ca57600080fd5b506103e560048036038101906103e09190614297565b611025565b6040516103f8979695949392919061436a565b60405180910390f35b34801561040d57600080fd5b5061041661112d565b6040516104239190613bd5565b60405180910390f35b34801561043857600080fd5b50610453600480360381019061044e91906143e0565b611154565b6040516104609190614420565b60405180910390f35b34801561047557600080fd5b50610490600480360381019061048b9190614297565b61117a565b005b34801561049e57600080fd5b506104b960048036038101906104b49190613d0c565b6115f5565b6040516104c69190613b79565b60405180910390f35b3480156104db57600080fd5b506104e4611660565b6040516104f19190614420565b60405180910390f35b34801561050657600080fd5b5061050f611667565b60405161051c9190613cc5565b60405180910390f35b34801561053157600080fd5b5061054c6004803603810190610547919061443b565b61166e565b005b34801561055a57600080fd5b506105756004803603810190610570919061443b565b6122b3565b6040516105829190614420565b60405180910390f35b34801561059757600080fd5b506105b260048036038101906105ad91906144b9565b6122e5565b005b3480156105c057600080fd5b506105c9612501565b6040516105d69190613cc5565b60405180910390f35b3480156105eb57600080fd5b5061060660048036038101906106019190613d0c565b612525565b005b34801561061457600080fd5b5061061d61254e565b60405161062a9190613cc5565b60405180910390f35b60007f7965db0b000000000000000000000000000000000000000000000000000000007bffffffffffffffffffffffffffffffffffffffffffffffffffffffff1916827bffffffffffffffffffffffffffffffffffffffffffffffffffffffff191614806106a657506106a582612572565b5b9050919050565b61012f60009054906101000a900473ffffffffffffffffffffffffffffffffffffffff1681565b7ff5eb84615c2a00ecaf817d13794ebd6299c9e01c395bf4018453f13f577f5449610706816107016125dc565b6125e4565b620f4240821061074b576040517f08c379a000000000000000000000000000000000000000000000000000000000815260040161074290614592565b60405180910390fd5b81610133819055507ffa406a120a9e7f2b332bfb7a43d3bf1c3f079262202907a6b69c94b2821a02c6610133546040516107859190614420565b60405180910390a15050565b600060656000838152602001908152602001600020600101549050919050565b6107ba82610791565b6107cb816107c66125dc565b6125e4565b6107d58383612681565b505050565b7ff5eb84615c2a00ecaf817d13794ebd6299c9e01c395bf4018453f13f577f544981565b6108066125dc565b73ffffffffffffffffffffffffffffffffffffffff168173ffffffffffffffffffffffffffffffffffffffff1614610873576040517f08c379a000000000000000000000000000000000000000000000000000000000815260040161086a90614624565b60405180910390fd5b61087d8282612762565b5050565b61088a81612844565b6108a58160405180602001604052806000815250600061287a565b50565b61012d60009054906101000a900473ffffffffffffffffffffffffffffffffffffffff1681565b8473ffffffffffffffffffffffffffffffffffffffff166391d148546000801b336040518363ffffffff1660e01b815260040161090d929190614644565b602060405180830381865afa15801561092a573d6000803e3d6000fd5b505050506040513d601f19601f8201168201806040525081019061094e9190614682565b61098d576040517f08c379a0000000000000000000000000000000000000000000000000000000008152600401610984906146fb565b60405180910390fd5b8473ffffffffffffffffffffffffffffffffffffffff166391d148547f9f2df0fed2c77648de5860a4cc508cd0818c85b8b8a1ab4ceeef8d981c8956a6306040518363ffffffff1660e01b81526004016109e8929190614644565b602060405180830381865afa158015610a05573d6000803e3d6000fd5b505050506040513d601f19601f82011682018060405250810190610a299190614682565b610a68576040517f08c379a0000000000000000000000000000000000000000000000000000000008152600401610a5f9061478d565b60405180910390fd5b600061013060008773ffffffffffffffffffffffffffffffffffffffff1673ffffffffffffffffffffffffffffffffffffffff1681526020019081526020016000206000015414610aee576040517f08c379a0000000000000000000000000000000000000000000000000000000008152600401610ae5906147f9565b60405180910390fd5b60006001610afd610134612a4b565b610b079190614848565b9050610b14610134612a59565b6040518060e001604052808281526020013373ffffffffffffffffffffffffffffffffffffffff1681526020018415158152602001868152602001600081526020018563ffffffff1681526020018381525061013060008873ffffffffffffffffffffffffffffffffffffffff1673ffffffffffffffffffffffffffffffffffffffff1681526020019081526020016000206000820151816000015560208201518160010160006101000a81548173ffffffffffffffffffffffffffffffffffffffff021916908373ffffffffffffffffffffffffffffffffffffffff16021790555060408201518160010160146101000a81548160ff021916908315150217905550606082015181600201556080820151816003015560a08201518160040160006101000a81548163ffffffff021916908363ffffffff16021790555060c0820151816005019080519060200190610c6e929190613943565b509050503373ffffffffffffffffffffffffffffffffffffffff16817f8c7e1ddd8a4fd824bd103f68294c41981a2a43c9aa90547f389b9fe2064d37098888604051610cbb9291906148bf565b60405180910390a3505050505050565b610cd482612844565b610ce08282600161287a565b5050565b8173ffffffffffffffffffffffffffffffffffffffff166391d148546000801b336040518363ffffffff1660e01b8152600401610d22929190614644565b602060405180830381865afa158015610d3f573d6000803e3d6000fd5b505050506040513d601f19601f82011682018060405250810190610d639190614682565b610da2576040517f08c379a0000000000000000000000000000000000000000000000000000000008152600401610d99906146fb565b60405180910390fd5b600061013060008473ffffffffffffffffffffffffffffffffffffffff1673ffffffffffffffffffffffffffffffffffffffff1681526020019081526020016000206000015411610e28576040517f08c379a0000000000000000000000000000000000000000000000000000000008152600401610e1f90614934565b60405180910390fd5b60005b8151811015610f2157600015158373ffffffffffffffffffffffffffffffffffffffff16630e2e44e8848481518110610e6757610e66614954565b5b60200260200101516040518263ffffffff1660e01b8152600401610e8b9190614420565b602060405180830381865afa158015610ea8573d6000803e3d6000fd5b505050506040513d601f19601f82011682018060405250810190610ecc9190614682565b151514610f0e576040517f08c379a0000000000000000000000000000000000000000000000000000000008152600401610f05906149f5565b60405180910390fd5b8080610f1990614a15565b915050610e2b565b508061013160008473ffffffffffffffffffffffffffffffffffffffff1673ffffffffffffffffffffffffffffffffffffffff1681526020019081526020016000209080519060200190610f769291906139c9565b508173ffffffffffffffffffffffffffffffffffffffff1661013060008473ffffffffffffffffffffffffffffffffffffffff1673ffffffffffffffffffffffffffffffffffffffff168152602001908152602001600020600001547f6960ba571af043e0b18f153264f6243a10edf4f343ba923ba594b19367172e6e83516040516110029190614420565b60405180910390a35050565b6000609760009054906101000a900460ff16905090565b6101306020528060005260406000206000915090508060000154908060010160009054906101000a900473ffffffffffffffffffffffffffffffffffffffff16908060010160149054906101000a900460ff16908060020154908060030154908060040160009054906101000a900463ffffffff16908060050180546110aa90614a8d565b80601f01602080910402602001604051908101604052809291908181526020018280546110d690614a8d565b80156111235780601f106110f857610100808354040283529160200191611123565b820191906000526020600020905b81548152906001019060200180831161110657829003601f168201915b5050505050905087565b61012e60009054906101000a900473ffffffffffffffffffffffffffffffffffffffff1681565b610132602052816000526040600020602052806000526040600020600091509150505481565b8073ffffffffffffffffffffffffffffffffffffffff166391d148546000801b336040518363ffffffff1660e01b81526004016111b8929190614644565b602060405180830381865afa1580156111d5573d6000803e3d6000fd5b505050506040513d601f19601f820116820180604052508101906111f99190614682565b611238576040517f08c379a000000000000000000000000000000000000000000000000000000000815260040161122f906146fb565b60405180910390fd5b600061013060008373ffffffffffffffffffffffffffffffffffffffff1673ffffffffffffffffffffffffffffffffffffffff16815260200190815260200160002060000154116112be576040517f08c379a00000000000000000000000000000000000000000000000000000000081526004016112b590614934565b60405180910390fd5b600061013060008373ffffffffffffffffffffffffffffffffffffffff1673ffffffffffffffffffffffffffffffffffffffff1681526020019081526020016000206040518060e0016040529081600082015481526020016001820160009054906101000a900473ffffffffffffffffffffffffffffffffffffffff1673ffffffffffffffffffffffffffffffffffffffff1673ffffffffffffffffffffffffffffffffffffffff1681526020016001820160149054906101000a900460ff1615151515815260200160028201548152602001600382015481526020016004820160009054906101000a900463ffffffff1663ffffffff1663ffffffff1681526020016005820180546113d090614a8d565b80601f01602080910402602001604051908101604052809291908181526020018280546113fc90614a8d565b80156114495780601f1061141e57610100808354040283529160200191611449565b820191906000526020600020905b81548152906001019060200180831161142c57829003601f168201915b50505050508152505090508173ffffffffffffffffffffffffffffffffffffffff166336568abe7f9f2df0fed2c77648de5860a4cc508cd0818c85b8b8a1ab4ceeef8d981c8956a6306040518363ffffffff1660e01b81526004016114af929190614644565b600060405180830381600087803b1580156114c957600080fd5b505af11580156114dd573d6000803e3d6000fd5b5050505061013060008373ffffffffffffffffffffffffffffffffffffffff1673ffffffffffffffffffffffffffffffffffffffff1681526020019081526020016000206000808201600090556001820160006101000a81549073ffffffffffffffffffffffffffffffffffffffff02191690556001820160146101000a81549060ff0219169055600282016000905560038201600090556004820160006101000a81549063ffffffff021916905560058201600061159c9190613a16565b50503373ffffffffffffffffffffffffffffffffffffffff1681600001517f3a93b00f5185c98483b85cd1d6acac889a94be997ec45dec3e17088fa20e316e846040516115e99190614abf565b60405180910390a35050565b60006065600084815260200190815260200160002060000160008373ffffffffffffffffffffffffffffffffffffffff1673ffffffffffffffffffffffffffffffffffffffff16815260200190815260200160002060009054906101000a900460ff16905092915050565b6101335481565b6000801b81565b8173ffffffffffffffffffffffffffffffffffffffff16631e51e4a16040518163ffffffff1660e01b8152600401602060405180830381865afa1580156116b9573d6000803e3d6000fd5b505050506040513d601f19601f820116820180604052508101906116dd9190614aef565b8273ffffffffffffffffffffffffffffffffffffffff166318160ddd6040518163ffffffff1660e01b8152600401602060405180830381865afa158015611728573d6000803e3d6000fd5b505050506040513d601f19601f8201168201806040525081019061174c9190614aef565b1061178c576040517f08c379a000000000000000000000000000000000000000000000000000000000815260040161178390614b8e565b60405180910390fd5b600061013060008473ffffffffffffffffffffffffffffffffffffffff1673ffffffffffffffffffffffffffffffffffffffff1681526020019081526020016000206040518060e0016040529081600082015481526020016001820160009054906101000a900473ffffffffffffffffffffffffffffffffffffffff1673ffffffffffffffffffffffffffffffffffffffff1673ffffffffffffffffffffffffffffffffffffffff1681526020016001820160149054906101000a900460ff1615151515815260200160028201548152602001600382015481526020016004820160009054906101000a900463ffffffff1663ffffffff1663ffffffff16815260200160058201805461189e90614a8d565b80601f01602080910402602001604051908101604052809291908181526020018280546118ca90614a8d565b80156119175780601f106118ec57610100808354040283529160200191611917565b820191906000526020600020905b8154815290600101906020018083116118fa57829003601f168201915b50505050508152505090506000816000015111611969576040517f08c379a000000000000000000000000000000000000000000000000000000000815260040161196090614934565b60405180910390fd5b818160600151146119af576040517f08c379a00000000000000000000000000000000000000000000000000000000081526004016119a690614bfa565b60405180910390fd5b60008160a0015163ffffffff161115611b9e578060a0015163ffffffff1661013260008573ffffffffffffffffffffffffffffffffffffffff1673ffffffffffffffffffffffffffffffffffffffff16815260200190815260200160002060003373ffffffffffffffffffffffffffffffffffffffff1673ffffffffffffffffffffffffffffffffffffffff1681526020019081526020016000205410611a8b576040517f08c379a0000000000000000000000000000000000000000000000000000000008152600401611a8290614c66565b60405180910390fd5b611b1c600161013260008673ffffffffffffffffffffffffffffffffffffffff1673ffffffffffffffffffffffffffffffffffffffff16815260200190815260200160002060003373ffffffffffffffffffffffffffffffffffffffff1673ffffffffffffffffffffffffffffffffffffffff16815260200190815260200160002054612a6f90919063ffffffff16565b61013260008573ffffffffffffffffffffffffffffffffffffffff1673ffffffffffffffffffffffffffffffffffffffff16815260200190815260200160002060003373ffffffffffffffffffffffffffffffffffffffff1673ffffffffffffffffffffffffffffffffffffffff168152602001908152602001600020819055505b6000611ba86125dc565b90506000826020015190506000806000856040015115611bdc57611bcb88612a85565b809350819450505060019050611c5a565b60018873ffffffffffffffffffffffffffffffffffffffff166318160ddd6040518163ffffffff1660e01b8152600401602060405180830381865afa158015611c29573d6000803e3d6000fd5b505050506040513d601f19601f82011682018060405250810190611c4d9190614aef565b611c579190614848565b92505b611c7260018760800151612a6f90919063ffffffff16565b8660800181815250508561013060008a73ffffffffffffffffffffffffffffffffffffffff1673ffffffffffffffffffffffffffffffffffffffff1681526020019081526020016000206000820151816000015560208201518160010160006101000a81548173ffffffffffffffffffffffffffffffffffffffff021916908373ffffffffffffffffffffffffffffffffffffffff16021790555060408201518160010160146101000a81548160ff021916908315150217905550606082015181600201556080820151816003015560a08201518160040160006101000a81548163ffffffff021916908363ffffffff16021790555060c0820151816005019080519060200190611d84929190613943565b509050506000806101335411156120e157611dc0620f4240611db2610133548b612be790919063ffffffff16565b612bfd90919063ffffffff16565b90506000611deb6064611ddd602885612be790919063ffffffff16565b612bfd90919063ffffffff16565b90506000611e166064611e08602886612be790919063ffffffff16565b612bfd90919063ffffffff16565b90506000611e416064611e33601487612be790919063ffffffff16565b612bfd90919063ffffffff16565b905061012d60009054906101000a900473ffffffffffffffffffffffffffffffffffffffff1673ffffffffffffffffffffffffffffffffffffffff166379cc67908a856040518363ffffffff1660e01b8152600401611ea1929190614c86565b600060405180830381600087803b158015611ebb57600080fd5b505af1158015611ecf573d6000803e3d6000fd5b5050505061012d60009054906101000a900473ffffffffffffffffffffffffffffffffffffffff1673ffffffffffffffffffffffffffffffffffffffff166323b872dd8a61012e60009054906101000a900473ffffffffffffffffffffffffffffffffffffffff16856040518463ffffffff1660e01b8152600401611f5693929190614caf565b6020604051808303816000875af1158015611f75573d6000803e3d6000fd5b505050506040513d601f19601f82011682018060405250810190611f999190614682565b611fd8576040517f08c379a0000000000000000000000000000000000000000000000000000000008152600401611fcf90614d58565b60405180910390fd5b61012d60009054906101000a900473ffffffffffffffffffffffffffffffffffffffff1673ffffffffffffffffffffffffffffffffffffffff166323b872dd8a61012f60009054906101000a900473ffffffffffffffffffffffffffffffffffffffff16846040518463ffffffff1660e01b815260040161205b93929190614caf565b6020604051808303816000875af115801561207a573d6000803e3d6000fd5b505050506040513d601f19601f8201168201806040525081019061209e9190614682565b6120dd576040517f08c379a00000000000000000000000000000000000000000000000000000000081526004016120d490614dea565b60405180910390fd5b5050505b61012d60009054906101000a900473ffffffffffffffffffffffffffffffffffffffff1673ffffffffffffffffffffffffffffffffffffffff166323b872dd8787612135858d612c1390919063ffffffff16565b6040518463ffffffff1660e01b815260040161215393929190614caf565b6020604051808303816000875af1158015612172573d6000803e3d6000fd5b505050506040513d601f19601f820116820180604052508101906121969190614682565b6121d5576040517f08c379a00000000000000000000000000000000000000000000000000000000081526004016121cc90614e7c565b60405180910390fd5b8873ffffffffffffffffffffffffffffffffffffffff1663a144819487866040518363ffffffff1660e01b8152600401612210929190614c86565b600060405180830381600087803b15801561222a57600080fd5b505af115801561223e573d6000803e3d6000fd5b505050508115612253576122528984612c29565b5b8573ffffffffffffffffffffffffffffffffffffffff1687600001517f70a002e53460416d76925723475c42cc5129fd244b3504bfe5847b01c3166d4d8b8b6040516122a09291906148bf565b60405180910390a3505050505050505050565b61013160205281600052604060002081815481106122d057600080fd5b90600052602060002001600091509150505481565b600060019054906101000a900460ff168061230b575060008054906101000a900460ff16155b61234a576040517f08c379a000000000000000000000000000000000000000000000000000000000815260040161234190614f0e565b60405180910390fd5b60008060019054906101000a900460ff16159050801561239a576001600060016101000a81548160ff02191690831515021790555060016000806101000a81548160ff0219169083151502179055505b6123a2612dda565b6123aa612ec3565b6123b76000801b33612fb4565b6123e17f189ab7a9244df0848122154315af71fe140f3db0fe014031783b0946b8c9d2e333612fb4565b61240b7ff5eb84615c2a00ecaf817d13794ebd6299c9e01c395bf4018453f13f577f544933612fb4565b8461012d60006101000a81548173ffffffffffffffffffffffffffffffffffffffff021916908373ffffffffffffffffffffffffffffffffffffffff1602179055508361012f60006101000a81548173ffffffffffffffffffffffffffffffffffffffff021916908373ffffffffffffffffffffffffffffffffffffffff1602179055508261012e60006101000a81548173ffffffffffffffffffffffffffffffffffffffff021916908373ffffffffffffffffffffffffffffffffffffffff160217905550816101338190555080156124fa5760008060016101000a81548160ff0219169083151502179055505b5050505050565b7f9f2df0fed2c77648de5860a4cc508cd0818c85b8b8a1ab4ceeef8d981c8956a681565b61252e82610791565b61253f8161253a6125dc565b6125e4565b6125498383612762565b505050565b7f189ab7a9244df0848122154315af71fe140f3db0fe014031783b0946b8c9d2e381565b60007f01ffc9a7000000000000000000000000000000000000000000000000000000007bffffffffffffffffffffffffffffffffffffffffffffffffffffffff1916827bffffffffffffffffffffffffffffffffffffffffffffffffffffffff1916149050919050565b600033905090565b6125ee82826115f5565b61267d576126138173ffffffffffffffffffffffffffffffffffffffff166014612fc2565b6126218360001c6020612fc2565b604051602001612632929190615002565b6040516020818303038152906040526040517f08c379a0000000000000000000000000000000000000000000000000000000008152600401612674919061503c565b60405180910390fd5b5050565b61268b82826115f5565b61275e5760016065600084815260200190815260200160002060000160008373ffffffffffffffffffffffffffffffffffffffff1673ffffffffffffffffffffffffffffffffffffffff16815260200190815260200160002060006101000a81548160ff0219169083151502179055506127036125dc565b73ffffffffffffffffffffffffffffffffffffffff168173ffffffffffffffffffffffffffffffffffffffff16837f2f8788117e7eff1d82e926ec794901d17c78024a50270940304540a733656f0d60405160405180910390a45b5050565b61276c82826115f5565b156128405760006065600084815260200190815260200160002060000160008373ffffffffffffffffffffffffffffffffffffffff1673ffffffffffffffffffffffffffffffffffffffff16815260200190815260200160002060006101000a81548160ff0219169083151502179055506127e56125dc565b73ffffffffffffffffffffffffffffffffffffffff168173ffffffffffffffffffffffffffffffffffffffff16837ff6391f5c32d9c69d2a47ea670b442974b53935d1edc7fd64eb21e047a839171b60405160405180910390a45b5050565b7f189ab7a9244df0848122154315af71fe140f3db0fe014031783b0946b8c9d2e3612876816128716125dc565b6125e4565b5050565b60006128846131fe565b905061288f84613255565b60008351118061289c5750815b156128ad576128ab848461330e565b505b60006128db7f4910fdfa16fed3260ed0e7147f7cc6da11a60208b5b9406d12a635614ffd914360001b6133f2565b90508060000160009054906101000a900460ff16612a445760018160000160006101000a81548160ff0219169083151502179055506129a785836040516024016129259190613bd5565b6040516020818303038152906040527f3659cfe6000000000000000000000000000000000000000000000000000000007bffffffffffffffffffffffffffffffffffffffffffffffffffffffff19166020820180517bffffffffffffffffffffffffffffffffffffffffffffffffffffffff838183161783525050505061330e565b5060008160000160006101000a81548160ff0219169083151502179055506129cd6131fe565b73ffffffffffffffffffffffffffffffffffffffff168273ffffffffffffffffffffffffffffffffffffffff1614612a3a576040517f08c379a0000000000000000000000000000000000000000000000000000000008152600401612a31906150d0565b60405180910390fd5b612a43856133fc565b5b5050505050565b600081600001549050919050565b6001816000016000828254019250508190555050565b60008183612a7d9190614848565b905092915050565b600080600061013160008573ffffffffffffffffffffffffffffffffffffffff1673ffffffffffffffffffffffffffffffffffffffff1681526020019081526020016000208054905011612b0e576040517f08c379a0000000000000000000000000000000000000000000000000000000008152600401612b059061513c565b60405180910390fd5b600061013160008573ffffffffffffffffffffffffffffffffffffffff1673ffffffffffffffffffffffffffffffffffffffff168152602001908152602001600020805480602002602001604051908101604052809291908181526020018280548015612b9a57602002820191906000526020600020905b815481526020019060010190808311612b86575b5050505050905060008151612bae8361344b565b612bb8919061518b565b90506000828281518110612bcf57612bce614954565b5b60200260200101519050808294509450505050915091565b60008183612bf591906151bc565b905092915050565b60008183612c0b9190615216565b905092915050565b60008183612c219190615247565b905092915050565b600061013160008473ffffffffffffffffffffffffffffffffffffffff1673ffffffffffffffffffffffffffffffffffffffff1681526020019081526020016000209050600060018280549050612c809190615247565b90506000828281548110612c9757612c96614954565b5b9060005260206000200154905080838581548110612cb857612cb7614954565b5b906000526020600020018190555082805480612cd757612cd661527b565b5b600190038181906000526020600020016000905590558261013160008773ffffffffffffffffffffffffffffffffffffffff1673ffffffffffffffffffffffffffffffffffffffff168152602001908152602001600020908054612d3c929190613a56565b508473ffffffffffffffffffffffffffffffffffffffff1661013060008773ffffffffffffffffffffffffffffffffffffffff1673ffffffffffffffffffffffffffffffffffffffff168152602001908152602001600020600001547f6960ba571af043e0b18f153264f6243a10edf4f343ba923ba594b19367172e6e8580549050604051612dcb9190614420565b60405180910390a35050505050565b600060019054906101000a900460ff1680612e00575060008054906101000a900460ff16155b612e3f576040517f08c379a0000000000000000000000000000000000000000000000000000000008152600401612e3690614f0e565b60405180910390fd5b60008060019054906101000a900460ff161590508015612e8f576001600060016101000a81548160ff02191690831515021790555060016000806101000a81548160ff0219169083151502179055505b612e97613482565b612e9f61355b565b8015612ec05760008060016101000a81548160ff0219169083151502179055505b50565b600060019054906101000a900460ff1680612ee9575060008054906101000a900460ff16155b612f28576040517f08c379a0000000000000000000000000000000000000000000000000000000008152600401612f1f90614f0e565b60405180910390fd5b60008060019054906101000a900460ff161590508015612f78576001600060016101000a81548160ff02191690831515021790555060016000806101000a81548160ff0219169083151502179055505b612f80613634565b612f8861370d565b612f906137e6565b8015612fb15760008060016101000a81548160ff0219169083151502179055505b50565b612fbe8282612681565b5050565b606060006002836002612fd591906151bc565b612fdf9190614848565b67ffffffffffffffff811115612ff857612ff7613eb4565b5b6040519080825280601f01601f19166020018201604052801561302a5781602001600182028036833780820191505090505b5090507f30000000000000000000000000000000000000000000000000000000000000008160008151811061306257613061614954565b5b60200101907effffffffffffffffffffffffffffffffffffffffffffffffffffffffffffff1916908160001a9053507f7800000000000000000000000000000000000000000000000000000000000000816001815181106130c6576130c5614954565b5b60200101907effffffffffffffffffffffffffffffffffffffffffffffffffffffffffffff1916908160001a9053506000600184600261310691906151bc565b6131109190614848565b90505b60018111156131b0577f3031323334353637383961626364656600000000000000000000000000000000600f86166010811061315257613151614954565b5b1a60f81b82828151811061316957613168614954565b5b60200101907effffffffffffffffffffffffffffffffffffffffffffffffffffffffffffff1916908160001a905350600485901c9450806131a9906152aa565b9050613113565b50600084146131f4576040517f08c379a00000000000000000000000000000000000000000000000000000000081526004016131eb90615320565b60405180910390fd5b8091505092915050565b600061322c7f360894a13ba1a3210667c828492db98dca3e2076cc3735a920a3ca505d382bbc60001b6138bf565b60000160009054906101000a900473ffffffffffffffffffffffffffffffffffffffff16905090565b61325e816138c9565b61329d576040517f08c379a0000000000000000000000000000000000000000000000000000000008152600401613294906153b2565b60405180910390fd5b806132ca7f360894a13ba1a3210667c828492db98dca3e2076cc3735a920a3ca505d382bbc60001b6138bf565b60000160006101000a81548173ffffffffffffffffffffffffffffffffffffffff021916908373ffffffffffffffffffffffffffffffffffffffff16021790555050565b6060613319836138c9565b613358576040517f08c379a000000000000000000000000000000000000000000000000000000000815260040161334f90615444565b60405180910390fd5b6000808473ffffffffffffffffffffffffffffffffffffffff168460405161338091906154ab565b600060405180830381855af49150503d80600081146133bb576040519150601f19603f3d011682016040523d82523d6000602084013e6133c0565b606091505b50915091506133e882826040518060600160405280602781526020016155d5602791396138dc565b9250505092915050565b6000819050919050565b61340581613255565b8073ffffffffffffffffffffffffffffffffffffffff167fbc7cd75a20ee27fd9adebab32041f755214dbc6bffa90cc0225b39da2e5c2d3b60405160405180910390a250565b60004442836040516020016134629392919061559b565b6040516020818303038152906040528051906020012060001c9050919050565b600060019054906101000a900460ff16806134a8575060008054906101000a900460ff16155b6134e7576040517f08c379a00000000000000000000000000000000000000000000000000000000081526004016134de90614f0e565b60405180910390fd5b60008060019054906101000a900460ff161590508015613537576001600060016101000a81548160ff02191690831515021790555060016000806101000a81548160ff0219169083151502179055505b80156135585760008060016101000a81548160ff0219169083151502179055505b50565b600060019054906101000a900460ff1680613581575060008054906101000a900460ff16155b6135c0576040517f08c379a00000000000000000000000000000000000000000000000000000000081526004016135b790614f0e565b60405180910390fd5b60008060019054906101000a900460ff161590508015613610576001600060016101000a81548160ff02191690831515021790555060016000806101000a81548160ff0219169083151502179055505b80156136315760008060016101000a81548160ff0219169083151502179055505b50565b600060019054906101000a900460ff168061365a575060008054906101000a900460ff16155b613699576040517f08c379a000000000000000000000000000000000000000000000000000000000815260040161369090614f0e565b60405180910390fd5b60008060019054906101000a900460ff1615905080156136e9576001600060016101000a81548160ff02191690831515021790555060016000806101000a81548160ff0219169083151502179055505b801561370a5760008060016101000a81548160ff0219169083151502179055505b50565b600060019054906101000a900460ff1680613733575060008054906101000a900460ff16155b613772576040517f08c379a000000000000000000000000000000000000000000000000000000000815260040161376990614f0e565b60405180910390fd5b60008060019054906101000a900460ff1615905080156137c2576001600060016101000a81548160ff02191690831515021790555060016000806101000a81548160ff0219169083151502179055505b80156137e35760008060016101000a81548160ff0219169083151502179055505b50565b600060019054906101000a900460ff168061380c575060008054906101000a900460ff16155b61384b576040517f08c379a000000000000000000000000000000000000000000000000000000000815260040161384290614f0e565b60405180910390fd5b60008060019054906101000a900460ff16159050801561389b576001600060016101000a81548160ff02191690831515021790555060016000806101000a81548160ff0219169083151502179055505b80156138bc5760008060016101000a81548160ff0219169083151502179055505b50565b6000819050919050565b600080823b905060008111915050919050565b606083156138ec5782905061393c565b6000835111156138ff5782518084602001fd5b816040517f08c379a0000000000000000000000000000000000000000000000000000000008152600401613933919061503c565b60405180910390fd5b9392505050565b82805461394f90614a8d565b90600052602060002090601f01602090048101928261397157600085556139b8565b82601f1061398a57805160ff19168380011785556139b8565b828001600101855582156139b8579182015b828111156139b757825182559160200191906001019061399c565b5b5090506139c59190613aa8565b5090565b828054828255906000526020600020908101928215613a05579160200282015b82811115613a045782518255916020019190600101906139e9565b5b509050613a129190613aa8565b5090565b508054613a2290614a8d565b6000825580601f10613a345750613a53565b601f016020900490600052602060002090810190613a529190613aa8565b5b50565b828054828255906000526020600020908101928215613a975760005260206000209182015b82811115613a96578254825591600101919060010190613a7b565b5b509050613aa49190613aa8565b5090565b5b80821115613ac1576000816000905550600101613aa9565b5090565b6000604051905090565b600080fd5b600080fd5b60007fffffffff0000000000000000000000000000000000000000000000000000000082169050919050565b613b0e81613ad9565b8114613b1957600080fd5b50565b600081359050613b2b81613b05565b92915050565b600060208284031215613b4757613b46613acf565b5b6000613b5584828501613b1c565b91505092915050565b60008115159050919050565b613b7381613b5e565b82525050565b6000602082019050613b8e6000830184613b6a565b92915050565b600073ffffffffffffffffffffffffffffffffffffffff82169050919050565b6000613bbf82613b94565b9050919050565b613bcf81613bb4565b82525050565b6000602082019050613bea6000830184613bc6565b92915050565b6000819050919050565b613c0381613bf0565b8114613c0e57600080fd5b50565b600081359050613c2081613bfa565b92915050565b600060208284031215613c3c57613c3b613acf565b5b6000613c4a84828501613c11565b91505092915050565b6000819050919050565b613c6681613c53565b8114613c7157600080fd5b50565b600081359050613c8381613c5d565b92915050565b600060208284031215613c9f57613c9e613acf565b5b6000613cad84828501613c74565b91505092915050565b613cbf81613c53565b82525050565b6000602082019050613cda6000830184613cb6565b92915050565b613ce981613bb4565b8114613cf457600080fd5b50565b600081359050613d0681613ce0565b92915050565b60008060408385031215613d2357613d22613acf565b5b6000613d3185828601613c74565b9250506020613d4285828601613cf7565b9150509250929050565b600060208284031215613d6257613d61613acf565b5b6000613d7084828501613cf7565b91505092915050565b6000819050919050565b6000613d9e613d99613d9484613b94565b613d79565b613b94565b9050919050565b6000613db082613d83565b9050919050565b6000613dc282613da5565b9050919050565b613dd281613db7565b82525050565b6000602082019050613ded6000830184613dc9565b92915050565b6000613dfe82613bb4565b9050919050565b613e0e81613df3565b8114613e1957600080fd5b50565b600081359050613e2b81613e05565b92915050565b600063ffffffff82169050919050565b613e4a81613e31565b8114613e5557600080fd5b50565b600081359050613e6781613e41565b92915050565b613e7681613b5e565b8114613e8157600080fd5b50565b600081359050613e9381613e6d565b92915050565b600080fd5b600080fd5b6000601f19601f8301169050919050565b7f4e487b7100000000000000000000000000000000000000000000000000000000600052604160045260246000fd5b613eec82613ea3565b810181811067ffffffffffffffff82111715613f0b57613f0a613eb4565b5b80604052505050565b6000613f1e613ac5565b9050613f2a8282613ee3565b919050565b600067ffffffffffffffff821115613f4a57613f49613eb4565b5b613f5382613ea3565b9050602081019050919050565b82818337600083830152505050565b6000613f82613f7d84613f2f565b613f14565b905082815260208101848484011115613f9e57613f9d613e9e565b5b613fa9848285613f60565b509392505050565b600082601f830112613fc657613fc5613e99565b5b8135613fd6848260208601613f6f565b91505092915050565b600080600080600060a08688031215613ffb57613ffa613acf565b5b600061400988828901613e1c565b955050602061401a88828901613c11565b945050604061402b88828901613e58565b935050606061403c88828901613e84565b925050608086013567ffffffffffffffff81111561405d5761405c613ad4565b5b61406988828901613fb1565b9150509295509295909350565b600067ffffffffffffffff82111561409157614090613eb4565b5b61409a82613ea3565b9050602081019050919050565b60006140ba6140b584614076565b613f14565b9050828152602081018484840111156140d6576140d5613e9e565b5b6140e1848285613f60565b509392505050565b600082601f8301126140fe576140fd613e99565b5b813561410e8482602086016140a7565b91505092915050565b6000806040838503121561412e5761412d613acf565b5b600061413c85828601613cf7565b925050602083013567ffffffffffffffff81111561415d5761415c613ad4565b5b614169858286016140e9565b9150509250929050565b600067ffffffffffffffff82111561418e5761418d613eb4565b5b602082029050602081019050919050565b600080fd5b60006141b76141b284614173565b613f14565b905080838252602082019050602084028301858111156141da576141d961419f565b5b835b8181101561420357806141ef8882613c11565b8452602084019350506020810190506141dc565b5050509392505050565b600082601f83011261422257614221613e99565b5b81356142328482602086016141a4565b91505092915050565b6000806040838503121561425257614251613acf565b5b600061426085828601613e1c565b925050602083013567ffffffffffffffff81111561428157614280613ad4565b5b61428d8582860161420d565b9150509250929050565b6000602082840312156142ad576142ac613acf565b5b60006142bb84828501613e1c565b91505092915050565b6142cd81613bf0565b82525050565b6142dc81613e31565b82525050565b600081519050919050565b600082825260208201905092915050565b60005b8381101561431c578082015181840152602081019050614301565b8381111561432b576000848401525b50505050565b600061433c826142e2565b61434681856142ed565b93506143568185602086016142fe565b61435f81613ea3565b840191505092915050565b600060e08201905061437f600083018a6142c4565b61438c6020830189613bc6565b6143996040830188613b6a565b6143a660608301876142c4565b6143b360808301866142c4565b6143c060a08301856142d3565b81810360c08301526143d28184614331565b905098975050505050505050565b600080604083850312156143f7576143f6613acf565b5b600061440585828601613e1c565b925050602061441685828601613cf7565b9150509250929050565b600060208201905061443560008301846142c4565b92915050565b6000806040838503121561445257614451613acf565b5b600061446085828601613e1c565b925050602061447185828601613c11565b9150509250929050565b600061448682613bb4565b9050919050565b6144968161447b565b81146144a157600080fd5b50565b6000813590506144b38161448d565b92915050565b600080600080608085870312156144d3576144d2613acf565b5b60006144e1878288016144a4565b94505060206144f287828801613cf7565b935050604061450387828801613cf7565b925050606061451487828801613c11565b91505092959194509250565b7f546865206f776e6572206375742073686f756c64206265206265747765656e2060008201527f3020616e64203939392c39393900000000000000000000000000000000000000602082015250565b600061457c602d836142ed565b915061458782614520565b604082019050919050565b600060208201905081810360008301526145ab8161456f565b9050919050565b7f416363657373436f6e74726f6c3a2063616e206f6e6c792072656e6f756e636560008201527f20726f6c657320666f722073656c660000000000000000000000000000000000602082015250565b600061460e602f836142ed565b9150614619826145b2565b604082019050919050565b6000602082019050818103600083015261463d81614601565b9050919050565b60006040820190506146596000830185613cb6565b6146666020830184613bc6565b9392505050565b60008151905061467c81613e6d565b92915050565b60006020828403121561469857614697613acf565b5b60006146a68482850161466d565b91505092915050565b7f556e617574686f72697a65642075736572000000000000000000000000000000600082015250565b60006146e56011836142ed565b91506146f0826146af565b602082019050919050565b60006020820190508181036000830152614714816146d8565b9050919050565b7f4d75737420617574686f72697a6520636f6e7472616374206d696e746572207060008201527f726976696c656765730000000000000000000000000000000000000000000000602082015250565b60006147776029836142ed565b91506147828261471b565b604082019050919050565b600060208201905081810360008301526147a68161476a565b9050919050565b7f416c726561647920657869737473000000000000000000000000000000000000600082015250565b60006147e3600e836142ed565b91506147ee826147ad565b602082019050919050565b60006020820190508181036000830152614812816147d6565b9050919050565b7f4e487b7100000000000000000000000000000000000000000000000000000000600052601160045260246000fd5b600061485382613bf0565b915061485e83613bf0565b9250827fffffffffffffffffffffffffffffffffffffffffffffffffffffffffffffffff0382111561489357614892614819565b5b828201905092915050565b60006148a982613da5565b9050919050565b6148b98161489e565b82525050565b60006040820190506148d460008301856148b0565b6148e160208301846142c4565b9392505050565b7f4e4654206e6f7420666f756e6400000000000000000000000000000000000000600082015250565b600061491e600d836142ed565b9150614929826148e8565b602082019050919050565b6000602082019050818103600083015261494d81614911565b9050919050565b7f4e487b7100000000000000000000000000000000000000000000000000000000600052603260045260246000fd5b7f54686520746f6b656e20696420706f6f6c2065786973747320666f722069647360008201527f20746861742068617665206265656e206d696e74656400000000000000000000602082015250565b60006149df6036836142ed565b91506149ea82614983565b604082019050919050565b60006020820190508181036000830152614a0e816149d2565b9050919050565b6000614a2082613bf0565b91507fffffffffffffffffffffffffffffffffffffffffffffffffffffffffffffffff821415614a5357614a52614819565b5b600182019050919050565b7f4e487b7100000000000000000000000000000000000000000000000000000000600052602260045260246000fd5b60006002820490506001821680614aa557607f821691505b60208210811415614ab957614ab8614a5e565b5b50919050565b6000602082019050614ad460008301846148b0565b92915050565b600081519050614ae981613bfa565b92915050565b600060208284031215614b0557614b04613acf565b5b6000614b1384828501614ada565b91505092915050565b7f457863656564696e6720746865206d6178696d756d20737570706c792071756160008201527f6e74697479000000000000000000000000000000000000000000000000000000602082015250565b6000614b786025836142ed565b9150614b8382614b1c565b604082019050919050565b60006020820190508181036000830152614ba781614b6b565b9050919050565b7f546865207072696365206973206e6f7420636f72726563740000000000000000600082015250565b6000614be46018836142ed565b9150614bef82614bae565b602082019050919050565b60006020820190508181036000830152614c1381614bd7565b9050919050565b7f54726967676572207265737472696374696f6e00000000000000000000000000600082015250565b6000614c506013836142ed565b9150614c5b82614c1a565b602082019050919050565b60006020820190508181036000830152614c7f81614c43565b9050919050565b6000604082019050614c9b6000830185613bc6565b614ca860208301846142c4565b9392505050565b6000606082019050614cc46000830186613bc6565b614cd16020830185613bc6565b614cde60408301846142c4565b949350505050565b7f48616e646c696e6720666565207472616e7366657220746f20666f756e64617460008201527f696f6e57616c6c6574206661696c757265000000000000000000000000000000602082015250565b6000614d426031836142ed565b9150614d4d82614ce6565b604082019050919050565b60006020820190508181036000830152614d7181614d35565b9050919050565b7f48616e646c696e6720666565207472616e7366657220746f206f66666963696160008201527f6c57616c6c657420746f206f6666206661696c75726500000000000000000000602082015250565b6000614dd46036836142ed565b9150614ddf82614d78565b604082019050919050565b60006020820190508181036000830152614e0381614dc7565b9050919050565b7f5472616e73666572696e67207468652073616c6520616d6f756e7420746f207460008201527f68652073656c6c6572206661696c656400000000000000000000000000000000602082015250565b6000614e666030836142ed565b9150614e7182614e0a565b604082019050919050565b60006020820190508181036000830152614e9581614e59565b9050919050565b7f496e697469616c697a61626c653a20636f6e747261637420697320616c72656160008201527f647920696e697469616c697a6564000000000000000000000000000000000000602082015250565b6000614ef8602e836142ed565b9150614f0382614e9c565b604082019050919050565b60006020820190508181036000830152614f2781614eeb565b9050919050565b600081905092915050565b7f416363657373436f6e74726f6c3a206163636f756e7420000000000000000000600082015250565b6000614f6f601783614f2e565b9150614f7a82614f39565b601782019050919050565b6000614f90826142e2565b614f9a8185614f2e565b9350614faa8185602086016142fe565b80840191505092915050565b7f206973206d697373696e6720726f6c6520000000000000000000000000000000600082015250565b6000614fec601183614f2e565b9150614ff782614fb6565b601182019050919050565b600061500d82614f62565b91506150198285614f85565b915061502482614fdf565b91506150308284614f85565b91508190509392505050565b600060208201905081810360008301526150568184614331565b905092915050565b7f45524331393637557067726164653a207570677261646520627265616b73206660008201527f7572746865722075706772616465730000000000000000000000000000000000602082015250565b60006150ba602f836142ed565b91506150c58261505e565b604082019050919050565b600060208201905081810360008301526150e9816150ad565b9050919050565b7f6e667420496e73756666696369656e7420737570706c79000000000000000000600082015250565b60006151266017836142ed565b9150615131826150f0565b602082019050919050565b6000602082019050818103600083015261515581615119565b9050919050565b7f4e487b7100000000000000000000000000000000000000000000000000000000600052601260045260246000fd5b600061519682613bf0565b91506151a183613bf0565b9250826151b1576151b061515c565b5b828206905092915050565b60006151c782613bf0565b91506151d283613bf0565b9250817fffffffffffffffffffffffffffffffffffffffffffffffffffffffffffffffff048311821515161561520b5761520a614819565b5b828202905092915050565b600061522182613bf0565b915061522c83613bf0565b92508261523c5761523b61515c565b5b828204905092915050565b600061525282613bf0565b915061525d83613bf0565b9250828210156152705761526f614819565b5b828203905092915050565b7f4e487b7100000000000000000000000000000000000000000000000000000000600052603160045260246000fd5b60006152b582613bf0565b915060008214156152c9576152c8614819565b5b600182039050919050565b7f537472696e67733a20686578206c656e67746820696e73756666696369656e74600082015250565b600061530a6020836142ed565b9150615315826152d4565b602082019050919050565b60006020820190508181036000830152615339816152fd565b9050919050565b7f455243313936373a206e657720696d706c656d656e746174696f6e206973206e60008201527f6f74206120636f6e747261637400000000000000000000000000000000000000602082015250565b600061539c602d836142ed565b91506153a782615340565b604082019050919050565b600060208201905081810360008301526153cb8161538f565b9050919050565b7f416464726573733a2064656c65676174652063616c6c20746f206e6f6e2d636f60008201527f6e74726163740000000000000000000000000000000000000000000000000000602082015250565b600061542e6026836142ed565b9150615439826153d2565b604082019050919050565b6000602082019050818103600083015261545d81615421565b9050919050565b600081519050919050565b600081905092915050565b600061548582615464565b61548f818561546f565b935061549f8185602086016142fe565b80840191505092915050565b60006154b7828461547a565b915081905092915050565b6000819050919050565b6154dd6154d882613bf0565b6154c2565b82525050565b600081519050919050565b600081905092915050565b6000819050602082019050919050565b61551281613bf0565b82525050565b60006155248383615509565b60208301905092915050565b6000602082019050919050565b6000615548826154e3565b61555281856154ee565b935061555d836154f9565b8060005b8381101561558e5781516155758882615518565b975061558083615530565b925050600181019050615561565b5085935050505092915050565b60006155a782866154cc565b6020820191506155b782856154cc565b6020820191506155c7828461553d565b915081905094935050505056fe416464726573733a206c6f772d6c6576656c2064656c65676174652063616c6c206661696c6564a26469706673582212207ceda29326939b2d0f912f1cbb56b3fb3887ea56397a24cf145820fc8d22993864736f6c634300080a0033",
  "immutableReferences": {},
  "source": "// SPDX-License-Identifier: MIT\npragma solidity ^0.8.9;\n\nimport \"@openzeppelin/contracts-upgradeable/access/AccessControlUpgradeable.sol\";\nimport \"@openzeppelin/contracts-upgradeable/proxy/utils/Initializable.sol\";\nimport \"@openzeppelin/contracts-upgradeable/proxy/utils/UUPSUpgradeable.sol\";\nimport \"@openzeppelin/contracts-upgradeable/utils/CountersUpgradeable.sol\";\nimport \"@openzeppelin/contracts-upgradeable/security/PausableUpgradeable.sol\";\nimport \"@openzeppelin/contracts-upgradeable/utils/math/SafeMathUpgradeable.sol\";\nimport \"./NFTStoreStorage.sol\";\n\n// \n// marketplace. marketplace.\n// NFTmint.\n// NFTStore .\n// NFT.mint.\n\ncontract NFTStore is\n    Initializable,\n    AccessControlUpgradeable,\n    PausableUpgradeable,\n    UUPSUpgradeable,\n    NFTStoreStorage\n{\n    using SafeMathUpgradeable for uint256;\n    using CountersUpgradeable for CountersUpgradeable.Counter;\n    CountersUpgradeable.Counter private itemIdCounters;\n\n    function initialize(\n        // MELD \n        IERC20MELD _acceptedToken,\n        address _officialWallet,\n        address _foundationWallet,\n        uint256 _ownerCutPerMillion\n    ) public initializer {\n        __UUPSUpgradeable_init();\n        __AccessControl_init();\n        _setupRole(DEFAULT_ADMIN_ROLE, msg.sender);\n        _setupRole(UPGRADER_ROLE, msg.sender);\n        _setupRole(GM_ROLE, msg.sender);\n\n        acceptedToken = _acceptedToken;\n        officialWallet = _officialWallet;\n        foundationWallet = _foundationWallet;\n        ownerCutPerMillion = _ownerCutPerMillion;\n    }\n\n    // NFT\n    function createNFT(\n        // nft address\n        IERC721MelandNFT nft,\n        // Purchase Price\n        uint256 priceInWei,\n        // Limit the number of individual wallet purchases\n        // If 0 means no limit\n        uint32 limit,\n        // Whether to turn on restricted token id pool purchase\n        // If restricted, the purchase is randomly given to the player from the id pool\n        bool tokenIdPool,\n        string memory description\n    ) public {\n        require(\n            nft.hasRole(DEFAULT_ADMIN_ROLE, msg.sender),\n            \"Unauthorized user\"\n        );\n        require(\n            nft.hasRole(MINTER_ROLE, address(this)),\n            \"Must authorize contract minter privileges\"\n        );\n        require(itemByNFT[nft].id == 0, \"Already exists\");\n\n        uint256 itemId = itemIdCounters.current() + 1;\n        itemIdCounters.increment();\n\n        itemByNFT[nft] = Item(\n            itemId, \n            msg.sender,\n            tokenIdPool,\n            priceInWei,\n            0,\n            limit,\n            description\n        );\n\n        emit NFTCreated(itemId, msg.sender, nft, priceInWei);\n    }\n\n    function updateTokenIdPool(IERC721MelandNFT nft, uint256[] memory tokenIds)\n        public\n    {\n        require(\n            nft.hasRole(DEFAULT_ADMIN_ROLE, msg.sender),\n            \"Unauthorized user\"\n        );\n        require(itemByNFT[nft].id > 0, \"NFT not found\");\n        for (uint256 i = 0; i < tokenIds.length; i++) {\n            require(\n                nft.checkExists(tokenIds[i]) == false,\n                \"The token id pool exists for ids that have been minted\"\n            );\n        }\n\n        tokenIdsByNFT[nft] = tokenIds;\n\n        emit NFTIdPoolUpdate(itemByNFT[nft].id, nft, tokenIds.length);\n    }\n\n    // NFT\n    function deleteNFT(IERC721MelandNFT nft) public {\n        require(\n            nft.hasRole(DEFAULT_ADMIN_ROLE, msg.sender),\n            \"Unauthorized user\"\n        );\n        require(itemByNFT[nft].id > 0, \"NFT not found\");\n        Item memory item = itemByNFT[nft];\n        // \n        nft.renounceRole(MINTER_ROLE, address(this));\n        delete itemByNFT[nft];\n\n        emit NFTDelete(item.id, msg.sender, nft);\n    }\n\n    function randomIds(uint256[] memory ids) private view returns (uint256) {\n        // sha3 and now have been deprecated\n        return\n            uint256(\n                keccak256(\n                    abi.encodePacked(block.difficulty, block.timestamp, ids)\n                )\n            );\n    }\n\n    function getTokenIdByIdsPool(IERC721MelandNFT nft)\n        private\n        view\n        returns (uint256, uint256)\n    {\n        require(tokenIdsByNFT[nft].length > 0, \"nft Insufficient supply\");\n        uint256[] memory ids = tokenIdsByNFT[nft];\n        uint256 tokenIdIndex = randomIds(ids) % ids.length;\n        uint256 tokenId = ids[tokenIdIndex];\n        return (tokenId, tokenIdIndex);\n    }\n\n    function popTokenIdPoolByTokenIdIndex(\n        IERC721MelandNFT nft,\n        uint256 tokenIdIndex\n    ) private {\n        uint256[] storage ids = tokenIdsByNFT[nft];\n\n        // gas feedsarray\n        // . indexlast\n        // poplast\n        // evmarray\n        uint256 lastTokenIndex = ids.length - 1;\n        uint256 lastTokenId = ids[lastTokenIndex];\n        ids[tokenIdIndex] = lastTokenId;\n        ids.pop();\n        tokenIdsByNFT[nft] = ids;\n\n        emit NFTIdPoolUpdate(itemByNFT[nft].id, nft, ids.length);\n    }\n\n    // \n    // 50000 = 5%\n    // 500000 = 50%\n    function setOwnerCutPerMillion(uint256 _ownerCutPerMillion)\n        public\n        onlyRole(GM_ROLE)\n    {\n        require(\n            _ownerCutPerMillion < 1000000,\n            \"The owner cut should be between 0 and 999,999\"\n        );\n\n        ownerCutPerMillion = _ownerCutPerMillion;\n        emit ChangedOwnerCutPerMillion(ownerCutPerMillion);\n    }\n\n    function buyNFT(IERC721MelandNFT nft, uint256 priceInWei) public {\n        require(\n            nft.totalSupply() < nft.getMintMax(),\n            \"Exceeding the maximum supply quantity\"\n        );\n        Item memory item = itemByNFT[nft];\n        require(item.id > 0, \"NFT not found\");\n        require(item.priceInWei == priceInWei, \"The price is not correct\");\n\n        // If the restriction is turned on\n        if (item.limit > 0) {\n            require(limitPool[nft][msg.sender] < item.limit, \"Trigger restriction\");\n            limitPool[nft][msg.sender] = limitPool[nft][msg.sender].add(1);\n        }\n\n        address sender = _msgSender();\n        address seller = item.seller;\n\n        uint256 tokenId = 0;\n        uint256 tokenIdIndex = 0;\n        bool popTokenIdIndex = false;\n        // token ids pools enable\n        if (item.tokenIdPool) {\n            (tokenId, tokenIdIndex) = getTokenIdByIdsPool(nft);\n            popTokenIdIndex = true;\n        } else {\n            tokenId = nft.totalSupply() + 1;\n        }\n\n        item.sellsCount = item.sellsCount.add(1);\n        itemByNFT[nft] = item;\n\n        uint256 saleShareAmount = 0;\n\n        if (ownerCutPerMillion > 0) {\n            // Calculate sale share\n            saleShareAmount = priceInWei.mul(ownerCutPerMillion).div(1000000);\n\n            // 40% burn in handling fee\n            uint256 burnAmount = saleShareAmount.mul(40).div(100);\n\n            // The other 40% is held by the Foundation\n            uint256 foundationAmount = saleShareAmount.mul(40).div(100);\n\n            // The last 20% are official earnings\n            uint256 officialAmount = saleShareAmount.mul(20).div(100);\n\n            acceptedToken.burnFrom(sender, burnAmount);\n            require(\n                acceptedToken.transferFrom(\n                    sender,\n                    foundationWallet,\n                    foundationAmount\n                ),\n                \"Handling fee transfer to foundationWallet failure\"\n            );\n            require(\n                acceptedToken.transferFrom(\n                    sender,\n                    officialWallet,\n                    officialAmount\n                ),\n                \"Handling fee transfer to officialWallet to off failure\"\n            );\n        }\n\n        // Transfer sale amount to seller\n        require(\n            acceptedToken.transferFrom(\n                sender,\n                seller,\n                priceInWei.sub(saleShareAmount)\n            ),\n            \"Transfering the sale amount to the seller failed\"\n        );\n\n        nft.safeMint(sender, tokenId);\n\n        if (popTokenIdIndex) {\n            popTokenIdPoolByTokenIdIndex(nft, tokenIdIndex);\n        }\n\n        emit NFTBuyed(item.id, sender, nft, priceInWei);\n    }\n\n    function _authorizeUpgrade(address newImplementation)\n        internal\n        override\n        onlyRole(UPGRADER_ROLE)\n    {}\n}\n",
  "sourcePath": "/Users/alberthuang/code/icw/meland/contracts/NFTStore.sol",
  "compiler": {
    "name": "solc",
    "version": "0.8.10+commit.fc410830.Emscripten.clang"
  },
  "schemaVersion": "3.4.3",
  "updatedAt": "2021-11-15T13:41:55.894Z",
  "networkType": "ethereum",
  "devdoc": {
    "kind": "dev",
    "methods": {
      "getRoleAdmin(bytes32)": {
        "details": "Returns the admin role that controls `role`. See {grantRole} and {revokeRole}. To change a role's admin, use {_setRoleAdmin}."
      },
      "grantRole(bytes32,address)": {
        "details": "Grants `role` to `account`. If `account` had not been already granted `role`, emits a {RoleGranted} event. Requirements: - the caller must have ``role``'s admin role."
      },
      "hasRole(bytes32,address)": {
        "details": "Returns `true` if `account` has been granted `role`."
      },
      "paused()": {
        "details": "Returns true if the contract is paused, and false otherwise."
      },
      "renounceRole(bytes32,address)": {
        "details": "Revokes `role` from the calling account. Roles are often managed via {grantRole} and {revokeRole}: this function's purpose is to provide a mechanism for accounts to lose their privileges if they are compromised (such as when a trusted device is misplaced). If the calling account had been granted `role`, emits a {RoleRevoked} event. Requirements: - the caller must be `account`."
      },
      "revokeRole(bytes32,address)": {
        "details": "Revokes `role` from `account`. If `account` had been granted `role`, emits a {RoleRevoked} event. Requirements: - the caller must have ``role``'s admin role."
      },
      "supportsInterface(bytes4)": {
        "details": "See {IERC165-supportsInterface}."
      },
      "upgradeTo(address)": {
        "details": "Upgrade the implementation of the proxy to `newImplementation`. Calls {_authorizeUpgrade}. Emits an {Upgraded} event."
      },
      "upgradeToAndCall(address,bytes)": {
        "details": "Upgrade the implementation of the proxy to `newImplementation`, and subsequently execute the function call encoded in `data`. Calls {_authorizeUpgrade}. Emits an {Upgraded} event."
      }
    },
    "version": 1
  },
  "userdoc": {
    "kind": "user",
    "methods": {},
    "version": 1
  }
}