{
  "contractName": "NFTStore",
  "abi": [
    {
      "anonymous": false,
      "inputs": [
        {
          "indexed": false,
          "internalType": "address",
          "name": "previousAdmin",
          "type": "address"
        },
        {
          "indexed": false,
          "internalType": "address",
          "name": "newAdmin",
          "type": "address"
        }
      ],
      "name": "AdminChanged",
      "type": "event"
    },
    {
      "anonymous": false,
      "inputs": [
        {
          "indexed": true,
          "internalType": "address",
          "name": "beacon",
          "type": "address"
        }
      ],
      "name": "BeaconUpgraded",
      "type": "event"
    },
    {
      "anonymous": false,
      "inputs": [
        {
          "indexed": false,
          "internalType": "uint256",
          "name": "ownerCutPerMillion",
          "type": "uint256"
        }
      ],
      "name": "ChangedOwnerCutPerMillion",
      "type": "event"
    },
    {
      "anonymous": false,
      "inputs": [
        {
          "indexed": true,
          "internalType": "address",
          "name": "buyer",
          "type": "address"
        },
        {
          "indexed": true,
          "internalType": "contract IMelandStoreItems",
          "name": "nftAddress",
          "type": "address"
        },
        {
          "indexed": false,
          "internalType": "string",
          "name": "symbol",
          "type": "string"
        },
        {
          "indexed": false,
          "internalType": "uint256",
          "name": "tokenId",
          "type": "uint256"
        },
        {
          "indexed": false,
          "internalType": "uint256",
          "name": "priceInWei",
          "type": "uint256"
        }
      ],
      "name": "NFTBuyed",
      "type": "event"
    },
    {
      "anonymous": false,
      "inputs": [
        {
          "indexed": false,
          "internalType": "contract IMelandStoreItems",
          "name": "nftAddress",
          "type": "address"
        }
      ],
      "name": "NFTCreated",
      "type": "event"
    },
    {
      "anonymous": false,
      "inputs": [
        {
          "indexed": false,
          "internalType": "contract IMelandStoreItems",
          "name": "nftAddress",
          "type": "address"
        }
      ],
      "name": "NFTDelete",
      "type": "event"
    },
    {
      "anonymous": false,
      "inputs": [
        {
          "indexed": false,
          "internalType": "contract IMelandStoreItems",
          "name": "nftAddress",
          "type": "address"
        },
        {
          "indexed": false,
          "internalType": "bool",
          "name": "checked",
          "type": "bool"
        }
      ],
      "name": "NFTItemUpdate",
      "type": "event"
    },
    {
      "anonymous": false,
      "inputs": [
        {
          "indexed": true,
          "internalType": "bytes32",
          "name": "role",
          "type": "bytes32"
        },
        {
          "indexed": true,
          "internalType": "bytes32",
          "name": "previousAdminRole",
          "type": "bytes32"
        },
        {
          "indexed": true,
          "internalType": "bytes32",
          "name": "newAdminRole",
          "type": "bytes32"
        }
      ],
      "name": "RoleAdminChanged",
      "type": "event"
    },
    {
      "anonymous": false,
      "inputs": [
        {
          "indexed": true,
          "internalType": "bytes32",
          "name": "role",
          "type": "bytes32"
        },
        {
          "indexed": true,
          "internalType": "address",
          "name": "account",
          "type": "address"
        },
        {
          "indexed": true,
          "internalType": "address",
          "name": "sender",
          "type": "address"
        }
      ],
      "name": "RoleGranted",
      "type": "event"
    },
    {
      "anonymous": false,
      "inputs": [
        {
          "indexed": true,
          "internalType": "bytes32",
          "name": "role",
          "type": "bytes32"
        },
        {
          "indexed": true,
          "internalType": "address",
          "name": "account",
          "type": "address"
        },
        {
          "indexed": true,
          "internalType": "address",
          "name": "sender",
          "type": "address"
        }
      ],
      "name": "RoleRevoked",
      "type": "event"
    },
    {
      "anonymous": false,
      "inputs": [
        {
          "indexed": true,
          "internalType": "address",
          "name": "implementation",
          "type": "address"
        }
      ],
      "name": "Upgraded",
      "type": "event"
    },
    {
      "inputs": [],
      "name": "DEFAULT_ADMIN_ROLE",
      "outputs": [
        {
          "internalType": "bytes32",
          "name": "",
          "type": "bytes32"
        }
      ],
      "stateMutability": "view",
      "type": "function",
      "constant": true
    },
    {
      "inputs": [],
      "name": "GM_ROLE",
      "outputs": [
        {
          "internalType": "bytes32",
          "name": "",
          "type": "bytes32"
        }
      ],
      "stateMutability": "view",
      "type": "function",
      "constant": true
    },
    {
      "inputs": [],
      "name": "MINTER_ROLE",
      "outputs": [
        {
          "internalType": "bytes32",
          "name": "",
          "type": "bytes32"
        }
      ],
      "stateMutability": "view",
      "type": "function",
      "constant": true
    },
    {
      "inputs": [],
      "name": "UPGRADER_ROLE",
      "outputs": [
        {
          "internalType": "bytes32",
          "name": "",
          "type": "bytes32"
        }
      ],
      "stateMutability": "view",
      "type": "function",
      "constant": true
    },
    {
      "inputs": [],
      "name": "bidbackWallet",
      "outputs": [
        {
          "internalType": "address",
          "name": "",
          "type": "address"
        }
      ],
      "stateMutability": "view",
      "type": "function",
      "constant": true
    },
    {
      "inputs": [],
      "name": "foundationWallet",
      "outputs": [
        {
          "internalType": "address",
          "name": "",
          "type": "address"
        }
      ],
      "stateMutability": "view",
      "type": "function",
      "constant": true
    },
    {
      "inputs": [
        {
          "internalType": "bytes32",
          "name": "role",
          "type": "bytes32"
        }
      ],
      "name": "getRoleAdmin",
      "outputs": [
        {
          "internalType": "bytes32",
          "name": "",
          "type": "bytes32"
        }
      ],
      "stateMutability": "view",
      "type": "function",
      "constant": true
    },
    {
      "inputs": [
        {
          "internalType": "bytes32",
          "name": "role",
          "type": "bytes32"
        },
        {
          "internalType": "address",
          "name": "account",
          "type": "address"
        }
      ],
      "name": "grantRole",
      "outputs": [],
      "stateMutability": "nonpayable",
      "type": "function"
    },
    {
      "inputs": [
        {
          "internalType": "bytes32",
          "name": "role",
          "type": "bytes32"
        },
        {
          "internalType": "address",
          "name": "account",
          "type": "address"
        }
      ],
      "name": "hasRole",
      "outputs": [
        {
          "internalType": "bool",
          "name": "",
          "type": "bool"
        }
      ],
      "stateMutability": "view",
      "type": "function",
      "constant": true
    },
    {
      "inputs": [
        {
          "internalType": "contract IMelandStoreItems",
          "name": "",
          "type": "address"
        }
      ],
      "name": "itemUploadedMap",
      "outputs": [
        {
          "internalType": "bool",
          "name": "",
          "type": "bool"
        }
      ],
      "stateMutability": "view",
      "type": "function",
      "constant": true
    },
    {
      "inputs": [],
      "name": "officialWallet",
      "outputs": [
        {
          "internalType": "address",
          "name": "",
          "type": "address"
        }
      ],
      "stateMutability": "view",
      "type": "function",
      "constant": true
    },
    {
      "inputs": [],
      "name": "ownerCutPerMillion",
      "outputs": [
        {
          "internalType": "uint256",
          "name": "",
          "type": "uint256"
        }
      ],
      "stateMutability": "view",
      "type": "function",
      "constant": true
    },
    {
      "inputs": [
        {
          "internalType": "bytes32",
          "name": "role",
          "type": "bytes32"
        },
        {
          "internalType": "address",
          "name": "account",
          "type": "address"
        }
      ],
      "name": "renounceRole",
      "outputs": [],
      "stateMutability": "nonpayable",
      "type": "function"
    },
    {
      "inputs": [
        {
          "internalType": "bytes32",
          "name": "role",
          "type": "bytes32"
        },
        {
          "internalType": "address",
          "name": "account",
          "type": "address"
        }
      ],
      "name": "revokeRole",
      "outputs": [],
      "stateMutability": "nonpayable",
      "type": "function"
    },
    {
      "inputs": [
        {
          "internalType": "bytes4",
          "name": "interfaceId",
          "type": "bytes4"
        }
      ],
      "name": "supportsInterface",
      "outputs": [
        {
          "internalType": "bool",
          "name": "",
          "type": "bool"
        }
      ],
      "stateMutability": "view",
      "type": "function",
      "constant": true
    },
    {
      "inputs": [
        {
          "internalType": "address",
          "name": "newImplementation",
          "type": "address"
        }
      ],
      "name": "upgradeTo",
      "outputs": [],
      "stateMutability": "nonpayable",
      "type": "function"
    },
    {
      "inputs": [
        {
          "internalType": "address",
          "name": "newImplementation",
          "type": "address"
        },
        {
          "internalType": "bytes",
          "name": "data",
          "type": "bytes"
        }
      ],
      "name": "upgradeToAndCall",
      "outputs": [],
      "stateMutability": "payable",
      "type": "function",
      "payable": true
    },
    {
      "inputs": [
        {
          "internalType": "address",
          "name": "_officialWallet",
          "type": "address"
        },
        {
          "internalType": "address",
          "name": "_foundationWallet",
          "type": "address"
        },
        {
          "internalType": "address",
          "name": "_bidbackWallet",
          "type": "address"
        },
        {
          "internalType": "uint256",
          "name": "_ownerCutPerMillion",
          "type": "uint256"
        }
      ],
      "name": "initialize",
      "outputs": [],
      "stateMutability": "nonpayable",
      "type": "function"
    },
    {
      "inputs": [
        {
          "internalType": "contract IMelandStoreItems",
          "name": "nft",
          "type": "address"
        }
      ],
      "name": "createNFT",
      "outputs": [],
      "stateMutability": "nonpayable",
      "type": "function"
    },
    {
      "inputs": [
        {
          "internalType": "contract IMelandStoreItems",
          "name": "nft",
          "type": "address"
        }
      ],
      "name": "removedNFT",
      "outputs": [],
      "stateMutability": "nonpayable",
      "type": "function"
    },
    {
      "inputs": [
        {
          "internalType": "contract IMelandStoreItems",
          "name": "nft",
          "type": "address"
        }
      ],
      "name": "updateNFTItemInfo",
      "outputs": [],
      "stateMutability": "nonpayable",
      "type": "function"
    },
    {
      "inputs": [
        {
          "internalType": "uint256",
          "name": "_ownerCutPerMillion",
          "type": "uint256"
        }
      ],
      "name": "setOwnerCutPerMillion",
      "outputs": [],
      "stateMutability": "nonpayable",
      "type": "function"
    },
    {
      "inputs": [
        {
          "internalType": "contract IMelandStoreItems",
          "name": "nft",
          "type": "address"
        },
        {
          "internalType": "string",
          "name": "symbol",
          "type": "string"
        },
        {
          "internalType": "uint256",
          "name": "priceInWei",
          "type": "uint256"
        }
      ],
      "name": "buyNFT",
      "outputs": [],
      "stateMutability": "nonpayable",
      "type": "function"
    }
  ],
  "bytecode": "0x60a06040523060805234801561001457600080fd5b506080516128f7610045600039600081816113570152818161139701528181611420015261146001526128f76000f3fe6080604052600436106101405760003560e01c80634f1ef286116100b6578063cf756fdf1161006f578063cf756fdf14610392578063d5391393146103b2578063d547741f146103e6578063eaf3717014610406578063f72c0d8b14610437578063fa21a11d1461046b57600080fd5b80634f1ef286146102f45780636b7ae8dc1461030757806391d1485414610327578063a01f79d414610347578063a217fddf1461035d578063aabbd1171461037257600080fd5b8063248a9ca311610108578063248a9ca3146102145780632f2ff15d1461025257806330c7be2c14610272578063355568db1461029457806336568abe146102b45780633659cfe6146102d457600080fd5b806301ffc9a714610145578063088025d31461017a57806317e5883c146101b257806319dad16d146101d4578063242e5cab146101f4575b600080fd5b34801561015157600080fd5b5061016561016036600461203f565b61048b565b60405190151581526020015b60405180910390f35b34801561018657600080fd5b5060fc5461019a906001600160a01b031681565b6040516001600160a01b039091168152602001610171565b3480156101be57600080fd5b506101d26101cd36600461207e565b6104c2565b005b3480156101e057600080fd5b506101d26101ef36600461209b565b610586565b34801561020057600080fd5b506101d261020f366004612161565b610644565b34801561022057600080fd5b5061024461022f36600461209b565b60009081526065602052604090206001015490565b604051908152602001610171565b34801561025e57600080fd5b506101d261026d3660046121ce565b6111dc565b34801561027e57600080fd5b506102446000805160206128a283398151915281565b3480156102a057600080fd5b506101d26102af36600461207e565b611207565b3480156102c057600080fd5b506101d26102cf3660046121ce565b6112ce565b3480156102e057600080fd5b506101d26102ef36600461207e565b61134c565b6101d26103023660046121fe565b611415565b34801561031357600080fd5b5060fb5461019a906001600160a01b031681565b34801561033357600080fd5b506101656103423660046121ce565b6114cb565b34801561035357600080fd5b5061024460fe5481565b34801561036957600080fd5b50610244600081565b34801561037e57600080fd5b5060fd5461019a906001600160a01b031681565b34801561039e57600080fd5b506101d26103ad366004612262565b6114f6565b3480156103be57600080fd5b506102447f9f2df0fed2c77648de5860a4cc508cd0818c85b8b8a1ab4ceeef8d981c8956a681565b3480156103f257600080fd5b506101d26104013660046121ce565b6115b8565b34801561041257600080fd5b5061016561042136600461207e565b60ff602081905260009182526040909120541681565b34801561044357600080fd5b506102447f189ab7a9244df0848122154315af71fe140f3db0fe014031783b0946b8c9d2e381565b34801561047757600080fd5b506101d261048636600461207e565b6115de565b60006001600160e01b03198216637965db0b60e01b14806104bc57506301ffc9a760e01b6001600160e01b03198316145b92915050565b6104cb8161164a565b6001600160a01b038116600090815260ff6020819052604090912054161561052b5760405162461bcd60e51b815260206004820152600e60248201526d416c72656164792065786973747360901b60448201526064015b60405180910390fd5b6001600160a01b038116600081815260ff6020908152604091829020805460ff1916600117905590519182527f3754da1a98214dd62255f52efe5c8d68ba410e5c19339cc7883a5fba3df0adf291015b60405180910390a150565b6000805160206128a283398151915261059f813361169f565b620f424082106106075760405162461bcd60e51b815260206004820152602d60248201527f546865206f776e6572206375742073686f756c64206265206265747765656e2060448201526c3020616e64203939392c39393960981b6064820152608401610522565b60fe8290556040518281527ffa406a120a9e7f2b332bfb7a43d3bf1c3f079262202907a6b69c94b2821a02c6906020015b60405180910390a15050565b6001600160a01b038316600090815260ff60208190526040909120543391166106a25760405162461bcd60e51b815260206004820152601060248201526f139195081b9bdd081d5c1b1bd859195960821b6044820152606401610522565b6106ab8461164a565b60008080866001600160a01b0316638b31e62d6040518163ffffffff1660e01b815260040160006040518083038186803b1580156106e857600080fd5b505afa1580156106fc573d6000803e3d6000fd5b505050506040513d6000823e601f3d908101601f19168201604052610724919081019061236d565b9150915060005b82518110156107875761076883828151811061074957610749612475565b6020026020010151888051602091820120825192909101919091201490565b1561077557809350610787565b8061077f816124a1565b91505061072b565b50604051631ba43d2b60e01b81526001600160a01b03881690631ba43d2b906107b49089906004016124e8565b602060405180830381600087803b1580156107ce57600080fd5b505af11580156107e2573d6000803e3d6000fd5b505050506040513d601f19601f820116820180604052508101906108069190612510565b6108635760405162461bcd60e51b815260206004820152602860248201527f4d65726368616e6469736520686173206265656e2073757370656e6465642066604482015267726f6d2073616c6560c01b6064820152608401610522565b60008311806108a257506108a28260008151811061088357610883612475565b6020026020010151878051602091820120825192909101919091201490565b6108e35760405162461bcd60e51b815260206004820152601260248201527173796d626f6c206973206e6f742073616c6560701b6044820152606401610522565b848184815181106108f6576108f6612475565b60200260200101511461094b5760405162461bcd60e51b815260206004820152601860248201527f546865207072696365206973206e6f7420636f727265637400000000000000006044820152606401610522565b5050600080866001600160a01b0316630820c90d876040518263ffffffff1660e01b815260040161097c91906124e8565b604080518083038186803b15801561099357600080fd5b505afa1580156109a7573d6000803e3d6000fd5b505050506040513d601f19601f820116820180604052508101906109cb919061252b565b915091508115610a7e57806109e1888887611703565b1081604051602001610a4591907f457863656564656420746865206d6178696d756d206c696d697420746861742081527f6561636820706572736f6e2063616e20707572636861736520280000000000006020820152603a810191909152605a0190565b60405160208183030381529060405290610a725760405162461bcd60e51b815260040161052291906124e8565b50610a7e87878661172c565b505060405163664033d560e01b81526000906001600160a01b0387169063664033d590610aaf9088906004016124e8565b60206040518083038186803b158015610ac757600080fd5b505afa158015610adb573d6000803e3d6000fd5b505050506040513d601f19601f82011682018060405250810190610aff9190612557565b905060008080886001600160a01b0316639f89e769896040518263ffffffff1660e01b8152600401610b3191906124e8565b60006040518083038186803b158015610b4957600080fd5b505afa158015610b5d573d6000803e3d6000fd5b505050506040513d6000823e601f3d908101601f19168201604052610b859190810190612574565b915091508115610c12576000815111610bf45760405162461bcd60e51b815260206004820152602b60248201527f496e73756666696369656e74207175616e74697479206f662073616c6561626c60448201526a6520696e76656e746f727960a81b6064820152608401610522565b80600081518110610c0757610c07612475565b602002602001015192505b60405163fcc6dd5760e01b81526000906001600160a01b038b169063fcc6dd5790610c41908c906004016124e8565b60206040518083038186803b158015610c5957600080fd5b505afa158015610c6d573d6000803e3d6000fd5b505050506040513d601f19601f82011682018060405250810190610c919190612557565b905060008060fe54111561102f57610cc1620f4240610cbb60fe548c61176b90919063ffffffff16565b90611777565b90506000610cd56064610cbb84602861176b565b90506000610ce96064610cbb85602861176b565b90506000610cfd6064610cbb86601461176b565b60405163079cc67960e41b81526001600160a01b038d811660048301526024820186905291925086918216906379cc679090604401600060405180830381600087803b158015610d4c57600080fd5b505af1925050508015610d5d575060015b610e2b573d808015610d8b576040519150601f19603f3d011682016040523d82523d6000602084013e610d90565b606091505b50866001600160a01b03166323b872dd8e60fd60009054906101000a90046001600160a01b0316886040518463ffffffff1660e01b8152600401610dd6939291906125b8565b602060405180830381600087803b158015610df057600080fd5b505af1158015610e04573d6000803e3d6000fd5b505050506040513d601f19601f82011682018060405250810190610e289190612510565b50505b50846001600160a01b03166323b872dd8c60fb60009054906101000a90046001600160a01b0316856040518463ffffffff1660e01b8152600401610e71939291906125b8565b602060405180830381600087803b158015610e8b57600080fd5b505af1158015610e9f573d6000803e3d6000fd5b505050506040513d601f19601f82011682018060405250810190610ec39190612510565b610f295760405162461bcd60e51b815260206004820152603160248201527f48616e646c696e6720666565207472616e7366657220746f20666f756e646174604482015270696f6e57616c6c6574206661696c75726560781b6064820152608401610522565b846001600160a01b03166323b872dd8c60fc60009054906101000a90046001600160a01b0316846040518463ffffffff1660e01b8152600401610f6e939291906125b8565b602060405180830381600087803b158015610f8857600080fd5b505af1158015610f9c573d6000803e3d6000fd5b505050506040513d601f19601f82011682018060405250810190610fc09190612510565b61102b5760405162461bcd60e51b815260206004820152603660248201527f48616e646c696e6720666565207472616e7366657220746f206f6666696369616044820152756c57616c6c657420746f206f6666206661696c75726560501b6064820152608401610522565b5050505b6001600160a01b0382166323b872dd898861104a8d86611783565b6040518463ffffffff1660e01b8152600401611068939291906125b8565b602060405180830381600087803b15801561108257600080fd5b505af1158015611096573d6000803e3d6000fd5b505050506040513d601f19601f820116820180604052508101906110ba9190612510565b61111f5760405162461bcd60e51b815260206004820152603060248201527f5472616e73666572696e67207468652073616c6520616d6f756e7420746f207460448201526f1a19481cd95b1b195c8819985a5b195960821b6064820152608401610522565b6040516235185d60e71b81526001600160a01b038c1690631a8c2e809061114e908d9089908d906004016125dc565b600060405180830381600087803b15801561116857600080fd5b505af115801561117c573d6000803e3d6000fd5b505050508a6001600160a01b0316886001600160a01b03167f3e296c9cc76153953bfca1fe13a14dc0aee5534fa1331116a964f12fad80353d8c888d6040516111c79392919061260f565b60405180910390a35050505050505050505050565b6000828152606560205260409020600101546111f8813361169f565b611202838361178f565b505050565b6000805160206128a2833981519152611220813361169f565b6001600160a01b038216600090815260ff6020819052604090912054161561127d5760405162461bcd60e51b815260206004820152601060248201526f139195081b9bdd081d5c1b185bd9195960821b6044820152606401610522565b6001600160a01b038216600081815260ff6020908152604091829020805460ff1916905590519182527f06f409384c0d94d2cd9598077ce98c1d0ce08bdc8c53667ca6d2c1878f8bd3849101610638565b6001600160a01b038116331461133e5760405162461bcd60e51b815260206004820152602f60248201527f416363657373436f6e74726f6c3a2063616e206f6e6c792072656e6f756e636560448201526e103937b632b9903337b91039b2b63360891b6064820152608401610522565b6113488282611815565b5050565b306001600160a01b037f00000000000000000000000000000000000000000000000000000000000000001614156113955760405162461bcd60e51b815260040161052290612634565b7f00000000000000000000000000000000000000000000000000000000000000006001600160a01b03166113c761187c565b6001600160a01b0316146113ed5760405162461bcd60e51b815260040161052290612680565b6113f6816118aa565b60408051600080825260208201909252611412918391906118d5565b50565b306001600160a01b037f000000000000000000000000000000000000000000000000000000000000000016141561145e5760405162461bcd60e51b815260040161052290612634565b7f00000000000000000000000000000000000000000000000000000000000000006001600160a01b031661149061187c565b6001600160a01b0316146114b65760405162461bcd60e51b815260040161052290612680565b6114bf826118aa565b611348828260016118d5565b60009182526065602090815260408084206001600160a01b0393909316845291905290205460ff1690565b600054610100900460ff168061150f575060005460ff16155b61152b5760405162461bcd60e51b8152600401610522906126cc565b600054610100900460ff1615801561154d576000805461ffff19166101011790555b611555611a19565b61155d611a94565b60fc80546001600160a01b038088166001600160a01b03199283161790925560fb805487841690831617905560fd80549286169290911691909117905560fe82905580156115b1576000805461ff00191690555b5050505050565b6000828152606560205260409020600101546115d4813361169f565b6112028383611815565b6001600160a01b038116600090815260ff60208190526040909120541615611412577fc792cdc7e2492613f3b1272b47afdfc0db66ee85b9fde5d34790f4f02b21f1838161162b83611b15565b604080516001600160a01b03909316835290151560208301520161057b565b61165381611b15565b6114125760405162461bcd60e51b815260206004820152601960248201527f50726f647563742063616c6962726174696f6e206572726f72000000000000006044820152606401610522565b6116a982826114cb565b611348576116c1816001600160a01b03166014611b9b565b6116cc836020611b9b565b6040516020016116dd92919061271a565b60408051601f198184030181529082905262461bcd60e51b8252610522916004016124e8565b600080611711858585611d37565b600090815261010060205260409020549150505b9392505050565b6000611739848484611d37565b9050600161010060008381526020019081526020016000206000828254611760919061278f565b909155505050505050565b600061172582846127a7565b600061172582846127c6565b600061172582846127e8565b61179982826114cb565b6113485760008281526065602090815260408083206001600160a01b03851684529091529020805460ff191660011790556117d13390565b6001600160a01b0316816001600160a01b0316837f2f8788117e7eff1d82e926ec794901d17c78024a50270940304540a733656f0d60405160405180910390a45050565b61181f82826114cb565b156113485760008281526065602090815260408083206001600160a01b0385168085529252808320805460ff1916905551339285917ff6391f5c32d9c69d2a47ea670b442974b53935d1edc7fd64eb21e047a839171b9190a45050565b7f360894a13ba1a3210667c828492db98dca3e2076cc3735a920a3ca505d382bbc546001600160a01b031690565b7f189ab7a9244df0848122154315af71fe140f3db0fe014031783b0946b8c9d2e3611348813361169f565b60006118df61187c565b90506118ea84611d6d565b6000835111806118f75750815b15611908576119068484611e12565b505b7f4910fdfa16fed3260ed0e7147f7cc6da11a60208b5b9406d12a635614ffd9143805460ff166115b157805460ff191660011781556040516001600160a01b038316602482015261198790869060440160408051601f198184030181529190526020810180516001600160e01b0316631b2ce7f360e11b179052611e12565b50805460ff1916815561199861187c565b6001600160a01b0316826001600160a01b031614611a105760405162461bcd60e51b815260206004820152602f60248201527f45524331393637557067726164653a207570677261646520627265616b73206660448201526e75727468657220757067726164657360881b6064820152608401610522565b6115b185611efd565b600054610100900460ff1680611a32575060005460ff16155b611a4e5760405162461bcd60e51b8152600401610522906126cc565b600054610100900460ff16158015611a70576000805461ffff19166101011790555b611a78611f3d565b611a80611f3d565b8015611412576000805461ff001916905550565b611a9c611fa7565b611aa760003361178f565b611abf6000805160206128a28339815191523361178f565b611ae97f9f2df0fed2c77648de5860a4cc508cd0818c85b8b8a1ab4ceeef8d981c8956a63361178f565b611b137f189ab7a9244df0848122154315af71fe140f3db0fe014031783b0946b8c9d2e33361178f565b565b6000806000836001600160a01b0316638b31e62d6040518163ffffffff1660e01b815260040160006040518083038186803b158015611b5357600080fd5b505afa158015611b67573d6000803e3d6000fd5b505050506040513d6000823e601f3d908101601f19168201604052611b8f919081019061236d565b51905114949350505050565b60606000611baa8360026127a7565b611bb590600261278f565b67ffffffffffffffff811115611bcd57611bcd6120b4565b6040519080825280601f01601f191660200182016040528015611bf7576020820181803683370190505b509050600360fc1b81600081518110611c1257611c12612475565b60200101906001600160f81b031916908160001a905350600f60fb1b81600181518110611c4157611c41612475565b60200101906001600160f81b031916908160001a9053506000611c658460026127a7565b611c7090600161278f565b90505b6001811115611ce8576f181899199a1a9b1b9c1cb0b131b232b360811b85600f1660108110611ca457611ca4612475565b1a60f81b828281518110611cba57611cba612475565b60200101906001600160f81b031916908160001a90535060049490941c93611ce1816127ff565b9050611c73565b5083156117255760405162461bcd60e51b815260206004820181905260248201527f537472696e67733a20686578206c656e67746820696e73756666696369656e746044820152606401610522565b6000838383604051602001611d4e93929190612816565b6040516020818303038152906040528051906020012090509392505050565b803b611dd15760405162461bcd60e51b815260206004820152602d60248201527f455243313936373a206e657720696d706c656d656e746174696f6e206973206e60448201526c1bdd08184818dbdb9d1c9858dd609a1b6064820152608401610522565b7f360894a13ba1a3210667c828492db98dca3e2076cc3735a920a3ca505d382bbc80546001600160a01b0319166001600160a01b0392909216919091179055565b6060823b611e715760405162461bcd60e51b815260206004820152602660248201527f416464726573733a2064656c65676174652063616c6c20746f206e6f6e2d636f6044820152651b9d1c9858dd60d21b6064820152608401610522565b600080846001600160a01b031684604051611e8c919061285e565b600060405180830381855af49150503d8060008114611ec7576040519150601f19603f3d011682016040523d82523d6000602084013e611ecc565b606091505b5091509150611ef4828260405180606001604052806027815260200161287b60279139612006565b95945050505050565b611f0681611d6d565b6040516001600160a01b038216907fbc7cd75a20ee27fd9adebab32041f755214dbc6bffa90cc0225b39da2e5c2d3b90600090a250565b600054610100900460ff1680611f56575060005460ff16155b611f725760405162461bcd60e51b8152600401610522906126cc565b600054610100900460ff16158015611a80576000805461ffff19166101011790558015611412576000805461ff001916905550565b600054610100900460ff1680611fc0575060005460ff16155b611fdc5760405162461bcd60e51b8152600401610522906126cc565b600054610100900460ff16158015611ffe576000805461ffff19166101011790555b611a70611f3d565b60608315612015575081611725565b8251156120255782518084602001fd5b8160405162461bcd60e51b815260040161052291906124e8565b60006020828403121561205157600080fd5b81356001600160e01b03198116811461172557600080fd5b6001600160a01b038116811461141257600080fd5b60006020828403121561209057600080fd5b813561172581612069565b6000602082840312156120ad57600080fd5b5035919050565b634e487b7160e01b600052604160045260246000fd5b604051601f8201601f1916810167ffffffffffffffff811182821017156120f3576120f36120b4565b604052919050565b600067ffffffffffffffff821115612115576121156120b4565b50601f01601f191660200190565b6000612136612131846120fb565b6120ca565b905082815283838301111561214a57600080fd5b828260208301376000602084830101529392505050565b60008060006060848603121561217657600080fd5b833561218181612069565b9250602084013567ffffffffffffffff81111561219d57600080fd5b8401601f810186136121ae57600080fd5b6121bd86823560208401612123565b925050604084013590509250925092565b600080604083850312156121e157600080fd5b8235915060208301356121f381612069565b809150509250929050565b6000806040838503121561221157600080fd5b823561221c81612069565b9150602083013567ffffffffffffffff81111561223857600080fd5b8301601f8101851361224957600080fd5b61225885823560208401612123565b9150509250929050565b6000806000806080858703121561227857600080fd5b843561228381612069565b9350602085013561229381612069565b925060408501356122a381612069565b9396929550929360600135925050565b600067ffffffffffffffff8211156122cd576122cd6120b4565b5060051b60200190565b60005b838110156122f25781810151838201526020016122da565b83811115612301576000848401525b50505050565b600082601f83011261231857600080fd5b81516020612328612131836122b3565b82815260059290921b8401810191818101908684111561234757600080fd5b8286015b84811015612362578051835291830191830161234b565b509695505050505050565b600080604080848603121561238157600080fd5b835167ffffffffffffffff8082111561239957600080fd5b818601915086601f8301126123ad57600080fd5b815160206123bd612131836122b3565b82815260059290921b8401810191818101908a8411156123dc57600080fd5b8286015b8481101561244d578051868111156123f85760008081fd5b8701603f81018d1361240a5760008081fd5b8481015161241a612131826120fb565b8181528e8b83850101111561242f5760008081fd5b61243e828883018d86016122d7565b855250509183019183016123e0565b509189015191975090945050508083111561246757600080fd5b505061225885828601612307565b634e487b7160e01b600052603260045260246000fd5b634e487b7160e01b600052601160045260246000fd5b60006000198214156124b5576124b561248b565b5060010190565b600081518084526124d48160208601602086016122d7565b601f01601f19169290920160200192915050565b60208152600061172560208301846124bc565b8051801515811461250b57600080fd5b919050565b60006020828403121561252257600080fd5b611725826124fb565b6000806040838503121561253e57600080fd5b612547836124fb565b9150602083015190509250929050565b60006020828403121561256957600080fd5b815161172581612069565b6000806040838503121561258757600080fd5b612590836124fb565b9150602083015167ffffffffffffffff8111156125ac57600080fd5b61225885828601612307565b6001600160a01b039384168152919092166020820152604081019190915260600190565b6060815260006125ef60608301866124bc565b6020830194909452506001600160a01b0391909116604090910152919050565b60608152600061262260608301866124bc565b60208301949094525060400152919050565b6020808252602c908201527f46756e6374696f6e206d7573742062652063616c6c6564207468726f7567682060408201526b19195b1959d85d1958d85b1b60a21b606082015260800190565b6020808252602c908201527f46756e6374696f6e206d7573742062652063616c6c6564207468726f7567682060408201526b6163746976652070726f787960a01b606082015260800190565b6020808252602e908201527f496e697469616c697a61626c653a20636f6e747261637420697320616c72656160408201526d191e481a5b9a5d1a585b1a5e995960921b606082015260800190565b7f416363657373436f6e74726f6c3a206163636f756e74200000000000000000008152600083516127528160178501602088016122d7565b7001034b99036b4b9b9b4b733903937b6329607d1b60179184019182015283516127838160288401602088016122d7565b01602801949350505050565b600082198211156127a2576127a261248b565b500190565b60008160001904831182151516156127c1576127c161248b565b500290565b6000826127e357634e487b7160e01b600052601260045260246000fd5b500490565b6000828210156127fa576127fa61248b565b500390565b60008161280e5761280e61248b565b506000190190565b60006bffffffffffffffffffffffff19808660601b16835284516128418160148601602089016122d7565b60609490941b169190920160148101919091526028019392505050565b600082516128708184602087016122d7565b919091019291505056fe416464726573733a206c6f772d6c6576656c2064656c65676174652063616c6c206661696c6564f5eb84615c2a00ecaf817d13794ebd6299c9e01c395bf4018453f13f577f5449a26469706673582212200e26b8fff64c1ab1a0c551b5505bac4fb9feb22ab7b29a0042824787ccd2d6b564736f6c63430008090033",
  "immutableReferences": {
    "1023": [
      {
        "length": 32,
        "start": 4951
      },
      {
        "length": 32,
        "start": 5015
      },
      {
        "length": 32,
        "start": 5152
      },
      {
        "length": 32,
        "start": 5216
      }
    ]
  },
  "source": "// SPDX-License-Identifier: MIT\npragma solidity 0.8.9;\n\nimport \"@openzeppelin/contracts-upgradeable/access/AccessControlUpgradeable.sol\";\nimport \"@openzeppelin/contracts-upgradeable/proxy/utils/Initializable.sol\";\nimport \"@openzeppelin/contracts-upgradeable/proxy/utils/UUPSUpgradeable.sol\";\nimport \"@openzeppelin/contracts-upgradeable/utils/CountersUpgradeable.sol\";\nimport \"@openzeppelin/contracts-upgradeable/security/PausableUpgradeable.sol\";\nimport \"@openzeppelin/contracts-upgradeable/token/ERC20/IERC20Upgradeable.sol\";\nimport \"@openzeppelin/contracts-upgradeable/utils/math/SafeMathUpgradeable.sol\";\nimport \"./NFTStoreStorage.sol\";\nimport \"./MelandAccessRoles.sol\";\nimport \"./IMELD.sol\";\n\ncontract NFTStore is\n    Initializable,\n    MelandAccessRoles,\n    UUPSUpgradeable,\n    NFTStoreStorage\n{\n    using SafeMathUpgradeable for uint256;\n    using CountersUpgradeable for CountersUpgradeable.Counter;\n    CountersUpgradeable.Counter private itemIdCounters;\n\n    function initialize(\n        address _officialWallet,\n        address _foundationWallet,\n        address _bidbackWallet,\n        uint256 _ownerCutPerMillion\n    ) public initializer {\n        __UUPSUpgradeable_init();\n        __MelandAccessRoles_init();\n        officialWallet = _officialWallet;\n        foundationWallet = _foundationWallet;\n        bidbackWallet = _bidbackWallet;\n        ownerCutPerMillion = _ownerCutPerMillion;\n    }\n\n    // Uploaded new NFT sale\n    function createNFT(IMelandStoreItems nft) public {\n        _checkStoreItems(nft);\n        require(!itemUploadedMap[nft], \"Already exists\");\n        itemUploadedMap[nft] = true;\n        emit NFTCreated(nft);\n    }\n\n    // NFT\n    function removedNFT(IMelandStoreItems nft) external onlyRole(GM_ROLE) {\n        require(!itemUploadedMap[nft], \"NFT not uplaoded\");\n        itemUploadedMap[nft] = false;\n        emit NFTDelete(nft);\n    }\n\n    function updateNFTItemInfo(IMelandStoreItems nft) external {\n        if (itemUploadedMap[nft]) {\n            emit NFTItemUpdate(nft, _tryCheckStoreItems(nft));\n        }\n    }\n\n    // \n    // 50000 = 5%\n    // 500000 = 50%\n    function setOwnerCutPerMillion(uint256 _ownerCutPerMillion)\n        public\n        onlyRole(GM_ROLE)\n    {\n        require(\n            _ownerCutPerMillion < 1000000,\n            \"The owner cut should be between 0 and 999,999\"\n        );\n\n        ownerCutPerMillion = _ownerCutPerMillion;\n        emit ChangedOwnerCutPerMillion(ownerCutPerMillion);\n    }\n\n    function _tryCheckStoreItems(IMelandStoreItems nft)\n        private\n        view\n        returns (bool)\n    {\n        (string[] memory symbols, uint256[] memory prices) = nft\n            .melandStoreItems();\n        return symbols.length == prices.length;\n    }\n\n    function _checkStoreItems(IMelandStoreItems nft) private view {\n        require(_tryCheckStoreItems(nft), \"Product calibration error\");\n    }\n\n    function stringEq(string memory s1, string memory s2) internal pure returns(bool) {\n        return keccak256(bytes(s1)) == keccak256(bytes(s2));\n    }\n\n    function buyNFT(\n        IMelandStoreItems nft,\n        string memory symbol,\n        uint256 priceInWei\n    ) public {\n        address buyer = _msgSender();\n        require(itemUploadedMap[nft], \"NFT not uploaded\");\n        _checkStoreItems(nft);\n\n        uint256 buySymbolIndex = 0;\n        {\n            (string[] memory symbols, uint256[] memory prices) = nft.melandStoreItems();\n\n            for (uint256 i = 0; i < symbols.length; i++) {\n                if (stringEq(symbols[i], symbol)) {\n                    buySymbolIndex = i;\n                    break;\n                }\n            }\n\n            require(\n                nft.melandStoreSellStatus(symbol),\n                \"Merchandise has been suspended from sale\"\n            );\n\n            require(\n                buySymbolIndex > 0 || stringEq(symbols[0], symbol),\n                \"symbol is not sale\"\n            );\n\n            require(\n                prices[buySymbolIndex] == priceInWei,\n                \"The price is not correct\"\n            );\n        }\n\n        {\n            (bool restricted, uint256 restrictLimit) = nft\n                .melandStoreItemsRestrictedPurchase(symbol);\n            if (restricted) {\n                require(\n                    _getItemSymbolSales(nft, symbol, buyer) < restrictLimit,\n                    string(\n                        abi.encodePacked(\n                            \"Exceeded the maximum limit that each person can purchase (\",\n                            restrictLimit\n                        )\n                    )\n                );\n\n                _addItemSymbolSales(nft, symbol, buyer);\n            }\n        }\n\n        address seller = nft.melandStoreReceipt(symbol);\n        uint256 tokenId = 0;\n        (bool idsRestricted, uint256[] memory ids) = nft\n            .melandStoreItemsRestrictPurchaseNFTIds(symbol);\n        if (idsRestricted) {\n            require(\n                ids.length > 0,\n                \"Insufficient quantity of saleable inventory\"\n            );\n            tokenId = ids[0];\n        }\n\n        IERC20Upgradeable acceptedToken = nft.acceptedToken(symbol);\n\n        uint256 saleShareAmount = 0;\n\n        if (ownerCutPerMillion > 0) {\n            // Calculate sale share\n            saleShareAmount = priceInWei.mul(ownerCutPerMillion).div(1000000);\n\n            // 40% burn in handling fee\n            uint256 burnAmount = saleShareAmount.mul(40).div(100);\n\n            // The other 40% is held by the Foundation\n            uint256 foundationAmount = saleShareAmount.mul(40).div(100);\n\n            // The last 20% are official earnings\n            uint256 officialAmount = saleShareAmount.mul(20).div(100);\n\n            {\n                IERC20MELD mabyeMELD = IERC20MELD(address(acceptedToken));\n                try mabyeMELD.burnFrom(buyer, burnAmount) {\n\n                } catch(bytes memory) {\n\n                    // transfer to bidback wallet when burn failed.\n                    acceptedToken.transferFrom(\n                        buyer,\n                        bidbackWallet,\n                        burnAmount\n                    );\n                }\n            }\n\n            require(\n                acceptedToken.transferFrom(\n                    buyer,\n                    foundationWallet,\n                    foundationAmount\n                ),\n                \"Handling fee transfer to foundationWallet failure\"\n            );\n            require(\n                acceptedToken.transferFrom(\n                    buyer,\n                    officialWallet,\n                    officialAmount\n                ),\n                \"Handling fee transfer to officialWallet to off failure\"\n            );\n        }\n\n        // Transfer sale amount to seller\n        require(\n            acceptedToken.transferFrom(\n                buyer,\n                seller,\n                priceInWei.sub(saleShareAmount)\n            ),\n            \"Transfering the sale amount to the seller failed\"\n        );\n\n        nft.melandStoreItemsMint(symbol, tokenId, buyer);\n\n        emit NFTBuyed(buyer, nft, symbol, tokenId, priceInWei);\n    }\n\n    function _authorizeUpgrade(address newImplementation)\n        internal\n        override\n        onlyRole(UPGRADER_ROLE)\n    {}\n}\n",
  "sourcePath": "/Users/alberthuang/code/icw/meland/contracts/NFTStore.sol",
  "compiler": {
    "name": "solc",
    "version": "0.8.9+commit.e5eed63a.Emscripten.clang"
  },
  "schemaVersion": "3.4.3",
  "updatedAt": "2021-12-26T08:36:38.738Z",
  "networkType": "ethereum",
  "devdoc": {
    "kind": "dev",
    "methods": {
      "getRoleAdmin(bytes32)": {
        "details": "Returns the admin role that controls `role`. See {grantRole} and {revokeRole}. To change a role's admin, use {_setRoleAdmin}."
      },
      "grantRole(bytes32,address)": {
        "details": "Grants `role` to `account`. If `account` had not been already granted `role`, emits a {RoleGranted} event. Requirements: - the caller must have ``role``'s admin role."
      },
      "hasRole(bytes32,address)": {
        "details": "Returns `true` if `account` has been granted `role`."
      },
      "renounceRole(bytes32,address)": {
        "details": "Revokes `role` from the calling account. Roles are often managed via {grantRole} and {revokeRole}: this function's purpose is to provide a mechanism for accounts to lose their privileges if they are compromised (such as when a trusted device is misplaced). If the calling account had been revoked `role`, emits a {RoleRevoked} event. Requirements: - the caller must be `account`."
      },
      "revokeRole(bytes32,address)": {
        "details": "Revokes `role` from `account`. If `account` had been granted `role`, emits a {RoleRevoked} event. Requirements: - the caller must have ``role``'s admin role."
      },
      "supportsInterface(bytes4)": {
        "details": "See {IERC165-supportsInterface}."
      },
      "upgradeTo(address)": {
        "details": "Upgrade the implementation of the proxy to `newImplementation`. Calls {_authorizeUpgrade}. Emits an {Upgraded} event."
      },
      "upgradeToAndCall(address,bytes)": {
        "details": "Upgrade the implementation of the proxy to `newImplementation`, and subsequently execute the function call encoded in `data`. Calls {_authorizeUpgrade}. Emits an {Upgraded} event."
      }
    },
    "version": 1
  },
  "userdoc": {
    "kind": "user",
    "methods": {},
    "version": 1
  }
}