{
  "contractName": "NFTStore",
  "abi": [
    {
      "anonymous": false,
      "inputs": [
        {
          "indexed": false,
          "internalType": "address",
          "name": "previousAdmin",
          "type": "address"
        },
        {
          "indexed": false,
          "internalType": "address",
          "name": "newAdmin",
          "type": "address"
        }
      ],
      "name": "AdminChanged",
      "type": "event"
    },
    {
      "anonymous": false,
      "inputs": [
        {
          "indexed": true,
          "internalType": "address",
          "name": "beacon",
          "type": "address"
        }
      ],
      "name": "BeaconUpgraded",
      "type": "event"
    },
    {
      "anonymous": false,
      "inputs": [
        {
          "indexed": false,
          "internalType": "uint256",
          "name": "ownerCutPerMillion",
          "type": "uint256"
        }
      ],
      "name": "ChangedOwnerCutPerMillion",
      "type": "event"
    },
    {
      "anonymous": false,
      "inputs": [
        {
          "indexed": true,
          "internalType": "uint256",
          "name": "id",
          "type": "uint256"
        },
        {
          "indexed": true,
          "internalType": "address",
          "name": "buyer",
          "type": "address"
        },
        {
          "indexed": false,
          "internalType": "contract IERC721MelandNFT",
          "name": "nftAddress",
          "type": "address"
        },
        {
          "indexed": false,
          "internalType": "uint256",
          "name": "priceInWei",
          "type": "uint256"
        }
      ],
      "name": "NFTBuyed",
      "type": "event"
    },
    {
      "anonymous": false,
      "inputs": [
        {
          "indexed": true,
          "internalType": "uint256",
          "name": "id",
          "type": "uint256"
        },
        {
          "indexed": true,
          "internalType": "address",
          "name": "seller",
          "type": "address"
        },
        {
          "indexed": false,
          "internalType": "contract IERC721MelandNFT",
          "name": "nftAddress",
          "type": "address"
        },
        {
          "indexed": false,
          "internalType": "uint256",
          "name": "priceInWei",
          "type": "uint256"
        }
      ],
      "name": "NFTCreated",
      "type": "event"
    },
    {
      "anonymous": false,
      "inputs": [
        {
          "indexed": true,
          "internalType": "uint256",
          "name": "id",
          "type": "uint256"
        },
        {
          "indexed": true,
          "internalType": "address",
          "name": "seller",
          "type": "address"
        },
        {
          "indexed": false,
          "internalType": "contract IERC721MelandNFT",
          "name": "nftAddress",
          "type": "address"
        }
      ],
      "name": "NFTDelete",
      "type": "event"
    },
    {
      "anonymous": false,
      "inputs": [
        {
          "indexed": true,
          "internalType": "uint256",
          "name": "id",
          "type": "uint256"
        },
        {
          "indexed": true,
          "internalType": "contract IERC721MelandNFT",
          "name": "nft",
          "type": "address"
        },
        {
          "indexed": false,
          "internalType": "uint256",
          "name": "length",
          "type": "uint256"
        }
      ],
      "name": "NFTIdPoolUpdate",
      "type": "event"
    },
    {
      "anonymous": false,
      "inputs": [
        {
          "indexed": true,
          "internalType": "uint256",
          "name": "id",
          "type": "uint256"
        },
        {
          "indexed": false,
          "internalType": "contract IERC721MelandNFT",
          "name": "nftAddress",
          "type": "address"
        }
      ],
      "name": "NFTItemUpdate",
      "type": "event"
    },
    {
      "anonymous": false,
      "inputs": [
        {
          "indexed": false,
          "internalType": "address",
          "name": "account",
          "type": "address"
        }
      ],
      "name": "Paused",
      "type": "event"
    },
    {
      "anonymous": false,
      "inputs": [
        {
          "indexed": true,
          "internalType": "bytes32",
          "name": "role",
          "type": "bytes32"
        },
        {
          "indexed": true,
          "internalType": "bytes32",
          "name": "previousAdminRole",
          "type": "bytes32"
        },
        {
          "indexed": true,
          "internalType": "bytes32",
          "name": "newAdminRole",
          "type": "bytes32"
        }
      ],
      "name": "RoleAdminChanged",
      "type": "event"
    },
    {
      "anonymous": false,
      "inputs": [
        {
          "indexed": true,
          "internalType": "bytes32",
          "name": "role",
          "type": "bytes32"
        },
        {
          "indexed": true,
          "internalType": "address",
          "name": "account",
          "type": "address"
        },
        {
          "indexed": true,
          "internalType": "address",
          "name": "sender",
          "type": "address"
        }
      ],
      "name": "RoleGranted",
      "type": "event"
    },
    {
      "anonymous": false,
      "inputs": [
        {
          "indexed": true,
          "internalType": "bytes32",
          "name": "role",
          "type": "bytes32"
        },
        {
          "indexed": true,
          "internalType": "address",
          "name": "account",
          "type": "address"
        },
        {
          "indexed": true,
          "internalType": "address",
          "name": "sender",
          "type": "address"
        }
      ],
      "name": "RoleRevoked",
      "type": "event"
    },
    {
      "anonymous": false,
      "inputs": [
        {
          "indexed": false,
          "internalType": "address",
          "name": "account",
          "type": "address"
        }
      ],
      "name": "Unpaused",
      "type": "event"
    },
    {
      "anonymous": false,
      "inputs": [
        {
          "indexed": true,
          "internalType": "address",
          "name": "implementation",
          "type": "address"
        }
      ],
      "name": "Upgraded",
      "type": "event"
    },
    {
      "inputs": [],
      "name": "DEFAULT_ADMIN_ROLE",
      "outputs": [
        {
          "internalType": "bytes32",
          "name": "",
          "type": "bytes32"
        }
      ],
      "stateMutability": "view",
      "type": "function",
      "constant": true
    },
    {
      "inputs": [],
      "name": "GM_ROLE",
      "outputs": [
        {
          "internalType": "bytes32",
          "name": "",
          "type": "bytes32"
        }
      ],
      "stateMutability": "view",
      "type": "function",
      "constant": true
    },
    {
      "inputs": [],
      "name": "MINTER_ROLE",
      "outputs": [
        {
          "internalType": "bytes32",
          "name": "",
          "type": "bytes32"
        }
      ],
      "stateMutability": "view",
      "type": "function",
      "constant": true
    },
    {
      "inputs": [],
      "name": "UPGRADER_ROLE",
      "outputs": [
        {
          "internalType": "bytes32",
          "name": "",
          "type": "bytes32"
        }
      ],
      "stateMutability": "view",
      "type": "function",
      "constant": true
    },
    {
      "inputs": [],
      "name": "acceptedToken",
      "outputs": [
        {
          "internalType": "contract IERC20MELD",
          "name": "",
          "type": "address"
        }
      ],
      "stateMutability": "view",
      "type": "function",
      "constant": true
    },
    {
      "inputs": [],
      "name": "foundationWallet",
      "outputs": [
        {
          "internalType": "address",
          "name": "",
          "type": "address"
        }
      ],
      "stateMutability": "view",
      "type": "function",
      "constant": true
    },
    {
      "inputs": [
        {
          "internalType": "bytes32",
          "name": "role",
          "type": "bytes32"
        }
      ],
      "name": "getRoleAdmin",
      "outputs": [
        {
          "internalType": "bytes32",
          "name": "",
          "type": "bytes32"
        }
      ],
      "stateMutability": "view",
      "type": "function",
      "constant": true
    },
    {
      "inputs": [
        {
          "internalType": "bytes32",
          "name": "role",
          "type": "bytes32"
        },
        {
          "internalType": "address",
          "name": "account",
          "type": "address"
        }
      ],
      "name": "grantRole",
      "outputs": [],
      "stateMutability": "nonpayable",
      "type": "function"
    },
    {
      "inputs": [
        {
          "internalType": "bytes32",
          "name": "role",
          "type": "bytes32"
        },
        {
          "internalType": "address",
          "name": "account",
          "type": "address"
        }
      ],
      "name": "hasRole",
      "outputs": [
        {
          "internalType": "bool",
          "name": "",
          "type": "bool"
        }
      ],
      "stateMutability": "view",
      "type": "function",
      "constant": true
    },
    {
      "inputs": [
        {
          "internalType": "contract IERC721MelandNFT",
          "name": "",
          "type": "address"
        }
      ],
      "name": "itemByNFT",
      "outputs": [
        {
          "internalType": "uint256",
          "name": "id",
          "type": "uint256"
        },
        {
          "internalType": "address",
          "name": "seller",
          "type": "address"
        },
        {
          "internalType": "bool",
          "name": "tokenIdPool",
          "type": "bool"
        },
        {
          "internalType": "uint256",
          "name": "priceInWei",
          "type": "uint256"
        },
        {
          "internalType": "uint256",
          "name": "sellsCount",
          "type": "uint256"
        },
        {
          "internalType": "uint32",
          "name": "limit",
          "type": "uint32"
        },
        {
          "internalType": "string",
          "name": "description",
          "type": "string"
        }
      ],
      "stateMutability": "view",
      "type": "function",
      "constant": true
    },
    {
      "inputs": [
        {
          "internalType": "contract IERC721MelandNFT",
          "name": "",
          "type": "address"
        },
        {
          "internalType": "address",
          "name": "",
          "type": "address"
        }
      ],
      "name": "limitPool",
      "outputs": [
        {
          "internalType": "uint256",
          "name": "",
          "type": "uint256"
        }
      ],
      "stateMutability": "view",
      "type": "function",
      "constant": true
    },
    {
      "inputs": [
        {
          "internalType": "string",
          "name": "",
          "type": "string"
        }
      ],
      "name": "nftByCid",
      "outputs": [
        {
          "internalType": "address",
          "name": "",
          "type": "address"
        }
      ],
      "stateMutability": "view",
      "type": "function",
      "constant": true
    },
    {
      "inputs": [],
      "name": "officialWallet",
      "outputs": [
        {
          "internalType": "address",
          "name": "",
          "type": "address"
        }
      ],
      "stateMutability": "view",
      "type": "function",
      "constant": true
    },
    {
      "inputs": [],
      "name": "ownerCutPerMillion",
      "outputs": [
        {
          "internalType": "uint256",
          "name": "",
          "type": "uint256"
        }
      ],
      "stateMutability": "view",
      "type": "function",
      "constant": true
    },
    {
      "inputs": [],
      "name": "paused",
      "outputs": [
        {
          "internalType": "bool",
          "name": "",
          "type": "bool"
        }
      ],
      "stateMutability": "view",
      "type": "function",
      "constant": true
    },
    {
      "inputs": [
        {
          "internalType": "bytes32",
          "name": "role",
          "type": "bytes32"
        },
        {
          "internalType": "address",
          "name": "account",
          "type": "address"
        }
      ],
      "name": "renounceRole",
      "outputs": [],
      "stateMutability": "nonpayable",
      "type": "function"
    },
    {
      "inputs": [
        {
          "internalType": "bytes32",
          "name": "role",
          "type": "bytes32"
        },
        {
          "internalType": "address",
          "name": "account",
          "type": "address"
        }
      ],
      "name": "revokeRole",
      "outputs": [],
      "stateMutability": "nonpayable",
      "type": "function"
    },
    {
      "inputs": [
        {
          "internalType": "bytes4",
          "name": "interfaceId",
          "type": "bytes4"
        }
      ],
      "name": "supportsInterface",
      "outputs": [
        {
          "internalType": "bool",
          "name": "",
          "type": "bool"
        }
      ],
      "stateMutability": "view",
      "type": "function",
      "constant": true
    },
    {
      "inputs": [
        {
          "internalType": "contract IERC721MelandNFT",
          "name": "",
          "type": "address"
        },
        {
          "internalType": "uint256",
          "name": "",
          "type": "uint256"
        }
      ],
      "name": "tokenIdsByNFT",
      "outputs": [
        {
          "internalType": "uint256",
          "name": "",
          "type": "uint256"
        }
      ],
      "stateMutability": "view",
      "type": "function",
      "constant": true
    },
    {
      "inputs": [
        {
          "internalType": "address",
          "name": "newImplementation",
          "type": "address"
        }
      ],
      "name": "upgradeTo",
      "outputs": [],
      "stateMutability": "nonpayable",
      "type": "function"
    },
    {
      "inputs": [
        {
          "internalType": "address",
          "name": "newImplementation",
          "type": "address"
        },
        {
          "internalType": "bytes",
          "name": "data",
          "type": "bytes"
        }
      ],
      "name": "upgradeToAndCall",
      "outputs": [],
      "stateMutability": "payable",
      "type": "function",
      "payable": true
    },
    {
      "inputs": [
        {
          "internalType": "contract IERC20MELD",
          "name": "_acceptedToken",
          "type": "address"
        },
        {
          "internalType": "address",
          "name": "_officialWallet",
          "type": "address"
        },
        {
          "internalType": "address",
          "name": "_foundationWallet",
          "type": "address"
        },
        {
          "internalType": "uint256",
          "name": "_ownerCutPerMillion",
          "type": "uint256"
        }
      ],
      "name": "initialize",
      "outputs": [],
      "stateMutability": "nonpayable",
      "type": "function"
    },
    {
      "inputs": [
        {
          "internalType": "contract IERC721MelandNFT",
          "name": "nft",
          "type": "address"
        },
        {
          "internalType": "uint256",
          "name": "priceInWei",
          "type": "uint256"
        },
        {
          "internalType": "uint32",
          "name": "limit",
          "type": "uint32"
        },
        {
          "internalType": "bool",
          "name": "tokenIdPool",
          "type": "bool"
        },
        {
          "internalType": "string",
          "name": "description",
          "type": "string"
        }
      ],
      "name": "createNFT",
      "outputs": [],
      "stateMutability": "nonpayable",
      "type": "function"
    },
    {
      "inputs": [
        {
          "internalType": "contract IERC721MelandNFT",
          "name": "nft",
          "type": "address"
        },
        {
          "internalType": "uint32",
          "name": "limit",
          "type": "uint32"
        }
      ],
      "name": "updateItemLimit",
      "outputs": [],
      "stateMutability": "nonpayable",
      "type": "function"
    },
    {
      "inputs": [
        {
          "internalType": "contract IERC721MelandNFT",
          "name": "nft",
          "type": "address"
        },
        {
          "internalType": "uint256",
          "name": "priceInWei",
          "type": "uint256"
        }
      ],
      "name": "updateItemPriceInWei",
      "outputs": [],
      "stateMutability": "nonpayable",
      "type": "function"
    },
    {
      "inputs": [
        {
          "internalType": "contract IERC721MelandNFT",
          "name": "nft",
          "type": "address"
        },
        {
          "internalType": "string",
          "name": "description",
          "type": "string"
        }
      ],
      "name": "updateItemDescription",
      "outputs": [],
      "stateMutability": "nonpayable",
      "type": "function"
    },
    {
      "inputs": [
        {
          "internalType": "contract IERC721MelandNFT",
          "name": "nft",
          "type": "address"
        },
        {
          "internalType": "uint256[]",
          "name": "tokenIds",
          "type": "uint256[]"
        }
      ],
      "name": "updateTokenIdPool",
      "outputs": [],
      "stateMutability": "nonpayable",
      "type": "function"
    },
    {
      "inputs": [
        {
          "internalType": "contract IERC721MelandNFT",
          "name": "nft",
          "type": "address"
        }
      ],
      "name": "deleteNFT",
      "outputs": [],
      "stateMutability": "nonpayable",
      "type": "function"
    },
    {
      "inputs": [
        {
          "internalType": "uint256",
          "name": "_ownerCutPerMillion",
          "type": "uint256"
        }
      ],
      "name": "setOwnerCutPerMillion",
      "outputs": [],
      "stateMutability": "nonpayable",
      "type": "function"
    },
    {
      "inputs": [
        {
          "internalType": "contract IERC721MelandNFT",
          "name": "nft",
          "type": "address"
        },
        {
          "internalType": "uint256",
          "name": "priceInWei",
          "type": "uint256"
        }
      ],
      "name": "buyNFT",
      "outputs": [],
      "stateMutability": "nonpayable",
      "type": "function"
    }
  ],
  "bytecode": "0x608060405234801561001057600080fd5b50613c69806100206000396000f3fe6080604052600436106101cd5760003560e01c80637cf012a9116100f7578063ac54242d11610095578063d547741f11610064578063d547741f146105d5578063d70f7c61146105f5578063e02bc71914610615578063f72c0d8b1461063557600080fd5b8063ac54242d1461051f578063b83fe3011461053f578063cf756fdf14610581578063d5391393146105a157600080fd5b806391d14854116100d157806391d148541461048d578063a01f79d4146104d3578063a217fddf146104ea578063a82ba76f146104ff57600080fd5b80637cf012a91461041457806380b7613c1461043457806384799eac1461046d57600080fd5b80633659cfe61161016f57806356f1eb481161013e57806356f1eb48146103885780635c975abb146103a857806366b61640146103c05780636b7ae8dc146103f357600080fd5b80633659cfe614610314578063451c3d80146103345780634e1d940e146103555780634f1ef2861461037557600080fd5b8063248a9ca3116101ab578063248a9ca3146102625780632f2ff15d146102a057806330c7be2c146102c057806336568abe146102f457600080fd5b806301ffc9a7146101d2578063088025d31461020757806319dad16d14610240575b600080fd5b3480156101de57600080fd5b506101f26101ed366004613451565b610669565b60405190151581526020015b60405180910390f35b34801561021357600080fd5b5061012f54610228906001600160a01b031681565b6040516001600160a01b0390911681526020016101fe565b34801561024c57600080fd5b5061026061025b36600461347b565b6106d2565b005b34801561026e57600080fd5b5061029261027d36600461347b565b60009081526065602052604090206001015490565b6040519081526020016101fe565b3480156102ac57600080fd5b506102606102bb3660046134a9565b6107b7565b3480156102cc57600080fd5b506102927ff5eb84615c2a00ecaf817d13794ebd6299c9e01c395bf4018453f13f577f544981565b34801561030057600080fd5b5061026061030f3660046134a9565b6107e2565b34801561032057600080fd5b5061026061032f3660046134d9565b61086e565b34801561034057600080fd5b5061012d54610228906001600160a01b031681565b34801561036157600080fd5b506102606103703660046135dc565b610895565b610260610383366004613659565b610de6565b34801561039457600080fd5b506102606103a33660046136bd565b610dfb565b3480156103b457600080fd5b5060975460ff166101f2565b3480156103cc57600080fd5b506103e06103db3660046134d9565b611130565b6040516101fe97969594939291906137d4565b3480156103ff57600080fd5b5061012e54610228906001600160a01b031681565b34801561042057600080fd5b5061026061042f366004613829565b61120c565b34801561044057600080fd5b5061029261044f36600461385e565b61013360209081526000928352604080842090915290825290205481565b34801561047957600080fd5b506102606104883660046134d9565b6113c5565b34801561049957600080fd5b506101f26104a83660046134a9565b60009182526065602090815260408084206001600160a01b0393909316845291905290205460ff1690565b3480156104df57600080fd5b506102926101345481565b3480156104f657600080fd5b50610292600081565b34801561050b57600080fd5b5061026061051a36600461388c565b611724565b34801561052b57600080fd5b5061029261053a36600461388c565b612163565b34801561054b57600080fd5b5061022861055a3660046138b8565b8051602081830181018051610132825292820191909301209152546001600160a01b031681565b34801561058d57600080fd5b5061026061059c3660046138f5565b612195565b3480156105ad57600080fd5b506102927f9f2df0fed2c77648de5860a4cc508cd0818c85b8b8a1ab4ceeef8d981c8956a681565b3480156105e157600080fd5b506102606105f03660046134a9565b61230e565b34801561060157600080fd5b5061026061061036600461388c565b612334565b34801561062157600080fd5b50610260610630366004613946565b6124d5565b34801561064157600080fd5b506102927f189ab7a9244df0848122154315af71fe140f3db0fe014031783b0946b8c9d2e381565b60006001600160e01b031982167f7965db0b0000000000000000000000000000000000000000000000000000000014806106cc57507f01ffc9a7000000000000000000000000000000000000000000000000000000006001600160e01b03198316145b92915050565b7ff5eb84615c2a00ecaf817d13794ebd6299c9e01c395bf4018453f13f577f54496106fd81336126a0565b620f4240821061077a5760405162461bcd60e51b815260206004820152602d60248201527f546865206f776e6572206375742073686f756c64206265206265747765656e2060448201527f3020616e64203939392c3939390000000000000000000000000000000000000060648201526084015b60405180910390fd5b6101348290556040518281527ffa406a120a9e7f2b332bfb7a43d3bf1c3f079262202907a6b69c94b2821a02c69060200160405180910390a15050565b6000828152606560205260409020600101546107d381336126a0565b6107dd8383612720565b505050565b6001600160a01b03811633146108605760405162461bcd60e51b815260206004820152602f60248201527f416363657373436f6e74726f6c3a2063616e206f6e6c792072656e6f756e636560448201527f20726f6c657320666f722073656c6600000000000000000000000000000000006064820152608401610771565b61086a82826127c2565b5050565b61087781612845565b61089281604051806020016040528060008152506000612870565b50565b604051632474521560e21b8152600060048201523360248201526001600160a01b038616906391d148549060440160206040518083038186803b1580156108db57600080fd5b505afa1580156108ef573d6000803e3d6000fd5b505050506040513d601f19601f82011682018060405250810190610913919061398c565b6109535760405162461bcd60e51b81526020600482015260116024820152702ab730baba3437b934bd32b2103ab9b2b960791b6044820152606401610771565b604051632474521560e21b81527f9f2df0fed2c77648de5860a4cc508cd0818c85b8b8a1ab4ceeef8d981c8956a660048201523060248201526001600160a01b038616906391d148549060440160206040518083038186803b1580156109b857600080fd5b505afa1580156109cc573d6000803e3d6000fd5b505050506040513d601f19601f820116820180604052508101906109f0919061398c565b610a625760405162461bcd60e51b815260206004820152602960248201527f4d75737420617574686f72697a6520636f6e7472616374206d696e746572207060448201527f726976696c6567657300000000000000000000000000000000000000000000006064820152608401610771565b6001600160a01b0385166000908152610130602052604090205415610ac95760405162461bcd60e51b815260206004820152600e60248201527f416c7265616479206578697374730000000000000000000000000000000000006044820152606401610771565b60408051600481526024810182526020810180517bffffffffffffffffffffffffffffffffffffffffffffffffffffffff167fd341972300000000000000000000000000000000000000000000000000000000179052905160009182916001600160a01b03891691610b3a916139a9565b600060405180830381855afa9150503d8060008114610b75576040519150601f19603f3d011682016040523d82523d6000602084013e610b7a565b606091505b50915091508115610c5257604051819060009061013290610b9c9084906139a9565b908152604051908190036020019020546001600160a01b031614610c025760405162461bcd60e51b815260206004820152601260248201527f63696420416c72656164792065786973747300000000000000000000000000006044820152606401610771565b8761013282604051610c1491906139a9565b90815260405190819003602001902080546001600160a01b039290921673ffffffffffffffffffffffffffffffffffffffff19909216919091179055505b6000610c5e6101355490565b610c699060016139db565b9050610c7a61013580546001019055565b6040518060e00160405280828152602001336001600160a01b031681526020018615158152602001888152602001600081526020018763ffffffff1681526020018581525061013060008a6001600160a01b03166001600160a01b031681526020019081526020016000206000820151816000015560208201518160010160006101000a8154816001600160a01b0302191690836001600160a01b0316021790555060408201518160010160146101000a81548160ff021916908315150217905550606082015181600201556080820151816003015560a08201518160040160006101000a81548163ffffffff021916908363ffffffff16021790555060c0820151816005019080519060200190610d93929190613304565b5050604080516001600160a01b038b168152602081018a905233925083917f8c7e1ddd8a4fd824bd103f68294c41981a2a43c9aa90547f389b9fe2064d3709910160405180910390a35050505050505050565b610def82612845565b61086a82826001612870565b604051632474521560e21b8152600060048201523360248201526001600160a01b038316906391d148549060440160206040518083038186803b158015610e4157600080fd5b505afa158015610e55573d6000803e3d6000fd5b505050506040513d601f19601f82011682018060405250810190610e79919061398c565b80610eb257503360009081527ffcb1fb1eb58d03887b9eae519e5612670df36b55452160c7b3724659b4db8bdb602052604090205460ff165b610ef25760405162461bcd60e51b81526020600482015260116024820152702ab730baba3437b934bd32b2103ab9b2b960791b6044820152606401610771565b6001600160a01b03821660009081526101306020526040902054610f485760405162461bcd60e51b815260206004820152600d60248201526c139195081b9bdd08199bdd5b99609a1b6044820152606401610771565b60005b81518110156110ae57826001600160a01b0316636352211e838381518110610f7557610f756139f3565b60200260200101516040518263ffffffff1660e01b8152600401610f9b91815260200190565b60206040518083038186803b158015610fb357600080fd5b505afa925050508015610fe3575060408051601f3d908101601f19168201909252610fe091810190613a09565b60015b61101d573d808015611011576040519150601f19603f3d011682016040523d82523d6000602084013e611016565b606091505b505061109c565b6001600160a01b0381161561109a5760405162461bcd60e51b815260206004820152603660248201527f54686520746f6b656e20696420706f6f6c2065786973747320666f722069647360448201527f20746861742068617665206265656e206d696e746564000000000000000000006064820152608401610771565b505b806110a681613a26565b915050610f4b565b506001600160a01b03821660009081526101316020908152604090912082516110d992840190613388565b506001600160a01b038216600081815261013060209081526040918290205484519251928352917f6960ba571af043e0b18f153264f6243a10edf4f343ba923ba594b19367172e6e91015b60405180910390a35050565b6101306020526000908152604090208054600182015460028301546003840154600485015460058601805495966001600160a01b03861696600160a01b90960460ff169563ffffffff9093169290919061118990613a41565b80601f01602080910402602001604051908101604052809291908181526020018280546111b590613a41565b80156112025780601f106111d757610100808354040283529160200191611202565b820191906000526020600020905b8154815290600101906020018083116111e557829003601f168201915b5050505050905087565b604051632474521560e21b8152600060048201523360248201526001600160a01b038316906391d148549060440160206040518083038186803b15801561125257600080fd5b505afa158015611266573d6000803e3d6000fd5b505050506040513d601f19601f8201168201806040525081019061128a919061398c565b806112c357503360009081527ffcb1fb1eb58d03887b9eae519e5612670df36b55452160c7b3724659b4db8bdb602052604090205460ff165b6113035760405162461bcd60e51b81526020600482015260116024820152702ab730baba3437b934bd32b2103ab9b2b960791b6044820152606401610771565b6001600160a01b038216600090815261013060205260409020546113595760405162461bcd60e51b815260206004820152600d60248201526c139195081b9bdd08199bdd5b99609a1b6044820152606401610771565b6001600160a01b0382166000818152610130602090815260409182902060048101805463ffffffff191663ffffffff871617905554915192835290917f2bfa1af525e49335093bef34253d36edbf1d8355ade7ca9658bac2856cabf5f891015b60405180910390a25050565b604051632474521560e21b8152600060048201523360248201526001600160a01b038216906391d148549060440160206040518083038186803b15801561140b57600080fd5b505afa15801561141f573d6000803e3d6000fd5b505050506040513d601f19601f82011682018060405250810190611443919061398c565b6114835760405162461bcd60e51b81526020600482015260116024820152702ab730baba3437b934bd32b2103ab9b2b960791b6044820152606401610771565b6001600160a01b038116600090815261013060205260409020546114d95760405162461bcd60e51b815260206004820152600d60248201526c139195081b9bdd08199bdd5b99609a1b6044820152606401610771565b6001600160a01b03818116600090815261013060209081526040808320815160e08101835281548152600182015495861693810193909352600160a01b90940460ff161515908201526002830154606082015260038301546080820152600483015463ffffffff1660a08201526005830180549293919260c08401919061155f90613a41565b80601f016020809104026020016040519081016040528092919081815260200182805461158b90613a41565b80156115d85780601f106115ad576101008083540402835291602001916115d8565b820191906000526020600020905b8154815290600101906020018083116115bb57829003601f168201915b5050509190925250506040517f36568abe0000000000000000000000000000000000000000000000000000000081527f9f2df0fed2c77648de5860a4cc508cd0818c85b8b8a1ab4ceeef8d981c8956a66004820152306024820152919250506001600160a01b038316906336568abe90604401600060405180830381600087803b15801561166557600080fd5b505af1158015611679573d6000803e3d6000fd5b5050506001600160a01b03831660009081526101306020526040812081815560018101805474ffffffffffffffffffffffffffffffffffffffffff19169055600281018290556003810182905560048101805463ffffffff1916905591506116e460058301826133c2565b505080516040516001600160a01b03841681523391907f3a93b00f5185c98483b85cd1d6acac889a94be997ec45dec3e17088fa20e316e90602001611124565b816001600160a01b0316631e51e4a16040518163ffffffff1660e01b815260040160206040518083038186803b15801561175d57600080fd5b505afa158015611771573d6000803e3d6000fd5b505050506040513d601f19601f820116820180604052508101906117959190613a7c565b826001600160a01b03166318160ddd6040518163ffffffff1660e01b815260040160206040518083038186803b1580156117ce57600080fd5b505afa1580156117e2573d6000803e3d6000fd5b505050506040513d601f19601f820116820180604052508101906118069190613a7c565b106118795760405162461bcd60e51b815260206004820152602560248201527f457863656564696e6720746865206d6178696d756d20737570706c792071756160448201527f6e746974790000000000000000000000000000000000000000000000000000006064820152608401610771565b6001600160a01b03828116600090815261013060209081526040808320815160e08101835281548152600182015495861693810193909352600160a01b90940460ff161515908201526002830154606082015260038301546080820152600483015463ffffffff1660a08201526005830180549293919260c0840191906118ff90613a41565b80601f016020809104026020016040519081016040528092919081815260200182805461192b90613a41565b80156119785780601f1061194d57610100808354040283529160200191611978565b820191906000526020600020905b81548152906001019060200180831161195b57829003601f168201915b505050505081525050905060008160000151116119c75760405162461bcd60e51b815260206004820152600d60248201526c139195081b9bdd08199bdd5b99609a1b6044820152606401610771565b81816060015114611a1a5760405162461bcd60e51b815260206004820152601860248201527f546865207072696365206973206e6f7420636f727265637400000000000000006044820152606401610771565b60a081015163ffffffff1615611aff5760a08101516001600160a01b03841660009081526101336020908152604080832033845290915290205463ffffffff90911611611aa95760405162461bcd60e51b815260206004820152601360248201527f54726967676572207265737472696374696f6e000000000000000000000000006044820152606401610771565b6001600160a01b038316600090815261013360209081526040808320338452909152902054611ad9906001612a2d565b6001600160a01b0384166000908152610133602090815260408083203384529091529020555b602081015160408201513391906000908190819015611b2f57611b2188612a40565b909350915060019050611bae565b876001600160a01b03166318160ddd6040518163ffffffff1660e01b815260040160206040518083038186803b158015611b6857600080fd5b505afa158015611b7c573d6000803e3d6000fd5b505050506040513d601f19601f82011682018060405250810190611ba09190613a7c565b611bab9060016139db565b92505b6080860151611bbe906001612a2d565b608087019081526001600160a01b03808a16600090815261013060209081526040918290208a518155818b0151600182018054948d01511515600160a01b0274ffffffffffffffffffffffffffffffffffffffffff19909516919095161792909217909255606089015160028201559151600383015560a088015160048301805463ffffffff90921663ffffffff1990921691909117905560c08801518051899392611c71926005850192910190613304565b5050610134546000915015611f6d57611ca3620f4240611c9d610134548b612b5590919063ffffffff16565b90612b61565b90506000611cb76064611c9d846028612b55565b90506000611ccb6064611c9d856028612b55565b90506000611cdf6064611c9d866014612b55565b61012d546040517f79cc67900000000000000000000000000000000000000000000000000000000081526001600160a01b038c81166004830152602482018790529293509116906379cc679090604401600060405180830381600087803b158015611d4957600080fd5b505af1158015611d5d573d6000803e3d6000fd5b505061012d5461012e546040516323b872dd60e01b81526001600160a01b038e81166004830152918216602482015260448101879052911692506323b872dd9150606401602060405180830381600087803b158015611dbb57600080fd5b505af1158015611dcf573d6000803e3d6000fd5b505050506040513d601f19601f82011682018060405250810190611df3919061398c565b611e655760405162461bcd60e51b815260206004820152603160248201527f48616e646c696e6720666565207472616e7366657220746f20666f756e64617460448201527f696f6e57616c6c6574206661696c7572650000000000000000000000000000006064820152608401610771565b61012d5461012f546040516323b872dd60e01b81526001600160a01b038c811660048301529182166024820152604481018490529116906323b872dd90606401602060405180830381600087803b158015611ebf57600080fd5b505af1158015611ed3573d6000803e3d6000fd5b505050506040513d601f19601f82011682018060405250810190611ef7919061398c565b611f695760405162461bcd60e51b815260206004820152603660248201527f48616e646c696e6720666565207472616e7366657220746f206f66666963696160448201527f6c57616c6c657420746f206f6666206661696c757265000000000000000000006064820152608401610771565b5050505b61012d546001600160a01b03166323b872dd8787611f8b8c86612b6d565b6040516001600160e01b031960e086901b1681526001600160a01b0393841660048201529290911660248301526044820152606401602060405180830381600087803b158015611fda57600080fd5b505af1158015611fee573d6000803e3d6000fd5b505050506040513d601f19601f82011682018060405250810190612012919061398c565b6120845760405162461bcd60e51b815260206004820152603060248201527f5472616e73666572696e67207468652073616c6520616d6f756e7420746f207460448201527f68652073656c6c6572206661696c6564000000000000000000000000000000006064820152608401610771565b6040517fa14481940000000000000000000000000000000000000000000000000000000081526001600160a01b038781166004830152602482018690528a169063a144819490604401600060405180830381600087803b1580156120e757600080fd5b505af11580156120fb573d6000803e3d6000fd5b50505050811561210f5761210f8984612b79565b8651604080516001600160a01b038c81168252602082018c9052891692917f70a002e53460416d76925723475c42cc5129fd244b3504bfe5847b01c3166d4d910160405180910390a3505050505050505050565b610131602052816000526040600020818154811061218057600080fd5b90600052602060002001600091509150505481565b600054610100900460ff16806121ae575060005460ff16155b6122115760405162461bcd60e51b815260206004820152602e60248201527f496e697469616c697a61626c653a20636f6e747261637420697320616c72656160448201526d191e481a5b9a5d1a585b1a5e995960921b6064820152608401610771565b600054610100900460ff16158015612233576000805461ffff19166101011790555b61223b612c8e565b612243612d50565b61224e600033612df6565b6122787f189ab7a9244df0848122154315af71fe140f3db0fe014031783b0946b8c9d2e333612df6565b6122a27ff5eb84615c2a00ecaf817d13794ebd6299c9e01c395bf4018453f13f577f544933612df6565b61012d80546001600160a01b0380881673ffffffffffffffffffffffffffffffffffffffff199283161790925561012f805487841690831617905561012e8054928616929091169190911790556101348290558015612307576000805461ff00191690555b5050505050565b60008281526065602052604090206001015461232a81336126a0565b6107dd83836127c2565b604051632474521560e21b8152600060048201523360248201526001600160a01b038316906391d148549060440160206040518083038186803b15801561237a57600080fd5b505afa15801561238e573d6000803e3d6000fd5b505050506040513d601f19601f820116820180604052508101906123b2919061398c565b806123eb57503360009081527ffcb1fb1eb58d03887b9eae519e5612670df36b55452160c7b3724659b4db8bdb602052604090205460ff165b61242b5760405162461bcd60e51b81526020600482015260116024820152702ab730baba3437b934bd32b2103ab9b2b960791b6044820152606401610771565b6001600160a01b038216600090815261013060205260409020546124815760405162461bcd60e51b815260206004820152600d60248201526c139195081b9bdd08199bdd5b99609a1b6044820152606401610771565b6001600160a01b038216600081815261013060209081526040918290206002810185905554915192835290917f2bfa1af525e49335093bef34253d36edbf1d8355ade7ca9658bac2856cabf5f891016113b9565b604051632474521560e21b8152600060048201523360248201526001600160a01b038316906391d148549060440160206040518083038186803b15801561251b57600080fd5b505afa15801561252f573d6000803e3d6000fd5b505050506040513d601f19601f82011682018060405250810190612553919061398c565b8061258c57503360009081527ffcb1fb1eb58d03887b9eae519e5612670df36b55452160c7b3724659b4db8bdb602052604090205460ff165b6125cc5760405162461bcd60e51b81526020600482015260116024820152702ab730baba3437b934bd32b2103ab9b2b960791b6044820152606401610771565b6001600160a01b038216600090815261013060205260409020546126225760405162461bcd60e51b815260206004820152600d60248201526c139195081b9bdd08199bdd5b99609a1b6044820152606401610771565b6001600160a01b038216600090815261013060209081526040909120825161265292600590920191840190613304565b506001600160a01b0382166000818152610130602090815260409182902054915192835290917f2bfa1af525e49335093bef34253d36edbf1d8355ade7ca9658bac2856cabf5f891016113b9565b60008281526065602090815260408083206001600160a01b038516845290915290205460ff1661086a576126de816001600160a01b03166014612e00565b6126e9836020612e00565b6040516020016126fa929190613a95565b60408051601f198184030181529082905262461bcd60e51b825261077191600401613b16565b60008281526065602090815260408083206001600160a01b038516845290915290205460ff1661086a5760008281526065602090815260408083206001600160a01b03851684529091529020805460ff1916600117905561277e3390565b6001600160a01b0316816001600160a01b0316837f2f8788117e7eff1d82e926ec794901d17c78024a50270940304540a733656f0d60405160405180910390a45050565b60008281526065602090815260408083206001600160a01b038516845290915290205460ff161561086a5760008281526065602090815260408083206001600160a01b0385168085529252808320805460ff1916905551339285917ff6391f5c32d9c69d2a47ea670b442974b53935d1edc7fd64eb21e047a839171b9190a45050565b7f189ab7a9244df0848122154315af71fe140f3db0fe014031783b0946b8c9d2e361086a81336126a0565b60006128a37f360894a13ba1a3210667c828492db98dca3e2076cc3735a920a3ca505d382bbc546001600160a01b031690565b90506128ae84612fe1565b6000835111806128bb5750815b156128cc576128ca84846130a3565b505b7f4910fdfa16fed3260ed0e7147f7cc6da11a60208b5b9406d12a635614ffd9143805460ff1661230757805460ff191660011781556040516001600160a01b038316602482015261297990869060440160408051601f198184030181529190526020810180517bffffffffffffffffffffffffffffffffffffffffffffffffffffffff167f3659cfe6000000000000000000000000000000000000000000000000000000001790526130a3565b50805460ff191681557f360894a13ba1a3210667c828492db98dca3e2076cc3735a920a3ca505d382bbc546001600160a01b03838116911614612a245760405162461bcd60e51b815260206004820152602f60248201527f45524331393637557067726164653a207570677261646520627265616b73206660448201527f75727468657220757067726164657300000000000000000000000000000000006064820152608401610771565b612307856131a5565b6000612a3982846139db565b9392505050565b6001600160a01b038116600090815261013160205260408120548190612aa85760405162461bcd60e51b815260206004820152601760248201527f6e667420496e73756666696369656e7420737570706c790000000000000000006044820152606401610771565b6001600160a01b03831660009081526101316020908152604080832080548251818502810185019093528083529192909190830182828015612b0957602002820191906000526020600020905b815481526020019060010190808311612af5575b5050505050905060008151612b1d836131e5565b612b279190613b3f565b90506000828281518110612b3d57612b3d6139f3565b60200260200101519050808294509450505050915091565b6000612a398284613b53565b6000612a398284613b72565b6000612a398284613b86565b6001600160a01b0382166000908152610131602052604081208054909190612ba390600190613b86565b90506000828281548110612bb957612bb96139f3565b9060005260206000200154905080838581548110612bd957612bd96139f3565b906000526020600020018190555082805480612bf757612bf7613b9d565b6000828152602080822083016000199081018390559092019092556001600160a01b03871682526101319052604090208354612c35919085906133fc565b506001600160a01b038516600081815261013060209081526040918290205486549251928352917f6960ba571af043e0b18f153264f6243a10edf4f343ba923ba594b19367172e6e910160405180910390a35050505050565b600054610100900460ff1680612ca7575060005460ff16155b612d0a5760405162461bcd60e51b815260206004820152602e60248201527f496e697469616c697a61626c653a20636f6e747261637420697320616c72656160448201526d191e481a5b9a5d1a585b1a5e995960921b6064820152608401610771565b600054610100900460ff16158015612d2c576000805461ffff19166101011790555b612d3461321a565b612d3c61321a565b8015610892576000805461ff001916905550565b600054610100900460ff1680612d69575060005460ff16155b612dcc5760405162461bcd60e51b815260206004820152602e60248201527f496e697469616c697a61626c653a20636f6e747261637420697320616c72656160448201526d191e481a5b9a5d1a585b1a5e995960921b6064820152608401610771565b600054610100900460ff16158015612dee576000805461ffff19166101011790555b612d2c61321a565b61086a8282612720565b60606000612e0f836002613b53565b612e1a9060026139db565b67ffffffffffffffff811115612e3257612e3261351d565b6040519080825280601f01601f191660200182016040528015612e5c576020820181803683370190505b5090507f300000000000000000000000000000000000000000000000000000000000000081600081518110612e9357612e936139f3565b60200101906001600160f81b031916908160001a9053507f780000000000000000000000000000000000000000000000000000000000000081600181518110612ede57612ede6139f3565b60200101906001600160f81b031916908160001a9053506000612f02846002613b53565b612f0d9060016139db565b90505b6001811115612f92577f303132333435363738396162636465660000000000000000000000000000000085600f1660108110612f4e57612f4e6139f3565b1a60f81b828281518110612f6457612f646139f3565b60200101906001600160f81b031916908160001a90535060049490941c93612f8b81613bb3565b9050612f10565b508315612a395760405162461bcd60e51b815260206004820181905260248201527f537472696e67733a20686578206c656e67746820696e73756666696369656e746044820152606401610771565b803b6130555760405162461bcd60e51b815260206004820152602d60248201527f455243313936373a206e657720696d706c656d656e746174696f6e206973206e60448201527f6f74206120636f6e7472616374000000000000000000000000000000000000006064820152608401610771565b7f360894a13ba1a3210667c828492db98dca3e2076cc3735a920a3ca505d382bbc805473ffffffffffffffffffffffffffffffffffffffff19166001600160a01b0392909216919091179055565b6060823b6131195760405162461bcd60e51b815260206004820152602660248201527f416464726573733a2064656c65676174652063616c6c20746f206e6f6e2d636f60448201527f6e747261637400000000000000000000000000000000000000000000000000006064820152608401610771565b600080846001600160a01b03168460405161313491906139a9565b600060405180830381855af49150503d806000811461316f576040519150601f19603f3d011682016040523d82523d6000602084013e613174565b606091505b509150915061319c8282604051806060016040528060278152602001613c0d602791396132cb565b95945050505050565b6131ae81612fe1565b6040516001600160a01b038216907fbc7cd75a20ee27fd9adebab32041f755214dbc6bffa90cc0225b39da2e5c2d3b90600090a250565b60004442836040516020016131fc93929190613bca565b60408051601f19818403018152919052805160209091012092915050565b600054610100900460ff1680613233575060005460ff16155b6132965760405162461bcd60e51b815260206004820152602e60248201527f496e697469616c697a61626c653a20636f6e747261637420697320616c72656160448201526d191e481a5b9a5d1a585b1a5e995960921b6064820152608401610771565b600054610100900460ff16158015612d3c576000805461ffff19166101011790558015610892576000805461ff001916905550565b606083156132da575081612a39565b8251156132ea5782518084602001fd5b8160405162461bcd60e51b81526004016107719190613b16565b82805461331090613a41565b90600052602060002090601f0160209004810192826133325760008555613378565b82601f1061334b57805160ff1916838001178555613378565b82800160010185558215613378579182015b8281111561337857825182559160200191906001019061335d565b5061338492915061343c565b5090565b828054828255906000526020600020908101928215613378579160200282018281111561337857825182559160200191906001019061335d565b5080546133ce90613a41565b6000825580601f106133de575050565b601f016020900490600052602060002090810190610892919061343c565b8280548282559060005260206000209081019282156133785760005260206000209182015b82811115613378578254825591600101919060010190613421565b5b80821115613384576000815560010161343d565b60006020828403121561346357600080fd5b81356001600160e01b031981168114612a3957600080fd5b60006020828403121561348d57600080fd5b5035919050565b6001600160a01b038116811461089257600080fd5b600080604083850312156134bc57600080fd5b8235915060208301356134ce81613494565b809150509250929050565b6000602082840312156134eb57600080fd5b8135612a3981613494565b803563ffffffff8116811461350a57600080fd5b919050565b801515811461089257600080fd5b634e487b7160e01b600052604160045260246000fd5b604051601f8201601f1916810167ffffffffffffffff8111828210171561355c5761355c61351d565b604052919050565b600067ffffffffffffffff83111561357e5761357e61351d565b613591601f8401601f1916602001613533565b90508281528383830111156135a557600080fd5b828260208301376000602084830101529392505050565b600082601f8301126135cd57600080fd5b612a3983833560208501613564565b600080600080600060a086880312156135f457600080fd5b85356135ff81613494565b945060208601359350613614604087016134f6565b925060608601356136248161350f565b9150608086013567ffffffffffffffff81111561364057600080fd5b61364c888289016135bc565b9150509295509295909350565b6000806040838503121561366c57600080fd5b823561367781613494565b9150602083013567ffffffffffffffff81111561369357600080fd5b8301601f810185136136a457600080fd5b6136b385823560208401613564565b9150509250929050565b600080604083850312156136d057600080fd5b82356136db81613494565b915060208381013567ffffffffffffffff808211156136f957600080fd5b818601915086601f83011261370d57600080fd5b81358181111561371f5761371f61351d565b8060051b9150613730848301613533565b818152918301840191848101908984111561374a57600080fd5b938501935b838510156137685784358252938501939085019061374f565b8096505050505050509250929050565b60005b8381101561379357818101518382015260200161377b565b838111156137a2576000848401525b50505050565b600081518084526137c0816020860160208601613778565b601f01601f19169290920160200192915050565b8781526001600160a01b0387166020820152851515604082015284606082015283608082015263ffffffff831660a082015260e060c0820152600061381c60e08301846137a8565b9998505050505050505050565b6000806040838503121561383c57600080fd5b823561384781613494565b9150613855602084016134f6565b90509250929050565b6000806040838503121561387157600080fd5b823561387c81613494565b915060208301356134ce81613494565b6000806040838503121561389f57600080fd5b82356138aa81613494565b946020939093013593505050565b6000602082840312156138ca57600080fd5b813567ffffffffffffffff8111156138e157600080fd5b6138ed848285016135bc565b949350505050565b6000806000806080858703121561390b57600080fd5b843561391681613494565b9350602085013561392681613494565b9250604085013561393681613494565b9396929550929360600135925050565b6000806040838503121561395957600080fd5b823561396481613494565b9150602083013567ffffffffffffffff81111561398057600080fd5b6136b3858286016135bc565b60006020828403121561399e57600080fd5b8151612a398161350f565b600082516139bb818460208701613778565b9190910192915050565b634e487b7160e01b600052601160045260246000fd5b600082198211156139ee576139ee6139c5565b500190565b634e487b7160e01b600052603260045260246000fd5b600060208284031215613a1b57600080fd5b8151612a3981613494565b6000600019821415613a3a57613a3a6139c5565b5060010190565b600181811c90821680613a5557607f821691505b60208210811415613a7657634e487b7160e01b600052602260045260246000fd5b50919050565b600060208284031215613a8e57600080fd5b5051919050565b7f416363657373436f6e74726f6c3a206163636f756e7420000000000000000000815260008351613acd816017850160208801613778565b7f206973206d697373696e6720726f6c65200000000000000000000000000000006017918401918201528351613b0a816028840160208801613778565b01602801949350505050565b602081526000612a3960208301846137a8565b634e487b7160e01b600052601260045260246000fd5b600082613b4e57613b4e613b29565b500690565b6000816000190483118215151615613b6d57613b6d6139c5565b500290565b600082613b8157613b81613b29565b500490565b600082821015613b9857613b986139c5565b500390565b634e487b7160e01b600052603160045260246000fd5b600081613bc257613bc26139c5565b506000190190565b83815260006020848184015260408301845182860160005b82811015613bfe57815184529284019290840190600101613be2565b50919897505050505050505056fe416464726573733a206c6f772d6c6576656c2064656c65676174652063616c6c206661696c6564a26469706673582212208145322384da1a178605bc93bdd65e4371ef367907f9278608681b5e0108e73664736f6c63430008090033",
  "immutableReferences": {},
  "source": "// SPDX-License-Identifier: MIT\npragma solidity 0.8.9;\n\nimport \"@openzeppelin/contracts-upgradeable/access/AccessControlUpgradeable.sol\";\nimport \"@openzeppelin/contracts-upgradeable/proxy/utils/Initializable.sol\";\nimport \"@openzeppelin/contracts-upgradeable/proxy/utils/UUPSUpgradeable.sol\";\nimport \"@openzeppelin/contracts-upgradeable/utils/CountersUpgradeable.sol\";\nimport \"@openzeppelin/contracts-upgradeable/security/PausableUpgradeable.sol\";\nimport \"@openzeppelin/contracts-upgradeable/utils/math/SafeMathUpgradeable.sol\";\nimport \"./NFTStoreStorage.sol\";\n\n// \n// marketplace. marketplace.\n// NFTmint.\n// NFTStore .\n// NFT.mint.\n\ncontract NFTStore is\n    Initializable,\n    AccessControlUpgradeable,\n    PausableUpgradeable,\n    UUPSUpgradeable,\n    NFTStoreStorage\n{\n    using SafeMathUpgradeable for uint256;\n    using CountersUpgradeable for CountersUpgradeable.Counter;\n    CountersUpgradeable.Counter private itemIdCounters;\n\n    function initialize(\n        // MELD \n        IERC20MELD _acceptedToken,\n        address _officialWallet,\n        address _foundationWallet,\n        uint256 _ownerCutPerMillion\n    ) public initializer {\n        __UUPSUpgradeable_init();\n        __AccessControl_init();\n        _setupRole(DEFAULT_ADMIN_ROLE, msg.sender);\n        _setupRole(UPGRADER_ROLE, msg.sender);\n        _setupRole(GM_ROLE, msg.sender);\n\n        acceptedToken = _acceptedToken;\n        officialWallet = _officialWallet;\n        foundationWallet = _foundationWallet;\n        ownerCutPerMillion = _ownerCutPerMillion;\n    }\n\n    // NFT\n    function createNFT(\n        // nft address\n        IERC721MelandNFT nft,\n        // Purchase Price\n        uint256 priceInWei,\n        // Limit the number of individual wallet purchases\n        // If 0 means no limit\n        uint32 limit,\n        // Whether to turn on restricted token id pool purchase\n        // If restricted, the purchase is randomly given to the player from the id pool\n        bool tokenIdPool,\n        string memory description\n    ) public {\n        require(\n            nft.hasRole(DEFAULT_ADMIN_ROLE, msg.sender),\n            \"Unauthorized user\"\n        );\n        require(\n            nft.hasRole(MINTER_ROLE, address(this)),\n            \"Must authorize contract minter privileges\"\n        );\n        require(itemByNFT[nft].id == 0, \"Already exists\");\n\n        (bool success, bytes memory cid)  = address(nft).staticcall(abi.encodeWithSignature(\"getCid(address)\"));\n        if (success) {\n            string memory cidstr = string(cid);\n            require(nftByCid[cidstr] == address(0), \"cid Already exists\");\n            nftByCid[cidstr] = address(nft);\n        }\n\n        uint256 itemId = itemIdCounters.current() + 1;\n        itemIdCounters.increment();\n\n        itemByNFT[nft] = Item(\n            itemId, \n            msg.sender,\n            tokenIdPool,\n            priceInWei,\n            0,\n            limit,\n            description\n        );\n\n        emit NFTCreated(itemId, msg.sender, nft, priceInWei);\n    }\n\n    function updateItemLimit(\n        // nft address\n        IERC721MelandNFT nft,\n\n        // Limit the number of individual wallet purchases\n        // If 0 means no limit\n        uint32 limit\n    ) public {\n        require(\n            nft.hasRole(DEFAULT_ADMIN_ROLE, msg.sender) || hasRole(GM_ROLE, msg.sender),\n            \"Unauthorized user\"\n        );\n        require(itemByNFT[nft].id > 0, \"NFT not found\");\n\n        itemByNFT[nft].limit = limit;\n\n        emit NFTItemUpdate(\n            itemByNFT[nft].id,\n            nft\n        );\n    }\n\n    function updateItemPriceInWei(\n        // nft address\n        IERC721MelandNFT nft,\n        // Purchase Price\n        uint256 priceInWei\n    )  public {\n        require(\n            nft.hasRole(DEFAULT_ADMIN_ROLE, msg.sender) || hasRole(GM_ROLE, msg.sender),\n            \"Unauthorized user\"\n        );\n        require(itemByNFT[nft].id > 0, \"NFT not found\");\n\n        itemByNFT[nft].priceInWei = priceInWei;\n\n        emit NFTItemUpdate(\n            itemByNFT[nft].id,\n            nft\n        );\n    }\n\n    function updateItemDescription(\n        // nft address\n        IERC721MelandNFT nft,\n\n        string memory description\n    )  public {\n        require(\n            nft.hasRole(DEFAULT_ADMIN_ROLE, msg.sender) || hasRole(GM_ROLE, msg.sender),\n            \"Unauthorized user\"\n        );\n        require(itemByNFT[nft].id > 0, \"NFT not found\");\n\n        itemByNFT[nft].description = description;\n\n        emit NFTItemUpdate(\n            itemByNFT[nft].id,\n            nft\n        );\n    }\n\n    function updateTokenIdPool(IERC721MelandNFT nft, uint256[] memory tokenIds) public\n    {\n        require(\n            nft.hasRole(DEFAULT_ADMIN_ROLE, msg.sender) || hasRole(GM_ROLE, msg.sender),\n            \"Unauthorized user\"\n        );\n        require(itemByNFT[nft].id > 0, \"NFT not found\");\n        for (uint256 i = 0; i < tokenIds.length; i++) {\n            try nft.ownerOf(tokenIds[i]) returns(address owner) {\n                require(owner == address(0), \"The token id pool exists for ids that have been minted\");\n            } catch(bytes memory) {\n                // ok\n            }\n        }\n        tokenIdsByNFT[nft] = tokenIds;\n        emit NFTIdPoolUpdate(itemByNFT[nft].id, nft, tokenIds.length);\n    }\n\n    // NFT\n    function deleteNFT(IERC721MelandNFT nft) public {\n        require(\n            nft.hasRole(DEFAULT_ADMIN_ROLE, msg.sender),\n            \"Unauthorized user\"\n        );\n        require(itemByNFT[nft].id > 0, \"NFT not found\");\n        Item memory item = itemByNFT[nft];\n        // \n        nft.renounceRole(MINTER_ROLE, address(this));\n        delete itemByNFT[nft];\n\n        emit NFTDelete(item.id, msg.sender, nft);\n    }\n\n    function randomIds(uint256[] memory ids) private view returns (uint256) {\n        // sha3 and now have been deprecated\n        return\n            uint256(\n                keccak256(\n                    abi.encodePacked(block.difficulty, block.timestamp, ids)\n                )\n            );\n    }\n\n    function getTokenIdByIdsPool(IERC721MelandNFT nft)\n        private\n        view\n        returns (uint256, uint256)\n    {\n        require(tokenIdsByNFT[nft].length > 0, \"nft Insufficient supply\");\n        uint256[] memory ids = tokenIdsByNFT[nft];\n        uint256 tokenIdIndex = randomIds(ids) % ids.length;\n        uint256 tokenId = ids[tokenIdIndex];\n        return (tokenId, tokenIdIndex);\n    }\n\n    function popTokenIdPoolByTokenIdIndex(\n        IERC721MelandNFT nft,\n        uint256 tokenIdIndex\n    ) private {\n        uint256[] storage ids = tokenIdsByNFT[nft];\n\n        // gas feedsarray\n        // . indexlast\n        // poplast\n        // evmarray\n        uint256 lastTokenIndex = ids.length - 1;\n        uint256 lastTokenId = ids[lastTokenIndex];\n        ids[tokenIdIndex] = lastTokenId;\n        ids.pop();\n        tokenIdsByNFT[nft] = ids;\n\n        emit NFTIdPoolUpdate(itemByNFT[nft].id, nft, ids.length);\n    }\n\n    // \n    // 50000 = 5%\n    // 500000 = 50%\n    function setOwnerCutPerMillion(uint256 _ownerCutPerMillion)\n        public\n        onlyRole(GM_ROLE)\n    {\n        require(\n            _ownerCutPerMillion < 1000000,\n            \"The owner cut should be between 0 and 999,999\"\n        );\n\n        ownerCutPerMillion = _ownerCutPerMillion;\n        emit ChangedOwnerCutPerMillion(ownerCutPerMillion);\n    }\n\n    function buyNFT(IERC721MelandNFT nft, uint256 priceInWei) public {\n        require(\n            nft.totalSupply() < nft.getMintMax(),\n            \"Exceeding the maximum supply quantity\"\n        );\n        Item memory item = itemByNFT[nft];\n        require(item.id > 0, \"NFT not found\");\n        require(item.priceInWei == priceInWei, \"The price is not correct\");\n\n        // If the restriction is turned on\n        if (item.limit > 0) {\n            require(limitPool[nft][msg.sender] < item.limit, \"Trigger restriction\");\n            limitPool[nft][msg.sender] = limitPool[nft][msg.sender].add(1);\n        }\n\n        address sender = _msgSender();\n        address seller = item.seller;\n\n        uint256 tokenId = 0;\n        uint256 tokenIdIndex = 0;\n        bool popTokenIdIndex = false;\n        // token ids pools enable\n        if (item.tokenIdPool) {\n            (tokenId, tokenIdIndex) = getTokenIdByIdsPool(nft);\n            popTokenIdIndex = true;\n        } else {\n            tokenId = nft.totalSupply() + 1;\n        }\n\n        item.sellsCount = item.sellsCount.add(1);\n        itemByNFT[nft] = item;\n\n        uint256 saleShareAmount = 0;\n\n        if (ownerCutPerMillion > 0) {\n            // Calculate sale share\n            saleShareAmount = priceInWei.mul(ownerCutPerMillion).div(1000000);\n\n            // 40% burn in handling fee\n            uint256 burnAmount = saleShareAmount.mul(40).div(100);\n\n            // The other 40% is held by the Foundation\n            uint256 foundationAmount = saleShareAmount.mul(40).div(100);\n\n            // The last 20% are official earnings\n            uint256 officialAmount = saleShareAmount.mul(20).div(100);\n\n            acceptedToken.burnFrom(sender, burnAmount);\n            require(\n                acceptedToken.transferFrom(\n                    sender,\n                    foundationWallet,\n                    foundationAmount\n                ),\n                \"Handling fee transfer to foundationWallet failure\"\n            );\n            require(\n                acceptedToken.transferFrom(\n                    sender,\n                    officialWallet,\n                    officialAmount\n                ),\n                \"Handling fee transfer to officialWallet to off failure\"\n            );\n        }\n\n        // Transfer sale amount to seller\n        require(\n            acceptedToken.transferFrom(\n                sender,\n                seller,\n                priceInWei.sub(saleShareAmount)\n            ),\n            \"Transfering the sale amount to the seller failed\"\n        );\n\n        nft.safeMint(sender, tokenId);\n\n        if (popTokenIdIndex) {\n            popTokenIdPoolByTokenIdIndex(nft, tokenIdIndex);\n        }\n\n        emit NFTBuyed(item.id, sender, nft, priceInWei);\n    }\n\n    function _authorizeUpgrade(address newImplementation)\n        internal\n        override\n        onlyRole(UPGRADER_ROLE)\n    {}\n}\n",
  "sourcePath": "/Users/alberthuang/code/icw/meland/contracts/NFTStore.sol",
  "compiler": {
    "name": "solc",
    "version": "0.8.9+commit.e5eed63a.Emscripten.clang"
  },
  "schemaVersion": "3.4.3",
  "updatedAt": "2021-11-22T10:47:38.914Z",
  "networkType": "ethereum",
  "devdoc": {
    "kind": "dev",
    "methods": {
      "getRoleAdmin(bytes32)": {
        "details": "Returns the admin role that controls `role`. See {grantRole} and {revokeRole}. To change a role's admin, use {_setRoleAdmin}."
      },
      "grantRole(bytes32,address)": {
        "details": "Grants `role` to `account`. If `account` had not been already granted `role`, emits a {RoleGranted} event. Requirements: - the caller must have ``role``'s admin role."
      },
      "hasRole(bytes32,address)": {
        "details": "Returns `true` if `account` has been granted `role`."
      },
      "paused()": {
        "details": "Returns true if the contract is paused, and false otherwise."
      },
      "renounceRole(bytes32,address)": {
        "details": "Revokes `role` from the calling account. Roles are often managed via {grantRole} and {revokeRole}: this function's purpose is to provide a mechanism for accounts to lose their privileges if they are compromised (such as when a trusted device is misplaced). If the calling account had been granted `role`, emits a {RoleRevoked} event. Requirements: - the caller must be `account`."
      },
      "revokeRole(bytes32,address)": {
        "details": "Revokes `role` from `account`. If `account` had been granted `role`, emits a {RoleRevoked} event. Requirements: - the caller must have ``role``'s admin role."
      },
      "supportsInterface(bytes4)": {
        "details": "See {IERC165-supportsInterface}."
      },
      "upgradeTo(address)": {
        "details": "Upgrade the implementation of the proxy to `newImplementation`. Calls {_authorizeUpgrade}. Emits an {Upgraded} event."
      },
      "upgradeToAndCall(address,bytes)": {
        "details": "Upgrade the implementation of the proxy to `newImplementation`, and subsequently execute the function call encoded in `data`. Calls {_authorizeUpgrade}. Emits an {Upgraded} event."
      }
    },
    "version": 1
  },
  "userdoc": {
    "kind": "user",
    "methods": {},
    "version": 1
  }
}