{
  "contractName": "NFTWithRarity",
  "abi": [
    {
      "anonymous": false,
      "inputs": [
        {
          "indexed": false,
          "internalType": "address",
          "name": "previousAdmin",
          "type": "address"
        },
        {
          "indexed": false,
          "internalType": "address",
          "name": "newAdmin",
          "type": "address"
        }
      ],
      "name": "AdminChanged",
      "type": "event"
    },
    {
      "anonymous": false,
      "inputs": [
        {
          "indexed": true,
          "internalType": "address",
          "name": "owner",
          "type": "address"
        },
        {
          "indexed": true,
          "internalType": "address",
          "name": "approved",
          "type": "address"
        },
        {
          "indexed": true,
          "internalType": "uint256",
          "name": "tokenId",
          "type": "uint256"
        }
      ],
      "name": "Approval",
      "type": "event"
    },
    {
      "anonymous": false,
      "inputs": [
        {
          "indexed": true,
          "internalType": "address",
          "name": "owner",
          "type": "address"
        },
        {
          "indexed": true,
          "internalType": "address",
          "name": "operator",
          "type": "address"
        },
        {
          "indexed": false,
          "internalType": "bool",
          "name": "approved",
          "type": "bool"
        }
      ],
      "name": "ApprovalForAll",
      "type": "event"
    },
    {
      "anonymous": false,
      "inputs": [
        {
          "indexed": true,
          "internalType": "address",
          "name": "beacon",
          "type": "address"
        }
      ],
      "name": "BeaconUpgraded",
      "type": "event"
    },
    {
      "anonymous": false,
      "inputs": [
        {
          "indexed": true,
          "internalType": "bytes32",
          "name": "role",
          "type": "bytes32"
        },
        {
          "indexed": true,
          "internalType": "bytes32",
          "name": "previousAdminRole",
          "type": "bytes32"
        },
        {
          "indexed": true,
          "internalType": "bytes32",
          "name": "newAdminRole",
          "type": "bytes32"
        }
      ],
      "name": "RoleAdminChanged",
      "type": "event"
    },
    {
      "anonymous": false,
      "inputs": [
        {
          "indexed": true,
          "internalType": "bytes32",
          "name": "role",
          "type": "bytes32"
        },
        {
          "indexed": true,
          "internalType": "address",
          "name": "account",
          "type": "address"
        },
        {
          "indexed": true,
          "internalType": "address",
          "name": "sender",
          "type": "address"
        }
      ],
      "name": "RoleGranted",
      "type": "event"
    },
    {
      "anonymous": false,
      "inputs": [
        {
          "indexed": true,
          "internalType": "bytes32",
          "name": "role",
          "type": "bytes32"
        },
        {
          "indexed": true,
          "internalType": "address",
          "name": "account",
          "type": "address"
        },
        {
          "indexed": true,
          "internalType": "address",
          "name": "sender",
          "type": "address"
        }
      ],
      "name": "RoleRevoked",
      "type": "event"
    },
    {
      "anonymous": false,
      "inputs": [
        {
          "indexed": true,
          "internalType": "address",
          "name": "from",
          "type": "address"
        },
        {
          "indexed": true,
          "internalType": "address",
          "name": "to",
          "type": "address"
        },
        {
          "indexed": true,
          "internalType": "uint256",
          "name": "tokenId",
          "type": "uint256"
        }
      ],
      "name": "Transfer",
      "type": "event"
    },
    {
      "anonymous": false,
      "inputs": [
        {
          "indexed": true,
          "internalType": "address",
          "name": "implementation",
          "type": "address"
        }
      ],
      "name": "Upgraded",
      "type": "event"
    },
    {
      "inputs": [],
      "name": "DEFAULT_ADMIN_ROLE",
      "outputs": [
        {
          "internalType": "bytes32",
          "name": "",
          "type": "bytes32"
        }
      ],
      "stateMutability": "view",
      "type": "function"
    },
    {
      "inputs": [],
      "name": "MINTER_ROLE",
      "outputs": [
        {
          "internalType": "bytes32",
          "name": "",
          "type": "bytes32"
        }
      ],
      "stateMutability": "view",
      "type": "function"
    },
    {
      "inputs": [],
      "name": "UPGRADER_ROLE",
      "outputs": [
        {
          "internalType": "bytes32",
          "name": "",
          "type": "bytes32"
        }
      ],
      "stateMutability": "view",
      "type": "function"
    },
    {
      "inputs": [
        {
          "internalType": "address",
          "name": "to",
          "type": "address"
        },
        {
          "internalType": "uint256",
          "name": "tokenId",
          "type": "uint256"
        }
      ],
      "name": "approve",
      "outputs": [],
      "stateMutability": "nonpayable",
      "type": "function"
    },
    {
      "inputs": [
        {
          "internalType": "address",
          "name": "owner",
          "type": "address"
        }
      ],
      "name": "balanceOf",
      "outputs": [
        {
          "internalType": "uint256",
          "name": "",
          "type": "uint256"
        }
      ],
      "stateMutability": "view",
      "type": "function"
    },
    {
      "inputs": [
        {
          "internalType": "uint256",
          "name": "tokenId",
          "type": "uint256"
        }
      ],
      "name": "getApproved",
      "outputs": [
        {
          "internalType": "address",
          "name": "",
          "type": "address"
        }
      ],
      "stateMutability": "view",
      "type": "function"
    },
    {
      "inputs": [
        {
          "internalType": "bytes32",
          "name": "role",
          "type": "bytes32"
        }
      ],
      "name": "getRoleAdmin",
      "outputs": [
        {
          "internalType": "bytes32",
          "name": "",
          "type": "bytes32"
        }
      ],
      "stateMutability": "view",
      "type": "function"
    },
    {
      "inputs": [
        {
          "internalType": "bytes32",
          "name": "role",
          "type": "bytes32"
        },
        {
          "internalType": "address",
          "name": "account",
          "type": "address"
        }
      ],
      "name": "grantRole",
      "outputs": [],
      "stateMutability": "nonpayable",
      "type": "function"
    },
    {
      "inputs": [
        {
          "internalType": "bytes32",
          "name": "role",
          "type": "bytes32"
        },
        {
          "internalType": "address",
          "name": "account",
          "type": "address"
        }
      ],
      "name": "hasRole",
      "outputs": [
        {
          "internalType": "bool",
          "name": "",
          "type": "bool"
        }
      ],
      "stateMutability": "view",
      "type": "function"
    },
    {
      "inputs": [
        {
          "internalType": "address",
          "name": "owner",
          "type": "address"
        },
        {
          "internalType": "address",
          "name": "operator",
          "type": "address"
        }
      ],
      "name": "isApprovedForAll",
      "outputs": [
        {
          "internalType": "bool",
          "name": "",
          "type": "bool"
        }
      ],
      "stateMutability": "view",
      "type": "function"
    },
    {
      "inputs": [],
      "name": "name",
      "outputs": [
        {
          "internalType": "string",
          "name": "",
          "type": "string"
        }
      ],
      "stateMutability": "view",
      "type": "function"
    },
    {
      "inputs": [
        {
          "internalType": "uint256",
          "name": "tokenId",
          "type": "uint256"
        }
      ],
      "name": "ownerOf",
      "outputs": [
        {
          "internalType": "address",
          "name": "",
          "type": "address"
        }
      ],
      "stateMutability": "view",
      "type": "function"
    },
    {
      "inputs": [
        {
          "internalType": "bytes32",
          "name": "role",
          "type": "bytes32"
        },
        {
          "internalType": "address",
          "name": "account",
          "type": "address"
        }
      ],
      "name": "renounceRole",
      "outputs": [],
      "stateMutability": "nonpayable",
      "type": "function"
    },
    {
      "inputs": [
        {
          "internalType": "bytes32",
          "name": "role",
          "type": "bytes32"
        },
        {
          "internalType": "address",
          "name": "account",
          "type": "address"
        }
      ],
      "name": "revokeRole",
      "outputs": [],
      "stateMutability": "nonpayable",
      "type": "function"
    },
    {
      "inputs": [
        {
          "internalType": "address",
          "name": "from",
          "type": "address"
        },
        {
          "internalType": "address",
          "name": "to",
          "type": "address"
        },
        {
          "internalType": "uint256",
          "name": "tokenId",
          "type": "uint256"
        }
      ],
      "name": "safeTransferFrom",
      "outputs": [],
      "stateMutability": "nonpayable",
      "type": "function"
    },
    {
      "inputs": [
        {
          "internalType": "address",
          "name": "from",
          "type": "address"
        },
        {
          "internalType": "address",
          "name": "to",
          "type": "address"
        },
        {
          "internalType": "uint256",
          "name": "tokenId",
          "type": "uint256"
        },
        {
          "internalType": "bytes",
          "name": "_data",
          "type": "bytes"
        }
      ],
      "name": "safeTransferFrom",
      "outputs": [],
      "stateMutability": "nonpayable",
      "type": "function"
    },
    {
      "inputs": [
        {
          "internalType": "address",
          "name": "operator",
          "type": "address"
        },
        {
          "internalType": "bool",
          "name": "approved",
          "type": "bool"
        }
      ],
      "name": "setApprovalForAll",
      "outputs": [],
      "stateMutability": "nonpayable",
      "type": "function"
    },
    {
      "inputs": [],
      "name": "symbol",
      "outputs": [
        {
          "internalType": "string",
          "name": "",
          "type": "string"
        }
      ],
      "stateMutability": "view",
      "type": "function"
    },
    {
      "inputs": [
        {
          "internalType": "uint256",
          "name": "index",
          "type": "uint256"
        }
      ],
      "name": "tokenByIndex",
      "outputs": [
        {
          "internalType": "uint256",
          "name": "",
          "type": "uint256"
        }
      ],
      "stateMutability": "view",
      "type": "function"
    },
    {
      "inputs": [
        {
          "internalType": "address",
          "name": "owner",
          "type": "address"
        },
        {
          "internalType": "uint256",
          "name": "index",
          "type": "uint256"
        }
      ],
      "name": "tokenOfOwnerByIndex",
      "outputs": [
        {
          "internalType": "uint256",
          "name": "",
          "type": "uint256"
        }
      ],
      "stateMutability": "view",
      "type": "function"
    },
    {
      "inputs": [],
      "name": "totalSupply",
      "outputs": [
        {
          "internalType": "uint256",
          "name": "",
          "type": "uint256"
        }
      ],
      "stateMutability": "view",
      "type": "function"
    },
    {
      "inputs": [
        {
          "internalType": "address",
          "name": "from",
          "type": "address"
        },
        {
          "internalType": "address",
          "name": "to",
          "type": "address"
        },
        {
          "internalType": "uint256",
          "name": "tokenId",
          "type": "uint256"
        }
      ],
      "name": "transferFrom",
      "outputs": [],
      "stateMutability": "nonpayable",
      "type": "function"
    },
    {
      "inputs": [
        {
          "internalType": "address",
          "name": "newImplementation",
          "type": "address"
        }
      ],
      "name": "upgradeTo",
      "outputs": [],
      "stateMutability": "nonpayable",
      "type": "function"
    },
    {
      "inputs": [
        {
          "internalType": "address",
          "name": "newImplementation",
          "type": "address"
        },
        {
          "internalType": "bytes",
          "name": "data",
          "type": "bytes"
        }
      ],
      "name": "upgradeToAndCall",
      "outputs": [],
      "stateMutability": "payable",
      "type": "function"
    },
    {
      "inputs": [
        {
          "internalType": "bytes4",
          "name": "interfaceId",
          "type": "bytes4"
        }
      ],
      "name": "supportsInterface",
      "outputs": [
        {
          "internalType": "bool",
          "name": "",
          "type": "bool"
        }
      ],
      "stateMutability": "view",
      "type": "function"
    },
    {
      "inputs": [
        {
          "internalType": "string",
          "name": "name",
          "type": "string"
        },
        {
          "internalType": "string",
          "name": "_cid",
          "type": "string"
        }
      ],
      "name": "initialize",
      "outputs": [],
      "stateMutability": "nonpayable",
      "type": "function"
    },
    {
      "inputs": [],
      "name": "getMintMax",
      "outputs": [
        {
          "internalType": "uint256",
          "name": "",
          "type": "uint256"
        }
      ],
      "stateMutability": "pure",
      "type": "function"
    },
    {
      "inputs": [],
      "name": "getCid",
      "outputs": [
        {
          "internalType": "string",
          "name": "",
          "type": "string"
        }
      ],
      "stateMutability": "view",
      "type": "function"
    },
    {
      "inputs": [],
      "name": "rarity",
      "outputs": [
        {
          "internalType": "string",
          "name": "",
          "type": "string"
        }
      ],
      "stateMutability": "view",
      "type": "function"
    },
    {
      "inputs": [
        {
          "internalType": "string",
          "name": "baseURI_",
          "type": "string"
        }
      ],
      "name": "setBaseURI",
      "outputs": [],
      "stateMutability": "nonpayable",
      "type": "function"
    },
    {
      "inputs": [
        {
          "internalType": "uint256",
          "name": "_tokenId",
          "type": "uint256"
        }
      ],
      "name": "tokenURI",
      "outputs": [
        {
          "internalType": "string",
          "name": "",
          "type": "string"
        }
      ],
      "stateMutability": "view",
      "type": "function"
    }
  ],
  "bytecode": "0x608060405234801561001057600080fd5b50614ba4806100206000396000f3fe6080604052600436106101d85760003560e01c80634f6ccce711610102578063b88d4fde11610095578063d547741f11610064578063d547741f146106e5578063e985e9c51461070e578063f72c0d8b1461074b578063fef21f0f14610776576101d8565b8063b88d4fde14610629578063c87b56dd14610652578063ca00c7021461068f578063d5391393146106ba576101d8565b806391d14854116100d157806391d148541461056d57806395d89b41146105aa578063a217fddf146105d5578063a22cb46514610600576101d8565b80634f6ccce71461048d57806355f804b3146104ca5780636352211e146104f357806370a0823114610530576101d8565b8063248a9ca31161017a5780633659cfe6116101495780633659cfe6146103f657806342842e0e1461041f5780634cd88b76146104485780634f1ef28614610471576101d8565b8063248a9ca31461032a5780632f2ff15d146103675780632f745c591461039057806336568abe146103cd576101d8565b8063095ea7b3116101b6578063095ea7b31461028257806318160ddd146102ab5780631e51e4a1146102d657806323b872dd14610301576101d8565b806301ffc9a7146101dd57806306fdde031461021a578063081812fc14610245575b600080fd5b3480156101e957600080fd5b5061020460048036038101906101ff9190613377565b6107a1565b60405161021191906133bf565b60405180910390f35b34801561022657600080fd5b5061022f6107b3565b60405161023c9190613473565b60405180910390f35b34801561025157600080fd5b5061026c600480360381019061026791906134cb565b610845565b6040516102799190613539565b60405180910390f35b34801561028e57600080fd5b506102a960048036038101906102a49190613580565b6108ca565b005b3480156102b757600080fd5b506102c06109e2565b6040516102cd91906135cf565b60405180910390f35b3480156102e257600080fd5b506102eb6109f0565b6040516102f891906135cf565b60405180910390f35b34801561030d57600080fd5b50610328600480360381019061032391906135ea565b6109fa565b005b34801561033657600080fd5b50610351600480360381019061034c9190613673565b610a5a565b60405161035e91906136af565b60405180910390f35b34801561037357600080fd5b5061038e600480360381019061038991906136ca565b610a7b565b005b34801561039c57600080fd5b506103b760048036038101906103b29190613580565b610aa4565b6040516103c491906135cf565b60405180910390f35b3480156103d957600080fd5b506103f460048036038101906103ef91906136ca565b610b4a565b005b34801561040257600080fd5b5061041d6004803603810190610418919061370a565b610bcd565b005b34801561042b57600080fd5b50610446600480360381019061044191906135ea565b610bf4565b005b34801561045457600080fd5b5061046f600480360381019061046a919061386c565b610c14565b005b61048b60048036038101906104869190613985565b610db7565b005b34801561049957600080fd5b506104b460048036038101906104af91906134cb565b610dd0565b6040516104c191906135cf565b60405180910390f35b3480156104d657600080fd5b506104f160048036038101906104ec91906139e1565b610e42565b005b3480156104ff57600080fd5b5061051a600480360381019061051591906134cb565b610e73565b6040516105279190613539565b60405180910390f35b34801561053c57600080fd5b506105576004803603810190610552919061370a565b610f25565b60405161056491906135cf565b60405180910390f35b34801561057957600080fd5b50610594600480360381019061058f91906136ca565b610fdd565b6040516105a191906133bf565b60405180910390f35b3480156105b657600080fd5b506105bf611049565b6040516105cc9190613473565b60405180910390f35b3480156105e157600080fd5b506105ea6110db565b6040516105f791906136af565b60405180910390f35b34801561060c57600080fd5b5061062760048036038101906106229190613a56565b6110e2565b005b34801561063557600080fd5b50610650600480360381019061064b9190613a96565b611263565b005b34801561065e57600080fd5b50610679600480360381019061067491906134cb565b6112c5565b6040516106869190613473565b60405180910390f35b34801561069b57600080fd5b506106a4611337565b6040516106b19190613473565b60405180910390f35b3480156106c657600080fd5b506106cf6113ca565b6040516106dc91906136af565b60405180910390f35b3480156106f157600080fd5b5061070c600480360381019061070791906136ca565b6113ee565b005b34801561071a57600080fd5b5061073560048036038101906107309190613b19565b611417565b60405161074291906133bf565b60405180910390f35b34801561075757600080fd5b506107606114ab565b60405161076d91906136af565b60405180910390f35b34801561078257600080fd5b5061078b6114cf565b6040516107989190613473565b60405180910390f35b60006107ac826114d4565b9050919050565b6060606580546107c290613b88565b80601f01602080910402602001604051908101604052809291908181526020018280546107ee90613b88565b801561083b5780601f106108105761010080835404028352916020019161083b565b820191906000526020600020905b81548152906001019060200180831161081e57829003601f168201915b5050505050905090565b60006108508261154e565b61088f576040517f08c379a000000000000000000000000000000000000000000000000000000000815260040161088690613c2c565b60405180910390fd5b6069600083815260200190815260200160002060009054906101000a900473ffffffffffffffffffffffffffffffffffffffff169050919050565b60006108d582610e73565b90508073ffffffffffffffffffffffffffffffffffffffff168373ffffffffffffffffffffffffffffffffffffffff161415610946576040517f08c379a000000000000000000000000000000000000000000000000000000000815260040161093d90613cbe565b60405180910390fd5b8073ffffffffffffffffffffffffffffffffffffffff166109656115ba565b73ffffffffffffffffffffffffffffffffffffffff16148061099457506109938161098e6115ba565b611417565b5b6109d3576040517f08c379a00000000000000000000000000000000000000000000000000000000081526004016109ca90613d50565b60405180910390fd5b6109dd83836115c2565b505050565b600061016180549050905090565b6000612710905090565b610a0b610a056115ba565b8261167b565b610a4a576040517f08c379a0000000000000000000000000000000000000000000000000000000008152600401610a4190613de2565b60405180910390fd5b610a55838383611759565b505050565b600061012d6000838152602001908152602001600020600101549050919050565b610a8482610a5a565b610a9581610a906115ba565b6119b5565b610a9f8383611a52565b505050565b6000610aaf83610f25565b8210610af0576040517f08c379a0000000000000000000000000000000000000000000000000000000008152600401610ae790613e74565b60405180910390fd5b61015f60008473ffffffffffffffffffffffffffffffffffffffff1673ffffffffffffffffffffffffffffffffffffffff168152602001908152602001600020600083815260200190815260200160002054905092915050565b610b526115ba565b73ffffffffffffffffffffffffffffffffffffffff168173ffffffffffffffffffffffffffffffffffffffff1614610bbf576040517f08c379a0000000000000000000000000000000000000000000000000000000008152600401610bb690613f06565b60405180910390fd5b610bc98282611b34565b5050565b610bd681611c17565b610bf181604051806020016040528060008152506000611c4d565b50565b610c0f83838360405180602001604052806000815250611263565b505050565b600060019054906101000a900460ff1680610c3a575060008054906101000a900460ff16155b610c79576040517f08c379a0000000000000000000000000000000000000000000000000000000008152600401610c7090613f98565b60405180910390fd5b60008060019054906101000a900460ff161590508015610cc9576001600060016101000a81548160ff02191690831515021790555060016000806101000a81548160ff0219169083151502179055505b610d08836040518060400160405280601081526020017f4d454c414e442d504c41434541424c4500000000000000000000000000000000815250611e1e565b610d10611f13565b610d18612004565b610d256000801b336120f5565b610d4f7f9f2df0fed2c77648de5860a4cc508cd0818c85b8b8a1ab4ceeef8d981c8956a6336120f5565b610d797f189ab7a9244df0848122154315af71fe140f3db0fe014031783b0946b8c9d2e3336120f5565b816101929080519060200190610d90929190613268565b508015610db25760008060016101000a81548160ff0219169083151502179055505b505050565b610dc082611c17565b610dcc82826001611c4d565b5050565b6000610dda6109e2565b8210610e1b576040517f08c379a0000000000000000000000000000000000000000000000000000000008152600401610e129061402a565b60405180910390fd5b6101618281548110610e3057610e2f61404a565b5b90600052602060002001549050919050565b6000801b610e5781610e526115ba565b6119b5565b816101919080519060200190610e6e929190613268565b505050565b6000806067600084815260200190815260200160002060009054906101000a900473ffffffffffffffffffffffffffffffffffffffff169050600073ffffffffffffffffffffffffffffffffffffffff168173ffffffffffffffffffffffffffffffffffffffff161415610f1c576040517f08c379a0000000000000000000000000000000000000000000000000000000008152600401610f13906140eb565b60405180910390fd5b80915050919050565b60008073ffffffffffffffffffffffffffffffffffffffff168273ffffffffffffffffffffffffffffffffffffffff161415610f96576040517f08c379a0000000000000000000000000000000000000000000000000000000008152600401610f8d9061417d565b60405180910390fd5b606860008373ffffffffffffffffffffffffffffffffffffffff1673ffffffffffffffffffffffffffffffffffffffff168152602001908152602001600020549050919050565b600061012d600084815260200190815260200160002060000160008373ffffffffffffffffffffffffffffffffffffffff1673ffffffffffffffffffffffffffffffffffffffff16815260200190815260200160002060009054906101000a900460ff16905092915050565b60606066805461105890613b88565b80601f016020809104026020016040519081016040528092919081815260200182805461108490613b88565b80156110d15780601f106110a6576101008083540402835291602001916110d1565b820191906000526020600020905b8154815290600101906020018083116110b457829003601f168201915b5050505050905090565b6000801b81565b6110ea6115ba565b73ffffffffffffffffffffffffffffffffffffffff168273ffffffffffffffffffffffffffffffffffffffff161415611158576040517f08c379a000000000000000000000000000000000000000000000000000000000815260040161114f906141e9565b60405180910390fd5b80606a60006111656115ba565b73ffffffffffffffffffffffffffffffffffffffff1673ffffffffffffffffffffffffffffffffffffffff16815260200190815260200160002060008473ffffffffffffffffffffffffffffffffffffffff1673ffffffffffffffffffffffffffffffffffffffff16815260200190815260200160002060006101000a81548160ff0219169083151502179055508173ffffffffffffffffffffffffffffffffffffffff166112126115ba565b73ffffffffffffffffffffffffffffffffffffffff167f17307eab39ab6107e8899845ad3d59bd9653f200f220920489ca2b5937696c318360405161125791906133bf565b60405180910390a35050565b61127461126e6115ba565b8361167b565b6112b3576040517f08c379a00000000000000000000000000000000000000000000000000000000081526004016112aa90613de2565b60405180910390fd5b6112bf84848484612103565b50505050565b60606000821161130a576040517f08c379a000000000000000000000000000000000000000000000000000000000815260040161130190614255565b60405180910390fd5b610191610192604051602001611321929190614314565b6040516020818303038152906040529050919050565b6060610192805461134790613b88565b80601f016020809104026020016040519081016040528092919081815260200182805461137390613b88565b80156113c05780601f10611395576101008083540402835291602001916113c0565b820191906000526020600020905b8154815290600101906020018083116113a357829003601f168201915b5050505050905090565b7f9f2df0fed2c77648de5860a4cc508cd0818c85b8b8a1ab4ceeef8d981c8956a681565b6113f782610a5a565b611408816114036115ba565b6119b5565b6114128383611b34565b505050565b6000606a60008473ffffffffffffffffffffffffffffffffffffffff1673ffffffffffffffffffffffffffffffffffffffff16815260200190815260200160002060008373ffffffffffffffffffffffffffffffffffffffff1673ffffffffffffffffffffffffffffffffffffffff16815260200190815260200160002060009054906101000a900460ff16905092915050565b7f189ab7a9244df0848122154315af71fe140f3db0fe014031783b0946b8c9d2e381565b606090565b60007f780e9d63000000000000000000000000000000000000000000000000000000007bffffffffffffffffffffffffffffffffffffffffffffffffffffffff1916827bffffffffffffffffffffffffffffffffffffffffffffffffffffffff1916148061154757506115468261215f565b5b9050919050565b60008073ffffffffffffffffffffffffffffffffffffffff166067600084815260200190815260200160002060009054906101000a900473ffffffffffffffffffffffffffffffffffffffff1673ffffffffffffffffffffffffffffffffffffffff1614159050919050565b600033905090565b816069600083815260200190815260200160002060006101000a81548173ffffffffffffffffffffffffffffffffffffffff021916908373ffffffffffffffffffffffffffffffffffffffff160217905550808273ffffffffffffffffffffffffffffffffffffffff1661163583610e73565b73ffffffffffffffffffffffffffffffffffffffff167f8c5be1e5ebec7d5bd14f71427d1e84f3dd0314c0f7b2291e5b200ac8c7c3b92560405160405180910390a45050565b60006116868261154e565b6116c5576040517f08c379a00000000000000000000000000000000000000000000000000000000081526004016116bc906143aa565b60405180910390fd5b60006116d083610e73565b90508073ffffffffffffffffffffffffffffffffffffffff168473ffffffffffffffffffffffffffffffffffffffff16148061173f57508373ffffffffffffffffffffffffffffffffffffffff1661172784610845565b73ffffffffffffffffffffffffffffffffffffffff16145b80611750575061174f8185611417565b5b91505092915050565b8273ffffffffffffffffffffffffffffffffffffffff1661177982610e73565b73ffffffffffffffffffffffffffffffffffffffff16146117cf576040517f08c379a00000000000000000000000000000000000000000000000000000000081526004016117c69061443c565b60405180910390fd5b600073ffffffffffffffffffffffffffffffffffffffff168273ffffffffffffffffffffffffffffffffffffffff16141561183f576040517f08c379a0000000000000000000000000000000000000000000000000000000008152600401611836906144ce565b60405180910390fd5b61184a8383836121d9565b6118556000826115c2565b6001606860008573ffffffffffffffffffffffffffffffffffffffff1673ffffffffffffffffffffffffffffffffffffffff16815260200190815260200160002060008282546118a5919061451d565b925050819055506001606860008473ffffffffffffffffffffffffffffffffffffffff1673ffffffffffffffffffffffffffffffffffffffff16815260200190815260200160002060008282546118fc9190614551565b92505081905550816067600083815260200190815260200160002060006101000a81548173ffffffffffffffffffffffffffffffffffffffff021916908373ffffffffffffffffffffffffffffffffffffffff160217905550808273ffffffffffffffffffffffffffffffffffffffff168473ffffffffffffffffffffffffffffffffffffffff167fddf252ad1be2c89b69c2b068fc378daa952ba7f163c4a11628f55a4df523b3ef60405160405180910390a4505050565b6119bf8282610fdd565b611a4e576119e48173ffffffffffffffffffffffffffffffffffffffff1660146121e9565b6119f28360001c60206121e9565b604051602001611a03929190614670565b6040516020818303038152906040526040517f08c379a0000000000000000000000000000000000000000000000000000000008152600401611a459190613473565b60405180910390fd5b5050565b611a5c8282610fdd565b611b3057600161012d600084815260200190815260200160002060000160008373ffffffffffffffffffffffffffffffffffffffff1673ffffffffffffffffffffffffffffffffffffffff16815260200190815260200160002060006101000a81548160ff021916908315150217905550611ad56115ba565b73ffffffffffffffffffffffffffffffffffffffff168173ffffffffffffffffffffffffffffffffffffffff16837f2f8788117e7eff1d82e926ec794901d17c78024a50270940304540a733656f0d60405160405180910390a45b5050565b611b3e8282610fdd565b15611c1357600061012d600084815260200190815260200160002060000160008373ffffffffffffffffffffffffffffffffffffffff1673ffffffffffffffffffffffffffffffffffffffff16815260200190815260200160002060006101000a81548160ff021916908315150217905550611bb86115ba565b73ffffffffffffffffffffffffffffffffffffffff168173ffffffffffffffffffffffffffffffffffffffff16837ff6391f5c32d9c69d2a47ea670b442974b53935d1edc7fd64eb21e047a839171b60405160405180910390a45b5050565b7f189ab7a9244df0848122154315af71fe140f3db0fe014031783b0946b8c9d2e3611c4981611c446115ba565b6119b5565b5050565b6000611c57612425565b9050611c628461247c565b600083511180611c6f5750815b15611c8057611c7e8484612535565b505b6000611cae7f4910fdfa16fed3260ed0e7147f7cc6da11a60208b5b9406d12a635614ffd914360001b612619565b90508060000160009054906101000a900460ff16611e175760018160000160006101000a81548160ff021916908315150217905550611d7a8583604051602401611cf89190613539565b6040516020818303038152906040527f3659cfe6000000000000000000000000000000000000000000000000000000007bffffffffffffffffffffffffffffffffffffffffffffffffffffffff19166020820180517bffffffffffffffffffffffffffffffffffffffffffffffffffffffff8381831617835250505050612535565b5060008160000160006101000a81548160ff021916908315150217905550611da0612425565b73ffffffffffffffffffffffffffffffffffffffff168273ffffffffffffffffffffffffffffffffffffffff1614611e0d576040517f08c379a0000000000000000000000000000000000000000000000000000000008152600401611e049061471c565b60405180910390fd5b611e1685612623565b5b5050505050565b600060019054906101000a900460ff1680611e44575060008054906101000a900460ff16155b611e83576040517f08c379a0000000000000000000000000000000000000000000000000000000008152600401611e7a90613f98565b60405180910390fd5b60008060019054906101000a900460ff161590508015611ed3576001600060016101000a81548160ff02191690831515021790555060016000806101000a81548160ff0219169083151502179055505b611edb612672565b611ee361274b565b611eed8383612824565b8015611f0e5760008060016101000a81548160ff0219169083151502179055505b505050565b600060019054906101000a900460ff1680611f39575060008054906101000a900460ff16155b611f78576040517f08c379a0000000000000000000000000000000000000000000000000000000008152600401611f6f90613f98565b60405180910390fd5b60008060019054906101000a900460ff161590508015611fc8576001600060016101000a81548160ff02191690831515021790555060016000806101000a81548160ff0219169083151502179055505b611fd0612672565b611fd861274b565b611fe061292d565b80156120015760008060016101000a81548160ff0219169083151502179055505b50565b600060019054906101000a900460ff168061202a575060008054906101000a900460ff16155b612069576040517f08c379a000000000000000000000000000000000000000000000000000000000815260040161206090613f98565b60405180910390fd5b60008060019054906101000a900460ff1615905080156120b9576001600060016101000a81548160ff02191690831515021790555060016000806101000a81548160ff0219169083151502179055505b6120c1612672565b6120c961274b565b6120d1612a06565b80156120f25760008060016101000a81548160ff0219169083151502179055505b50565b6120ff8282611a52565b5050565b61210e848484611759565b61211a84848484612adf565b612159576040517f08c379a0000000000000000000000000000000000000000000000000000000008152600401612150906147ae565b60405180910390fd5b50505050565b60007f7965db0b000000000000000000000000000000000000000000000000000000007bffffffffffffffffffffffffffffffffffffffffffffffffffffffff1916827bffffffffffffffffffffffffffffffffffffffffffffffffffffffff191614806121d257506121d182612c67565b5b9050919050565b6121e4838383612d49565b505050565b6060600060028360026121fc91906147ce565b6122069190614551565b67ffffffffffffffff81111561221f5761221e613741565b5b6040519080825280601f01601f1916602001820160405280156122515781602001600182028036833780820191505090505b5090507f3000000000000000000000000000000000000000000000000000000000000000816000815181106122895761228861404a565b5b60200101907effffffffffffffffffffffffffffffffffffffffffffffffffffffffffffff1916908160001a9053507f7800000000000000000000000000000000000000000000000000000000000000816001815181106122ed576122ec61404a565b5b60200101907effffffffffffffffffffffffffffffffffffffffffffffffffffffffffffff1916908160001a9053506000600184600261232d91906147ce565b6123379190614551565b90505b60018111156123d7577f3031323334353637383961626364656600000000000000000000000000000000600f8616601081106123795761237861404a565b5b1a60f81b8282815181106123905761238f61404a565b5b60200101907effffffffffffffffffffffffffffffffffffffffffffffffffffffffffffff1916908160001a905350600485901c9450806123d090614828565b905061233a565b506000841461241b576040517f08c379a00000000000000000000000000000000000000000000000000000000081526004016124129061489e565b60405180910390fd5b8091505092915050565b60006124537f360894a13ba1a3210667c828492db98dca3e2076cc3735a920a3ca505d382bbc60001b612e5d565b60000160009054906101000a900473ffffffffffffffffffffffffffffffffffffffff16905090565b61248581612e67565b6124c4576040517f08c379a00000000000000000000000000000000000000000000000000000000081526004016124bb90614930565b60405180910390fd5b806124f17f360894a13ba1a3210667c828492db98dca3e2076cc3735a920a3ca505d382bbc60001b612e5d565b60000160006101000a81548173ffffffffffffffffffffffffffffffffffffffff021916908373ffffffffffffffffffffffffffffffffffffffff16021790555050565b606061254083612e67565b61257f576040517f08c379a0000000000000000000000000000000000000000000000000000000008152600401612576906149c2565b60405180910390fd5b6000808473ffffffffffffffffffffffffffffffffffffffff16846040516125a79190614a29565b600060405180830381855af49150503d80600081146125e2576040519150601f19603f3d011682016040523d82523d6000602084013e6125e7565b606091505b509150915061260f8282604051806060016040528060278152602001614b4860279139612e7a565b9250505092915050565b6000819050919050565b61262c8161247c565b8073ffffffffffffffffffffffffffffffffffffffff167fbc7cd75a20ee27fd9adebab32041f755214dbc6bffa90cc0225b39da2e5c2d3b60405160405180910390a250565b600060019054906101000a900460ff1680612698575060008054906101000a900460ff16155b6126d7576040517f08c379a00000000000000000000000000000000000000000000000000000000081526004016126ce90613f98565b60405180910390fd5b60008060019054906101000a900460ff161590508015612727576001600060016101000a81548160ff02191690831515021790555060016000806101000a81548160ff0219169083151502179055505b80156127485760008060016101000a81548160ff0219169083151502179055505b50565b600060019054906101000a900460ff1680612771575060008054906101000a900460ff16155b6127b0576040517f08c379a00000000000000000000000000000000000000000000000000000000081526004016127a790613f98565b60405180910390fd5b60008060019054906101000a900460ff161590508015612800576001600060016101000a81548160ff02191690831515021790555060016000806101000a81548160ff0219169083151502179055505b80156128215760008060016101000a81548160ff0219169083151502179055505b50565b600060019054906101000a900460ff168061284a575060008054906101000a900460ff16155b612889576040517f08c379a000000000000000000000000000000000000000000000000000000000815260040161288090613f98565b60405180910390fd5b60008060019054906101000a900460ff1615905080156128d9576001600060016101000a81548160ff02191690831515021790555060016000806101000a81548160ff0219169083151502179055505b82606590805190602001906128ef929190613268565b508160669080519060200190612906929190613268565b5080156129285760008060016101000a81548160ff0219169083151502179055505b505050565b600060019054906101000a900460ff1680612953575060008054906101000a900460ff16155b612992576040517f08c379a000000000000000000000000000000000000000000000000000000000815260040161298990613f98565b60405180910390fd5b60008060019054906101000a900460ff1615905080156129e2576001600060016101000a81548160ff02191690831515021790555060016000806101000a81548160ff0219169083151502179055505b8015612a035760008060016101000a81548160ff0219169083151502179055505b50565b600060019054906101000a900460ff1680612a2c575060008054906101000a900460ff16155b612a6b576040517f08c379a0000000000000000000000000000000000000000000000000000000008152600401612a6290613f98565b60405180910390fd5b60008060019054906101000a900460ff161590508015612abb576001600060016101000a81548160ff02191690831515021790555060016000806101000a81548160ff0219169083151502179055505b8015612adc5760008060016101000a81548160ff0219169083151502179055505b50565b6000612b008473ffffffffffffffffffffffffffffffffffffffff16612e67565b15612c5a578373ffffffffffffffffffffffffffffffffffffffff1663150b7a02612b296115ba565b8786866040518563ffffffff1660e01b8152600401612b4b9493929190614a8a565b6020604051808303816000875af1925050508015612b8757506040513d601f19601f82011682018060405250810190612b849190614aeb565b60015b612c0a573d8060008114612bb7576040519150601f19603f3d011682016040523d82523d6000602084013e612bbc565b606091505b50600081511415612c02576040517f08c379a0000000000000000000000000000000000000000000000000000000008152600401612bf9906147ae565b60405180910390fd5b805181602001fd5b63150b7a0260e01b7bffffffffffffffffffffffffffffffffffffffffffffffffffffffff1916817bffffffffffffffffffffffffffffffffffffffffffffffffffffffff191614915050612c5f565b600190505b949350505050565b60007f80ac58cd000000000000000000000000000000000000000000000000000000007bffffffffffffffffffffffffffffffffffffffffffffffffffffffff1916827bffffffffffffffffffffffffffffffffffffffffffffffffffffffff19161480612d3257507f5b5e139f000000000000000000000000000000000000000000000000000000007bffffffffffffffffffffffffffffffffffffffffffffffffffffffff1916827bffffffffffffffffffffffffffffffffffffffffffffffffffffffff1916145b80612d425750612d4182612ee1565b5b9050919050565b612d54838383612f4b565b600073ffffffffffffffffffffffffffffffffffffffff168373ffffffffffffffffffffffffffffffffffffffff161415612d9757612d9281612f50565b612dd6565b8173ffffffffffffffffffffffffffffffffffffffff168373ffffffffffffffffffffffffffffffffffffffff1614612dd557612dd48382612f9c565b5b5b600073ffffffffffffffffffffffffffffffffffffffff168273ffffffffffffffffffffffffffffffffffffffff161415612e1957612e148161310f565b612e58565b8273ffffffffffffffffffffffffffffffffffffffff168273ffffffffffffffffffffffffffffffffffffffff1614612e5757612e5682826131e7565b5b5b505050565b6000819050919050565b600080823b905060008111915050919050565b60608315612e8a57829050612eda565b600083511115612e9d5782518084602001fd5b816040517f08c379a0000000000000000000000000000000000000000000000000000000008152600401612ed19190613473565b60405180910390fd5b9392505050565b60007f01ffc9a7000000000000000000000000000000000000000000000000000000007bffffffffffffffffffffffffffffffffffffffffffffffffffffffff1916827bffffffffffffffffffffffffffffffffffffffffffffffffffffffff1916149050919050565b505050565b6101618054905061016260008381526020019081526020016000208190555061016181908060018154018082558091505060019003906000526020600020016000909190919091505550565b60006001612fa984610f25565b612fb3919061451d565b90506000610160600084815260200190815260200160002054905081811461309c57600061015f60008673ffffffffffffffffffffffffffffffffffffffff1673ffffffffffffffffffffffffffffffffffffffff16815260200190815260200160002060008481526020019081526020016000205490508061015f60008773ffffffffffffffffffffffffffffffffffffffff1673ffffffffffffffffffffffffffffffffffffffff16815260200190815260200160002060008481526020019081526020016000208190555081610160600083815260200190815260200160002081905550505b61016060008481526020019081526020016000206000905561015f60008573ffffffffffffffffffffffffffffffffffffffff1673ffffffffffffffffffffffffffffffffffffffff16815260200190815260200160002060008381526020019081526020016000206000905550505050565b6000600161016180549050613124919061451d565b905060006101626000848152602001908152602001600020549050600061016183815481106131565761315561404a565b5b906000526020600020015490508061016183815481106131795761317861404a565b5b9060005260206000200181905550816101626000838152602001908152602001600020819055506101626000858152602001908152602001600020600090556101618054806131cb576131ca614b18565b5b6001900381819060005260206000200160009055905550505050565b60006131f283610f25565b90508161015f60008573ffffffffffffffffffffffffffffffffffffffff1673ffffffffffffffffffffffffffffffffffffffff16815260200190815260200160002060008381526020019081526020016000208190555080610160600084815260200190815260200160002081905550505050565b82805461327490613b88565b90600052602060002090601f01602090048101928261329657600085556132dd565b82601f106132af57805160ff19168380011785556132dd565b828001600101855582156132dd579182015b828111156132dc5782518255916020019190600101906132c1565b5b5090506132ea91906132ee565b5090565b5b808211156133075760008160009055506001016132ef565b5090565b6000604051905090565b600080fd5b600080fd5b60007fffffffff0000000000000000000000000000000000000000000000000000000082169050919050565b6133548161331f565b811461335f57600080fd5b50565b6000813590506133718161334b565b92915050565b60006020828403121561338d5761338c613315565b5b600061339b84828501613362565b91505092915050565b60008115159050919050565b6133b9816133a4565b82525050565b60006020820190506133d460008301846133b0565b92915050565b600081519050919050565b600082825260208201905092915050565b60005b838110156134145780820151818401526020810190506133f9565b83811115613423576000848401525b50505050565b6000601f19601f8301169050919050565b6000613445826133da565b61344f81856133e5565b935061345f8185602086016133f6565b61346881613429565b840191505092915050565b6000602082019050818103600083015261348d818461343a565b905092915050565b6000819050919050565b6134a881613495565b81146134b357600080fd5b50565b6000813590506134c58161349f565b92915050565b6000602082840312156134e1576134e0613315565b5b60006134ef848285016134b6565b91505092915050565b600073ffffffffffffffffffffffffffffffffffffffff82169050919050565b6000613523826134f8565b9050919050565b61353381613518565b82525050565b600060208201905061354e600083018461352a565b92915050565b61355d81613518565b811461356857600080fd5b50565b60008135905061357a81613554565b92915050565b6000806040838503121561359757613596613315565b5b60006135a58582860161356b565b92505060206135b6858286016134b6565b9150509250929050565b6135c981613495565b82525050565b60006020820190506135e460008301846135c0565b92915050565b60008060006060848603121561360357613602613315565b5b60006136118682870161356b565b93505060206136228682870161356b565b9250506040613633868287016134b6565b9150509250925092565b6000819050919050565b6136508161363d565b811461365b57600080fd5b50565b60008135905061366d81613647565b92915050565b60006020828403121561368957613688613315565b5b60006136978482850161365e565b91505092915050565b6136a98161363d565b82525050565b60006020820190506136c460008301846136a0565b92915050565b600080604083850312156136e1576136e0613315565b5b60006136ef8582860161365e565b92505060206137008582860161356b565b9150509250929050565b6000602082840312156137205761371f613315565b5b600061372e8482850161356b565b91505092915050565b600080fd5b600080fd5b7f4e487b7100000000000000000000000000000000000000000000000000000000600052604160045260246000fd5b61377982613429565b810181811067ffffffffffffffff8211171561379857613797613741565b5b80604052505050565b60006137ab61330b565b90506137b78282613770565b919050565b600067ffffffffffffffff8211156137d7576137d6613741565b5b6137e082613429565b9050602081019050919050565b82818337600083830152505050565b600061380f61380a846137bc565b6137a1565b90508281526020810184848401111561382b5761382a61373c565b5b6138368482856137ed565b509392505050565b600082601f83011261385357613852613737565b5b81356138638482602086016137fc565b91505092915050565b6000806040838503121561388357613882613315565b5b600083013567ffffffffffffffff8111156138a1576138a061331a565b5b6138ad8582860161383e565b925050602083013567ffffffffffffffff8111156138ce576138cd61331a565b5b6138da8582860161383e565b9150509250929050565b600067ffffffffffffffff8211156138ff576138fe613741565b5b61390882613429565b9050602081019050919050565b6000613928613923846138e4565b6137a1565b9050828152602081018484840111156139445761394361373c565b5b61394f8482856137ed565b509392505050565b600082601f83011261396c5761396b613737565b5b813561397c848260208601613915565b91505092915050565b6000806040838503121561399c5761399b613315565b5b60006139aa8582860161356b565b925050602083013567ffffffffffffffff8111156139cb576139ca61331a565b5b6139d785828601613957565b9150509250929050565b6000602082840312156139f7576139f6613315565b5b600082013567ffffffffffffffff811115613a1557613a1461331a565b5b613a218482850161383e565b91505092915050565b613a33816133a4565b8114613a3e57600080fd5b50565b600081359050613a5081613a2a565b92915050565b60008060408385031215613a6d57613a6c613315565b5b6000613a7b8582860161356b565b9250506020613a8c85828601613a41565b9150509250929050565b60008060008060808587031215613ab057613aaf613315565b5b6000613abe8782880161356b565b9450506020613acf8782880161356b565b9350506040613ae0878288016134b6565b925050606085013567ffffffffffffffff811115613b0157613b0061331a565b5b613b0d87828801613957565b91505092959194509250565b60008060408385031215613b3057613b2f613315565b5b6000613b3e8582860161356b565b9250506020613b4f8582860161356b565b9150509250929050565b7f4e487b7100000000000000000000000000000000000000000000000000000000600052602260045260246000fd5b60006002820490506001821680613ba057607f821691505b60208210811415613bb457613bb3613b59565b5b50919050565b7f4552433732313a20617070726f76656420717565727920666f72206e6f6e657860008201527f697374656e7420746f6b656e0000000000000000000000000000000000000000602082015250565b6000613c16602c836133e5565b9150613c2182613bba565b604082019050919050565b60006020820190508181036000830152613c4581613c09565b9050919050565b7f4552433732313a20617070726f76616c20746f2063757272656e74206f776e6560008201527f7200000000000000000000000000000000000000000000000000000000000000602082015250565b6000613ca86021836133e5565b9150613cb382613c4c565b604082019050919050565b60006020820190508181036000830152613cd781613c9b565b9050919050565b7f4552433732313a20617070726f76652063616c6c6572206973206e6f74206f7760008201527f6e6572206e6f7220617070726f76656420666f7220616c6c0000000000000000602082015250565b6000613d3a6038836133e5565b9150613d4582613cde565b604082019050919050565b60006020820190508181036000830152613d6981613d2d565b9050919050565b7f4552433732313a207472616e736665722063616c6c6572206973206e6f74206f60008201527f776e6572206e6f7220617070726f766564000000000000000000000000000000602082015250565b6000613dcc6031836133e5565b9150613dd782613d70565b604082019050919050565b60006020820190508181036000830152613dfb81613dbf565b9050919050565b7f455243373231456e756d657261626c653a206f776e657220696e646578206f7560008201527f74206f6620626f756e6473000000000000000000000000000000000000000000602082015250565b6000613e5e602b836133e5565b9150613e6982613e02565b604082019050919050565b60006020820190508181036000830152613e8d81613e51565b9050919050565b7f416363657373436f6e74726f6c3a2063616e206f6e6c792072656e6f756e636560008201527f20726f6c657320666f722073656c660000000000000000000000000000000000602082015250565b6000613ef0602f836133e5565b9150613efb82613e94565b604082019050919050565b60006020820190508181036000830152613f1f81613ee3565b9050919050565b7f496e697469616c697a61626c653a20636f6e747261637420697320616c72656160008201527f647920696e697469616c697a6564000000000000000000000000000000000000602082015250565b6000613f82602e836133e5565b9150613f8d82613f26565b604082019050919050565b60006020820190508181036000830152613fb181613f75565b9050919050565b7f455243373231456e756d657261626c653a20676c6f62616c20696e646578206f60008201527f7574206f6620626f756e64730000000000000000000000000000000000000000602082015250565b6000614014602c836133e5565b915061401f82613fb8565b604082019050919050565b6000602082019050818103600083015261404381614007565b9050919050565b7f4e487b7100000000000000000000000000000000000000000000000000000000600052603260045260246000fd5b7f4552433732313a206f776e657220717565727920666f72206e6f6e657869737460008201527f656e7420746f6b656e0000000000000000000000000000000000000000000000602082015250565b60006140d56029836133e5565b91506140e082614079565b604082019050919050565b60006020820190508181036000830152614104816140c8565b9050919050565b7f4552433732313a2062616c616e636520717565727920666f7220746865207a6560008201527f726f206164647265737300000000000000000000000000000000000000000000602082015250565b6000614167602a836133e5565b91506141728261410b565b604082019050919050565b600060208201905081810360008301526141968161415a565b9050919050565b7f4552433732313a20617070726f766520746f2063616c6c657200000000000000600082015250565b60006141d36019836133e5565b91506141de8261419d565b602082019050919050565b60006020820190508181036000830152614202816141c6565b9050919050565b7f57726f6e6720746f6b656e206964000000000000000000000000000000000000600082015250565b600061423f600e836133e5565b915061424a82614209565b602082019050919050565b6000602082019050818103600083015261426e81614232565b9050919050565b600081905092915050565b60008190508160005260206000209050919050565b600081546142a281613b88565b6142ac8186614275565b945060018216600081146142c757600181146142d85761430b565b60ff1983168652818601935061430b565b6142e185614280565b60005b83811015614303578154818901526001820191506020810190506142e4565b838801955050505b50505092915050565b60006143208285614295565b915061432c8284614295565b91508190509392505050565b7f4552433732313a206f70657261746f7220717565727920666f72206e6f6e657860008201527f697374656e7420746f6b656e0000000000000000000000000000000000000000602082015250565b6000614394602c836133e5565b915061439f82614338565b604082019050919050565b600060208201905081810360008301526143c381614387565b9050919050565b7f4552433732313a207472616e73666572206f6620746f6b656e2074686174206960008201527f73206e6f74206f776e0000000000000000000000000000000000000000000000602082015250565b60006144266029836133e5565b9150614431826143ca565b604082019050919050565b6000602082019050818103600083015261445581614419565b9050919050565b7f4552433732313a207472616e7366657220746f20746865207a65726f2061646460008201527f7265737300000000000000000000000000000000000000000000000000000000602082015250565b60006144b86024836133e5565b91506144c38261445c565b604082019050919050565b600060208201905081810360008301526144e7816144ab565b9050919050565b7f4e487b7100000000000000000000000000000000000000000000000000000000600052601160045260246000fd5b600061452882613495565b915061453383613495565b925082821015614546576145456144ee565b5b828203905092915050565b600061455c82613495565b915061456783613495565b9250827fffffffffffffffffffffffffffffffffffffffffffffffffffffffffffffffff0382111561459c5761459b6144ee565b5b828201905092915050565b7f416363657373436f6e74726f6c3a206163636f756e7420000000000000000000600082015250565b60006145dd601783614275565b91506145e8826145a7565b601782019050919050565b60006145fe826133da565b6146088185614275565b93506146188185602086016133f6565b80840191505092915050565b7f206973206d697373696e6720726f6c6520000000000000000000000000000000600082015250565b600061465a601183614275565b915061466582614624565b601182019050919050565b600061467b826145d0565b915061468782856145f3565b91506146928261464d565b915061469e82846145f3565b91508190509392505050565b7f45524331393637557067726164653a207570677261646520627265616b73206660008201527f7572746865722075706772616465730000000000000000000000000000000000602082015250565b6000614706602f836133e5565b9150614711826146aa565b604082019050919050565b60006020820190508181036000830152614735816146f9565b9050919050565b7f4552433732313a207472616e7366657220746f206e6f6e20455243373231526560008201527f63656976657220696d706c656d656e7465720000000000000000000000000000602082015250565b60006147986032836133e5565b91506147a38261473c565b604082019050919050565b600060208201905081810360008301526147c78161478b565b9050919050565b60006147d982613495565b91506147e483613495565b9250817fffffffffffffffffffffffffffffffffffffffffffffffffffffffffffffffff048311821515161561481d5761481c6144ee565b5b828202905092915050565b600061483382613495565b91506000821415614847576148466144ee565b5b600182039050919050565b7f537472696e67733a20686578206c656e67746820696e73756666696369656e74600082015250565b60006148886020836133e5565b915061489382614852565b602082019050919050565b600060208201905081810360008301526148b78161487b565b9050919050565b7f455243313936373a206e657720696d706c656d656e746174696f6e206973206e60008201527f6f74206120636f6e747261637400000000000000000000000000000000000000602082015250565b600061491a602d836133e5565b9150614925826148be565b604082019050919050565b600060208201905081810360008301526149498161490d565b9050919050565b7f416464726573733a2064656c65676174652063616c6c20746f206e6f6e2d636f60008201527f6e74726163740000000000000000000000000000000000000000000000000000602082015250565b60006149ac6026836133e5565b91506149b782614950565b604082019050919050565b600060208201905081810360008301526149db8161499f565b9050919050565b600081519050919050565b600081905092915050565b6000614a03826149e2565b614a0d81856149ed565b9350614a1d8185602086016133f6565b80840191505092915050565b6000614a3582846149f8565b915081905092915050565b600082825260208201905092915050565b6000614a5c826149e2565b614a668185614a40565b9350614a768185602086016133f6565b614a7f81613429565b840191505092915050565b6000608082019050614a9f600083018761352a565b614aac602083018661352a565b614ab960408301856135c0565b8181036060830152614acb8184614a51565b905095945050505050565b600081519050614ae58161334b565b92915050565b600060208284031215614b0157614b00613315565b5b6000614b0f84828501614ad6565b91505092915050565b7f4e487b7100000000000000000000000000000000000000000000000000000000600052603160045260246000fdfe416464726573733a206c6f772d6c6576656c2064656c65676174652063616c6c206661696c6564a2646970667358221220712c2715612ede08ccd80dda4e1d3a7226376de251e1396461e9a57d4acf875c64736f6c634300080a0033",
  "immutableReferences": {},
  "source": "// SPDX-License-Identifier: MIT\npragma solidity ^0.8.9;\n\n// meland nft\n\nimport \"@openzeppelin/contracts-upgradeable/token/ERC721/ERC721Upgradeable.sol\";\nimport \"@openzeppelin/contracts-upgradeable/token/ERC721/extensions/ERC721EnumerableUpgradeable.sol\";\nimport \"@openzeppelin/contracts-upgradeable/token/ERC721/extensions/ERC721URIStorageUpgradeable.sol\";\nimport \"@openzeppelin/contracts-upgradeable/access/AccessControlUpgradeable.sol\";\nimport \"@openzeppelin/contracts-upgradeable/proxy/utils/Initializable.sol\";\nimport \"@openzeppelin/contracts-upgradeable/proxy/utils/UUPSUpgradeable.sol\";\nimport \"./IERC721MelandNFTWithRarity.sol\";\n\n/// @title A title that should describe the contract/interface\n/// @author The name of the author\n/// @notice Explain to an end user what this does\n/// @dev Explain to a developer any extra details\ncontract NFTWithRarity is\n    Initializable,\n    ERC721Upgradeable,\n    ERC721URIStorageUpgradeable,\n    UUPSUpgradeable,\n    AccessControlUpgradeable,\n    ERC721EnumerableUpgradeable\n{\n    // land mint role\n    bytes32 public constant MINTER_ROLE = keccak256(\"MINTER_ROLE\");\n    bytes32 public constant UPGRADER_ROLE = keccak256(\"UPGRADER_ROLE\");\n\n    // _baseURI\n    string private baseURI;\n\n    // game cid\n    string private cid;\n\n    function _beforeTokenTransfer(\n        address from,\n        address to,\n        uint256 tokenId\n    ) internal override(ERC721Upgradeable, ERC721EnumerableUpgradeable) {\n        super._beforeTokenTransfer(from, to, tokenId);\n    }\n\n    function supportsInterface(bytes4 interfaceId)\n        public\n        view\n        override(\n            ERC721Upgradeable,\n            ERC721EnumerableUpgradeable,\n            AccessControlUpgradeable\n        )\n        returns (bool)\n    {\n        return super.supportsInterface(interfaceId);\n    }\n\n    /**\n     * @dev Base URI for computing {tokenURI}. If set, the resulting URI for each\n     * token will be the concatenation of the `baseURI` and the `tokenId`. Empty\n     * by default, can be overriden in child contracts.\n     */\n    function _baseURI() internal view override returns (string memory) {\n        return baseURI;\n    }\n\n    function initialize(string memory name, string memory _cid)\n        public\n        initializer\n    {\n        __ERC721_init(name, \"MELAND-PLACEABLE\");\n        __ERC721URIStorage_init();\n        __AccessControl_init();\n        _setupRole(DEFAULT_ADMIN_ROLE, msg.sender);\n        _setupRole(MINTER_ROLE, msg.sender);\n        _setupRole(UPGRADER_ROLE, msg.sender);\n        cid = _cid;\n    }\n\n    function getMintMax() public pure virtual returns (uint256) {\n        return 10000;\n    }\n\n    function getCid() public view returns(string memory) {\n        return cid;\n    }\n\n    function _burn(uint256 tokenId)\n        internal\n        override(ERC721Upgradeable, ERC721URIStorageUpgradeable)\n    {\n        super._burn(tokenId);\n    }\n\n    function rarity() external view returns (string memory) {}\n\n    // \n    function setBaseURI(string memory baseURI_)\n        public\n        onlyRole(DEFAULT_ADMIN_ROLE)\n    {\n        baseURI = baseURI_;\n    }\n\n    function tokenURI(uint256 _tokenId)\n        public\n        view\n        override(ERC721Upgradeable, ERC721URIStorageUpgradeable)\n        returns (string memory)\n    {\n        require(_tokenId > 0, \"Wrong token id\");\n        return string(abi.encodePacked(baseURI, cid));\n    }\n\n    function _authorizeUpgrade(address newImplementation)\n        internal\n        override\n        onlyRole(UPGRADER_ROLE)\n    {}\n}\n",
  "sourcePath": "/Users/alberthuang/code/icw/meland/contracts/NFTWithRarity.sol",
  "compiler": {
    "name": "solc",
    "version": "0.8.10+commit.fc410830.Emscripten.clang"
  },
  "schemaVersion": "3.4.3",
  "updatedAt": "2021-11-16T03:16:28.619Z",
  "devdoc": {
    "author": "The name of the author",
    "details": "Explain to a developer any extra details",
    "kind": "dev",
    "methods": {
      "approve(address,uint256)": {
        "details": "See {IERC721-approve}."
      },
      "balanceOf(address)": {
        "details": "See {IERC721-balanceOf}."
      },
      "getApproved(uint256)": {
        "details": "See {IERC721-getApproved}."
      },
      "getRoleAdmin(bytes32)": {
        "details": "Returns the admin role that controls `role`. See {grantRole} and {revokeRole}. To change a role's admin, use {_setRoleAdmin}."
      },
      "grantRole(bytes32,address)": {
        "details": "Grants `role` to `account`. If `account` had not been already granted `role`, emits a {RoleGranted} event. Requirements: - the caller must have ``role``'s admin role."
      },
      "hasRole(bytes32,address)": {
        "details": "Returns `true` if `account` has been granted `role`."
      },
      "isApprovedForAll(address,address)": {
        "details": "See {IERC721-isApprovedForAll}."
      },
      "name()": {
        "details": "See {IERC721Metadata-name}."
      },
      "ownerOf(uint256)": {
        "details": "See {IERC721-ownerOf}."
      },
      "renounceRole(bytes32,address)": {
        "details": "Revokes `role` from the calling account. Roles are often managed via {grantRole} and {revokeRole}: this function's purpose is to provide a mechanism for accounts to lose their privileges if they are compromised (such as when a trusted device is misplaced). If the calling account had been granted `role`, emits a {RoleRevoked} event. Requirements: - the caller must be `account`."
      },
      "revokeRole(bytes32,address)": {
        "details": "Revokes `role` from `account`. If `account` had been granted `role`, emits a {RoleRevoked} event. Requirements: - the caller must have ``role``'s admin role."
      },
      "safeTransferFrom(address,address,uint256)": {
        "details": "See {IERC721-safeTransferFrom}."
      },
      "safeTransferFrom(address,address,uint256,bytes)": {
        "details": "See {IERC721-safeTransferFrom}."
      },
      "setApprovalForAll(address,bool)": {
        "details": "See {IERC721-setApprovalForAll}."
      },
      "symbol()": {
        "details": "See {IERC721Metadata-symbol}."
      },
      "tokenByIndex(uint256)": {
        "details": "See {IERC721Enumerable-tokenByIndex}."
      },
      "tokenOfOwnerByIndex(address,uint256)": {
        "details": "See {IERC721Enumerable-tokenOfOwnerByIndex}."
      },
      "totalSupply()": {
        "details": "See {IERC721Enumerable-totalSupply}."
      },
      "transferFrom(address,address,uint256)": {
        "details": "See {IERC721-transferFrom}."
      },
      "upgradeTo(address)": {
        "details": "Upgrade the implementation of the proxy to `newImplementation`. Calls {_authorizeUpgrade}. Emits an {Upgraded} event."
      },
      "upgradeToAndCall(address,bytes)": {
        "details": "Upgrade the implementation of the proxy to `newImplementation`, and subsequently execute the function call encoded in `data`. Calls {_authorizeUpgrade}. Emits an {Upgraded} event."
      }
    },
    "title": "A title that should describe the contract/interface",
    "version": 1
  },
  "userdoc": {
    "kind": "user",
    "methods": {},
    "notice": "Explain to an end user what this does",
    "version": 1
  }
}