{
  "contractName": "TicketLand",
  "abi": [
    {
      "anonymous": false,
      "inputs": [
        {
          "indexed": false,
          "internalType": "address",
          "name": "previousAdmin",
          "type": "address"
        },
        {
          "indexed": false,
          "internalType": "address",
          "name": "newAdmin",
          "type": "address"
        }
      ],
      "name": "AdminChanged",
      "type": "event"
    },
    {
      "anonymous": false,
      "inputs": [
        {
          "indexed": true,
          "internalType": "address",
          "name": "owner",
          "type": "address"
        },
        {
          "indexed": true,
          "internalType": "address",
          "name": "approved",
          "type": "address"
        },
        {
          "indexed": true,
          "internalType": "uint256",
          "name": "tokenId",
          "type": "uint256"
        }
      ],
      "name": "Approval",
      "type": "event"
    },
    {
      "anonymous": false,
      "inputs": [
        {
          "indexed": true,
          "internalType": "address",
          "name": "owner",
          "type": "address"
        },
        {
          "indexed": true,
          "internalType": "address",
          "name": "operator",
          "type": "address"
        },
        {
          "indexed": false,
          "internalType": "bool",
          "name": "approved",
          "type": "bool"
        }
      ],
      "name": "ApprovalForAll",
      "type": "event"
    },
    {
      "anonymous": false,
      "inputs": [
        {
          "indexed": true,
          "internalType": "address",
          "name": "beacon",
          "type": "address"
        }
      ],
      "name": "BeaconUpgraded",
      "type": "event"
    },
    {
      "anonymous": false,
      "inputs": [
        {
          "indexed": true,
          "internalType": "bytes32",
          "name": "role",
          "type": "bytes32"
        },
        {
          "indexed": true,
          "internalType": "bytes32",
          "name": "previousAdminRole",
          "type": "bytes32"
        },
        {
          "indexed": true,
          "internalType": "bytes32",
          "name": "newAdminRole",
          "type": "bytes32"
        }
      ],
      "name": "RoleAdminChanged",
      "type": "event"
    },
    {
      "anonymous": false,
      "inputs": [
        {
          "indexed": true,
          "internalType": "bytes32",
          "name": "role",
          "type": "bytes32"
        },
        {
          "indexed": true,
          "internalType": "address",
          "name": "account",
          "type": "address"
        },
        {
          "indexed": true,
          "internalType": "address",
          "name": "sender",
          "type": "address"
        }
      ],
      "name": "RoleGranted",
      "type": "event"
    },
    {
      "anonymous": false,
      "inputs": [
        {
          "indexed": true,
          "internalType": "bytes32",
          "name": "role",
          "type": "bytes32"
        },
        {
          "indexed": true,
          "internalType": "address",
          "name": "account",
          "type": "address"
        },
        {
          "indexed": true,
          "internalType": "address",
          "name": "sender",
          "type": "address"
        }
      ],
      "name": "RoleRevoked",
      "type": "event"
    },
    {
      "anonymous": false,
      "inputs": [
        {
          "indexed": true,
          "internalType": "address",
          "name": "from",
          "type": "address"
        },
        {
          "indexed": true,
          "internalType": "address",
          "name": "to",
          "type": "address"
        },
        {
          "indexed": true,
          "internalType": "uint256",
          "name": "tokenId",
          "type": "uint256"
        }
      ],
      "name": "Transfer",
      "type": "event"
    },
    {
      "anonymous": false,
      "inputs": [
        {
          "indexed": true,
          "internalType": "address",
          "name": "implementation",
          "type": "address"
        }
      ],
      "name": "Upgraded",
      "type": "event"
    },
    {
      "inputs": [],
      "name": "DEFAULT_ADMIN_ROLE",
      "outputs": [
        {
          "internalType": "bytes32",
          "name": "",
          "type": "bytes32"
        }
      ],
      "stateMutability": "view",
      "type": "function"
    },
    {
      "inputs": [],
      "name": "LAND_PADDING",
      "outputs": [
        {
          "internalType": "uint16",
          "name": "",
          "type": "uint16"
        }
      ],
      "stateMutability": "view",
      "type": "function"
    },
    {
      "inputs": [],
      "name": "MINTER_ROLE",
      "outputs": [
        {
          "internalType": "bytes32",
          "name": "",
          "type": "bytes32"
        }
      ],
      "stateMutability": "view",
      "type": "function"
    },
    {
      "inputs": [],
      "name": "UPGRADER_ROLE",
      "outputs": [
        {
          "internalType": "bytes32",
          "name": "",
          "type": "bytes32"
        }
      ],
      "stateMutability": "view",
      "type": "function"
    },
    {
      "inputs": [
        {
          "internalType": "address",
          "name": "to",
          "type": "address"
        },
        {
          "internalType": "uint256",
          "name": "tokenId",
          "type": "uint256"
        }
      ],
      "name": "approve",
      "outputs": [],
      "stateMutability": "nonpayable",
      "type": "function"
    },
    {
      "inputs": [
        {
          "internalType": "address",
          "name": "owner",
          "type": "address"
        }
      ],
      "name": "balanceOf",
      "outputs": [
        {
          "internalType": "uint256",
          "name": "",
          "type": "uint256"
        }
      ],
      "stateMutability": "view",
      "type": "function"
    },
    {
      "inputs": [
        {
          "internalType": "uint256",
          "name": "tokenId",
          "type": "uint256"
        }
      ],
      "name": "checkExists",
      "outputs": [
        {
          "internalType": "bool",
          "name": "",
          "type": "bool"
        }
      ],
      "stateMutability": "view",
      "type": "function"
    },
    {
      "inputs": [
        {
          "internalType": "uint256",
          "name": "tokenId",
          "type": "uint256"
        }
      ],
      "name": "getApproved",
      "outputs": [
        {
          "internalType": "address",
          "name": "",
          "type": "address"
        }
      ],
      "stateMutability": "view",
      "type": "function"
    },
    {
      "inputs": [
        {
          "internalType": "bytes32",
          "name": "role",
          "type": "bytes32"
        }
      ],
      "name": "getRoleAdmin",
      "outputs": [
        {
          "internalType": "bytes32",
          "name": "",
          "type": "bytes32"
        }
      ],
      "stateMutability": "view",
      "type": "function"
    },
    {
      "inputs": [
        {
          "internalType": "bytes32",
          "name": "role",
          "type": "bytes32"
        },
        {
          "internalType": "address",
          "name": "account",
          "type": "address"
        }
      ],
      "name": "grantRole",
      "outputs": [],
      "stateMutability": "nonpayable",
      "type": "function"
    },
    {
      "inputs": [
        {
          "internalType": "bytes32",
          "name": "role",
          "type": "bytes32"
        },
        {
          "internalType": "address",
          "name": "account",
          "type": "address"
        }
      ],
      "name": "hasRole",
      "outputs": [
        {
          "internalType": "bool",
          "name": "",
          "type": "bool"
        }
      ],
      "stateMutability": "view",
      "type": "function"
    },
    {
      "inputs": [
        {
          "internalType": "address",
          "name": "owner",
          "type": "address"
        },
        {
          "internalType": "address",
          "name": "operator",
          "type": "address"
        }
      ],
      "name": "isApprovedForAll",
      "outputs": [
        {
          "internalType": "bool",
          "name": "",
          "type": "bool"
        }
      ],
      "stateMutability": "view",
      "type": "function"
    },
    {
      "inputs": [],
      "name": "name",
      "outputs": [
        {
          "internalType": "string",
          "name": "",
          "type": "string"
        }
      ],
      "stateMutability": "view",
      "type": "function"
    },
    {
      "inputs": [
        {
          "internalType": "uint256",
          "name": "tokenId",
          "type": "uint256"
        }
      ],
      "name": "ownerOf",
      "outputs": [
        {
          "internalType": "address",
          "name": "",
          "type": "address"
        }
      ],
      "stateMutability": "view",
      "type": "function"
    },
    {
      "inputs": [
        {
          "internalType": "uint256",
          "name": "tokenId",
          "type": "uint256"
        }
      ],
      "name": "rcCoordinates",
      "outputs": [
        {
          "internalType": "uint256",
          "name": "r",
          "type": "uint256"
        },
        {
          "internalType": "uint256",
          "name": "c",
          "type": "uint256"
        }
      ],
      "stateMutability": "pure",
      "type": "function"
    },
    {
      "inputs": [
        {
          "internalType": "bytes32",
          "name": "role",
          "type": "bytes32"
        },
        {
          "internalType": "address",
          "name": "account",
          "type": "address"
        }
      ],
      "name": "renounceRole",
      "outputs": [],
      "stateMutability": "nonpayable",
      "type": "function"
    },
    {
      "inputs": [
        {
          "internalType": "bytes32",
          "name": "role",
          "type": "bytes32"
        },
        {
          "internalType": "address",
          "name": "account",
          "type": "address"
        }
      ],
      "name": "revokeRole",
      "outputs": [],
      "stateMutability": "nonpayable",
      "type": "function"
    },
    {
      "inputs": [
        {
          "internalType": "address",
          "name": "to",
          "type": "address"
        },
        {
          "internalType": "uint256",
          "name": "landId",
          "type": "uint256"
        }
      ],
      "name": "safeMint",
      "outputs": [],
      "stateMutability": "nonpayable",
      "type": "function"
    },
    {
      "inputs": [
        {
          "internalType": "address",
          "name": "from",
          "type": "address"
        },
        {
          "internalType": "address",
          "name": "to",
          "type": "address"
        },
        {
          "internalType": "uint256",
          "name": "tokenId",
          "type": "uint256"
        }
      ],
      "name": "safeTransferFrom",
      "outputs": [],
      "stateMutability": "nonpayable",
      "type": "function"
    },
    {
      "inputs": [
        {
          "internalType": "address",
          "name": "from",
          "type": "address"
        },
        {
          "internalType": "address",
          "name": "to",
          "type": "address"
        },
        {
          "internalType": "uint256",
          "name": "tokenId",
          "type": "uint256"
        },
        {
          "internalType": "bytes",
          "name": "_data",
          "type": "bytes"
        }
      ],
      "name": "safeTransferFrom",
      "outputs": [],
      "stateMutability": "nonpayable",
      "type": "function"
    },
    {
      "inputs": [
        {
          "internalType": "address",
          "name": "operator",
          "type": "address"
        },
        {
          "internalType": "bool",
          "name": "approved",
          "type": "bool"
        }
      ],
      "name": "setApprovalForAll",
      "outputs": [],
      "stateMutability": "nonpayable",
      "type": "function"
    },
    {
      "inputs": [
        {
          "internalType": "string",
          "name": "baseURI_",
          "type": "string"
        }
      ],
      "name": "setBaseURI",
      "outputs": [],
      "stateMutability": "nonpayable",
      "type": "function"
    },
    {
      "inputs": [
        {
          "internalType": "contract IERC721Land[]",
          "name": "otherLands_",
          "type": "address[]"
        }
      ],
      "name": "setOtherLands",
      "outputs": [],
      "stateMutability": "nonpayable",
      "type": "function"
    },
    {
      "inputs": [
        {
          "internalType": "bytes4",
          "name": "interfaceId",
          "type": "bytes4"
        }
      ],
      "name": "supportsInterface",
      "outputs": [
        {
          "internalType": "bool",
          "name": "",
          "type": "bool"
        }
      ],
      "stateMutability": "view",
      "type": "function"
    },
    {
      "inputs": [],
      "name": "symbol",
      "outputs": [
        {
          "internalType": "string",
          "name": "",
          "type": "string"
        }
      ],
      "stateMutability": "view",
      "type": "function"
    },
    {
      "inputs": [
        {
          "internalType": "uint256",
          "name": "index",
          "type": "uint256"
        }
      ],
      "name": "tokenByIndex",
      "outputs": [
        {
          "internalType": "uint256",
          "name": "",
          "type": "uint256"
        }
      ],
      "stateMutability": "view",
      "type": "function"
    },
    {
      "inputs": [
        {
          "internalType": "address",
          "name": "owner",
          "type": "address"
        },
        {
          "internalType": "uint256",
          "name": "index",
          "type": "uint256"
        }
      ],
      "name": "tokenOfOwnerByIndex",
      "outputs": [
        {
          "internalType": "uint256",
          "name": "",
          "type": "uint256"
        }
      ],
      "stateMutability": "view",
      "type": "function"
    },
    {
      "inputs": [
        {
          "internalType": "uint256",
          "name": "tokenId",
          "type": "uint256"
        }
      ],
      "name": "tokenURI",
      "outputs": [
        {
          "internalType": "string",
          "name": "",
          "type": "string"
        }
      ],
      "stateMutability": "view",
      "type": "function"
    },
    {
      "inputs": [],
      "name": "totalSupply",
      "outputs": [
        {
          "internalType": "uint256",
          "name": "",
          "type": "uint256"
        }
      ],
      "stateMutability": "view",
      "type": "function"
    },
    {
      "inputs": [
        {
          "internalType": "address",
          "name": "from",
          "type": "address"
        },
        {
          "internalType": "address",
          "name": "to",
          "type": "address"
        },
        {
          "internalType": "uint256",
          "name": "tokenId",
          "type": "uint256"
        }
      ],
      "name": "transferFrom",
      "outputs": [],
      "stateMutability": "nonpayable",
      "type": "function"
    },
    {
      "inputs": [
        {
          "internalType": "address",
          "name": "newImplementation",
          "type": "address"
        }
      ],
      "name": "upgradeTo",
      "outputs": [],
      "stateMutability": "nonpayable",
      "type": "function"
    },
    {
      "inputs": [
        {
          "internalType": "address",
          "name": "newImplementation",
          "type": "address"
        },
        {
          "internalType": "bytes",
          "name": "data",
          "type": "bytes"
        }
      ],
      "name": "upgradeToAndCall",
      "outputs": [],
      "stateMutability": "payable",
      "type": "function"
    },
    {
      "inputs": [],
      "name": "initialize",
      "outputs": [],
      "stateMutability": "nonpayable",
      "type": "function"
    },
    {
      "inputs": [],
      "name": "getMintMax",
      "outputs": [
        {
          "internalType": "uint256",
          "name": "",
          "type": "uint256"
        }
      ],
      "stateMutability": "pure",
      "type": "function"
    }
  ],
  "bytecode": "0x608060405234801561001057600080fd5b506155a980620000216000396000f3fe6080604052600436106101f95760003560e01c806355f804b31161010d578063a1448194116100a0578063c87b56dd1161006f578063c87b56dd14610759578063d539139314610796578063d547741f146107c1578063e985e9c5146107ea578063f72c0d8b14610827576101f9565b8063a1448194146106b3578063a217fddf146106dc578063a22cb46514610707578063b88d4fde14610730576101f9565b80638129fc1c116100dc5780638129fc1c146105f657806391d148541461060d57806394fd6d271461064a57806395d89b4114610688576101f9565b806355f804b3146105285780636352211e1461055157806370a082311461058e5780637d00a196146105cb576101f9565b8063248a9ca31161019057806336568abe1161015f57806336568abe146104545780633659cfe61461047d57806342842e0e146104a65780634f1ef286146104cf5780634f6ccce7146104eb576101f9565b8063248a9ca3146103885780632f2ff15d146103c55780632f745c59146103ee57806331ff55561461042b576101f9565b80630e2e44e8116101cc5780630e2e44e8146102cc57806318160ddd146103095780631e51e4a11461033457806323b872dd1461035f576101f9565b806301ffc9a7146101fe57806306fdde031461023b578063081812fc14610266578063095ea7b3146102a3575b600080fd5b34801561020a57600080fd5b50610225600480360381019061022091906138af565b610852565b60405161023291906138f7565b60405180910390f35b34801561024757600080fd5b50610250610864565b60405161025d91906139ab565b60405180910390f35b34801561027257600080fd5b5061028d60048036038101906102889190613a03565b610873565b60405161029a9190613a71565b60405180910390f35b3480156102af57600080fd5b506102ca60048036038101906102c59190613ab8565b6108f8565b005b3480156102d857600080fd5b506102f360048036038101906102ee9190613a03565b610a10565b60405161030091906138f7565b60405180910390f35b34801561031557600080fd5b5061031e610a22565b60405161032b9190613b07565b60405180910390f35b34801561034057600080fd5b50610349610a30565b6040516103569190613b07565b60405180910390f35b34801561036b57600080fd5b5061038660048036038101906103819190613b22565b610a3a565b005b34801561039457600080fd5b506103af60048036038101906103aa9190613bab565b610a9a565b6040516103bc9190613be7565b60405180910390f35b3480156103d157600080fd5b506103ec60048036038101906103e79190613c02565b610aba565b005b3480156103fa57600080fd5b5061041560048036038101906104109190613ab8565b610ae3565b6040516104229190613b07565b60405180910390f35b34801561043757600080fd5b50610452600480360381019061044d9190613dc8565b610b89565b005b34801561046057600080fd5b5061047b60048036038101906104769190613c02565b610bba565b005b34801561048957600080fd5b506104a4600480360381019061049f9190613e11565b610c3d565b005b3480156104b257600080fd5b506104cd60048036038101906104c89190613b22565b610c64565b005b6104e960048036038101906104e49190613ef3565b610c84565b005b3480156104f757600080fd5b50610512600480360381019061050d9190613a03565b610c9d565b60405161051f9190613b07565b60405180910390f35b34801561053457600080fd5b5061054f600480360381019061054a9190613ff0565b610d0f565b005b34801561055d57600080fd5b5061057860048036038101906105739190613a03565b610d40565b6040516105859190613a71565b60405180910390f35b34801561059a57600080fd5b506105b560048036038101906105b09190613e11565b610df2565b6040516105c29190613b07565b60405180910390f35b3480156105d757600080fd5b506105e0610eaa565b6040516105ed9190614056565b60405180910390f35b34801561060257600080fd5b5061060b610eb0565b005b34801561061957600080fd5b50610634600480360381019061062f9190613c02565b611066565b60405161064191906138f7565b60405180910390f35b34801561065657600080fd5b50610671600480360381019061066c9190613a03565b6110d1565b60405161067f929190614071565b60405180910390f35b34801561069457600080fd5b5061069d61110c565b6040516106aa91906139ab565b60405180910390f35b3480156106bf57600080fd5b506106da60048036038101906106d59190613ab8565b61119e565b005b3480156106e857600080fd5b506106f16113f0565b6040516106fe9190613be7565b60405180910390f35b34801561071357600080fd5b5061072e600480360381019061072991906140c6565b6113f7565b005b34801561073c57600080fd5b5061075760048036038101906107529190614106565b611578565b005b34801561076557600080fd5b50610780600480360381019061077b9190613a03565b6115da565b60405161078d91906139ab565b60405180910390f35b3480156107a257600080fd5b506107ab61160f565b6040516107b89190613be7565b60405180910390f35b3480156107cd57600080fd5b506107e860048036038101906107e39190613c02565b611633565b005b3480156107f657600080fd5b50610811600480360381019061080c9190614189565b61165c565b60405161081e91906138f7565b60405180910390f35b34801561083357600080fd5b5061083c6116f0565b6040516108499190613be7565b60405180910390f35b600061085d82611714565b9050919050565b606061086e61178e565b905090565b600061087e82611820565b6108bd576040517f08c379a00000000000000000000000000000000000000000000000000000000081526004016108b49061423b565b60405180910390fd5b609b600083815260200190815260200160002060009054906101000a900473ffffffffffffffffffffffffffffffffffffffff169050919050565b600061090382610d40565b90508073ffffffffffffffffffffffffffffffffffffffff168373ffffffffffffffffffffffffffffffffffffffff161415610974576040517f08c379a000000000000000000000000000000000000000000000000000000000815260040161096b906142cd565b60405180910390fd5b8073ffffffffffffffffffffffffffffffffffffffff1661099361188c565b73ffffffffffffffffffffffffffffffffffffffff1614806109c257506109c1816109bc61188c565b61165c565b5b610a01576040517f08c379a00000000000000000000000000000000000000000000000000000000081526004016109f89061435f565b60405180910390fd5b610a0b8383611894565b505050565b6000610a1b82611820565b9050919050565b600061012f80549050905090565b6000612710905090565b610a4b610a4561188c565b8261194d565b610a8a576040517f08c379a0000000000000000000000000000000000000000000000000000000008152600401610a81906143f1565b60405180910390fd5b610a95838383611a2b565b505050565b600060fb6000838152602001908152602001600020600101549050919050565b610ac382610a9a565b610ad481610acf61188c565b611c87565b610ade8383611d24565b505050565b6000610aee83610df2565b8210610b2f576040517f08c379a0000000000000000000000000000000000000000000000000000000008152600401610b2690614483565b60405180910390fd5b61012d60008473ffffffffffffffffffffffffffffffffffffffff1673ffffffffffffffffffffffffffffffffffffffff168152602001908152602001600020600083815260200190815260200160002054905092915050565b6000801b610b9e81610b9961188c565b611c87565b816101609080519060200190610bb5929190613716565b505050565b610bc261188c565b73ffffffffffffffffffffffffffffffffffffffff168173ffffffffffffffffffffffffffffffffffffffff1614610c2f576040517f08c379a0000000000000000000000000000000000000000000000000000000008152600401610c2690614515565b60405180910390fd5b610c398282611e05565b5050565b610c4681611ee7565b610c6181604051806020016040528060008152506000611f1d565b50565b610c7f83838360405180602001604052806000815250611578565b505050565b610c8d82611ee7565b610c9982826001611f1d565b5050565b6000610ca7610a22565b8210610ce8576040517f08c379a0000000000000000000000000000000000000000000000000000000008152600401610cdf906145a7565b60405180910390fd5b61012f8281548110610cfd57610cfc6145c7565b5b90600052602060002001549050919050565b6000801b610d2481610d1f61188c565b611c87565b8161015f9080519060200190610d3b9291906137a0565b505050565b6000806099600084815260200190815260200160002060009054906101000a900473ffffffffffffffffffffffffffffffffffffffff169050600073ffffffffffffffffffffffffffffffffffffffff168173ffffffffffffffffffffffffffffffffffffffff161415610de9576040517f08c379a0000000000000000000000000000000000000000000000000000000008152600401610de090614668565b60405180910390fd5b80915050919050565b60008073ffffffffffffffffffffffffffffffffffffffff168273ffffffffffffffffffffffffffffffffffffffff161415610e63576040517f08c379a0000000000000000000000000000000000000000000000000000000008152600401610e5a906146fa565b60405180910390fd5b609a60008373ffffffffffffffffffffffffffffffffffffffff1673ffffffffffffffffffffffffffffffffffffffff168152602001908152602001600020549050919050565b61271081565b600060019054906101000a900460ff1680610ed6575060008054906101000a900460ff16155b610f15576040517f08c379a0000000000000000000000000000000000000000000000000000000008152600401610f0c9061478c565b60405180910390fd5b60008060019054906101000a900460ff161590508015610f65576001600060016101000a81548160ff02191690831515021790555060016000806101000a81548160ff0219169083151502179055505b610fd96040518060400160405280600a81526020017f5469636b65744c616e64000000000000000000000000000000000000000000008152506040518060400160405280600b81526020017f5449434b45542d4c414e440000000000000000000000000000000000000000008152506120ee565b610fe16121e3565b610fee6000801b336122d4565b6110187f9f2df0fed2c77648de5860a4cc508cd0818c85b8b8a1ab4ceeef8d981c8956a6336122d4565b6110427f189ab7a9244df0848122154315af71fe140f3db0fe014031783b0946b8c9d2e3336122d4565b80156110635760008060016101000a81548160ff0219169083151502179055505b50565b600060fb600084815260200190815260200160002060000160008373ffffffffffffffffffffffffffffffffffffffff1673ffffffffffffffffffffffffffffffffffffffff16815260200190815260200160002060009054906101000a900460ff16905092915050565b60008061271061ffff16836110e691906147db565b905061271061ffff1681846110fb919061483b565b611105919061486f565b9150915091565b60606098805461111b906148cf565b80601f0160208091040260200160405190810160405280929190818152602001828054611147906148cf565b80156111945780601f1061116957610100808354040283529160200191611194565b820191906000526020600020905b81548152906001019060200180831161117757829003601f168201915b5050505050905090565b7f9f2df0fed2c77648de5860a4cc508cd0818c85b8b8a1ab4ceeef8d981c8956a66111d0816111cb61188c565b611c87565b61271061ffff168211611218576040517f08c379a000000000000000000000000000000000000000000000000000000000815260040161120f9061494d565b60405180910390fd5b611220610a30565b611228610a22565b10611268576040517f08c379a000000000000000000000000000000000000000000000000000000000815260040161125f906149df565b60405180910390fd5b6000151561127583610a10565b1515146112b7576040517f08c379a00000000000000000000000000000000000000000000000000000000081526004016112ae90614a4b565b60405180910390fd5b60005b610160805490508160ff1610156113e057600015156101608260ff16815481106112e7576112e66145c7565b5b9060005260206000200160009054906101000a900473ffffffffffffffffffffffffffffffffffffffff1673ffffffffffffffffffffffffffffffffffffffff16630e2e44e8856040518263ffffffff1660e01b815260040161134a9190613b07565b602060405180830381865afa158015611367573d6000803e3d6000fd5b505050506040513d601f19601f8201168201806040525081019061138b9190614a80565b1515146113cd576040517f08c379a00000000000000000000000000000000000000000000000000000000081526004016113c490614af9565b60405180910390fd5b80806113d890614b26565b9150506112ba565b506113eb83836122e2565b505050565b6000801b81565b6113ff61188c565b73ffffffffffffffffffffffffffffffffffffffff168273ffffffffffffffffffffffffffffffffffffffff16141561146d576040517f08c379a000000000000000000000000000000000000000000000000000000000815260040161146490614b9c565b60405180910390fd5b80609c600061147a61188c565b73ffffffffffffffffffffffffffffffffffffffff1673ffffffffffffffffffffffffffffffffffffffff16815260200190815260200160002060008473ffffffffffffffffffffffffffffffffffffffff1673ffffffffffffffffffffffffffffffffffffffff16815260200190815260200160002060006101000a81548160ff0219169083151502179055508173ffffffffffffffffffffffffffffffffffffffff1661152761188c565b73ffffffffffffffffffffffffffffffffffffffff167f17307eab39ab6107e8899845ad3d59bd9653f200f220920489ca2b5937696c318360405161156c91906138f7565b60405180910390a35050565b61158961158361188c565b8361194d565b6115c8576040517f08c379a00000000000000000000000000000000000000000000000000000000081526004016115bf906143f1565b60405180910390fd5b6115d484848484612300565b50505050565b606061015f6115e88361235c565b6040516020016115f9929190614c8c565b6040516020818303038152906040529050919050565b7f9f2df0fed2c77648de5860a4cc508cd0818c85b8b8a1ab4ceeef8d981c8956a681565b61163c82610a9a565b61164d8161164861188c565b611c87565b6116578383611e05565b505050565b6000609c60008473ffffffffffffffffffffffffffffffffffffffff1673ffffffffffffffffffffffffffffffffffffffff16815260200190815260200160002060008373ffffffffffffffffffffffffffffffffffffffff1673ffffffffffffffffffffffffffffffffffffffff16815260200190815260200160002060009054906101000a900460ff16905092915050565b7f189ab7a9244df0848122154315af71fe140f3db0fe014031783b0946b8c9d2e381565b60007f780e9d63000000000000000000000000000000000000000000000000000000007bffffffffffffffffffffffffffffffffffffffffffffffffffffffff1916827bffffffffffffffffffffffffffffffffffffffffffffffffffffffff191614806117875750611786826124bd565b5b9050919050565b60606097805461179d906148cf565b80601f01602080910402602001604051908101604052809291908181526020018280546117c9906148cf565b80156118165780601f106117eb57610100808354040283529160200191611816565b820191906000526020600020905b8154815290600101906020018083116117f957829003601f168201915b5050505050905090565b60008073ffffffffffffffffffffffffffffffffffffffff166099600084815260200190815260200160002060009054906101000a900473ffffffffffffffffffffffffffffffffffffffff1673ffffffffffffffffffffffffffffffffffffffff1614159050919050565b600033905090565b81609b600083815260200190815260200160002060006101000a81548173ffffffffffffffffffffffffffffffffffffffff021916908373ffffffffffffffffffffffffffffffffffffffff160217905550808273ffffffffffffffffffffffffffffffffffffffff1661190783610d40565b73ffffffffffffffffffffffffffffffffffffffff167f8c5be1e5ebec7d5bd14f71427d1e84f3dd0314c0f7b2291e5b200ac8c7c3b92560405160405180910390a45050565b600061195882611820565b611997576040517f08c379a000000000000000000000000000000000000000000000000000000000815260040161198e90614d22565b60405180910390fd5b60006119a283610d40565b90508073ffffffffffffffffffffffffffffffffffffffff168473ffffffffffffffffffffffffffffffffffffffff161480611a1157508373ffffffffffffffffffffffffffffffffffffffff166119f984610873565b73ffffffffffffffffffffffffffffffffffffffff16145b80611a225750611a21818561165c565b5b91505092915050565b8273ffffffffffffffffffffffffffffffffffffffff16611a4b82610d40565b73ffffffffffffffffffffffffffffffffffffffff1614611aa1576040517f08c379a0000000000000000000000000000000000000000000000000000000008152600401611a9890614db4565b60405180910390fd5b600073ffffffffffffffffffffffffffffffffffffffff168273ffffffffffffffffffffffffffffffffffffffff161415611b11576040517f08c379a0000000000000000000000000000000000000000000000000000000008152600401611b0890614e46565b60405180910390fd5b611b1c838383612537565b611b27600082611894565b6001609a60008573ffffffffffffffffffffffffffffffffffffffff1673ffffffffffffffffffffffffffffffffffffffff1681526020019081526020016000206000828254611b77919061483b565b925050819055506001609a60008473ffffffffffffffffffffffffffffffffffffffff1673ffffffffffffffffffffffffffffffffffffffff1681526020019081526020016000206000828254611bce9190614e66565b92505081905550816099600083815260200190815260200160002060006101000a81548173ffffffffffffffffffffffffffffffffffffffff021916908373ffffffffffffffffffffffffffffffffffffffff160217905550808273ffffffffffffffffffffffffffffffffffffffff168473ffffffffffffffffffffffffffffffffffffffff167fddf252ad1be2c89b69c2b068fc378daa952ba7f163c4a11628f55a4df523b3ef60405160405180910390a4505050565b611c918282611066565b611d2057611cb68173ffffffffffffffffffffffffffffffffffffffff166014612547565b611cc48360001c6020612547565b604051602001611cd5929190614f54565b6040516020818303038152906040526040517f08c379a0000000000000000000000000000000000000000000000000000000008152600401611d1791906139ab565b60405180910390fd5b5050565b611d2e8282611066565b611e0157600160fb600084815260200190815260200160002060000160008373ffffffffffffffffffffffffffffffffffffffff1673ffffffffffffffffffffffffffffffffffffffff16815260200190815260200160002060006101000a81548160ff021916908315150217905550611da661188c565b73ffffffffffffffffffffffffffffffffffffffff168173ffffffffffffffffffffffffffffffffffffffff16837f2f8788117e7eff1d82e926ec794901d17c78024a50270940304540a733656f0d60405160405180910390a45b5050565b611e0f8282611066565b15611ee357600060fb600084815260200190815260200160002060000160008373ffffffffffffffffffffffffffffffffffffffff1673ffffffffffffffffffffffffffffffffffffffff16815260200190815260200160002060006101000a81548160ff021916908315150217905550611e8861188c565b73ffffffffffffffffffffffffffffffffffffffff168173ffffffffffffffffffffffffffffffffffffffff16837ff6391f5c32d9c69d2a47ea670b442974b53935d1edc7fd64eb21e047a839171b60405160405180910390a45b5050565b7f189ab7a9244df0848122154315af71fe140f3db0fe014031783b0946b8c9d2e3611f1981611f1461188c565b611c87565b5050565b6000611f27612783565b9050611f32846127da565b600083511180611f3f5750815b15611f5057611f4e8484612893565b505b6000611f7e7f4910fdfa16fed3260ed0e7147f7cc6da11a60208b5b9406d12a635614ffd914360001b612977565b90508060000160009054906101000a900460ff166120e75760018160000160006101000a81548160ff02191690831515021790555061204a8583604051602401611fc89190613a71565b6040516020818303038152906040527f3659cfe6000000000000000000000000000000000000000000000000000000007bffffffffffffffffffffffffffffffffffffffffffffffffffffffff19166020820180517bffffffffffffffffffffffffffffffffffffffffffffffffffffffff8381831617835250505050612893565b5060008160000160006101000a81548160ff021916908315150217905550612070612783565b73ffffffffffffffffffffffffffffffffffffffff168273ffffffffffffffffffffffffffffffffffffffff16146120dd576040517f08c379a00000000000000000000000000000000000000000000000000000000081526004016120d490615000565b60405180910390fd5b6120e685612981565b5b5050505050565b600060019054906101000a900460ff1680612114575060008054906101000a900460ff16155b612153576040517f08c379a000000000000000000000000000000000000000000000000000000000815260040161214a9061478c565b60405180910390fd5b60008060019054906101000a900460ff1615905080156121a3576001600060016101000a81548160ff02191690831515021790555060016000806101000a81548160ff0219169083151502179055505b6121ab6129d0565b6121b3612aa9565b6121bd8383612b82565b80156121de5760008060016101000a81548160ff0219169083151502179055505b505050565b600060019054906101000a900460ff1680612209575060008054906101000a900460ff16155b612248576040517f08c379a000000000000000000000000000000000000000000000000000000000815260040161223f9061478c565b60405180910390fd5b60008060019054906101000a900460ff161590508015612298576001600060016101000a81548160ff02191690831515021790555060016000806101000a81548160ff0219169083151502179055505b6122a06129d0565b6122a8612aa9565b6122b0612c8b565b80156122d15760008060016101000a81548160ff0219169083151502179055505b50565b6122de8282611d24565b5050565b6122fc828260405180602001604052806000815250612d64565b5050565b61230b848484611a2b565b61231784848484612dbf565b612356576040517f08c379a000000000000000000000000000000000000000000000000000000000815260040161234d90615092565b60405180910390fd5b50505050565b606060008214156123a4576040518060400160405280600181526020017f300000000000000000000000000000000000000000000000000000000000000081525090506124b8565b600082905060005b600082146123d65780806123bf906150b2565b915050600a826123cf919061486f565b91506123ac565b60008167ffffffffffffffff8111156123f2576123f1613c47565b5b6040519080825280601f01601f1916602001820160405280156124245781602001600182028036833780820191505090505b5090505b600085146124b15760018261243d919061483b565b9150600a8561244c91906147db565b60306124589190614e66565b60f81b81838151811061246e5761246d6145c7565b5b60200101907effffffffffffffffffffffffffffffffffffffffffffffffffffffffffffff1916908160001a905350600a856124aa919061486f565b9450612428565b8093505050505b919050565b60007f7965db0b000000000000000000000000000000000000000000000000000000007bffffffffffffffffffffffffffffffffffffffffffffffffffffffff1916827bffffffffffffffffffffffffffffffffffffffffffffffffffffffff19161480612530575061252f82612f47565b5b9050919050565b612542838383613029565b505050565b60606000600283600261255a91906150fb565b6125649190614e66565b67ffffffffffffffff81111561257d5761257c613c47565b5b6040519080825280601f01601f1916602001820160405280156125af5781602001600182028036833780820191505090505b5090507f3000000000000000000000000000000000000000000000000000000000000000816000815181106125e7576125e66145c7565b5b60200101907effffffffffffffffffffffffffffffffffffffffffffffffffffffffffffff1916908160001a9053507f78000000000000000000000000000000000000000000000000000000000000008160018151811061264b5761264a6145c7565b5b60200101907effffffffffffffffffffffffffffffffffffffffffffffffffffffffffffff1916908160001a9053506000600184600261268b91906150fb565b6126959190614e66565b90505b6001811115612735577f3031323334353637383961626364656600000000000000000000000000000000600f8616601081106126d7576126d66145c7565b5b1a60f81b8282815181106126ee576126ed6145c7565b5b60200101907effffffffffffffffffffffffffffffffffffffffffffffffffffffffffffff1916908160001a905350600485901c94508061272e90615155565b9050612698565b5060008414612779576040517f08c379a0000000000000000000000000000000000000000000000000000000008152600401612770906151cb565b60405180910390fd5b8091505092915050565b60006127b17f360894a13ba1a3210667c828492db98dca3e2076cc3735a920a3ca505d382bbc60001b61313d565b60000160009054906101000a900473ffffffffffffffffffffffffffffffffffffffff16905090565b6127e381613147565b612822576040517f08c379a00000000000000000000000000000000000000000000000000000000081526004016128199061525d565b60405180910390fd5b8061284f7f360894a13ba1a3210667c828492db98dca3e2076cc3735a920a3ca505d382bbc60001b61313d565b60000160006101000a81548173ffffffffffffffffffffffffffffffffffffffff021916908373ffffffffffffffffffffffffffffffffffffffff16021790555050565b606061289e83613147565b6128dd576040517f08c379a00000000000000000000000000000000000000000000000000000000081526004016128d4906152ef565b60405180910390fd5b6000808473ffffffffffffffffffffffffffffffffffffffff16846040516129059190615356565b600060405180830381855af49150503d8060008114612940576040519150601f19603f3d011682016040523d82523d6000602084013e612945565b606091505b509150915061296d828260405180606001604052806027815260200161554d6027913961315a565b9250505092915050565b6000819050919050565b61298a816127da565b8073ffffffffffffffffffffffffffffffffffffffff167fbc7cd75a20ee27fd9adebab32041f755214dbc6bffa90cc0225b39da2e5c2d3b60405160405180910390a250565b600060019054906101000a900460ff16806129f6575060008054906101000a900460ff16155b612a35576040517f08c379a0000000000000000000000000000000000000000000000000000000008152600401612a2c9061478c565b60405180910390fd5b60008060019054906101000a900460ff161590508015612a85576001600060016101000a81548160ff02191690831515021790555060016000806101000a81548160ff0219169083151502179055505b8015612aa65760008060016101000a81548160ff0219169083151502179055505b50565b600060019054906101000a900460ff1680612acf575060008054906101000a900460ff16155b612b0e576040517f08c379a0000000000000000000000000000000000000000000000000000000008152600401612b059061478c565b60405180910390fd5b60008060019054906101000a900460ff161590508015612b5e576001600060016101000a81548160ff02191690831515021790555060016000806101000a81548160ff0219169083151502179055505b8015612b7f5760008060016101000a81548160ff0219169083151502179055505b50565b600060019054906101000a900460ff1680612ba8575060008054906101000a900460ff16155b612be7576040517f08c379a0000000000000000000000000000000000000000000000000000000008152600401612bde9061478c565b60405180910390fd5b60008060019054906101000a900460ff161590508015612c37576001600060016101000a81548160ff02191690831515021790555060016000806101000a81548160ff0219169083151502179055505b8260979080519060200190612c4d9291906137a0565b508160989080519060200190612c649291906137a0565b508015612c865760008060016101000a81548160ff0219169083151502179055505b505050565b600060019054906101000a900460ff1680612cb1575060008054906101000a900460ff16155b612cf0576040517f08c379a0000000000000000000000000000000000000000000000000000000008152600401612ce79061478c565b60405180910390fd5b60008060019054906101000a900460ff161590508015612d40576001600060016101000a81548160ff02191690831515021790555060016000806101000a81548160ff0219169083151502179055505b8015612d615760008060016101000a81548160ff0219169083151502179055505b50565b612d6e83836131c1565b612d7b6000848484612dbf565b612dba576040517f08c379a0000000000000000000000000000000000000000000000000000000008152600401612db190615092565b60405180910390fd5b505050565b6000612de08473ffffffffffffffffffffffffffffffffffffffff16613147565b15612f3a578373ffffffffffffffffffffffffffffffffffffffff1663150b7a02612e0961188c565b8786866040518563ffffffff1660e01b8152600401612e2b94939291906153b7565b6020604051808303816000875af1925050508015612e6757506040513d601f19601f82011682018060405250810190612e649190615418565b60015b612eea573d8060008114612e97576040519150601f19603f3d011682016040523d82523d6000602084013e612e9c565b606091505b50600081511415612ee2576040517f08c379a0000000000000000000000000000000000000000000000000000000008152600401612ed990615092565b60405180910390fd5b805181602001fd5b63150b7a0260e01b7bffffffffffffffffffffffffffffffffffffffffffffffffffffffff1916817bffffffffffffffffffffffffffffffffffffffffffffffffffffffff191614915050612f3f565b600190505b949350505050565b60007f80ac58cd000000000000000000000000000000000000000000000000000000007bffffffffffffffffffffffffffffffffffffffffffffffffffffffff1916827bffffffffffffffffffffffffffffffffffffffffffffffffffffffff1916148061301257507f5b5e139f000000000000000000000000000000000000000000000000000000007bffffffffffffffffffffffffffffffffffffffffffffffffffffffff1916827bffffffffffffffffffffffffffffffffffffffffffffffffffffffff1916145b8061302257506130218261338f565b5b9050919050565b6130348383836133f9565b600073ffffffffffffffffffffffffffffffffffffffff168373ffffffffffffffffffffffffffffffffffffffff16141561307757613072816133fe565b6130b6565b8173ffffffffffffffffffffffffffffffffffffffff168373ffffffffffffffffffffffffffffffffffffffff16146130b5576130b4838261344a565b5b5b600073ffffffffffffffffffffffffffffffffffffffff168273ffffffffffffffffffffffffffffffffffffffff1614156130f9576130f4816135bd565b613138565b8273ffffffffffffffffffffffffffffffffffffffff168273ffffffffffffffffffffffffffffffffffffffff1614613137576131368282613695565b5b5b505050565b6000819050919050565b600080823b905060008111915050919050565b6060831561316a578290506131ba565b60008351111561317d5782518084602001fd5b816040517f08c379a00000000000000000000000000000000000000000000000000000000081526004016131b191906139ab565b60405180910390fd5b9392505050565b600073ffffffffffffffffffffffffffffffffffffffff168273ffffffffffffffffffffffffffffffffffffffff161415613231576040517f08c379a000000000000000000000000000000000000000000000000000000000815260040161322890615491565b60405180910390fd5b61323a81611820565b1561327a576040517f08c379a0000000000000000000000000000000000000000000000000000000008152600401613271906154fd565b60405180910390fd5b61328660008383612537565b6001609a60008473ffffffffffffffffffffffffffffffffffffffff1673ffffffffffffffffffffffffffffffffffffffff16815260200190815260200160002060008282546132d69190614e66565b92505081905550816099600083815260200190815260200160002060006101000a81548173ffffffffffffffffffffffffffffffffffffffff021916908373ffffffffffffffffffffffffffffffffffffffff160217905550808273ffffffffffffffffffffffffffffffffffffffff16600073ffffffffffffffffffffffffffffffffffffffff167fddf252ad1be2c89b69c2b068fc378daa952ba7f163c4a11628f55a4df523b3ef60405160405180910390a45050565b60007f01ffc9a7000000000000000000000000000000000000000000000000000000007bffffffffffffffffffffffffffffffffffffffffffffffffffffffff1916827bffffffffffffffffffffffffffffffffffffffffffffffffffffffff1916149050919050565b505050565b61012f8054905061013060008381526020019081526020016000208190555061012f81908060018154018082558091505060019003906000526020600020016000909190919091505550565b6000600161345784610df2565b613461919061483b565b9050600061012e600084815260200190815260200160002054905081811461354a57600061012d60008673ffffffffffffffffffffffffffffffffffffffff1673ffffffffffffffffffffffffffffffffffffffff16815260200190815260200160002060008481526020019081526020016000205490508061012d60008773ffffffffffffffffffffffffffffffffffffffff1673ffffffffffffffffffffffffffffffffffffffff1681526020019081526020016000206000848152602001908152602001600020819055508161012e600083815260200190815260200160002081905550505b61012e60008481526020019081526020016000206000905561012d60008573ffffffffffffffffffffffffffffffffffffffff1673ffffffffffffffffffffffffffffffffffffffff16815260200190815260200160002060008381526020019081526020016000206000905550505050565b6000600161012f805490506135d2919061483b565b905060006101306000848152602001908152602001600020549050600061012f8381548110613604576136036145c7565b5b906000526020600020015490508061012f8381548110613627576136266145c7565b5b90600052602060002001819055508161013060008381526020019081526020016000208190555061013060008581526020019081526020016000206000905561012f8054806136795761367861551d565b5b6001900381819060005260206000200160009055905550505050565b60006136a083610df2565b90508161012d60008573ffffffffffffffffffffffffffffffffffffffff1673ffffffffffffffffffffffffffffffffffffffff1681526020019081526020016000206000838152602001908152602001600020819055508061012e600084815260200190815260200160002081905550505050565b82805482825590600052602060002090810192821561378f579160200282015b8281111561378e5782518260006101000a81548173ffffffffffffffffffffffffffffffffffffffff021916908373ffffffffffffffffffffffffffffffffffffffff16021790555091602001919060010190613736565b5b50905061379c9190613826565b5090565b8280546137ac906148cf565b90600052602060002090601f0160209004810192826137ce5760008555613815565b82601f106137e757805160ff1916838001178555613815565b82800160010185558215613815579182015b828111156138145782518255916020019190600101906137f9565b5b5090506138229190613826565b5090565b5b8082111561383f576000816000905550600101613827565b5090565b6000604051905090565b600080fd5b600080fd5b60007fffffffff0000000000000000000000000000000000000000000000000000000082169050919050565b61388c81613857565b811461389757600080fd5b50565b6000813590506138a981613883565b92915050565b6000602082840312156138c5576138c461384d565b5b60006138d38482850161389a565b91505092915050565b60008115159050919050565b6138f1816138dc565b82525050565b600060208201905061390c60008301846138e8565b92915050565b600081519050919050565b600082825260208201905092915050565b60005b8381101561394c578082015181840152602081019050613931565b8381111561395b576000848401525b50505050565b6000601f19601f8301169050919050565b600061397d82613912565b613987818561391d565b935061399781856020860161392e565b6139a081613961565b840191505092915050565b600060208201905081810360008301526139c58184613972565b905092915050565b6000819050919050565b6139e0816139cd565b81146139eb57600080fd5b50565b6000813590506139fd816139d7565b92915050565b600060208284031215613a1957613a1861384d565b5b6000613a27848285016139ee565b91505092915050565b600073ffffffffffffffffffffffffffffffffffffffff82169050919050565b6000613a5b82613a30565b9050919050565b613a6b81613a50565b82525050565b6000602082019050613a866000830184613a62565b92915050565b613a9581613a50565b8114613aa057600080fd5b50565b600081359050613ab281613a8c565b92915050565b60008060408385031215613acf57613ace61384d565b5b6000613add85828601613aa3565b9250506020613aee858286016139ee565b9150509250929050565b613b01816139cd565b82525050565b6000602082019050613b1c6000830184613af8565b92915050565b600080600060608486031215613b3b57613b3a61384d565b5b6000613b4986828701613aa3565b9350506020613b5a86828701613aa3565b9250506040613b6b868287016139ee565b9150509250925092565b6000819050919050565b613b8881613b75565b8114613b9357600080fd5b50565b600081359050613ba581613b7f565b92915050565b600060208284031215613bc157613bc061384d565b5b6000613bcf84828501613b96565b91505092915050565b613be181613b75565b82525050565b6000602082019050613bfc6000830184613bd8565b92915050565b60008060408385031215613c1957613c1861384d565b5b6000613c2785828601613b96565b9250506020613c3885828601613aa3565b9150509250929050565b600080fd5b7f4e487b7100000000000000000000000000000000000000000000000000000000600052604160045260246000fd5b613c7f82613961565b810181811067ffffffffffffffff82111715613c9e57613c9d613c47565b5b80604052505050565b6000613cb1613843565b9050613cbd8282613c76565b919050565b600067ffffffffffffffff821115613cdd57613cdc613c47565b5b602082029050602081019050919050565b600080fd5b6000613cfe82613a50565b9050919050565b613d0e81613cf3565b8114613d1957600080fd5b50565b600081359050613d2b81613d05565b92915050565b6000613d44613d3f84613cc2565b613ca7565b90508083825260208201905060208402830185811115613d6757613d66613cee565b5b835b81811015613d905780613d7c8882613d1c565b845260208401935050602081019050613d69565b5050509392505050565b600082601f830112613daf57613dae613c42565b5b8135613dbf848260208601613d31565b91505092915050565b600060208284031215613dde57613ddd61384d565b5b600082013567ffffffffffffffff811115613dfc57613dfb613852565b5b613e0884828501613d9a565b91505092915050565b600060208284031215613e2757613e2661384d565b5b6000613e3584828501613aa3565b91505092915050565b600080fd5b600067ffffffffffffffff821115613e5e57613e5d613c47565b5b613e6782613961565b9050602081019050919050565b82818337600083830152505050565b6000613e96613e9184613e43565b613ca7565b905082815260208101848484011115613eb257613eb1613e3e565b5b613ebd848285613e74565b509392505050565b600082601f830112613eda57613ed9613c42565b5b8135613eea848260208601613e83565b91505092915050565b60008060408385031215613f0a57613f0961384d565b5b6000613f1885828601613aa3565b925050602083013567ffffffffffffffff811115613f3957613f38613852565b5b613f4585828601613ec5565b9150509250929050565b600067ffffffffffffffff821115613f6a57613f69613c47565b5b613f7382613961565b9050602081019050919050565b6000613f93613f8e84613f4f565b613ca7565b905082815260208101848484011115613faf57613fae613e3e565b5b613fba848285613e74565b509392505050565b600082601f830112613fd757613fd6613c42565b5b8135613fe7848260208601613f80565b91505092915050565b6000602082840312156140065761400561384d565b5b600082013567ffffffffffffffff81111561402457614023613852565b5b61403084828501613fc2565b91505092915050565b600061ffff82169050919050565b61405081614039565b82525050565b600060208201905061406b6000830184614047565b92915050565b60006040820190506140866000830185613af8565b6140936020830184613af8565b9392505050565b6140a3816138dc565b81146140ae57600080fd5b50565b6000813590506140c08161409a565b92915050565b600080604083850312156140dd576140dc61384d565b5b60006140eb85828601613aa3565b92505060206140fc858286016140b1565b9150509250929050565b600080600080608085870312156141205761411f61384d565b5b600061412e87828801613aa3565b945050602061413f87828801613aa3565b9350506040614150878288016139ee565b925050606085013567ffffffffffffffff81111561417157614170613852565b5b61417d87828801613ec5565b91505092959194509250565b600080604083850312156141a05761419f61384d565b5b60006141ae85828601613aa3565b92505060206141bf85828601613aa3565b9150509250929050565b7f4552433732313a20617070726f76656420717565727920666f72206e6f6e657860008201527f697374656e7420746f6b656e0000000000000000000000000000000000000000602082015250565b6000614225602c8361391d565b9150614230826141c9565b604082019050919050565b6000602082019050818103600083015261425481614218565b9050919050565b7f4552433732313a20617070726f76616c20746f2063757272656e74206f776e6560008201527f7200000000000000000000000000000000000000000000000000000000000000602082015250565b60006142b760218361391d565b91506142c28261425b565b604082019050919050565b600060208201905081810360008301526142e6816142aa565b9050919050565b7f4552433732313a20617070726f76652063616c6c6572206973206e6f74206f7760008201527f6e6572206e6f7220617070726f76656420666f7220616c6c0000000000000000602082015250565b600061434960388361391d565b9150614354826142ed565b604082019050919050565b600060208201905081810360008301526143788161433c565b9050919050565b7f4552433732313a207472616e736665722063616c6c6572206973206e6f74206f60008201527f776e6572206e6f7220617070726f766564000000000000000000000000000000602082015250565b60006143db60318361391d565b91506143e68261437f565b604082019050919050565b6000602082019050818103600083015261440a816143ce565b9050919050565b7f455243373231456e756d657261626c653a206f776e657220696e646578206f7560008201527f74206f6620626f756e6473000000000000000000000000000000000000000000602082015250565b600061446d602b8361391d565b915061447882614411565b604082019050919050565b6000602082019050818103600083015261449c81614460565b9050919050565b7f416363657373436f6e74726f6c3a2063616e206f6e6c792072656e6f756e636560008201527f20726f6c657320666f722073656c660000000000000000000000000000000000602082015250565b60006144ff602f8361391d565b915061450a826144a3565b604082019050919050565b6000602082019050818103600083015261452e816144f2565b9050919050565b7f455243373231456e756d657261626c653a20676c6f62616c20696e646578206f60008201527f7574206f6620626f756e64730000000000000000000000000000000000000000602082015250565b6000614591602c8361391d565b915061459c82614535565b604082019050919050565b600060208201905081810360008301526145c081614584565b9050919050565b7f4e487b7100000000000000000000000000000000000000000000000000000000600052603260045260246000fd5b7f4552433732313a206f776e657220717565727920666f72206e6f6e657869737460008201527f656e7420746f6b656e0000000000000000000000000000000000000000000000602082015250565b600061465260298361391d565b915061465d826145f6565b604082019050919050565b6000602082019050818103600083015261468181614645565b9050919050565b7f4552433732313a2062616c616e636520717565727920666f7220746865207a6560008201527f726f206164647265737300000000000000000000000000000000000000000000602082015250565b60006146e4602a8361391d565b91506146ef82614688565b604082019050919050565b60006020820190508181036000830152614713816146d7565b9050919050565b7f496e697469616c697a61626c653a20636f6e747261637420697320616c72656160008201527f647920696e697469616c697a6564000000000000000000000000000000000000602082015250565b6000614776602e8361391d565b91506147818261471a565b604082019050919050565b600060208201905081810360008301526147a581614769565b9050919050565b7f4e487b7100000000000000000000000000000000000000000000000000000000600052601260045260246000fd5b60006147e6826139cd565b91506147f1836139cd565b925082614801576148006147ac565b5b828206905092915050565b7f4e487b7100000000000000000000000000000000000000000000000000000000600052601160045260246000fd5b6000614846826139cd565b9150614851836139cd565b9250828210156148645761486361480c565b5b828203905092915050565b600061487a826139cd565b9150614885836139cd565b925082614895576148946147ac565b5b828204905092915050565b7f4e487b7100000000000000000000000000000000000000000000000000000000600052602260045260246000fd5b600060028204905060018216806148e757607f821691505b602082108114156148fb576148fa6148a0565b5b50919050565b7f6c616e644964206572726f720000000000000000000000000000000000000000600082015250565b6000614937600c8361391d565b915061494282614901565b602082019050919050565b600060208201905081810360008301526149668161492a565b9050919050565b7f457863656564696e6720746865206d6178696d756d20737570706c792071756160008201527f6e74697479000000000000000000000000000000000000000000000000000000602082015250565b60006149c960258361391d565b91506149d48261496d565b604082019050919050565b600060208201905081810360008301526149f8816149bc565b9050919050565b7f4d696e7420636f6e666c69637465642031000000000000000000000000000000600082015250565b6000614a3560118361391d565b9150614a40826149ff565b602082019050919050565b60006020820190508181036000830152614a6481614a28565b9050919050565b600081519050614a7a8161409a565b92915050565b600060208284031215614a9657614a9561384d565b5b6000614aa484828501614a6b565b91505092915050565b7f4d696e7420636f6e666c69637465642032000000000000000000000000000000600082015250565b6000614ae360118361391d565b9150614aee82614aad565b602082019050919050565b60006020820190508181036000830152614b1281614ad6565b9050919050565b600060ff82169050919050565b6000614b3182614b19565b915060ff821415614b4557614b4461480c565b5b600182019050919050565b7f4552433732313a20617070726f766520746f2063616c6c657200000000000000600082015250565b6000614b8660198361391d565b9150614b9182614b50565b602082019050919050565b60006020820190508181036000830152614bb581614b79565b9050919050565b600081905092915050565b60008190508160005260206000209050919050565b60008154614be9816148cf565b614bf38186614bbc565b94506001821660008114614c0e5760018114614c1f57614c52565b60ff19831686528186019350614c52565b614c2885614bc7565b60005b83811015614c4a57815481890152600182019150602081019050614c2b565b838801955050505b50505092915050565b6000614c6682613912565b614c708185614bbc565b9350614c8081856020860161392e565b80840191505092915050565b6000614c988285614bdc565b9150614ca48284614c5b565b91508190509392505050565b7f4552433732313a206f70657261746f7220717565727920666f72206e6f6e657860008201527f697374656e7420746f6b656e0000000000000000000000000000000000000000602082015250565b6000614d0c602c8361391d565b9150614d1782614cb0565b604082019050919050565b60006020820190508181036000830152614d3b81614cff565b9050919050565b7f4552433732313a207472616e73666572206f6620746f6b656e2074686174206960008201527f73206e6f74206f776e0000000000000000000000000000000000000000000000602082015250565b6000614d9e60298361391d565b9150614da982614d42565b604082019050919050565b60006020820190508181036000830152614dcd81614d91565b9050919050565b7f4552433732313a207472616e7366657220746f20746865207a65726f2061646460008201527f7265737300000000000000000000000000000000000000000000000000000000602082015250565b6000614e3060248361391d565b9150614e3b82614dd4565b604082019050919050565b60006020820190508181036000830152614e5f81614e23565b9050919050565b6000614e71826139cd565b9150614e7c836139cd565b9250827fffffffffffffffffffffffffffffffffffffffffffffffffffffffffffffffff03821115614eb157614eb061480c565b5b828201905092915050565b7f416363657373436f6e74726f6c3a206163636f756e7420000000000000000000600082015250565b6000614ef2601783614bbc565b9150614efd82614ebc565b601782019050919050565b7f206973206d697373696e6720726f6c6520000000000000000000000000000000600082015250565b6000614f3e601183614bbc565b9150614f4982614f08565b601182019050919050565b6000614f5f82614ee5565b9150614f6b8285614c5b565b9150614f7682614f31565b9150614f828284614c5b565b91508190509392505050565b7f45524331393637557067726164653a207570677261646520627265616b73206660008201527f7572746865722075706772616465730000000000000000000000000000000000602082015250565b6000614fea602f8361391d565b9150614ff582614f8e565b604082019050919050565b6000602082019050818103600083015261501981614fdd565b9050919050565b7f4552433732313a207472616e7366657220746f206e6f6e20455243373231526560008201527f63656976657220696d706c656d656e7465720000000000000000000000000000602082015250565b600061507c60328361391d565b915061508782615020565b604082019050919050565b600060208201905081810360008301526150ab8161506f565b9050919050565b60006150bd826139cd565b91507fffffffffffffffffffffffffffffffffffffffffffffffffffffffffffffffff8214156150f0576150ef61480c565b5b600182019050919050565b6000615106826139cd565b9150615111836139cd565b9250817fffffffffffffffffffffffffffffffffffffffffffffffffffffffffffffffff048311821515161561514a5761514961480c565b5b828202905092915050565b6000615160826139cd565b915060008214156151745761517361480c565b5b600182039050919050565b7f537472696e67733a20686578206c656e67746820696e73756666696369656e74600082015250565b60006151b560208361391d565b91506151c08261517f565b602082019050919050565b600060208201905081810360008301526151e4816151a8565b9050919050565b7f455243313936373a206e657720696d706c656d656e746174696f6e206973206e60008201527f6f74206120636f6e747261637400000000000000000000000000000000000000602082015250565b6000615247602d8361391d565b9150615252826151eb565b604082019050919050565b600060208201905081810360008301526152768161523a565b9050919050565b7f416464726573733a2064656c65676174652063616c6c20746f206e6f6e2d636f60008201527f6e74726163740000000000000000000000000000000000000000000000000000602082015250565b60006152d960268361391d565b91506152e48261527d565b604082019050919050565b60006020820190508181036000830152615308816152cc565b9050919050565b600081519050919050565b600081905092915050565b60006153308261530f565b61533a818561531a565b935061534a81856020860161392e565b80840191505092915050565b60006153628284615325565b915081905092915050565b600082825260208201905092915050565b60006153898261530f565b615393818561536d565b93506153a381856020860161392e565b6153ac81613961565b840191505092915050565b60006080820190506153cc6000830187613a62565b6153d96020830186613a62565b6153e66040830185613af8565b81810360608301526153f8818461537e565b905095945050505050565b60008151905061541281613883565b92915050565b60006020828403121561542e5761542d61384d565b5b600061543c84828501615403565b91505092915050565b7f4552433732313a206d696e7420746f20746865207a65726f2061646472657373600082015250565b600061547b60208361391d565b915061548682615445565b602082019050919050565b600060208201905081810360008301526154aa8161546e565b9050919050565b7f4552433732313a20746f6b656e20616c7265616479206d696e74656400000000600082015250565b60006154e7601c8361391d565b91506154f2826154b1565b602082019050919050565b60006020820190508181036000830152615516816154da565b9050919050565b7f4e487b7100000000000000000000000000000000000000000000000000000000600052603160045260246000fdfe416464726573733a206c6f772d6c6576656c2064656c65676174652063616c6c206661696c6564a26469706673582212202aece7f110beea0ae4208cb027626095a8b424c4d065a64879d1002e181fd35164736f6c634300080a0033",
  "immutableReferences": {},
  "source": "// SPDX-License-Identifier: MIT\npragma solidity ^0.8.2;\n\nimport \"./BaseLand.sol\";\n\ncontract TicketLand is BaseLand {\n    function initialize() public initializer {\n        __ERC721_init(\"TicketLand\", \"TICKET-LAND\");\n        __AccessControl_init();\n        _setupRole(DEFAULT_ADMIN_ROLE, msg.sender);\n        _setupRole(MINTER_ROLE, msg.sender);\n        _setupRole(UPGRADER_ROLE, msg.sender);\n    }\n\n    function getMintMax() public pure override(BaseLand) virtual returns (uint256) {\n        return 10000;\n    }\n}",
  "sourcePath": "/Users/alberthuang/code/icw/meland/contracts/TicketLand.sol",
  "compiler": {
    "name": "solc",
    "version": "0.8.10+commit.fc410830.Emscripten.clang"
  },
  "schemaVersion": "3.4.3",
  "updatedAt": "2021-11-15T06:02:32.334Z",
  "devdoc": {
    "kind": "dev",
    "methods": {
      "approve(address,uint256)": {
        "details": "See {IERC721-approve}."
      },
      "balanceOf(address)": {
        "details": "See {IERC721-balanceOf}."
      },
      "getApproved(uint256)": {
        "details": "See {IERC721-getApproved}."
      },
      "getRoleAdmin(bytes32)": {
        "details": "Returns the admin role that controls `role`. See {grantRole} and {revokeRole}. To change a role's admin, use {_setRoleAdmin}."
      },
      "grantRole(bytes32,address)": {
        "details": "Grants `role` to `account`. If `account` had not been already granted `role`, emits a {RoleGranted} event. Requirements: - the caller must have ``role``'s admin role."
      },
      "hasRole(bytes32,address)": {
        "details": "Returns `true` if `account` has been granted `role`."
      },
      "isApprovedForAll(address,address)": {
        "details": "See {IERC721-isApprovedForAll}."
      },
      "name()": {
        "details": "See {IERC721Metadata-name}."
      },
      "ownerOf(uint256)": {
        "details": "See {IERC721-ownerOf}."
      },
      "renounceRole(bytes32,address)": {
        "details": "Revokes `role` from the calling account. Roles are often managed via {grantRole} and {revokeRole}: this function's purpose is to provide a mechanism for accounts to lose their privileges if they are compromised (such as when a trusted device is misplaced). If the calling account had been granted `role`, emits a {RoleRevoked} event. Requirements: - the caller must be `account`."
      },
      "revokeRole(bytes32,address)": {
        "details": "Revokes `role` from `account`. If `account` had been granted `role`, emits a {RoleRevoked} event. Requirements: - the caller must have ``role``'s admin role."
      },
      "safeTransferFrom(address,address,uint256)": {
        "details": "See {IERC721-safeTransferFrom}."
      },
      "safeTransferFrom(address,address,uint256,bytes)": {
        "details": "See {IERC721-safeTransferFrom}."
      },
      "setApprovalForAll(address,bool)": {
        "details": "See {IERC721-setApprovalForAll}."
      },
      "symbol()": {
        "details": "See {IERC721Metadata-symbol}."
      },
      "tokenByIndex(uint256)": {
        "details": "See {IERC721Enumerable-tokenByIndex}."
      },
      "tokenOfOwnerByIndex(address,uint256)": {
        "details": "See {IERC721Enumerable-tokenOfOwnerByIndex}."
      },
      "tokenURI(uint256)": {
        "details": "See {IERC721Metadata-tokenURI}."
      },
      "totalSupply()": {
        "details": "See {IERC721Enumerable-totalSupply}."
      },
      "transferFrom(address,address,uint256)": {
        "details": "See {IERC721-transferFrom}."
      },
      "upgradeTo(address)": {
        "details": "Upgrade the implementation of the proxy to `newImplementation`. Calls {_authorizeUpgrade}. Emits an {Upgraded} event."
      },
      "upgradeToAndCall(address,bytes)": {
        "details": "Upgrade the implementation of the proxy to `newImplementation`, and subsequently execute the function call encoded in `data`. Calls {_authorizeUpgrade}. Emits an {Upgraded} event."
      }
    },
    "version": 1
  },
  "userdoc": {
    "kind": "user",
    "methods": {},
    "version": 1
  }
}